{
	"Periphery/XSwapPriceOracle.sol": {
		"XSwapPriceOracle": {
			"abi": [
				{
					"inputs": [
						{
							"internalType": "address",
							"name": "_factory",
							"type": "address"
						},
						{
							"internalType": "address",
							"name": "_WETH",
							"type": "address"
						}
					],
					"stateMutability": "nonpayable",
					"type": "constructor"
				},
				{
					"inputs": [],
					"name": "WETH",
					"outputs": [
						{
							"internalType": "address",
							"name": "",
							"type": "address"
						}
					],
					"stateMutability": "view",
					"type": "function"
				},
				{
					"inputs": [],
					"name": "factory",
					"outputs": [
						{
							"internalType": "address",
							"name": "",
							"type": "address"
						}
					],
					"stateMutability": "view",
					"type": "function"
				},
				{
					"inputs": [
						{
							"internalType": "address",
							"name": "tokenA",
							"type": "address"
						},
						{
							"internalType": "address",
							"name": "tokenB",
							"type": "address"
						}
					],
					"name": "getPriceA",
					"outputs": [
						{
							"internalType": "uint256",
							"name": "priceA",
							"type": "uint256"
						}
					],
					"stateMutability": "view",
					"type": "function"
				},
				{
					"inputs": [
						{
							"internalType": "address",
							"name": "tokenA",
							"type": "address"
						},
						{
							"internalType": "address",
							"name": "tokenB",
							"type": "address"
						}
					],
					"name": "getPriceB",
					"outputs": [
						{
							"internalType": "uint256",
							"name": "priceB",
							"type": "uint256"
						}
					],
					"stateMutability": "view",
					"type": "function"
				}
			],
			"devdoc": {
				"kind": "dev",
				"methods": {},
				"version": 1
			},
			"evm": {
				"assembly": "    /* \"Periphery/XSwapPriceOracle.sol\":142:1205  contract XSwapPriceOracle {... */\n  mstore(0x40, 0xc0)\n    /* \"Periphery/XSwapPriceOracle.sol\":248:350  constructor(address _factory, address _WETH) {... */\n  callvalue\n  dup1\n  iszero\n  tag_1\n  jumpi\n  0x00\n  dup1\n  revert\ntag_1:\n  pop\n  mload(0x40)\n  sub(codesize, bytecodeSize)\n  dup1\n  bytecodeSize\n  dup4\n  codecopy\n  dup2\n  dup2\n  add\n  0x40\n  mstore\n  dup2\n  add\n  swap1\n  tag_2\n  swap2\n  swap1\n  tag_3\n  jump\t// in\ntag_2:\n    /* \"Periphery/XSwapPriceOracle.sol\":313:321  _factory */\n  dup2\n    /* \"Periphery/XSwapPriceOracle.sol\":303:321  factory = _factory */\n  0xffffffffffffffffffffffffffffffffffffffff\n  and\n  0x80\n  dup2\n  0xffffffffffffffffffffffffffffffffffffffff\n  and\n  dup2\n  mstore\n  pop\n  pop\n    /* \"Periphery/XSwapPriceOracle.sol\":338:343  _WETH */\n  dup1\n    /* \"Periphery/XSwapPriceOracle.sol\":331:343  WETH = _WETH */\n  0xffffffffffffffffffffffffffffffffffffffff\n  and\n  0xa0\n  dup2\n  0xffffffffffffffffffffffffffffffffffffffff\n  and\n  dup2\n  mstore\n  pop\n  pop\n    /* \"Periphery/XSwapPriceOracle.sol\":248:350  constructor(address _factory, address _WETH) {... */\n  pop\n  pop\n    /* \"Periphery/XSwapPriceOracle.sol\":142:1205  contract XSwapPriceOracle {... */\n  jump(tag_6)\n    /* \"#utility.yul\":88:205   */\ntag_8:\n    /* \"#utility.yul\":197:198   */\n  0x00\n    /* \"#utility.yul\":194:195   */\n  dup1\n    /* \"#utility.yul\":187:199   */\n  revert\n    /* \"#utility.yul\":334:460   */\ntag_10:\n    /* \"#utility.yul\":371:378   */\n  0x00\n    /* \"#utility.yul\":411:453   */\n  0xffffffffffffffffffffffffffffffffffffffff\n    /* \"#utility.yul\":404:409   */\n  dup3\n    /* \"#utility.yul\":400:454   */\n  and\n    /* \"#utility.yul\":389:454   */\n  swap1\n  pop\n    /* \"#utility.yul\":334:460   */\n  swap2\n  swap1\n  pop\n  jump\t// out\n    /* \"#utility.yul\":466:562   */\ntag_11:\n    /* \"#utility.yul\":503:510   */\n  0x00\n    /* \"#utility.yul\":532:556   */\n  tag_20\n    /* \"#utility.yul\":550:555   */\n  dup3\n    /* \"#utility.yul\":532:556   */\n  tag_10\n  jump\t// in\ntag_20:\n    /* \"#utility.yul\":521:556   */\n  swap1\n  pop\n    /* \"#utility.yul\":466:562   */\n  swap2\n  swap1\n  pop\n  jump\t// out\n    /* \"#utility.yul\":568:690   */\ntag_12:\n    /* \"#utility.yul\":641:665   */\n  tag_22\n    /* \"#utility.yul\":659:664   */\n  dup2\n    /* \"#utility.yul\":641:665   */\n  tag_11\n  jump\t// in\ntag_22:\n    /* \"#utility.yul\":634:639   */\n  dup2\n    /* \"#utility.yul\":631:666   */\n  eq\n    /* \"#utility.yul\":621:684   */\n  tag_23\n  jumpi\n    /* \"#utility.yul\":680:681   */\n  0x00\n    /* \"#utility.yul\":677:678   */\n  dup1\n    /* \"#utility.yul\":670:682   */\n  revert\n    /* \"#utility.yul\":621:684   */\ntag_23:\n    /* \"#utility.yul\":568:690   */\n  pop\n  jump\t// out\n    /* \"#utility.yul\":696:839   */\ntag_13:\n    /* \"#utility.yul\":753:758   */\n  0x00\n    /* \"#utility.yul\":784:790   */\n  dup2\n    /* \"#utility.yul\":778:791   */\n  mload\n    /* \"#utility.yul\":769:791   */\n  swap1\n  pop\n    /* \"#utility.yul\":800:833   */\n  tag_25\n    /* \"#utility.yul\":827:832   */\n  dup2\n    /* \"#utility.yul\":800:833   */\n  tag_12\n  jump\t// in\ntag_25:\n    /* \"#utility.yul\":696:839   */\n  swap3\n  swap2\n  pop\n  pop\n  jump\t// out\n    /* \"#utility.yul\":845:1352   */\ntag_3:\n    /* \"#utility.yul\":924:930   */\n  0x00\n    /* \"#utility.yul\":932:938   */\n  dup1\n    /* \"#utility.yul\":981:983   */\n  0x40\n    /* \"#utility.yul\":969:978   */\n  dup4\n    /* \"#utility.yul\":960:967   */\n  dup6\n    /* \"#utility.yul\":956:979   */\n  sub\n    /* \"#utility.yul\":952:984   */\n  slt\n    /* \"#utility.yul\":949:1068   */\n  iszero\n  tag_27\n  jumpi\n    /* \"#utility.yul\":987:1066   */\n  tag_28\n  tag_8\n  jump\t// in\ntag_28:\n    /* \"#utility.yul\":949:1068   */\ntag_27:\n    /* \"#utility.yul\":1107:1108   */\n  0x00\n    /* \"#utility.yul\":1132:1196   */\n  tag_29\n    /* \"#utility.yul\":1188:1195   */\n  dup6\n    /* \"#utility.yul\":1179:1185   */\n  dup3\n    /* \"#utility.yul\":1168:1177   */\n  dup7\n    /* \"#utility.yul\":1164:1186   */\n  add\n    /* \"#utility.yul\":1132:1196   */\n  tag_13\n  jump\t// in\ntag_29:\n    /* \"#utility.yul\":1122:1196   */\n  swap3\n  pop\n    /* \"#utility.yul\":1078:1206   */\n  pop\n    /* \"#utility.yul\":1245:1247   */\n  0x20\n    /* \"#utility.yul\":1271:1335   */\n  tag_30\n    /* \"#utility.yul\":1327:1334   */\n  dup6\n    /* \"#utility.yul\":1318:1324   */\n  dup3\n    /* \"#utility.yul\":1307:1316   */\n  dup7\n    /* \"#utility.yul\":1303:1325   */\n  add\n    /* \"#utility.yul\":1271:1335   */\n  tag_13\n  jump\t// in\ntag_30:\n    /* \"#utility.yul\":1261:1335   */\n  swap2\n  pop\n    /* \"#utility.yul\":1216:1345   */\n  pop\n    /* \"#utility.yul\":845:1352   */\n  swap3\n  pop\n  swap3\n  swap1\n  pop\n  jump\t// out\n    /* \"Periphery/XSwapPriceOracle.sol\":142:1205  contract XSwapPriceOracle {... */\ntag_6:\n  mload(0x80)\n  mload(0xa0)\n  codecopy(0x00, dataOffset(sub_0), dataSize(sub_0))\n  0x00\n  assignImmutable(\"0x5fe7a1a414abe991afbda9a853d967f992c558068728d0e3ee148ed2656bb10a\")\n  0x00\n  assignImmutable(\"0x0e3aca62610a5b0e63dde37200dde7058c17f1af9615a3280f1e4361486f8ebc\")\n  return(0x00, dataSize(sub_0))\nstop\n\nsub_0: assembly {\n        /* \"Periphery/XSwapPriceOracle.sol\":142:1205  contract XSwapPriceOracle {... */\n      mstore(0x40, 0x80)\n      callvalue\n      dup1\n      iszero\n      tag_1\n      jumpi\n      0x00\n      dup1\n      revert\n    tag_1:\n      pop\n      jumpi(tag_2, lt(calldatasize, 0x04))\n      shr(0xe0, calldataload(0x00))\n      dup1\n      0x4a611dd2\n      eq\n      tag_3\n      jumpi\n      dup1\n      0x8c101922\n      eq\n      tag_4\n      jumpi\n      dup1\n      0xad5c4648\n      eq\n      tag_5\n      jumpi\n      dup1\n      0xc45a0155\n      eq\n      tag_6\n      jumpi\n    tag_2:\n      0x00\n      dup1\n      revert\n        /* \"Periphery/XSwapPriceOracle.sol\":821:1203  function getPriceB(address tokenA, address tokenB)... */\n    tag_3:\n      tag_7\n      0x04\n      dup1\n      calldatasize\n      sub\n      dup2\n      add\n      swap1\n      tag_8\n      swap2\n      swap1\n      tag_9\n      jump\t// in\n    tag_8:\n      tag_10\n      jump\t// in\n    tag_7:\n      mload(0x40)\n      tag_11\n      swap2\n      swap1\n      tag_12\n      jump\t// in\n    tag_11:\n      mload(0x40)\n      dup1\n      swap2\n      sub\n      swap1\n      return\n        /* \"Periphery/XSwapPriceOracle.sol\":433:815  function getPriceA(address tokenA, address tokenB)... */\n    tag_4:\n      tag_13\n      0x04\n      dup1\n      calldatasize\n      sub\n      dup2\n      add\n      swap1\n      tag_14\n      swap2\n      swap1\n      tag_9\n      jump\t// in\n    tag_14:\n      tag_15\n      jump\t// in\n    tag_13:\n      mload(0x40)\n      tag_16\n      swap2\n      swap1\n      tag_12\n      jump\t// in\n    tag_16:\n      mload(0x40)\n      dup1\n      swap2\n      sub\n      swap1\n      return\n        /* \"Periphery/XSwapPriceOracle.sol\":212:241  address public immutable WETH */\n    tag_5:\n      tag_17\n      tag_18\n      jump\t// in\n    tag_17:\n      mload(0x40)\n      tag_19\n      swap2\n      swap1\n      tag_20\n      jump\t// in\n    tag_19:\n      mload(0x40)\n      dup1\n      swap2\n      sub\n      swap1\n      return\n        /* \"Periphery/XSwapPriceOracle.sol\":174:206  address public immutable factory */\n    tag_6:\n      tag_21\n      tag_22\n      jump\t// in\n    tag_21:\n      mload(0x40)\n      tag_23\n      swap2\n      swap1\n      tag_20\n      jump\t// in\n    tag_23:\n      mload(0x40)\n      dup1\n      swap2\n      sub\n      swap1\n      return\n        /* \"Periphery/XSwapPriceOracle.sol\":821:1203  function getPriceB(address tokenA, address tokenB)... */\n    tag_10:\n        /* \"Periphery/XSwapPriceOracle.sol\":917:931  uint256 priceB */\n      0x00\n        /* \"Periphery/XSwapPriceOracle.sol\":947:959  address pair */\n      dup1\n        /* \"Periphery/XSwapPriceOracle.sol\":962:1007  XSwapLibrary.pairFor(factory, tokenA, tokenB) */\n      tag_25\n        /* \"Periphery/XSwapPriceOracle.sol\":983:990  factory */\n      immutable(\"0x0e3aca62610a5b0e63dde37200dde7058c17f1af9615a3280f1e4361486f8ebc\")\n        /* \"Periphery/XSwapPriceOracle.sol\":992:998  tokenA */\n      dup6\n        /* \"Periphery/XSwapPriceOracle.sol\":1000:1006  tokenB */\n      dup6\n        /* \"Periphery/XSwapPriceOracle.sol\":962:982  XSwapLibrary.pairFor */\n      tag_26\n        /* \"Periphery/XSwapPriceOracle.sol\":962:1007  XSwapLibrary.pairFor(factory, tokenA, tokenB) */\n      jump\t// in\n    tag_25:\n        /* \"Periphery/XSwapPriceOracle.sol\":947:1007  address pair = XSwapLibrary.pairFor(factory, tokenA, tokenB) */\n      swap1\n      pop\n        /* \"Periphery/XSwapPriceOracle.sol\":1079:1092  uint reserveA */\n      0x00\n        /* \"Periphery/XSwapPriceOracle.sol\":1094:1107  uint reserveB */\n      dup1\n        /* \"Periphery/XSwapPriceOracle.sol\":1109:1123  uint timeStamp */\n      0x00\n        /* \"Periphery/XSwapPriceOracle.sol\":1138:1142  pair */\n      dup4\n        /* \"Periphery/XSwapPriceOracle.sol\":1127:1155  IXSwapPair(pair).getReserves */\n      0xffffffffffffffffffffffffffffffffffffffff\n      and\n      0x0902f1ac\n        /* \"Periphery/XSwapPriceOracle.sol\":1127:1157  IXSwapPair(pair).getReserves() */\n      mload(0x40)\n      dup2\n      0xffffffff\n      and\n      0xe0\n      shl\n      dup2\n      mstore\n      0x04\n      add\n      0x60\n      mload(0x40)\n      dup1\n      dup4\n      sub\n      dup2\n      dup7\n      gas\n      staticcall\n      iszero\n      dup1\n      iszero\n      tag_28\n      jumpi\n      returndatasize\n      0x00\n      dup1\n      returndatacopy\n      revert(0x00, returndatasize)\n    tag_28:\n      pop\n      pop\n      pop\n      pop\n      mload(0x40)\n      returndatasize\n      not(0x1f)\n      0x1f\n      dup3\n      add\n      and\n      dup3\n      add\n      dup1\n      0x40\n      mstore\n      pop\n      dup2\n      add\n      swap1\n      tag_29\n      swap2\n      swap1\n      tag_30\n      jump\t// in\n    tag_29:\n        /* \"Periphery/XSwapPriceOracle.sol\":1078:1157  (uint reserveA ,uint reserveB ,uint timeStamp )= IXSwapPair(pair).getReserves() */\n      0xffffffff\n      and\n      swap3\n      pop\n      0xffffffffffffffffffffffffffff\n      and\n      swap3\n      pop\n      0xffffffffffffffffffffffffffff\n      and\n      swap3\n      pop\n        /* \"Periphery/XSwapPriceOracle.sol\":1187:1195  reserveB */\n      dup2\n        /* \"Periphery/XSwapPriceOracle.sol\":1178:1186  reserveA */\n      dup4\n        /* \"Periphery/XSwapPriceOracle.sol\":1178:1195  reserveA/reserveB */\n      tag_31\n      swap2\n      swap1\n      tag_32\n      jump\t// in\n    tag_31:\n        /* \"Periphery/XSwapPriceOracle.sol\":1168:1196  priceB = (reserveA/reserveB) */\n      swap5\n      pop\n        /* \"Periphery/XSwapPriceOracle.sol\":937:1203  {... */\n      pop\n      pop\n      pop\n      pop\n        /* \"Periphery/XSwapPriceOracle.sol\":821:1203  function getPriceB(address tokenA, address tokenB)... */\n      swap3\n      swap2\n      pop\n      pop\n      jump\t// out\n        /* \"Periphery/XSwapPriceOracle.sol\":433:815  function getPriceA(address tokenA, address tokenB)... */\n    tag_15:\n        /* \"Periphery/XSwapPriceOracle.sol\":529:543  uint256 priceA */\n      0x00\n        /* \"Periphery/XSwapPriceOracle.sol\":559:571  address pair */\n      dup1\n        /* \"Periphery/XSwapPriceOracle.sol\":574:619  XSwapLibrary.pairFor(factory, tokenA, tokenB) */\n      tag_34\n        /* \"Periphery/XSwapPriceOracle.sol\":595:602  factory */\n      immutable(\"0x0e3aca62610a5b0e63dde37200dde7058c17f1af9615a3280f1e4361486f8ebc\")\n        /* \"Periphery/XSwapPriceOracle.sol\":604:610  tokenA */\n      dup6\n        /* \"Periphery/XSwapPriceOracle.sol\":612:618  tokenB */\n      dup6\n        /* \"Periphery/XSwapPriceOracle.sol\":574:594  XSwapLibrary.pairFor */\n      tag_26\n        /* \"Periphery/XSwapPriceOracle.sol\":574:619  XSwapLibrary.pairFor(factory, tokenA, tokenB) */\n      jump\t// in\n    tag_34:\n        /* \"Periphery/XSwapPriceOracle.sol\":559:619  address pair = XSwapLibrary.pairFor(factory, tokenA, tokenB) */\n      swap1\n      pop\n        /* \"Periphery/XSwapPriceOracle.sol\":691:704  uint reserveA */\n      0x00\n        /* \"Periphery/XSwapPriceOracle.sol\":706:719  uint reserveB */\n      dup1\n        /* \"Periphery/XSwapPriceOracle.sol\":721:735  uint timeStamp */\n      0x00\n        /* \"Periphery/XSwapPriceOracle.sol\":750:754  pair */\n      dup4\n        /* \"Periphery/XSwapPriceOracle.sol\":739:767  IXSwapPair(pair).getReserves */\n      0xffffffffffffffffffffffffffffffffffffffff\n      and\n      0x0902f1ac\n        /* \"Periphery/XSwapPriceOracle.sol\":739:769  IXSwapPair(pair).getReserves() */\n      mload(0x40)\n      dup2\n      0xffffffff\n      and\n      0xe0\n      shl\n      dup2\n      mstore\n      0x04\n      add\n      0x60\n      mload(0x40)\n      dup1\n      dup4\n      sub\n      dup2\n      dup7\n      gas\n      staticcall\n      iszero\n      dup1\n      iszero\n      tag_36\n      jumpi\n      returndatasize\n      0x00\n      dup1\n      returndatacopy\n      revert(0x00, returndatasize)\n    tag_36:\n      pop\n      pop\n      pop\n      pop\n      mload(0x40)\n      returndatasize\n      not(0x1f)\n      0x1f\n      dup3\n      add\n      and\n      dup3\n      add\n      dup1\n      0x40\n      mstore\n      pop\n      dup2\n      add\n      swap1\n      tag_37\n      swap2\n      swap1\n      tag_30\n      jump\t// in\n    tag_37:\n        /* \"Periphery/XSwapPriceOracle.sol\":690:769  (uint reserveA ,uint reserveB ,uint timeStamp )= IXSwapPair(pair).getReserves() */\n      0xffffffff\n      and\n      swap3\n      pop\n      0xffffffffffffffffffffffffffff\n      and\n      swap3\n      pop\n      0xffffffffffffffffffffffffffff\n      and\n      swap3\n      pop\n        /* \"Periphery/XSwapPriceOracle.sol\":799:807  reserveA */\n      dup3\n        /* \"Periphery/XSwapPriceOracle.sol\":790:798  reserveB */\n      dup3\n        /* \"Periphery/XSwapPriceOracle.sol\":790:807  reserveB/reserveA */\n      tag_38\n      swap2\n      swap1\n      tag_32\n      jump\t// in\n    tag_38:\n        /* \"Periphery/XSwapPriceOracle.sol\":780:808  priceA = (reserveB/reserveA) */\n      swap5\n      pop\n        /* \"Periphery/XSwapPriceOracle.sol\":549:815  {... */\n      pop\n      pop\n      pop\n      pop\n        /* \"Periphery/XSwapPriceOracle.sol\":433:815  function getPriceA(address tokenA, address tokenB)... */\n      swap3\n      swap2\n      pop\n      pop\n      jump\t// out\n        /* \"Periphery/XSwapPriceOracle.sol\":212:241  address public immutable WETH */\n    tag_18:\n      immutable(\"0x5fe7a1a414abe991afbda9a853d967f992c558068728d0e3ee148ed2656bb10a\")\n      dup2\n      jump\t// out\n        /* \"Periphery/XSwapPriceOracle.sol\":174:206  address public immutable factory */\n    tag_22:\n      immutable(\"0x0e3aca62610a5b0e63dde37200dde7058c17f1af9615a3280f1e4361486f8ebc\")\n      dup2\n      jump\t// out\n        /* \"Periphery/libraries/XSwapLibrary.sol\":832:1106  function pairFor(... */\n    tag_26:\n        /* \"Periphery/libraries/XSwapLibrary.sol\":951:963  address pair */\n      0x00\n        /* \"Periphery/libraries/XSwapLibrary.sol\":976:990  address token0 */\n      dup1\n        /* \"Periphery/libraries/XSwapLibrary.sol\":992:1006  address token1 */\n      0x00\n        /* \"Periphery/libraries/XSwapLibrary.sol\":1010:1036  sortTokens(tokenA, tokenB) */\n      tag_40\n        /* \"Periphery/libraries/XSwapLibrary.sol\":1021:1027  tokenA */\n      dup6\n        /* \"Periphery/libraries/XSwapLibrary.sol\":1029:1035  tokenB */\n      dup6\n        /* \"Periphery/libraries/XSwapLibrary.sol\":1010:1020  sortTokens */\n      tag_41\n        /* \"Periphery/libraries/XSwapLibrary.sol\":1010:1036  sortTokens(tokenA, tokenB) */\n      jump\t// in\n    tag_40:\n        /* \"Periphery/libraries/XSwapLibrary.sol\":975:1036  (address token0, address token1) = sortTokens(tokenA, tokenB) */\n      swap2\n      pop\n      swap2\n      pop\n        /* \"Periphery/libraries/XSwapLibrary.sol\":1067:1074  factory */\n      dup6\n        /* \"Periphery/libraries/XSwapLibrary.sol\":1053:1083  IXSwapFactory(factory).getPair */\n      0xffffffffffffffffffffffffffffffffffffffff\n      and\n      0xe6a43905\n        /* \"Periphery/libraries/XSwapLibrary.sol\":1084:1090  token0 */\n      dup4\n        /* \"Periphery/libraries/XSwapLibrary.sol\":1092:1098  token1 */\n      dup4\n        /* \"Periphery/libraries/XSwapLibrary.sol\":1053:1099  IXSwapFactory(factory).getPair(token0, token1) */\n      mload(0x40)\n      dup4\n      0xffffffff\n      and\n      0xe0\n      shl\n      dup2\n      mstore\n      0x04\n      add\n      tag_42\n      swap3\n      swap2\n      swap1\n      tag_43\n      jump\t// in\n    tag_42:\n      0x20\n      mload(0x40)\n      dup1\n      dup4\n      sub\n      dup2\n      dup7\n      gas\n      staticcall\n      iszero\n      dup1\n      iszero\n      tag_45\n      jumpi\n      returndatasize\n      0x00\n      dup1\n      returndatacopy\n      revert(0x00, returndatasize)\n    tag_45:\n      pop\n      pop\n      pop\n      pop\n      mload(0x40)\n      returndatasize\n      not(0x1f)\n      0x1f\n      dup3\n      add\n      and\n      dup3\n      add\n      dup1\n      0x40\n      mstore\n      pop\n      dup2\n      add\n      swap1\n      tag_46\n      swap2\n      swap1\n      tag_47\n      jump\t// in\n    tag_46:\n        /* \"Periphery/libraries/XSwapLibrary.sol\":1046:1099  pair = IXSwapFactory(factory).getPair(token0, token1) */\n      swap3\n      pop\n        /* \"Periphery/libraries/XSwapLibrary.sol\":965:1106  {... */\n      pop\n      pop\n        /* \"Periphery/libraries/XSwapLibrary.sol\":832:1106  function pairFor(... */\n      swap4\n      swap3\n      pop\n      pop\n      pop\n      jump\t// out\n        /* \"Periphery/libraries/XSwapLibrary.sol\":371:732  function sortTokens(address tokenA, address tokenB)... */\n    tag_41:\n        /* \"Periphery/libraries/XSwapLibrary.sol\":470:484  address token0 */\n      0x00\n        /* \"Periphery/libraries/XSwapLibrary.sol\":486:500  address token1 */\n      dup1\n        /* \"Periphery/libraries/XSwapLibrary.sol\":534:540  tokenB */\n      dup3\n        /* \"Periphery/libraries/XSwapLibrary.sol\":524:540  tokenA != tokenB */\n      0xffffffffffffffffffffffffffffffffffffffff\n      and\n        /* \"Periphery/libraries/XSwapLibrary.sol\":524:530  tokenA */\n      dup5\n        /* \"Periphery/libraries/XSwapLibrary.sol\":524:540  tokenA != tokenB */\n      0xffffffffffffffffffffffffffffffffffffffff\n      and\n      sub\n        /* \"Periphery/libraries/XSwapLibrary.sol\":516:564  require(tokenA != tokenB, \"IDENTICAL_ADDRESSES\") */\n      tag_49\n      jumpi\n      mload(0x40)\n      0x08c379a000000000000000000000000000000000000000000000000000000000\n      dup2\n      mstore\n      0x04\n      add\n      tag_50\n      swap1\n      tag_51\n      jump\t// in\n    tag_50:\n      mload(0x40)\n      dup1\n      swap2\n      sub\n      swap1\n      revert\n    tag_49:\n        /* \"Periphery/libraries/XSwapLibrary.sol\":602:608  tokenB */\n      dup3\n        /* \"Periphery/libraries/XSwapLibrary.sol\":593:608  tokenA < tokenB */\n      0xffffffffffffffffffffffffffffffffffffffff\n      and\n        /* \"Periphery/libraries/XSwapLibrary.sol\":593:599  tokenA */\n      dup5\n        /* \"Periphery/libraries/XSwapLibrary.sol\":593:608  tokenA < tokenB */\n      0xffffffffffffffffffffffffffffffffffffffff\n      and\n      lt\n        /* \"Periphery/libraries/XSwapLibrary.sol\":593:670  tokenA < tokenB... */\n      tag_52\n      jumpi\n        /* \"Periphery/libraries/XSwapLibrary.sol\":655:661  tokenB */\n      dup3\n        /* \"Periphery/libraries/XSwapLibrary.sol\":663:669  tokenA */\n      dup5\n        /* \"Periphery/libraries/XSwapLibrary.sol\":593:670  tokenA < tokenB... */\n      jump(tag_53)\n    tag_52:\n        /* \"Periphery/libraries/XSwapLibrary.sol\":624:630  tokenA */\n      dup4\n        /* \"Periphery/libraries/XSwapLibrary.sol\":632:638  tokenB */\n      dup4\n        /* \"Periphery/libraries/XSwapLibrary.sol\":593:670  tokenA < tokenB... */\n    tag_53:\n        /* \"Periphery/libraries/XSwapLibrary.sol\":574:670  (token0, token1) = tokenA < tokenB... */\n      dup1\n      swap3\n      pop\n      dup2\n      swap4\n      pop\n      pop\n      pop\n        /* \"Periphery/libraries/XSwapLibrary.sol\":706:707  0 */\n      0x00\n        /* \"Periphery/libraries/XSwapLibrary.sol\":688:708  token0 != address(0) */\n      0xffffffffffffffffffffffffffffffffffffffff\n      and\n        /* \"Periphery/libraries/XSwapLibrary.sol\":688:694  token0 */\n      dup3\n        /* \"Periphery/libraries/XSwapLibrary.sol\":688:708  token0 != address(0) */\n      0xffffffffffffffffffffffffffffffffffffffff\n      and\n      sub\n        /* \"Periphery/libraries/XSwapLibrary.sol\":680:725  require(token0 != address(0), \"ZERO_ADDRESS\") */\n      tag_54\n      jumpi\n      mload(0x40)\n      0x08c379a000000000000000000000000000000000000000000000000000000000\n      dup2\n      mstore\n      0x04\n      add\n      tag_55\n      swap1\n      tag_56\n      jump\t// in\n    tag_55:\n      mload(0x40)\n      dup1\n      swap2\n      sub\n      swap1\n      revert\n    tag_54:\n        /* \"Periphery/libraries/XSwapLibrary.sol\":371:732  function sortTokens(address tokenA, address tokenB)... */\n      swap3\n      pop\n      swap3\n      swap1\n      pop\n      jump\t// out\n        /* \"#utility.yul\":88:205   */\n    tag_58:\n        /* \"#utility.yul\":197:198   */\n      0x00\n        /* \"#utility.yul\":194:195   */\n      dup1\n        /* \"#utility.yul\":187:199   */\n      revert\n        /* \"#utility.yul\":334:460   */\n    tag_60:\n        /* \"#utility.yul\":371:378   */\n      0x00\n        /* \"#utility.yul\":411:453   */\n      0xffffffffffffffffffffffffffffffffffffffff\n        /* \"#utility.yul\":404:409   */\n      dup3\n        /* \"#utility.yul\":400:454   */\n      and\n        /* \"#utility.yul\":389:454   */\n      swap1\n      pop\n        /* \"#utility.yul\":334:460   */\n      swap2\n      swap1\n      pop\n      jump\t// out\n        /* \"#utility.yul\":466:562   */\n    tag_61:\n        /* \"#utility.yul\":503:510   */\n      0x00\n        /* \"#utility.yul\":532:556   */\n      tag_87\n        /* \"#utility.yul\":550:555   */\n      dup3\n        /* \"#utility.yul\":532:556   */\n      tag_60\n      jump\t// in\n    tag_87:\n        /* \"#utility.yul\":521:556   */\n      swap1\n      pop\n        /* \"#utility.yul\":466:562   */\n      swap2\n      swap1\n      pop\n      jump\t// out\n        /* \"#utility.yul\":568:690   */\n    tag_62:\n        /* \"#utility.yul\":641:665   */\n      tag_89\n        /* \"#utility.yul\":659:664   */\n      dup2\n        /* \"#utility.yul\":641:665   */\n      tag_61\n      jump\t// in\n    tag_89:\n        /* \"#utility.yul\":634:639   */\n      dup2\n        /* \"#utility.yul\":631:666   */\n      eq\n        /* \"#utility.yul\":621:684   */\n      tag_90\n      jumpi\n        /* \"#utility.yul\":680:681   */\n      0x00\n        /* \"#utility.yul\":677:678   */\n      dup1\n        /* \"#utility.yul\":670:682   */\n      revert\n        /* \"#utility.yul\":621:684   */\n    tag_90:\n        /* \"#utility.yul\":568:690   */\n      pop\n      jump\t// out\n        /* \"#utility.yul\":696:835   */\n    tag_63:\n        /* \"#utility.yul\":742:747   */\n      0x00\n        /* \"#utility.yul\":780:786   */\n      dup2\n        /* \"#utility.yul\":767:787   */\n      calldataload\n        /* \"#utility.yul\":758:787   */\n      swap1\n      pop\n        /* \"#utility.yul\":796:829   */\n      tag_92\n        /* \"#utility.yul\":823:828   */\n      dup2\n        /* \"#utility.yul\":796:829   */\n      tag_62\n      jump\t// in\n    tag_92:\n        /* \"#utility.yul\":696:835   */\n      swap3\n      swap2\n      pop\n      pop\n      jump\t// out\n        /* \"#utility.yul\":841:1315   */\n    tag_9:\n        /* \"#utility.yul\":909:915   */\n      0x00\n        /* \"#utility.yul\":917:923   */\n      dup1\n        /* \"#utility.yul\":966:968   */\n      0x40\n        /* \"#utility.yul\":954:963   */\n      dup4\n        /* \"#utility.yul\":945:952   */\n      dup6\n        /* \"#utility.yul\":941:964   */\n      sub\n        /* \"#utility.yul\":937:969   */\n      slt\n        /* \"#utility.yul\":934:1053   */\n      iszero\n      tag_94\n      jumpi\n        /* \"#utility.yul\":972:1051   */\n      tag_95\n      tag_58\n      jump\t// in\n    tag_95:\n        /* \"#utility.yul\":934:1053   */\n    tag_94:\n        /* \"#utility.yul\":1092:1093   */\n      0x00\n        /* \"#utility.yul\":1117:1170   */\n      tag_96\n        /* \"#utility.yul\":1162:1169   */\n      dup6\n        /* \"#utility.yul\":1153:1159   */\n      dup3\n        /* \"#utility.yul\":1142:1151   */\n      dup7\n        /* \"#utility.yul\":1138:1160   */\n      add\n        /* \"#utility.yul\":1117:1170   */\n      tag_63\n      jump\t// in\n    tag_96:\n        /* \"#utility.yul\":1107:1170   */\n      swap3\n      pop\n        /* \"#utility.yul\":1063:1180   */\n      pop\n        /* \"#utility.yul\":1219:1221   */\n      0x20\n        /* \"#utility.yul\":1245:1298   */\n      tag_97\n        /* \"#utility.yul\":1290:1297   */\n      dup6\n        /* \"#utility.yul\":1281:1287   */\n      dup3\n        /* \"#utility.yul\":1270:1279   */\n      dup7\n        /* \"#utility.yul\":1266:1288   */\n      add\n        /* \"#utility.yul\":1245:1298   */\n      tag_63\n      jump\t// in\n    tag_97:\n        /* \"#utility.yul\":1235:1298   */\n      swap2\n      pop\n        /* \"#utility.yul\":1190:1308   */\n      pop\n        /* \"#utility.yul\":841:1315   */\n      swap3\n      pop\n      swap3\n      swap1\n      pop\n      jump\t// out\n        /* \"#utility.yul\":1321:1398   */\n    tag_64:\n        /* \"#utility.yul\":1358:1365   */\n      0x00\n        /* \"#utility.yul\":1387:1392   */\n      dup2\n        /* \"#utility.yul\":1376:1392   */\n      swap1\n      pop\n        /* \"#utility.yul\":1321:1398   */\n      swap2\n      swap1\n      pop\n      jump\t// out\n        /* \"#utility.yul\":1404:1522   */\n    tag_65:\n        /* \"#utility.yul\":1491:1515   */\n      tag_100\n        /* \"#utility.yul\":1509:1514   */\n      dup2\n        /* \"#utility.yul\":1491:1515   */\n      tag_64\n      jump\t// in\n    tag_100:\n        /* \"#utility.yul\":1486:1489   */\n      dup3\n        /* \"#utility.yul\":1479:1516   */\n      mstore\n        /* \"#utility.yul\":1404:1522   */\n      pop\n      pop\n      jump\t// out\n        /* \"#utility.yul\":1528:1750   */\n    tag_12:\n        /* \"#utility.yul\":1621:1625   */\n      0x00\n        /* \"#utility.yul\":1659:1661   */\n      0x20\n        /* \"#utility.yul\":1648:1657   */\n      dup3\n        /* \"#utility.yul\":1644:1662   */\n      add\n        /* \"#utility.yul\":1636:1662   */\n      swap1\n      pop\n        /* \"#utility.yul\":1672:1743   */\n      tag_102\n        /* \"#utility.yul\":1740:1741   */\n      0x00\n        /* \"#utility.yul\":1729:1738   */\n      dup4\n        /* \"#utility.yul\":1725:1742   */\n      add\n        /* \"#utility.yul\":1716:1722   */\n      dup5\n        /* \"#utility.yul\":1672:1743   */\n      tag_65\n      jump\t// in\n    tag_102:\n        /* \"#utility.yul\":1528:1750   */\n      swap3\n      swap2\n      pop\n      pop\n      jump\t// out\n        /* \"#utility.yul\":1756:1874   */\n    tag_66:\n        /* \"#utility.yul\":1843:1867   */\n      tag_104\n        /* \"#utility.yul\":1861:1866   */\n      dup2\n        /* \"#utility.yul\":1843:1867   */\n      tag_61\n      jump\t// in\n    tag_104:\n        /* \"#utility.yul\":1838:1841   */\n      dup3\n        /* \"#utility.yul\":1831:1868   */\n      mstore\n        /* \"#utility.yul\":1756:1874   */\n      pop\n      pop\n      jump\t// out\n        /* \"#utility.yul\":1880:2102   */\n    tag_20:\n        /* \"#utility.yul\":1973:1977   */\n      0x00\n        /* \"#utility.yul\":2011:2013   */\n      0x20\n        /* \"#utility.yul\":2000:2009   */\n      dup3\n        /* \"#utility.yul\":1996:2014   */\n      add\n        /* \"#utility.yul\":1988:2014   */\n      swap1\n      pop\n        /* \"#utility.yul\":2024:2095   */\n      tag_106\n        /* \"#utility.yul\":2092:2093   */\n      0x00\n        /* \"#utility.yul\":2081:2090   */\n      dup4\n        /* \"#utility.yul\":2077:2094   */\n      add\n        /* \"#utility.yul\":2068:2074   */\n      dup5\n        /* \"#utility.yul\":2024:2095   */\n      tag_66\n      jump\t// in\n    tag_106:\n        /* \"#utility.yul\":1880:2102   */\n      swap3\n      swap2\n      pop\n      pop\n      jump\t// out\n        /* \"#utility.yul\":2108:2222   */\n    tag_67:\n        /* \"#utility.yul\":2145:2152   */\n      0x00\n        /* \"#utility.yul\":2185:2215   */\n      0xffffffffffffffffffffffffffff\n        /* \"#utility.yul\":2178:2183   */\n      dup3\n        /* \"#utility.yul\":2174:2216   */\n      and\n        /* \"#utility.yul\":2163:2216   */\n      swap1\n      pop\n        /* \"#utility.yul\":2108:2222   */\n      swap2\n      swap1\n      pop\n      jump\t// out\n        /* \"#utility.yul\":2228:2350   */\n    tag_68:\n        /* \"#utility.yul\":2301:2325   */\n      tag_109\n        /* \"#utility.yul\":2319:2324   */\n      dup2\n        /* \"#utility.yul\":2301:2325   */\n      tag_67\n      jump\t// in\n    tag_109:\n        /* \"#utility.yul\":2294:2299   */\n      dup2\n        /* \"#utility.yul\":2291:2326   */\n      eq\n        /* \"#utility.yul\":2281:2344   */\n      tag_110\n      jumpi\n        /* \"#utility.yul\":2340:2341   */\n      0x00\n        /* \"#utility.yul\":2337:2338   */\n      dup1\n        /* \"#utility.yul\":2330:2342   */\n      revert\n        /* \"#utility.yul\":2281:2344   */\n    tag_110:\n        /* \"#utility.yul\":2228:2350   */\n      pop\n      jump\t// out\n        /* \"#utility.yul\":2356:2499   */\n    tag_69:\n        /* \"#utility.yul\":2413:2418   */\n      0x00\n        /* \"#utility.yul\":2444:2450   */\n      dup2\n        /* \"#utility.yul\":2438:2451   */\n      mload\n        /* \"#utility.yul\":2429:2451   */\n      swap1\n      pop\n        /* \"#utility.yul\":2460:2493   */\n      tag_112\n        /* \"#utility.yul\":2487:2492   */\n      dup2\n        /* \"#utility.yul\":2460:2493   */\n      tag_68\n      jump\t// in\n    tag_112:\n        /* \"#utility.yul\":2356:2499   */\n      swap3\n      swap2\n      pop\n      pop\n      jump\t// out\n        /* \"#utility.yul\":2505:2598   */\n    tag_70:\n        /* \"#utility.yul\":2541:2548   */\n      0x00\n        /* \"#utility.yul\":2581:2591   */\n      0xffffffff\n        /* \"#utility.yul\":2574:2579   */\n      dup3\n        /* \"#utility.yul\":2570:2592   */\n      and\n        /* \"#utility.yul\":2559:2592   */\n      swap1\n      pop\n        /* \"#utility.yul\":2505:2598   */\n      swap2\n      swap1\n      pop\n      jump\t// out\n        /* \"#utility.yul\":2604:2724   */\n    tag_71:\n        /* \"#utility.yul\":2676:2699   */\n      tag_115\n        /* \"#utility.yul\":2693:2698   */\n      dup2\n        /* \"#utility.yul\":2676:2699   */\n      tag_70\n      jump\t// in\n    tag_115:\n        /* \"#utility.yul\":2669:2674   */\n      dup2\n        /* \"#utility.yul\":2666:2700   */\n      eq\n        /* \"#utility.yul\":2656:2718   */\n      tag_116\n      jumpi\n        /* \"#utility.yul\":2714:2715   */\n      0x00\n        /* \"#utility.yul\":2711:2712   */\n      dup1\n        /* \"#utility.yul\":2704:2716   */\n      revert\n        /* \"#utility.yul\":2656:2718   */\n    tag_116:\n        /* \"#utility.yul\":2604:2724   */\n      pop\n      jump\t// out\n        /* \"#utility.yul\":2730:2871   */\n    tag_72:\n        /* \"#utility.yul\":2786:2791   */\n      0x00\n        /* \"#utility.yul\":2817:2823   */\n      dup2\n        /* \"#utility.yul\":2811:2824   */\n      mload\n        /* \"#utility.yul\":2802:2824   */\n      swap1\n      pop\n        /* \"#utility.yul\":2833:2865   */\n      tag_118\n        /* \"#utility.yul\":2859:2864   */\n      dup2\n        /* \"#utility.yul\":2833:2865   */\n      tag_71\n      jump\t// in\n    tag_118:\n        /* \"#utility.yul\":2730:2871   */\n      swap3\n      swap2\n      pop\n      pop\n      jump\t// out\n        /* \"#utility.yul\":2877:3538   */\n    tag_30:\n        /* \"#utility.yul\":2964:2970   */\n      0x00\n        /* \"#utility.yul\":2972:2978   */\n      dup1\n        /* \"#utility.yul\":2980:2986   */\n      0x00\n        /* \"#utility.yul\":3029:3031   */\n      0x60\n        /* \"#utility.yul\":3017:3026   */\n      dup5\n        /* \"#utility.yul\":3008:3015   */\n      dup7\n        /* \"#utility.yul\":3004:3027   */\n      sub\n        /* \"#utility.yul\":3000:3032   */\n      slt\n        /* \"#utility.yul\":2997:3116   */\n      iszero\n      tag_120\n      jumpi\n        /* \"#utility.yul\":3035:3114   */\n      tag_121\n      tag_58\n      jump\t// in\n    tag_121:\n        /* \"#utility.yul\":2997:3116   */\n    tag_120:\n        /* \"#utility.yul\":3155:3156   */\n      0x00\n        /* \"#utility.yul\":3180:3244   */\n      tag_122\n        /* \"#utility.yul\":3236:3243   */\n      dup7\n        /* \"#utility.yul\":3227:3233   */\n      dup3\n        /* \"#utility.yul\":3216:3225   */\n      dup8\n        /* \"#utility.yul\":3212:3234   */\n      add\n        /* \"#utility.yul\":3180:3244   */\n      tag_69\n      jump\t// in\n    tag_122:\n        /* \"#utility.yul\":3170:3244   */\n      swap4\n      pop\n        /* \"#utility.yul\":3126:3254   */\n      pop\n        /* \"#utility.yul\":3293:3295   */\n      0x20\n        /* \"#utility.yul\":3319:3383   */\n      tag_123\n        /* \"#utility.yul\":3375:3382   */\n      dup7\n        /* \"#utility.yul\":3366:3372   */\n      dup3\n        /* \"#utility.yul\":3355:3364   */\n      dup8\n        /* \"#utility.yul\":3351:3373   */\n      add\n        /* \"#utility.yul\":3319:3383   */\n      tag_69\n      jump\t// in\n    tag_123:\n        /* \"#utility.yul\":3309:3383   */\n      swap3\n      pop\n        /* \"#utility.yul\":3264:3393   */\n      pop\n        /* \"#utility.yul\":3432:3434   */\n      0x40\n        /* \"#utility.yul\":3458:3521   */\n      tag_124\n        /* \"#utility.yul\":3513:3520   */\n      dup7\n        /* \"#utility.yul\":3504:3510   */\n      dup3\n        /* \"#utility.yul\":3493:3502   */\n      dup8\n        /* \"#utility.yul\":3489:3511   */\n      add\n        /* \"#utility.yul\":3458:3521   */\n      tag_72\n      jump\t// in\n    tag_124:\n        /* \"#utility.yul\":3448:3521   */\n      swap2\n      pop\n        /* \"#utility.yul\":3403:3531   */\n      pop\n        /* \"#utility.yul\":2877:3538   */\n      swap3\n      pop\n      swap3\n      pop\n      swap3\n      jump\t// out\n        /* \"#utility.yul\":3544:3724   */\n    tag_73:\n        /* \"#utility.yul\":3592:3669   */\n      0x4e487b7100000000000000000000000000000000000000000000000000000000\n        /* \"#utility.yul\":3589:3590   */\n      0x00\n        /* \"#utility.yul\":3582:3670   */\n      mstore\n        /* \"#utility.yul\":3689:3693   */\n      0x12\n        /* \"#utility.yul\":3686:3687   */\n      0x04\n        /* \"#utility.yul\":3679:3694   */\n      mstore\n        /* \"#utility.yul\":3713:3717   */\n      0x24\n        /* \"#utility.yul\":3710:3711   */\n      0x00\n        /* \"#utility.yul\":3703:3718   */\n      revert\n        /* \"#utility.yul\":3916:4101   */\n    tag_32:\n        /* \"#utility.yul\":3956:3957   */\n      0x00\n        /* \"#utility.yul\":3973:3993   */\n      tag_128\n        /* \"#utility.yul\":3991:3992   */\n      dup3\n        /* \"#utility.yul\":3973:3993   */\n      tag_64\n      jump\t// in\n    tag_128:\n        /* \"#utility.yul\":3968:3993   */\n      swap2\n      pop\n        /* \"#utility.yul\":4007:4027   */\n      tag_129\n        /* \"#utility.yul\":4025:4026   */\n      dup4\n        /* \"#utility.yul\":4007:4027   */\n      tag_64\n      jump\t// in\n    tag_129:\n        /* \"#utility.yul\":4002:4027   */\n      swap3\n      pop\n        /* \"#utility.yul\":4046:4047   */\n      dup3\n        /* \"#utility.yul\":4036:4071   */\n      tag_130\n      jumpi\n        /* \"#utility.yul\":4051:4069   */\n      tag_131\n      tag_73\n      jump\t// in\n    tag_131:\n        /* \"#utility.yul\":4036:4071   */\n    tag_130:\n        /* \"#utility.yul\":4093:4094   */\n      dup3\n        /* \"#utility.yul\":4090:4091   */\n      dup3\n        /* \"#utility.yul\":4086:4095   */\n      div\n        /* \"#utility.yul\":4081:4095   */\n      swap1\n      pop\n        /* \"#utility.yul\":3916:4101   */\n      swap3\n      swap2\n      pop\n      pop\n      jump\t// out\n        /* \"#utility.yul\":4107:4439   */\n    tag_43:\n        /* \"#utility.yul\":4228:4232   */\n      0x00\n        /* \"#utility.yul\":4266:4268   */\n      0x40\n        /* \"#utility.yul\":4255:4264   */\n      dup3\n        /* \"#utility.yul\":4251:4269   */\n      add\n        /* \"#utility.yul\":4243:4269   */\n      swap1\n      pop\n        /* \"#utility.yul\":4279:4350   */\n      tag_133\n        /* \"#utility.yul\":4347:4348   */\n      0x00\n        /* \"#utility.yul\":4336:4345   */\n      dup4\n        /* \"#utility.yul\":4332:4349   */\n      add\n        /* \"#utility.yul\":4323:4329   */\n      dup6\n        /* \"#utility.yul\":4279:4350   */\n      tag_66\n      jump\t// in\n    tag_133:\n        /* \"#utility.yul\":4360:4432   */\n      tag_134\n        /* \"#utility.yul\":4428:4430   */\n      0x20\n        /* \"#utility.yul\":4417:4426   */\n      dup4\n        /* \"#utility.yul\":4413:4431   */\n      add\n        /* \"#utility.yul\":4404:4410   */\n      dup5\n        /* \"#utility.yul\":4360:4432   */\n      tag_66\n      jump\t// in\n    tag_134:\n        /* \"#utility.yul\":4107:4439   */\n      swap4\n      swap3\n      pop\n      pop\n      pop\n      jump\t// out\n        /* \"#utility.yul\":4445:4588   */\n    tag_75:\n        /* \"#utility.yul\":4502:4507   */\n      0x00\n        /* \"#utility.yul\":4533:4539   */\n      dup2\n        /* \"#utility.yul\":4527:4540   */\n      mload\n        /* \"#utility.yul\":4518:4540   */\n      swap1\n      pop\n        /* \"#utility.yul\":4549:4582   */\n      tag_136\n        /* \"#utility.yul\":4576:4581   */\n      dup2\n        /* \"#utility.yul\":4549:4582   */\n      tag_62\n      jump\t// in\n    tag_136:\n        /* \"#utility.yul\":4445:4588   */\n      swap3\n      swap2\n      pop\n      pop\n      jump\t// out\n        /* \"#utility.yul\":4594:4945   */\n    tag_47:\n        /* \"#utility.yul\":4664:4670   */\n      0x00\n        /* \"#utility.yul\":4713:4715   */\n      0x20\n        /* \"#utility.yul\":4701:4710   */\n      dup3\n        /* \"#utility.yul\":4692:4699   */\n      dup5\n        /* \"#utility.yul\":4688:4711   */\n      sub\n        /* \"#utility.yul\":4684:4716   */\n      slt\n        /* \"#utility.yul\":4681:4800   */\n      iszero\n      tag_138\n      jumpi\n        /* \"#utility.yul\":4719:4798   */\n      tag_139\n      tag_58\n      jump\t// in\n    tag_139:\n        /* \"#utility.yul\":4681:4800   */\n    tag_138:\n        /* \"#utility.yul\":4839:4840   */\n      0x00\n        /* \"#utility.yul\":4864:4928   */\n      tag_140\n        /* \"#utility.yul\":4920:4927   */\n      dup5\n        /* \"#utility.yul\":4911:4917   */\n      dup3\n        /* \"#utility.yul\":4900:4909   */\n      dup6\n        /* \"#utility.yul\":4896:4918   */\n      add\n        /* \"#utility.yul\":4864:4928   */\n      tag_75\n      jump\t// in\n    tag_140:\n        /* \"#utility.yul\":4854:4928   */\n      swap2\n      pop\n        /* \"#utility.yul\":4810:4938   */\n      pop\n        /* \"#utility.yul\":4594:4945   */\n      swap3\n      swap2\n      pop\n      pop\n      jump\t// out\n        /* \"#utility.yul\":4951:5120   */\n    tag_76:\n        /* \"#utility.yul\":5035:5046   */\n      0x00\n        /* \"#utility.yul\":5069:5075   */\n      dup3\n        /* \"#utility.yul\":5064:5067   */\n      dup3\n        /* \"#utility.yul\":5057:5076   */\n      mstore\n        /* \"#utility.yul\":5109:5113   */\n      0x20\n        /* \"#utility.yul\":5104:5107   */\n      dup3\n        /* \"#utility.yul\":5100:5114   */\n      add\n        /* \"#utility.yul\":5085:5114   */\n      swap1\n      pop\n        /* \"#utility.yul\":4951:5120   */\n      swap3\n      swap2\n      pop\n      pop\n      jump\t// out\n        /* \"#utility.yul\":5126:5295   */\n    tag_77:\n        /* \"#utility.yul\":5266:5287   */\n      0x4944454e544943414c5f41444452455353455300000000000000000000000000\n        /* \"#utility.yul\":5262:5263   */\n      0x00\n        /* \"#utility.yul\":5254:5260   */\n      dup3\n        /* \"#utility.yul\":5250:5264   */\n      add\n        /* \"#utility.yul\":5243:5288   */\n      mstore\n        /* \"#utility.yul\":5126:5295   */\n      pop\n      jump\t// out\n        /* \"#utility.yul\":5301:5667   */\n    tag_78:\n        /* \"#utility.yul\":5443:5446   */\n      0x00\n        /* \"#utility.yul\":5464:5531   */\n      tag_144\n        /* \"#utility.yul\":5528:5530   */\n      0x13\n        /* \"#utility.yul\":5523:5526   */\n      dup4\n        /* \"#utility.yul\":5464:5531   */\n      tag_76\n      jump\t// in\n    tag_144:\n        /* \"#utility.yul\":5457:5531   */\n      swap2\n      pop\n        /* \"#utility.yul\":5540:5633   */\n      tag_145\n        /* \"#utility.yul\":5629:5632   */\n      dup3\n        /* \"#utility.yul\":5540:5633   */\n      tag_77\n      jump\t// in\n    tag_145:\n        /* \"#utility.yul\":5658:5660   */\n      0x20\n        /* \"#utility.yul\":5653:5656   */\n      dup3\n        /* \"#utility.yul\":5649:5661   */\n      add\n        /* \"#utility.yul\":5642:5661   */\n      swap1\n      pop\n        /* \"#utility.yul\":5301:5667   */\n      swap2\n      swap1\n      pop\n      jump\t// out\n        /* \"#utility.yul\":5673:6092   */\n    tag_51:\n        /* \"#utility.yul\":5839:5843   */\n      0x00\n        /* \"#utility.yul\":5877:5879   */\n      0x20\n        /* \"#utility.yul\":5866:5875   */\n      dup3\n        /* \"#utility.yul\":5862:5880   */\n      add\n        /* \"#utility.yul\":5854:5880   */\n      swap1\n      pop\n        /* \"#utility.yul\":5926:5935   */\n      dup2\n        /* \"#utility.yul\":5920:5924   */\n      dup2\n        /* \"#utility.yul\":5916:5936   */\n      sub\n        /* \"#utility.yul\":5912:5913   */\n      0x00\n        /* \"#utility.yul\":5901:5910   */\n      dup4\n        /* \"#utility.yul\":5897:5914   */\n      add\n        /* \"#utility.yul\":5890:5937   */\n      mstore\n        /* \"#utility.yul\":5954:6085   */\n      tag_147\n        /* \"#utility.yul\":6080:6084   */\n      dup2\n        /* \"#utility.yul\":5954:6085   */\n      tag_78\n      jump\t// in\n    tag_147:\n        /* \"#utility.yul\":5946:6085   */\n      swap1\n      pop\n        /* \"#utility.yul\":5673:6092   */\n      swap2\n      swap1\n      pop\n      jump\t// out\n        /* \"#utility.yul\":6098:6260   */\n    tag_79:\n        /* \"#utility.yul\":6238:6252   */\n      0x5a45524f5f414444524553530000000000000000000000000000000000000000\n        /* \"#utility.yul\":6234:6235   */\n      0x00\n        /* \"#utility.yul\":6226:6232   */\n      dup3\n        /* \"#utility.yul\":6222:6236   */\n      add\n        /* \"#utility.yul\":6215:6253   */\n      mstore\n        /* \"#utility.yul\":6098:6260   */\n      pop\n      jump\t// out\n        /* \"#utility.yul\":6266:6632   */\n    tag_80:\n        /* \"#utility.yul\":6408:6411   */\n      0x00\n        /* \"#utility.yul\":6429:6496   */\n      tag_150\n        /* \"#utility.yul\":6493:6495   */\n      0x0c\n        /* \"#utility.yul\":6488:6491   */\n      dup4\n        /* \"#utility.yul\":6429:6496   */\n      tag_76\n      jump\t// in\n    tag_150:\n        /* \"#utility.yul\":6422:6496   */\n      swap2\n      pop\n        /* \"#utility.yul\":6505:6598   */\n      tag_151\n        /* \"#utility.yul\":6594:6597   */\n      dup3\n        /* \"#utility.yul\":6505:6598   */\n      tag_79\n      jump\t// in\n    tag_151:\n        /* \"#utility.yul\":6623:6625   */\n      0x20\n        /* \"#utility.yul\":6618:6621   */\n      dup3\n        /* \"#utility.yul\":6614:6626   */\n      add\n        /* \"#utility.yul\":6607:6626   */\n      swap1\n      pop\n        /* \"#utility.yul\":6266:6632   */\n      swap2\n      swap1\n      pop\n      jump\t// out\n        /* \"#utility.yul\":6638:7057   */\n    tag_56:\n        /* \"#utility.yul\":6804:6808   */\n      0x00\n        /* \"#utility.yul\":6842:6844   */\n      0x20\n        /* \"#utility.yul\":6831:6840   */\n      dup3\n        /* \"#utility.yul\":6827:6845   */\n      add\n        /* \"#utility.yul\":6819:6845   */\n      swap1\n      pop\n        /* \"#utility.yul\":6891:6900   */\n      dup2\n        /* \"#utility.yul\":6885:6889   */\n      dup2\n        /* \"#utility.yul\":6881:6901   */\n      sub\n        /* \"#utility.yul\":6877:6878   */\n      0x00\n        /* \"#utility.yul\":6866:6875   */\n      dup4\n        /* \"#utility.yul\":6862:6879   */\n      add\n        /* \"#utility.yul\":6855:6902   */\n      mstore\n        /* \"#utility.yul\":6919:7050   */\n      tag_153\n        /* \"#utility.yul\":7045:7049   */\n      dup2\n        /* \"#utility.yul\":6919:7050   */\n      tag_80\n      jump\t// in\n    tag_153:\n        /* \"#utility.yul\":6911:7050   */\n      swap1\n      pop\n        /* \"#utility.yul\":6638:7057   */\n      swap2\n      swap1\n      pop\n      jump\t// out\n\n    auxdata: 0xa2646970667358221220016c2b70b57cce9e8ff37970b4e2acbdd2801d1dfab02be170479df6c371373864736f6c63430008120033\n}\n",
				"bytecode": {
					"linkReferences": {},
					"object": "60c060405234801561001057600080fd5b50604051610a01380380610a0183398181016040528101906100329190610104565b8173ffffffffffffffffffffffffffffffffffffffff1660808173ffffffffffffffffffffffffffffffffffffffff16815250508073ffffffffffffffffffffffffffffffffffffffff1660a08173ffffffffffffffffffffffffffffffffffffffff16815250505050610144565b600080fd5b600073ffffffffffffffffffffffffffffffffffffffff82169050919050565b60006100d1826100a6565b9050919050565b6100e1816100c6565b81146100ec57600080fd5b50565b6000815190506100fe816100d8565b92915050565b6000806040838503121561011b5761011a6100a1565b5b6000610129858286016100ef565b925050602061013a858286016100ef565b9150509250929050565b60805160a05161088b61017660003960006102bf01526000818160f5015281816101dd01526102e3015261088b6000f3fe608060405234801561001057600080fd5b506004361061004c5760003560e01c80634a611dd2146100515780638c10192214610081578063ad5c4648146100b1578063c45a0155146100cf575b600080fd5b61006b6004803603810190610066919061052e565b6100ed565b6040516100789190610587565b60405180910390f35b61009b6004803603810190610096919061052e565b6101d5565b6040516100a89190610587565b60405180910390f35b6100b96102bd565b6040516100c691906105b1565b60405180910390f35b6100d76102e1565b6040516100e491906105b1565b60405180910390f35b60008061011b7f00000000000000000000000000000000000000000000000000000000000000008585610305565b905060008060008373ffffffffffffffffffffffffffffffffffffffff16630902f1ac6040518163ffffffff1660e01b8152600401606060405180830381865afa15801561016d573d6000803e3d6000fd5b505050506040513d601f19601f82011682018060405250810190610191919061064e565b63ffffffff1692506dffffffffffffffffffffffffffff1692506dffffffffffffffffffffffffffff16925081836101c991906106d0565b94505050505092915050565b6000806102037f00000000000000000000000000000000000000000000000000000000000000008585610305565b905060008060008373ffffffffffffffffffffffffffffffffffffffff16630902f1ac6040518163ffffffff1660e01b8152600401606060405180830381865afa158015610255573d6000803e3d6000fd5b505050506040513d601f19601f82011682018060405250810190610279919061064e565b63ffffffff1692506dffffffffffffffffffffffffffff1692506dffffffffffffffffffffffffffff16925082826102b191906106d0565b94505050505092915050565b7f000000000000000000000000000000000000000000000000000000000000000081565b7f000000000000000000000000000000000000000000000000000000000000000081565b6000806000610314858561039f565b915091508573ffffffffffffffffffffffffffffffffffffffff1663e6a4390583836040518363ffffffff1660e01b8152600401610353929190610701565b602060405180830381865afa158015610370573d6000803e3d6000fd5b505050506040513d601f19601f82011682018060405250810190610394919061073f565b925050509392505050565b6000808273ffffffffffffffffffffffffffffffffffffffff168473ffffffffffffffffffffffffffffffffffffffff1603610410576040517f08c379a0000000000000000000000000000000000000000000000000000000008152600401610407906107c9565b60405180910390fd5b8273ffffffffffffffffffffffffffffffffffffffff168473ffffffffffffffffffffffffffffffffffffffff161061044a57828461044d565b83835b8092508193505050600073ffffffffffffffffffffffffffffffffffffffff168273ffffffffffffffffffffffffffffffffffffffff16036104c4576040517f08c379a00000000000000000000000000000000000000000000000000000000081526004016104bb90610835565b60405180910390fd5b9250929050565b600080fd5b600073ffffffffffffffffffffffffffffffffffffffff82169050919050565b60006104fb826104d0565b9050919050565b61050b816104f0565b811461051657600080fd5b50565b60008135905061052881610502565b92915050565b60008060408385031215610545576105446104cb565b5b600061055385828601610519565b925050602061056485828601610519565b9150509250929050565b6000819050919050565b6105818161056e565b82525050565b600060208201905061059c6000830184610578565b92915050565b6105ab816104f0565b82525050565b60006020820190506105c660008301846105a2565b92915050565b60006dffffffffffffffffffffffffffff82169050919050565b6105ef816105cc565b81146105fa57600080fd5b50565b60008151905061060c816105e6565b92915050565b600063ffffffff82169050919050565b61062b81610612565b811461063657600080fd5b50565b60008151905061064881610622565b92915050565b600080600060608486031215610667576106666104cb565b5b6000610675868287016105fd565b9350506020610686868287016105fd565b925050604061069786828701610639565b9150509250925092565b7f4e487b7100000000000000000000000000000000000000000000000000000000600052601260045260246000fd5b60006106db8261056e565b91506106e68361056e565b9250826106f6576106f56106a1565b5b828204905092915050565b600060408201905061071660008301856105a2565b61072360208301846105a2565b9392505050565b60008151905061073981610502565b92915050565b600060208284031215610755576107546104cb565b5b60006107638482850161072a565b91505092915050565b600082825260208201905092915050565b7f4944454e544943414c5f41444452455353455300000000000000000000000000600082015250565b60006107b360138361076c565b91506107be8261077d565b602082019050919050565b600060208201905081810360008301526107e2816107a6565b9050919050565b7f5a45524f5f414444524553530000000000000000000000000000000000000000600082015250565b600061081f600c8361076c565b915061082a826107e9565b602082019050919050565b6000602082019050818103600083015261084e81610812565b905091905056fea2646970667358221220016c2b70b57cce9e8ff37970b4e2acbdd2801d1dfab02be170479df6c371373864736f6c63430008120033",
					"opcodes": "PUSH1 0xC0 PUSH1 0x40 MSTORE CALLVALUE DUP1 ISZERO PUSH2 0x10 JUMPI PUSH1 0x0 DUP1 REVERT JUMPDEST POP PUSH1 0x40 MLOAD PUSH2 0xA01 CODESIZE SUB DUP1 PUSH2 0xA01 DUP4 CODECOPY DUP2 DUP2 ADD PUSH1 0x40 MSTORE DUP2 ADD SWAP1 PUSH2 0x32 SWAP2 SWAP1 PUSH2 0x104 JUMP JUMPDEST DUP2 PUSH20 0xFFFFFFFFFFFFFFFFFFFFFFFFFFFFFFFFFFFFFFFF AND PUSH1 0x80 DUP2 PUSH20 0xFFFFFFFFFFFFFFFFFFFFFFFFFFFFFFFFFFFFFFFF AND DUP2 MSTORE POP POP DUP1 PUSH20 0xFFFFFFFFFFFFFFFFFFFFFFFFFFFFFFFFFFFFFFFF AND PUSH1 0xA0 DUP2 PUSH20 0xFFFFFFFFFFFFFFFFFFFFFFFFFFFFFFFFFFFFFFFF AND DUP2 MSTORE POP POP POP POP PUSH2 0x144 JUMP JUMPDEST PUSH1 0x0 DUP1 REVERT JUMPDEST PUSH1 0x0 PUSH20 0xFFFFFFFFFFFFFFFFFFFFFFFFFFFFFFFFFFFFFFFF DUP3 AND SWAP1 POP SWAP2 SWAP1 POP JUMP JUMPDEST PUSH1 0x0 PUSH2 0xD1 DUP3 PUSH2 0xA6 JUMP JUMPDEST SWAP1 POP SWAP2 SWAP1 POP JUMP JUMPDEST PUSH2 0xE1 DUP2 PUSH2 0xC6 JUMP JUMPDEST DUP2 EQ PUSH2 0xEC JUMPI PUSH1 0x0 DUP1 REVERT JUMPDEST POP JUMP JUMPDEST PUSH1 0x0 DUP2 MLOAD SWAP1 POP PUSH2 0xFE DUP2 PUSH2 0xD8 JUMP JUMPDEST SWAP3 SWAP2 POP POP JUMP JUMPDEST PUSH1 0x0 DUP1 PUSH1 0x40 DUP4 DUP6 SUB SLT ISZERO PUSH2 0x11B JUMPI PUSH2 0x11A PUSH2 0xA1 JUMP JUMPDEST JUMPDEST PUSH1 0x0 PUSH2 0x129 DUP6 DUP3 DUP7 ADD PUSH2 0xEF JUMP JUMPDEST SWAP3 POP POP PUSH1 0x20 PUSH2 0x13A DUP6 DUP3 DUP7 ADD PUSH2 0xEF JUMP JUMPDEST SWAP2 POP POP SWAP3 POP SWAP3 SWAP1 POP JUMP JUMPDEST PUSH1 0x80 MLOAD PUSH1 0xA0 MLOAD PUSH2 0x88B PUSH2 0x176 PUSH1 0x0 CODECOPY PUSH1 0x0 PUSH2 0x2BF ADD MSTORE PUSH1 0x0 DUP2 DUP2 PUSH1 0xF5 ADD MSTORE DUP2 DUP2 PUSH2 0x1DD ADD MSTORE PUSH2 0x2E3 ADD MSTORE PUSH2 0x88B PUSH1 0x0 RETURN INVALID PUSH1 0x80 PUSH1 0x40 MSTORE CALLVALUE DUP1 ISZERO PUSH2 0x10 JUMPI PUSH1 0x0 DUP1 REVERT JUMPDEST POP PUSH1 0x4 CALLDATASIZE LT PUSH2 0x4C JUMPI PUSH1 0x0 CALLDATALOAD PUSH1 0xE0 SHR DUP1 PUSH4 0x4A611DD2 EQ PUSH2 0x51 JUMPI DUP1 PUSH4 0x8C101922 EQ PUSH2 0x81 JUMPI DUP1 PUSH4 0xAD5C4648 EQ PUSH2 0xB1 JUMPI DUP1 PUSH4 0xC45A0155 EQ PUSH2 0xCF JUMPI JUMPDEST PUSH1 0x0 DUP1 REVERT JUMPDEST PUSH2 0x6B PUSH1 0x4 DUP1 CALLDATASIZE SUB DUP2 ADD SWAP1 PUSH2 0x66 SWAP2 SWAP1 PUSH2 0x52E JUMP JUMPDEST PUSH2 0xED JUMP JUMPDEST PUSH1 0x40 MLOAD PUSH2 0x78 SWAP2 SWAP1 PUSH2 0x587 JUMP JUMPDEST PUSH1 0x40 MLOAD DUP1 SWAP2 SUB SWAP1 RETURN JUMPDEST PUSH2 0x9B PUSH1 0x4 DUP1 CALLDATASIZE SUB DUP2 ADD SWAP1 PUSH2 0x96 SWAP2 SWAP1 PUSH2 0x52E JUMP JUMPDEST PUSH2 0x1D5 JUMP JUMPDEST PUSH1 0x40 MLOAD PUSH2 0xA8 SWAP2 SWAP1 PUSH2 0x587 JUMP JUMPDEST PUSH1 0x40 MLOAD DUP1 SWAP2 SUB SWAP1 RETURN JUMPDEST PUSH2 0xB9 PUSH2 0x2BD JUMP JUMPDEST PUSH1 0x40 MLOAD PUSH2 0xC6 SWAP2 SWAP1 PUSH2 0x5B1 JUMP JUMPDEST PUSH1 0x40 MLOAD DUP1 SWAP2 SUB SWAP1 RETURN JUMPDEST PUSH2 0xD7 PUSH2 0x2E1 JUMP JUMPDEST PUSH1 0x40 MLOAD PUSH2 0xE4 SWAP2 SWAP1 PUSH2 0x5B1 JUMP JUMPDEST PUSH1 0x40 MLOAD DUP1 SWAP2 SUB SWAP1 RETURN JUMPDEST PUSH1 0x0 DUP1 PUSH2 0x11B PUSH32 0x0 DUP6 DUP6 PUSH2 0x305 JUMP JUMPDEST SWAP1 POP PUSH1 0x0 DUP1 PUSH1 0x0 DUP4 PUSH20 0xFFFFFFFFFFFFFFFFFFFFFFFFFFFFFFFFFFFFFFFF AND PUSH4 0x902F1AC PUSH1 0x40 MLOAD DUP2 PUSH4 0xFFFFFFFF AND PUSH1 0xE0 SHL DUP2 MSTORE PUSH1 0x4 ADD PUSH1 0x60 PUSH1 0x40 MLOAD DUP1 DUP4 SUB DUP2 DUP7 GAS STATICCALL ISZERO DUP1 ISZERO PUSH2 0x16D JUMPI RETURNDATASIZE PUSH1 0x0 DUP1 RETURNDATACOPY RETURNDATASIZE PUSH1 0x0 REVERT JUMPDEST POP POP POP POP PUSH1 0x40 MLOAD RETURNDATASIZE PUSH1 0x1F NOT PUSH1 0x1F DUP3 ADD AND DUP3 ADD DUP1 PUSH1 0x40 MSTORE POP DUP2 ADD SWAP1 PUSH2 0x191 SWAP2 SWAP1 PUSH2 0x64E JUMP JUMPDEST PUSH4 0xFFFFFFFF AND SWAP3 POP PUSH14 0xFFFFFFFFFFFFFFFFFFFFFFFFFFFF AND SWAP3 POP PUSH14 0xFFFFFFFFFFFFFFFFFFFFFFFFFFFF AND SWAP3 POP DUP2 DUP4 PUSH2 0x1C9 SWAP2 SWAP1 PUSH2 0x6D0 JUMP JUMPDEST SWAP5 POP POP POP POP POP SWAP3 SWAP2 POP POP JUMP JUMPDEST PUSH1 0x0 DUP1 PUSH2 0x203 PUSH32 0x0 DUP6 DUP6 PUSH2 0x305 JUMP JUMPDEST SWAP1 POP PUSH1 0x0 DUP1 PUSH1 0x0 DUP4 PUSH20 0xFFFFFFFFFFFFFFFFFFFFFFFFFFFFFFFFFFFFFFFF AND PUSH4 0x902F1AC PUSH1 0x40 MLOAD DUP2 PUSH4 0xFFFFFFFF AND PUSH1 0xE0 SHL DUP2 MSTORE PUSH1 0x4 ADD PUSH1 0x60 PUSH1 0x40 MLOAD DUP1 DUP4 SUB DUP2 DUP7 GAS STATICCALL ISZERO DUP1 ISZERO PUSH2 0x255 JUMPI RETURNDATASIZE PUSH1 0x0 DUP1 RETURNDATACOPY RETURNDATASIZE PUSH1 0x0 REVERT JUMPDEST POP POP POP POP PUSH1 0x40 MLOAD RETURNDATASIZE PUSH1 0x1F NOT PUSH1 0x1F DUP3 ADD AND DUP3 ADD DUP1 PUSH1 0x40 MSTORE POP DUP2 ADD SWAP1 PUSH2 0x279 SWAP2 SWAP1 PUSH2 0x64E JUMP JUMPDEST PUSH4 0xFFFFFFFF AND SWAP3 POP PUSH14 0xFFFFFFFFFFFFFFFFFFFFFFFFFFFF AND SWAP3 POP PUSH14 0xFFFFFFFFFFFFFFFFFFFFFFFFFFFF AND SWAP3 POP DUP3 DUP3 PUSH2 0x2B1 SWAP2 SWAP1 PUSH2 0x6D0 JUMP JUMPDEST SWAP5 POP POP POP POP POP SWAP3 SWAP2 POP POP JUMP JUMPDEST PUSH32 0x0 DUP2 JUMP JUMPDEST PUSH32 0x0 DUP2 JUMP JUMPDEST PUSH1 0x0 DUP1 PUSH1 0x0 PUSH2 0x314 DUP6 DUP6 PUSH2 0x39F JUMP JUMPDEST SWAP2 POP SWAP2 POP DUP6 PUSH20 0xFFFFFFFFFFFFFFFFFFFFFFFFFFFFFFFFFFFFFFFF AND PUSH4 0xE6A43905 DUP4 DUP4 PUSH1 0x40 MLOAD DUP4 PUSH4 0xFFFFFFFF AND PUSH1 0xE0 SHL DUP2 MSTORE PUSH1 0x4 ADD PUSH2 0x353 SWAP3 SWAP2 SWAP1 PUSH2 0x701 JUMP JUMPDEST PUSH1 0x20 PUSH1 0x40 MLOAD DUP1 DUP4 SUB DUP2 DUP7 GAS STATICCALL ISZERO DUP1 ISZERO PUSH2 0x370 JUMPI RETURNDATASIZE PUSH1 0x0 DUP1 RETURNDATACOPY RETURNDATASIZE PUSH1 0x0 REVERT JUMPDEST POP POP POP POP PUSH1 0x40 MLOAD RETURNDATASIZE PUSH1 0x1F NOT PUSH1 0x1F DUP3 ADD AND DUP3 ADD DUP1 PUSH1 0x40 MSTORE POP DUP2 ADD SWAP1 PUSH2 0x394 SWAP2 SWAP1 PUSH2 0x73F JUMP JUMPDEST SWAP3 POP POP POP SWAP4 SWAP3 POP POP POP JUMP JUMPDEST PUSH1 0x0 DUP1 DUP3 PUSH20 0xFFFFFFFFFFFFFFFFFFFFFFFFFFFFFFFFFFFFFFFF AND DUP5 PUSH20 0xFFFFFFFFFFFFFFFFFFFFFFFFFFFFFFFFFFFFFFFF AND SUB PUSH2 0x410 JUMPI PUSH1 0x40 MLOAD PUSH32 0x8C379A000000000000000000000000000000000000000000000000000000000 DUP2 MSTORE PUSH1 0x4 ADD PUSH2 0x407 SWAP1 PUSH2 0x7C9 JUMP JUMPDEST PUSH1 0x40 MLOAD DUP1 SWAP2 SUB SWAP1 REVERT JUMPDEST DUP3 PUSH20 0xFFFFFFFFFFFFFFFFFFFFFFFFFFFFFFFFFFFFFFFF AND DUP5 PUSH20 0xFFFFFFFFFFFFFFFFFFFFFFFFFFFFFFFFFFFFFFFF AND LT PUSH2 0x44A JUMPI DUP3 DUP5 PUSH2 0x44D JUMP JUMPDEST DUP4 DUP4 JUMPDEST DUP1 SWAP3 POP DUP2 SWAP4 POP POP POP PUSH1 0x0 PUSH20 0xFFFFFFFFFFFFFFFFFFFFFFFFFFFFFFFFFFFFFFFF AND DUP3 PUSH20 0xFFFFFFFFFFFFFFFFFFFFFFFFFFFFFFFFFFFFFFFF AND SUB PUSH2 0x4C4 JUMPI PUSH1 0x40 MLOAD PUSH32 0x8C379A000000000000000000000000000000000000000000000000000000000 DUP2 MSTORE PUSH1 0x4 ADD PUSH2 0x4BB SWAP1 PUSH2 0x835 JUMP JUMPDEST PUSH1 0x40 MLOAD DUP1 SWAP2 SUB SWAP1 REVERT JUMPDEST SWAP3 POP SWAP3 SWAP1 POP JUMP JUMPDEST PUSH1 0x0 DUP1 REVERT JUMPDEST PUSH1 0x0 PUSH20 0xFFFFFFFFFFFFFFFFFFFFFFFFFFFFFFFFFFFFFFFF DUP3 AND SWAP1 POP SWAP2 SWAP1 POP JUMP JUMPDEST PUSH1 0x0 PUSH2 0x4FB DUP3 PUSH2 0x4D0 JUMP JUMPDEST SWAP1 POP SWAP2 SWAP1 POP JUMP JUMPDEST PUSH2 0x50B DUP2 PUSH2 0x4F0 JUMP JUMPDEST DUP2 EQ PUSH2 0x516 JUMPI PUSH1 0x0 DUP1 REVERT JUMPDEST POP JUMP JUMPDEST PUSH1 0x0 DUP2 CALLDATALOAD SWAP1 POP PUSH2 0x528 DUP2 PUSH2 0x502 JUMP JUMPDEST SWAP3 SWAP2 POP POP JUMP JUMPDEST PUSH1 0x0 DUP1 PUSH1 0x40 DUP4 DUP6 SUB SLT ISZERO PUSH2 0x545 JUMPI PUSH2 0x544 PUSH2 0x4CB JUMP JUMPDEST JUMPDEST PUSH1 0x0 PUSH2 0x553 DUP6 DUP3 DUP7 ADD PUSH2 0x519 JUMP JUMPDEST SWAP3 POP POP PUSH1 0x20 PUSH2 0x564 DUP6 DUP3 DUP7 ADD PUSH2 0x519 JUMP JUMPDEST SWAP2 POP POP SWAP3 POP SWAP3 SWAP1 POP JUMP JUMPDEST PUSH1 0x0 DUP2 SWAP1 POP SWAP2 SWAP1 POP JUMP JUMPDEST PUSH2 0x581 DUP2 PUSH2 0x56E JUMP JUMPDEST DUP3 MSTORE POP POP JUMP JUMPDEST PUSH1 0x0 PUSH1 0x20 DUP3 ADD SWAP1 POP PUSH2 0x59C PUSH1 0x0 DUP4 ADD DUP5 PUSH2 0x578 JUMP JUMPDEST SWAP3 SWAP2 POP POP JUMP JUMPDEST PUSH2 0x5AB DUP2 PUSH2 0x4F0 JUMP JUMPDEST DUP3 MSTORE POP POP JUMP JUMPDEST PUSH1 0x0 PUSH1 0x20 DUP3 ADD SWAP1 POP PUSH2 0x5C6 PUSH1 0x0 DUP4 ADD DUP5 PUSH2 0x5A2 JUMP JUMPDEST SWAP3 SWAP2 POP POP JUMP JUMPDEST PUSH1 0x0 PUSH14 0xFFFFFFFFFFFFFFFFFFFFFFFFFFFF DUP3 AND SWAP1 POP SWAP2 SWAP1 POP JUMP JUMPDEST PUSH2 0x5EF DUP2 PUSH2 0x5CC JUMP JUMPDEST DUP2 EQ PUSH2 0x5FA JUMPI PUSH1 0x0 DUP1 REVERT JUMPDEST POP JUMP JUMPDEST PUSH1 0x0 DUP2 MLOAD SWAP1 POP PUSH2 0x60C DUP2 PUSH2 0x5E6 JUMP JUMPDEST SWAP3 SWAP2 POP POP JUMP JUMPDEST PUSH1 0x0 PUSH4 0xFFFFFFFF DUP3 AND SWAP1 POP SWAP2 SWAP1 POP JUMP JUMPDEST PUSH2 0x62B DUP2 PUSH2 0x612 JUMP JUMPDEST DUP2 EQ PUSH2 0x636 JUMPI PUSH1 0x0 DUP1 REVERT JUMPDEST POP JUMP JUMPDEST PUSH1 0x0 DUP2 MLOAD SWAP1 POP PUSH2 0x648 DUP2 PUSH2 0x622 JUMP JUMPDEST SWAP3 SWAP2 POP POP JUMP JUMPDEST PUSH1 0x0 DUP1 PUSH1 0x0 PUSH1 0x60 DUP5 DUP7 SUB SLT ISZERO PUSH2 0x667 JUMPI PUSH2 0x666 PUSH2 0x4CB JUMP JUMPDEST JUMPDEST PUSH1 0x0 PUSH2 0x675 DUP7 DUP3 DUP8 ADD PUSH2 0x5FD JUMP JUMPDEST SWAP4 POP POP PUSH1 0x20 PUSH2 0x686 DUP7 DUP3 DUP8 ADD PUSH2 0x5FD JUMP JUMPDEST SWAP3 POP POP PUSH1 0x40 PUSH2 0x697 DUP7 DUP3 DUP8 ADD PUSH2 0x639 JUMP JUMPDEST SWAP2 POP POP SWAP3 POP SWAP3 POP SWAP3 JUMP JUMPDEST PUSH32 0x4E487B7100000000000000000000000000000000000000000000000000000000 PUSH1 0x0 MSTORE PUSH1 0x12 PUSH1 0x4 MSTORE PUSH1 0x24 PUSH1 0x0 REVERT JUMPDEST PUSH1 0x0 PUSH2 0x6DB DUP3 PUSH2 0x56E JUMP JUMPDEST SWAP2 POP PUSH2 0x6E6 DUP4 PUSH2 0x56E JUMP JUMPDEST SWAP3 POP DUP3 PUSH2 0x6F6 JUMPI PUSH2 0x6F5 PUSH2 0x6A1 JUMP JUMPDEST JUMPDEST DUP3 DUP3 DIV SWAP1 POP SWAP3 SWAP2 POP POP JUMP JUMPDEST PUSH1 0x0 PUSH1 0x40 DUP3 ADD SWAP1 POP PUSH2 0x716 PUSH1 0x0 DUP4 ADD DUP6 PUSH2 0x5A2 JUMP JUMPDEST PUSH2 0x723 PUSH1 0x20 DUP4 ADD DUP5 PUSH2 0x5A2 JUMP JUMPDEST SWAP4 SWAP3 POP POP POP JUMP JUMPDEST PUSH1 0x0 DUP2 MLOAD SWAP1 POP PUSH2 0x739 DUP2 PUSH2 0x502 JUMP JUMPDEST SWAP3 SWAP2 POP POP JUMP JUMPDEST PUSH1 0x0 PUSH1 0x20 DUP3 DUP5 SUB SLT ISZERO PUSH2 0x755 JUMPI PUSH2 0x754 PUSH2 0x4CB JUMP JUMPDEST JUMPDEST PUSH1 0x0 PUSH2 0x763 DUP5 DUP3 DUP6 ADD PUSH2 0x72A JUMP JUMPDEST SWAP2 POP POP SWAP3 SWAP2 POP POP JUMP JUMPDEST PUSH1 0x0 DUP3 DUP3 MSTORE PUSH1 0x20 DUP3 ADD SWAP1 POP SWAP3 SWAP2 POP POP JUMP JUMPDEST PUSH32 0x4944454E544943414C5F41444452455353455300000000000000000000000000 PUSH1 0x0 DUP3 ADD MSTORE POP JUMP JUMPDEST PUSH1 0x0 PUSH2 0x7B3 PUSH1 0x13 DUP4 PUSH2 0x76C JUMP JUMPDEST SWAP2 POP PUSH2 0x7BE DUP3 PUSH2 0x77D JUMP JUMPDEST PUSH1 0x20 DUP3 ADD SWAP1 POP SWAP2 SWAP1 POP JUMP JUMPDEST PUSH1 0x0 PUSH1 0x20 DUP3 ADD SWAP1 POP DUP2 DUP2 SUB PUSH1 0x0 DUP4 ADD MSTORE PUSH2 0x7E2 DUP2 PUSH2 0x7A6 JUMP JUMPDEST SWAP1 POP SWAP2 SWAP1 POP JUMP JUMPDEST PUSH32 0x5A45524F5F414444524553530000000000000000000000000000000000000000 PUSH1 0x0 DUP3 ADD MSTORE POP JUMP JUMPDEST PUSH1 0x0 PUSH2 0x81F PUSH1 0xC DUP4 PUSH2 0x76C JUMP JUMPDEST SWAP2 POP PUSH2 0x82A DUP3 PUSH2 0x7E9 JUMP JUMPDEST PUSH1 0x20 DUP3 ADD SWAP1 POP SWAP2 SWAP1 POP JUMP JUMPDEST PUSH1 0x0 PUSH1 0x20 DUP3 ADD SWAP1 POP DUP2 DUP2 SUB PUSH1 0x0 DUP4 ADD MSTORE PUSH2 0x84E DUP2 PUSH2 0x812 JUMP JUMPDEST SWAP1 POP SWAP2 SWAP1 POP JUMP INVALID LOG2 PUSH5 0x6970667358 0x22 SLT KECCAK256 ADD PUSH13 0x2B70B57CCE9E8FF37970B4E2AC 0xBD 0xD2 DUP1 SAR SAR STATICCALL 0xB0 0x2B 0xE1 PUSH17 0x479DF6C371373864736F6C634300081200 CALLER "
				},
				"gasEstimates": {
					"creation": {
						"codeDepositCost": "437400",
						"executionCost": "infinite",
						"totalCost": "infinite"
					},
					"external": {
						"WETH()": "infinite",
						"factory()": "infinite",
						"getPriceA(address,address)": "infinite",
						"getPriceB(address,address)": "infinite"
					}
				},
				"methodIdentifiers": {
					"WETH()": "ad5c4648",
					"factory()": "c45a0155",
					"getPriceA(address,address)": "8c101922",
					"getPriceB(address,address)": "4a611dd2"
				}
			},
			"storageLayout": {
				"storage": [],
				"types": null
			},
			"userdoc": {
				"kind": "user",
				"methods": {
					"getPriceA(address,address)": {
						"notice": "returns the price of A with respect to B 1 A = price * ( B )"
					}
				},
				"version": 1
			}
		}
	}
}