{
	"Periphery/LendingPoolRouter.sol": {
		"LendingPoolRouter": {
			"abi": [
				{
					"inputs": [
						{
							"internalType": "address",
							"name": "_factory",
							"type": "address"
						},
						{
							"internalType": "address",
							"name": "xdcWrapper",
							"type": "address"
						}
					],
					"stateMutability": "nonpayable",
					"type": "constructor"
				},
				{
					"inputs": [],
					"name": "WEXDC",
					"outputs": [
						{
							"internalType": "address",
							"name": "",
							"type": "address"
						}
					],
					"stateMutability": "view",
					"type": "function"
				},
				{
					"inputs": [
						{
							"internalType": "uint256",
							"name": "amount",
							"type": "uint256"
						}
					],
					"name": "borrowETH",
					"outputs": [],
					"stateMutability": "nonpayable",
					"type": "function"
				},
				{
					"inputs": [
						{
							"internalType": "address",
							"name": "token",
							"type": "address"
						},
						{
							"internalType": "uint256",
							"name": "amount",
							"type": "uint256"
						}
					],
					"name": "borrowToken",
					"outputs": [],
					"stateMutability": "nonpayable",
					"type": "function"
				},
				{
					"inputs": [
						{
							"internalType": "address",
							"name": "token",
							"type": "address"
						}
					],
					"name": "createPool",
					"outputs": [],
					"stateMutability": "nonpayable",
					"type": "function"
				},
				{
					"inputs": [
						{
							"internalType": "uint256",
							"name": "amount",
							"type": "uint256"
						}
					],
					"name": "depositETH",
					"outputs": [],
					"stateMutability": "payable",
					"type": "function"
				},
				{
					"inputs": [
						{
							"internalType": "address",
							"name": "token",
							"type": "address"
						},
						{
							"internalType": "uint256",
							"name": "amount",
							"type": "uint256"
						}
					],
					"name": "depositToken",
					"outputs": [],
					"stateMutability": "nonpayable",
					"type": "function"
				},
				{
					"inputs": [],
					"name": "factory",
					"outputs": [
						{
							"internalType": "address",
							"name": "",
							"type": "address"
						}
					],
					"stateMutability": "view",
					"type": "function"
				},
				{
					"inputs": [
						{
							"internalType": "address",
							"name": "token",
							"type": "address"
						}
					],
					"name": "getBalance",
					"outputs": [
						{
							"internalType": "uint256",
							"name": "balance",
							"type": "uint256"
						}
					],
					"stateMutability": "view",
					"type": "function"
				},
				{
					"inputs": [
						{
							"internalType": "address",
							"name": "token",
							"type": "address"
						},
						{
							"internalType": "address",
							"name": "user",
							"type": "address"
						}
					],
					"name": "getBorrowAmount",
					"outputs": [
						{
							"internalType": "uint256",
							"name": "amount",
							"type": "uint256"
						}
					],
					"stateMutability": "view",
					"type": "function"
				},
				{
					"inputs": [
						{
							"internalType": "address",
							"name": "token",
							"type": "address"
						},
						{
							"internalType": "address",
							"name": "user",
							"type": "address"
						}
					],
					"name": "getLendAmount",
					"outputs": [
						{
							"internalType": "uint256",
							"name": "amount",
							"type": "uint256"
						}
					],
					"stateMutability": "view",
					"type": "function"
				},
				{
					"inputs": [
						{
							"internalType": "address",
							"name": "token",
							"type": "address"
						}
					],
					"name": "getPoolAddress",
					"outputs": [
						{
							"internalType": "address",
							"name": "pool",
							"type": "address"
						}
					],
					"stateMutability": "view",
					"type": "function"
				},
				{
					"inputs": [
						{
							"internalType": "address",
							"name": "token",
							"type": "address"
						},
						{
							"internalType": "address",
							"name": "user",
							"type": "address"
						},
						{
							"internalType": "uint256",
							"name": "repayAmount",
							"type": "uint256"
						}
					],
					"name": "getRepayAmount",
					"outputs": [
						{
							"internalType": "uint256",
							"name": "amount",
							"type": "uint256"
						}
					],
					"stateMutability": "view",
					"type": "function"
				},
				{
					"inputs": [
						{
							"internalType": "address",
							"name": "token",
							"type": "address"
						},
						{
							"internalType": "address",
							"name": "user",
							"type": "address"
						},
						{
							"internalType": "uint256",
							"name": "withdrawAmount",
							"type": "uint256"
						}
					],
					"name": "getWithdrawAmount",
					"outputs": [
						{
							"internalType": "uint256",
							"name": "amount",
							"type": "uint256"
						}
					],
					"stateMutability": "view",
					"type": "function"
				},
				{
					"inputs": [
						{
							"internalType": "uint256",
							"name": "amount",
							"type": "uint256"
						}
					],
					"name": "repayETH",
					"outputs": [],
					"stateMutability": "payable",
					"type": "function"
				},
				{
					"inputs": [
						{
							"internalType": "address",
							"name": "token",
							"type": "address"
						},
						{
							"internalType": "uint256",
							"name": "amount",
							"type": "uint256"
						}
					],
					"name": "repayToken",
					"outputs": [],
					"stateMutability": "nonpayable",
					"type": "function"
				},
				{
					"inputs": [
						{
							"internalType": "uint256",
							"name": "amount",
							"type": "uint256"
						}
					],
					"name": "withdrawETH",
					"outputs": [],
					"stateMutability": "nonpayable",
					"type": "function"
				},
				{
					"inputs": [
						{
							"internalType": "address",
							"name": "token",
							"type": "address"
						},
						{
							"internalType": "uint256",
							"name": "amount",
							"type": "uint256"
						}
					],
					"name": "withdrawToken",
					"outputs": [],
					"stateMutability": "nonpayable",
					"type": "function"
				}
			],
			"devdoc": {
				"kind": "dev",
				"methods": {},
				"version": 1
			},
			"evm": {
				"assembly": "    /* \"Periphery/LendingPoolRouter.sol\":402:6559  contract LendingPoolRouter {... */\n  mstore(0x40, 0xc0)\n    /* \"Periphery/LendingPoolRouter.sol\":510:623  constructor(address _factory, address xdcWrapper) {... */\n  callvalue\n  dup1\n  iszero\n  tag_1\n  jumpi\n  0x00\n  dup1\n  revert\ntag_1:\n  pop\n  mload(0x40)\n  sub(codesize, bytecodeSize)\n  dup1\n  bytecodeSize\n  dup4\n  codecopy\n  dup2\n  dup2\n  add\n  0x40\n  mstore\n  dup2\n  add\n  swap1\n  tag_2\n  swap2\n  swap1\n  tag_3\n  jump\t// in\ntag_2:\n    /* \"Periphery/LendingPoolRouter.sol\":580:588  _factory */\n  dup2\n    /* \"Periphery/LendingPoolRouter.sol\":570:588  factory = _factory */\n  0xffffffffffffffffffffffffffffffffffffffff\n  and\n  0x80\n  dup2\n  0xffffffffffffffffffffffffffffffffffffffff\n  and\n  dup2\n  mstore\n  pop\n  pop\n    /* \"Periphery/LendingPoolRouter.sol\":606:616  xdcWrapper */\n  dup1\n    /* \"Periphery/LendingPoolRouter.sol\":598:616  WEXDC = xdcWrapper */\n  0xffffffffffffffffffffffffffffffffffffffff\n  and\n  0xa0\n  dup2\n  0xffffffffffffffffffffffffffffffffffffffff\n  and\n  dup2\n  mstore\n  pop\n  pop\n    /* \"Periphery/LendingPoolRouter.sol\":510:623  constructor(address _factory, address xdcWrapper) {... */\n  pop\n  pop\n    /* \"Periphery/LendingPoolRouter.sol\":402:6559  contract LendingPoolRouter {... */\n  jump(tag_6)\n    /* \"#utility.yul\":88:205   */\ntag_8:\n    /* \"#utility.yul\":197:198   */\n  0x00\n    /* \"#utility.yul\":194:195   */\n  dup1\n    /* \"#utility.yul\":187:199   */\n  revert\n    /* \"#utility.yul\":334:460   */\ntag_10:\n    /* \"#utility.yul\":371:378   */\n  0x00\n    /* \"#utility.yul\":411:453   */\n  0xffffffffffffffffffffffffffffffffffffffff\n    /* \"#utility.yul\":404:409   */\n  dup3\n    /* \"#utility.yul\":400:454   */\n  and\n    /* \"#utility.yul\":389:454   */\n  swap1\n  pop\n    /* \"#utility.yul\":334:460   */\n  swap2\n  swap1\n  pop\n  jump\t// out\n    /* \"#utility.yul\":466:562   */\ntag_11:\n    /* \"#utility.yul\":503:510   */\n  0x00\n    /* \"#utility.yul\":532:556   */\n  tag_20\n    /* \"#utility.yul\":550:555   */\n  dup3\n    /* \"#utility.yul\":532:556   */\n  tag_10\n  jump\t// in\ntag_20:\n    /* \"#utility.yul\":521:556   */\n  swap1\n  pop\n    /* \"#utility.yul\":466:562   */\n  swap2\n  swap1\n  pop\n  jump\t// out\n    /* \"#utility.yul\":568:690   */\ntag_12:\n    /* \"#utility.yul\":641:665   */\n  tag_22\n    /* \"#utility.yul\":659:664   */\n  dup2\n    /* \"#utility.yul\":641:665   */\n  tag_11\n  jump\t// in\ntag_22:\n    /* \"#utility.yul\":634:639   */\n  dup2\n    /* \"#utility.yul\":631:666   */\n  eq\n    /* \"#utility.yul\":621:684   */\n  tag_23\n  jumpi\n    /* \"#utility.yul\":680:681   */\n  0x00\n    /* \"#utility.yul\":677:678   */\n  dup1\n    /* \"#utility.yul\":670:682   */\n  revert\n    /* \"#utility.yul\":621:684   */\ntag_23:\n    /* \"#utility.yul\":568:690   */\n  pop\n  jump\t// out\n    /* \"#utility.yul\":696:839   */\ntag_13:\n    /* \"#utility.yul\":753:758   */\n  0x00\n    /* \"#utility.yul\":784:790   */\n  dup2\n    /* \"#utility.yul\":778:791   */\n  mload\n    /* \"#utility.yul\":769:791   */\n  swap1\n  pop\n    /* \"#utility.yul\":800:833   */\n  tag_25\n    /* \"#utility.yul\":827:832   */\n  dup2\n    /* \"#utility.yul\":800:833   */\n  tag_12\n  jump\t// in\ntag_25:\n    /* \"#utility.yul\":696:839   */\n  swap3\n  swap2\n  pop\n  pop\n  jump\t// out\n    /* \"#utility.yul\":845:1352   */\ntag_3:\n    /* \"#utility.yul\":924:930   */\n  0x00\n    /* \"#utility.yul\":932:938   */\n  dup1\n    /* \"#utility.yul\":981:983   */\n  0x40\n    /* \"#utility.yul\":969:978   */\n  dup4\n    /* \"#utility.yul\":960:967   */\n  dup6\n    /* \"#utility.yul\":956:979   */\n  sub\n    /* \"#utility.yul\":952:984   */\n  slt\n    /* \"#utility.yul\":949:1068   */\n  iszero\n  tag_27\n  jumpi\n    /* \"#utility.yul\":987:1066   */\n  tag_28\n  tag_8\n  jump\t// in\ntag_28:\n    /* \"#utility.yul\":949:1068   */\ntag_27:\n    /* \"#utility.yul\":1107:1108   */\n  0x00\n    /* \"#utility.yul\":1132:1196   */\n  tag_29\n    /* \"#utility.yul\":1188:1195   */\n  dup6\n    /* \"#utility.yul\":1179:1185   */\n  dup3\n    /* \"#utility.yul\":1168:1177   */\n  dup7\n    /* \"#utility.yul\":1164:1186   */\n  add\n    /* \"#utility.yul\":1132:1196   */\n  tag_13\n  jump\t// in\ntag_29:\n    /* \"#utility.yul\":1122:1196   */\n  swap3\n  pop\n    /* \"#utility.yul\":1078:1206   */\n  pop\n    /* \"#utility.yul\":1245:1247   */\n  0x20\n    /* \"#utility.yul\":1271:1335   */\n  tag_30\n    /* \"#utility.yul\":1327:1334   */\n  dup6\n    /* \"#utility.yul\":1318:1324   */\n  dup3\n    /* \"#utility.yul\":1307:1316   */\n  dup7\n    /* \"#utility.yul\":1303:1325   */\n  add\n    /* \"#utility.yul\":1271:1335   */\n  tag_13\n  jump\t// in\ntag_30:\n    /* \"#utility.yul\":1261:1335   */\n  swap2\n  pop\n    /* \"#utility.yul\":1216:1345   */\n  pop\n    /* \"#utility.yul\":845:1352   */\n  swap3\n  pop\n  swap3\n  swap1\n  pop\n  jump\t// out\n    /* \"Periphery/LendingPoolRouter.sol\":402:6559  contract LendingPoolRouter {... */\ntag_6:\n  mload(0x80)\n  mload(0xa0)\n  codecopy(0x00, dataOffset(sub_0), dataSize(sub_0))\n  0x00\n  assignImmutable(\"0x22a2e3ce6024cf7fa9f23bb9996411ef645dedafa701962edde7c1d4874e9131\")\n  0x00\n  assignImmutable(\"0x062e0d05679deb61c3c16718a62bec0f8eaa9ea36bea43666f8316bed62917c4\")\n  return(0x00, dataSize(sub_0))\nstop\n\nsub_0: assembly {\n        /* \"Periphery/LendingPoolRouter.sol\":402:6559  contract LendingPoolRouter {... */\n      mstore(0x40, 0x80)\n      jumpi(tag_1, lt(calldatasize, 0x04))\n      shr(0xe0, calldataload(0x00))\n      dup1\n      0x5a91b39c\n      gt\n      tag_19\n      jumpi\n      dup1\n      0x9e281a98\n      gt\n      tag_20\n      jumpi\n      dup1\n      0x9e281a98\n      eq\n      tag_14\n      jumpi\n      dup1\n      0xc45a0155\n      eq\n      tag_15\n      jumpi\n      dup1\n      0xf14210a6\n      eq\n      tag_16\n      jumpi\n      dup1\n      0xf8b2cb4f\n      eq\n      tag_17\n      jumpi\n      dup1\n      0xfd08c30c\n      eq\n      tag_18\n      jumpi\n      jump(tag_1)\n    tag_20:\n      dup1\n      0x5a91b39c\n      eq\n      tag_10\n      jumpi\n      dup1\n      0x7b2af625\n      eq\n      tag_11\n      jumpi\n      dup1\n      0x9049f9d2\n      eq\n      tag_12\n      jumpi\n      dup1\n      0x987242e9\n      eq\n      tag_13\n      jumpi\n      jump(tag_1)\n    tag_19:\n      dup1\n      0x2553c96b\n      gt\n      tag_21\n      jumpi\n      dup1\n      0x2553c96b\n      eq\n      tag_6\n      jumpi\n      dup1\n      0x338b5dea\n      eq\n      tag_7\n      jumpi\n      dup1\n      0x38bad5e5\n      eq\n      tag_8\n      jumpi\n      dup1\n      0x5358fbda\n      eq\n      tag_9\n      jumpi\n      jump(tag_1)\n    tag_21:\n      dup1\n      0x1228cbee\n      eq\n      tag_2\n      jumpi\n      dup1\n      0x1ad58a21\n      eq\n      tag_3\n      jumpi\n      dup1\n      0x214ea218\n      eq\n      tag_4\n      jumpi\n      dup1\n      0x2247463e\n      eq\n      tag_5\n      jumpi\n    tag_1:\n      0x00\n      dup1\n      revert\n        /* \"Periphery/LendingPoolRouter.sol\":629:770  function getPoolAddress(address token) public view returns (address pool) {... */\n    tag_2:\n      callvalue\n      dup1\n      iszero\n      tag_22\n      jumpi\n      0x00\n      dup1\n      revert\n    tag_22:\n      pop\n      tag_23\n      0x04\n      dup1\n      calldatasize\n      sub\n      dup2\n      add\n      swap1\n      tag_24\n      swap2\n      swap1\n      tag_25\n      jump\t// in\n    tag_24:\n      tag_26\n      jump\t// in\n    tag_23:\n      mload(0x40)\n      tag_27\n      swap2\n      swap1\n      tag_28\n      jump\t// in\n    tag_27:\n      mload(0x40)\n      dup1\n      swap2\n      sub\n      swap1\n      return\n        /* \"Periphery/LendingPoolRouter.sol\":1391:1709  function getWithdrawAmount(... */\n    tag_3:\n      callvalue\n      dup1\n      iszero\n      tag_29\n      jumpi\n      0x00\n      dup1\n      revert\n    tag_29:\n      pop\n      tag_30\n      0x04\n      dup1\n      calldatasize\n      sub\n      dup2\n      add\n      swap1\n      tag_31\n      swap2\n      swap1\n      tag_32\n      jump\t// in\n    tag_31:\n      tag_33\n      jump\t// in\n    tag_30:\n      mload(0x40)\n      tag_34\n      swap2\n      swap1\n      tag_35\n      jump\t// in\n    tag_34:\n      mload(0x40)\n      dup1\n      swap2\n      sub\n      swap1\n      return\n        /* \"Periphery/LendingPoolRouter.sol\":3040:3406  function repayToken(address token, uint256 amount) public {... */\n    tag_4:\n      callvalue\n      dup1\n      iszero\n      tag_36\n      jumpi\n      0x00\n      dup1\n      revert\n    tag_36:\n      pop\n      tag_37\n      0x04\n      dup1\n      calldatasize\n      sub\n      dup2\n      add\n      swap1\n      tag_38\n      swap2\n      swap1\n      tag_39\n      jump\t// in\n    tag_38:\n      tag_40\n      jump\t// in\n    tag_37:\n      stop\n        /* \"Periphery/LendingPoolRouter.sol\":5294:5955  function repayETH(uint256 amount) public payable {... */\n    tag_5:\n      tag_41\n      0x04\n      dup1\n      calldatasize\n      sub\n      dup2\n      add\n      swap1\n      tag_42\n      swap2\n      swap1\n      tag_43\n      jump\t// in\n    tag_42:\n      tag_44\n      jump\t// in\n    tag_41:\n      stop\n        /* \"Periphery/LendingPoolRouter.sol\":1069:1341  function getRepayAmount(... */\n    tag_6:\n      callvalue\n      dup1\n      iszero\n      tag_45\n      jumpi\n      0x00\n      dup1\n      revert\n    tag_45:\n      pop\n      tag_46\n      0x04\n      dup1\n      calldatasize\n      sub\n      dup2\n      add\n      swap1\n      tag_47\n      swap2\n      swap1\n      tag_32\n      jump\t// in\n    tag_47:\n      tag_48\n      jump\t// in\n    tag_46:\n      mload(0x40)\n      tag_49\n      swap2\n      swap1\n      tag_35\n      jump\t// in\n    tag_49:\n      mload(0x40)\n      dup1\n      swap2\n      sub\n      swap1\n      return\n        /* \"Periphery/LendingPoolRouter.sol\":1821:2355  function depositToken(address token, uint256 amount) public {... */\n    tag_7:\n      callvalue\n      dup1\n      iszero\n      tag_50\n      jumpi\n      0x00\n      dup1\n      revert\n    tag_50:\n      pop\n      tag_51\n      0x04\n      dup1\n      calldatasize\n      sub\n      dup2\n      add\n      swap1\n      tag_52\n      swap2\n      swap1\n      tag_39\n      jump\t// in\n    tag_52:\n      tag_53\n      jump\t// in\n    tag_51:\n      stop\n        /* \"Periphery/LendingPoolRouter.sol\":6260:6557  function getBorrowAmount(address token, address user)... */\n    tag_8:\n      callvalue\n      dup1\n      iszero\n      tag_54\n      jumpi\n      0x00\n      dup1\n      revert\n    tag_54:\n      pop\n      tag_55\n      0x04\n      dup1\n      calldatasize\n      sub\n      dup2\n      add\n      swap1\n      tag_56\n      swap2\n      swap1\n      tag_57\n      jump\t// in\n    tag_56:\n      tag_58\n      jump\t// in\n    tag_55:\n      mload(0x40)\n      tag_59\n      swap2\n      swap1\n      tag_35\n      jump\t// in\n    tag_59:\n      mload(0x40)\n      dup1\n      swap2\n      sub\n      swap1\n      return\n        /* \"Periphery/LendingPoolRouter.sol\":3437:4184  function depositETH(uint256 amount) public payable {... */\n    tag_9:\n      tag_60\n      0x04\n      dup1\n      calldatasize\n      sub\n      dup2\n      add\n      swap1\n      tag_61\n      swap2\n      swap1\n      tag_43\n      jump\t// in\n    tag_61:\n      tag_62\n      jump\t// in\n    tag_60:\n      stop\n        /* \"Periphery/LendingPoolRouter.sol\":2780:3009  function borrowToken(address token, uint256 amount) public {... */\n    tag_10:\n      callvalue\n      dup1\n      iszero\n      tag_63\n      jumpi\n      0x00\n      dup1\n      revert\n    tag_63:\n      pop\n      tag_64\n      0x04\n      dup1\n      calldatasize\n      sub\n      dup2\n      add\n      swap1\n      tag_65\n      swap2\n      swap1\n      tag_39\n      jump\t// in\n    tag_65:\n      tag_66\n      jump\t// in\n    tag_64:\n      stop\n        /* \"Periphery/LendingPoolRouter.sol\":4790:5224  function borrowETH(uint256 amount) public {... */\n    tag_11:\n      callvalue\n      dup1\n      iszero\n      tag_67\n      jumpi\n      0x00\n      dup1\n      revert\n    tag_67:\n      pop\n      tag_68\n      0x04\n      dup1\n      calldatasize\n      sub\n      dup2\n      add\n      swap1\n      tag_69\n      swap2\n      swap1\n      tag_43\n      jump\t// in\n    tag_69:\n      tag_70\n      jump\t// in\n    tag_68:\n      stop\n        /* \"Periphery/LendingPoolRouter.sol\":917:1022  function createPool(address token) public {... */\n    tag_12:\n      callvalue\n      dup1\n      iszero\n      tag_71\n      jumpi\n      0x00\n      dup1\n      revert\n    tag_71:\n      pop\n      tag_72\n      0x04\n      dup1\n      calldatasize\n      sub\n      dup2\n      add\n      swap1\n      tag_73\n      swap2\n      swap1\n      tag_25\n      jump\t// in\n    tag_73:\n      tag_74\n      jump\t// in\n    tag_72:\n      stop\n        /* \"Periphery/LendingPoolRouter.sol\":5961:6254  function getLendAmount(address token, address user)... */\n    tag_13:\n      callvalue\n      dup1\n      iszero\n      tag_75\n      jumpi\n      0x00\n      dup1\n      revert\n    tag_75:\n      pop\n      tag_76\n      0x04\n      dup1\n      calldatasize\n      sub\n      dup2\n      add\n      swap1\n      tag_77\n      swap2\n      swap1\n      tag_57\n      jump\t// in\n    tag_77:\n      tag_78\n      jump\t// in\n    tag_76:\n      mload(0x40)\n      tag_79\n      swap2\n      swap1\n      tag_35\n      jump\t// in\n    tag_79:\n      mload(0x40)\n      dup1\n      swap2\n      sub\n      swap1\n      return\n        /* \"Periphery/LendingPoolRouter.sol\":2386:2749  function withdrawToken(address token, uint256 amount) public {... */\n    tag_14:\n      callvalue\n      dup1\n      iszero\n      tag_80\n      jumpi\n      0x00\n      dup1\n      revert\n    tag_80:\n      pop\n      tag_81\n      0x04\n      dup1\n      calldatasize\n      sub\n      dup2\n      add\n      swap1\n      tag_82\n      swap2\n      swap1\n      tag_39\n      jump\t// in\n    tag_82:\n      tag_83\n      jump\t// in\n    tag_81:\n      stop\n        /* \"Periphery/LendingPoolRouter.sol\":435:467  address public immutable factory */\n    tag_15:\n      callvalue\n      dup1\n      iszero\n      tag_84\n      jumpi\n      0x00\n      dup1\n      revert\n    tag_84:\n      pop\n      tag_85\n      tag_86\n      jump\t// in\n    tag_85:\n      mload(0x40)\n      tag_87\n      swap2\n      swap1\n      tag_28\n      jump\t// in\n    tag_87:\n      mload(0x40)\n      dup1\n      swap2\n      sub\n      swap1\n      return\n        /* \"Periphery/LendingPoolRouter.sol\":4214:4760  function withdrawETH(uint256 amount) public {... */\n    tag_16:\n      callvalue\n      dup1\n      iszero\n      tag_88\n      jumpi\n      0x00\n      dup1\n      revert\n    tag_88:\n      pop\n      tag_89\n      0x04\n      dup1\n      calldatasize\n      sub\n      dup2\n      add\n      swap1\n      tag_90\n      swap2\n      swap1\n      tag_43\n      jump\t// in\n    tag_90:\n      tag_91\n      jump\t// in\n    tag_89:\n      stop\n        /* \"Periphery/LendingPoolRouter.sol\":776:911  function getBalance(address token) public view returns (uint256 balance) {... */\n    tag_17:\n      callvalue\n      dup1\n      iszero\n      tag_92\n      jumpi\n      0x00\n      dup1\n      revert\n    tag_92:\n      pop\n      tag_93\n      0x04\n      dup1\n      calldatasize\n      sub\n      dup2\n      add\n      swap1\n      tag_94\n      swap2\n      swap1\n      tag_25\n      jump\t// in\n    tag_94:\n      tag_95\n      jump\t// in\n    tag_93:\n      mload(0x40)\n      tag_96\n      swap2\n      swap1\n      tag_35\n      jump\t// in\n    tag_96:\n      mload(0x40)\n      dup1\n      swap2\n      sub\n      swap1\n      return\n        /* \"Periphery/LendingPoolRouter.sol\":473:503  address public immutable WEXDC */\n    tag_18:\n      callvalue\n      dup1\n      iszero\n      tag_97\n      jumpi\n      0x00\n      dup1\n      revert\n    tag_97:\n      pop\n      tag_98\n      tag_99\n      jump\t// in\n    tag_98:\n      mload(0x40)\n      tag_100\n      swap2\n      swap1\n      tag_28\n      jump\t// in\n    tag_100:\n      mload(0x40)\n      dup1\n      swap2\n      sub\n      swap1\n      return\n        /* \"Periphery/LendingPoolRouter.sol\":629:770  function getPoolAddress(address token) public view returns (address pool) {... */\n    tag_26:\n        /* \"Periphery/LendingPoolRouter.sol\":689:701  address pool */\n      0x00\n        /* \"Periphery/LendingPoolRouter.sol\":740:747  factory */\n      immutable(\"0x062e0d05679deb61c3c16718a62bec0f8eaa9ea36bea43666f8316bed62917c4\")\n        /* \"Periphery/LendingPoolRouter.sol\":720:756  ILendingPoolFactory(factory).getPool */\n      0xffffffffffffffffffffffffffffffffffffffff\n      and\n      0xbbe4f6db\n        /* \"Periphery/LendingPoolRouter.sol\":757:762  token */\n      dup4\n        /* \"Periphery/LendingPoolRouter.sol\":720:763  ILendingPoolFactory(factory).getPool(token) */\n      mload(0x40)\n      dup3\n      0xffffffff\n      and\n      0xe0\n      shl\n      dup2\n      mstore\n      0x04\n      add\n      tag_102\n      swap2\n      swap1\n      tag_28\n      jump\t// in\n    tag_102:\n      0x20\n      mload(0x40)\n      dup1\n      dup4\n      sub\n      dup2\n      dup7\n      gas\n      staticcall\n      iszero\n      dup1\n      iszero\n      tag_104\n      jumpi\n      returndatasize\n      0x00\n      dup1\n      returndatacopy\n      revert(0x00, returndatasize)\n    tag_104:\n      pop\n      pop\n      pop\n      pop\n      mload(0x40)\n      returndatasize\n      not(0x1f)\n      0x1f\n      dup3\n      add\n      and\n      dup3\n      add\n      dup1\n      0x40\n      mstore\n      pop\n      dup2\n      add\n      swap1\n      tag_105\n      swap2\n      swap1\n      tag_106\n      jump\t// in\n    tag_105:\n        /* \"Periphery/LendingPoolRouter.sol\":713:763  pool = ILendingPoolFactory(factory).getPool(token) */\n      swap1\n      pop\n        /* \"Periphery/LendingPoolRouter.sol\":629:770  function getPoolAddress(address token) public view returns (address pool) {... */\n      swap2\n      swap1\n      pop\n      jump\t// out\n        /* \"Periphery/LendingPoolRouter.sol\":1391:1709  function getWithdrawAmount(... */\n    tag_33:\n        /* \"Periphery/LendingPoolRouter.sol\":1522:1536  uint256 amount */\n      0x00\n        /* \"Periphery/LendingPoolRouter.sol\":1548:1560  address pool */\n      dup1\n        /* \"Periphery/LendingPoolRouter.sol\":1563:1584  getPoolAddress(token) */\n      tag_108\n        /* \"Periphery/LendingPoolRouter.sol\":1578:1583  token */\n      dup6\n        /* \"Periphery/LendingPoolRouter.sol\":1563:1577  getPoolAddress */\n      tag_26\n        /* \"Periphery/LendingPoolRouter.sol\":1563:1584  getPoolAddress(token) */\n      jump\t// in\n    tag_108:\n        /* \"Periphery/LendingPoolRouter.sol\":1548:1584  address pool = getPoolAddress(token) */\n      swap1\n      pop\n        /* \"Periphery/LendingPoolRouter.sol\":1617:1621  pool */\n      dup1\n        /* \"Periphery/LendingPoolRouter.sol\":1604:1646  ILendingPool(pool).calculateWithdrawAmount */\n      0xffffffffffffffffffffffffffffffffffffffff\n      and\n      0x4722a531\n        /* \"Periphery/LendingPoolRouter.sol\":1660:1664  user */\n      dup6\n        /* \"Periphery/LendingPoolRouter.sol\":1678:1692  withdrawAmount */\n      dup6\n        /* \"Periphery/LendingPoolRouter.sol\":1604:1702  ILendingPool(pool).calculateWithdrawAmount(... */\n      mload(0x40)\n      dup4\n      0xffffffff\n      and\n      0xe0\n      shl\n      dup2\n      mstore\n      0x04\n      add\n      tag_109\n      swap3\n      swap2\n      swap1\n      tag_110\n      jump\t// in\n    tag_109:\n      0x20\n      mload(0x40)\n      dup1\n      dup4\n      sub\n      dup2\n      dup7\n      gas\n      staticcall\n      iszero\n      dup1\n      iszero\n      tag_112\n      jumpi\n      returndatasize\n      0x00\n      dup1\n      returndatacopy\n      revert(0x00, returndatasize)\n    tag_112:\n      pop\n      pop\n      pop\n      pop\n      mload(0x40)\n      returndatasize\n      not(0x1f)\n      0x1f\n      dup3\n      add\n      and\n      dup3\n      add\n      dup1\n      0x40\n      mstore\n      pop\n      dup2\n      add\n      swap1\n      tag_113\n      swap2\n      swap1\n      tag_114\n      jump\t// in\n    tag_113:\n        /* \"Periphery/LendingPoolRouter.sol\":1595:1702  amount = ILendingPool(pool).calculateWithdrawAmount(... */\n      swap2\n      pop\n        /* \"Periphery/LendingPoolRouter.sol\":1538:1709  {... */\n      pop\n        /* \"Periphery/LendingPoolRouter.sol\":1391:1709  function getWithdrawAmount(... */\n      swap4\n      swap3\n      pop\n      pop\n      pop\n      jump\t// out\n        /* \"Periphery/LendingPoolRouter.sol\":3040:3406  function repayToken(address token, uint256 amount) public {... */\n    tag_40:\n        /* \"Periphery/LendingPoolRouter.sol\":3108:3120  address pool */\n      0x00\n        /* \"Periphery/LendingPoolRouter.sol\":3123:3144  getPoolAddress(token) */\n      tag_116\n        /* \"Periphery/LendingPoolRouter.sol\":3138:3143  token */\n      dup4\n        /* \"Periphery/LendingPoolRouter.sol\":3123:3137  getPoolAddress */\n      tag_26\n        /* \"Periphery/LendingPoolRouter.sol\":3123:3144  getPoolAddress(token) */\n      jump\t// in\n    tag_116:\n        /* \"Periphery/LendingPoolRouter.sol\":3108:3144  address pool = getPoolAddress(token) */\n      swap1\n      pop\n        /* \"Periphery/LendingPoolRouter.sol\":3178:3179  0 */\n      0x00\n        /* \"Periphery/LendingPoolRouter.sol\":3162:3180  pool != address(0) */\n      0xffffffffffffffffffffffffffffffffffffffff\n      and\n        /* \"Periphery/LendingPoolRouter.sol\":3162:3166  pool */\n      dup2\n        /* \"Periphery/LendingPoolRouter.sol\":3162:3180  pool != address(0) */\n      0xffffffffffffffffffffffffffffffffffffffff\n      and\n      sub\n        /* \"Periphery/LendingPoolRouter.sol\":3154:3205  require(pool != address(0), \"Pool Does not exists\") */\n      tag_117\n      jumpi\n      mload(0x40)\n      0x08c379a000000000000000000000000000000000000000000000000000000000\n      dup2\n      mstore\n      0x04\n      add\n      tag_118\n      swap1\n      tag_119\n      jump\t// in\n    tag_118:\n      mload(0x40)\n      dup1\n      swap2\n      sub\n      swap1\n      revert\n    tag_117:\n        /* \"Periphery/LendingPoolRouter.sol\":3216:3235  uint256 totalAmount */\n      0x00\n        /* \"Periphery/LendingPoolRouter.sol\":3238:3279  getRepayAmount(token, msg.sender, amount) */\n      tag_120\n        /* \"Periphery/LendingPoolRouter.sol\":3253:3258  token */\n      dup5\n        /* \"Periphery/LendingPoolRouter.sol\":3260:3270  msg.sender */\n      caller\n        /* \"Periphery/LendingPoolRouter.sol\":3272:3278  amount */\n      dup6\n        /* \"Periphery/LendingPoolRouter.sol\":3238:3252  getRepayAmount */\n      tag_48\n        /* \"Periphery/LendingPoolRouter.sol\":3238:3279  getRepayAmount(token, msg.sender, amount) */\n      jump\t// in\n    tag_120:\n        /* \"Periphery/LendingPoolRouter.sol\":3216:3279  uint256 totalAmount = getRepayAmount(token, msg.sender, amount) */\n      swap1\n      pop\n        /* \"Periphery/LendingPoolRouter.sol\":3368:3372  pool */\n      dup2\n        /* \"Periphery/LendingPoolRouter.sol\":3355:3379  ILendingPool(pool).repay */\n      0xffffffffffffffffffffffffffffffffffffffff\n      and\n      0x22867d78\n        /* \"Periphery/LendingPoolRouter.sol\":3380:3390  msg.sender */\n      caller\n        /* \"Periphery/LendingPoolRouter.sol\":3392:3398  amount */\n      dup6\n        /* \"Periphery/LendingPoolRouter.sol\":3355:3399  ILendingPool(pool).repay(msg.sender, amount) */\n      mload(0x40)\n      dup4\n      0xffffffff\n      and\n      0xe0\n      shl\n      dup2\n      mstore\n      0x04\n      add\n      tag_121\n      swap3\n      swap2\n      swap1\n      tag_110\n      jump\t// in\n    tag_121:\n      0x00\n      mload(0x40)\n      dup1\n      dup4\n      sub\n      dup2\n      0x00\n      dup8\n      dup1\n      extcodesize\n      iszero\n      dup1\n      iszero\n      tag_122\n      jumpi\n      0x00\n      dup1\n      revert\n    tag_122:\n      pop\n      gas\n      call\n      iszero\n      dup1\n      iszero\n      tag_124\n      jumpi\n      returndatasize\n      0x00\n      dup1\n      returndatacopy\n      revert(0x00, returndatasize)\n    tag_124:\n      pop\n      pop\n      pop\n      pop\n        /* \"Periphery/LendingPoolRouter.sol\":3098:3406  {... */\n      pop\n      pop\n        /* \"Periphery/LendingPoolRouter.sol\":3040:3406  function repayToken(address token, uint256 amount) public {... */\n      pop\n      pop\n      jump\t// out\n        /* \"Periphery/LendingPoolRouter.sol\":5294:5955  function repayETH(uint256 amount) public payable {... */\n    tag_44:\n        /* \"Periphery/LendingPoolRouter.sol\":5353:5365  address pool */\n      0x00\n        /* \"Periphery/LendingPoolRouter.sol\":5368:5389  getPoolAddress(WEXDC) */\n      tag_126\n        /* \"Periphery/LendingPoolRouter.sol\":5383:5388  WEXDC */\n      immutable(\"0x22a2e3ce6024cf7fa9f23bb9996411ef645dedafa701962edde7c1d4874e9131\")\n        /* \"Periphery/LendingPoolRouter.sol\":5368:5382  getPoolAddress */\n      tag_26\n        /* \"Periphery/LendingPoolRouter.sol\":5368:5389  getPoolAddress(WEXDC) */\n      jump\t// in\n    tag_126:\n        /* \"Periphery/LendingPoolRouter.sol\":5353:5389  address pool = getPoolAddress(WEXDC) */\n      swap1\n      pop\n        /* \"Periphery/LendingPoolRouter.sol\":5423:5424  0 */\n      0x00\n        /* \"Periphery/LendingPoolRouter.sol\":5407:5425  pool != address(0) */\n      0xffffffffffffffffffffffffffffffffffffffff\n      and\n        /* \"Periphery/LendingPoolRouter.sol\":5407:5411  pool */\n      dup2\n        /* \"Periphery/LendingPoolRouter.sol\":5407:5425  pool != address(0) */\n      0xffffffffffffffffffffffffffffffffffffffff\n      and\n      sub\n        /* \"Periphery/LendingPoolRouter.sol\":5399:5450  require(pool != address(0), \"Pool Does not exists\") */\n      tag_127\n      jumpi\n      mload(0x40)\n      0x08c379a000000000000000000000000000000000000000000000000000000000\n      dup2\n      mstore\n      0x04\n      add\n      tag_128\n      swap1\n      tag_119\n      jump\t// in\n    tag_128:\n      mload(0x40)\n      dup1\n      swap2\n      sub\n      swap1\n      revert\n    tag_127:\n        /* \"Periphery/LendingPoolRouter.sol\":5461:5480  uint256 totalAmount */\n      0x00\n        /* \"Periphery/LendingPoolRouter.sol\":5483:5524  getRepayAmount(WEXDC, msg.sender, amount) */\n      tag_129\n        /* \"Periphery/LendingPoolRouter.sol\":5498:5503  WEXDC */\n      immutable(\"0x22a2e3ce6024cf7fa9f23bb9996411ef645dedafa701962edde7c1d4874e9131\")\n        /* \"Periphery/LendingPoolRouter.sol\":5505:5515  msg.sender */\n      caller\n        /* \"Periphery/LendingPoolRouter.sol\":5517:5523  amount */\n      dup6\n        /* \"Periphery/LendingPoolRouter.sol\":5483:5497  getRepayAmount */\n      tag_48\n        /* \"Periphery/LendingPoolRouter.sol\":5483:5524  getRepayAmount(WEXDC, msg.sender, amount) */\n      jump\t// in\n    tag_129:\n        /* \"Periphery/LendingPoolRouter.sol\":5461:5524  uint256 totalAmount = getRepayAmount(WEXDC, msg.sender, amount) */\n      swap1\n      pop\n        /* \"Periphery/LendingPoolRouter.sol\":5556:5567  totalAmount */\n      dup1\n        /* \"Periphery/LendingPoolRouter.sol\":5543:5552  msg.value */\n      callvalue\n        /* \"Periphery/LendingPoolRouter.sol\":5543:5567  msg.value >= totalAmount */\n      lt\n      iszero\n        /* \"Periphery/LendingPoolRouter.sol\":5535:5593  require(msg.value >= totalAmount, \"Incorrect amount sent\") */\n      tag_130\n      jumpi\n      mload(0x40)\n      0x08c379a000000000000000000000000000000000000000000000000000000000\n      dup2\n      mstore\n      0x04\n      add\n      tag_131\n      swap1\n      tag_132\n      jump\t// in\n    tag_131:\n      mload(0x40)\n      dup1\n      swap2\n      sub\n      swap1\n      revert\n    tag_130:\n        /* \"Periphery/LendingPoolRouter.sol\":5609:5614  WEXDC */\n      immutable(\"0x22a2e3ce6024cf7fa9f23bb9996411ef645dedafa701962edde7c1d4874e9131\")\n        /* \"Periphery/LendingPoolRouter.sol\":5604:5623  IXDC(WEXDC).deposit */\n      0xffffffffffffffffffffffffffffffffffffffff\n      and\n      0xd0e30db0\n        /* \"Periphery/LendingPoolRouter.sol\":5631:5642  totalAmount */\n      dup3\n        /* \"Periphery/LendingPoolRouter.sol\":5604:5645  IXDC(WEXDC).deposit{value: totalAmount}() */\n      mload(0x40)\n      dup3\n      0xffffffff\n      and\n      0xe0\n      shl\n      dup2\n      mstore\n      0x04\n      add\n      0x00\n      mload(0x40)\n      dup1\n      dup4\n      sub\n      dup2\n      dup6\n      dup9\n      dup1\n      extcodesize\n      iszero\n      dup1\n      iszero\n      tag_133\n      jumpi\n      0x00\n      dup1\n      revert\n    tag_133:\n      pop\n      gas\n      call\n      iszero\n      dup1\n      iszero\n      tag_135\n      jumpi\n      returndatasize\n      0x00\n      dup1\n      returndatacopy\n      revert(0x00, returndatasize)\n    tag_135:\n      pop\n      pop\n      pop\n      pop\n      pop\n        /* \"Periphery/LendingPoolRouter.sol\":5655:5714  TransferHelper.safeTransfer(WEXDC, msg.sender, totalAmount) */\n      tag_136\n        /* \"Periphery/LendingPoolRouter.sol\":5683:5688  WEXDC */\n      immutable(\"0x22a2e3ce6024cf7fa9f23bb9996411ef645dedafa701962edde7c1d4874e9131\")\n        /* \"Periphery/LendingPoolRouter.sol\":5690:5700  msg.sender */\n      caller\n        /* \"Periphery/LendingPoolRouter.sol\":5702:5713  totalAmount */\n      dup4\n        /* \"Periphery/LendingPoolRouter.sol\":5655:5682  TransferHelper.safeTransfer */\n      tag_137\n        /* \"Periphery/LendingPoolRouter.sol\":5655:5714  TransferHelper.safeTransfer(WEXDC, msg.sender, totalAmount) */\n      jump\t// in\n    tag_136:\n        /* \"Periphery/LendingPoolRouter.sol\":5738:5742  pool */\n      dup2\n        /* \"Periphery/LendingPoolRouter.sol\":5725:5749  ILendingPool(pool).repay */\n      0xffffffffffffffffffffffffffffffffffffffff\n      and\n      0x22867d78\n        /* \"Periphery/LendingPoolRouter.sol\":5750:5760  msg.sender */\n      caller\n        /* \"Periphery/LendingPoolRouter.sol\":5762:5768  amount */\n      dup6\n        /* \"Periphery/LendingPoolRouter.sol\":5725:5769  ILendingPool(pool).repay(msg.sender, amount) */\n      mload(0x40)\n      dup4\n      0xffffffff\n      and\n      0xe0\n      shl\n      dup2\n      mstore\n      0x04\n      add\n      tag_138\n      swap3\n      swap2\n      swap1\n      tag_110\n      jump\t// in\n    tag_138:\n      0x00\n      mload(0x40)\n      dup1\n      dup4\n      sub\n      dup2\n      0x00\n      dup8\n      dup1\n      extcodesize\n      iszero\n      dup1\n      iszero\n      tag_139\n      jumpi\n      0x00\n      dup1\n      revert\n    tag_139:\n      pop\n      gas\n      call\n      iszero\n      dup1\n      iszero\n      tag_141\n      jumpi\n      returndatasize\n      0x00\n      dup1\n      returndatacopy\n      revert(0x00, returndatasize)\n    tag_141:\n      pop\n      pop\n      pop\n      pop\n        /* \"Periphery/LendingPoolRouter.sol\":5844:5855  totalAmount */\n      dup1\n        /* \"Periphery/LendingPoolRouter.sol\":5832:5841  msg.value */\n      callvalue\n        /* \"Periphery/LendingPoolRouter.sol\":5832:5855  msg.value > totalAmount */\n      gt\n        /* \"Periphery/LendingPoolRouter.sol\":5828:5949  if (msg.value > totalAmount) {... */\n      iszero\n      tag_142\n      jumpi\n        /* \"Periphery/LendingPoolRouter.sol\":5871:5938  TransferHelper.safeTransferETH(msg.sender, msg.value - totalAmount) */\n      tag_143\n        /* \"Periphery/LendingPoolRouter.sol\":5902:5912  msg.sender */\n      caller\n        /* \"Periphery/LendingPoolRouter.sol\":5926:5937  totalAmount */\n      dup3\n        /* \"Periphery/LendingPoolRouter.sol\":5914:5923  msg.value */\n      callvalue\n        /* \"Periphery/LendingPoolRouter.sol\":5914:5937  msg.value - totalAmount */\n      tag_144\n      swap2\n      swap1\n      tag_145\n      jump\t// in\n    tag_144:\n        /* \"Periphery/LendingPoolRouter.sol\":5871:5901  TransferHelper.safeTransferETH */\n      tag_146\n        /* \"Periphery/LendingPoolRouter.sol\":5871:5938  TransferHelper.safeTransferETH(msg.sender, msg.value - totalAmount) */\n      jump\t// in\n    tag_143:\n        /* \"Periphery/LendingPoolRouter.sol\":5828:5949  if (msg.value > totalAmount) {... */\n    tag_142:\n        /* \"Periphery/LendingPoolRouter.sol\":5343:5955  {... */\n      pop\n      pop\n        /* \"Periphery/LendingPoolRouter.sol\":5294:5955  function repayETH(uint256 amount) public payable {... */\n      pop\n      jump\t// out\n        /* \"Periphery/LendingPoolRouter.sol\":1069:1341  function getRepayAmount(... */\n    tag_48:\n        /* \"Periphery/LendingPoolRouter.sol\":1194:1208  uint256 amount */\n      0x00\n        /* \"Periphery/LendingPoolRouter.sol\":1220:1232  address pool */\n      dup1\n        /* \"Periphery/LendingPoolRouter.sol\":1235:1256  getPoolAddress(token) */\n      tag_148\n        /* \"Periphery/LendingPoolRouter.sol\":1250:1255  token */\n      dup6\n        /* \"Periphery/LendingPoolRouter.sol\":1235:1249  getPoolAddress */\n      tag_26\n        /* \"Periphery/LendingPoolRouter.sol\":1235:1256  getPoolAddress(token) */\n      jump\t// in\n    tag_148:\n        /* \"Periphery/LendingPoolRouter.sol\":1220:1256  address pool = getPoolAddress(token) */\n      swap1\n      pop\n        /* \"Periphery/LendingPoolRouter.sol\":1289:1293  pool */\n      dup1\n        /* \"Periphery/LendingPoolRouter.sol\":1276:1315  ILendingPool(pool).calculateRepayAmount */\n      0xffffffffffffffffffffffffffffffffffffffff\n      and\n      0xaa1970df\n        /* \"Periphery/LendingPoolRouter.sol\":1316:1320  user */\n      dup6\n        /* \"Periphery/LendingPoolRouter.sol\":1322:1333  repayAmount */\n      dup6\n        /* \"Periphery/LendingPoolRouter.sol\":1276:1334  ILendingPool(pool).calculateRepayAmount(user, repayAmount) */\n      mload(0x40)\n      dup4\n      0xffffffff\n      and\n      0xe0\n      shl\n      dup2\n      mstore\n      0x04\n      add\n      tag_149\n      swap3\n      swap2\n      swap1\n      tag_110\n      jump\t// in\n    tag_149:\n      0x20\n      mload(0x40)\n      dup1\n      dup4\n      sub\n      dup2\n      dup7\n      gas\n      staticcall\n      iszero\n      dup1\n      iszero\n      tag_151\n      jumpi\n      returndatasize\n      0x00\n      dup1\n      returndatacopy\n      revert(0x00, returndatasize)\n    tag_151:\n      pop\n      pop\n      pop\n      pop\n      mload(0x40)\n      returndatasize\n      not(0x1f)\n      0x1f\n      dup3\n      add\n      and\n      dup3\n      add\n      dup1\n      0x40\n      mstore\n      pop\n      dup2\n      add\n      swap1\n      tag_152\n      swap2\n      swap1\n      tag_114\n      jump\t// in\n    tag_152:\n        /* \"Periphery/LendingPoolRouter.sol\":1267:1334  amount = ILendingPool(pool).calculateRepayAmount(user, repayAmount) */\n      swap2\n      pop\n        /* \"Periphery/LendingPoolRouter.sol\":1210:1341  {... */\n      pop\n        /* \"Periphery/LendingPoolRouter.sol\":1069:1341  function getRepayAmount(... */\n      swap4\n      swap3\n      pop\n      pop\n      pop\n      jump\t// out\n        /* \"Periphery/LendingPoolRouter.sol\":1821:2355  function depositToken(address token, uint256 amount) public {... */\n    tag_53:\n        /* \"Periphery/LendingPoolRouter.sol\":1891:1903  address pool */\n      0x00\n        /* \"Periphery/LendingPoolRouter.sol\":1906:1927  getPoolAddress(token) */\n      tag_154\n        /* \"Periphery/LendingPoolRouter.sol\":1921:1926  token */\n      dup4\n        /* \"Periphery/LendingPoolRouter.sol\":1906:1920  getPoolAddress */\n      tag_26\n        /* \"Periphery/LendingPoolRouter.sol\":1906:1927  getPoolAddress(token) */\n      jump\t// in\n    tag_154:\n        /* \"Periphery/LendingPoolRouter.sol\":1891:1927  address pool = getPoolAddress(token) */\n      swap1\n      pop\n        /* \"Periphery/LendingPoolRouter.sol\":1958:1959  0 */\n      0x00\n        /* \"Periphery/LendingPoolRouter.sol\":1942:1960  pool != address(0) */\n      0xffffffffffffffffffffffffffffffffffffffff\n      and\n        /* \"Periphery/LendingPoolRouter.sol\":1942:1946  pool */\n      dup2\n        /* \"Periphery/LendingPoolRouter.sol\":1942:1960  pool != address(0) */\n      0xffffffffffffffffffffffffffffffffffffffff\n      and\n      eq\n        /* \"Periphery/LendingPoolRouter.sol\":1938:2349  if (pool != address(0)) {... */\n      tag_155\n      jumpi\n        /* \"Periphery/LendingPoolRouter.sol\":2090:2094  pool */\n      dup1\n        /* \"Periphery/LendingPoolRouter.sol\":2077:2103  ILendingPool(pool).deposit */\n      0xffffffffffffffffffffffffffffffffffffffff\n      and\n      0x6e553f65\n        /* \"Periphery/LendingPoolRouter.sol\":2104:2110  amount */\n      dup4\n        /* \"Periphery/LendingPoolRouter.sol\":2112:2122  msg.sender */\n      caller\n        /* \"Periphery/LendingPoolRouter.sol\":2077:2123  ILendingPool(pool).deposit(amount, msg.sender) */\n      mload(0x40)\n      dup4\n      0xffffffff\n      and\n      0xe0\n      shl\n      dup2\n      mstore\n      0x04\n      add\n      tag_156\n      swap3\n      swap2\n      swap1\n      tag_157\n      jump\t// in\n    tag_156:\n      0x00\n      mload(0x40)\n      dup1\n      dup4\n      sub\n      dup2\n      0x00\n      dup8\n      dup1\n      extcodesize\n      iszero\n      dup1\n      iszero\n      tag_158\n      jumpi\n      0x00\n      dup1\n      revert\n    tag_158:\n      pop\n      gas\n      call\n      iszero\n      dup1\n      iszero\n      tag_160\n      jumpi\n      returndatasize\n      0x00\n      dup1\n      returndatacopy\n      revert(0x00, returndatasize)\n    tag_160:\n      pop\n      pop\n      pop\n      pop\n        /* \"Periphery/LendingPoolRouter.sol\":1938:2349  if (pool != address(0)) {... */\n      jump(tag_161)\n    tag_155:\n        /* \"Periphery/LendingPoolRouter.sol\":2154:2171  createPool(token) */\n      tag_162\n        /* \"Periphery/LendingPoolRouter.sol\":2165:2170  token */\n      dup4\n        /* \"Periphery/LendingPoolRouter.sol\":2154:2164  createPool */\n      tag_74\n        /* \"Periphery/LendingPoolRouter.sol\":2154:2171  createPool(token) */\n      jump\t// in\n    tag_162:\n        /* \"Periphery/LendingPoolRouter.sol\":2192:2213  getPoolAddress(token) */\n      tag_163\n        /* \"Periphery/LendingPoolRouter.sol\":2207:2212  token */\n      dup4\n        /* \"Periphery/LendingPoolRouter.sol\":2192:2206  getPoolAddress */\n      tag_26\n        /* \"Periphery/LendingPoolRouter.sol\":2192:2213  getPoolAddress(token) */\n      jump\t// in\n    tag_163:\n        /* \"Periphery/LendingPoolRouter.sol\":2185:2213  pool = getPoolAddress(token) */\n      swap1\n      pop\n        /* \"Periphery/LendingPoolRouter.sol\":2305:2309  pool */\n      dup1\n        /* \"Periphery/LendingPoolRouter.sol\":2292:2318  ILendingPool(pool).deposit */\n      0xffffffffffffffffffffffffffffffffffffffff\n      and\n      0x6e553f65\n        /* \"Periphery/LendingPoolRouter.sol\":2319:2325  amount */\n      dup4\n        /* \"Periphery/LendingPoolRouter.sol\":2327:2337  msg.sender */\n      caller\n        /* \"Periphery/LendingPoolRouter.sol\":2292:2338  ILendingPool(pool).deposit(amount, msg.sender) */\n      mload(0x40)\n      dup4\n      0xffffffff\n      and\n      0xe0\n      shl\n      dup2\n      mstore\n      0x04\n      add\n      tag_164\n      swap3\n      swap2\n      swap1\n      tag_157\n      jump\t// in\n    tag_164:\n      0x00\n      mload(0x40)\n      dup1\n      dup4\n      sub\n      dup2\n      0x00\n      dup8\n      dup1\n      extcodesize\n      iszero\n      dup1\n      iszero\n      tag_165\n      jumpi\n      0x00\n      dup1\n      revert\n    tag_165:\n      pop\n      gas\n      call\n      iszero\n      dup1\n      iszero\n      tag_167\n      jumpi\n      returndatasize\n      0x00\n      dup1\n      returndatacopy\n      revert(0x00, returndatasize)\n    tag_167:\n      pop\n      pop\n      pop\n      pop\n        /* \"Periphery/LendingPoolRouter.sol\":1938:2349  if (pool != address(0)) {... */\n    tag_161:\n        /* \"Periphery/LendingPoolRouter.sol\":1881:2355  {... */\n      pop\n        /* \"Periphery/LendingPoolRouter.sol\":1821:2355  function depositToken(address token, uint256 amount) public {... */\n      pop\n      pop\n      jump\t// out\n        /* \"Periphery/LendingPoolRouter.sol\":6260:6557  function getBorrowAmount(address token, address user)... */\n    tag_58:\n        /* \"Periphery/LendingPoolRouter.sol\":6359:6373  uint256 amount */\n      0x00\n        /* \"Periphery/LendingPoolRouter.sol\":6389:6401  address pool */\n      dup1\n        /* \"Periphery/LendingPoolRouter.sol\":6404:6425  getPoolAddress(token) */\n      tag_169\n        /* \"Periphery/LendingPoolRouter.sol\":6419:6424  token */\n      dup5\n        /* \"Periphery/LendingPoolRouter.sol\":6404:6418  getPoolAddress */\n      tag_26\n        /* \"Periphery/LendingPoolRouter.sol\":6404:6425  getPoolAddress(token) */\n      jump\t// in\n    tag_169:\n        /* \"Periphery/LendingPoolRouter.sol\":6389:6425  address pool = getPoolAddress(token) */\n      swap1\n      pop\n        /* \"Periphery/LendingPoolRouter.sol\":6459:6460  0 */\n      0x00\n        /* \"Periphery/LendingPoolRouter.sol\":6443:6461  pool != address(0) */\n      0xffffffffffffffffffffffffffffffffffffffff\n      and\n        /* \"Periphery/LendingPoolRouter.sol\":6443:6447  pool */\n      dup2\n        /* \"Periphery/LendingPoolRouter.sol\":6443:6461  pool != address(0) */\n      0xffffffffffffffffffffffffffffffffffffffff\n      and\n      sub\n        /* \"Periphery/LendingPoolRouter.sol\":6435:6486  require(pool != address(0), \"Pool Does not exists\") */\n      tag_170\n      jumpi\n      mload(0x40)\n      0x08c379a000000000000000000000000000000000000000000000000000000000\n      dup2\n      mstore\n      0x04\n      add\n      tag_171\n      swap1\n      tag_119\n      jump\t// in\n    tag_171:\n      mload(0x40)\n      dup1\n      swap2\n      sub\n      swap1\n      revert\n    tag_170:\n        /* \"Periphery/LendingPoolRouter.sol\":6519:6523  pool */\n      dup1\n        /* \"Periphery/LendingPoolRouter.sol\":6506:6537  ILendingPool(pool).borrowAmount */\n      0xffffffffffffffffffffffffffffffffffffffff\n      and\n      0x8d113a7f\n        /* \"Periphery/LendingPoolRouter.sol\":6538:6542  user */\n      dup5\n        /* \"Periphery/LendingPoolRouter.sol\":6506:6543  ILendingPool(pool).borrowAmount(user) */\n      mload(0x40)\n      dup3\n      0xffffffff\n      and\n      0xe0\n      shl\n      dup2\n      mstore\n      0x04\n      add\n      tag_172\n      swap2\n      swap1\n      tag_28\n      jump\t// in\n    tag_172:\n      0x40\n      dup1\n      mload\n      dup1\n      dup4\n      sub\n      dup2\n      dup7\n      gas\n      staticcall\n      iszero\n      dup1\n      iszero\n      tag_174\n      jumpi\n      returndatasize\n      0x00\n      dup1\n      returndatacopy\n      revert(0x00, returndatasize)\n    tag_174:\n      pop\n      pop\n      pop\n      pop\n      mload(0x40)\n      returndatasize\n      not(0x1f)\n      0x1f\n      dup3\n      add\n      and\n      dup3\n      add\n      dup1\n      0x40\n      mstore\n      pop\n      dup2\n      add\n      swap1\n      tag_175\n      swap2\n      swap1\n      tag_176\n      jump\t// in\n    tag_175:\n        /* \"Periphery/LendingPoolRouter.sol\":6506:6550  ILendingPool(pool).borrowAmount(user).amount */\n      0x00\n      add\n      mload\n        /* \"Periphery/LendingPoolRouter.sol\":6497:6550  amount = ILendingPool(pool).borrowAmount(user).amount */\n      swap2\n      pop\n        /* \"Periphery/LendingPoolRouter.sol\":6379:6557  {... */\n      pop\n        /* \"Periphery/LendingPoolRouter.sol\":6260:6557  function getBorrowAmount(address token, address user)... */\n      swap3\n      swap2\n      pop\n      pop\n      jump\t// out\n        /* \"Periphery/LendingPoolRouter.sol\":3437:4184  function depositETH(uint256 amount) public payable {... */\n    tag_62:\n        /* \"Periphery/LendingPoolRouter.sol\":3516:3525  msg.value */\n      callvalue\n        /* \"Periphery/LendingPoolRouter.sol\":3506:3512  amount */\n      dup2\n        /* \"Periphery/LendingPoolRouter.sol\":3506:3525  amount == msg.value */\n      eq\n        /* \"Periphery/LendingPoolRouter.sol\":3498:3546  require(amount == msg.value, \"Incorrect Amount\") */\n      tag_178\n      jumpi\n      mload(0x40)\n      0x08c379a000000000000000000000000000000000000000000000000000000000\n      dup2\n      mstore\n      0x04\n      add\n      tag_179\n      swap1\n      tag_180\n      jump\t// in\n    tag_179:\n      mload(0x40)\n      dup1\n      swap2\n      sub\n      swap1\n      revert\n    tag_178:\n        /* \"Periphery/LendingPoolRouter.sol\":3557:3569  address pool */\n      0x00\n        /* \"Periphery/LendingPoolRouter.sol\":3572:3593  getPoolAddress(WEXDC) */\n      tag_181\n        /* \"Periphery/LendingPoolRouter.sol\":3587:3592  WEXDC */\n      immutable(\"0x22a2e3ce6024cf7fa9f23bb9996411ef645dedafa701962edde7c1d4874e9131\")\n        /* \"Periphery/LendingPoolRouter.sol\":3572:3586  getPoolAddress */\n      tag_26\n        /* \"Periphery/LendingPoolRouter.sol\":3572:3593  getPoolAddress(WEXDC) */\n      jump\t// in\n    tag_181:\n        /* \"Periphery/LendingPoolRouter.sol\":3557:3593  address pool = getPoolAddress(WEXDC) */\n      swap1\n      pop\n        /* \"Periphery/LendingPoolRouter.sol\":3655:3660  WEXDC */\n      immutable(\"0x22a2e3ce6024cf7fa9f23bb9996411ef645dedafa701962edde7c1d4874e9131\")\n        /* \"Periphery/LendingPoolRouter.sol\":3650:3669  IXDC(WEXDC).deposit */\n      0xffffffffffffffffffffffffffffffffffffffff\n      and\n      0xd0e30db0\n        /* \"Periphery/LendingPoolRouter.sol\":3677:3686  msg.value */\n      callvalue\n        /* \"Periphery/LendingPoolRouter.sol\":3650:3689  IXDC(WEXDC).deposit{value: msg.value}() */\n      mload(0x40)\n      dup3\n      0xffffffff\n      and\n      0xe0\n      shl\n      dup2\n      mstore\n      0x04\n      add\n      0x00\n      mload(0x40)\n      dup1\n      dup4\n      sub\n      dup2\n      dup6\n      dup9\n      dup1\n      extcodesize\n      iszero\n      dup1\n      iszero\n      tag_182\n      jumpi\n      0x00\n      dup1\n      revert\n    tag_182:\n      pop\n      gas\n      call\n      iszero\n      dup1\n      iszero\n      tag_184\n      jumpi\n      returndatasize\n      0x00\n      dup1\n      returndatacopy\n      revert(0x00, returndatasize)\n    tag_184:\n      pop\n      pop\n      pop\n      pop\n      pop\n        /* \"Periphery/LendingPoolRouter.sol\":3699:3756  TransferHelper.safeTransfer(WEXDC, msg.sender, msg.value) */\n      tag_185\n        /* \"Periphery/LendingPoolRouter.sol\":3727:3732  WEXDC */\n      immutable(\"0x22a2e3ce6024cf7fa9f23bb9996411ef645dedafa701962edde7c1d4874e9131\")\n        /* \"Periphery/LendingPoolRouter.sol\":3734:3744  msg.sender */\n      caller\n        /* \"Periphery/LendingPoolRouter.sol\":3746:3755  msg.value */\n      callvalue\n        /* \"Periphery/LendingPoolRouter.sol\":3699:3726  TransferHelper.safeTransfer */\n      tag_137\n        /* \"Periphery/LendingPoolRouter.sol\":3699:3756  TransferHelper.safeTransfer(WEXDC, msg.sender, msg.value) */\n      jump\t// in\n    tag_185:\n        /* \"Periphery/LendingPoolRouter.sol\":3787:3788  0 */\n      0x00\n        /* \"Periphery/LendingPoolRouter.sol\":3771:3789  pool != address(0) */\n      0xffffffffffffffffffffffffffffffffffffffff\n      and\n        /* \"Periphery/LendingPoolRouter.sol\":3771:3775  pool */\n      dup2\n        /* \"Periphery/LendingPoolRouter.sol\":3771:3789  pool != address(0) */\n      0xffffffffffffffffffffffffffffffffffffffff\n      and\n      eq\n        /* \"Periphery/LendingPoolRouter.sol\":3767:4178  if (pool != address(0)) {... */\n      tag_186\n      jumpi\n        /* \"Periphery/LendingPoolRouter.sol\":3919:3923  pool */\n      dup1\n        /* \"Periphery/LendingPoolRouter.sol\":3906:3932  ILendingPool(pool).deposit */\n      0xffffffffffffffffffffffffffffffffffffffff\n      and\n      0x6e553f65\n        /* \"Periphery/LendingPoolRouter.sol\":3933:3939  amount */\n      dup4\n        /* \"Periphery/LendingPoolRouter.sol\":3941:3951  msg.sender */\n      caller\n        /* \"Periphery/LendingPoolRouter.sol\":3906:3952  ILendingPool(pool).deposit(amount, msg.sender) */\n      mload(0x40)\n      dup4\n      0xffffffff\n      and\n      0xe0\n      shl\n      dup2\n      mstore\n      0x04\n      add\n      tag_187\n      swap3\n      swap2\n      swap1\n      tag_157\n      jump\t// in\n    tag_187:\n      0x00\n      mload(0x40)\n      dup1\n      dup4\n      sub\n      dup2\n      0x00\n      dup8\n      dup1\n      extcodesize\n      iszero\n      dup1\n      iszero\n      tag_188\n      jumpi\n      0x00\n      dup1\n      revert\n    tag_188:\n      pop\n      gas\n      call\n      iszero\n      dup1\n      iszero\n      tag_190\n      jumpi\n      returndatasize\n      0x00\n      dup1\n      returndatacopy\n      revert(0x00, returndatasize)\n    tag_190:\n      pop\n      pop\n      pop\n      pop\n        /* \"Periphery/LendingPoolRouter.sol\":3767:4178  if (pool != address(0)) {... */\n      jump(tag_191)\n    tag_186:\n        /* \"Periphery/LendingPoolRouter.sol\":3983:4000  createPool(WEXDC) */\n      tag_192\n        /* \"Periphery/LendingPoolRouter.sol\":3994:3999  WEXDC */\n      immutable(\"0x22a2e3ce6024cf7fa9f23bb9996411ef645dedafa701962edde7c1d4874e9131\")\n        /* \"Periphery/LendingPoolRouter.sol\":3983:3993  createPool */\n      tag_74\n        /* \"Periphery/LendingPoolRouter.sol\":3983:4000  createPool(WEXDC) */\n      jump\t// in\n    tag_192:\n        /* \"Periphery/LendingPoolRouter.sol\":4021:4042  getPoolAddress(WEXDC) */\n      tag_193\n        /* \"Periphery/LendingPoolRouter.sol\":4036:4041  WEXDC */\n      immutable(\"0x22a2e3ce6024cf7fa9f23bb9996411ef645dedafa701962edde7c1d4874e9131\")\n        /* \"Periphery/LendingPoolRouter.sol\":4021:4035  getPoolAddress */\n      tag_26\n        /* \"Periphery/LendingPoolRouter.sol\":4021:4042  getPoolAddress(WEXDC) */\n      jump\t// in\n    tag_193:\n        /* \"Periphery/LendingPoolRouter.sol\":4014:4042  pool = getPoolAddress(WEXDC) */\n      swap1\n      pop\n        /* \"Periphery/LendingPoolRouter.sol\":4134:4138  pool */\n      dup1\n        /* \"Periphery/LendingPoolRouter.sol\":4121:4147  ILendingPool(pool).deposit */\n      0xffffffffffffffffffffffffffffffffffffffff\n      and\n      0x6e553f65\n        /* \"Periphery/LendingPoolRouter.sol\":4148:4154  amount */\n      dup4\n        /* \"Periphery/LendingPoolRouter.sol\":4156:4166  msg.sender */\n      caller\n        /* \"Periphery/LendingPoolRouter.sol\":4121:4167  ILendingPool(pool).deposit(amount, msg.sender) */\n      mload(0x40)\n      dup4\n      0xffffffff\n      and\n      0xe0\n      shl\n      dup2\n      mstore\n      0x04\n      add\n      tag_194\n      swap3\n      swap2\n      swap1\n      tag_157\n      jump\t// in\n    tag_194:\n      0x00\n      mload(0x40)\n      dup1\n      dup4\n      sub\n      dup2\n      0x00\n      dup8\n      dup1\n      extcodesize\n      iszero\n      dup1\n      iszero\n      tag_195\n      jumpi\n      0x00\n      dup1\n      revert\n    tag_195:\n      pop\n      gas\n      call\n      iszero\n      dup1\n      iszero\n      tag_197\n      jumpi\n      returndatasize\n      0x00\n      dup1\n      returndatacopy\n      revert(0x00, returndatasize)\n    tag_197:\n      pop\n      pop\n      pop\n      pop\n        /* \"Periphery/LendingPoolRouter.sol\":3767:4178  if (pool != address(0)) {... */\n    tag_191:\n        /* \"Periphery/LendingPoolRouter.sol\":3488:4184  {... */\n      pop\n        /* \"Periphery/LendingPoolRouter.sol\":3437:4184  function depositETH(uint256 amount) public payable {... */\n      pop\n      jump\t// out\n        /* \"Periphery/LendingPoolRouter.sol\":2780:3009  function borrowToken(address token, uint256 amount) public {... */\n    tag_66:\n        /* \"Periphery/LendingPoolRouter.sol\":2849:2861  address pool */\n      0x00\n        /* \"Periphery/LendingPoolRouter.sol\":2864:2885  getPoolAddress(token) */\n      tag_199\n        /* \"Periphery/LendingPoolRouter.sol\":2879:2884  token */\n      dup4\n        /* \"Periphery/LendingPoolRouter.sol\":2864:2878  getPoolAddress */\n      tag_26\n        /* \"Periphery/LendingPoolRouter.sol\":2864:2885  getPoolAddress(token) */\n      jump\t// in\n    tag_199:\n        /* \"Periphery/LendingPoolRouter.sol\":2849:2885  address pool = getPoolAddress(token) */\n      swap1\n      pop\n        /* \"Periphery/LendingPoolRouter.sol\":2919:2920  0 */\n      0x00\n        /* \"Periphery/LendingPoolRouter.sol\":2903:2921  pool != address(0) */\n      0xffffffffffffffffffffffffffffffffffffffff\n      and\n        /* \"Periphery/LendingPoolRouter.sol\":2903:2907  pool */\n      dup2\n        /* \"Periphery/LendingPoolRouter.sol\":2903:2921  pool != address(0) */\n      0xffffffffffffffffffffffffffffffffffffffff\n      and\n      sub\n        /* \"Periphery/LendingPoolRouter.sol\":2895:2946  require(pool != address(0), \"Pool Does not exists\") */\n      tag_200\n      jumpi\n      mload(0x40)\n      0x08c379a000000000000000000000000000000000000000000000000000000000\n      dup2\n      mstore\n      0x04\n      add\n      tag_201\n      swap1\n      tag_119\n      jump\t// in\n    tag_201:\n      mload(0x40)\n      dup1\n      swap2\n      sub\n      swap1\n      revert\n    tag_200:\n        /* \"Periphery/LendingPoolRouter.sol\":2970:2974  pool */\n      dup1\n        /* \"Periphery/LendingPoolRouter.sol\":2957:2982  ILendingPool(pool).borrow */\n      0xffffffffffffffffffffffffffffffffffffffff\n      and\n      0x4b3fd148\n        /* \"Periphery/LendingPoolRouter.sol\":2983:2989  amount */\n      dup4\n        /* \"Periphery/LendingPoolRouter.sol\":2991:3001  msg.sender */\n      caller\n        /* \"Periphery/LendingPoolRouter.sol\":2957:3002  ILendingPool(pool).borrow(amount, msg.sender) */\n      mload(0x40)\n      dup4\n      0xffffffff\n      and\n      0xe0\n      shl\n      dup2\n      mstore\n      0x04\n      add\n      tag_202\n      swap3\n      swap2\n      swap1\n      tag_157\n      jump\t// in\n    tag_202:\n      0x00\n      mload(0x40)\n      dup1\n      dup4\n      sub\n      dup2\n      0x00\n      dup8\n      dup1\n      extcodesize\n      iszero\n      dup1\n      iszero\n      tag_203\n      jumpi\n      0x00\n      dup1\n      revert\n    tag_203:\n      pop\n      gas\n      call\n      iszero\n      dup1\n      iszero\n      tag_205\n      jumpi\n      returndatasize\n      0x00\n      dup1\n      returndatacopy\n      revert(0x00, returndatasize)\n    tag_205:\n      pop\n      pop\n      pop\n      pop\n        /* \"Periphery/LendingPoolRouter.sol\":2839:3009  {... */\n      pop\n        /* \"Periphery/LendingPoolRouter.sol\":2780:3009  function borrowToken(address token, uint256 amount) public {... */\n      pop\n      pop\n      jump\t// out\n        /* \"Periphery/LendingPoolRouter.sol\":4790:5224  function borrowETH(uint256 amount) public {... */\n    tag_70:\n        /* \"Periphery/LendingPoolRouter.sol\":4842:4854  address pool */\n      0x00\n        /* \"Periphery/LendingPoolRouter.sol\":4857:4878  getPoolAddress(WEXDC) */\n      tag_207\n        /* \"Periphery/LendingPoolRouter.sol\":4872:4877  WEXDC */\n      immutable(\"0x22a2e3ce6024cf7fa9f23bb9996411ef645dedafa701962edde7c1d4874e9131\")\n        /* \"Periphery/LendingPoolRouter.sol\":4857:4871  getPoolAddress */\n      tag_26\n        /* \"Periphery/LendingPoolRouter.sol\":4857:4878  getPoolAddress(WEXDC) */\n      jump\t// in\n    tag_207:\n        /* \"Periphery/LendingPoolRouter.sol\":4842:4878  address pool = getPoolAddress(WEXDC) */\n      swap1\n      pop\n        /* \"Periphery/LendingPoolRouter.sol\":4912:4913  0 */\n      0x00\n        /* \"Periphery/LendingPoolRouter.sol\":4896:4914  pool != address(0) */\n      0xffffffffffffffffffffffffffffffffffffffff\n      and\n        /* \"Periphery/LendingPoolRouter.sol\":4896:4900  pool */\n      dup2\n        /* \"Periphery/LendingPoolRouter.sol\":4896:4914  pool != address(0) */\n      0xffffffffffffffffffffffffffffffffffffffff\n      and\n      sub\n        /* \"Periphery/LendingPoolRouter.sol\":4888:4939  require(pool != address(0), \"Pool Does not exists\") */\n      tag_208\n      jumpi\n      mload(0x40)\n      0x08c379a000000000000000000000000000000000000000000000000000000000\n      dup2\n      mstore\n      0x04\n      add\n      tag_209\n      swap1\n      tag_119\n      jump\t// in\n    tag_209:\n      mload(0x40)\n      dup1\n      swap2\n      sub\n      swap1\n      revert\n    tag_208:\n        /* \"Periphery/LendingPoolRouter.sol\":4963:4967  pool */\n      dup1\n        /* \"Periphery/LendingPoolRouter.sol\":4950:4975  ILendingPool(pool).borrow */\n      0xffffffffffffffffffffffffffffffffffffffff\n      and\n      0x4b3fd148\n        /* \"Periphery/LendingPoolRouter.sol\":4976:4982  amount */\n      dup4\n        /* \"Periphery/LendingPoolRouter.sol\":4984:4994  msg.sender */\n      caller\n        /* \"Periphery/LendingPoolRouter.sol\":4950:4995  ILendingPool(pool).borrow(amount, msg.sender) */\n      mload(0x40)\n      dup4\n      0xffffffff\n      and\n      0xe0\n      shl\n      dup2\n      mstore\n      0x04\n      add\n      tag_210\n      swap3\n      swap2\n      swap1\n      tag_157\n      jump\t// in\n    tag_210:\n      0x00\n      mload(0x40)\n      dup1\n      dup4\n      sub\n      dup2\n      0x00\n      dup8\n      dup1\n      extcodesize\n      iszero\n      dup1\n      iszero\n      tag_211\n      jumpi\n      0x00\n      dup1\n      revert\n    tag_211:\n      pop\n      gas\n      call\n      iszero\n      dup1\n      iszero\n      tag_213\n      jumpi\n      returndatasize\n      0x00\n      dup1\n      returndatacopy\n      revert(0x00, returndatasize)\n    tag_213:\n      pop\n      pop\n      pop\n      pop\n        /* \"Periphery/LendingPoolRouter.sol\":5011:5016  WEXDC */\n      immutable(\"0x22a2e3ce6024cf7fa9f23bb9996411ef645dedafa701962edde7c1d4874e9131\")\n        /* \"Periphery/LendingPoolRouter.sol\":5006:5025  IXDC(WEXDC).approve */\n      0xffffffffffffffffffffffffffffffffffffffff\n      and\n      0x095ea7b3\n        /* \"Periphery/LendingPoolRouter.sol\":5034:5038  this */\n      address\n        /* \"Periphery/LendingPoolRouter.sol\":5041:5047  amount */\n      dup5\n        /* \"Periphery/LendingPoolRouter.sol\":5006:5048  IXDC(WEXDC).approve(address(this), amount) */\n      mload(0x40)\n      dup4\n      0xffffffff\n      and\n      0xe0\n      shl\n      dup2\n      mstore\n      0x04\n      add\n      tag_214\n      swap3\n      swap2\n      swap1\n      tag_110\n      jump\t// in\n    tag_214:\n      0x20\n      mload(0x40)\n      dup1\n      dup4\n      sub\n      dup2\n      0x00\n      dup8\n      gas\n      call\n      iszero\n      dup1\n      iszero\n      tag_216\n      jumpi\n      returndatasize\n      0x00\n      dup1\n      returndatacopy\n      revert(0x00, returndatasize)\n    tag_216:\n      pop\n      pop\n      pop\n      pop\n      mload(0x40)\n      returndatasize\n      not(0x1f)\n      0x1f\n      dup3\n      add\n      and\n      dup3\n      add\n      dup1\n      0x40\n      mstore\n      pop\n      dup2\n      add\n      swap1\n      tag_217\n      swap2\n      swap1\n      tag_218\n      jump\t// in\n    tag_217:\n      pop\n        /* \"Periphery/LendingPoolRouter.sol\":5063:5068  WEXDC */\n      immutable(\"0x22a2e3ce6024cf7fa9f23bb9996411ef645dedafa701962edde7c1d4874e9131\")\n        /* \"Periphery/LendingPoolRouter.sol\":5058:5082  IXDC(WEXDC).transferFrom */\n      0xffffffffffffffffffffffffffffffffffffffff\n      and\n      0x23b872dd\n        /* \"Periphery/LendingPoolRouter.sol\":5083:5093  msg.sender */\n      caller\n        /* \"Periphery/LendingPoolRouter.sol\":5103:5107  this */\n      address\n        /* \"Periphery/LendingPoolRouter.sol\":5110:5116  amount */\n      dup6\n        /* \"Periphery/LendingPoolRouter.sol\":5058:5117  IXDC(WEXDC).transferFrom(msg.sender, address(this), amount) */\n      mload(0x40)\n      dup5\n      0xffffffff\n      and\n      0xe0\n      shl\n      dup2\n      mstore\n      0x04\n      add\n      tag_219\n      swap4\n      swap3\n      swap2\n      swap1\n      tag_220\n      jump\t// in\n    tag_219:\n      0x20\n      mload(0x40)\n      dup1\n      dup4\n      sub\n      dup2\n      0x00\n      dup8\n      gas\n      call\n      iszero\n      dup1\n      iszero\n      tag_222\n      jumpi\n      returndatasize\n      0x00\n      dup1\n      returndatacopy\n      revert(0x00, returndatasize)\n    tag_222:\n      pop\n      pop\n      pop\n      pop\n      mload(0x40)\n      returndatasize\n      not(0x1f)\n      0x1f\n      dup3\n      add\n      and\n      dup3\n      add\n      dup1\n      0x40\n      mstore\n      pop\n      dup2\n      add\n      swap1\n      tag_223\n      swap2\n      swap1\n      tag_218\n      jump\t// in\n    tag_223:\n      pop\n        /* \"Periphery/LendingPoolRouter.sol\":5133:5138  WEXDC */\n      immutable(\"0x22a2e3ce6024cf7fa9f23bb9996411ef645dedafa701962edde7c1d4874e9131\")\n        /* \"Periphery/LendingPoolRouter.sol\":5128:5148  IXDC(WEXDC).withdraw */\n      0xffffffffffffffffffffffffffffffffffffffff\n      and\n      0x2e1a7d4d\n        /* \"Periphery/LendingPoolRouter.sol\":5149:5155  amount */\n      dup4\n        /* \"Periphery/LendingPoolRouter.sol\":5128:5156  IXDC(WEXDC).withdraw(amount) */\n      mload(0x40)\n      dup3\n      0xffffffff\n      and\n      0xe0\n      shl\n      dup2\n      mstore\n      0x04\n      add\n      tag_224\n      swap2\n      swap1\n      tag_35\n      jump\t// in\n    tag_224:\n      0x00\n      mload(0x40)\n      dup1\n      dup4\n      sub\n      dup2\n      0x00\n      dup8\n      dup1\n      extcodesize\n      iszero\n      dup1\n      iszero\n      tag_225\n      jumpi\n      0x00\n      dup1\n      revert\n    tag_225:\n      pop\n      gas\n      call\n      iszero\n      dup1\n      iszero\n      tag_227\n      jumpi\n      returndatasize\n      0x00\n      dup1\n      returndatacopy\n      revert(0x00, returndatasize)\n    tag_227:\n      pop\n      pop\n      pop\n      pop\n        /* \"Periphery/LendingPoolRouter.sol\":5167:5217  TransferHelper.safeTransferETH(msg.sender, amount) */\n      tag_228\n        /* \"Periphery/LendingPoolRouter.sol\":5198:5208  msg.sender */\n      caller\n        /* \"Periphery/LendingPoolRouter.sol\":5210:5216  amount */\n      dup4\n        /* \"Periphery/LendingPoolRouter.sol\":5167:5197  TransferHelper.safeTransferETH */\n      tag_146\n        /* \"Periphery/LendingPoolRouter.sol\":5167:5217  TransferHelper.safeTransferETH(msg.sender, amount) */\n      jump\t// in\n    tag_228:\n        /* \"Periphery/LendingPoolRouter.sol\":4832:5224  {... */\n      pop\n        /* \"Periphery/LendingPoolRouter.sol\":4790:5224  function borrowETH(uint256 amount) public {... */\n      pop\n      jump\t// out\n        /* \"Periphery/LendingPoolRouter.sol\":917:1022  function createPool(address token) public {... */\n    tag_74:\n        /* \"Periphery/LendingPoolRouter.sol\":989:996  factory */\n      immutable(\"0x062e0d05679deb61c3c16718a62bec0f8eaa9ea36bea43666f8316bed62917c4\")\n        /* \"Periphery/LendingPoolRouter.sol\":969:1008  ILendingPoolFactory(factory).createPool */\n      0xffffffffffffffffffffffffffffffffffffffff\n      and\n      0x9049f9d2\n        /* \"Periphery/LendingPoolRouter.sol\":1009:1014  token */\n      dup3\n        /* \"Periphery/LendingPoolRouter.sol\":969:1015  ILendingPoolFactory(factory).createPool(token) */\n      mload(0x40)\n      dup3\n      0xffffffff\n      and\n      0xe0\n      shl\n      dup2\n      mstore\n      0x04\n      add\n      tag_230\n      swap2\n      swap1\n      tag_28\n      jump\t// in\n    tag_230:\n      0x20\n      mload(0x40)\n      dup1\n      dup4\n      sub\n      dup2\n      0x00\n      dup8\n      gas\n      call\n      iszero\n      dup1\n      iszero\n      tag_232\n      jumpi\n      returndatasize\n      0x00\n      dup1\n      returndatacopy\n      revert(0x00, returndatasize)\n    tag_232:\n      pop\n      pop\n      pop\n      pop\n      mload(0x40)\n      returndatasize\n      not(0x1f)\n      0x1f\n      dup3\n      add\n      and\n      dup3\n      add\n      dup1\n      0x40\n      mstore\n      pop\n      dup2\n      add\n      swap1\n      tag_233\n      swap2\n      swap1\n      tag_106\n      jump\t// in\n    tag_233:\n      pop\n        /* \"Periphery/LendingPoolRouter.sol\":917:1022  function createPool(address token) public {... */\n      pop\n      jump\t// out\n        /* \"Periphery/LendingPoolRouter.sol\":5961:6254  function getLendAmount(address token, address user)... */\n    tag_78:\n        /* \"Periphery/LendingPoolRouter.sol\":6058:6072  uint256 amount */\n      0x00\n        /* \"Periphery/LendingPoolRouter.sol\":6088:6100  address pool */\n      dup1\n        /* \"Periphery/LendingPoolRouter.sol\":6103:6124  getPoolAddress(token) */\n      tag_235\n        /* \"Periphery/LendingPoolRouter.sol\":6118:6123  token */\n      dup5\n        /* \"Periphery/LendingPoolRouter.sol\":6103:6117  getPoolAddress */\n      tag_26\n        /* \"Periphery/LendingPoolRouter.sol\":6103:6124  getPoolAddress(token) */\n      jump\t// in\n    tag_235:\n        /* \"Periphery/LendingPoolRouter.sol\":6088:6124  address pool = getPoolAddress(token) */\n      swap1\n      pop\n        /* \"Periphery/LendingPoolRouter.sol\":6158:6159  0 */\n      0x00\n        /* \"Periphery/LendingPoolRouter.sol\":6142:6160  pool != address(0) */\n      0xffffffffffffffffffffffffffffffffffffffff\n      and\n        /* \"Periphery/LendingPoolRouter.sol\":6142:6146  pool */\n      dup2\n        /* \"Periphery/LendingPoolRouter.sol\":6142:6160  pool != address(0) */\n      0xffffffffffffffffffffffffffffffffffffffff\n      and\n      sub\n        /* \"Periphery/LendingPoolRouter.sol\":6134:6185  require(pool != address(0), \"Pool Does not exists\") */\n      tag_236\n      jumpi\n      mload(0x40)\n      0x08c379a000000000000000000000000000000000000000000000000000000000\n      dup2\n      mstore\n      0x04\n      add\n      tag_237\n      swap1\n      tag_119\n      jump\t// in\n    tag_237:\n      mload(0x40)\n      dup1\n      swap2\n      sub\n      swap1\n      revert\n    tag_236:\n        /* \"Periphery/LendingPoolRouter.sol\":6218:6222  pool */\n      dup1\n        /* \"Periphery/LendingPoolRouter.sol\":6205:6234  ILendingPool(pool).lendAmount */\n      0xffffffffffffffffffffffffffffffffffffffff\n      and\n      0x1c78da26\n        /* \"Periphery/LendingPoolRouter.sol\":6235:6239  user */\n      dup5\n        /* \"Periphery/LendingPoolRouter.sol\":6205:6240  ILendingPool(pool).lendAmount(user) */\n      mload(0x40)\n      dup3\n      0xffffffff\n      and\n      0xe0\n      shl\n      dup2\n      mstore\n      0x04\n      add\n      tag_238\n      swap2\n      swap1\n      tag_28\n      jump\t// in\n    tag_238:\n      0x40\n      dup1\n      mload\n      dup1\n      dup4\n      sub\n      dup2\n      dup7\n      gas\n      staticcall\n      iszero\n      dup1\n      iszero\n      tag_240\n      jumpi\n      returndatasize\n      0x00\n      dup1\n      returndatacopy\n      revert(0x00, returndatasize)\n    tag_240:\n      pop\n      pop\n      pop\n      pop\n      mload(0x40)\n      returndatasize\n      not(0x1f)\n      0x1f\n      dup3\n      add\n      and\n      dup3\n      add\n      dup1\n      0x40\n      mstore\n      pop\n      dup2\n      add\n      swap1\n      tag_241\n      swap2\n      swap1\n      tag_176\n      jump\t// in\n    tag_241:\n        /* \"Periphery/LendingPoolRouter.sol\":6205:6247  ILendingPool(pool).lendAmount(user).amount */\n      0x00\n      add\n      mload\n        /* \"Periphery/LendingPoolRouter.sol\":6196:6247  amount = ILendingPool(pool).lendAmount(user).amount */\n      swap2\n      pop\n        /* \"Periphery/LendingPoolRouter.sol\":6078:6254  {... */\n      pop\n        /* \"Periphery/LendingPoolRouter.sol\":5961:6254  function getLendAmount(address token, address user)... */\n      swap3\n      swap2\n      pop\n      pop\n      jump\t// out\n        /* \"Periphery/LendingPoolRouter.sol\":2386:2749  function withdrawToken(address token, uint256 amount) public {... */\n    tag_83:\n        /* \"Periphery/LendingPoolRouter.sol\":2457:2469  address pool */\n      0x00\n        /* \"Periphery/LendingPoolRouter.sol\":2472:2493  getPoolAddress(token) */\n      tag_243\n        /* \"Periphery/LendingPoolRouter.sol\":2487:2492  token */\n      dup4\n        /* \"Periphery/LendingPoolRouter.sol\":2472:2486  getPoolAddress */\n      tag_26\n        /* \"Periphery/LendingPoolRouter.sol\":2472:2493  getPoolAddress(token) */\n      jump\t// in\n    tag_243:\n        /* \"Periphery/LendingPoolRouter.sol\":2457:2493  address pool = getPoolAddress(token) */\n      swap1\n      pop\n        /* \"Periphery/LendingPoolRouter.sol\":2527:2528  0 */\n      0x00\n        /* \"Periphery/LendingPoolRouter.sol\":2511:2529  pool != address(0) */\n      0xffffffffffffffffffffffffffffffffffffffff\n      and\n        /* \"Periphery/LendingPoolRouter.sol\":2511:2515  pool */\n      dup2\n        /* \"Periphery/LendingPoolRouter.sol\":2511:2529  pool != address(0) */\n      0xffffffffffffffffffffffffffffffffffffffff\n      and\n      sub\n        /* \"Periphery/LendingPoolRouter.sol\":2503:2554  require(pool != address(0), \"Pool Does not exists\") */\n      tag_244\n      jumpi\n      mload(0x40)\n      0x08c379a000000000000000000000000000000000000000000000000000000000\n      dup2\n      mstore\n      0x04\n      add\n      tag_245\n      swap1\n      tag_119\n      jump\t// in\n    tag_245:\n      mload(0x40)\n      dup1\n      swap2\n      sub\n      swap1\n      revert\n    tag_244:\n        /* \"Periphery/LendingPoolRouter.sol\":2637:2638  0 */\n      0x00\n        /* \"Periphery/LendingPoolRouter.sol\":2599:2603  pool */\n      dup2\n        /* \"Periphery/LendingPoolRouter.sol\":2586:2615  ILendingPool(pool).lendAmount */\n      0xffffffffffffffffffffffffffffffffffffffff\n      and\n      0x1c78da26\n        /* \"Periphery/LendingPoolRouter.sol\":2616:2626  msg.sender */\n      caller\n        /* \"Periphery/LendingPoolRouter.sol\":2586:2627  ILendingPool(pool).lendAmount(msg.sender) */\n      mload(0x40)\n      dup3\n      0xffffffff\n      and\n      0xe0\n      shl\n      dup2\n      mstore\n      0x04\n      add\n      tag_246\n      swap2\n      swap1\n      tag_28\n      jump\t// in\n    tag_246:\n      0x40\n      dup1\n      mload\n      dup1\n      dup4\n      sub\n      dup2\n      dup7\n      gas\n      staticcall\n      iszero\n      dup1\n      iszero\n      tag_248\n      jumpi\n      returndatasize\n      0x00\n      dup1\n      returndatacopy\n      revert(0x00, returndatasize)\n    tag_248:\n      pop\n      pop\n      pop\n      pop\n      mload(0x40)\n      returndatasize\n      not(0x1f)\n      0x1f\n      dup3\n      add\n      and\n      dup3\n      add\n      dup1\n      0x40\n      mstore\n      pop\n      dup2\n      add\n      swap1\n      tag_249\n      swap2\n      swap1\n      tag_176\n      jump\t// in\n    tag_249:\n        /* \"Periphery/LendingPoolRouter.sol\":2586:2634  ILendingPool(pool).lendAmount(msg.sender).amount */\n      0x00\n      add\n      mload\n        /* \"Periphery/LendingPoolRouter.sol\":2586:2638  ILendingPool(pool).lendAmount(msg.sender).amount > 0 */\n      gt\n        /* \"Periphery/LendingPoolRouter.sol\":2565:2685  require(... */\n      tag_250\n      jumpi\n      mload(0x40)\n      0x08c379a000000000000000000000000000000000000000000000000000000000\n      dup2\n      mstore\n      0x04\n      add\n      tag_251\n      swap1\n      tag_252\n      jump\t// in\n    tag_251:\n      mload(0x40)\n      dup1\n      swap2\n      sub\n      swap1\n      revert\n    tag_250:\n        /* \"Periphery/LendingPoolRouter.sol\":2708:2712  pool */\n      dup1\n        /* \"Periphery/LendingPoolRouter.sol\":2695:2722  ILendingPool(pool).withdraw */\n      0xffffffffffffffffffffffffffffffffffffffff\n      and\n      0xf3fef3a3\n        /* \"Periphery/LendingPoolRouter.sol\":2723:2733  msg.sender */\n      caller\n        /* \"Periphery/LendingPoolRouter.sol\":2735:2741  amount */\n      dup5\n        /* \"Periphery/LendingPoolRouter.sol\":2695:2742  ILendingPool(pool).withdraw(msg.sender, amount) */\n      mload(0x40)\n      dup4\n      0xffffffff\n      and\n      0xe0\n      shl\n      dup2\n      mstore\n      0x04\n      add\n      tag_253\n      swap3\n      swap2\n      swap1\n      tag_110\n      jump\t// in\n    tag_253:\n      0x00\n      mload(0x40)\n      dup1\n      dup4\n      sub\n      dup2\n      0x00\n      dup8\n      dup1\n      extcodesize\n      iszero\n      dup1\n      iszero\n      tag_254\n      jumpi\n      0x00\n      dup1\n      revert\n    tag_254:\n      pop\n      gas\n      call\n      iszero\n      dup1\n      iszero\n      tag_256\n      jumpi\n      returndatasize\n      0x00\n      dup1\n      returndatacopy\n      revert(0x00, returndatasize)\n    tag_256:\n      pop\n      pop\n      pop\n      pop\n        /* \"Periphery/LendingPoolRouter.sol\":2447:2749  {... */\n      pop\n        /* \"Periphery/LendingPoolRouter.sol\":2386:2749  function withdrawToken(address token, uint256 amount) public {... */\n      pop\n      pop\n      jump\t// out\n        /* \"Periphery/LendingPoolRouter.sol\":435:467  address public immutable factory */\n    tag_86:\n      immutable(\"0x062e0d05679deb61c3c16718a62bec0f8eaa9ea36bea43666f8316bed62917c4\")\n      dup2\n      jump\t// out\n        /* \"Periphery/LendingPoolRouter.sol\":4214:4760  function withdrawETH(uint256 amount) public {... */\n    tag_91:\n        /* \"Periphery/LendingPoolRouter.sol\":4268:4280  address pool */\n      0x00\n        /* \"Periphery/LendingPoolRouter.sol\":4283:4304  getPoolAddress(WEXDC) */\n      tag_258\n        /* \"Periphery/LendingPoolRouter.sol\":4298:4303  WEXDC */\n      immutable(\"0x22a2e3ce6024cf7fa9f23bb9996411ef645dedafa701962edde7c1d4874e9131\")\n        /* \"Periphery/LendingPoolRouter.sol\":4283:4297  getPoolAddress */\n      tag_26\n        /* \"Periphery/LendingPoolRouter.sol\":4283:4304  getPoolAddress(WEXDC) */\n      jump\t// in\n    tag_258:\n        /* \"Periphery/LendingPoolRouter.sol\":4268:4304  address pool = getPoolAddress(WEXDC) */\n      swap1\n      pop\n        /* \"Periphery/LendingPoolRouter.sol\":4338:4339  0 */\n      0x00\n        /* \"Periphery/LendingPoolRouter.sol\":4322:4340  pool != address(0) */\n      0xffffffffffffffffffffffffffffffffffffffff\n      and\n        /* \"Periphery/LendingPoolRouter.sol\":4322:4326  pool */\n      dup2\n        /* \"Periphery/LendingPoolRouter.sol\":4322:4340  pool != address(0) */\n      0xffffffffffffffffffffffffffffffffffffffff\n      and\n      sub\n        /* \"Periphery/LendingPoolRouter.sol\":4314:4365  require(pool != address(0), \"Pool Does not exists\") */\n      tag_259\n      jumpi\n      mload(0x40)\n      0x08c379a000000000000000000000000000000000000000000000000000000000\n      dup2\n      mstore\n      0x04\n      add\n      tag_260\n      swap1\n      tag_119\n      jump\t// in\n    tag_260:\n      mload(0x40)\n      dup1\n      swap2\n      sub\n      swap1\n      revert\n    tag_259:\n        /* \"Periphery/LendingPoolRouter.sol\":4376:4395  uint256 totalAmount */\n      0x00\n        /* \"Periphery/LendingPoolRouter.sol\":4398:4442  getWithdrawAmount(WEXDC, msg.sender, amount) */\n      tag_261\n        /* \"Periphery/LendingPoolRouter.sol\":4416:4421  WEXDC */\n      immutable(\"0x22a2e3ce6024cf7fa9f23bb9996411ef645dedafa701962edde7c1d4874e9131\")\n        /* \"Periphery/LendingPoolRouter.sol\":4423:4433  msg.sender */\n      caller\n        /* \"Periphery/LendingPoolRouter.sol\":4435:4441  amount */\n      dup6\n        /* \"Periphery/LendingPoolRouter.sol\":4398:4415  getWithdrawAmount */\n      tag_33\n        /* \"Periphery/LendingPoolRouter.sol\":4398:4442  getWithdrawAmount(WEXDC, msg.sender, amount) */\n      jump\t// in\n    tag_261:\n        /* \"Periphery/LendingPoolRouter.sol\":4376:4442  uint256 totalAmount = getWithdrawAmount(WEXDC, msg.sender, amount) */\n      swap1\n      pop\n        /* \"Periphery/LendingPoolRouter.sol\":4465:4469  pool */\n      dup2\n        /* \"Periphery/LendingPoolRouter.sol\":4452:4479  ILendingPool(pool).withdraw */\n      0xffffffffffffffffffffffffffffffffffffffff\n      and\n      0xf3fef3a3\n        /* \"Periphery/LendingPoolRouter.sol\":4480:4490  msg.sender */\n      caller\n        /* \"Periphery/LendingPoolRouter.sol\":4492:4498  amount */\n      dup6\n        /* \"Periphery/LendingPoolRouter.sol\":4452:4499  ILendingPool(pool).withdraw(msg.sender, amount) */\n      mload(0x40)\n      dup4\n      0xffffffff\n      and\n      0xe0\n      shl\n      dup2\n      mstore\n      0x04\n      add\n      tag_262\n      swap3\n      swap2\n      swap1\n      tag_110\n      jump\t// in\n    tag_262:\n      0x00\n      mload(0x40)\n      dup1\n      dup4\n      sub\n      dup2\n      0x00\n      dup8\n      dup1\n      extcodesize\n      iszero\n      dup1\n      iszero\n      tag_263\n      jumpi\n      0x00\n      dup1\n      revert\n    tag_263:\n      pop\n      gas\n      call\n      iszero\n      dup1\n      iszero\n      tag_265\n      jumpi\n      returndatasize\n      0x00\n      dup1\n      returndatacopy\n      revert(0x00, returndatasize)\n    tag_265:\n      pop\n      pop\n      pop\n      pop\n        /* \"Periphery/LendingPoolRouter.sol\":4589:4594  WEXDC */\n      immutable(\"0x22a2e3ce6024cf7fa9f23bb9996411ef645dedafa701962edde7c1d4874e9131\")\n        /* \"Periphery/LendingPoolRouter.sol\":4584:4608  IXDC(WEXDC).transferFrom */\n      0xffffffffffffffffffffffffffffffffffffffff\n      and\n      0x23b872dd\n        /* \"Periphery/LendingPoolRouter.sol\":4609:4619  msg.sender */\n      caller\n        /* \"Periphery/LendingPoolRouter.sol\":4629:4633  this */\n      address\n        /* \"Periphery/LendingPoolRouter.sol\":4636:4647  totalAmount */\n      dup5\n        /* \"Periphery/LendingPoolRouter.sol\":4584:4648  IXDC(WEXDC).transferFrom(msg.sender, address(this), totalAmount) */\n      mload(0x40)\n      dup5\n      0xffffffff\n      and\n      0xe0\n      shl\n      dup2\n      mstore\n      0x04\n      add\n      tag_266\n      swap4\n      swap3\n      swap2\n      swap1\n      tag_220\n      jump\t// in\n    tag_266:\n      0x20\n      mload(0x40)\n      dup1\n      dup4\n      sub\n      dup2\n      0x00\n      dup8\n      gas\n      call\n      iszero\n      dup1\n      iszero\n      tag_268\n      jumpi\n      returndatasize\n      0x00\n      dup1\n      returndatacopy\n      revert(0x00, returndatasize)\n    tag_268:\n      pop\n      pop\n      pop\n      pop\n      mload(0x40)\n      returndatasize\n      not(0x1f)\n      0x1f\n      dup3\n      add\n      and\n      dup3\n      add\n      dup1\n      0x40\n      mstore\n      pop\n      dup2\n      add\n      swap1\n      tag_269\n      swap2\n      swap1\n      tag_218\n      jump\t// in\n    tag_269:\n      pop\n        /* \"Periphery/LendingPoolRouter.sol\":4664:4669  WEXDC */\n      immutable(\"0x22a2e3ce6024cf7fa9f23bb9996411ef645dedafa701962edde7c1d4874e9131\")\n        /* \"Periphery/LendingPoolRouter.sol\":4659:4679  IXDC(WEXDC).withdraw */\n      0xffffffffffffffffffffffffffffffffffffffff\n      and\n      0x2e1a7d4d\n        /* \"Periphery/LendingPoolRouter.sol\":4680:4691  totalAmount */\n      dup3\n        /* \"Periphery/LendingPoolRouter.sol\":4659:4692  IXDC(WEXDC).withdraw(totalAmount) */\n      mload(0x40)\n      dup3\n      0xffffffff\n      and\n      0xe0\n      shl\n      dup2\n      mstore\n      0x04\n      add\n      tag_270\n      swap2\n      swap1\n      tag_35\n      jump\t// in\n    tag_270:\n      0x00\n      mload(0x40)\n      dup1\n      dup4\n      sub\n      dup2\n      0x00\n      dup8\n      dup1\n      extcodesize\n      iszero\n      dup1\n      iszero\n      tag_271\n      jumpi\n      0x00\n      dup1\n      revert\n    tag_271:\n      pop\n      gas\n      call\n      iszero\n      dup1\n      iszero\n      tag_273\n      jumpi\n      returndatasize\n      0x00\n      dup1\n      returndatacopy\n      revert(0x00, returndatasize)\n    tag_273:\n      pop\n      pop\n      pop\n      pop\n        /* \"Periphery/LendingPoolRouter.sol\":4703:4753  TransferHelper.safeTransferETH(msg.sender, amount) */\n      tag_274\n        /* \"Periphery/LendingPoolRouter.sol\":4734:4744  msg.sender */\n      caller\n        /* \"Periphery/LendingPoolRouter.sol\":4746:4752  amount */\n      dup5\n        /* \"Periphery/LendingPoolRouter.sol\":4703:4733  TransferHelper.safeTransferETH */\n      tag_146\n        /* \"Periphery/LendingPoolRouter.sol\":4703:4753  TransferHelper.safeTransferETH(msg.sender, amount) */\n      jump\t// in\n    tag_274:\n        /* \"Periphery/LendingPoolRouter.sol\":4258:4760  {... */\n      pop\n      pop\n        /* \"Periphery/LendingPoolRouter.sol\":4214:4760  function withdrawETH(uint256 amount) public {... */\n      pop\n      jump\t// out\n        /* \"Periphery/LendingPoolRouter.sol\":776:911  function getBalance(address token) public view returns (uint256 balance) {... */\n    tag_95:\n        /* \"Periphery/LendingPoolRouter.sol\":832:847  uint256 balance */\n      0x00\n        /* \"Periphery/LendingPoolRouter.sol\":876:881  token */\n      dup2\n        /* \"Periphery/LendingPoolRouter.sol\":869:892  IERC20(token).balanceOf */\n      0xffffffffffffffffffffffffffffffffffffffff\n      and\n      0x70a08231\n        /* \"Periphery/LendingPoolRouter.sol\":893:903  msg.sender */\n      caller\n        /* \"Periphery/LendingPoolRouter.sol\":869:904  IERC20(token).balanceOf(msg.sender) */\n      mload(0x40)\n      dup3\n      0xffffffff\n      and\n      0xe0\n      shl\n      dup2\n      mstore\n      0x04\n      add\n      tag_276\n      swap2\n      swap1\n      tag_28\n      jump\t// in\n    tag_276:\n      0x20\n      mload(0x40)\n      dup1\n      dup4\n      sub\n      dup2\n      dup7\n      gas\n      staticcall\n      iszero\n      dup1\n      iszero\n      tag_278\n      jumpi\n      returndatasize\n      0x00\n      dup1\n      returndatacopy\n      revert(0x00, returndatasize)\n    tag_278:\n      pop\n      pop\n      pop\n      pop\n      mload(0x40)\n      returndatasize\n      not(0x1f)\n      0x1f\n      dup3\n      add\n      and\n      dup3\n      add\n      dup1\n      0x40\n      mstore\n      pop\n      dup2\n      add\n      swap1\n      tag_279\n      swap2\n      swap1\n      tag_114\n      jump\t// in\n    tag_279:\n        /* \"Periphery/LendingPoolRouter.sol\":859:904  balance = IERC20(token).balanceOf(msg.sender) */\n      swap1\n      pop\n        /* \"Periphery/LendingPoolRouter.sol\":776:911  function getBalance(address token) public view returns (uint256 balance) {... */\n      swap2\n      swap1\n      pop\n      jump\t// out\n        /* \"Periphery/LendingPoolRouter.sol\":473:503  address public immutable WEXDC */\n    tag_99:\n      immutable(\"0x22a2e3ce6024cf7fa9f23bb9996411ef645dedafa701962edde7c1d4874e9131\")\n      dup2\n      jump\t// out\n        /* \"Periphery/libraries/TransferHelper.sol\":660:1120  function safeTransfer(... */\n    tag_137:\n        /* \"Periphery/libraries/TransferHelper.sol\":840:852  bool success */\n      0x00\n        /* \"Periphery/libraries/TransferHelper.sol\":854:871  bytes memory data */\n      dup1\n        /* \"Periphery/libraries/TransferHelper.sol\":875:880  token */\n      dup5\n        /* \"Periphery/libraries/TransferHelper.sol\":875:885  token.call */\n      0xffffffffffffffffffffffffffffffffffffffff\n      and\n        /* \"Periphery/libraries/TransferHelper.sol\":922:932  0xa9059cbb */\n      0xa9059cbb\n        /* \"Periphery/libraries/TransferHelper.sol\":934:936  to */\n      dup6\n        /* \"Periphery/libraries/TransferHelper.sol\":938:943  value */\n      dup6\n        /* \"Periphery/libraries/TransferHelper.sol\":899:944  abi.encodeWithSelector(0xa9059cbb, to, value) */\n      add(0x24, mload(0x40))\n      tag_281\n      swap3\n      swap2\n      swap1\n      tag_110\n      jump\t// in\n    tag_281:\n      mload(0x40)\n      0x20\n      dup2\n      dup4\n      sub\n      sub\n      dup2\n      mstore\n      swap1\n      0x40\n      mstore\n      swap1\n      0xe0\n      shl\n      0x20\n      dup3\n      add\n      dup1\n      mload\n      0xffffffffffffffffffffffffffffffffffffffffffffffffffffffff\n      dup4\n      dup2\n      dup4\n      and\n      or\n      dup4\n      mstore\n      pop\n      pop\n      pop\n      pop\n        /* \"Periphery/libraries/TransferHelper.sol\":875:954  token.call(... */\n      mload(0x40)\n      tag_282\n      swap2\n      swap1\n      tag_283\n      jump\t// in\n    tag_282:\n      0x00\n      mload(0x40)\n      dup1\n      dup4\n      sub\n      dup2\n      0x00\n      dup7\n      gas\n      call\n      swap2\n      pop\n      pop\n      returndatasize\n      dup1\n      0x00\n      dup2\n      eq\n      tag_286\n      jumpi\n      mload(0x40)\n      swap2\n      pop\n      and(add(returndatasize, 0x3f), not(0x1f))\n      dup3\n      add\n      0x40\n      mstore\n      returndatasize\n      dup3\n      mstore\n      returndatasize\n      0x00\n      0x20\n      dup5\n      add\n      returndatacopy\n      jump(tag_285)\n    tag_286:\n      0x60\n      swap2\n      pop\n    tag_285:\n      pop\n        /* \"Periphery/libraries/TransferHelper.sol\":839:954  (bool success, bytes memory data) = token.call(... */\n      swap2\n      pop\n      swap2\n      pop\n        /* \"Periphery/libraries/TransferHelper.sol\":985:992  success */\n      dup2\n        /* \"Periphery/libraries/TransferHelper.sol\":985:1042  success && (data.length == 0 || abi.decode(data, (bool))) */\n      dup1\n      iszero\n      tag_287\n      jumpi\n      pop\n        /* \"Periphery/libraries/TransferHelper.sol\":1012:1013  0 */\n      0x00\n        /* \"Periphery/libraries/TransferHelper.sol\":997:1001  data */\n      dup2\n        /* \"Periphery/libraries/TransferHelper.sol\":997:1008  data.length */\n      mload\n        /* \"Periphery/libraries/TransferHelper.sol\":997:1013  data.length == 0 */\n      eq\n        /* \"Periphery/libraries/TransferHelper.sol\":997:1041  data.length == 0 || abi.decode(data, (bool)) */\n      dup1\n      tag_288\n      jumpi\n      pop\n        /* \"Periphery/libraries/TransferHelper.sol\":1028:1032  data */\n      dup1\n        /* \"Periphery/libraries/TransferHelper.sol\":1017:1041  abi.decode(data, (bool)) */\n      dup1\n      0x20\n      add\n      swap1\n      mload\n      dup2\n      add\n      swap1\n      tag_289\n      swap2\n      swap1\n      tag_218\n      jump\t// in\n    tag_289:\n        /* \"Periphery/libraries/TransferHelper.sol\":997:1041  data.length == 0 || abi.decode(data, (bool)) */\n    tag_288:\n        /* \"Periphery/libraries/TransferHelper.sol\":985:1042  success && (data.length == 0 || abi.decode(data, (bool))) */\n    tag_287:\n        /* \"Periphery/libraries/TransferHelper.sol\":964:1113  require(... */\n      tag_290\n      jumpi\n      mload(0x40)\n      0x08c379a000000000000000000000000000000000000000000000000000000000\n      dup2\n      mstore\n      0x04\n      add\n      tag_291\n      swap1\n      tag_292\n      jump\t// in\n    tag_291:\n      mload(0x40)\n      dup1\n      swap2\n      sub\n      swap1\n      revert\n    tag_290:\n        /* \"Periphery/libraries/TransferHelper.sol\":763:1120  {... */\n      pop\n      pop\n        /* \"Periphery/libraries/TransferHelper.sol\":660:1120  function safeTransfer(... */\n      pop\n      pop\n      pop\n      jump\t// out\n        /* \"Periphery/libraries/TransferHelper.sol\":1640:1888  function safeTransferETH(address to, uint256 value) internal {... */\n    tag_146:\n        /* \"Periphery/libraries/TransferHelper.sol\":1712:1724  bool success */\n      0x00\n        /* \"Periphery/libraries/TransferHelper.sol\":1730:1732  to */\n      dup3\n        /* \"Periphery/libraries/TransferHelper.sol\":1730:1737  to.call */\n      0xffffffffffffffffffffffffffffffffffffffff\n      and\n        /* \"Periphery/libraries/TransferHelper.sol\":1745:1750  value */\n      dup3\n        /* \"Periphery/libraries/TransferHelper.sol\":1762:1763  0 */\n      0x00\n        /* \"Periphery/libraries/TransferHelper.sol\":1752:1764  new bytes(0) */\n      0xffffffffffffffff\n      dup2\n      gt\n      iszero\n      tag_294\n      jumpi\n      tag_295\n      tag_296\n      jump\t// in\n    tag_295:\n    tag_294:\n      mload(0x40)\n      swap1\n      dup1\n      dup3\n      mstore\n      dup1\n      0x1f\n      add\n      not(0x1f)\n      and\n      0x20\n      add\n      dup3\n      add\n      0x40\n      mstore\n      dup1\n      iszero\n      tag_297\n      jumpi\n      dup2\n      0x20\n      add\n      0x01\n      dup3\n      mul\n      dup1\n      calldatasize\n      dup4\n      calldatacopy\n      dup1\n      dup3\n      add\n      swap2\n      pop\n      pop\n      swap1\n      pop\n    tag_297:\n      pop\n        /* \"Periphery/libraries/TransferHelper.sol\":1730:1765  to.call{value: value}(new bytes(0)) */\n      mload(0x40)\n      tag_298\n      swap2\n      swap1\n      tag_283\n      jump\t// in\n    tag_298:\n      0x00\n      mload(0x40)\n      dup1\n      dup4\n      sub\n      dup2\n      dup6\n      dup8\n      gas\n      call\n      swap3\n      pop\n      pop\n      pop\n      returndatasize\n      dup1\n      0x00\n      dup2\n      eq\n      tag_301\n      jumpi\n      mload(0x40)\n      swap2\n      pop\n      and(add(returndatasize, 0x3f), not(0x1f))\n      dup3\n      add\n      0x40\n      mstore\n      returndatasize\n      dup3\n      mstore\n      returndatasize\n      0x00\n      0x20\n      dup5\n      add\n      returndatacopy\n      jump(tag_300)\n    tag_301:\n      0x60\n      swap2\n      pop\n    tag_300:\n      pop\n        /* \"Periphery/libraries/TransferHelper.sol\":1711:1765  (bool success, ) = to.call{value: value}(new bytes(0)) */\n      pop\n      swap1\n      pop\n        /* \"Periphery/libraries/TransferHelper.sol\":1796:1803  success */\n      dup1\n        /* \"Periphery/libraries/TransferHelper.sol\":1775:1881  require(... */\n      tag_302\n      jumpi\n      mload(0x40)\n      0x08c379a000000000000000000000000000000000000000000000000000000000\n      dup2\n      mstore\n      0x04\n      add\n      tag_303\n      swap1\n      tag_304\n      jump\t// in\n    tag_303:\n      mload(0x40)\n      dup1\n      swap2\n      sub\n      swap1\n      revert\n    tag_302:\n        /* \"Periphery/libraries/TransferHelper.sol\":1701:1888  {... */\n      pop\n        /* \"Periphery/libraries/TransferHelper.sol\":1640:1888  function safeTransferETH(address to, uint256 value) internal {... */\n      pop\n      pop\n      jump\t// out\n        /* \"#utility.yul\":7:82   */\n    tag_305:\n        /* \"#utility.yul\":40:46   */\n      0x00\n        /* \"#utility.yul\":73:75   */\n      0x40\n        /* \"#utility.yul\":67:76   */\n      mload\n        /* \"#utility.yul\":57:76   */\n      swap1\n      pop\n        /* \"#utility.yul\":7:82   */\n      swap1\n      jump\t// out\n        /* \"#utility.yul\":88:205   */\n    tag_306:\n        /* \"#utility.yul\":197:198   */\n      0x00\n        /* \"#utility.yul\":194:195   */\n      dup1\n        /* \"#utility.yul\":187:199   */\n      revert\n        /* \"#utility.yul\":334:460   */\n    tag_308:\n        /* \"#utility.yul\":371:378   */\n      0x00\n        /* \"#utility.yul\":411:453   */\n      0xffffffffffffffffffffffffffffffffffffffff\n        /* \"#utility.yul\":404:409   */\n      dup3\n        /* \"#utility.yul\":400:454   */\n      and\n        /* \"#utility.yul\":389:454   */\n      swap1\n      pop\n        /* \"#utility.yul\":334:460   */\n      swap2\n      swap1\n      pop\n      jump\t// out\n        /* \"#utility.yul\":466:562   */\n    tag_309:\n        /* \"#utility.yul\":503:510   */\n      0x00\n        /* \"#utility.yul\":532:556   */\n      tag_352\n        /* \"#utility.yul\":550:555   */\n      dup3\n        /* \"#utility.yul\":532:556   */\n      tag_308\n      jump\t// in\n    tag_352:\n        /* \"#utility.yul\":521:556   */\n      swap1\n      pop\n        /* \"#utility.yul\":466:562   */\n      swap2\n      swap1\n      pop\n      jump\t// out\n        /* \"#utility.yul\":568:690   */\n    tag_310:\n        /* \"#utility.yul\":641:665   */\n      tag_354\n        /* \"#utility.yul\":659:664   */\n      dup2\n        /* \"#utility.yul\":641:665   */\n      tag_309\n      jump\t// in\n    tag_354:\n        /* \"#utility.yul\":634:639   */\n      dup2\n        /* \"#utility.yul\":631:666   */\n      eq\n        /* \"#utility.yul\":621:684   */\n      tag_355\n      jumpi\n        /* \"#utility.yul\":680:681   */\n      0x00\n        /* \"#utility.yul\":677:678   */\n      dup1\n        /* \"#utility.yul\":670:682   */\n      revert\n        /* \"#utility.yul\":621:684   */\n    tag_355:\n        /* \"#utility.yul\":568:690   */\n      pop\n      jump\t// out\n        /* \"#utility.yul\":696:835   */\n    tag_311:\n        /* \"#utility.yul\":742:747   */\n      0x00\n        /* \"#utility.yul\":780:786   */\n      dup2\n        /* \"#utility.yul\":767:787   */\n      calldataload\n        /* \"#utility.yul\":758:787   */\n      swap1\n      pop\n        /* \"#utility.yul\":796:829   */\n      tag_357\n        /* \"#utility.yul\":823:828   */\n      dup2\n        /* \"#utility.yul\":796:829   */\n      tag_310\n      jump\t// in\n    tag_357:\n        /* \"#utility.yul\":696:835   */\n      swap3\n      swap2\n      pop\n      pop\n      jump\t// out\n        /* \"#utility.yul\":841:1170   */\n    tag_25:\n        /* \"#utility.yul\":900:906   */\n      0x00\n        /* \"#utility.yul\":949:951   */\n      0x20\n        /* \"#utility.yul\":937:946   */\n      dup3\n        /* \"#utility.yul\":928:935   */\n      dup5\n        /* \"#utility.yul\":924:947   */\n      sub\n        /* \"#utility.yul\":920:952   */\n      slt\n        /* \"#utility.yul\":917:1036   */\n      iszero\n      tag_359\n      jumpi\n        /* \"#utility.yul\":955:1034   */\n      tag_360\n      tag_306\n      jump\t// in\n    tag_360:\n        /* \"#utility.yul\":917:1036   */\n    tag_359:\n        /* \"#utility.yul\":1075:1076   */\n      0x00\n        /* \"#utility.yul\":1100:1153   */\n      tag_361\n        /* \"#utility.yul\":1145:1152   */\n      dup5\n        /* \"#utility.yul\":1136:1142   */\n      dup3\n        /* \"#utility.yul\":1125:1134   */\n      dup6\n        /* \"#utility.yul\":1121:1143   */\n      add\n        /* \"#utility.yul\":1100:1153   */\n      tag_311\n      jump\t// in\n    tag_361:\n        /* \"#utility.yul\":1090:1153   */\n      swap2\n      pop\n        /* \"#utility.yul\":1046:1163   */\n      pop\n        /* \"#utility.yul\":841:1170   */\n      swap3\n      swap2\n      pop\n      pop\n      jump\t// out\n        /* \"#utility.yul\":1176:1294   */\n    tag_312:\n        /* \"#utility.yul\":1263:1287   */\n      tag_363\n        /* \"#utility.yul\":1281:1286   */\n      dup2\n        /* \"#utility.yul\":1263:1287   */\n      tag_309\n      jump\t// in\n    tag_363:\n        /* \"#utility.yul\":1258:1261   */\n      dup3\n        /* \"#utility.yul\":1251:1288   */\n      mstore\n        /* \"#utility.yul\":1176:1294   */\n      pop\n      pop\n      jump\t// out\n        /* \"#utility.yul\":1300:1522   */\n    tag_28:\n        /* \"#utility.yul\":1393:1397   */\n      0x00\n        /* \"#utility.yul\":1431:1433   */\n      0x20\n        /* \"#utility.yul\":1420:1429   */\n      dup3\n        /* \"#utility.yul\":1416:1434   */\n      add\n        /* \"#utility.yul\":1408:1434   */\n      swap1\n      pop\n        /* \"#utility.yul\":1444:1515   */\n      tag_365\n        /* \"#utility.yul\":1512:1513   */\n      0x00\n        /* \"#utility.yul\":1501:1510   */\n      dup4\n        /* \"#utility.yul\":1497:1514   */\n      add\n        /* \"#utility.yul\":1488:1494   */\n      dup5\n        /* \"#utility.yul\":1444:1515   */\n      tag_312\n      jump\t// in\n    tag_365:\n        /* \"#utility.yul\":1300:1522   */\n      swap3\n      swap2\n      pop\n      pop\n      jump\t// out\n        /* \"#utility.yul\":1528:1605   */\n    tag_313:\n        /* \"#utility.yul\":1565:1572   */\n      0x00\n        /* \"#utility.yul\":1594:1599   */\n      dup2\n        /* \"#utility.yul\":1583:1599   */\n      swap1\n      pop\n        /* \"#utility.yul\":1528:1605   */\n      swap2\n      swap1\n      pop\n      jump\t// out\n        /* \"#utility.yul\":1611:1733   */\n    tag_314:\n        /* \"#utility.yul\":1684:1708   */\n      tag_368\n        /* \"#utility.yul\":1702:1707   */\n      dup2\n        /* \"#utility.yul\":1684:1708   */\n      tag_313\n      jump\t// in\n    tag_368:\n        /* \"#utility.yul\":1677:1682   */\n      dup2\n        /* \"#utility.yul\":1674:1709   */\n      eq\n        /* \"#utility.yul\":1664:1727   */\n      tag_369\n      jumpi\n        /* \"#utility.yul\":1723:1724   */\n      0x00\n        /* \"#utility.yul\":1720:1721   */\n      dup1\n        /* \"#utility.yul\":1713:1725   */\n      revert\n        /* \"#utility.yul\":1664:1727   */\n    tag_369:\n        /* \"#utility.yul\":1611:1733   */\n      pop\n      jump\t// out\n        /* \"#utility.yul\":1739:1878   */\n    tag_315:\n        /* \"#utility.yul\":1785:1790   */\n      0x00\n        /* \"#utility.yul\":1823:1829   */\n      dup2\n        /* \"#utility.yul\":1810:1830   */\n      calldataload\n        /* \"#utility.yul\":1801:1830   */\n      swap1\n      pop\n        /* \"#utility.yul\":1839:1872   */\n      tag_371\n        /* \"#utility.yul\":1866:1871   */\n      dup2\n        /* \"#utility.yul\":1839:1872   */\n      tag_314\n      jump\t// in\n    tag_371:\n        /* \"#utility.yul\":1739:1878   */\n      swap3\n      swap2\n      pop\n      pop\n      jump\t// out\n        /* \"#utility.yul\":1884:2503   */\n    tag_32:\n        /* \"#utility.yul\":1961:1967   */\n      0x00\n        /* \"#utility.yul\":1969:1975   */\n      dup1\n        /* \"#utility.yul\":1977:1983   */\n      0x00\n        /* \"#utility.yul\":2026:2028   */\n      0x60\n        /* \"#utility.yul\":2014:2023   */\n      dup5\n        /* \"#utility.yul\":2005:2012   */\n      dup7\n        /* \"#utility.yul\":2001:2024   */\n      sub\n        /* \"#utility.yul\":1997:2029   */\n      slt\n        /* \"#utility.yul\":1994:2113   */\n      iszero\n      tag_373\n      jumpi\n        /* \"#utility.yul\":2032:2111   */\n      tag_374\n      tag_306\n      jump\t// in\n    tag_374:\n        /* \"#utility.yul\":1994:2113   */\n    tag_373:\n        /* \"#utility.yul\":2152:2153   */\n      0x00\n        /* \"#utility.yul\":2177:2230   */\n      tag_375\n        /* \"#utility.yul\":2222:2229   */\n      dup7\n        /* \"#utility.yul\":2213:2219   */\n      dup3\n        /* \"#utility.yul\":2202:2211   */\n      dup8\n        /* \"#utility.yul\":2198:2220   */\n      add\n        /* \"#utility.yul\":2177:2230   */\n      tag_311\n      jump\t// in\n    tag_375:\n        /* \"#utility.yul\":2167:2230   */\n      swap4\n      pop\n        /* \"#utility.yul\":2123:2240   */\n      pop\n        /* \"#utility.yul\":2279:2281   */\n      0x20\n        /* \"#utility.yul\":2305:2358   */\n      tag_376\n        /* \"#utility.yul\":2350:2357   */\n      dup7\n        /* \"#utility.yul\":2341:2347   */\n      dup3\n        /* \"#utility.yul\":2330:2339   */\n      dup8\n        /* \"#utility.yul\":2326:2348   */\n      add\n        /* \"#utility.yul\":2305:2358   */\n      tag_311\n      jump\t// in\n    tag_376:\n        /* \"#utility.yul\":2295:2358   */\n      swap3\n      pop\n        /* \"#utility.yul\":2250:2368   */\n      pop\n        /* \"#utility.yul\":2407:2409   */\n      0x40\n        /* \"#utility.yul\":2433:2486   */\n      tag_377\n        /* \"#utility.yul\":2478:2485   */\n      dup7\n        /* \"#utility.yul\":2469:2475   */\n      dup3\n        /* \"#utility.yul\":2458:2467   */\n      dup8\n        /* \"#utility.yul\":2454:2476   */\n      add\n        /* \"#utility.yul\":2433:2486   */\n      tag_315\n      jump\t// in\n    tag_377:\n        /* \"#utility.yul\":2423:2486   */\n      swap2\n      pop\n        /* \"#utility.yul\":2378:2496   */\n      pop\n        /* \"#utility.yul\":1884:2503   */\n      swap3\n      pop\n      swap3\n      pop\n      swap3\n      jump\t// out\n        /* \"#utility.yul\":2509:2627   */\n    tag_316:\n        /* \"#utility.yul\":2596:2620   */\n      tag_379\n        /* \"#utility.yul\":2614:2619   */\n      dup2\n        /* \"#utility.yul\":2596:2620   */\n      tag_313\n      jump\t// in\n    tag_379:\n        /* \"#utility.yul\":2591:2594   */\n      dup3\n        /* \"#utility.yul\":2584:2621   */\n      mstore\n        /* \"#utility.yul\":2509:2627   */\n      pop\n      pop\n      jump\t// out\n        /* \"#utility.yul\":2633:2855   */\n    tag_35:\n        /* \"#utility.yul\":2726:2730   */\n      0x00\n        /* \"#utility.yul\":2764:2766   */\n      0x20\n        /* \"#utility.yul\":2753:2762   */\n      dup3\n        /* \"#utility.yul\":2749:2767   */\n      add\n        /* \"#utility.yul\":2741:2767   */\n      swap1\n      pop\n        /* \"#utility.yul\":2777:2848   */\n      tag_381\n        /* \"#utility.yul\":2845:2846   */\n      0x00\n        /* \"#utility.yul\":2834:2843   */\n      dup4\n        /* \"#utility.yul\":2830:2847   */\n      add\n        /* \"#utility.yul\":2821:2827   */\n      dup5\n        /* \"#utility.yul\":2777:2848   */\n      tag_316\n      jump\t// in\n    tag_381:\n        /* \"#utility.yul\":2633:2855   */\n      swap3\n      swap2\n      pop\n      pop\n      jump\t// out\n        /* \"#utility.yul\":2861:3335   */\n    tag_39:\n        /* \"#utility.yul\":2929:2935   */\n      0x00\n        /* \"#utility.yul\":2937:2943   */\n      dup1\n        /* \"#utility.yul\":2986:2988   */\n      0x40\n        /* \"#utility.yul\":2974:2983   */\n      dup4\n        /* \"#utility.yul\":2965:2972   */\n      dup6\n        /* \"#utility.yul\":2961:2984   */\n      sub\n        /* \"#utility.yul\":2957:2989   */\n      slt\n        /* \"#utility.yul\":2954:3073   */\n      iszero\n      tag_383\n      jumpi\n        /* \"#utility.yul\":2992:3071   */\n      tag_384\n      tag_306\n      jump\t// in\n    tag_384:\n        /* \"#utility.yul\":2954:3073   */\n    tag_383:\n        /* \"#utility.yul\":3112:3113   */\n      0x00\n        /* \"#utility.yul\":3137:3190   */\n      tag_385\n        /* \"#utility.yul\":3182:3189   */\n      dup6\n        /* \"#utility.yul\":3173:3179   */\n      dup3\n        /* \"#utility.yul\":3162:3171   */\n      dup7\n        /* \"#utility.yul\":3158:3180   */\n      add\n        /* \"#utility.yul\":3137:3190   */\n      tag_311\n      jump\t// in\n    tag_385:\n        /* \"#utility.yul\":3127:3190   */\n      swap3\n      pop\n        /* \"#utility.yul\":3083:3200   */\n      pop\n        /* \"#utility.yul\":3239:3241   */\n      0x20\n        /* \"#utility.yul\":3265:3318   */\n      tag_386\n        /* \"#utility.yul\":3310:3317   */\n      dup6\n        /* \"#utility.yul\":3301:3307   */\n      dup3\n        /* \"#utility.yul\":3290:3299   */\n      dup7\n        /* \"#utility.yul\":3286:3308   */\n      add\n        /* \"#utility.yul\":3265:3318   */\n      tag_315\n      jump\t// in\n    tag_386:\n        /* \"#utility.yul\":3255:3318   */\n      swap2\n      pop\n        /* \"#utility.yul\":3210:3328   */\n      pop\n        /* \"#utility.yul\":2861:3335   */\n      swap3\n      pop\n      swap3\n      swap1\n      pop\n      jump\t// out\n        /* \"#utility.yul\":3341:3670   */\n    tag_43:\n        /* \"#utility.yul\":3400:3406   */\n      0x00\n        /* \"#utility.yul\":3449:3451   */\n      0x20\n        /* \"#utility.yul\":3437:3446   */\n      dup3\n        /* \"#utility.yul\":3428:3435   */\n      dup5\n        /* \"#utility.yul\":3424:3447   */\n      sub\n        /* \"#utility.yul\":3420:3452   */\n      slt\n        /* \"#utility.yul\":3417:3536   */\n      iszero\n      tag_388\n      jumpi\n        /* \"#utility.yul\":3455:3534   */\n      tag_389\n      tag_306\n      jump\t// in\n    tag_389:\n        /* \"#utility.yul\":3417:3536   */\n    tag_388:\n        /* \"#utility.yul\":3575:3576   */\n      0x00\n        /* \"#utility.yul\":3600:3653   */\n      tag_390\n        /* \"#utility.yul\":3645:3652   */\n      dup5\n        /* \"#utility.yul\":3636:3642   */\n      dup3\n        /* \"#utility.yul\":3625:3634   */\n      dup6\n        /* \"#utility.yul\":3621:3643   */\n      add\n        /* \"#utility.yul\":3600:3653   */\n      tag_315\n      jump\t// in\n    tag_390:\n        /* \"#utility.yul\":3590:3653   */\n      swap2\n      pop\n        /* \"#utility.yul\":3546:3663   */\n      pop\n        /* \"#utility.yul\":3341:3670   */\n      swap3\n      swap2\n      pop\n      pop\n      jump\t// out\n        /* \"#utility.yul\":3676:4150   */\n    tag_57:\n        /* \"#utility.yul\":3744:3750   */\n      0x00\n        /* \"#utility.yul\":3752:3758   */\n      dup1\n        /* \"#utility.yul\":3801:3803   */\n      0x40\n        /* \"#utility.yul\":3789:3798   */\n      dup4\n        /* \"#utility.yul\":3780:3787   */\n      dup6\n        /* \"#utility.yul\":3776:3799   */\n      sub\n        /* \"#utility.yul\":3772:3804   */\n      slt\n        /* \"#utility.yul\":3769:3888   */\n      iszero\n      tag_392\n      jumpi\n        /* \"#utility.yul\":3807:3886   */\n      tag_393\n      tag_306\n      jump\t// in\n    tag_393:\n        /* \"#utility.yul\":3769:3888   */\n    tag_392:\n        /* \"#utility.yul\":3927:3928   */\n      0x00\n        /* \"#utility.yul\":3952:4005   */\n      tag_394\n        /* \"#utility.yul\":3997:4004   */\n      dup6\n        /* \"#utility.yul\":3988:3994   */\n      dup3\n        /* \"#utility.yul\":3977:3986   */\n      dup7\n        /* \"#utility.yul\":3973:3995   */\n      add\n        /* \"#utility.yul\":3952:4005   */\n      tag_311\n      jump\t// in\n    tag_394:\n        /* \"#utility.yul\":3942:4005   */\n      swap3\n      pop\n        /* \"#utility.yul\":3898:4015   */\n      pop\n        /* \"#utility.yul\":4054:4056   */\n      0x20\n        /* \"#utility.yul\":4080:4133   */\n      tag_395\n        /* \"#utility.yul\":4125:4132   */\n      dup6\n        /* \"#utility.yul\":4116:4122   */\n      dup3\n        /* \"#utility.yul\":4105:4114   */\n      dup7\n        /* \"#utility.yul\":4101:4123   */\n      add\n        /* \"#utility.yul\":4080:4133   */\n      tag_311\n      jump\t// in\n    tag_395:\n        /* \"#utility.yul\":4070:4133   */\n      swap2\n      pop\n        /* \"#utility.yul\":4025:4143   */\n      pop\n        /* \"#utility.yul\":3676:4150   */\n      swap3\n      pop\n      swap3\n      swap1\n      pop\n      jump\t// out\n        /* \"#utility.yul\":4156:4299   */\n    tag_317:\n        /* \"#utility.yul\":4213:4218   */\n      0x00\n        /* \"#utility.yul\":4244:4250   */\n      dup2\n        /* \"#utility.yul\":4238:4251   */\n      mload\n        /* \"#utility.yul\":4229:4251   */\n      swap1\n      pop\n        /* \"#utility.yul\":4260:4293   */\n      tag_397\n        /* \"#utility.yul\":4287:4292   */\n      dup2\n        /* \"#utility.yul\":4260:4293   */\n      tag_310\n      jump\t// in\n    tag_397:\n        /* \"#utility.yul\":4156:4299   */\n      swap3\n      swap2\n      pop\n      pop\n      jump\t// out\n        /* \"#utility.yul\":4305:4656   */\n    tag_106:\n        /* \"#utility.yul\":4375:4381   */\n      0x00\n        /* \"#utility.yul\":4424:4426   */\n      0x20\n        /* \"#utility.yul\":4412:4421   */\n      dup3\n        /* \"#utility.yul\":4403:4410   */\n      dup5\n        /* \"#utility.yul\":4399:4422   */\n      sub\n        /* \"#utility.yul\":4395:4427   */\n      slt\n        /* \"#utility.yul\":4392:4511   */\n      iszero\n      tag_399\n      jumpi\n        /* \"#utility.yul\":4430:4509   */\n      tag_400\n      tag_306\n      jump\t// in\n    tag_400:\n        /* \"#utility.yul\":4392:4511   */\n    tag_399:\n        /* \"#utility.yul\":4550:4551   */\n      0x00\n        /* \"#utility.yul\":4575:4639   */\n      tag_401\n        /* \"#utility.yul\":4631:4638   */\n      dup5\n        /* \"#utility.yul\":4622:4628   */\n      dup3\n        /* \"#utility.yul\":4611:4620   */\n      dup6\n        /* \"#utility.yul\":4607:4629   */\n      add\n        /* \"#utility.yul\":4575:4639   */\n      tag_317\n      jump\t// in\n    tag_401:\n        /* \"#utility.yul\":4565:4639   */\n      swap2\n      pop\n        /* \"#utility.yul\":4521:4649   */\n      pop\n        /* \"#utility.yul\":4305:4656   */\n      swap3\n      swap2\n      pop\n      pop\n      jump\t// out\n        /* \"#utility.yul\":4662:4994   */\n    tag_110:\n        /* \"#utility.yul\":4783:4787   */\n      0x00\n        /* \"#utility.yul\":4821:4823   */\n      0x40\n        /* \"#utility.yul\":4810:4819   */\n      dup3\n        /* \"#utility.yul\":4806:4824   */\n      add\n        /* \"#utility.yul\":4798:4824   */\n      swap1\n      pop\n        /* \"#utility.yul\":4834:4905   */\n      tag_403\n        /* \"#utility.yul\":4902:4903   */\n      0x00\n        /* \"#utility.yul\":4891:4900   */\n      dup4\n        /* \"#utility.yul\":4887:4904   */\n      add\n        /* \"#utility.yul\":4878:4884   */\n      dup6\n        /* \"#utility.yul\":4834:4905   */\n      tag_312\n      jump\t// in\n    tag_403:\n        /* \"#utility.yul\":4915:4987   */\n      tag_404\n        /* \"#utility.yul\":4983:4985   */\n      0x20\n        /* \"#utility.yul\":4972:4981   */\n      dup4\n        /* \"#utility.yul\":4968:4986   */\n      add\n        /* \"#utility.yul\":4959:4965   */\n      dup5\n        /* \"#utility.yul\":4915:4987   */\n      tag_316\n      jump\t// in\n    tag_404:\n        /* \"#utility.yul\":4662:4994   */\n      swap4\n      swap3\n      pop\n      pop\n      pop\n      jump\t// out\n        /* \"#utility.yul\":5000:5143   */\n    tag_318:\n        /* \"#utility.yul\":5057:5062   */\n      0x00\n        /* \"#utility.yul\":5088:5094   */\n      dup2\n        /* \"#utility.yul\":5082:5095   */\n      mload\n        /* \"#utility.yul\":5073:5095   */\n      swap1\n      pop\n        /* \"#utility.yul\":5104:5137   */\n      tag_406\n        /* \"#utility.yul\":5131:5136   */\n      dup2\n        /* \"#utility.yul\":5104:5137   */\n      tag_314\n      jump\t// in\n    tag_406:\n        /* \"#utility.yul\":5000:5143   */\n      swap3\n      swap2\n      pop\n      pop\n      jump\t// out\n        /* \"#utility.yul\":5149:5500   */\n    tag_114:\n        /* \"#utility.yul\":5219:5225   */\n      0x00\n        /* \"#utility.yul\":5268:5270   */\n      0x20\n        /* \"#utility.yul\":5256:5265   */\n      dup3\n        /* \"#utility.yul\":5247:5254   */\n      dup5\n        /* \"#utility.yul\":5243:5266   */\n      sub\n        /* \"#utility.yul\":5239:5271   */\n      slt\n        /* \"#utility.yul\":5236:5355   */\n      iszero\n      tag_408\n      jumpi\n        /* \"#utility.yul\":5274:5353   */\n      tag_409\n      tag_306\n      jump\t// in\n    tag_409:\n        /* \"#utility.yul\":5236:5355   */\n    tag_408:\n        /* \"#utility.yul\":5394:5395   */\n      0x00\n        /* \"#utility.yul\":5419:5483   */\n      tag_410\n        /* \"#utility.yul\":5475:5482   */\n      dup5\n        /* \"#utility.yul\":5466:5472   */\n      dup3\n        /* \"#utility.yul\":5455:5464   */\n      dup6\n        /* \"#utility.yul\":5451:5473   */\n      add\n        /* \"#utility.yul\":5419:5483   */\n      tag_318\n      jump\t// in\n    tag_410:\n        /* \"#utility.yul\":5409:5483   */\n      swap2\n      pop\n        /* \"#utility.yul\":5365:5493   */\n      pop\n        /* \"#utility.yul\":5149:5500   */\n      swap3\n      swap2\n      pop\n      pop\n      jump\t// out\n        /* \"#utility.yul\":5506:5675   */\n    tag_319:\n        /* \"#utility.yul\":5590:5601   */\n      0x00\n        /* \"#utility.yul\":5624:5630   */\n      dup3\n        /* \"#utility.yul\":5619:5622   */\n      dup3\n        /* \"#utility.yul\":5612:5631   */\n      mstore\n        /* \"#utility.yul\":5664:5668   */\n      0x20\n        /* \"#utility.yul\":5659:5662   */\n      dup3\n        /* \"#utility.yul\":5655:5669   */\n      add\n        /* \"#utility.yul\":5640:5669   */\n      swap1\n      pop\n        /* \"#utility.yul\":5506:5675   */\n      swap3\n      swap2\n      pop\n      pop\n      jump\t// out\n        /* \"#utility.yul\":5681:5851   */\n    tag_320:\n        /* \"#utility.yul\":5821:5843   */\n      0x506f6f6c20446f6573206e6f7420657869737473000000000000000000000000\n        /* \"#utility.yul\":5817:5818   */\n      0x00\n        /* \"#utility.yul\":5809:5815   */\n      dup3\n        /* \"#utility.yul\":5805:5819   */\n      add\n        /* \"#utility.yul\":5798:5844   */\n      mstore\n        /* \"#utility.yul\":5681:5851   */\n      pop\n      jump\t// out\n        /* \"#utility.yul\":5857:6223   */\n    tag_321:\n        /* \"#utility.yul\":5999:6002   */\n      0x00\n        /* \"#utility.yul\":6020:6087   */\n      tag_414\n        /* \"#utility.yul\":6084:6086   */\n      0x14\n        /* \"#utility.yul\":6079:6082   */\n      dup4\n        /* \"#utility.yul\":6020:6087   */\n      tag_319\n      jump\t// in\n    tag_414:\n        /* \"#utility.yul\":6013:6087   */\n      swap2\n      pop\n        /* \"#utility.yul\":6096:6189   */\n      tag_415\n        /* \"#utility.yul\":6185:6188   */\n      dup3\n        /* \"#utility.yul\":6096:6189   */\n      tag_320\n      jump\t// in\n    tag_415:\n        /* \"#utility.yul\":6214:6216   */\n      0x20\n        /* \"#utility.yul\":6209:6212   */\n      dup3\n        /* \"#utility.yul\":6205:6217   */\n      add\n        /* \"#utility.yul\":6198:6217   */\n      swap1\n      pop\n        /* \"#utility.yul\":5857:6223   */\n      swap2\n      swap1\n      pop\n      jump\t// out\n        /* \"#utility.yul\":6229:6648   */\n    tag_119:\n        /* \"#utility.yul\":6395:6399   */\n      0x00\n        /* \"#utility.yul\":6433:6435   */\n      0x20\n        /* \"#utility.yul\":6422:6431   */\n      dup3\n        /* \"#utility.yul\":6418:6436   */\n      add\n        /* \"#utility.yul\":6410:6436   */\n      swap1\n      pop\n        /* \"#utility.yul\":6482:6491   */\n      dup2\n        /* \"#utility.yul\":6476:6480   */\n      dup2\n        /* \"#utility.yul\":6472:6492   */\n      sub\n        /* \"#utility.yul\":6468:6469   */\n      0x00\n        /* \"#utility.yul\":6457:6466   */\n      dup4\n        /* \"#utility.yul\":6453:6470   */\n      add\n        /* \"#utility.yul\":6446:6493   */\n      mstore\n        /* \"#utility.yul\":6510:6641   */\n      tag_417\n        /* \"#utility.yul\":6636:6640   */\n      dup2\n        /* \"#utility.yul\":6510:6641   */\n      tag_321\n      jump\t// in\n    tag_417:\n        /* \"#utility.yul\":6502:6641   */\n      swap1\n      pop\n        /* \"#utility.yul\":6229:6648   */\n      swap2\n      swap1\n      pop\n      jump\t// out\n        /* \"#utility.yul\":6654:6825   */\n    tag_322:\n        /* \"#utility.yul\":6794:6817   */\n      0x496e636f727265637420616d6f756e742073656e740000000000000000000000\n        /* \"#utility.yul\":6790:6791   */\n      0x00\n        /* \"#utility.yul\":6782:6788   */\n      dup3\n        /* \"#utility.yul\":6778:6792   */\n      add\n        /* \"#utility.yul\":6771:6818   */\n      mstore\n        /* \"#utility.yul\":6654:6825   */\n      pop\n      jump\t// out\n        /* \"#utility.yul\":6831:7197   */\n    tag_323:\n        /* \"#utility.yul\":6973:6976   */\n      0x00\n        /* \"#utility.yul\":6994:7061   */\n      tag_420\n        /* \"#utility.yul\":7058:7060   */\n      0x15\n        /* \"#utility.yul\":7053:7056   */\n      dup4\n        /* \"#utility.yul\":6994:7061   */\n      tag_319\n      jump\t// in\n    tag_420:\n        /* \"#utility.yul\":6987:7061   */\n      swap2\n      pop\n        /* \"#utility.yul\":7070:7163   */\n      tag_421\n        /* \"#utility.yul\":7159:7162   */\n      dup3\n        /* \"#utility.yul\":7070:7163   */\n      tag_322\n      jump\t// in\n    tag_421:\n        /* \"#utility.yul\":7188:7190   */\n      0x20\n        /* \"#utility.yul\":7183:7186   */\n      dup3\n        /* \"#utility.yul\":7179:7191   */\n      add\n        /* \"#utility.yul\":7172:7191   */\n      swap1\n      pop\n        /* \"#utility.yul\":6831:7197   */\n      swap2\n      swap1\n      pop\n      jump\t// out\n        /* \"#utility.yul\":7203:7622   */\n    tag_132:\n        /* \"#utility.yul\":7369:7373   */\n      0x00\n        /* \"#utility.yul\":7407:7409   */\n      0x20\n        /* \"#utility.yul\":7396:7405   */\n      dup3\n        /* \"#utility.yul\":7392:7410   */\n      add\n        /* \"#utility.yul\":7384:7410   */\n      swap1\n      pop\n        /* \"#utility.yul\":7456:7465   */\n      dup2\n        /* \"#utility.yul\":7450:7454   */\n      dup2\n        /* \"#utility.yul\":7446:7466   */\n      sub\n        /* \"#utility.yul\":7442:7443   */\n      0x00\n        /* \"#utility.yul\":7431:7440   */\n      dup4\n        /* \"#utility.yul\":7427:7444   */\n      add\n        /* \"#utility.yul\":7420:7467   */\n      mstore\n        /* \"#utility.yul\":7484:7615   */\n      tag_423\n        /* \"#utility.yul\":7610:7614   */\n      dup2\n        /* \"#utility.yul\":7484:7615   */\n      tag_323\n      jump\t// in\n    tag_423:\n        /* \"#utility.yul\":7476:7615   */\n      swap1\n      pop\n        /* \"#utility.yul\":7203:7622   */\n      swap2\n      swap1\n      pop\n      jump\t// out\n        /* \"#utility.yul\":7628:7808   */\n    tag_324:\n        /* \"#utility.yul\":7676:7753   */\n      0x4e487b7100000000000000000000000000000000000000000000000000000000\n        /* \"#utility.yul\":7673:7674   */\n      0x00\n        /* \"#utility.yul\":7666:7754   */\n      mstore\n        /* \"#utility.yul\":7773:7777   */\n      0x11\n        /* \"#utility.yul\":7770:7771   */\n      0x04\n        /* \"#utility.yul\":7763:7778   */\n      mstore\n        /* \"#utility.yul\":7797:7801   */\n      0x24\n        /* \"#utility.yul\":7794:7795   */\n      0x00\n        /* \"#utility.yul\":7787:7802   */\n      revert\n        /* \"#utility.yul\":7814:8008   */\n    tag_145:\n        /* \"#utility.yul\":7854:7858   */\n      0x00\n        /* \"#utility.yul\":7874:7894   */\n      tag_426\n        /* \"#utility.yul\":7892:7893   */\n      dup3\n        /* \"#utility.yul\":7874:7894   */\n      tag_313\n      jump\t// in\n    tag_426:\n        /* \"#utility.yul\":7869:7894   */\n      swap2\n      pop\n        /* \"#utility.yul\":7908:7928   */\n      tag_427\n        /* \"#utility.yul\":7926:7927   */\n      dup4\n        /* \"#utility.yul\":7908:7928   */\n      tag_313\n      jump\t// in\n    tag_427:\n        /* \"#utility.yul\":7903:7928   */\n      swap3\n      pop\n        /* \"#utility.yul\":7952:7953   */\n      dup3\n        /* \"#utility.yul\":7949:7950   */\n      dup3\n        /* \"#utility.yul\":7945:7954   */\n      sub\n        /* \"#utility.yul\":7937:7954   */\n      swap1\n      pop\n        /* \"#utility.yul\":7976:7977   */\n      dup2\n        /* \"#utility.yul\":7970:7974   */\n      dup2\n        /* \"#utility.yul\":7967:7978   */\n      gt\n        /* \"#utility.yul\":7964:8001   */\n      iszero\n      tag_428\n      jumpi\n        /* \"#utility.yul\":7981:7999   */\n      tag_429\n      tag_324\n      jump\t// in\n    tag_429:\n        /* \"#utility.yul\":7964:8001   */\n    tag_428:\n        /* \"#utility.yul\":7814:8008   */\n      swap3\n      swap2\n      pop\n      pop\n      jump\t// out\n        /* \"#utility.yul\":8014:8346   */\n    tag_157:\n        /* \"#utility.yul\":8135:8139   */\n      0x00\n        /* \"#utility.yul\":8173:8175   */\n      0x40\n        /* \"#utility.yul\":8162:8171   */\n      dup3\n        /* \"#utility.yul\":8158:8176   */\n      add\n        /* \"#utility.yul\":8150:8176   */\n      swap1\n      pop\n        /* \"#utility.yul\":8186:8257   */\n      tag_431\n        /* \"#utility.yul\":8254:8255   */\n      0x00\n        /* \"#utility.yul\":8243:8252   */\n      dup4\n        /* \"#utility.yul\":8239:8256   */\n      add\n        /* \"#utility.yul\":8230:8236   */\n      dup6\n        /* \"#utility.yul\":8186:8257   */\n      tag_316\n      jump\t// in\n    tag_431:\n        /* \"#utility.yul\":8267:8339   */\n      tag_432\n        /* \"#utility.yul\":8335:8337   */\n      0x20\n        /* \"#utility.yul\":8324:8333   */\n      dup4\n        /* \"#utility.yul\":8320:8338   */\n      add\n        /* \"#utility.yul\":8311:8317   */\n      dup5\n        /* \"#utility.yul\":8267:8339   */\n      tag_312\n      jump\t// in\n    tag_432:\n        /* \"#utility.yul\":8014:8346   */\n      swap4\n      swap3\n      pop\n      pop\n      pop\n      jump\t// out\n        /* \"#utility.yul\":8352:8469   */\n    tag_325:\n        /* \"#utility.yul\":8461:8462   */\n      0x00\n        /* \"#utility.yul\":8458:8459   */\n      dup1\n        /* \"#utility.yul\":8451:8463   */\n      revert\n        /* \"#utility.yul\":8475:8577   */\n    tag_326:\n        /* \"#utility.yul\":8516:8522   */\n      0x00\n        /* \"#utility.yul\":8567:8569   */\n      0x1f\n        /* \"#utility.yul\":8563:8570   */\n      not\n        /* \"#utility.yul\":8558:8560   */\n      0x1f\n        /* \"#utility.yul\":8551:8556   */\n      dup4\n        /* \"#utility.yul\":8547:8561   */\n      add\n        /* \"#utility.yul\":8543:8571   */\n      and\n        /* \"#utility.yul\":8533:8571   */\n      swap1\n      pop\n        /* \"#utility.yul\":8475:8577   */\n      swap2\n      swap1\n      pop\n      jump\t// out\n        /* \"#utility.yul\":8583:8763   */\n    tag_296:\n        /* \"#utility.yul\":8631:8708   */\n      0x4e487b7100000000000000000000000000000000000000000000000000000000\n        /* \"#utility.yul\":8628:8629   */\n      0x00\n        /* \"#utility.yul\":8621:8709   */\n      mstore\n        /* \"#utility.yul\":8728:8732   */\n      0x41\n        /* \"#utility.yul\":8725:8726   */\n      0x04\n        /* \"#utility.yul\":8718:8733   */\n      mstore\n        /* \"#utility.yul\":8752:8756   */\n      0x24\n        /* \"#utility.yul\":8749:8750   */\n      0x00\n        /* \"#utility.yul\":8742:8757   */\n      revert\n        /* \"#utility.yul\":8769:9050   */\n    tag_327:\n        /* \"#utility.yul\":8852:8879   */\n      tag_437\n        /* \"#utility.yul\":8874:8878   */\n      dup3\n        /* \"#utility.yul\":8852:8879   */\n      tag_326\n      jump\t// in\n    tag_437:\n        /* \"#utility.yul\":8844:8850   */\n      dup2\n        /* \"#utility.yul\":8840:8880   */\n      add\n        /* \"#utility.yul\":8982:8988   */\n      dup2\n        /* \"#utility.yul\":8970:8980   */\n      dup2\n        /* \"#utility.yul\":8967:8989   */\n      lt\n        /* \"#utility.yul\":8946:8964   */\n      0xffffffffffffffff\n        /* \"#utility.yul\":8934:8944   */\n      dup3\n        /* \"#utility.yul\":8931:8965   */\n      gt\n        /* \"#utility.yul\":8928:8990   */\n      or\n        /* \"#utility.yul\":8925:9013   */\n      iszero\n      tag_438\n      jumpi\n        /* \"#utility.yul\":8993:9011   */\n      tag_439\n      tag_296\n      jump\t// in\n    tag_439:\n        /* \"#utility.yul\":8925:9013   */\n    tag_438:\n        /* \"#utility.yul\":9033:9043   */\n      dup1\n        /* \"#utility.yul\":9029:9031   */\n      0x40\n        /* \"#utility.yul\":9022:9044   */\n      mstore\n        /* \"#utility.yul\":8812:9050   */\n      pop\n        /* \"#utility.yul\":8769:9050   */\n      pop\n      pop\n      jump\t// out\n        /* \"#utility.yul\":9056:9185   */\n    tag_328:\n        /* \"#utility.yul\":9090:9096   */\n      0x00\n        /* \"#utility.yul\":9117:9137   */\n      tag_441\n      tag_305\n      jump\t// in\n    tag_441:\n        /* \"#utility.yul\":9107:9137   */\n      swap1\n      pop\n        /* \"#utility.yul\":9146:9179   */\n      tag_442\n        /* \"#utility.yul\":9174:9178   */\n      dup3\n        /* \"#utility.yul\":9166:9172   */\n      dup3\n        /* \"#utility.yul\":9146:9179   */\n      tag_327\n      jump\t// in\n    tag_442:\n        /* \"#utility.yul\":9056:9185   */\n      swap2\n      swap1\n      pop\n      jump\t// out\n        /* \"#utility.yul\":9348:9954   */\n    tag_330:\n        /* \"#utility.yul\":9429:9434   */\n      0x00\n        /* \"#utility.yul\":9473:9477   */\n      0x40\n        /* \"#utility.yul\":9461:9470   */\n      dup3\n        /* \"#utility.yul\":9456:9459   */\n      dup5\n        /* \"#utility.yul\":9452:9471   */\n      sub\n        /* \"#utility.yul\":9448:9478   */\n      slt\n        /* \"#utility.yul\":9445:9562   */\n      iszero\n      tag_445\n      jumpi\n        /* \"#utility.yul\":9481:9560   */\n      tag_446\n      tag_325\n      jump\t// in\n    tag_446:\n        /* \"#utility.yul\":9445:9562   */\n    tag_445:\n        /* \"#utility.yul\":9580:9601   */\n      tag_447\n        /* \"#utility.yul\":9596:9600   */\n      0x40\n        /* \"#utility.yul\":9580:9601   */\n      tag_328\n      jump\t// in\n    tag_447:\n        /* \"#utility.yul\":9571:9601   */\n      swap1\n      pop\n        /* \"#utility.yul\":9662:9663   */\n      0x00\n        /* \"#utility.yul\":9702:9762   */\n      tag_448\n        /* \"#utility.yul\":9758:9761   */\n      dup5\n        /* \"#utility.yul\":9749:9755   */\n      dup3\n        /* \"#utility.yul\":9738:9747   */\n      dup6\n        /* \"#utility.yul\":9734:9756   */\n      add\n        /* \"#utility.yul\":9702:9762   */\n      tag_318\n      jump\t// in\n    tag_448:\n        /* \"#utility.yul\":9695:9699   */\n      0x00\n        /* \"#utility.yul\":9688:9693   */\n      dup4\n        /* \"#utility.yul\":9684:9700   */\n      add\n        /* \"#utility.yul\":9677:9763   */\n      mstore\n        /* \"#utility.yul\":9611:9774   */\n      pop\n        /* \"#utility.yul\":9834:9836   */\n      0x20\n        /* \"#utility.yul\":9875:9935   */\n      tag_449\n        /* \"#utility.yul\":9931:9934   */\n      dup5\n        /* \"#utility.yul\":9922:9928   */\n      dup3\n        /* \"#utility.yul\":9911:9920   */\n      dup6\n        /* \"#utility.yul\":9907:9929   */\n      add\n        /* \"#utility.yul\":9875:9935   */\n      tag_318\n      jump\t// in\n    tag_449:\n        /* \"#utility.yul\":9868:9872   */\n      0x20\n        /* \"#utility.yul\":9861:9866   */\n      dup4\n        /* \"#utility.yul\":9857:9873   */\n      add\n        /* \"#utility.yul\":9850:9936   */\n      mstore\n        /* \"#utility.yul\":9784:9947   */\n      pop\n        /* \"#utility.yul\":9348:9954   */\n      swap3\n      swap2\n      pop\n      pop\n      jump\t// out\n        /* \"#utility.yul\":9960:10353   */\n    tag_176:\n        /* \"#utility.yul\":10051:10057   */\n      0x00\n        /* \"#utility.yul\":10100:10102   */\n      0x40\n        /* \"#utility.yul\":10088:10097   */\n      dup3\n        /* \"#utility.yul\":10079:10086   */\n      dup5\n        /* \"#utility.yul\":10075:10098   */\n      sub\n        /* \"#utility.yul\":10071:10103   */\n      slt\n        /* \"#utility.yul\":10068:10187   */\n      iszero\n      tag_451\n      jumpi\n        /* \"#utility.yul\":10106:10185   */\n      tag_452\n      tag_306\n      jump\t// in\n    tag_452:\n        /* \"#utility.yul\":10068:10187   */\n    tag_451:\n        /* \"#utility.yul\":10226:10227   */\n      0x00\n        /* \"#utility.yul\":10251:10336   */\n      tag_453\n        /* \"#utility.yul\":10328:10335   */\n      dup5\n        /* \"#utility.yul\":10319:10325   */\n      dup3\n        /* \"#utility.yul\":10308:10317   */\n      dup6\n        /* \"#utility.yul\":10304:10326   */\n      add\n        /* \"#utility.yul\":10251:10336   */\n      tag_330\n      jump\t// in\n    tag_453:\n        /* \"#utility.yul\":10241:10336   */\n      swap2\n      pop\n        /* \"#utility.yul\":10197:10346   */\n      pop\n        /* \"#utility.yul\":9960:10353   */\n      swap3\n      swap2\n      pop\n      pop\n      jump\t// out\n        /* \"#utility.yul\":10359:10525   */\n    tag_331:\n        /* \"#utility.yul\":10499:10517   */\n      0x496e636f727265637420416d6f756e7400000000000000000000000000000000\n        /* \"#utility.yul\":10495:10496   */\n      0x00\n        /* \"#utility.yul\":10487:10493   */\n      dup3\n        /* \"#utility.yul\":10483:10497   */\n      add\n        /* \"#utility.yul\":10476:10518   */\n      mstore\n        /* \"#utility.yul\":10359:10525   */\n      pop\n      jump\t// out\n        /* \"#utility.yul\":10531:10897   */\n    tag_332:\n        /* \"#utility.yul\":10673:10676   */\n      0x00\n        /* \"#utility.yul\":10694:10761   */\n      tag_456\n        /* \"#utility.yul\":10758:10760   */\n      0x10\n        /* \"#utility.yul\":10753:10756   */\n      dup4\n        /* \"#utility.yul\":10694:10761   */\n      tag_319\n      jump\t// in\n    tag_456:\n        /* \"#utility.yul\":10687:10761   */\n      swap2\n      pop\n        /* \"#utility.yul\":10770:10863   */\n      tag_457\n        /* \"#utility.yul\":10859:10862   */\n      dup3\n        /* \"#utility.yul\":10770:10863   */\n      tag_331\n      jump\t// in\n    tag_457:\n        /* \"#utility.yul\":10888:10890   */\n      0x20\n        /* \"#utility.yul\":10883:10886   */\n      dup3\n        /* \"#utility.yul\":10879:10891   */\n      add\n        /* \"#utility.yul\":10872:10891   */\n      swap1\n      pop\n        /* \"#utility.yul\":10531:10897   */\n      swap2\n      swap1\n      pop\n      jump\t// out\n        /* \"#utility.yul\":10903:11322   */\n    tag_180:\n        /* \"#utility.yul\":11069:11073   */\n      0x00\n        /* \"#utility.yul\":11107:11109   */\n      0x20\n        /* \"#utility.yul\":11096:11105   */\n      dup3\n        /* \"#utility.yul\":11092:11110   */\n      add\n        /* \"#utility.yul\":11084:11110   */\n      swap1\n      pop\n        /* \"#utility.yul\":11156:11165   */\n      dup2\n        /* \"#utility.yul\":11150:11154   */\n      dup2\n        /* \"#utility.yul\":11146:11166   */\n      sub\n        /* \"#utility.yul\":11142:11143   */\n      0x00\n        /* \"#utility.yul\":11131:11140   */\n      dup4\n        /* \"#utility.yul\":11127:11144   */\n      add\n        /* \"#utility.yul\":11120:11167   */\n      mstore\n        /* \"#utility.yul\":11184:11315   */\n      tag_459\n        /* \"#utility.yul\":11310:11314   */\n      dup2\n        /* \"#utility.yul\":11184:11315   */\n      tag_332\n      jump\t// in\n    tag_459:\n        /* \"#utility.yul\":11176:11315   */\n      swap1\n      pop\n        /* \"#utility.yul\":10903:11322   */\n      swap2\n      swap1\n      pop\n      jump\t// out\n        /* \"#utility.yul\":11328:11418   */\n    tag_333:\n        /* \"#utility.yul\":11362:11369   */\n      0x00\n        /* \"#utility.yul\":11405:11410   */\n      dup2\n        /* \"#utility.yul\":11398:11411   */\n      iszero\n        /* \"#utility.yul\":11391:11412   */\n      iszero\n        /* \"#utility.yul\":11380:11412   */\n      swap1\n      pop\n        /* \"#utility.yul\":11328:11418   */\n      swap2\n      swap1\n      pop\n      jump\t// out\n        /* \"#utility.yul\":11424:11540   */\n    tag_334:\n        /* \"#utility.yul\":11494:11515   */\n      tag_462\n        /* \"#utility.yul\":11509:11514   */\n      dup2\n        /* \"#utility.yul\":11494:11515   */\n      tag_333\n      jump\t// in\n    tag_462:\n        /* \"#utility.yul\":11487:11492   */\n      dup2\n        /* \"#utility.yul\":11484:11516   */\n      eq\n        /* \"#utility.yul\":11474:11534   */\n      tag_463\n      jumpi\n        /* \"#utility.yul\":11530:11531   */\n      0x00\n        /* \"#utility.yul\":11527:11528   */\n      dup1\n        /* \"#utility.yul\":11520:11532   */\n      revert\n        /* \"#utility.yul\":11474:11534   */\n    tag_463:\n        /* \"#utility.yul\":11424:11540   */\n      pop\n      jump\t// out\n        /* \"#utility.yul\":11546:11683   */\n    tag_335:\n        /* \"#utility.yul\":11600:11605   */\n      0x00\n        /* \"#utility.yul\":11631:11637   */\n      dup2\n        /* \"#utility.yul\":11625:11638   */\n      mload\n        /* \"#utility.yul\":11616:11638   */\n      swap1\n      pop\n        /* \"#utility.yul\":11647:11677   */\n      tag_465\n        /* \"#utility.yul\":11671:11676   */\n      dup2\n        /* \"#utility.yul\":11647:11677   */\n      tag_334\n      jump\t// in\n    tag_465:\n        /* \"#utility.yul\":11546:11683   */\n      swap3\n      swap2\n      pop\n      pop\n      jump\t// out\n        /* \"#utility.yul\":11689:12034   */\n    tag_218:\n        /* \"#utility.yul\":11756:11762   */\n      0x00\n        /* \"#utility.yul\":11805:11807   */\n      0x20\n        /* \"#utility.yul\":11793:11802   */\n      dup3\n        /* \"#utility.yul\":11784:11791   */\n      dup5\n        /* \"#utility.yul\":11780:11803   */\n      sub\n        /* \"#utility.yul\":11776:11808   */\n      slt\n        /* \"#utility.yul\":11773:11892   */\n      iszero\n      tag_467\n      jumpi\n        /* \"#utility.yul\":11811:11890   */\n      tag_468\n      tag_306\n      jump\t// in\n    tag_468:\n        /* \"#utility.yul\":11773:11892   */\n    tag_467:\n        /* \"#utility.yul\":11931:11932   */\n      0x00\n        /* \"#utility.yul\":11956:12017   */\n      tag_469\n        /* \"#utility.yul\":12009:12016   */\n      dup5\n        /* \"#utility.yul\":12000:12006   */\n      dup3\n        /* \"#utility.yul\":11989:11998   */\n      dup6\n        /* \"#utility.yul\":11985:12007   */\n      add\n        /* \"#utility.yul\":11956:12017   */\n      tag_335\n      jump\t// in\n    tag_469:\n        /* \"#utility.yul\":11946:12017   */\n      swap2\n      pop\n        /* \"#utility.yul\":11902:12027   */\n      pop\n        /* \"#utility.yul\":11689:12034   */\n      swap3\n      swap2\n      pop\n      pop\n      jump\t// out\n        /* \"#utility.yul\":12040:12482   */\n    tag_220:\n        /* \"#utility.yul\":12189:12193   */\n      0x00\n        /* \"#utility.yul\":12227:12229   */\n      0x60\n        /* \"#utility.yul\":12216:12225   */\n      dup3\n        /* \"#utility.yul\":12212:12230   */\n      add\n        /* \"#utility.yul\":12204:12230   */\n      swap1\n      pop\n        /* \"#utility.yul\":12240:12311   */\n      tag_471\n        /* \"#utility.yul\":12308:12309   */\n      0x00\n        /* \"#utility.yul\":12297:12306   */\n      dup4\n        /* \"#utility.yul\":12293:12310   */\n      add\n        /* \"#utility.yul\":12284:12290   */\n      dup7\n        /* \"#utility.yul\":12240:12311   */\n      tag_312\n      jump\t// in\n    tag_471:\n        /* \"#utility.yul\":12321:12393   */\n      tag_472\n        /* \"#utility.yul\":12389:12391   */\n      0x20\n        /* \"#utility.yul\":12378:12387   */\n      dup4\n        /* \"#utility.yul\":12374:12392   */\n      add\n        /* \"#utility.yul\":12365:12371   */\n      dup6\n        /* \"#utility.yul\":12321:12393   */\n      tag_312\n      jump\t// in\n    tag_472:\n        /* \"#utility.yul\":12403:12475   */\n      tag_473\n        /* \"#utility.yul\":12471:12473   */\n      0x40\n        /* \"#utility.yul\":12460:12469   */\n      dup4\n        /* \"#utility.yul\":12456:12474   */\n      add\n        /* \"#utility.yul\":12447:12453   */\n      dup5\n        /* \"#utility.yul\":12403:12475   */\n      tag_316\n      jump\t// in\n    tag_473:\n        /* \"#utility.yul\":12040:12482   */\n      swap5\n      swap4\n      pop\n      pop\n      pop\n      pop\n      jump\t// out\n        /* \"#utility.yul\":12488:12659   */\n    tag_336:\n        /* \"#utility.yul\":12628:12651   */\n      0x4e6f20616d6f756e7420746f2077697468647261770000000000000000000000\n        /* \"#utility.yul\":12624:12625   */\n      0x00\n        /* \"#utility.yul\":12616:12622   */\n      dup3\n        /* \"#utility.yul\":12612:12626   */\n      add\n        /* \"#utility.yul\":12605:12652   */\n      mstore\n        /* \"#utility.yul\":12488:12659   */\n      pop\n      jump\t// out\n        /* \"#utility.yul\":12665:13031   */\n    tag_337:\n        /* \"#utility.yul\":12807:12810   */\n      0x00\n        /* \"#utility.yul\":12828:12895   */\n      tag_476\n        /* \"#utility.yul\":12892:12894   */\n      0x15\n        /* \"#utility.yul\":12887:12890   */\n      dup4\n        /* \"#utility.yul\":12828:12895   */\n      tag_319\n      jump\t// in\n    tag_476:\n        /* \"#utility.yul\":12821:12895   */\n      swap2\n      pop\n        /* \"#utility.yul\":12904:12997   */\n      tag_477\n        /* \"#utility.yul\":12993:12996   */\n      dup3\n        /* \"#utility.yul\":12904:12997   */\n      tag_336\n      jump\t// in\n    tag_477:\n        /* \"#utility.yul\":13022:13024   */\n      0x20\n        /* \"#utility.yul\":13017:13020   */\n      dup3\n        /* \"#utility.yul\":13013:13025   */\n      add\n        /* \"#utility.yul\":13006:13025   */\n      swap1\n      pop\n        /* \"#utility.yul\":12665:13031   */\n      swap2\n      swap1\n      pop\n      jump\t// out\n        /* \"#utility.yul\":13037:13456   */\n    tag_252:\n        /* \"#utility.yul\":13203:13207   */\n      0x00\n        /* \"#utility.yul\":13241:13243   */\n      0x20\n        /* \"#utility.yul\":13230:13239   */\n      dup3\n        /* \"#utility.yul\":13226:13244   */\n      add\n        /* \"#utility.yul\":13218:13244   */\n      swap1\n      pop\n        /* \"#utility.yul\":13290:13299   */\n      dup2\n        /* \"#utility.yul\":13284:13288   */\n      dup2\n        /* \"#utility.yul\":13280:13300   */\n      sub\n        /* \"#utility.yul\":13276:13277   */\n      0x00\n        /* \"#utility.yul\":13265:13274   */\n      dup4\n        /* \"#utility.yul\":13261:13278   */\n      add\n        /* \"#utility.yul\":13254:13301   */\n      mstore\n        /* \"#utility.yul\":13318:13449   */\n      tag_479\n        /* \"#utility.yul\":13444:13448   */\n      dup2\n        /* \"#utility.yul\":13318:13449   */\n      tag_337\n      jump\t// in\n    tag_479:\n        /* \"#utility.yul\":13310:13449   */\n      swap1\n      pop\n        /* \"#utility.yul\":13037:13456   */\n      swap2\n      swap1\n      pop\n      jump\t// out\n        /* \"#utility.yul\":13462:13560   */\n    tag_338:\n        /* \"#utility.yul\":13513:13519   */\n      0x00\n        /* \"#utility.yul\":13547:13552   */\n      dup2\n        /* \"#utility.yul\":13541:13553   */\n      mload\n        /* \"#utility.yul\":13531:13553   */\n      swap1\n      pop\n        /* \"#utility.yul\":13462:13560   */\n      swap2\n      swap1\n      pop\n      jump\t// out\n        /* \"#utility.yul\":13566:13713   */\n    tag_339:\n        /* \"#utility.yul\":13667:13678   */\n      0x00\n        /* \"#utility.yul\":13704:13707   */\n      dup2\n        /* \"#utility.yul\":13689:13707   */\n      swap1\n      pop\n        /* \"#utility.yul\":13566:13713   */\n      swap3\n      swap2\n      pop\n      pop\n      jump\t// out\n        /* \"#utility.yul\":13719:13965   */\n    tag_340:\n        /* \"#utility.yul\":13800:13801   */\n      0x00\n        /* \"#utility.yul\":13810:13923   */\n    tag_483:\n        /* \"#utility.yul\":13824:13830   */\n      dup4\n        /* \"#utility.yul\":13821:13822   */\n      dup2\n        /* \"#utility.yul\":13818:13831   */\n      lt\n        /* \"#utility.yul\":13810:13923   */\n      iszero\n      tag_485\n      jumpi\n        /* \"#utility.yul\":13909:13910   */\n      dup1\n        /* \"#utility.yul\":13904:13907   */\n      dup3\n        /* \"#utility.yul\":13900:13911   */\n      add\n        /* \"#utility.yul\":13894:13912   */\n      mload\n        /* \"#utility.yul\":13890:13891   */\n      dup2\n        /* \"#utility.yul\":13885:13888   */\n      dup5\n        /* \"#utility.yul\":13881:13892   */\n      add\n        /* \"#utility.yul\":13874:13913   */\n      mstore\n        /* \"#utility.yul\":13846:13848   */\n      0x20\n        /* \"#utility.yul\":13843:13844   */\n      dup2\n        /* \"#utility.yul\":13839:13849   */\n      add\n        /* \"#utility.yul\":13834:13849   */\n      swap1\n      pop\n        /* \"#utility.yul\":13810:13923   */\n      jump(tag_483)\n    tag_485:\n        /* \"#utility.yul\":13957:13958   */\n      0x00\n        /* \"#utility.yul\":13948:13954   */\n      dup5\n        /* \"#utility.yul\":13943:13946   */\n      dup5\n        /* \"#utility.yul\":13939:13955   */\n      add\n        /* \"#utility.yul\":13932:13959   */\n      mstore\n        /* \"#utility.yul\":13781:13965   */\n      pop\n        /* \"#utility.yul\":13719:13965   */\n      pop\n      pop\n      pop\n      jump\t// out\n        /* \"#utility.yul\":13971:14357   */\n    tag_341:\n        /* \"#utility.yul\":14075:14078   */\n      0x00\n        /* \"#utility.yul\":14103:14141   */\n      tag_487\n        /* \"#utility.yul\":14135:14140   */\n      dup3\n        /* \"#utility.yul\":14103:14141   */\n      tag_338\n      jump\t// in\n    tag_487:\n        /* \"#utility.yul\":14157:14245   */\n      tag_488\n        /* \"#utility.yul\":14238:14244   */\n      dup2\n        /* \"#utility.yul\":14233:14236   */\n      dup6\n        /* \"#utility.yul\":14157:14245   */\n      tag_339\n      jump\t// in\n    tag_488:\n        /* \"#utility.yul\":14150:14245   */\n      swap4\n      pop\n        /* \"#utility.yul\":14254:14319   */\n      tag_489\n        /* \"#utility.yul\":14312:14318   */\n      dup2\n        /* \"#utility.yul\":14307:14310   */\n      dup6\n        /* \"#utility.yul\":14300:14304   */\n      0x20\n        /* \"#utility.yul\":14293:14298   */\n      dup7\n        /* \"#utility.yul\":14289:14305   */\n      add\n        /* \"#utility.yul\":14254:14319   */\n      tag_340\n      jump\t// in\n    tag_489:\n        /* \"#utility.yul\":14344:14350   */\n      dup1\n        /* \"#utility.yul\":14339:14342   */\n      dup5\n        /* \"#utility.yul\":14335:14351   */\n      add\n        /* \"#utility.yul\":14328:14351   */\n      swap2\n      pop\n        /* \"#utility.yul\":14079:14357   */\n      pop\n        /* \"#utility.yul\":13971:14357   */\n      swap3\n      swap2\n      pop\n      pop\n      jump\t// out\n        /* \"#utility.yul\":14363:14634   */\n    tag_283:\n        /* \"#utility.yul\":14493:14496   */\n      0x00\n        /* \"#utility.yul\":14515:14608   */\n      tag_491\n        /* \"#utility.yul\":14604:14607   */\n      dup3\n        /* \"#utility.yul\":14595:14601   */\n      dup5\n        /* \"#utility.yul\":14515:14608   */\n      tag_341\n      jump\t// in\n    tag_491:\n        /* \"#utility.yul\":14508:14608   */\n      swap2\n      pop\n        /* \"#utility.yul\":14625:14628   */\n      dup2\n        /* \"#utility.yul\":14618:14628   */\n      swap1\n      pop\n        /* \"#utility.yul\":14363:14634   */\n      swap3\n      swap2\n      pop\n      pop\n      jump\t// out\n        /* \"#utility.yul\":14640:14872   */\n    tag_342:\n        /* \"#utility.yul\":14780:14814   */\n      0x5472616e7366657248656c7065723a3a736166655472616e736665723a207472\n        /* \"#utility.yul\":14776:14777   */\n      0x00\n        /* \"#utility.yul\":14768:14774   */\n      dup3\n        /* \"#utility.yul\":14764:14778   */\n      add\n        /* \"#utility.yul\":14757:14815   */\n      mstore\n        /* \"#utility.yul\":14849:14864   */\n      0x616e73666572206661696c656400000000000000000000000000000000000000\n        /* \"#utility.yul\":14844:14846   */\n      0x20\n        /* \"#utility.yul\":14836:14842   */\n      dup3\n        /* \"#utility.yul\":14832:14847   */\n      add\n        /* \"#utility.yul\":14825:14865   */\n      mstore\n        /* \"#utility.yul\":14640:14872   */\n      pop\n      jump\t// out\n        /* \"#utility.yul\":14878:15244   */\n    tag_343:\n        /* \"#utility.yul\":15020:15023   */\n      0x00\n        /* \"#utility.yul\":15041:15108   */\n      tag_494\n        /* \"#utility.yul\":15105:15107   */\n      0x2d\n        /* \"#utility.yul\":15100:15103   */\n      dup4\n        /* \"#utility.yul\":15041:15108   */\n      tag_319\n      jump\t// in\n    tag_494:\n        /* \"#utility.yul\":15034:15108   */\n      swap2\n      pop\n        /* \"#utility.yul\":15117:15210   */\n      tag_495\n        /* \"#utility.yul\":15206:15209   */\n      dup3\n        /* \"#utility.yul\":15117:15210   */\n      tag_342\n      jump\t// in\n    tag_495:\n        /* \"#utility.yul\":15235:15237   */\n      0x40\n        /* \"#utility.yul\":15230:15233   */\n      dup3\n        /* \"#utility.yul\":15226:15238   */\n      add\n        /* \"#utility.yul\":15219:15238   */\n      swap1\n      pop\n        /* \"#utility.yul\":14878:15244   */\n      swap2\n      swap1\n      pop\n      jump\t// out\n        /* \"#utility.yul\":15250:15669   */\n    tag_292:\n        /* \"#utility.yul\":15416:15420   */\n      0x00\n        /* \"#utility.yul\":15454:15456   */\n      0x20\n        /* \"#utility.yul\":15443:15452   */\n      dup3\n        /* \"#utility.yul\":15439:15457   */\n      add\n        /* \"#utility.yul\":15431:15457   */\n      swap1\n      pop\n        /* \"#utility.yul\":15503:15512   */\n      dup2\n        /* \"#utility.yul\":15497:15501   */\n      dup2\n        /* \"#utility.yul\":15493:15513   */\n      sub\n        /* \"#utility.yul\":15489:15490   */\n      0x00\n        /* \"#utility.yul\":15478:15487   */\n      dup4\n        /* \"#utility.yul\":15474:15491   */\n      add\n        /* \"#utility.yul\":15467:15514   */\n      mstore\n        /* \"#utility.yul\":15531:15662   */\n      tag_497\n        /* \"#utility.yul\":15657:15661   */\n      dup2\n        /* \"#utility.yul\":15531:15662   */\n      tag_343\n      jump\t// in\n    tag_497:\n        /* \"#utility.yul\":15523:15662   */\n      swap1\n      pop\n        /* \"#utility.yul\":15250:15669   */\n      swap2\n      swap1\n      pop\n      jump\t// out\n        /* \"#utility.yul\":15675:15914   */\n    tag_344:\n        /* \"#utility.yul\":15815:15849   */\n      0x5472616e7366657248656c7065723a3a736166655472616e736665724554483a\n        /* \"#utility.yul\":15811:15812   */\n      0x00\n        /* \"#utility.yul\":15803:15809   */\n      dup3\n        /* \"#utility.yul\":15799:15813   */\n      add\n        /* \"#utility.yul\":15792:15850   */\n      mstore\n        /* \"#utility.yul\":15884:15906   */\n      0x20455448207472616e73666572206661696c6564000000000000000000000000\n        /* \"#utility.yul\":15879:15881   */\n      0x20\n        /* \"#utility.yul\":15871:15877   */\n      dup3\n        /* \"#utility.yul\":15867:15882   */\n      add\n        /* \"#utility.yul\":15860:15907   */\n      mstore\n        /* \"#utility.yul\":15675:15914   */\n      pop\n      jump\t// out\n        /* \"#utility.yul\":15920:16286   */\n    tag_345:\n        /* \"#utility.yul\":16062:16065   */\n      0x00\n        /* \"#utility.yul\":16083:16150   */\n      tag_500\n        /* \"#utility.yul\":16147:16149   */\n      0x34\n        /* \"#utility.yul\":16142:16145   */\n      dup4\n        /* \"#utility.yul\":16083:16150   */\n      tag_319\n      jump\t// in\n    tag_500:\n        /* \"#utility.yul\":16076:16150   */\n      swap2\n      pop\n        /* \"#utility.yul\":16159:16252   */\n      tag_501\n        /* \"#utility.yul\":16248:16251   */\n      dup3\n        /* \"#utility.yul\":16159:16252   */\n      tag_344\n      jump\t// in\n    tag_501:\n        /* \"#utility.yul\":16277:16279   */\n      0x40\n        /* \"#utility.yul\":16272:16275   */\n      dup3\n        /* \"#utility.yul\":16268:16280   */\n      add\n        /* \"#utility.yul\":16261:16280   */\n      swap1\n      pop\n        /* \"#utility.yul\":15920:16286   */\n      swap2\n      swap1\n      pop\n      jump\t// out\n        /* \"#utility.yul\":16292:16711   */\n    tag_304:\n        /* \"#utility.yul\":16458:16462   */\n      0x00\n        /* \"#utility.yul\":16496:16498   */\n      0x20\n        /* \"#utility.yul\":16485:16494   */\n      dup3\n        /* \"#utility.yul\":16481:16499   */\n      add\n        /* \"#utility.yul\":16473:16499   */\n      swap1\n      pop\n        /* \"#utility.yul\":16545:16554   */\n      dup2\n        /* \"#utility.yul\":16539:16543   */\n      dup2\n        /* \"#utility.yul\":16535:16555   */\n      sub\n        /* \"#utility.yul\":16531:16532   */\n      0x00\n        /* \"#utility.yul\":16520:16529   */\n      dup4\n        /* \"#utility.yul\":16516:16533   */\n      add\n        /* \"#utility.yul\":16509:16556   */\n      mstore\n        /* \"#utility.yul\":16573:16704   */\n      tag_503\n        /* \"#utility.yul\":16699:16703   */\n      dup2\n        /* \"#utility.yul\":16573:16704   */\n      tag_345\n      jump\t// in\n    tag_503:\n        /* \"#utility.yul\":16565:16704   */\n      swap1\n      pop\n        /* \"#utility.yul\":16292:16711   */\n      swap2\n      swap1\n      pop\n      jump\t// out\n\n    auxdata: 0xa264697066735822122038f78a724b0ade019f5281b840a35e61a0d4e51825b54e6d79b1b3c81e77c87064736f6c63430008120033\n}\n",
				"bytecode": {
					"linkReferences": {},
					"object": "60c06040523480156200001157600080fd5b506040516200253638038062002536833981810160405281019062000037919062000111565b8173ffffffffffffffffffffffffffffffffffffffff1660808173ffffffffffffffffffffffffffffffffffffffff16815250508073ffffffffffffffffffffffffffffffffffffffff1660a08173ffffffffffffffffffffffffffffffffffffffff1681525050505062000158565b600080fd5b600073ffffffffffffffffffffffffffffffffffffffff82169050919050565b6000620000d982620000ac565b9050919050565b620000eb81620000cc565b8114620000f757600080fd5b50565b6000815190506200010b81620000e0565b92915050565b600080604083850312156200012b576200012a620000a7565b5b60006200013b85828601620000fa565b92505060206200014e85828601620000fa565b9150509250929050565b60805160a051612333620002036000396000818161065a015281816106f601528181610763015281816107e701528181610bb701528181610bdf01528181610c6301528181610d3401528181610d5d01528181610eea01528181610fee0152818161108d0152818161112e01528181611540015281816115dc01528181611673015281816117140152611831015260008181610422015281816111c7015261151701526123336000f3fe6080604052600436106100fe5760003560e01c80635a91b39c116100955780639e281a98116100645780639e281a9814610339578063c45a015514610362578063f14210a61461038d578063f8b2cb4f146103b6578063fd08c30c146103f3576100fe565b80635a91b39c146102815780637b2af625146102aa5780639049f9d2146102d3578063987242e9146102fc576100fe565b80632553c96b116100d15780632553c96b146101c2578063338b5dea146101ff57806338bad5e5146102285780635358fbda14610265576100fe565b80631228cbee146101035780631ad58a2114610140578063214ea2181461017d5780632247463e146101a6575b600080fd5b34801561010f57600080fd5b5061012a60048036038101906101259190611af6565b61041e565b6040516101379190611b32565b60405180910390f35b34801561014c57600080fd5b5061016760048036038101906101629190611b83565b6104c1565b6040516101749190611be5565b60405180910390f35b34801561018957600080fd5b506101a4600480360381019061019f9190611c00565b610555565b005b6101c060048036038101906101bb9190611c40565b610653565b005b3480156101ce57600080fd5b506101e960048036038101906101e49190611b83565b61089d565b6040516101f69190611be5565b60405180910390f35b34801561020b57600080fd5b5061022660048036038101906102219190611c00565b610931565b005b34801561023457600080fd5b5061024f600480360381019061024a9190611c6d565b610a6b565b60405161025c9190611be5565b60405180910390f35b61027f600480360381019061027a9190611c40565b610b6e565b005b34801561028d57600080fd5b506102a860048036038101906102a39190611c00565b610df5565b005b3480156102b657600080fd5b506102d160048036038101906102cc9190611c40565b610ee3565b005b3480156102df57600080fd5b506102fa60048036038101906102f59190611af6565b6111c5565b005b34801561030857600080fd5b50610323600480360381019061031e9190611c6d565b611265565b6040516103309190611be5565b60405180910390f35b34801561034557600080fd5b50610360600480360381019061035b9190611c00565b611368565b005b34801561036e57600080fd5b50610377611515565b6040516103849190611b32565b60405180910390f35b34801561039957600080fd5b506103b460048036038101906103af9190611c40565b611539565b005b3480156103c257600080fd5b506103dd60048036038101906103d89190611af6565b6117ac565b6040516103ea9190611be5565b60405180910390f35b3480156103ff57600080fd5b5061040861182f565b6040516104159190611b32565b60405180910390f35b60007f000000000000000000000000000000000000000000000000000000000000000073ffffffffffffffffffffffffffffffffffffffff1663bbe4f6db836040518263ffffffff1660e01b81526004016104799190611b32565b602060405180830381865afa158015610496573d6000803e3d6000fd5b505050506040513d601f19601f820116820180604052508101906104ba9190611cc2565b9050919050565b6000806104cd8561041e565b90508073ffffffffffffffffffffffffffffffffffffffff16634722a53185856040518363ffffffff1660e01b815260040161050a929190611cef565b602060405180830381865afa158015610527573d6000803e3d6000fd5b505050506040513d601f19601f8201168201806040525081019061054b9190611d2d565b9150509392505050565b60006105608361041e565b9050600073ffffffffffffffffffffffffffffffffffffffff168173ffffffffffffffffffffffffffffffffffffffff16036105d1576040517f08c379a00000000000000000000000000000000000000000000000000000000081526004016105c890611db7565b60405180910390fd5b60006105de84338561089d565b90508173ffffffffffffffffffffffffffffffffffffffff166322867d7833856040518363ffffffff1660e01b815260040161061b929190611cef565b600060405180830381600087803b15801561063557600080fd5b505af1158015610649573d6000803e3d6000fd5b5050505050505050565b600061067e7f000000000000000000000000000000000000000000000000000000000000000061041e565b9050600073ffffffffffffffffffffffffffffffffffffffff168173ffffffffffffffffffffffffffffffffffffffff16036106ef576040517f08c379a00000000000000000000000000000000000000000000000000000000081526004016106e690611db7565b60405180910390fd5b600061071c7f0000000000000000000000000000000000000000000000000000000000000000338561089d565b905080341015610761576040517f08c379a000000000000000000000000000000000000000000000000000000000815260040161075890611e23565b60405180910390fd5b7f000000000000000000000000000000000000000000000000000000000000000073ffffffffffffffffffffffffffffffffffffffff1663d0e30db0826040518263ffffffff1660e01b81526004016000604051808303818588803b1580156107c957600080fd5b505af11580156107dd573d6000803e3d6000fd5b505050505061080d7f00000000000000000000000000000000000000000000000000000000000000003383611853565b8173ffffffffffffffffffffffffffffffffffffffff166322867d7833856040518363ffffffff1660e01b8152600401610848929190611cef565b600060405180830381600087803b15801561086257600080fd5b505af1158015610876573d6000803e3d6000fd5b5050505080341115610898576108973382346108929190611e72565b611989565b5b505050565b6000806108a98561041e565b90508073ffffffffffffffffffffffffffffffffffffffff1663aa1970df85856040518363ffffffff1660e01b81526004016108e6929190611cef565b602060405180830381865afa158015610903573d6000803e3d6000fd5b505050506040513d601f19601f820116820180604052508101906109279190611d2d565b9150509392505050565b600061093c8361041e565b9050600073ffffffffffffffffffffffffffffffffffffffff168173ffffffffffffffffffffffffffffffffffffffff16146109e4578073ffffffffffffffffffffffffffffffffffffffff16636e553f6583336040518363ffffffff1660e01b81526004016109ad929190611ea6565b600060405180830381600087803b1580156109c757600080fd5b505af11580156109db573d6000803e3d6000fd5b50505050610a66565b6109ed836111c5565b6109f68361041e565b90508073ffffffffffffffffffffffffffffffffffffffff16636e553f6583336040518363ffffffff1660e01b8152600401610a33929190611ea6565b600060405180830381600087803b158015610a4d57600080fd5b505af1158015610a61573d6000803e3d6000fd5b505050505b505050565b600080610a778461041e565b9050600073ffffffffffffffffffffffffffffffffffffffff168173ffffffffffffffffffffffffffffffffffffffff1603610ae8576040517f08c379a0000000000000000000000000000000000000000000000000000000008152600401610adf90611db7565b60405180910390fd5b8073ffffffffffffffffffffffffffffffffffffffff16638d113a7f846040518263ffffffff1660e01b8152600401610b219190611b32565b6040805180830381865afa158015610b3d573d6000803e3d6000fd5b505050506040513d601f19601f82011682018060405250810190610b619190611fb0565b6000015191505092915050565b348114610bb0576040517f08c379a0000000000000000000000000000000000000000000000000000000008152600401610ba790612029565b60405180910390fd5b6000610bdb7f000000000000000000000000000000000000000000000000000000000000000061041e565b90507f000000000000000000000000000000000000000000000000000000000000000073ffffffffffffffffffffffffffffffffffffffff1663d0e30db0346040518263ffffffff1660e01b81526004016000604051808303818588803b158015610c4557600080fd5b505af1158015610c59573d6000803e3d6000fd5b5050505050610c897f00000000000000000000000000000000000000000000000000000000000000003334611853565b600073ffffffffffffffffffffffffffffffffffffffff168173ffffffffffffffffffffffffffffffffffffffff1614610d2f578073ffffffffffffffffffffffffffffffffffffffff16636e553f6583336040518363ffffffff1660e01b8152600401610cf8929190611ea6565b600060405180830381600087803b158015610d1257600080fd5b505af1158015610d26573d6000803e3d6000fd5b50505050610df1565b610d587f00000000000000000000000000000000000000000000000000000000000000006111c5565b610d817f000000000000000000000000000000000000000000000000000000000000000061041e565b90508073ffffffffffffffffffffffffffffffffffffffff16636e553f6583336040518363ffffffff1660e01b8152600401610dbe929190611ea6565b600060405180830381600087803b158015610dd857600080fd5b505af1158015610dec573d6000803e3d6000fd5b505050505b5050565b6000610e008361041e565b9050600073ffffffffffffffffffffffffffffffffffffffff168173ffffffffffffffffffffffffffffffffffffffff1603610e71576040517f08c379a0000000000000000000000000000000000000000000000000000000008152600401610e6890611db7565b60405180910390fd5b8073ffffffffffffffffffffffffffffffffffffffff16634b3fd14883336040518363ffffffff1660e01b8152600401610eac929190611ea6565b600060405180830381600087803b158015610ec657600080fd5b505af1158015610eda573d6000803e3d6000fd5b50505050505050565b6000610f0e7f000000000000000000000000000000000000000000000000000000000000000061041e565b9050600073ffffffffffffffffffffffffffffffffffffffff168173ffffffffffffffffffffffffffffffffffffffff1603610f7f576040517f08c379a0000000000000000000000000000000000000000000000000000000008152600401610f7690611db7565b60405180910390fd5b8073ffffffffffffffffffffffffffffffffffffffff16634b3fd14883336040518363ffffffff1660e01b8152600401610fba929190611ea6565b600060405180830381600087803b158015610fd457600080fd5b505af1158015610fe8573d6000803e3d6000fd5b505050507f000000000000000000000000000000000000000000000000000000000000000073ffffffffffffffffffffffffffffffffffffffff1663095ea7b330846040518363ffffffff1660e01b8152600401611047929190611cef565b6020604051808303816000875af1158015611066573d6000803e3d6000fd5b505050506040513d601f19601f8201168201806040525081019061108a9190612081565b507f000000000000000000000000000000000000000000000000000000000000000073ffffffffffffffffffffffffffffffffffffffff166323b872dd3330856040518463ffffffff1660e01b81526004016110e8939291906120ae565b6020604051808303816000875af1158015611107573d6000803e3d6000fd5b505050506040513d601f19601f8201168201806040525081019061112b9190612081565b507f000000000000000000000000000000000000000000000000000000000000000073ffffffffffffffffffffffffffffffffffffffff16632e1a7d4d836040518263ffffffff1660e01b81526004016111859190611be5565b600060405180830381600087803b15801561119f57600080fd5b505af11580156111b3573d6000803e3d6000fd5b505050506111c13383611989565b5050565b7f000000000000000000000000000000000000000000000000000000000000000073ffffffffffffffffffffffffffffffffffffffff16639049f9d2826040518263ffffffff1660e01b815260040161121e9190611b32565b6020604051808303816000875af115801561123d573d6000803e3d6000fd5b505050506040513d601f19601f820116820180604052508101906112619190611cc2565b5050565b6000806112718461041e565b9050600073ffffffffffffffffffffffffffffffffffffffff168173ffffffffffffffffffffffffffffffffffffffff16036112e2576040517f08c379a00000000000000000000000000000000000000000000000000000000081526004016112d990611db7565b60405180910390fd5b8073ffffffffffffffffffffffffffffffffffffffff16631c78da26846040518263ffffffff1660e01b815260040161131b9190611b32565b6040805180830381865afa158015611337573d6000803e3d6000fd5b505050506040513d601f19601f8201168201806040525081019061135b9190611fb0565b6000015191505092915050565b60006113738361041e565b9050600073ffffffffffffffffffffffffffffffffffffffff168173ffffffffffffffffffffffffffffffffffffffff16036113e4576040517f08c379a00000000000000000000000000000000000000000000000000000000081526004016113db90611db7565b60405180910390fd5b60008173ffffffffffffffffffffffffffffffffffffffff16631c78da26336040518263ffffffff1660e01b815260040161141f9190611b32565b6040805180830381865afa15801561143b573d6000803e3d6000fd5b505050506040513d601f19601f8201168201806040525081019061145f9190611fb0565b60000151116114a3576040517f08c379a000000000000000000000000000000000000000000000000000000000815260040161149a90612131565b60405180910390fd5b8073ffffffffffffffffffffffffffffffffffffffff1663f3fef3a333846040518363ffffffff1660e01b81526004016114de929190611cef565b600060405180830381600087803b1580156114f857600080fd5b505af115801561150c573d6000803e3d6000fd5b50505050505050565b7f000000000000000000000000000000000000000000000000000000000000000081565b60006115647f000000000000000000000000000000000000000000000000000000000000000061041e565b9050600073ffffffffffffffffffffffffffffffffffffffff168173ffffffffffffffffffffffffffffffffffffffff16036115d5576040517f08c379a00000000000000000000000000000000000000000000000000000000081526004016115cc90611db7565b60405180910390fd5b60006116027f000000000000000000000000000000000000000000000000000000000000000033856104c1565b90508173ffffffffffffffffffffffffffffffffffffffff1663f3fef3a333856040518363ffffffff1660e01b815260040161163f929190611cef565b600060405180830381600087803b15801561165957600080fd5b505af115801561166d573d6000803e3d6000fd5b505050507f000000000000000000000000000000000000000000000000000000000000000073ffffffffffffffffffffffffffffffffffffffff166323b872dd3330846040518463ffffffff1660e01b81526004016116ce939291906120ae565b6020604051808303816000875af11580156116ed573d6000803e3d6000fd5b505050506040513d601f19601f820116820180604052508101906117119190612081565b507f000000000000000000000000000000000000000000000000000000000000000073ffffffffffffffffffffffffffffffffffffffff16632e1a7d4d826040518263ffffffff1660e01b815260040161176b9190611be5565b600060405180830381600087803b15801561178557600080fd5b505af1158015611799573d6000803e3d6000fd5b505050506117a73384611989565b505050565b60008173ffffffffffffffffffffffffffffffffffffffff166370a08231336040518263ffffffff1660e01b81526004016117e79190611b32565b602060405180830381865afa158015611804573d6000803e3d6000fd5b505050506040513d601f19601f820116820180604052508101906118289190611d2d565b9050919050565b7f000000000000000000000000000000000000000000000000000000000000000081565b6000808473ffffffffffffffffffffffffffffffffffffffff1663a9059cbb8585604051602401611885929190611cef565b6040516020818303038152906040529060e01b6020820180517bffffffffffffffffffffffffffffffffffffffffffffffffffffffff83818316178352505050506040516118d391906121c2565b6000604051808303816000865af19150503d8060008114611910576040519150601f19603f3d011682016040523d82523d6000602084013e611915565b606091505b509150915081801561194357506000815114806119425750808060200190518101906119419190612081565b5b5b611982576040517f08c379a00000000000000000000000000000000000000000000000000000000081526004016119799061224b565b60405180910390fd5b5050505050565b60008273ffffffffffffffffffffffffffffffffffffffff1682600067ffffffffffffffff8111156119be576119bd611ee5565b5b6040519080825280601f01601f1916602001820160405280156119f05781602001600182028036833780820191505090505b506040516119fe91906121c2565b60006040518083038185875af1925050503d8060008114611a3b576040519150601f19603f3d011682016040523d82523d6000602084013e611a40565b606091505b5050905080611a84576040517f08c379a0000000000000000000000000000000000000000000000000000000008152600401611a7b906122dd565b60405180910390fd5b505050565b6000604051905090565b600080fd5b600073ffffffffffffffffffffffffffffffffffffffff82169050919050565b6000611ac382611a98565b9050919050565b611ad381611ab8565b8114611ade57600080fd5b50565b600081359050611af081611aca565b92915050565b600060208284031215611b0c57611b0b611a93565b5b6000611b1a84828501611ae1565b91505092915050565b611b2c81611ab8565b82525050565b6000602082019050611b476000830184611b23565b92915050565b6000819050919050565b611b6081611b4d565b8114611b6b57600080fd5b50565b600081359050611b7d81611b57565b92915050565b600080600060608486031215611b9c57611b9b611a93565b5b6000611baa86828701611ae1565b9350506020611bbb86828701611ae1565b9250506040611bcc86828701611b6e565b9150509250925092565b611bdf81611b4d565b82525050565b6000602082019050611bfa6000830184611bd6565b92915050565b60008060408385031215611c1757611c16611a93565b5b6000611c2585828601611ae1565b9250506020611c3685828601611b6e565b9150509250929050565b600060208284031215611c5657611c55611a93565b5b6000611c6484828501611b6e565b91505092915050565b60008060408385031215611c8457611c83611a93565b5b6000611c9285828601611ae1565b9250506020611ca385828601611ae1565b9150509250929050565b600081519050611cbc81611aca565b92915050565b600060208284031215611cd857611cd7611a93565b5b6000611ce684828501611cad565b91505092915050565b6000604082019050611d046000830185611b23565b611d116020830184611bd6565b9392505050565b600081519050611d2781611b57565b92915050565b600060208284031215611d4357611d42611a93565b5b6000611d5184828501611d18565b91505092915050565b600082825260208201905092915050565b7f506f6f6c20446f6573206e6f7420657869737473000000000000000000000000600082015250565b6000611da1601483611d5a565b9150611dac82611d6b565b602082019050919050565b60006020820190508181036000830152611dd081611d94565b9050919050565b7f496e636f727265637420616d6f756e742073656e740000000000000000000000600082015250565b6000611e0d601583611d5a565b9150611e1882611dd7565b602082019050919050565b60006020820190508181036000830152611e3c81611e00565b9050919050565b7f4e487b7100000000000000000000000000000000000000000000000000000000600052601160045260246000fd5b6000611e7d82611b4d565b9150611e8883611b4d565b9250828203905081811115611ea057611e9f611e43565b5b92915050565b6000604082019050611ebb6000830185611bd6565b611ec86020830184611b23565b9392505050565b600080fd5b6000601f19601f8301169050919050565b7f4e487b7100000000000000000000000000000000000000000000000000000000600052604160045260246000fd5b611f1d82611ed4565b810181811067ffffffffffffffff82111715611f3c57611f3b611ee5565b5b80604052505050565b6000611f4f611a89565b9050611f5b8282611f14565b919050565b600060408284031215611f7657611f75611ecf565b5b611f806040611f45565b90506000611f9084828501611d18565b6000830152506020611fa484828501611d18565b60208301525092915050565b600060408284031215611fc657611fc5611a93565b5b6000611fd484828501611f60565b91505092915050565b7f496e636f727265637420416d6f756e7400000000000000000000000000000000600082015250565b6000612013601083611d5a565b915061201e82611fdd565b602082019050919050565b6000602082019050818103600083015261204281612006565b9050919050565b60008115159050919050565b61205e81612049565b811461206957600080fd5b50565b60008151905061207b81612055565b92915050565b60006020828403121561209757612096611a93565b5b60006120a58482850161206c565b91505092915050565b60006060820190506120c36000830186611b23565b6120d06020830185611b23565b6120dd6040830184611bd6565b949350505050565b7f4e6f20616d6f756e7420746f2077697468647261770000000000000000000000600082015250565b600061211b601583611d5a565b9150612126826120e5565b602082019050919050565b6000602082019050818103600083015261214a8161210e565b9050919050565b600081519050919050565b600081905092915050565b60005b8381101561218557808201518184015260208101905061216a565b60008484015250505050565b600061219c82612151565b6121a6818561215c565b93506121b6818560208601612167565b80840191505092915050565b60006121ce8284612191565b915081905092915050565b7f5472616e7366657248656c7065723a3a736166655472616e736665723a20747260008201527f616e73666572206661696c656400000000000000000000000000000000000000602082015250565b6000612235602d83611d5a565b9150612240826121d9565b604082019050919050565b6000602082019050818103600083015261226481612228565b9050919050565b7f5472616e7366657248656c7065723a3a736166655472616e736665724554483a60008201527f20455448207472616e73666572206661696c6564000000000000000000000000602082015250565b60006122c7603483611d5a565b91506122d28261226b565b604082019050919050565b600060208201905081810360008301526122f6816122ba565b905091905056fea264697066735822122038f78a724b0ade019f5281b840a35e61a0d4e51825b54e6d79b1b3c81e77c87064736f6c63430008120033",
					"opcodes": "PUSH1 0xC0 PUSH1 0x40 MSTORE CALLVALUE DUP1 ISZERO PUSH3 0x11 JUMPI PUSH1 0x0 DUP1 REVERT JUMPDEST POP PUSH1 0x40 MLOAD PUSH3 0x2536 CODESIZE SUB DUP1 PUSH3 0x2536 DUP4 CODECOPY DUP2 DUP2 ADD PUSH1 0x40 MSTORE DUP2 ADD SWAP1 PUSH3 0x37 SWAP2 SWAP1 PUSH3 0x111 JUMP JUMPDEST DUP2 PUSH20 0xFFFFFFFFFFFFFFFFFFFFFFFFFFFFFFFFFFFFFFFF AND PUSH1 0x80 DUP2 PUSH20 0xFFFFFFFFFFFFFFFFFFFFFFFFFFFFFFFFFFFFFFFF AND DUP2 MSTORE POP POP DUP1 PUSH20 0xFFFFFFFFFFFFFFFFFFFFFFFFFFFFFFFFFFFFFFFF AND PUSH1 0xA0 DUP2 PUSH20 0xFFFFFFFFFFFFFFFFFFFFFFFFFFFFFFFFFFFFFFFF AND DUP2 MSTORE POP POP POP POP PUSH3 0x158 JUMP JUMPDEST PUSH1 0x0 DUP1 REVERT JUMPDEST PUSH1 0x0 PUSH20 0xFFFFFFFFFFFFFFFFFFFFFFFFFFFFFFFFFFFFFFFF DUP3 AND SWAP1 POP SWAP2 SWAP1 POP JUMP JUMPDEST PUSH1 0x0 PUSH3 0xD9 DUP3 PUSH3 0xAC JUMP JUMPDEST SWAP1 POP SWAP2 SWAP1 POP JUMP JUMPDEST PUSH3 0xEB DUP2 PUSH3 0xCC JUMP JUMPDEST DUP2 EQ PUSH3 0xF7 JUMPI PUSH1 0x0 DUP1 REVERT JUMPDEST POP JUMP JUMPDEST PUSH1 0x0 DUP2 MLOAD SWAP1 POP PUSH3 0x10B DUP2 PUSH3 0xE0 JUMP JUMPDEST SWAP3 SWAP2 POP POP JUMP JUMPDEST PUSH1 0x0 DUP1 PUSH1 0x40 DUP4 DUP6 SUB SLT ISZERO PUSH3 0x12B JUMPI PUSH3 0x12A PUSH3 0xA7 JUMP JUMPDEST JUMPDEST PUSH1 0x0 PUSH3 0x13B DUP6 DUP3 DUP7 ADD PUSH3 0xFA JUMP JUMPDEST SWAP3 POP POP PUSH1 0x20 PUSH3 0x14E DUP6 DUP3 DUP7 ADD PUSH3 0xFA JUMP JUMPDEST SWAP2 POP POP SWAP3 POP SWAP3 SWAP1 POP JUMP JUMPDEST PUSH1 0x80 MLOAD PUSH1 0xA0 MLOAD PUSH2 0x2333 PUSH3 0x203 PUSH1 0x0 CODECOPY PUSH1 0x0 DUP2 DUP2 PUSH2 0x65A ADD MSTORE DUP2 DUP2 PUSH2 0x6F6 ADD MSTORE DUP2 DUP2 PUSH2 0x763 ADD MSTORE DUP2 DUP2 PUSH2 0x7E7 ADD MSTORE DUP2 DUP2 PUSH2 0xBB7 ADD MSTORE DUP2 DUP2 PUSH2 0xBDF ADD MSTORE DUP2 DUP2 PUSH2 0xC63 ADD MSTORE DUP2 DUP2 PUSH2 0xD34 ADD MSTORE DUP2 DUP2 PUSH2 0xD5D ADD MSTORE DUP2 DUP2 PUSH2 0xEEA ADD MSTORE DUP2 DUP2 PUSH2 0xFEE ADD MSTORE DUP2 DUP2 PUSH2 0x108D ADD MSTORE DUP2 DUP2 PUSH2 0x112E ADD MSTORE DUP2 DUP2 PUSH2 0x1540 ADD MSTORE DUP2 DUP2 PUSH2 0x15DC ADD MSTORE DUP2 DUP2 PUSH2 0x1673 ADD MSTORE DUP2 DUP2 PUSH2 0x1714 ADD MSTORE PUSH2 0x1831 ADD MSTORE PUSH1 0x0 DUP2 DUP2 PUSH2 0x422 ADD MSTORE DUP2 DUP2 PUSH2 0x11C7 ADD MSTORE PUSH2 0x1517 ADD MSTORE PUSH2 0x2333 PUSH1 0x0 RETURN INVALID PUSH1 0x80 PUSH1 0x40 MSTORE PUSH1 0x4 CALLDATASIZE LT PUSH2 0xFE JUMPI PUSH1 0x0 CALLDATALOAD PUSH1 0xE0 SHR DUP1 PUSH4 0x5A91B39C GT PUSH2 0x95 JUMPI DUP1 PUSH4 0x9E281A98 GT PUSH2 0x64 JUMPI DUP1 PUSH4 0x9E281A98 EQ PUSH2 0x339 JUMPI DUP1 PUSH4 0xC45A0155 EQ PUSH2 0x362 JUMPI DUP1 PUSH4 0xF14210A6 EQ PUSH2 0x38D JUMPI DUP1 PUSH4 0xF8B2CB4F EQ PUSH2 0x3B6 JUMPI DUP1 PUSH4 0xFD08C30C EQ PUSH2 0x3F3 JUMPI PUSH2 0xFE JUMP JUMPDEST DUP1 PUSH4 0x5A91B39C EQ PUSH2 0x281 JUMPI DUP1 PUSH4 0x7B2AF625 EQ PUSH2 0x2AA JUMPI DUP1 PUSH4 0x9049F9D2 EQ PUSH2 0x2D3 JUMPI DUP1 PUSH4 0x987242E9 EQ PUSH2 0x2FC JUMPI PUSH2 0xFE JUMP JUMPDEST DUP1 PUSH4 0x2553C96B GT PUSH2 0xD1 JUMPI DUP1 PUSH4 0x2553C96B EQ PUSH2 0x1C2 JUMPI DUP1 PUSH4 0x338B5DEA EQ PUSH2 0x1FF JUMPI DUP1 PUSH4 0x38BAD5E5 EQ PUSH2 0x228 JUMPI DUP1 PUSH4 0x5358FBDA EQ PUSH2 0x265 JUMPI PUSH2 0xFE JUMP JUMPDEST DUP1 PUSH4 0x1228CBEE EQ PUSH2 0x103 JUMPI DUP1 PUSH4 0x1AD58A21 EQ PUSH2 0x140 JUMPI DUP1 PUSH4 0x214EA218 EQ PUSH2 0x17D JUMPI DUP1 PUSH4 0x2247463E EQ PUSH2 0x1A6 JUMPI JUMPDEST PUSH1 0x0 DUP1 REVERT JUMPDEST CALLVALUE DUP1 ISZERO PUSH2 0x10F JUMPI PUSH1 0x0 DUP1 REVERT JUMPDEST POP PUSH2 0x12A PUSH1 0x4 DUP1 CALLDATASIZE SUB DUP2 ADD SWAP1 PUSH2 0x125 SWAP2 SWAP1 PUSH2 0x1AF6 JUMP JUMPDEST PUSH2 0x41E JUMP JUMPDEST PUSH1 0x40 MLOAD PUSH2 0x137 SWAP2 SWAP1 PUSH2 0x1B32 JUMP JUMPDEST PUSH1 0x40 MLOAD DUP1 SWAP2 SUB SWAP1 RETURN JUMPDEST CALLVALUE DUP1 ISZERO PUSH2 0x14C JUMPI PUSH1 0x0 DUP1 REVERT JUMPDEST POP PUSH2 0x167 PUSH1 0x4 DUP1 CALLDATASIZE SUB DUP2 ADD SWAP1 PUSH2 0x162 SWAP2 SWAP1 PUSH2 0x1B83 JUMP JUMPDEST PUSH2 0x4C1 JUMP JUMPDEST PUSH1 0x40 MLOAD PUSH2 0x174 SWAP2 SWAP1 PUSH2 0x1BE5 JUMP JUMPDEST PUSH1 0x40 MLOAD DUP1 SWAP2 SUB SWAP1 RETURN JUMPDEST CALLVALUE DUP1 ISZERO PUSH2 0x189 JUMPI PUSH1 0x0 DUP1 REVERT JUMPDEST POP PUSH2 0x1A4 PUSH1 0x4 DUP1 CALLDATASIZE SUB DUP2 ADD SWAP1 PUSH2 0x19F SWAP2 SWAP1 PUSH2 0x1C00 JUMP JUMPDEST PUSH2 0x555 JUMP JUMPDEST STOP JUMPDEST PUSH2 0x1C0 PUSH1 0x4 DUP1 CALLDATASIZE SUB DUP2 ADD SWAP1 PUSH2 0x1BB SWAP2 SWAP1 PUSH2 0x1C40 JUMP JUMPDEST PUSH2 0x653 JUMP JUMPDEST STOP JUMPDEST CALLVALUE DUP1 ISZERO PUSH2 0x1CE JUMPI PUSH1 0x0 DUP1 REVERT JUMPDEST POP PUSH2 0x1E9 PUSH1 0x4 DUP1 CALLDATASIZE SUB DUP2 ADD SWAP1 PUSH2 0x1E4 SWAP2 SWAP1 PUSH2 0x1B83 JUMP JUMPDEST PUSH2 0x89D JUMP JUMPDEST PUSH1 0x40 MLOAD PUSH2 0x1F6 SWAP2 SWAP1 PUSH2 0x1BE5 JUMP JUMPDEST PUSH1 0x40 MLOAD DUP1 SWAP2 SUB SWAP1 RETURN JUMPDEST CALLVALUE DUP1 ISZERO PUSH2 0x20B JUMPI PUSH1 0x0 DUP1 REVERT JUMPDEST POP PUSH2 0x226 PUSH1 0x4 DUP1 CALLDATASIZE SUB DUP2 ADD SWAP1 PUSH2 0x221 SWAP2 SWAP1 PUSH2 0x1C00 JUMP JUMPDEST PUSH2 0x931 JUMP JUMPDEST STOP JUMPDEST CALLVALUE DUP1 ISZERO PUSH2 0x234 JUMPI PUSH1 0x0 DUP1 REVERT JUMPDEST POP PUSH2 0x24F PUSH1 0x4 DUP1 CALLDATASIZE SUB DUP2 ADD SWAP1 PUSH2 0x24A SWAP2 SWAP1 PUSH2 0x1C6D JUMP JUMPDEST PUSH2 0xA6B JUMP JUMPDEST PUSH1 0x40 MLOAD PUSH2 0x25C SWAP2 SWAP1 PUSH2 0x1BE5 JUMP JUMPDEST PUSH1 0x40 MLOAD DUP1 SWAP2 SUB SWAP1 RETURN JUMPDEST PUSH2 0x27F PUSH1 0x4 DUP1 CALLDATASIZE SUB DUP2 ADD SWAP1 PUSH2 0x27A SWAP2 SWAP1 PUSH2 0x1C40 JUMP JUMPDEST PUSH2 0xB6E JUMP JUMPDEST STOP JUMPDEST CALLVALUE DUP1 ISZERO PUSH2 0x28D JUMPI PUSH1 0x0 DUP1 REVERT JUMPDEST POP PUSH2 0x2A8 PUSH1 0x4 DUP1 CALLDATASIZE SUB DUP2 ADD SWAP1 PUSH2 0x2A3 SWAP2 SWAP1 PUSH2 0x1C00 JUMP JUMPDEST PUSH2 0xDF5 JUMP JUMPDEST STOP JUMPDEST CALLVALUE DUP1 ISZERO PUSH2 0x2B6 JUMPI PUSH1 0x0 DUP1 REVERT JUMPDEST POP PUSH2 0x2D1 PUSH1 0x4 DUP1 CALLDATASIZE SUB DUP2 ADD SWAP1 PUSH2 0x2CC SWAP2 SWAP1 PUSH2 0x1C40 JUMP JUMPDEST PUSH2 0xEE3 JUMP JUMPDEST STOP JUMPDEST CALLVALUE DUP1 ISZERO PUSH2 0x2DF JUMPI PUSH1 0x0 DUP1 REVERT JUMPDEST POP PUSH2 0x2FA PUSH1 0x4 DUP1 CALLDATASIZE SUB DUP2 ADD SWAP1 PUSH2 0x2F5 SWAP2 SWAP1 PUSH2 0x1AF6 JUMP JUMPDEST PUSH2 0x11C5 JUMP JUMPDEST STOP JUMPDEST CALLVALUE DUP1 ISZERO PUSH2 0x308 JUMPI PUSH1 0x0 DUP1 REVERT JUMPDEST POP PUSH2 0x323 PUSH1 0x4 DUP1 CALLDATASIZE SUB DUP2 ADD SWAP1 PUSH2 0x31E SWAP2 SWAP1 PUSH2 0x1C6D JUMP JUMPDEST PUSH2 0x1265 JUMP JUMPDEST PUSH1 0x40 MLOAD PUSH2 0x330 SWAP2 SWAP1 PUSH2 0x1BE5 JUMP JUMPDEST PUSH1 0x40 MLOAD DUP1 SWAP2 SUB SWAP1 RETURN JUMPDEST CALLVALUE DUP1 ISZERO PUSH2 0x345 JUMPI PUSH1 0x0 DUP1 REVERT JUMPDEST POP PUSH2 0x360 PUSH1 0x4 DUP1 CALLDATASIZE SUB DUP2 ADD SWAP1 PUSH2 0x35B SWAP2 SWAP1 PUSH2 0x1C00 JUMP JUMPDEST PUSH2 0x1368 JUMP JUMPDEST STOP JUMPDEST CALLVALUE DUP1 ISZERO PUSH2 0x36E JUMPI PUSH1 0x0 DUP1 REVERT JUMPDEST POP PUSH2 0x377 PUSH2 0x1515 JUMP JUMPDEST PUSH1 0x40 MLOAD PUSH2 0x384 SWAP2 SWAP1 PUSH2 0x1B32 JUMP JUMPDEST PUSH1 0x40 MLOAD DUP1 SWAP2 SUB SWAP1 RETURN JUMPDEST CALLVALUE DUP1 ISZERO PUSH2 0x399 JUMPI PUSH1 0x0 DUP1 REVERT JUMPDEST POP PUSH2 0x3B4 PUSH1 0x4 DUP1 CALLDATASIZE SUB DUP2 ADD SWAP1 PUSH2 0x3AF SWAP2 SWAP1 PUSH2 0x1C40 JUMP JUMPDEST PUSH2 0x1539 JUMP JUMPDEST STOP JUMPDEST CALLVALUE DUP1 ISZERO PUSH2 0x3C2 JUMPI PUSH1 0x0 DUP1 REVERT JUMPDEST POP PUSH2 0x3DD PUSH1 0x4 DUP1 CALLDATASIZE SUB DUP2 ADD SWAP1 PUSH2 0x3D8 SWAP2 SWAP1 PUSH2 0x1AF6 JUMP JUMPDEST PUSH2 0x17AC JUMP JUMPDEST PUSH1 0x40 MLOAD PUSH2 0x3EA SWAP2 SWAP1 PUSH2 0x1BE5 JUMP JUMPDEST PUSH1 0x40 MLOAD DUP1 SWAP2 SUB SWAP1 RETURN JUMPDEST CALLVALUE DUP1 ISZERO PUSH2 0x3FF JUMPI PUSH1 0x0 DUP1 REVERT JUMPDEST POP PUSH2 0x408 PUSH2 0x182F JUMP JUMPDEST PUSH1 0x40 MLOAD PUSH2 0x415 SWAP2 SWAP1 PUSH2 0x1B32 JUMP JUMPDEST PUSH1 0x40 MLOAD DUP1 SWAP2 SUB SWAP1 RETURN JUMPDEST PUSH1 0x0 PUSH32 0x0 PUSH20 0xFFFFFFFFFFFFFFFFFFFFFFFFFFFFFFFFFFFFFFFF AND PUSH4 0xBBE4F6DB DUP4 PUSH1 0x40 MLOAD DUP3 PUSH4 0xFFFFFFFF AND PUSH1 0xE0 SHL DUP2 MSTORE PUSH1 0x4 ADD PUSH2 0x479 SWAP2 SWAP1 PUSH2 0x1B32 JUMP JUMPDEST PUSH1 0x20 PUSH1 0x40 MLOAD DUP1 DUP4 SUB DUP2 DUP7 GAS STATICCALL ISZERO DUP1 ISZERO PUSH2 0x496 JUMPI RETURNDATASIZE PUSH1 0x0 DUP1 RETURNDATACOPY RETURNDATASIZE PUSH1 0x0 REVERT JUMPDEST POP POP POP POP PUSH1 0x40 MLOAD RETURNDATASIZE PUSH1 0x1F NOT PUSH1 0x1F DUP3 ADD AND DUP3 ADD DUP1 PUSH1 0x40 MSTORE POP DUP2 ADD SWAP1 PUSH2 0x4BA SWAP2 SWAP1 PUSH2 0x1CC2 JUMP JUMPDEST SWAP1 POP SWAP2 SWAP1 POP JUMP JUMPDEST PUSH1 0x0 DUP1 PUSH2 0x4CD DUP6 PUSH2 0x41E JUMP JUMPDEST SWAP1 POP DUP1 PUSH20 0xFFFFFFFFFFFFFFFFFFFFFFFFFFFFFFFFFFFFFFFF AND PUSH4 0x4722A531 DUP6 DUP6 PUSH1 0x40 MLOAD DUP4 PUSH4 0xFFFFFFFF AND PUSH1 0xE0 SHL DUP2 MSTORE PUSH1 0x4 ADD PUSH2 0x50A SWAP3 SWAP2 SWAP1 PUSH2 0x1CEF JUMP JUMPDEST PUSH1 0x20 PUSH1 0x40 MLOAD DUP1 DUP4 SUB DUP2 DUP7 GAS STATICCALL ISZERO DUP1 ISZERO PUSH2 0x527 JUMPI RETURNDATASIZE PUSH1 0x0 DUP1 RETURNDATACOPY RETURNDATASIZE PUSH1 0x0 REVERT JUMPDEST POP POP POP POP PUSH1 0x40 MLOAD RETURNDATASIZE PUSH1 0x1F NOT PUSH1 0x1F DUP3 ADD AND DUP3 ADD DUP1 PUSH1 0x40 MSTORE POP DUP2 ADD SWAP1 PUSH2 0x54B SWAP2 SWAP1 PUSH2 0x1D2D JUMP JUMPDEST SWAP2 POP POP SWAP4 SWAP3 POP POP POP JUMP JUMPDEST PUSH1 0x0 PUSH2 0x560 DUP4 PUSH2 0x41E JUMP JUMPDEST SWAP1 POP PUSH1 0x0 PUSH20 0xFFFFFFFFFFFFFFFFFFFFFFFFFFFFFFFFFFFFFFFF AND DUP2 PUSH20 0xFFFFFFFFFFFFFFFFFFFFFFFFFFFFFFFFFFFFFFFF AND SUB PUSH2 0x5D1 JUMPI PUSH1 0x40 MLOAD PUSH32 0x8C379A000000000000000000000000000000000000000000000000000000000 DUP2 MSTORE PUSH1 0x4 ADD PUSH2 0x5C8 SWAP1 PUSH2 0x1DB7 JUMP JUMPDEST PUSH1 0x40 MLOAD DUP1 SWAP2 SUB SWAP1 REVERT JUMPDEST PUSH1 0x0 PUSH2 0x5DE DUP5 CALLER DUP6 PUSH2 0x89D JUMP JUMPDEST SWAP1 POP DUP2 PUSH20 0xFFFFFFFFFFFFFFFFFFFFFFFFFFFFFFFFFFFFFFFF AND PUSH4 0x22867D78 CALLER DUP6 PUSH1 0x40 MLOAD DUP4 PUSH4 0xFFFFFFFF AND PUSH1 0xE0 SHL DUP2 MSTORE PUSH1 0x4 ADD PUSH2 0x61B SWAP3 SWAP2 SWAP1 PUSH2 0x1CEF JUMP JUMPDEST PUSH1 0x0 PUSH1 0x40 MLOAD DUP1 DUP4 SUB DUP2 PUSH1 0x0 DUP8 DUP1 EXTCODESIZE ISZERO DUP1 ISZERO PUSH2 0x635 JUMPI PUSH1 0x0 DUP1 REVERT JUMPDEST POP GAS CALL ISZERO DUP1 ISZERO PUSH2 0x649 JUMPI RETURNDATASIZE PUSH1 0x0 DUP1 RETURNDATACOPY RETURNDATASIZE PUSH1 0x0 REVERT JUMPDEST POP POP POP POP POP POP POP POP JUMP JUMPDEST PUSH1 0x0 PUSH2 0x67E PUSH32 0x0 PUSH2 0x41E JUMP JUMPDEST SWAP1 POP PUSH1 0x0 PUSH20 0xFFFFFFFFFFFFFFFFFFFFFFFFFFFFFFFFFFFFFFFF AND DUP2 PUSH20 0xFFFFFFFFFFFFFFFFFFFFFFFFFFFFFFFFFFFFFFFF AND SUB PUSH2 0x6EF JUMPI PUSH1 0x40 MLOAD PUSH32 0x8C379A000000000000000000000000000000000000000000000000000000000 DUP2 MSTORE PUSH1 0x4 ADD PUSH2 0x6E6 SWAP1 PUSH2 0x1DB7 JUMP JUMPDEST PUSH1 0x40 MLOAD DUP1 SWAP2 SUB SWAP1 REVERT JUMPDEST PUSH1 0x0 PUSH2 0x71C PUSH32 0x0 CALLER DUP6 PUSH2 0x89D JUMP JUMPDEST SWAP1 POP DUP1 CALLVALUE LT ISZERO PUSH2 0x761 JUMPI PUSH1 0x40 MLOAD PUSH32 0x8C379A000000000000000000000000000000000000000000000000000000000 DUP2 MSTORE PUSH1 0x4 ADD PUSH2 0x758 SWAP1 PUSH2 0x1E23 JUMP JUMPDEST PUSH1 0x40 MLOAD DUP1 SWAP2 SUB SWAP1 REVERT JUMPDEST PUSH32 0x0 PUSH20 0xFFFFFFFFFFFFFFFFFFFFFFFFFFFFFFFFFFFFFFFF AND PUSH4 0xD0E30DB0 DUP3 PUSH1 0x40 MLOAD DUP3 PUSH4 0xFFFFFFFF AND PUSH1 0xE0 SHL DUP2 MSTORE PUSH1 0x4 ADD PUSH1 0x0 PUSH1 0x40 MLOAD DUP1 DUP4 SUB DUP2 DUP6 DUP9 DUP1 EXTCODESIZE ISZERO DUP1 ISZERO PUSH2 0x7C9 JUMPI PUSH1 0x0 DUP1 REVERT JUMPDEST POP GAS CALL ISZERO DUP1 ISZERO PUSH2 0x7DD JUMPI RETURNDATASIZE PUSH1 0x0 DUP1 RETURNDATACOPY RETURNDATASIZE PUSH1 0x0 REVERT JUMPDEST POP POP POP POP POP PUSH2 0x80D PUSH32 0x0 CALLER DUP4 PUSH2 0x1853 JUMP JUMPDEST DUP2 PUSH20 0xFFFFFFFFFFFFFFFFFFFFFFFFFFFFFFFFFFFFFFFF AND PUSH4 0x22867D78 CALLER DUP6 PUSH1 0x40 MLOAD DUP4 PUSH4 0xFFFFFFFF AND PUSH1 0xE0 SHL DUP2 MSTORE PUSH1 0x4 ADD PUSH2 0x848 SWAP3 SWAP2 SWAP1 PUSH2 0x1CEF JUMP JUMPDEST PUSH1 0x0 PUSH1 0x40 MLOAD DUP1 DUP4 SUB DUP2 PUSH1 0x0 DUP8 DUP1 EXTCODESIZE ISZERO DUP1 ISZERO PUSH2 0x862 JUMPI PUSH1 0x0 DUP1 REVERT JUMPDEST POP GAS CALL ISZERO DUP1 ISZERO PUSH2 0x876 JUMPI RETURNDATASIZE PUSH1 0x0 DUP1 RETURNDATACOPY RETURNDATASIZE PUSH1 0x0 REVERT JUMPDEST POP POP POP POP DUP1 CALLVALUE GT ISZERO PUSH2 0x898 JUMPI PUSH2 0x897 CALLER DUP3 CALLVALUE PUSH2 0x892 SWAP2 SWAP1 PUSH2 0x1E72 JUMP JUMPDEST PUSH2 0x1989 JUMP JUMPDEST JUMPDEST POP POP POP JUMP JUMPDEST PUSH1 0x0 DUP1 PUSH2 0x8A9 DUP6 PUSH2 0x41E JUMP JUMPDEST SWAP1 POP DUP1 PUSH20 0xFFFFFFFFFFFFFFFFFFFFFFFFFFFFFFFFFFFFFFFF AND PUSH4 0xAA1970DF DUP6 DUP6 PUSH1 0x40 MLOAD DUP4 PUSH4 0xFFFFFFFF AND PUSH1 0xE0 SHL DUP2 MSTORE PUSH1 0x4 ADD PUSH2 0x8E6 SWAP3 SWAP2 SWAP1 PUSH2 0x1CEF JUMP JUMPDEST PUSH1 0x20 PUSH1 0x40 MLOAD DUP1 DUP4 SUB DUP2 DUP7 GAS STATICCALL ISZERO DUP1 ISZERO PUSH2 0x903 JUMPI RETURNDATASIZE PUSH1 0x0 DUP1 RETURNDATACOPY RETURNDATASIZE PUSH1 0x0 REVERT JUMPDEST POP POP POP POP PUSH1 0x40 MLOAD RETURNDATASIZE PUSH1 0x1F NOT PUSH1 0x1F DUP3 ADD AND DUP3 ADD DUP1 PUSH1 0x40 MSTORE POP DUP2 ADD SWAP1 PUSH2 0x927 SWAP2 SWAP1 PUSH2 0x1D2D JUMP JUMPDEST SWAP2 POP POP SWAP4 SWAP3 POP POP POP JUMP JUMPDEST PUSH1 0x0 PUSH2 0x93C DUP4 PUSH2 0x41E JUMP JUMPDEST SWAP1 POP PUSH1 0x0 PUSH20 0xFFFFFFFFFFFFFFFFFFFFFFFFFFFFFFFFFFFFFFFF AND DUP2 PUSH20 0xFFFFFFFFFFFFFFFFFFFFFFFFFFFFFFFFFFFFFFFF AND EQ PUSH2 0x9E4 JUMPI DUP1 PUSH20 0xFFFFFFFFFFFFFFFFFFFFFFFFFFFFFFFFFFFFFFFF AND PUSH4 0x6E553F65 DUP4 CALLER PUSH1 0x40 MLOAD DUP4 PUSH4 0xFFFFFFFF AND PUSH1 0xE0 SHL DUP2 MSTORE PUSH1 0x4 ADD PUSH2 0x9AD SWAP3 SWAP2 SWAP1 PUSH2 0x1EA6 JUMP JUMPDEST PUSH1 0x0 PUSH1 0x40 MLOAD DUP1 DUP4 SUB DUP2 PUSH1 0x0 DUP8 DUP1 EXTCODESIZE ISZERO DUP1 ISZERO PUSH2 0x9C7 JUMPI PUSH1 0x0 DUP1 REVERT JUMPDEST POP GAS CALL ISZERO DUP1 ISZERO PUSH2 0x9DB JUMPI RETURNDATASIZE PUSH1 0x0 DUP1 RETURNDATACOPY RETURNDATASIZE PUSH1 0x0 REVERT JUMPDEST POP POP POP POP PUSH2 0xA66 JUMP JUMPDEST PUSH2 0x9ED DUP4 PUSH2 0x11C5 JUMP JUMPDEST PUSH2 0x9F6 DUP4 PUSH2 0x41E JUMP JUMPDEST SWAP1 POP DUP1 PUSH20 0xFFFFFFFFFFFFFFFFFFFFFFFFFFFFFFFFFFFFFFFF AND PUSH4 0x6E553F65 DUP4 CALLER PUSH1 0x40 MLOAD DUP4 PUSH4 0xFFFFFFFF AND PUSH1 0xE0 SHL DUP2 MSTORE PUSH1 0x4 ADD PUSH2 0xA33 SWAP3 SWAP2 SWAP1 PUSH2 0x1EA6 JUMP JUMPDEST PUSH1 0x0 PUSH1 0x40 MLOAD DUP1 DUP4 SUB DUP2 PUSH1 0x0 DUP8 DUP1 EXTCODESIZE ISZERO DUP1 ISZERO PUSH2 0xA4D JUMPI PUSH1 0x0 DUP1 REVERT JUMPDEST POP GAS CALL ISZERO DUP1 ISZERO PUSH2 0xA61 JUMPI RETURNDATASIZE PUSH1 0x0 DUP1 RETURNDATACOPY RETURNDATASIZE PUSH1 0x0 REVERT JUMPDEST POP POP POP POP JUMPDEST POP POP POP JUMP JUMPDEST PUSH1 0x0 DUP1 PUSH2 0xA77 DUP5 PUSH2 0x41E JUMP JUMPDEST SWAP1 POP PUSH1 0x0 PUSH20 0xFFFFFFFFFFFFFFFFFFFFFFFFFFFFFFFFFFFFFFFF AND DUP2 PUSH20 0xFFFFFFFFFFFFFFFFFFFFFFFFFFFFFFFFFFFFFFFF AND SUB PUSH2 0xAE8 JUMPI PUSH1 0x40 MLOAD PUSH32 0x8C379A000000000000000000000000000000000000000000000000000000000 DUP2 MSTORE PUSH1 0x4 ADD PUSH2 0xADF SWAP1 PUSH2 0x1DB7 JUMP JUMPDEST PUSH1 0x40 MLOAD DUP1 SWAP2 SUB SWAP1 REVERT JUMPDEST DUP1 PUSH20 0xFFFFFFFFFFFFFFFFFFFFFFFFFFFFFFFFFFFFFFFF AND PUSH4 0x8D113A7F DUP5 PUSH1 0x40 MLOAD DUP3 PUSH4 0xFFFFFFFF AND PUSH1 0xE0 SHL DUP2 MSTORE PUSH1 0x4 ADD PUSH2 0xB21 SWAP2 SWAP1 PUSH2 0x1B32 JUMP JUMPDEST PUSH1 0x40 DUP1 MLOAD DUP1 DUP4 SUB DUP2 DUP7 GAS STATICCALL ISZERO DUP1 ISZERO PUSH2 0xB3D JUMPI RETURNDATASIZE PUSH1 0x0 DUP1 RETURNDATACOPY RETURNDATASIZE PUSH1 0x0 REVERT JUMPDEST POP POP POP POP PUSH1 0x40 MLOAD RETURNDATASIZE PUSH1 0x1F NOT PUSH1 0x1F DUP3 ADD AND DUP3 ADD DUP1 PUSH1 0x40 MSTORE POP DUP2 ADD SWAP1 PUSH2 0xB61 SWAP2 SWAP1 PUSH2 0x1FB0 JUMP JUMPDEST PUSH1 0x0 ADD MLOAD SWAP2 POP POP SWAP3 SWAP2 POP POP JUMP JUMPDEST CALLVALUE DUP2 EQ PUSH2 0xBB0 JUMPI PUSH1 0x40 MLOAD PUSH32 0x8C379A000000000000000000000000000000000000000000000000000000000 DUP2 MSTORE PUSH1 0x4 ADD PUSH2 0xBA7 SWAP1 PUSH2 0x2029 JUMP JUMPDEST PUSH1 0x40 MLOAD DUP1 SWAP2 SUB SWAP1 REVERT JUMPDEST PUSH1 0x0 PUSH2 0xBDB PUSH32 0x0 PUSH2 0x41E JUMP JUMPDEST SWAP1 POP PUSH32 0x0 PUSH20 0xFFFFFFFFFFFFFFFFFFFFFFFFFFFFFFFFFFFFFFFF AND PUSH4 0xD0E30DB0 CALLVALUE PUSH1 0x40 MLOAD DUP3 PUSH4 0xFFFFFFFF AND PUSH1 0xE0 SHL DUP2 MSTORE PUSH1 0x4 ADD PUSH1 0x0 PUSH1 0x40 MLOAD DUP1 DUP4 SUB DUP2 DUP6 DUP9 DUP1 EXTCODESIZE ISZERO DUP1 ISZERO PUSH2 0xC45 JUMPI PUSH1 0x0 DUP1 REVERT JUMPDEST POP GAS CALL ISZERO DUP1 ISZERO PUSH2 0xC59 JUMPI RETURNDATASIZE PUSH1 0x0 DUP1 RETURNDATACOPY RETURNDATASIZE PUSH1 0x0 REVERT JUMPDEST POP POP POP POP POP PUSH2 0xC89 PUSH32 0x0 CALLER CALLVALUE PUSH2 0x1853 JUMP JUMPDEST PUSH1 0x0 PUSH20 0xFFFFFFFFFFFFFFFFFFFFFFFFFFFFFFFFFFFFFFFF AND DUP2 PUSH20 0xFFFFFFFFFFFFFFFFFFFFFFFFFFFFFFFFFFFFFFFF AND EQ PUSH2 0xD2F JUMPI DUP1 PUSH20 0xFFFFFFFFFFFFFFFFFFFFFFFFFFFFFFFFFFFFFFFF AND PUSH4 0x6E553F65 DUP4 CALLER PUSH1 0x40 MLOAD DUP4 PUSH4 0xFFFFFFFF AND PUSH1 0xE0 SHL DUP2 MSTORE PUSH1 0x4 ADD PUSH2 0xCF8 SWAP3 SWAP2 SWAP1 PUSH2 0x1EA6 JUMP JUMPDEST PUSH1 0x0 PUSH1 0x40 MLOAD DUP1 DUP4 SUB DUP2 PUSH1 0x0 DUP8 DUP1 EXTCODESIZE ISZERO DUP1 ISZERO PUSH2 0xD12 JUMPI PUSH1 0x0 DUP1 REVERT JUMPDEST POP GAS CALL ISZERO DUP1 ISZERO PUSH2 0xD26 JUMPI RETURNDATASIZE PUSH1 0x0 DUP1 RETURNDATACOPY RETURNDATASIZE PUSH1 0x0 REVERT JUMPDEST POP POP POP POP PUSH2 0xDF1 JUMP JUMPDEST PUSH2 0xD58 PUSH32 0x0 PUSH2 0x11C5 JUMP JUMPDEST PUSH2 0xD81 PUSH32 0x0 PUSH2 0x41E JUMP JUMPDEST SWAP1 POP DUP1 PUSH20 0xFFFFFFFFFFFFFFFFFFFFFFFFFFFFFFFFFFFFFFFF AND PUSH4 0x6E553F65 DUP4 CALLER PUSH1 0x40 MLOAD DUP4 PUSH4 0xFFFFFFFF AND PUSH1 0xE0 SHL DUP2 MSTORE PUSH1 0x4 ADD PUSH2 0xDBE SWAP3 SWAP2 SWAP1 PUSH2 0x1EA6 JUMP JUMPDEST PUSH1 0x0 PUSH1 0x40 MLOAD DUP1 DUP4 SUB DUP2 PUSH1 0x0 DUP8 DUP1 EXTCODESIZE ISZERO DUP1 ISZERO PUSH2 0xDD8 JUMPI PUSH1 0x0 DUP1 REVERT JUMPDEST POP GAS CALL ISZERO DUP1 ISZERO PUSH2 0xDEC JUMPI RETURNDATASIZE PUSH1 0x0 DUP1 RETURNDATACOPY RETURNDATASIZE PUSH1 0x0 REVERT JUMPDEST POP POP POP POP JUMPDEST POP POP JUMP JUMPDEST PUSH1 0x0 PUSH2 0xE00 DUP4 PUSH2 0x41E JUMP JUMPDEST SWAP1 POP PUSH1 0x0 PUSH20 0xFFFFFFFFFFFFFFFFFFFFFFFFFFFFFFFFFFFFFFFF AND DUP2 PUSH20 0xFFFFFFFFFFFFFFFFFFFFFFFFFFFFFFFFFFFFFFFF AND SUB PUSH2 0xE71 JUMPI PUSH1 0x40 MLOAD PUSH32 0x8C379A000000000000000000000000000000000000000000000000000000000 DUP2 MSTORE PUSH1 0x4 ADD PUSH2 0xE68 SWAP1 PUSH2 0x1DB7 JUMP JUMPDEST PUSH1 0x40 MLOAD DUP1 SWAP2 SUB SWAP1 REVERT JUMPDEST DUP1 PUSH20 0xFFFFFFFFFFFFFFFFFFFFFFFFFFFFFFFFFFFFFFFF AND PUSH4 0x4B3FD148 DUP4 CALLER PUSH1 0x40 MLOAD DUP4 PUSH4 0xFFFFFFFF AND PUSH1 0xE0 SHL DUP2 MSTORE PUSH1 0x4 ADD PUSH2 0xEAC SWAP3 SWAP2 SWAP1 PUSH2 0x1EA6 JUMP JUMPDEST PUSH1 0x0 PUSH1 0x40 MLOAD DUP1 DUP4 SUB DUP2 PUSH1 0x0 DUP8 DUP1 EXTCODESIZE ISZERO DUP1 ISZERO PUSH2 0xEC6 JUMPI PUSH1 0x0 DUP1 REVERT JUMPDEST POP GAS CALL ISZERO DUP1 ISZERO PUSH2 0xEDA JUMPI RETURNDATASIZE PUSH1 0x0 DUP1 RETURNDATACOPY RETURNDATASIZE PUSH1 0x0 REVERT JUMPDEST POP POP POP POP POP POP POP JUMP JUMPDEST PUSH1 0x0 PUSH2 0xF0E PUSH32 0x0 PUSH2 0x41E JUMP JUMPDEST SWAP1 POP PUSH1 0x0 PUSH20 0xFFFFFFFFFFFFFFFFFFFFFFFFFFFFFFFFFFFFFFFF AND DUP2 PUSH20 0xFFFFFFFFFFFFFFFFFFFFFFFFFFFFFFFFFFFFFFFF AND SUB PUSH2 0xF7F JUMPI PUSH1 0x40 MLOAD PUSH32 0x8C379A000000000000000000000000000000000000000000000000000000000 DUP2 MSTORE PUSH1 0x4 ADD PUSH2 0xF76 SWAP1 PUSH2 0x1DB7 JUMP JUMPDEST PUSH1 0x40 MLOAD DUP1 SWAP2 SUB SWAP1 REVERT JUMPDEST DUP1 PUSH20 0xFFFFFFFFFFFFFFFFFFFFFFFFFFFFFFFFFFFFFFFF AND PUSH4 0x4B3FD148 DUP4 CALLER PUSH1 0x40 MLOAD DUP4 PUSH4 0xFFFFFFFF AND PUSH1 0xE0 SHL DUP2 MSTORE PUSH1 0x4 ADD PUSH2 0xFBA SWAP3 SWAP2 SWAP1 PUSH2 0x1EA6 JUMP JUMPDEST PUSH1 0x0 PUSH1 0x40 MLOAD DUP1 DUP4 SUB DUP2 PUSH1 0x0 DUP8 DUP1 EXTCODESIZE ISZERO DUP1 ISZERO PUSH2 0xFD4 JUMPI PUSH1 0x0 DUP1 REVERT JUMPDEST POP GAS CALL ISZERO DUP1 ISZERO PUSH2 0xFE8 JUMPI RETURNDATASIZE PUSH1 0x0 DUP1 RETURNDATACOPY RETURNDATASIZE PUSH1 0x0 REVERT JUMPDEST POP POP POP POP PUSH32 0x0 PUSH20 0xFFFFFFFFFFFFFFFFFFFFFFFFFFFFFFFFFFFFFFFF AND PUSH4 0x95EA7B3 ADDRESS DUP5 PUSH1 0x40 MLOAD DUP4 PUSH4 0xFFFFFFFF AND PUSH1 0xE0 SHL DUP2 MSTORE PUSH1 0x4 ADD PUSH2 0x1047 SWAP3 SWAP2 SWAP1 PUSH2 0x1CEF JUMP JUMPDEST PUSH1 0x20 PUSH1 0x40 MLOAD DUP1 DUP4 SUB DUP2 PUSH1 0x0 DUP8 GAS CALL ISZERO DUP1 ISZERO PUSH2 0x1066 JUMPI RETURNDATASIZE PUSH1 0x0 DUP1 RETURNDATACOPY RETURNDATASIZE PUSH1 0x0 REVERT JUMPDEST POP POP POP POP PUSH1 0x40 MLOAD RETURNDATASIZE PUSH1 0x1F NOT PUSH1 0x1F DUP3 ADD AND DUP3 ADD DUP1 PUSH1 0x40 MSTORE POP DUP2 ADD SWAP1 PUSH2 0x108A SWAP2 SWAP1 PUSH2 0x2081 JUMP JUMPDEST POP PUSH32 0x0 PUSH20 0xFFFFFFFFFFFFFFFFFFFFFFFFFFFFFFFFFFFFFFFF AND PUSH4 0x23B872DD CALLER ADDRESS DUP6 PUSH1 0x40 MLOAD DUP5 PUSH4 0xFFFFFFFF AND PUSH1 0xE0 SHL DUP2 MSTORE PUSH1 0x4 ADD PUSH2 0x10E8 SWAP4 SWAP3 SWAP2 SWAP1 PUSH2 0x20AE JUMP JUMPDEST PUSH1 0x20 PUSH1 0x40 MLOAD DUP1 DUP4 SUB DUP2 PUSH1 0x0 DUP8 GAS CALL ISZERO DUP1 ISZERO PUSH2 0x1107 JUMPI RETURNDATASIZE PUSH1 0x0 DUP1 RETURNDATACOPY RETURNDATASIZE PUSH1 0x0 REVERT JUMPDEST POP POP POP POP PUSH1 0x40 MLOAD RETURNDATASIZE PUSH1 0x1F NOT PUSH1 0x1F DUP3 ADD AND DUP3 ADD DUP1 PUSH1 0x40 MSTORE POP DUP2 ADD SWAP1 PUSH2 0x112B SWAP2 SWAP1 PUSH2 0x2081 JUMP JUMPDEST POP PUSH32 0x0 PUSH20 0xFFFFFFFFFFFFFFFFFFFFFFFFFFFFFFFFFFFFFFFF AND PUSH4 0x2E1A7D4D DUP4 PUSH1 0x40 MLOAD DUP3 PUSH4 0xFFFFFFFF AND PUSH1 0xE0 SHL DUP2 MSTORE PUSH1 0x4 ADD PUSH2 0x1185 SWAP2 SWAP1 PUSH2 0x1BE5 JUMP JUMPDEST PUSH1 0x0 PUSH1 0x40 MLOAD DUP1 DUP4 SUB DUP2 PUSH1 0x0 DUP8 DUP1 EXTCODESIZE ISZERO DUP1 ISZERO PUSH2 0x119F JUMPI PUSH1 0x0 DUP1 REVERT JUMPDEST POP GAS CALL ISZERO DUP1 ISZERO PUSH2 0x11B3 JUMPI RETURNDATASIZE PUSH1 0x0 DUP1 RETURNDATACOPY RETURNDATASIZE PUSH1 0x0 REVERT JUMPDEST POP POP POP POP PUSH2 0x11C1 CALLER DUP4 PUSH2 0x1989 JUMP JUMPDEST POP POP JUMP JUMPDEST PUSH32 0x0 PUSH20 0xFFFFFFFFFFFFFFFFFFFFFFFFFFFFFFFFFFFFFFFF AND PUSH4 0x9049F9D2 DUP3 PUSH1 0x40 MLOAD DUP3 PUSH4 0xFFFFFFFF AND PUSH1 0xE0 SHL DUP2 MSTORE PUSH1 0x4 ADD PUSH2 0x121E SWAP2 SWAP1 PUSH2 0x1B32 JUMP JUMPDEST PUSH1 0x20 PUSH1 0x40 MLOAD DUP1 DUP4 SUB DUP2 PUSH1 0x0 DUP8 GAS CALL ISZERO DUP1 ISZERO PUSH2 0x123D JUMPI RETURNDATASIZE PUSH1 0x0 DUP1 RETURNDATACOPY RETURNDATASIZE PUSH1 0x0 REVERT JUMPDEST POP POP POP POP PUSH1 0x40 MLOAD RETURNDATASIZE PUSH1 0x1F NOT PUSH1 0x1F DUP3 ADD AND DUP3 ADD DUP1 PUSH1 0x40 MSTORE POP DUP2 ADD SWAP1 PUSH2 0x1261 SWAP2 SWAP1 PUSH2 0x1CC2 JUMP JUMPDEST POP POP JUMP JUMPDEST PUSH1 0x0 DUP1 PUSH2 0x1271 DUP5 PUSH2 0x41E JUMP JUMPDEST SWAP1 POP PUSH1 0x0 PUSH20 0xFFFFFFFFFFFFFFFFFFFFFFFFFFFFFFFFFFFFFFFF AND DUP2 PUSH20 0xFFFFFFFFFFFFFFFFFFFFFFFFFFFFFFFFFFFFFFFF AND SUB PUSH2 0x12E2 JUMPI PUSH1 0x40 MLOAD PUSH32 0x8C379A000000000000000000000000000000000000000000000000000000000 DUP2 MSTORE PUSH1 0x4 ADD PUSH2 0x12D9 SWAP1 PUSH2 0x1DB7 JUMP JUMPDEST PUSH1 0x40 MLOAD DUP1 SWAP2 SUB SWAP1 REVERT JUMPDEST DUP1 PUSH20 0xFFFFFFFFFFFFFFFFFFFFFFFFFFFFFFFFFFFFFFFF AND PUSH4 0x1C78DA26 DUP5 PUSH1 0x40 MLOAD DUP3 PUSH4 0xFFFFFFFF AND PUSH1 0xE0 SHL DUP2 MSTORE PUSH1 0x4 ADD PUSH2 0x131B SWAP2 SWAP1 PUSH2 0x1B32 JUMP JUMPDEST PUSH1 0x40 DUP1 MLOAD DUP1 DUP4 SUB DUP2 DUP7 GAS STATICCALL ISZERO DUP1 ISZERO PUSH2 0x1337 JUMPI RETURNDATASIZE PUSH1 0x0 DUP1 RETURNDATACOPY RETURNDATASIZE PUSH1 0x0 REVERT JUMPDEST POP POP POP POP PUSH1 0x40 MLOAD RETURNDATASIZE PUSH1 0x1F NOT PUSH1 0x1F DUP3 ADD AND DUP3 ADD DUP1 PUSH1 0x40 MSTORE POP DUP2 ADD SWAP1 PUSH2 0x135B SWAP2 SWAP1 PUSH2 0x1FB0 JUMP JUMPDEST PUSH1 0x0 ADD MLOAD SWAP2 POP POP SWAP3 SWAP2 POP POP JUMP JUMPDEST PUSH1 0x0 PUSH2 0x1373 DUP4 PUSH2 0x41E JUMP JUMPDEST SWAP1 POP PUSH1 0x0 PUSH20 0xFFFFFFFFFFFFFFFFFFFFFFFFFFFFFFFFFFFFFFFF AND DUP2 PUSH20 0xFFFFFFFFFFFFFFFFFFFFFFFFFFFFFFFFFFFFFFFF AND SUB PUSH2 0x13E4 JUMPI PUSH1 0x40 MLOAD PUSH32 0x8C379A000000000000000000000000000000000000000000000000000000000 DUP2 MSTORE PUSH1 0x4 ADD PUSH2 0x13DB SWAP1 PUSH2 0x1DB7 JUMP JUMPDEST PUSH1 0x40 MLOAD DUP1 SWAP2 SUB SWAP1 REVERT JUMPDEST PUSH1 0x0 DUP2 PUSH20 0xFFFFFFFFFFFFFFFFFFFFFFFFFFFFFFFFFFFFFFFF AND PUSH4 0x1C78DA26 CALLER PUSH1 0x40 MLOAD DUP3 PUSH4 0xFFFFFFFF AND PUSH1 0xE0 SHL DUP2 MSTORE PUSH1 0x4 ADD PUSH2 0x141F SWAP2 SWAP1 PUSH2 0x1B32 JUMP JUMPDEST PUSH1 0x40 DUP1 MLOAD DUP1 DUP4 SUB DUP2 DUP7 GAS STATICCALL ISZERO DUP1 ISZERO PUSH2 0x143B JUMPI RETURNDATASIZE PUSH1 0x0 DUP1 RETURNDATACOPY RETURNDATASIZE PUSH1 0x0 REVERT JUMPDEST POP POP POP POP PUSH1 0x40 MLOAD RETURNDATASIZE PUSH1 0x1F NOT PUSH1 0x1F DUP3 ADD AND DUP3 ADD DUP1 PUSH1 0x40 MSTORE POP DUP2 ADD SWAP1 PUSH2 0x145F SWAP2 SWAP1 PUSH2 0x1FB0 JUMP JUMPDEST PUSH1 0x0 ADD MLOAD GT PUSH2 0x14A3 JUMPI PUSH1 0x40 MLOAD PUSH32 0x8C379A000000000000000000000000000000000000000000000000000000000 DUP2 MSTORE PUSH1 0x4 ADD PUSH2 0x149A SWAP1 PUSH2 0x2131 JUMP JUMPDEST PUSH1 0x40 MLOAD DUP1 SWAP2 SUB SWAP1 REVERT JUMPDEST DUP1 PUSH20 0xFFFFFFFFFFFFFFFFFFFFFFFFFFFFFFFFFFFFFFFF AND PUSH4 0xF3FEF3A3 CALLER DUP5 PUSH1 0x40 MLOAD DUP4 PUSH4 0xFFFFFFFF AND PUSH1 0xE0 SHL DUP2 MSTORE PUSH1 0x4 ADD PUSH2 0x14DE SWAP3 SWAP2 SWAP1 PUSH2 0x1CEF JUMP JUMPDEST PUSH1 0x0 PUSH1 0x40 MLOAD DUP1 DUP4 SUB DUP2 PUSH1 0x0 DUP8 DUP1 EXTCODESIZE ISZERO DUP1 ISZERO PUSH2 0x14F8 JUMPI PUSH1 0x0 DUP1 REVERT JUMPDEST POP GAS CALL ISZERO DUP1 ISZERO PUSH2 0x150C JUMPI RETURNDATASIZE PUSH1 0x0 DUP1 RETURNDATACOPY RETURNDATASIZE PUSH1 0x0 REVERT JUMPDEST POP POP POP POP POP POP POP JUMP JUMPDEST PUSH32 0x0 DUP2 JUMP JUMPDEST PUSH1 0x0 PUSH2 0x1564 PUSH32 0x0 PUSH2 0x41E JUMP JUMPDEST SWAP1 POP PUSH1 0x0 PUSH20 0xFFFFFFFFFFFFFFFFFFFFFFFFFFFFFFFFFFFFFFFF AND DUP2 PUSH20 0xFFFFFFFFFFFFFFFFFFFFFFFFFFFFFFFFFFFFFFFF AND SUB PUSH2 0x15D5 JUMPI PUSH1 0x40 MLOAD PUSH32 0x8C379A000000000000000000000000000000000000000000000000000000000 DUP2 MSTORE PUSH1 0x4 ADD PUSH2 0x15CC SWAP1 PUSH2 0x1DB7 JUMP JUMPDEST PUSH1 0x40 MLOAD DUP1 SWAP2 SUB SWAP1 REVERT JUMPDEST PUSH1 0x0 PUSH2 0x1602 PUSH32 0x0 CALLER DUP6 PUSH2 0x4C1 JUMP JUMPDEST SWAP1 POP DUP2 PUSH20 0xFFFFFFFFFFFFFFFFFFFFFFFFFFFFFFFFFFFFFFFF AND PUSH4 0xF3FEF3A3 CALLER DUP6 PUSH1 0x40 MLOAD DUP4 PUSH4 0xFFFFFFFF AND PUSH1 0xE0 SHL DUP2 MSTORE PUSH1 0x4 ADD PUSH2 0x163F SWAP3 SWAP2 SWAP1 PUSH2 0x1CEF JUMP JUMPDEST PUSH1 0x0 PUSH1 0x40 MLOAD DUP1 DUP4 SUB DUP2 PUSH1 0x0 DUP8 DUP1 EXTCODESIZE ISZERO DUP1 ISZERO PUSH2 0x1659 JUMPI PUSH1 0x0 DUP1 REVERT JUMPDEST POP GAS CALL ISZERO DUP1 ISZERO PUSH2 0x166D JUMPI RETURNDATASIZE PUSH1 0x0 DUP1 RETURNDATACOPY RETURNDATASIZE PUSH1 0x0 REVERT JUMPDEST POP POP POP POP PUSH32 0x0 PUSH20 0xFFFFFFFFFFFFFFFFFFFFFFFFFFFFFFFFFFFFFFFF AND PUSH4 0x23B872DD CALLER ADDRESS DUP5 PUSH1 0x40 MLOAD DUP5 PUSH4 0xFFFFFFFF AND PUSH1 0xE0 SHL DUP2 MSTORE PUSH1 0x4 ADD PUSH2 0x16CE SWAP4 SWAP3 SWAP2 SWAP1 PUSH2 0x20AE JUMP JUMPDEST PUSH1 0x20 PUSH1 0x40 MLOAD DUP1 DUP4 SUB DUP2 PUSH1 0x0 DUP8 GAS CALL ISZERO DUP1 ISZERO PUSH2 0x16ED JUMPI RETURNDATASIZE PUSH1 0x0 DUP1 RETURNDATACOPY RETURNDATASIZE PUSH1 0x0 REVERT JUMPDEST POP POP POP POP PUSH1 0x40 MLOAD RETURNDATASIZE PUSH1 0x1F NOT PUSH1 0x1F DUP3 ADD AND DUP3 ADD DUP1 PUSH1 0x40 MSTORE POP DUP2 ADD SWAP1 PUSH2 0x1711 SWAP2 SWAP1 PUSH2 0x2081 JUMP JUMPDEST POP PUSH32 0x0 PUSH20 0xFFFFFFFFFFFFFFFFFFFFFFFFFFFFFFFFFFFFFFFF AND PUSH4 0x2E1A7D4D DUP3 PUSH1 0x40 MLOAD DUP3 PUSH4 0xFFFFFFFF AND PUSH1 0xE0 SHL DUP2 MSTORE PUSH1 0x4 ADD PUSH2 0x176B SWAP2 SWAP1 PUSH2 0x1BE5 JUMP JUMPDEST PUSH1 0x0 PUSH1 0x40 MLOAD DUP1 DUP4 SUB DUP2 PUSH1 0x0 DUP8 DUP1 EXTCODESIZE ISZERO DUP1 ISZERO PUSH2 0x1785 JUMPI PUSH1 0x0 DUP1 REVERT JUMPDEST POP GAS CALL ISZERO DUP1 ISZERO PUSH2 0x1799 JUMPI RETURNDATASIZE PUSH1 0x0 DUP1 RETURNDATACOPY RETURNDATASIZE PUSH1 0x0 REVERT JUMPDEST POP POP POP POP PUSH2 0x17A7 CALLER DUP5 PUSH2 0x1989 JUMP JUMPDEST POP POP POP JUMP JUMPDEST PUSH1 0x0 DUP2 PUSH20 0xFFFFFFFFFFFFFFFFFFFFFFFFFFFFFFFFFFFFFFFF AND PUSH4 0x70A08231 CALLER PUSH1 0x40 MLOAD DUP3 PUSH4 0xFFFFFFFF AND PUSH1 0xE0 SHL DUP2 MSTORE PUSH1 0x4 ADD PUSH2 0x17E7 SWAP2 SWAP1 PUSH2 0x1B32 JUMP JUMPDEST PUSH1 0x20 PUSH1 0x40 MLOAD DUP1 DUP4 SUB DUP2 DUP7 GAS STATICCALL ISZERO DUP1 ISZERO PUSH2 0x1804 JUMPI RETURNDATASIZE PUSH1 0x0 DUP1 RETURNDATACOPY RETURNDATASIZE PUSH1 0x0 REVERT JUMPDEST POP POP POP POP PUSH1 0x40 MLOAD RETURNDATASIZE PUSH1 0x1F NOT PUSH1 0x1F DUP3 ADD AND DUP3 ADD DUP1 PUSH1 0x40 MSTORE POP DUP2 ADD SWAP1 PUSH2 0x1828 SWAP2 SWAP1 PUSH2 0x1D2D JUMP JUMPDEST SWAP1 POP SWAP2 SWAP1 POP JUMP JUMPDEST PUSH32 0x0 DUP2 JUMP JUMPDEST PUSH1 0x0 DUP1 DUP5 PUSH20 0xFFFFFFFFFFFFFFFFFFFFFFFFFFFFFFFFFFFFFFFF AND PUSH4 0xA9059CBB DUP6 DUP6 PUSH1 0x40 MLOAD PUSH1 0x24 ADD PUSH2 0x1885 SWAP3 SWAP2 SWAP1 PUSH2 0x1CEF JUMP JUMPDEST PUSH1 0x40 MLOAD PUSH1 0x20 DUP2 DUP4 SUB SUB DUP2 MSTORE SWAP1 PUSH1 0x40 MSTORE SWAP1 PUSH1 0xE0 SHL PUSH1 0x20 DUP3 ADD DUP1 MLOAD PUSH28 0xFFFFFFFFFFFFFFFFFFFFFFFFFFFFFFFFFFFFFFFFFFFFFFFFFFFFFFFF DUP4 DUP2 DUP4 AND OR DUP4 MSTORE POP POP POP POP PUSH1 0x40 MLOAD PUSH2 0x18D3 SWAP2 SWAP1 PUSH2 0x21C2 JUMP JUMPDEST PUSH1 0x0 PUSH1 0x40 MLOAD DUP1 DUP4 SUB DUP2 PUSH1 0x0 DUP7 GAS CALL SWAP2 POP POP RETURNDATASIZE DUP1 PUSH1 0x0 DUP2 EQ PUSH2 0x1910 JUMPI PUSH1 0x40 MLOAD SWAP2 POP PUSH1 0x1F NOT PUSH1 0x3F RETURNDATASIZE ADD AND DUP3 ADD PUSH1 0x40 MSTORE RETURNDATASIZE DUP3 MSTORE RETURNDATASIZE PUSH1 0x0 PUSH1 0x20 DUP5 ADD RETURNDATACOPY PUSH2 0x1915 JUMP JUMPDEST PUSH1 0x60 SWAP2 POP JUMPDEST POP SWAP2 POP SWAP2 POP DUP2 DUP1 ISZERO PUSH2 0x1943 JUMPI POP PUSH1 0x0 DUP2 MLOAD EQ DUP1 PUSH2 0x1942 JUMPI POP DUP1 DUP1 PUSH1 0x20 ADD SWAP1 MLOAD DUP2 ADD SWAP1 PUSH2 0x1941 SWAP2 SWAP1 PUSH2 0x2081 JUMP JUMPDEST JUMPDEST JUMPDEST PUSH2 0x1982 JUMPI PUSH1 0x40 MLOAD PUSH32 0x8C379A000000000000000000000000000000000000000000000000000000000 DUP2 MSTORE PUSH1 0x4 ADD PUSH2 0x1979 SWAP1 PUSH2 0x224B JUMP JUMPDEST PUSH1 0x40 MLOAD DUP1 SWAP2 SUB SWAP1 REVERT JUMPDEST POP POP POP POP POP JUMP JUMPDEST PUSH1 0x0 DUP3 PUSH20 0xFFFFFFFFFFFFFFFFFFFFFFFFFFFFFFFFFFFFFFFF AND DUP3 PUSH1 0x0 PUSH8 0xFFFFFFFFFFFFFFFF DUP2 GT ISZERO PUSH2 0x19BE JUMPI PUSH2 0x19BD PUSH2 0x1EE5 JUMP JUMPDEST JUMPDEST PUSH1 0x40 MLOAD SWAP1 DUP1 DUP3 MSTORE DUP1 PUSH1 0x1F ADD PUSH1 0x1F NOT AND PUSH1 0x20 ADD DUP3 ADD PUSH1 0x40 MSTORE DUP1 ISZERO PUSH2 0x19F0 JUMPI DUP2 PUSH1 0x20 ADD PUSH1 0x1 DUP3 MUL DUP1 CALLDATASIZE DUP4 CALLDATACOPY DUP1 DUP3 ADD SWAP2 POP POP SWAP1 POP JUMPDEST POP PUSH1 0x40 MLOAD PUSH2 0x19FE SWAP2 SWAP1 PUSH2 0x21C2 JUMP JUMPDEST PUSH1 0x0 PUSH1 0x40 MLOAD DUP1 DUP4 SUB DUP2 DUP6 DUP8 GAS CALL SWAP3 POP POP POP RETURNDATASIZE DUP1 PUSH1 0x0 DUP2 EQ PUSH2 0x1A3B JUMPI PUSH1 0x40 MLOAD SWAP2 POP PUSH1 0x1F NOT PUSH1 0x3F RETURNDATASIZE ADD AND DUP3 ADD PUSH1 0x40 MSTORE RETURNDATASIZE DUP3 MSTORE RETURNDATASIZE PUSH1 0x0 PUSH1 0x20 DUP5 ADD RETURNDATACOPY PUSH2 0x1A40 JUMP JUMPDEST PUSH1 0x60 SWAP2 POP JUMPDEST POP POP SWAP1 POP DUP1 PUSH2 0x1A84 JUMPI PUSH1 0x40 MLOAD PUSH32 0x8C379A000000000000000000000000000000000000000000000000000000000 DUP2 MSTORE PUSH1 0x4 ADD PUSH2 0x1A7B SWAP1 PUSH2 0x22DD JUMP JUMPDEST PUSH1 0x40 MLOAD DUP1 SWAP2 SUB SWAP1 REVERT JUMPDEST POP POP POP JUMP JUMPDEST PUSH1 0x0 PUSH1 0x40 MLOAD SWAP1 POP SWAP1 JUMP JUMPDEST PUSH1 0x0 DUP1 REVERT JUMPDEST PUSH1 0x0 PUSH20 0xFFFFFFFFFFFFFFFFFFFFFFFFFFFFFFFFFFFFFFFF DUP3 AND SWAP1 POP SWAP2 SWAP1 POP JUMP JUMPDEST PUSH1 0x0 PUSH2 0x1AC3 DUP3 PUSH2 0x1A98 JUMP JUMPDEST SWAP1 POP SWAP2 SWAP1 POP JUMP JUMPDEST PUSH2 0x1AD3 DUP2 PUSH2 0x1AB8 JUMP JUMPDEST DUP2 EQ PUSH2 0x1ADE JUMPI PUSH1 0x0 DUP1 REVERT JUMPDEST POP JUMP JUMPDEST PUSH1 0x0 DUP2 CALLDATALOAD SWAP1 POP PUSH2 0x1AF0 DUP2 PUSH2 0x1ACA JUMP JUMPDEST SWAP3 SWAP2 POP POP JUMP JUMPDEST PUSH1 0x0 PUSH1 0x20 DUP3 DUP5 SUB SLT ISZERO PUSH2 0x1B0C JUMPI PUSH2 0x1B0B PUSH2 0x1A93 JUMP JUMPDEST JUMPDEST PUSH1 0x0 PUSH2 0x1B1A DUP5 DUP3 DUP6 ADD PUSH2 0x1AE1 JUMP JUMPDEST SWAP2 POP POP SWAP3 SWAP2 POP POP JUMP JUMPDEST PUSH2 0x1B2C DUP2 PUSH2 0x1AB8 JUMP JUMPDEST DUP3 MSTORE POP POP JUMP JUMPDEST PUSH1 0x0 PUSH1 0x20 DUP3 ADD SWAP1 POP PUSH2 0x1B47 PUSH1 0x0 DUP4 ADD DUP5 PUSH2 0x1B23 JUMP JUMPDEST SWAP3 SWAP2 POP POP JUMP JUMPDEST PUSH1 0x0 DUP2 SWAP1 POP SWAP2 SWAP1 POP JUMP JUMPDEST PUSH2 0x1B60 DUP2 PUSH2 0x1B4D JUMP JUMPDEST DUP2 EQ PUSH2 0x1B6B JUMPI PUSH1 0x0 DUP1 REVERT JUMPDEST POP JUMP JUMPDEST PUSH1 0x0 DUP2 CALLDATALOAD SWAP1 POP PUSH2 0x1B7D DUP2 PUSH2 0x1B57 JUMP JUMPDEST SWAP3 SWAP2 POP POP JUMP JUMPDEST PUSH1 0x0 DUP1 PUSH1 0x0 PUSH1 0x60 DUP5 DUP7 SUB SLT ISZERO PUSH2 0x1B9C JUMPI PUSH2 0x1B9B PUSH2 0x1A93 JUMP JUMPDEST JUMPDEST PUSH1 0x0 PUSH2 0x1BAA DUP7 DUP3 DUP8 ADD PUSH2 0x1AE1 JUMP JUMPDEST SWAP4 POP POP PUSH1 0x20 PUSH2 0x1BBB DUP7 DUP3 DUP8 ADD PUSH2 0x1AE1 JUMP JUMPDEST SWAP3 POP POP PUSH1 0x40 PUSH2 0x1BCC DUP7 DUP3 DUP8 ADD PUSH2 0x1B6E JUMP JUMPDEST SWAP2 POP POP SWAP3 POP SWAP3 POP SWAP3 JUMP JUMPDEST PUSH2 0x1BDF DUP2 PUSH2 0x1B4D JUMP JUMPDEST DUP3 MSTORE POP POP JUMP JUMPDEST PUSH1 0x0 PUSH1 0x20 DUP3 ADD SWAP1 POP PUSH2 0x1BFA PUSH1 0x0 DUP4 ADD DUP5 PUSH2 0x1BD6 JUMP JUMPDEST SWAP3 SWAP2 POP POP JUMP JUMPDEST PUSH1 0x0 DUP1 PUSH1 0x40 DUP4 DUP6 SUB SLT ISZERO PUSH2 0x1C17 JUMPI PUSH2 0x1C16 PUSH2 0x1A93 JUMP JUMPDEST JUMPDEST PUSH1 0x0 PUSH2 0x1C25 DUP6 DUP3 DUP7 ADD PUSH2 0x1AE1 JUMP JUMPDEST SWAP3 POP POP PUSH1 0x20 PUSH2 0x1C36 DUP6 DUP3 DUP7 ADD PUSH2 0x1B6E JUMP JUMPDEST SWAP2 POP POP SWAP3 POP SWAP3 SWAP1 POP JUMP JUMPDEST PUSH1 0x0 PUSH1 0x20 DUP3 DUP5 SUB SLT ISZERO PUSH2 0x1C56 JUMPI PUSH2 0x1C55 PUSH2 0x1A93 JUMP JUMPDEST JUMPDEST PUSH1 0x0 PUSH2 0x1C64 DUP5 DUP3 DUP6 ADD PUSH2 0x1B6E JUMP JUMPDEST SWAP2 POP POP SWAP3 SWAP2 POP POP JUMP JUMPDEST PUSH1 0x0 DUP1 PUSH1 0x40 DUP4 DUP6 SUB SLT ISZERO PUSH2 0x1C84 JUMPI PUSH2 0x1C83 PUSH2 0x1A93 JUMP JUMPDEST JUMPDEST PUSH1 0x0 PUSH2 0x1C92 DUP6 DUP3 DUP7 ADD PUSH2 0x1AE1 JUMP JUMPDEST SWAP3 POP POP PUSH1 0x20 PUSH2 0x1CA3 DUP6 DUP3 DUP7 ADD PUSH2 0x1AE1 JUMP JUMPDEST SWAP2 POP POP SWAP3 POP SWAP3 SWAP1 POP JUMP JUMPDEST PUSH1 0x0 DUP2 MLOAD SWAP1 POP PUSH2 0x1CBC DUP2 PUSH2 0x1ACA JUMP JUMPDEST SWAP3 SWAP2 POP POP JUMP JUMPDEST PUSH1 0x0 PUSH1 0x20 DUP3 DUP5 SUB SLT ISZERO PUSH2 0x1CD8 JUMPI PUSH2 0x1CD7 PUSH2 0x1A93 JUMP JUMPDEST JUMPDEST PUSH1 0x0 PUSH2 0x1CE6 DUP5 DUP3 DUP6 ADD PUSH2 0x1CAD JUMP JUMPDEST SWAP2 POP POP SWAP3 SWAP2 POP POP JUMP JUMPDEST PUSH1 0x0 PUSH1 0x40 DUP3 ADD SWAP1 POP PUSH2 0x1D04 PUSH1 0x0 DUP4 ADD DUP6 PUSH2 0x1B23 JUMP JUMPDEST PUSH2 0x1D11 PUSH1 0x20 DUP4 ADD DUP5 PUSH2 0x1BD6 JUMP JUMPDEST SWAP4 SWAP3 POP POP POP JUMP JUMPDEST PUSH1 0x0 DUP2 MLOAD SWAP1 POP PUSH2 0x1D27 DUP2 PUSH2 0x1B57 JUMP JUMPDEST SWAP3 SWAP2 POP POP JUMP JUMPDEST PUSH1 0x0 PUSH1 0x20 DUP3 DUP5 SUB SLT ISZERO PUSH2 0x1D43 JUMPI PUSH2 0x1D42 PUSH2 0x1A93 JUMP JUMPDEST JUMPDEST PUSH1 0x0 PUSH2 0x1D51 DUP5 DUP3 DUP6 ADD PUSH2 0x1D18 JUMP JUMPDEST SWAP2 POP POP SWAP3 SWAP2 POP POP JUMP JUMPDEST PUSH1 0x0 DUP3 DUP3 MSTORE PUSH1 0x20 DUP3 ADD SWAP1 POP SWAP3 SWAP2 POP POP JUMP JUMPDEST PUSH32 0x506F6F6C20446F6573206E6F7420657869737473000000000000000000000000 PUSH1 0x0 DUP3 ADD MSTORE POP JUMP JUMPDEST PUSH1 0x0 PUSH2 0x1DA1 PUSH1 0x14 DUP4 PUSH2 0x1D5A JUMP JUMPDEST SWAP2 POP PUSH2 0x1DAC DUP3 PUSH2 0x1D6B JUMP JUMPDEST PUSH1 0x20 DUP3 ADD SWAP1 POP SWAP2 SWAP1 POP JUMP JUMPDEST PUSH1 0x0 PUSH1 0x20 DUP3 ADD SWAP1 POP DUP2 DUP2 SUB PUSH1 0x0 DUP4 ADD MSTORE PUSH2 0x1DD0 DUP2 PUSH2 0x1D94 JUMP JUMPDEST SWAP1 POP SWAP2 SWAP1 POP JUMP JUMPDEST PUSH32 0x496E636F727265637420616D6F756E742073656E740000000000000000000000 PUSH1 0x0 DUP3 ADD MSTORE POP JUMP JUMPDEST PUSH1 0x0 PUSH2 0x1E0D PUSH1 0x15 DUP4 PUSH2 0x1D5A JUMP JUMPDEST SWAP2 POP PUSH2 0x1E18 DUP3 PUSH2 0x1DD7 JUMP JUMPDEST PUSH1 0x20 DUP3 ADD SWAP1 POP SWAP2 SWAP1 POP JUMP JUMPDEST PUSH1 0x0 PUSH1 0x20 DUP3 ADD SWAP1 POP DUP2 DUP2 SUB PUSH1 0x0 DUP4 ADD MSTORE PUSH2 0x1E3C DUP2 PUSH2 0x1E00 JUMP JUMPDEST SWAP1 POP SWAP2 SWAP1 POP JUMP JUMPDEST PUSH32 0x4E487B7100000000000000000000000000000000000000000000000000000000 PUSH1 0x0 MSTORE PUSH1 0x11 PUSH1 0x4 MSTORE PUSH1 0x24 PUSH1 0x0 REVERT JUMPDEST PUSH1 0x0 PUSH2 0x1E7D DUP3 PUSH2 0x1B4D JUMP JUMPDEST SWAP2 POP PUSH2 0x1E88 DUP4 PUSH2 0x1B4D JUMP JUMPDEST SWAP3 POP DUP3 DUP3 SUB SWAP1 POP DUP2 DUP2 GT ISZERO PUSH2 0x1EA0 JUMPI PUSH2 0x1E9F PUSH2 0x1E43 JUMP JUMPDEST JUMPDEST SWAP3 SWAP2 POP POP JUMP JUMPDEST PUSH1 0x0 PUSH1 0x40 DUP3 ADD SWAP1 POP PUSH2 0x1EBB PUSH1 0x0 DUP4 ADD DUP6 PUSH2 0x1BD6 JUMP JUMPDEST PUSH2 0x1EC8 PUSH1 0x20 DUP4 ADD DUP5 PUSH2 0x1B23 JUMP JUMPDEST SWAP4 SWAP3 POP POP POP JUMP JUMPDEST PUSH1 0x0 DUP1 REVERT JUMPDEST PUSH1 0x0 PUSH1 0x1F NOT PUSH1 0x1F DUP4 ADD AND SWAP1 POP SWAP2 SWAP1 POP JUMP JUMPDEST PUSH32 0x4E487B7100000000000000000000000000000000000000000000000000000000 PUSH1 0x0 MSTORE PUSH1 0x41 PUSH1 0x4 MSTORE PUSH1 0x24 PUSH1 0x0 REVERT JUMPDEST PUSH2 0x1F1D DUP3 PUSH2 0x1ED4 JUMP JUMPDEST DUP2 ADD DUP2 DUP2 LT PUSH8 0xFFFFFFFFFFFFFFFF DUP3 GT OR ISZERO PUSH2 0x1F3C JUMPI PUSH2 0x1F3B PUSH2 0x1EE5 JUMP JUMPDEST JUMPDEST DUP1 PUSH1 0x40 MSTORE POP POP POP JUMP JUMPDEST PUSH1 0x0 PUSH2 0x1F4F PUSH2 0x1A89 JUMP JUMPDEST SWAP1 POP PUSH2 0x1F5B DUP3 DUP3 PUSH2 0x1F14 JUMP JUMPDEST SWAP2 SWAP1 POP JUMP JUMPDEST PUSH1 0x0 PUSH1 0x40 DUP3 DUP5 SUB SLT ISZERO PUSH2 0x1F76 JUMPI PUSH2 0x1F75 PUSH2 0x1ECF JUMP JUMPDEST JUMPDEST PUSH2 0x1F80 PUSH1 0x40 PUSH2 0x1F45 JUMP JUMPDEST SWAP1 POP PUSH1 0x0 PUSH2 0x1F90 DUP5 DUP3 DUP6 ADD PUSH2 0x1D18 JUMP JUMPDEST PUSH1 0x0 DUP4 ADD MSTORE POP PUSH1 0x20 PUSH2 0x1FA4 DUP5 DUP3 DUP6 ADD PUSH2 0x1D18 JUMP JUMPDEST PUSH1 0x20 DUP4 ADD MSTORE POP SWAP3 SWAP2 POP POP JUMP JUMPDEST PUSH1 0x0 PUSH1 0x40 DUP3 DUP5 SUB SLT ISZERO PUSH2 0x1FC6 JUMPI PUSH2 0x1FC5 PUSH2 0x1A93 JUMP JUMPDEST JUMPDEST PUSH1 0x0 PUSH2 0x1FD4 DUP5 DUP3 DUP6 ADD PUSH2 0x1F60 JUMP JUMPDEST SWAP2 POP POP SWAP3 SWAP2 POP POP JUMP JUMPDEST PUSH32 0x496E636F727265637420416D6F756E7400000000000000000000000000000000 PUSH1 0x0 DUP3 ADD MSTORE POP JUMP JUMPDEST PUSH1 0x0 PUSH2 0x2013 PUSH1 0x10 DUP4 PUSH2 0x1D5A JUMP JUMPDEST SWAP2 POP PUSH2 0x201E DUP3 PUSH2 0x1FDD JUMP JUMPDEST PUSH1 0x20 DUP3 ADD SWAP1 POP SWAP2 SWAP1 POP JUMP JUMPDEST PUSH1 0x0 PUSH1 0x20 DUP3 ADD SWAP1 POP DUP2 DUP2 SUB PUSH1 0x0 DUP4 ADD MSTORE PUSH2 0x2042 DUP2 PUSH2 0x2006 JUMP JUMPDEST SWAP1 POP SWAP2 SWAP1 POP JUMP JUMPDEST PUSH1 0x0 DUP2 ISZERO ISZERO SWAP1 POP SWAP2 SWAP1 POP JUMP JUMPDEST PUSH2 0x205E DUP2 PUSH2 0x2049 JUMP JUMPDEST DUP2 EQ PUSH2 0x2069 JUMPI PUSH1 0x0 DUP1 REVERT JUMPDEST POP JUMP JUMPDEST PUSH1 0x0 DUP2 MLOAD SWAP1 POP PUSH2 0x207B DUP2 PUSH2 0x2055 JUMP JUMPDEST SWAP3 SWAP2 POP POP JUMP JUMPDEST PUSH1 0x0 PUSH1 0x20 DUP3 DUP5 SUB SLT ISZERO PUSH2 0x2097 JUMPI PUSH2 0x2096 PUSH2 0x1A93 JUMP JUMPDEST JUMPDEST PUSH1 0x0 PUSH2 0x20A5 DUP5 DUP3 DUP6 ADD PUSH2 0x206C JUMP JUMPDEST SWAP2 POP POP SWAP3 SWAP2 POP POP JUMP JUMPDEST PUSH1 0x0 PUSH1 0x60 DUP3 ADD SWAP1 POP PUSH2 0x20C3 PUSH1 0x0 DUP4 ADD DUP7 PUSH2 0x1B23 JUMP JUMPDEST PUSH2 0x20D0 PUSH1 0x20 DUP4 ADD DUP6 PUSH2 0x1B23 JUMP JUMPDEST PUSH2 0x20DD PUSH1 0x40 DUP4 ADD DUP5 PUSH2 0x1BD6 JUMP JUMPDEST SWAP5 SWAP4 POP POP POP POP JUMP JUMPDEST PUSH32 0x4E6F20616D6F756E7420746F2077697468647261770000000000000000000000 PUSH1 0x0 DUP3 ADD MSTORE POP JUMP JUMPDEST PUSH1 0x0 PUSH2 0x211B PUSH1 0x15 DUP4 PUSH2 0x1D5A JUMP JUMPDEST SWAP2 POP PUSH2 0x2126 DUP3 PUSH2 0x20E5 JUMP JUMPDEST PUSH1 0x20 DUP3 ADD SWAP1 POP SWAP2 SWAP1 POP JUMP JUMPDEST PUSH1 0x0 PUSH1 0x20 DUP3 ADD SWAP1 POP DUP2 DUP2 SUB PUSH1 0x0 DUP4 ADD MSTORE PUSH2 0x214A DUP2 PUSH2 0x210E JUMP JUMPDEST SWAP1 POP SWAP2 SWAP1 POP JUMP JUMPDEST PUSH1 0x0 DUP2 MLOAD SWAP1 POP SWAP2 SWAP1 POP JUMP JUMPDEST PUSH1 0x0 DUP2 SWAP1 POP SWAP3 SWAP2 POP POP JUMP JUMPDEST PUSH1 0x0 JUMPDEST DUP4 DUP2 LT ISZERO PUSH2 0x2185 JUMPI DUP1 DUP3 ADD MLOAD DUP2 DUP5 ADD MSTORE PUSH1 0x20 DUP2 ADD SWAP1 POP PUSH2 0x216A JUMP JUMPDEST PUSH1 0x0 DUP5 DUP5 ADD MSTORE POP POP POP POP JUMP JUMPDEST PUSH1 0x0 PUSH2 0x219C DUP3 PUSH2 0x2151 JUMP JUMPDEST PUSH2 0x21A6 DUP2 DUP6 PUSH2 0x215C JUMP JUMPDEST SWAP4 POP PUSH2 0x21B6 DUP2 DUP6 PUSH1 0x20 DUP7 ADD PUSH2 0x2167 JUMP JUMPDEST DUP1 DUP5 ADD SWAP2 POP POP SWAP3 SWAP2 POP POP JUMP JUMPDEST PUSH1 0x0 PUSH2 0x21CE DUP3 DUP5 PUSH2 0x2191 JUMP JUMPDEST SWAP2 POP DUP2 SWAP1 POP SWAP3 SWAP2 POP POP JUMP JUMPDEST PUSH32 0x5472616E7366657248656C7065723A3A736166655472616E736665723A207472 PUSH1 0x0 DUP3 ADD MSTORE PUSH32 0x616E73666572206661696C656400000000000000000000000000000000000000 PUSH1 0x20 DUP3 ADD MSTORE POP JUMP JUMPDEST PUSH1 0x0 PUSH2 0x2235 PUSH1 0x2D DUP4 PUSH2 0x1D5A JUMP JUMPDEST SWAP2 POP PUSH2 0x2240 DUP3 PUSH2 0x21D9 JUMP JUMPDEST PUSH1 0x40 DUP3 ADD SWAP1 POP SWAP2 SWAP1 POP JUMP JUMPDEST PUSH1 0x0 PUSH1 0x20 DUP3 ADD SWAP1 POP DUP2 DUP2 SUB PUSH1 0x0 DUP4 ADD MSTORE PUSH2 0x2264 DUP2 PUSH2 0x2228 JUMP JUMPDEST SWAP1 POP SWAP2 SWAP1 POP JUMP JUMPDEST PUSH32 0x5472616E7366657248656C7065723A3A736166655472616E736665724554483A PUSH1 0x0 DUP3 ADD MSTORE PUSH32 0x20455448207472616E73666572206661696C6564000000000000000000000000 PUSH1 0x20 DUP3 ADD MSTORE POP JUMP JUMPDEST PUSH1 0x0 PUSH2 0x22C7 PUSH1 0x34 DUP4 PUSH2 0x1D5A JUMP JUMPDEST SWAP2 POP PUSH2 0x22D2 DUP3 PUSH2 0x226B JUMP JUMPDEST PUSH1 0x40 DUP3 ADD SWAP1 POP SWAP2 SWAP1 POP JUMP JUMPDEST PUSH1 0x0 PUSH1 0x20 DUP3 ADD SWAP1 POP DUP2 DUP2 SUB PUSH1 0x0 DUP4 ADD MSTORE PUSH2 0x22F6 DUP2 PUSH2 0x22BA JUMP JUMPDEST SWAP1 POP SWAP2 SWAP1 POP JUMP INVALID LOG2 PUSH5 0x6970667358 0x22 SLT KECCAK256 CODESIZE 0xF7 DUP11 PUSH19 0x4B0ADE019F5281B840A35E61A0D4E51825B54E PUSH14 0x79B1B3C81E77C87064736F6C6343 STOP ADDMOD SLT STOP CALLER "
				},
				"gasEstimates": {
					"creation": {
						"codeDepositCost": "1802200",
						"executionCost": "infinite",
						"totalCost": "infinite"
					},
					"external": {
						"WEXDC()": "infinite",
						"borrowETH(uint256)": "infinite",
						"borrowToken(address,uint256)": "infinite",
						"createPool(address)": "infinite",
						"depositETH(uint256)": "infinite",
						"depositToken(address,uint256)": "infinite",
						"factory()": "infinite",
						"getBalance(address)": "infinite",
						"getBorrowAmount(address,address)": "infinite",
						"getLendAmount(address,address)": "infinite",
						"getPoolAddress(address)": "infinite",
						"getRepayAmount(address,address,uint256)": "infinite",
						"getWithdrawAmount(address,address,uint256)": "infinite",
						"repayETH(uint256)": "infinite",
						"repayToken(address,uint256)": "infinite",
						"withdrawETH(uint256)": "infinite",
						"withdrawToken(address,uint256)": "infinite"
					}
				},
				"methodIdentifiers": {
					"WEXDC()": "fd08c30c",
					"borrowETH(uint256)": "7b2af625",
					"borrowToken(address,uint256)": "5a91b39c",
					"createPool(address)": "9049f9d2",
					"depositETH(uint256)": "5358fbda",
					"depositToken(address,uint256)": "338b5dea",
					"factory()": "c45a0155",
					"getBalance(address)": "f8b2cb4f",
					"getBorrowAmount(address,address)": "38bad5e5",
					"getLendAmount(address,address)": "987242e9",
					"getPoolAddress(address)": "1228cbee",
					"getRepayAmount(address,address,uint256)": "2553c96b",
					"getWithdrawAmount(address,address,uint256)": "1ad58a21",
					"repayETH(uint256)": "2247463e",
					"repayToken(address,uint256)": "214ea218",
					"withdrawETH(uint256)": "f14210a6",
					"withdrawToken(address,uint256)": "9e281a98"
				}
			},
			"storageLayout": {
				"storage": [],
				"types": null
			},
			"userdoc": {
				"kind": "user",
				"methods": {
					"borrowToken(address,uint256)": {
						"notice": "done and working"
					},
					"depositETH(uint256)": {
						"notice": "done and working"
					},
					"depositToken(address,uint256)": {
						"notice": "done and working"
					},
					"getRepayAmount(address,address,uint256)": {
						"notice": "repay Amount quote with interest"
					},
					"getWithdrawAmount(address,address,uint256)": {
						"notice": "withdraw amount quote with interest"
					},
					"repayETH(uint256)": {
						"notice": "send ETH > repay Amount taking into time considerartion"
					},
					"repayToken(address,uint256)": {
						"notice": "done and working"
					},
					"withdrawToken(address,uint256)": {
						"notice": "done and working"
					}
				},
				"version": 1
			}
		}
	}
}