{
	"Periphery/StakingPoolRouter.sol": {
		"StakingPoolRouter": {
			"abi": [
				{
					"inputs": [
						{
							"internalType": "address",
							"name": "_factory",
							"type": "address"
						},
						{
							"internalType": "address",
							"name": "xdcWrapper",
							"type": "address"
						},
						{
							"internalType": "address",
							"name": "_rtoken",
							"type": "address"
						}
					],
					"stateMutability": "nonpayable",
					"type": "constructor"
				},
				{
					"inputs": [],
					"name": "WEXDC",
					"outputs": [
						{
							"internalType": "address",
							"name": "",
							"type": "address"
						}
					],
					"stateMutability": "view",
					"type": "function"
				},
				{
					"inputs": [
						{
							"internalType": "address",
							"name": "sToken",
							"type": "address"
						}
					],
					"name": "createPool",
					"outputs": [],
					"stateMutability": "nonpayable",
					"type": "function"
				},
				{
					"inputs": [],
					"name": "factory",
					"outputs": [
						{
							"internalType": "address",
							"name": "",
							"type": "address"
						}
					],
					"stateMutability": "view",
					"type": "function"
				},
				{
					"inputs": [
						{
							"internalType": "address",
							"name": "token",
							"type": "address"
						}
					],
					"name": "getBalance",
					"outputs": [
						{
							"internalType": "uint256",
							"name": "balance",
							"type": "uint256"
						}
					],
					"stateMutability": "view",
					"type": "function"
				},
				{
					"inputs": [
						{
							"internalType": "address",
							"name": "token",
							"type": "address"
						}
					],
					"name": "getPoolAddress",
					"outputs": [
						{
							"internalType": "address",
							"name": "pool",
							"type": "address"
						}
					],
					"stateMutability": "view",
					"type": "function"
				},
				{
					"inputs": [
						{
							"internalType": "address",
							"name": "token",
							"type": "address"
						},
						{
							"internalType": "address",
							"name": "user",
							"type": "address"
						}
					],
					"name": "getRewardEarned",
					"outputs": [
						{
							"internalType": "uint256",
							"name": "rewardAmount",
							"type": "uint256"
						}
					],
					"stateMutability": "view",
					"type": "function"
				},
				{
					"inputs": [
						{
							"internalType": "address",
							"name": "user",
							"type": "address"
						},
						{
							"internalType": "address",
							"name": "token",
							"type": "address"
						}
					],
					"name": "getStaked",
					"outputs": [
						{
							"internalType": "uint256",
							"name": "stakedAmount",
							"type": "uint256"
						}
					],
					"stateMutability": "view",
					"type": "function"
				},
				{
					"inputs": [
						{
							"internalType": "address",
							"name": "token",
							"type": "address"
						}
					],
					"name": "reedemReward",
					"outputs": [],
					"stateMutability": "nonpayable",
					"type": "function"
				},
				{
					"inputs": [],
					"name": "reedemRewardETH",
					"outputs": [],
					"stateMutability": "nonpayable",
					"type": "function"
				},
				{
					"inputs": [],
					"name": "rtoken",
					"outputs": [
						{
							"internalType": "address",
							"name": "",
							"type": "address"
						}
					],
					"stateMutability": "view",
					"type": "function"
				},
				{
					"inputs": [
						{
							"internalType": "address",
							"name": "token",
							"type": "address"
						},
						{
							"internalType": "uint256",
							"name": "_amount",
							"type": "uint256"
						}
					],
					"name": "stake",
					"outputs": [],
					"stateMutability": "nonpayable",
					"type": "function"
				},
				{
					"inputs": [
						{
							"internalType": "uint256",
							"name": "_amount",
							"type": "uint256"
						}
					],
					"name": "stakeETH",
					"outputs": [],
					"stateMutability": "payable",
					"type": "function"
				},
				{
					"inputs": [
						{
							"internalType": "address",
							"name": "token",
							"type": "address"
						},
						{
							"internalType": "uint256",
							"name": "_amount",
							"type": "uint256"
						}
					],
					"name": "withdraw",
					"outputs": [],
					"stateMutability": "nonpayable",
					"type": "function"
				},
				{
					"inputs": [
						{
							"internalType": "uint256",
							"name": "_amount",
							"type": "uint256"
						}
					],
					"name": "withdrawETH",
					"outputs": [],
					"stateMutability": "nonpayable",
					"type": "function"
				}
			],
			"devdoc": {
				"kind": "dev",
				"methods": {},
				"version": 1
			},
			"evm": {
				"assembly": "    /* \"Periphery/StakingPoolRouter.sol\":542:3828  contract StakingPoolRouter {... */\n  mstore(0x40, 0xe0)\n    /* \"Periphery/StakingPoolRouter.sol\":687:873  constructor(... */\n  callvalue\n  dup1\n  iszero\n  tag_1\n  jumpi\n  0x00\n  dup1\n  revert\ntag_1:\n  pop\n  mload(0x40)\n  sub(codesize, bytecodeSize)\n  dup1\n  bytecodeSize\n  dup4\n  codecopy\n  dup2\n  dup2\n  add\n  0x40\n  mstore\n  dup2\n  add\n  swap1\n  tag_2\n  swap2\n  swap1\n  tag_3\n  jump\t// in\ntag_2:\n    /* \"Periphery/StakingPoolRouter.sol\":804:812  _factory */\n  dup3\n    /* \"Periphery/StakingPoolRouter.sol\":794:812  factory = _factory */\n  0xffffffffffffffffffffffffffffffffffffffff\n  and\n  0x80\n  dup2\n  0xffffffffffffffffffffffffffffffffffffffff\n  and\n  dup2\n  mstore\n  pop\n  pop\n    /* \"Periphery/StakingPoolRouter.sol\":830:840  xdcWrapper */\n  dup2\n    /* \"Periphery/StakingPoolRouter.sol\":822:840  WEXDC = xdcWrapper */\n  0xffffffffffffffffffffffffffffffffffffffff\n  and\n  0xa0\n  dup2\n  0xffffffffffffffffffffffffffffffffffffffff\n  and\n  dup2\n  mstore\n  pop\n  pop\n    /* \"Periphery/StakingPoolRouter.sol\":859:866  _rtoken */\n  dup1\n    /* \"Periphery/StakingPoolRouter.sol\":850:866  rtoken = _rtoken */\n  0xffffffffffffffffffffffffffffffffffffffff\n  and\n  0xc0\n  dup2\n  0xffffffffffffffffffffffffffffffffffffffff\n  and\n  dup2\n  mstore\n  pop\n  pop\n    /* \"Periphery/StakingPoolRouter.sol\":687:873  constructor(... */\n  pop\n  pop\n  pop\n    /* \"Periphery/StakingPoolRouter.sol\":542:3828  contract StakingPoolRouter {... */\n  jump(tag_6)\n    /* \"#utility.yul\":88:205   */\ntag_8:\n    /* \"#utility.yul\":197:198   */\n  0x00\n    /* \"#utility.yul\":194:195   */\n  dup1\n    /* \"#utility.yul\":187:199   */\n  revert\n    /* \"#utility.yul\":334:460   */\ntag_10:\n    /* \"#utility.yul\":371:378   */\n  0x00\n    /* \"#utility.yul\":411:453   */\n  0xffffffffffffffffffffffffffffffffffffffff\n    /* \"#utility.yul\":404:409   */\n  dup3\n    /* \"#utility.yul\":400:454   */\n  and\n    /* \"#utility.yul\":389:454   */\n  swap1\n  pop\n    /* \"#utility.yul\":334:460   */\n  swap2\n  swap1\n  pop\n  jump\t// out\n    /* \"#utility.yul\":466:562   */\ntag_11:\n    /* \"#utility.yul\":503:510   */\n  0x00\n    /* \"#utility.yul\":532:556   */\n  tag_20\n    /* \"#utility.yul\":550:555   */\n  dup3\n    /* \"#utility.yul\":532:556   */\n  tag_10\n  jump\t// in\ntag_20:\n    /* \"#utility.yul\":521:556   */\n  swap1\n  pop\n    /* \"#utility.yul\":466:562   */\n  swap2\n  swap1\n  pop\n  jump\t// out\n    /* \"#utility.yul\":568:690   */\ntag_12:\n    /* \"#utility.yul\":641:665   */\n  tag_22\n    /* \"#utility.yul\":659:664   */\n  dup2\n    /* \"#utility.yul\":641:665   */\n  tag_11\n  jump\t// in\ntag_22:\n    /* \"#utility.yul\":634:639   */\n  dup2\n    /* \"#utility.yul\":631:666   */\n  eq\n    /* \"#utility.yul\":621:684   */\n  tag_23\n  jumpi\n    /* \"#utility.yul\":680:681   */\n  0x00\n    /* \"#utility.yul\":677:678   */\n  dup1\n    /* \"#utility.yul\":670:682   */\n  revert\n    /* \"#utility.yul\":621:684   */\ntag_23:\n    /* \"#utility.yul\":568:690   */\n  pop\n  jump\t// out\n    /* \"#utility.yul\":696:839   */\ntag_13:\n    /* \"#utility.yul\":753:758   */\n  0x00\n    /* \"#utility.yul\":784:790   */\n  dup2\n    /* \"#utility.yul\":778:791   */\n  mload\n    /* \"#utility.yul\":769:791   */\n  swap1\n  pop\n    /* \"#utility.yul\":800:833   */\n  tag_25\n    /* \"#utility.yul\":827:832   */\n  dup2\n    /* \"#utility.yul\":800:833   */\n  tag_12\n  jump\t// in\ntag_25:\n    /* \"#utility.yul\":696:839   */\n  swap3\n  swap2\n  pop\n  pop\n  jump\t// out\n    /* \"#utility.yul\":845:1508   */\ntag_3:\n    /* \"#utility.yul\":933:939   */\n  0x00\n    /* \"#utility.yul\":941:947   */\n  dup1\n    /* \"#utility.yul\":949:955   */\n  0x00\n    /* \"#utility.yul\":998:1000   */\n  0x60\n    /* \"#utility.yul\":986:995   */\n  dup5\n    /* \"#utility.yul\":977:984   */\n  dup7\n    /* \"#utility.yul\":973:996   */\n  sub\n    /* \"#utility.yul\":969:1001   */\n  slt\n    /* \"#utility.yul\":966:1085   */\n  iszero\n  tag_27\n  jumpi\n    /* \"#utility.yul\":1004:1083   */\n  tag_28\n  tag_8\n  jump\t// in\ntag_28:\n    /* \"#utility.yul\":966:1085   */\ntag_27:\n    /* \"#utility.yul\":1124:1125   */\n  0x00\n    /* \"#utility.yul\":1149:1213   */\n  tag_29\n    /* \"#utility.yul\":1205:1212   */\n  dup7\n    /* \"#utility.yul\":1196:1202   */\n  dup3\n    /* \"#utility.yul\":1185:1194   */\n  dup8\n    /* \"#utility.yul\":1181:1203   */\n  add\n    /* \"#utility.yul\":1149:1213   */\n  tag_13\n  jump\t// in\ntag_29:\n    /* \"#utility.yul\":1139:1213   */\n  swap4\n  pop\n    /* \"#utility.yul\":1095:1223   */\n  pop\n    /* \"#utility.yul\":1262:1264   */\n  0x20\n    /* \"#utility.yul\":1288:1352   */\n  tag_30\n    /* \"#utility.yul\":1344:1351   */\n  dup7\n    /* \"#utility.yul\":1335:1341   */\n  dup3\n    /* \"#utility.yul\":1324:1333   */\n  dup8\n    /* \"#utility.yul\":1320:1342   */\n  add\n    /* \"#utility.yul\":1288:1352   */\n  tag_13\n  jump\t// in\ntag_30:\n    /* \"#utility.yul\":1278:1352   */\n  swap3\n  pop\n    /* \"#utility.yul\":1233:1362   */\n  pop\n    /* \"#utility.yul\":1401:1403   */\n  0x40\n    /* \"#utility.yul\":1427:1491   */\n  tag_31\n    /* \"#utility.yul\":1483:1490   */\n  dup7\n    /* \"#utility.yul\":1474:1480   */\n  dup3\n    /* \"#utility.yul\":1463:1472   */\n  dup8\n    /* \"#utility.yul\":1459:1481   */\n  add\n    /* \"#utility.yul\":1427:1491   */\n  tag_13\n  jump\t// in\ntag_31:\n    /* \"#utility.yul\":1417:1491   */\n  swap2\n  pop\n    /* \"#utility.yul\":1372:1501   */\n  pop\n    /* \"#utility.yul\":845:1508   */\n  swap3\n  pop\n  swap3\n  pop\n  swap3\n  jump\t// out\n    /* \"Periphery/StakingPoolRouter.sol\":542:3828  contract StakingPoolRouter {... */\ntag_6:\n  mload(0x80)\n  mload(0xa0)\n  mload(0xc0)\n  codecopy(0x00, dataOffset(sub_0), dataSize(sub_0))\n  0x00\n  assignImmutable(\"0xd689cbfedabece86d7e5db9cbf78a17306cb7e927b4df254708fae3294ea7db3\")\n  0x00\n  assignImmutable(\"0xc93028bd73fae187d68ad55c5ac660bc6900065b273be8803cf809579312fc16\")\n  0x00\n  assignImmutable(\"0x4f07d7aea7a8a16d4b795a9a9aabd4a50f93236b39d48ad640505cdc3dbb3bbc\")\n  return(0x00, dataSize(sub_0))\nstop\n\nsub_0: assembly {\n        /* \"Periphery/StakingPoolRouter.sol\":542:3828  contract StakingPoolRouter {... */\n      mstore(0x40, 0x80)\n      jumpi(tag_1, lt(calldatasize, 0x04))\n      shr(0xe0, calldataload(0x00))\n      dup1\n      0xdf2a26e9\n      gt\n      tag_16\n      jumpi\n      dup1\n      0xf379dfd0\n      gt\n      tag_17\n      jumpi\n      dup1\n      0xf379dfd0\n      eq\n      tag_12\n      jumpi\n      dup1\n      0xf3fef3a3\n      eq\n      tag_13\n      jumpi\n      dup1\n      0xf8b2cb4f\n      eq\n      tag_14\n      jumpi\n      dup1\n      0xfd08c30c\n      eq\n      tag_15\n      jumpi\n      jump(tag_1)\n    tag_17:\n      dup1\n      0xdf2a26e9\n      eq\n      tag_9\n      jumpi\n      dup1\n      0xef4361b7\n      eq\n      tag_10\n      jumpi\n      dup1\n      0xf14210a6\n      eq\n      tag_11\n      jumpi\n      jump(tag_1)\n    tag_16:\n      dup1\n      0x6ecc20da\n      gt\n      tag_18\n      jumpi\n      dup1\n      0x6ecc20da\n      eq\n      tag_5\n      jumpi\n      dup1\n      0x9049f9d2\n      eq\n      tag_6\n      jumpi\n      dup1\n      0xadc9772e\n      eq\n      tag_7\n      jumpi\n      dup1\n      0xc45a0155\n      eq\n      tag_8\n      jumpi\n      jump(tag_1)\n    tag_18:\n      dup1\n      0x1228cbee\n      eq\n      tag_2\n      jumpi\n      dup1\n      0x6447c5a2\n      eq\n      tag_3\n      jumpi\n      dup1\n      0x6845478f\n      eq\n      tag_4\n      jumpi\n    tag_1:\n      0x00\n      dup1\n      revert\n        /* \"Periphery/StakingPoolRouter.sol\":879:1020  function getPoolAddress(address token) public view returns (address pool) {... */\n    tag_2:\n      callvalue\n      dup1\n      iszero\n      tag_19\n      jumpi\n      0x00\n      dup1\n      revert\n    tag_19:\n      pop\n      tag_20\n      0x04\n      dup1\n      calldatasize\n      sub\n      dup2\n      add\n      swap1\n      tag_21\n      swap2\n      swap1\n      tag_22\n      jump\t// in\n    tag_21:\n      tag_23\n      jump\t// in\n    tag_20:\n      mload(0x40)\n      tag_24\n      swap2\n      swap1\n      tag_25\n      jump\t// in\n    tag_24:\n      mload(0x40)\n      dup1\n      swap2\n      sub\n      swap1\n      return\n        /* \"Periphery/StakingPoolRouter.sol\":2743:3076  function reedemReward(address token) public {... */\n    tag_3:\n      callvalue\n      dup1\n      iszero\n      tag_26\n      jumpi\n      0x00\n      dup1\n      revert\n    tag_26:\n      pop\n      tag_27\n      0x04\n      dup1\n      calldatasize\n      sub\n      dup2\n      add\n      swap1\n      tag_28\n      swap2\n      swap1\n      tag_22\n      jump\t// in\n    tag_28:\n      tag_29\n      jump\t// in\n    tag_27:\n      stop\n        /* \"Periphery/StakingPoolRouter.sol\":649:680  address public immutable rtoken */\n    tag_4:\n      callvalue\n      dup1\n      iszero\n      tag_30\n      jumpi\n      0x00\n      dup1\n      revert\n    tag_30:\n      pop\n      tag_31\n      tag_32\n      jump\t// in\n    tag_31:\n      mload(0x40)\n      tag_33\n      swap2\n      swap1\n      tag_25\n      jump\t// in\n    tag_33:\n      mload(0x40)\n      dup1\n      swap2\n      sub\n      swap1\n      return\n        /* \"Periphery/StakingPoolRouter.sol\":3095:3363  function stakeETH(uint256 _amount) public payable {... */\n    tag_5:\n      tag_34\n      0x04\n      dup1\n      calldatasize\n      sub\n      dup2\n      add\n      swap1\n      tag_35\n      swap2\n      swap1\n      tag_36\n      jump\t// in\n    tag_35:\n      tag_37\n      jump\t// in\n    tag_34:\n      stop\n        /* \"Periphery/StakingPoolRouter.sol\":1167:1382  function createPool(address sToken) public {... */\n    tag_6:\n      callvalue\n      dup1\n      iszero\n      tag_38\n      jumpi\n      0x00\n      dup1\n      revert\n    tag_38:\n      pop\n      tag_39\n      0x04\n      dup1\n      calldatasize\n      sub\n      dup2\n      add\n      swap1\n      tag_40\n      swap2\n      swap1\n      tag_22\n      jump\t// in\n    tag_40:\n      tag_41\n      jump\t// in\n    tag_39:\n      stop\n        /* \"Periphery/StakingPoolRouter.sol\":1922:2370  function stake(address token, uint256 _amount) public {... */\n    tag_7:\n      callvalue\n      dup1\n      iszero\n      tag_42\n      jumpi\n      0x00\n      dup1\n      revert\n    tag_42:\n      pop\n      tag_43\n      0x04\n      dup1\n      calldatasize\n      sub\n      dup2\n      add\n      swap1\n      tag_44\n      swap2\n      swap1\n      tag_45\n      jump\t// in\n    tag_44:\n      tag_46\n      jump\t// in\n    tag_43:\n      stop\n        /* \"Periphery/StakingPoolRouter.sol\":575:607  address public immutable factory */\n    tag_8:\n      callvalue\n      dup1\n      iszero\n      tag_47\n      jumpi\n      0x00\n      dup1\n      revert\n    tag_47:\n      pop\n      tag_48\n      tag_49\n      jump\t// in\n    tag_48:\n      mload(0x40)\n      tag_50\n      swap2\n      swap1\n      tag_25\n      jump\t// in\n    tag_50:\n      mload(0x40)\n      dup1\n      swap2\n      sub\n      swap1\n      return\n        /* \"Periphery/StakingPoolRouter.sol\":1388:1682  function getRewardEarned(address token, address user)... */\n    tag_9:\n      callvalue\n      dup1\n      iszero\n      tag_51\n      jumpi\n      0x00\n      dup1\n      revert\n    tag_51:\n      pop\n      tag_52\n      0x04\n      dup1\n      calldatasize\n      sub\n      dup2\n      add\n      swap1\n      tag_53\n      swap2\n      swap1\n      tag_54\n      jump\t// in\n    tag_53:\n      tag_55\n      jump\t// in\n    tag_52:\n      mload(0x40)\n      tag_56\n      swap2\n      swap1\n      tag_57\n      jump\t// in\n    tag_56:\n      mload(0x40)\n      dup1\n      swap2\n      sub\n      swap1\n      return\n        /* \"Periphery/StakingPoolRouter.sol\":3756:3826  function reedemRewardETH() public {... */\n    tag_10:\n      callvalue\n      dup1\n      iszero\n      tag_58\n      jumpi\n      0x00\n      dup1\n      revert\n    tag_58:\n      pop\n      tag_59\n      tag_60\n      jump\t// in\n    tag_59:\n      stop\n        /* \"Periphery/StakingPoolRouter.sol\":3384:3715  function withdrawETH(uint256 _amount) public {... */\n    tag_11:\n      callvalue\n      dup1\n      iszero\n      tag_61\n      jumpi\n      0x00\n      dup1\n      revert\n    tag_61:\n      pop\n      tag_62\n      0x04\n      dup1\n      calldatasize\n      sub\n      dup2\n      add\n      swap1\n      tag_63\n      swap2\n      swap1\n      tag_36\n      jump\t// in\n    tag_63:\n      tag_64\n      jump\t// in\n    tag_62:\n      stop\n        /* \"Periphery/StakingPoolRouter.sol\":1688:1916  function getStaked(address user, address token)... */\n    tag_12:\n      callvalue\n      dup1\n      iszero\n      tag_65\n      jumpi\n      0x00\n      dup1\n      revert\n    tag_65:\n      pop\n      tag_66\n      0x04\n      dup1\n      calldatasize\n      sub\n      dup2\n      add\n      swap1\n      tag_67\n      swap2\n      swap1\n      tag_54\n      jump\t// in\n    tag_67:\n      tag_68\n      jump\t// in\n    tag_66:\n      mload(0x40)\n      tag_69\n      swap2\n      swap1\n      tag_57\n      jump\t// in\n    tag_69:\n      mload(0x40)\n      dup1\n      swap2\n      sub\n      swap1\n      return\n        /* \"Periphery/StakingPoolRouter.sol\":2376:2737  function withdraw(address token, uint256 _amount) public {... */\n    tag_13:\n      callvalue\n      dup1\n      iszero\n      tag_70\n      jumpi\n      0x00\n      dup1\n      revert\n    tag_70:\n      pop\n      tag_71\n      0x04\n      dup1\n      calldatasize\n      sub\n      dup2\n      add\n      swap1\n      tag_72\n      swap2\n      swap1\n      tag_45\n      jump\t// in\n    tag_72:\n      tag_73\n      jump\t// in\n    tag_71:\n      stop\n        /* \"Periphery/StakingPoolRouter.sol\":1026:1161  function getBalance(address token) public view returns (uint256 balance) {... */\n    tag_14:\n      callvalue\n      dup1\n      iszero\n      tag_74\n      jumpi\n      0x00\n      dup1\n      revert\n    tag_74:\n      pop\n      tag_75\n      0x04\n      dup1\n      calldatasize\n      sub\n      dup2\n      add\n      swap1\n      tag_76\n      swap2\n      swap1\n      tag_22\n      jump\t// in\n    tag_76:\n      tag_77\n      jump\t// in\n    tag_75:\n      mload(0x40)\n      tag_78\n      swap2\n      swap1\n      tag_57\n      jump\t// in\n    tag_78:\n      mload(0x40)\n      dup1\n      swap2\n      sub\n      swap1\n      return\n        /* \"Periphery/StakingPoolRouter.sol\":613:643  address public immutable WEXDC */\n    tag_15:\n      callvalue\n      dup1\n      iszero\n      tag_79\n      jumpi\n      0x00\n      dup1\n      revert\n    tag_79:\n      pop\n      tag_80\n      tag_81\n      jump\t// in\n    tag_80:\n      mload(0x40)\n      tag_82\n      swap2\n      swap1\n      tag_25\n      jump\t// in\n    tag_82:\n      mload(0x40)\n      dup1\n      swap2\n      sub\n      swap1\n      return\n        /* \"Periphery/StakingPoolRouter.sol\":879:1020  function getPoolAddress(address token) public view returns (address pool) {... */\n    tag_23:\n        /* \"Periphery/StakingPoolRouter.sol\":939:951  address pool */\n      0x00\n        /* \"Periphery/StakingPoolRouter.sol\":990:997  factory */\n      immutable(\"0x4f07d7aea7a8a16d4b795a9a9aabd4a50f93236b39d48ad640505cdc3dbb3bbc\")\n        /* \"Periphery/StakingPoolRouter.sol\":970:1006  IStakingPoolFactory(factory).getPool */\n      0xffffffffffffffffffffffffffffffffffffffff\n      and\n      0xbbe4f6db\n        /* \"Periphery/StakingPoolRouter.sol\":1007:1012  token */\n      dup4\n        /* \"Periphery/StakingPoolRouter.sol\":970:1013  IStakingPoolFactory(factory).getPool(token) */\n      mload(0x40)\n      dup3\n      0xffffffff\n      and\n      0xe0\n      shl\n      dup2\n      mstore\n      0x04\n      add\n      tag_84\n      swap2\n      swap1\n      tag_25\n      jump\t// in\n    tag_84:\n      0x20\n      mload(0x40)\n      dup1\n      dup4\n      sub\n      dup2\n      dup7\n      gas\n      staticcall\n      iszero\n      dup1\n      iszero\n      tag_86\n      jumpi\n      returndatasize\n      0x00\n      dup1\n      returndatacopy\n      revert(0x00, returndatasize)\n    tag_86:\n      pop\n      pop\n      pop\n      pop\n      mload(0x40)\n      returndatasize\n      not(0x1f)\n      0x1f\n      dup3\n      add\n      and\n      dup3\n      add\n      dup1\n      0x40\n      mstore\n      pop\n      dup2\n      add\n      swap1\n      tag_87\n      swap2\n      swap1\n      tag_88\n      jump\t// in\n    tag_87:\n        /* \"Periphery/StakingPoolRouter.sol\":963:1013  pool = IStakingPoolFactory(factory).getPool(token) */\n      swap1\n      pop\n        /* \"Periphery/StakingPoolRouter.sol\":879:1020  function getPoolAddress(address token) public view returns (address pool) {... */\n      swap2\n      swap1\n      pop\n      jump\t// out\n        /* \"Periphery/StakingPoolRouter.sol\":2743:3076  function reedemReward(address token) public {... */\n    tag_29:\n        /* \"Periphery/StakingPoolRouter.sol\":2797:2809  address pool */\n      0x00\n        /* \"Periphery/StakingPoolRouter.sol\":2812:2833  getPoolAddress(token) */\n      tag_90\n        /* \"Periphery/StakingPoolRouter.sol\":2827:2832  token */\n      dup3\n        /* \"Periphery/StakingPoolRouter.sol\":2812:2826  getPoolAddress */\n      tag_23\n        /* \"Periphery/StakingPoolRouter.sol\":2812:2833  getPoolAddress(token) */\n      jump\t// in\n    tag_90:\n        /* \"Periphery/StakingPoolRouter.sol\":2797:2833  address pool = getPoolAddress(token) */\n      swap1\n      pop\n        /* \"Periphery/StakingPoolRouter.sol\":2867:2868  0 */\n      0x00\n        /* \"Periphery/StakingPoolRouter.sol\":2851:2869  pool != address(0) */\n      0xffffffffffffffffffffffffffffffffffffffff\n      and\n        /* \"Periphery/StakingPoolRouter.sol\":2851:2855  pool */\n      dup2\n        /* \"Periphery/StakingPoolRouter.sol\":2851:2869  pool != address(0) */\n      0xffffffffffffffffffffffffffffffffffffffff\n      and\n      sub\n        /* \"Periphery/StakingPoolRouter.sol\":2843:2892  require(pool != address(0), \"Pool Do Not Exists\") */\n      tag_91\n      jumpi\n      mload(0x40)\n      0x08c379a000000000000000000000000000000000000000000000000000000000\n      dup2\n      mstore\n      0x04\n      add\n      tag_92\n      swap1\n      tag_93\n      jump\t// in\n    tag_92:\n      mload(0x40)\n      dup1\n      swap2\n      sub\n      swap1\n      revert\n    tag_91:\n        /* \"Periphery/StakingPoolRouter.sol\":2903:2923  uint256 rewardAmount */\n      0x00\n        /* \"Periphery/StakingPoolRouter.sol\":2926:2960  getRewardEarned(token, msg.sender) */\n      tag_94\n        /* \"Periphery/StakingPoolRouter.sol\":2942:2947  token */\n      dup4\n        /* \"Periphery/StakingPoolRouter.sol\":2949:2959  msg.sender */\n      caller\n        /* \"Periphery/StakingPoolRouter.sol\":2926:2941  getRewardEarned */\n      tag_55\n        /* \"Periphery/StakingPoolRouter.sol\":2926:2960  getRewardEarned(token, msg.sender) */\n      jump\t// in\n    tag_94:\n        /* \"Periphery/StakingPoolRouter.sol\":2903:2960  uint256 rewardAmount = getRewardEarned(token, msg.sender) */\n      swap1\n      pop\n        /* \"Periphery/StakingPoolRouter.sol\":2993:2994  0 */\n      0x00\n        /* \"Periphery/StakingPoolRouter.sol\":2978:2990  rewardAmount */\n      dup2\n        /* \"Periphery/StakingPoolRouter.sol\":2978:2994  rewardAmount > 0 */\n      gt\n        /* \"Periphery/StakingPoolRouter.sol\":2970:3015  require(rewardAmount > 0, \"No rewards Found\") */\n      tag_95\n      jumpi\n      mload(0x40)\n      0x08c379a000000000000000000000000000000000000000000000000000000000\n      dup2\n      mstore\n      0x04\n      add\n      tag_96\n      swap1\n      tag_97\n      jump\t// in\n    tag_96:\n      mload(0x40)\n      dup1\n      swap2\n      sub\n      swap1\n      revert\n    tag_95:\n        /* \"Periphery/StakingPoolRouter.sol\":3039:3043  pool */\n      dup2\n        /* \"Periphery/StakingPoolRouter.sol\":3026:3057  IStakingPool(pool).reedemReward */\n      0xffffffffffffffffffffffffffffffffffffffff\n      and\n      0x6447c5a2\n        /* \"Periphery/StakingPoolRouter.sol\":3058:3068  msg.sender */\n      caller\n        /* \"Periphery/StakingPoolRouter.sol\":3026:3069  IStakingPool(pool).reedemReward(msg.sender) */\n      mload(0x40)\n      dup3\n      0xffffffff\n      and\n      0xe0\n      shl\n      dup2\n      mstore\n      0x04\n      add\n      tag_98\n      swap2\n      swap1\n      tag_25\n      jump\t// in\n    tag_98:\n      0x00\n      mload(0x40)\n      dup1\n      dup4\n      sub\n      dup2\n      0x00\n      dup8\n      dup1\n      extcodesize\n      iszero\n      dup1\n      iszero\n      tag_99\n      jumpi\n      0x00\n      dup1\n      revert\n    tag_99:\n      pop\n      gas\n      call\n      iszero\n      dup1\n      iszero\n      tag_101\n      jumpi\n      returndatasize\n      0x00\n      dup1\n      returndatacopy\n      revert(0x00, returndatasize)\n    tag_101:\n      pop\n      pop\n      pop\n      pop\n        /* \"Periphery/StakingPoolRouter.sol\":2787:3076  {... */\n      pop\n      pop\n        /* \"Periphery/StakingPoolRouter.sol\":2743:3076  function reedemReward(address token) public {... */\n      pop\n      jump\t// out\n        /* \"Periphery/StakingPoolRouter.sol\":649:680  address public immutable rtoken */\n    tag_32:\n      immutable(\"0xd689cbfedabece86d7e5db9cbf78a17306cb7e927b4df254708fae3294ea7db3\")\n      dup2\n      jump\t// out\n        /* \"Periphery/StakingPoolRouter.sol\":3095:3363  function stakeETH(uint256 _amount) public payable {... */\n    tag_37:\n        /* \"Periphery/StakingPoolRouter.sol\":3176:3183  _amount */\n      dup1\n        /* \"Periphery/StakingPoolRouter.sol\":3163:3172  msg.value */\n      callvalue\n        /* \"Periphery/StakingPoolRouter.sol\":3163:3183  msg.value == _amount */\n      eq\n        /* \"Periphery/StakingPoolRouter.sol\":3155:3209  require(msg.value == _amount, \"Incorrect Amount sent\") */\n      tag_103\n      jumpi\n      mload(0x40)\n      0x08c379a000000000000000000000000000000000000000000000000000000000\n      dup2\n      mstore\n      0x04\n      add\n      tag_104\n      swap1\n      tag_105\n      jump\t// in\n    tag_104:\n      mload(0x40)\n      dup1\n      swap2\n      sub\n      swap1\n      revert\n    tag_103:\n        /* \"Periphery/StakingPoolRouter.sol\":3225:3230  WEXDC */\n      immutable(\"0xc93028bd73fae187d68ad55c5ac660bc6900065b273be8803cf809579312fc16\")\n        /* \"Periphery/StakingPoolRouter.sol\":3220:3239  IXDC(WEXDC).deposit */\n      0xffffffffffffffffffffffffffffffffffffffff\n      and\n      0xd0e30db0\n        /* \"Periphery/StakingPoolRouter.sol\":3247:3256  msg.value */\n      callvalue\n        /* \"Periphery/StakingPoolRouter.sol\":3220:3259  IXDC(WEXDC).deposit{value: msg.value}() */\n      mload(0x40)\n      dup3\n      0xffffffff\n      and\n      0xe0\n      shl\n      dup2\n      mstore\n      0x04\n      add\n      0x00\n      mload(0x40)\n      dup1\n      dup4\n      sub\n      dup2\n      dup6\n      dup9\n      dup1\n      extcodesize\n      iszero\n      dup1\n      iszero\n      tag_106\n      jumpi\n      0x00\n      dup1\n      revert\n    tag_106:\n      pop\n      gas\n      call\n      iszero\n      dup1\n      iszero\n      tag_108\n      jumpi\n      returndatasize\n      0x00\n      dup1\n      returndatacopy\n      revert(0x00, returndatasize)\n    tag_108:\n      pop\n      pop\n      pop\n      pop\n      pop\n        /* \"Periphery/StakingPoolRouter.sol\":3269:3324  TransferHelper.safeTransfer(WEXDC, msg.sender, _amount) */\n      tag_109\n        /* \"Periphery/StakingPoolRouter.sol\":3297:3302  WEXDC */\n      immutable(\"0xc93028bd73fae187d68ad55c5ac660bc6900065b273be8803cf809579312fc16\")\n        /* \"Periphery/StakingPoolRouter.sol\":3304:3314  msg.sender */\n      caller\n        /* \"Periphery/StakingPoolRouter.sol\":3316:3323  _amount */\n      dup4\n        /* \"Periphery/StakingPoolRouter.sol\":3269:3296  TransferHelper.safeTransfer */\n      tag_110\n        /* \"Periphery/StakingPoolRouter.sol\":3269:3324  TransferHelper.safeTransfer(WEXDC, msg.sender, _amount) */\n      jump\t// in\n    tag_109:\n        /* \"Periphery/StakingPoolRouter.sol\":3335:3356  stake(WEXDC, _amount) */\n      tag_111\n        /* \"Periphery/StakingPoolRouter.sol\":3341:3346  WEXDC */\n      immutable(\"0xc93028bd73fae187d68ad55c5ac660bc6900065b273be8803cf809579312fc16\")\n        /* \"Periphery/StakingPoolRouter.sol\":3348:3355  _amount */\n      dup3\n        /* \"Periphery/StakingPoolRouter.sol\":3335:3340  stake */\n      tag_46\n        /* \"Periphery/StakingPoolRouter.sol\":3335:3356  stake(WEXDC, _amount) */\n      jump\t// in\n    tag_111:\n        /* \"Periphery/StakingPoolRouter.sol\":3095:3363  function stakeETH(uint256 _amount) public payable {... */\n      pop\n      jump\t// out\n        /* \"Periphery/StakingPoolRouter.sol\":1167:1382  function createPool(address sToken) public {... */\n    tag_41:\n        /* \"Periphery/StakingPoolRouter.sol\":1220:1232  address pool */\n      0x00\n        /* \"Periphery/StakingPoolRouter.sol\":1235:1257  getPoolAddress(sToken) */\n      tag_113\n        /* \"Periphery/StakingPoolRouter.sol\":1250:1256  sToken */\n      dup3\n        /* \"Periphery/StakingPoolRouter.sol\":1235:1249  getPoolAddress */\n      tag_23\n        /* \"Periphery/StakingPoolRouter.sol\":1235:1257  getPoolAddress(sToken) */\n      jump\t// in\n    tag_113:\n        /* \"Periphery/StakingPoolRouter.sol\":1220:1257  address pool = getPoolAddress(sToken) */\n      swap1\n      pop\n        /* \"Periphery/StakingPoolRouter.sol\":1291:1292  0 */\n      0x00\n        /* \"Periphery/StakingPoolRouter.sol\":1275:1293  pool == address(0) */\n      0xffffffffffffffffffffffffffffffffffffffff\n      and\n        /* \"Periphery/StakingPoolRouter.sol\":1275:1279  pool */\n      dup2\n        /* \"Periphery/StakingPoolRouter.sol\":1275:1293  pool == address(0) */\n      0xffffffffffffffffffffffffffffffffffffffff\n      and\n      eq\n        /* \"Periphery/StakingPoolRouter.sol\":1267:1309  require(pool == address(0), \"Pool Exists\") */\n      tag_114\n      jumpi\n      mload(0x40)\n      0x08c379a000000000000000000000000000000000000000000000000000000000\n      dup2\n      mstore\n      0x04\n      add\n      tag_115\n      swap1\n      tag_116\n      jump\t// in\n    tag_115:\n      mload(0x40)\n      dup1\n      swap2\n      sub\n      swap1\n      revert\n    tag_114:\n        /* \"Periphery/StakingPoolRouter.sol\":1340:1347  factory */\n      immutable(\"0x4f07d7aea7a8a16d4b795a9a9aabd4a50f93236b39d48ad640505cdc3dbb3bbc\")\n        /* \"Periphery/StakingPoolRouter.sol\":1320:1359  IStakingPoolFactory(factory).createPool */\n      0xffffffffffffffffffffffffffffffffffffffff\n      and\n      0xe3433615\n        /* \"Periphery/StakingPoolRouter.sol\":1360:1366  sToken */\n      dup4\n        /* \"Periphery/StakingPoolRouter.sol\":1368:1374  rtoken */\n      immutable(\"0xd689cbfedabece86d7e5db9cbf78a17306cb7e927b4df254708fae3294ea7db3\")\n        /* \"Periphery/StakingPoolRouter.sol\":1320:1375  IStakingPoolFactory(factory).createPool(sToken, rtoken) */\n      mload(0x40)\n      dup4\n      0xffffffff\n      and\n      0xe0\n      shl\n      dup2\n      mstore\n      0x04\n      add\n      tag_117\n      swap3\n      swap2\n      swap1\n      tag_118\n      jump\t// in\n    tag_117:\n      0x20\n      mload(0x40)\n      dup1\n      dup4\n      sub\n      dup2\n      0x00\n      dup8\n      gas\n      call\n      iszero\n      dup1\n      iszero\n      tag_120\n      jumpi\n      returndatasize\n      0x00\n      dup1\n      returndatacopy\n      revert(0x00, returndatasize)\n    tag_120:\n      pop\n      pop\n      pop\n      pop\n      mload(0x40)\n      returndatasize\n      not(0x1f)\n      0x1f\n      dup3\n      add\n      and\n      dup3\n      add\n      dup1\n      0x40\n      mstore\n      pop\n      dup2\n      add\n      swap1\n      tag_121\n      swap2\n      swap1\n      tag_88\n      jump\t// in\n    tag_121:\n      pop\n        /* \"Periphery/StakingPoolRouter.sol\":1210:1382  {... */\n      pop\n        /* \"Periphery/StakingPoolRouter.sol\":1167:1382  function createPool(address sToken) public {... */\n      pop\n      jump\t// out\n        /* \"Periphery/StakingPoolRouter.sol\":1922:2370  function stake(address token, uint256 _amount) public {... */\n    tag_46:\n        /* \"Periphery/StakingPoolRouter.sol\":1986:1998  address pool */\n      0x00\n        /* \"Periphery/StakingPoolRouter.sol\":2001:2022  getPoolAddress(token) */\n      tag_123\n        /* \"Periphery/StakingPoolRouter.sol\":2016:2021  token */\n      dup4\n        /* \"Periphery/StakingPoolRouter.sol\":2001:2015  getPoolAddress */\n      tag_23\n        /* \"Periphery/StakingPoolRouter.sol\":2001:2022  getPoolAddress(token) */\n      jump\t// in\n    tag_123:\n        /* \"Periphery/StakingPoolRouter.sol\":1986:2022  address pool = getPoolAddress(token) */\n      swap1\n      pop\n        /* \"Periphery/StakingPoolRouter.sol\":2052:2053  0 */\n      0x00\n        /* \"Periphery/StakingPoolRouter.sol\":2036:2054  pool != address(0) */\n      0xffffffffffffffffffffffffffffffffffffffff\n      and\n        /* \"Periphery/StakingPoolRouter.sol\":2036:2040  pool */\n      dup2\n        /* \"Periphery/StakingPoolRouter.sol\":2036:2054  pool != address(0) */\n      0xffffffffffffffffffffffffffffffffffffffff\n      and\n      eq\n        /* \"Periphery/StakingPoolRouter.sol\":2032:2364  if (pool != address(0)) {... */\n      tag_124\n      jumpi\n        /* \"Periphery/StakingPoolRouter.sol\":2148:2152  pool */\n      dup1\n        /* \"Periphery/StakingPoolRouter.sol\":2135:2159  IStakingPool(pool).stake */\n      0xffffffffffffffffffffffffffffffffffffffff\n      and\n      0x7acb7757\n        /* \"Periphery/StakingPoolRouter.sol\":2160:2167  _amount */\n      dup4\n        /* \"Periphery/StakingPoolRouter.sol\":2169:2179  msg.sender */\n      caller\n        /* \"Periphery/StakingPoolRouter.sol\":2135:2180  IStakingPool(pool).stake(_amount, msg.sender) */\n      mload(0x40)\n      dup4\n      0xffffffff\n      and\n      0xe0\n      shl\n      dup2\n      mstore\n      0x04\n      add\n      tag_125\n      swap3\n      swap2\n      swap1\n      tag_126\n      jump\t// in\n    tag_125:\n      0x00\n      mload(0x40)\n      dup1\n      dup4\n      sub\n      dup2\n      0x00\n      dup8\n      dup1\n      extcodesize\n      iszero\n      dup1\n      iszero\n      tag_127\n      jumpi\n      0x00\n      dup1\n      revert\n    tag_127:\n      pop\n      gas\n      call\n      iszero\n      dup1\n      iszero\n      tag_129\n      jumpi\n      returndatasize\n      0x00\n      dup1\n      returndatacopy\n      revert(0x00, returndatasize)\n    tag_129:\n      pop\n      pop\n      pop\n      pop\n        /* \"Periphery/StakingPoolRouter.sol\":2032:2364  if (pool != address(0)) {... */\n      jump(tag_130)\n    tag_124:\n        /* \"Periphery/StakingPoolRouter.sol\":2211:2228  createPool(token) */\n      tag_131\n        /* \"Periphery/StakingPoolRouter.sol\":2222:2227  token */\n      dup4\n        /* \"Periphery/StakingPoolRouter.sol\":2211:2221  createPool */\n      tag_41\n        /* \"Periphery/StakingPoolRouter.sol\":2211:2228  createPool(token) */\n      jump\t// in\n    tag_131:\n        /* \"Periphery/StakingPoolRouter.sol\":2321:2325  pool */\n      dup1\n        /* \"Periphery/StakingPoolRouter.sol\":2308:2332  IStakingPool(pool).stake */\n      0xffffffffffffffffffffffffffffffffffffffff\n      and\n      0x7acb7757\n        /* \"Periphery/StakingPoolRouter.sol\":2333:2340  _amount */\n      dup4\n        /* \"Periphery/StakingPoolRouter.sol\":2342:2352  msg.sender */\n      caller\n        /* \"Periphery/StakingPoolRouter.sol\":2308:2353  IStakingPool(pool).stake(_amount, msg.sender) */\n      mload(0x40)\n      dup4\n      0xffffffff\n      and\n      0xe0\n      shl\n      dup2\n      mstore\n      0x04\n      add\n      tag_132\n      swap3\n      swap2\n      swap1\n      tag_126\n      jump\t// in\n    tag_132:\n      0x00\n      mload(0x40)\n      dup1\n      dup4\n      sub\n      dup2\n      0x00\n      dup8\n      dup1\n      extcodesize\n      iszero\n      dup1\n      iszero\n      tag_133\n      jumpi\n      0x00\n      dup1\n      revert\n    tag_133:\n      pop\n      gas\n      call\n      iszero\n      dup1\n      iszero\n      tag_135\n      jumpi\n      returndatasize\n      0x00\n      dup1\n      returndatacopy\n      revert(0x00, returndatasize)\n    tag_135:\n      pop\n      pop\n      pop\n      pop\n        /* \"Periphery/StakingPoolRouter.sol\":2032:2364  if (pool != address(0)) {... */\n    tag_130:\n        /* \"Periphery/StakingPoolRouter.sol\":1976:2370  {... */\n      pop\n        /* \"Periphery/StakingPoolRouter.sol\":1922:2370  function stake(address token, uint256 _amount) public {... */\n      pop\n      pop\n      jump\t// out\n        /* \"Periphery/StakingPoolRouter.sol\":575:607  address public immutable factory */\n    tag_49:\n      immutable(\"0x4f07d7aea7a8a16d4b795a9a9aabd4a50f93236b39d48ad640505cdc3dbb3bbc\")\n      dup2\n      jump\t// out\n        /* \"Periphery/StakingPoolRouter.sol\":1388:1682  function getRewardEarned(address token, address user)... */\n    tag_55:\n        /* \"Periphery/StakingPoolRouter.sol\":1487:1507  uint256 rewardAmount */\n      0x00\n        /* \"Periphery/StakingPoolRouter.sol\":1523:1535  address pool */\n      dup1\n        /* \"Periphery/StakingPoolRouter.sol\":1538:1559  getPoolAddress(token) */\n      tag_137\n        /* \"Periphery/StakingPoolRouter.sol\":1553:1558  token */\n      dup5\n        /* \"Periphery/StakingPoolRouter.sol\":1538:1552  getPoolAddress */\n      tag_23\n        /* \"Periphery/StakingPoolRouter.sol\":1538:1559  getPoolAddress(token) */\n      jump\t// in\n    tag_137:\n        /* \"Periphery/StakingPoolRouter.sol\":1523:1559  address pool = getPoolAddress(token) */\n      swap1\n      pop\n        /* \"Periphery/StakingPoolRouter.sol\":1593:1594  0 */\n      0x00\n        /* \"Periphery/StakingPoolRouter.sol\":1577:1595  pool != address(0) */\n      0xffffffffffffffffffffffffffffffffffffffff\n      and\n        /* \"Periphery/StakingPoolRouter.sol\":1577:1581  pool */\n      dup2\n        /* \"Periphery/StakingPoolRouter.sol\":1577:1595  pool != address(0) */\n      0xffffffffffffffffffffffffffffffffffffffff\n      and\n      sub\n        /* \"Periphery/StakingPoolRouter.sol\":1569:1617  require(pool != address(0), \"Pool don't Exists\") */\n      tag_138\n      jumpi\n      mload(0x40)\n      0x08c379a000000000000000000000000000000000000000000000000000000000\n      dup2\n      mstore\n      0x04\n      add\n      tag_139\n      swap1\n      tag_140\n      jump\t// in\n    tag_139:\n      mload(0x40)\n      dup1\n      swap2\n      sub\n      swap1\n      revert\n    tag_138:\n        /* \"Periphery/StakingPoolRouter.sol\":1656:1660  pool */\n      dup1\n        /* \"Periphery/StakingPoolRouter.sol\":1643:1669  IStakingPool(pool).rewards */\n      0xffffffffffffffffffffffffffffffffffffffff\n      and\n      0x0700037d\n        /* \"Periphery/StakingPoolRouter.sol\":1670:1674  user */\n      dup5\n        /* \"Periphery/StakingPoolRouter.sol\":1643:1675  IStakingPool(pool).rewards(user) */\n      mload(0x40)\n      dup3\n      0xffffffff\n      and\n      0xe0\n      shl\n      dup2\n      mstore\n      0x04\n      add\n      tag_141\n      swap2\n      swap1\n      tag_25\n      jump\t// in\n    tag_141:\n      0x20\n      mload(0x40)\n      dup1\n      dup4\n      sub\n      dup2\n      dup7\n      gas\n      staticcall\n      iszero\n      dup1\n      iszero\n      tag_143\n      jumpi\n      returndatasize\n      0x00\n      dup1\n      returndatacopy\n      revert(0x00, returndatasize)\n    tag_143:\n      pop\n      pop\n      pop\n      pop\n      mload(0x40)\n      returndatasize\n      not(0x1f)\n      0x1f\n      dup3\n      add\n      and\n      dup3\n      add\n      dup1\n      0x40\n      mstore\n      pop\n      dup2\n      add\n      swap1\n      tag_144\n      swap2\n      swap1\n      tag_145\n      jump\t// in\n    tag_144:\n        /* \"Periphery/StakingPoolRouter.sol\":1628:1675  rewardAmount = IStakingPool(pool).rewards(user) */\n      swap2\n      pop\n        /* \"Periphery/StakingPoolRouter.sol\":1513:1682  {... */\n      pop\n        /* \"Periphery/StakingPoolRouter.sol\":1388:1682  function getRewardEarned(address token, address user)... */\n      swap3\n      swap2\n      pop\n      pop\n      jump\t// out\n        /* \"Periphery/StakingPoolRouter.sol\":3756:3826  function reedemRewardETH() public {... */\n    tag_60:\n        /* \"Periphery/StakingPoolRouter.sol\":3800:3819  reedemReward(WEXDC) */\n      tag_147\n        /* \"Periphery/StakingPoolRouter.sol\":3813:3818  WEXDC */\n      immutable(\"0xc93028bd73fae187d68ad55c5ac660bc6900065b273be8803cf809579312fc16\")\n        /* \"Periphery/StakingPoolRouter.sol\":3800:3812  reedemReward */\n      tag_29\n        /* \"Periphery/StakingPoolRouter.sol\":3800:3819  reedemReward(WEXDC) */\n      jump\t// in\n    tag_147:\n        /* \"Periphery/StakingPoolRouter.sol\":3756:3826  function reedemRewardETH() public {... */\n      jump\t// out\n        /* \"Periphery/StakingPoolRouter.sol\":3384:3715  function withdrawETH(uint256 _amount) public {... */\n    tag_64:\n        /* \"Periphery/StakingPoolRouter.sol\":3439:3463  withdraw(WEXDC, _amount) */\n      tag_149\n        /* \"Periphery/StakingPoolRouter.sol\":3448:3453  WEXDC */\n      immutable(\"0xc93028bd73fae187d68ad55c5ac660bc6900065b273be8803cf809579312fc16\")\n        /* \"Periphery/StakingPoolRouter.sol\":3455:3462  _amount */\n      dup3\n        /* \"Periphery/StakingPoolRouter.sol\":3439:3447  withdraw */\n      tag_73\n        /* \"Periphery/StakingPoolRouter.sol\":3439:3463  withdraw(WEXDC, _amount) */\n      jump\t// in\n    tag_149:\n        /* \"Periphery/StakingPoolRouter.sol\":3474:3606  TransferHelper.safeTransferFrom(... */\n      tag_150\n        /* \"Periphery/StakingPoolRouter.sol\":3519:3524  WEXDC */\n      immutable(\"0xc93028bd73fae187d68ad55c5ac660bc6900065b273be8803cf809579312fc16\")\n        /* \"Periphery/StakingPoolRouter.sol\":3538:3548  msg.sender */\n      caller\n        /* \"Periphery/StakingPoolRouter.sol\":3570:3574  this */\n      address\n        /* \"Periphery/StakingPoolRouter.sol\":3589:3596  _amount */\n      dup5\n        /* \"Periphery/StakingPoolRouter.sol\":3474:3505  TransferHelper.safeTransferFrom */\n      tag_151\n        /* \"Periphery/StakingPoolRouter.sol\":3474:3606  TransferHelper.safeTransferFrom(... */\n      jump\t// in\n    tag_150:\n        /* \"Periphery/StakingPoolRouter.sol\":3622:3627  WEXDC */\n      immutable(\"0xc93028bd73fae187d68ad55c5ac660bc6900065b273be8803cf809579312fc16\")\n        /* \"Periphery/StakingPoolRouter.sol\":3617:3637  IXDC(WEXDC).withdraw */\n      0xffffffffffffffffffffffffffffffffffffffff\n      and\n      0x2e1a7d4d\n        /* \"Periphery/StakingPoolRouter.sol\":3638:3645  _amount */\n      dup3\n        /* \"Periphery/StakingPoolRouter.sol\":3617:3646  IXDC(WEXDC).withdraw(_amount) */\n      mload(0x40)\n      dup3\n      0xffffffff\n      and\n      0xe0\n      shl\n      dup2\n      mstore\n      0x04\n      add\n      tag_152\n      swap2\n      swap1\n      tag_57\n      jump\t// in\n    tag_152:\n      0x00\n      mload(0x40)\n      dup1\n      dup4\n      sub\n      dup2\n      0x00\n      dup8\n      dup1\n      extcodesize\n      iszero\n      dup1\n      iszero\n      tag_153\n      jumpi\n      0x00\n      dup1\n      revert\n    tag_153:\n      pop\n      gas\n      call\n      iszero\n      dup1\n      iszero\n      tag_155\n      jumpi\n      returndatasize\n      0x00\n      dup1\n      returndatacopy\n      revert(0x00, returndatasize)\n    tag_155:\n      pop\n      pop\n      pop\n      pop\n        /* \"Periphery/StakingPoolRouter.sol\":3657:3708  TransferHelper.safeTransferETH(msg.sender, _amount) */\n      tag_156\n        /* \"Periphery/StakingPoolRouter.sol\":3688:3698  msg.sender */\n      caller\n        /* \"Periphery/StakingPoolRouter.sol\":3700:3707  _amount */\n      dup3\n        /* \"Periphery/StakingPoolRouter.sol\":3657:3687  TransferHelper.safeTransferETH */\n      tag_157\n        /* \"Periphery/StakingPoolRouter.sol\":3657:3708  TransferHelper.safeTransferETH(msg.sender, _amount) */\n      jump\t// in\n    tag_156:\n        /* \"Periphery/StakingPoolRouter.sol\":3384:3715  function withdrawETH(uint256 _amount) public {... */\n      pop\n      jump\t// out\n        /* \"Periphery/StakingPoolRouter.sol\":1688:1916  function getStaked(address user, address token)... */\n    tag_68:\n        /* \"Periphery/StakingPoolRouter.sol\":1781:1801  uint256 stakedAmount */\n      0x00\n        /* \"Periphery/StakingPoolRouter.sol\":1817:1829  address pool */\n      dup1\n        /* \"Periphery/StakingPoolRouter.sol\":1832:1853  getPoolAddress(token) */\n      tag_159\n        /* \"Periphery/StakingPoolRouter.sol\":1847:1852  token */\n      dup4\n        /* \"Periphery/StakingPoolRouter.sol\":1832:1846  getPoolAddress */\n      tag_23\n        /* \"Periphery/StakingPoolRouter.sol\":1832:1853  getPoolAddress(token) */\n      jump\t// in\n    tag_159:\n        /* \"Periphery/StakingPoolRouter.sol\":1817:1853  address pool = getPoolAddress(token) */\n      swap1\n      pop\n        /* \"Periphery/StakingPoolRouter.sol\":1891:1895  pool */\n      dup1\n        /* \"Periphery/StakingPoolRouter.sol\":1878:1903  IStakingPool(pool).staked */\n      0xffffffffffffffffffffffffffffffffffffffff\n      and\n      0x98807d84\n        /* \"Periphery/StakingPoolRouter.sol\":1904:1908  user */\n      dup6\n        /* \"Periphery/StakingPoolRouter.sol\":1878:1909  IStakingPool(pool).staked(user) */\n      mload(0x40)\n      dup3\n      0xffffffff\n      and\n      0xe0\n      shl\n      dup2\n      mstore\n      0x04\n      add\n      tag_160\n      swap2\n      swap1\n      tag_25\n      jump\t// in\n    tag_160:\n      0x20\n      mload(0x40)\n      dup1\n      dup4\n      sub\n      dup2\n      dup7\n      gas\n      staticcall\n      iszero\n      dup1\n      iszero\n      tag_162\n      jumpi\n      returndatasize\n      0x00\n      dup1\n      returndatacopy\n      revert(0x00, returndatasize)\n    tag_162:\n      pop\n      pop\n      pop\n      pop\n      mload(0x40)\n      returndatasize\n      not(0x1f)\n      0x1f\n      dup3\n      add\n      and\n      dup3\n      add\n      dup1\n      0x40\n      mstore\n      pop\n      dup2\n      add\n      swap1\n      tag_163\n      swap2\n      swap1\n      tag_145\n      jump\t// in\n    tag_163:\n        /* \"Periphery/StakingPoolRouter.sol\":1863:1909  stakedAmount = IStakingPool(pool).staked(user) */\n      swap2\n      pop\n        /* \"Periphery/StakingPoolRouter.sol\":1807:1916  {... */\n      pop\n        /* \"Periphery/StakingPoolRouter.sol\":1688:1916  function getStaked(address user, address token)... */\n      swap3\n      swap2\n      pop\n      pop\n      jump\t// out\n        /* \"Periphery/StakingPoolRouter.sol\":2376:2737  function withdraw(address token, uint256 _amount) public {... */\n    tag_73:\n        /* \"Periphery/StakingPoolRouter.sol\":2443:2455  address pool */\n      0x00\n        /* \"Periphery/StakingPoolRouter.sol\":2458:2479  getPoolAddress(token) */\n      tag_165\n        /* \"Periphery/StakingPoolRouter.sol\":2473:2478  token */\n      dup4\n        /* \"Periphery/StakingPoolRouter.sol\":2458:2472  getPoolAddress */\n      tag_23\n        /* \"Periphery/StakingPoolRouter.sol\":2458:2479  getPoolAddress(token) */\n      jump\t// in\n    tag_165:\n        /* \"Periphery/StakingPoolRouter.sol\":2443:2479  address pool = getPoolAddress(token) */\n      swap1\n      pop\n        /* \"Periphery/StakingPoolRouter.sol\":2513:2514  0 */\n      0x00\n        /* \"Periphery/StakingPoolRouter.sol\":2497:2515  pool != address(0) */\n      0xffffffffffffffffffffffffffffffffffffffff\n      and\n        /* \"Periphery/StakingPoolRouter.sol\":2497:2501  pool */\n      dup2\n        /* \"Periphery/StakingPoolRouter.sol\":2497:2515  pool != address(0) */\n      0xffffffffffffffffffffffffffffffffffffffff\n      and\n      sub\n        /* \"Periphery/StakingPoolRouter.sol\":2489:2538  require(pool != address(0), \"Pool Do Not Exists\") */\n      tag_166\n      jumpi\n      mload(0x40)\n      0x08c379a000000000000000000000000000000000000000000000000000000000\n      dup2\n      mstore\n      0x04\n      add\n      tag_167\n      swap1\n      tag_93\n      jump\t// in\n    tag_167:\n      mload(0x40)\n      dup1\n      swap2\n      sub\n      swap1\n      revert\n    tag_166:\n        /* \"Periphery/StakingPoolRouter.sol\":2549:2569  uint256 stakedAmount */\n      0x00\n        /* \"Periphery/StakingPoolRouter.sol\":2572:2600  getStaked(msg.sender, token) */\n      tag_168\n        /* \"Periphery/StakingPoolRouter.sol\":2582:2592  msg.sender */\n      caller\n        /* \"Periphery/StakingPoolRouter.sol\":2594:2599  token */\n      dup6\n        /* \"Periphery/StakingPoolRouter.sol\":2572:2581  getStaked */\n      tag_68\n        /* \"Periphery/StakingPoolRouter.sol\":2572:2600  getStaked(msg.sender, token) */\n      jump\t// in\n    tag_168:\n        /* \"Periphery/StakingPoolRouter.sol\":2549:2600  uint256 stakedAmount = getStaked(msg.sender, token) */\n      swap1\n      pop\n        /* \"Periphery/StakingPoolRouter.sol\":2634:2641  _amount */\n      dup3\n        /* \"Periphery/StakingPoolRouter.sol\":2618:2630  stakedAmount */\n      dup2\n        /* \"Periphery/StakingPoolRouter.sol\":2618:2641  stakedAmount >= _amount */\n      lt\n      iszero\n        /* \"Periphery/StakingPoolRouter.sol\":2610:2671  require(stakedAmount >= _amount, \"Incorrect Balance entered\") */\n      tag_169\n      jumpi\n      mload(0x40)\n      0x08c379a000000000000000000000000000000000000000000000000000000000\n      dup2\n      mstore\n      0x04\n      add\n      tag_170\n      swap1\n      tag_171\n      jump\t// in\n    tag_170:\n      mload(0x40)\n      dup1\n      swap2\n      sub\n      swap1\n      revert\n    tag_169:\n        /* \"Periphery/StakingPoolRouter.sol\":2695:2699  pool */\n      dup2\n        /* \"Periphery/StakingPoolRouter.sol\":2682:2709  IStakingPool(pool).withdraw */\n      0xffffffffffffffffffffffffffffffffffffffff\n      and\n      0xf714ce\n        /* \"Periphery/StakingPoolRouter.sol\":2710:2717  _amount */\n      dup5\n        /* \"Periphery/StakingPoolRouter.sol\":2719:2729  msg.sender */\n      caller\n        /* \"Periphery/StakingPoolRouter.sol\":2682:2730  IStakingPool(pool).withdraw(_amount, msg.sender) */\n      mload(0x40)\n      dup4\n      0xffffffff\n      and\n      0xe0\n      shl\n      dup2\n      mstore\n      0x04\n      add\n      tag_172\n      swap3\n      swap2\n      swap1\n      tag_126\n      jump\t// in\n    tag_172:\n      0x00\n      mload(0x40)\n      dup1\n      dup4\n      sub\n      dup2\n      0x00\n      dup8\n      dup1\n      extcodesize\n      iszero\n      dup1\n      iszero\n      tag_173\n      jumpi\n      0x00\n      dup1\n      revert\n    tag_173:\n      pop\n      gas\n      call\n      iszero\n      dup1\n      iszero\n      tag_175\n      jumpi\n      returndatasize\n      0x00\n      dup1\n      returndatacopy\n      revert(0x00, returndatasize)\n    tag_175:\n      pop\n      pop\n      pop\n      pop\n        /* \"Periphery/StakingPoolRouter.sol\":2433:2737  {... */\n      pop\n      pop\n        /* \"Periphery/StakingPoolRouter.sol\":2376:2737  function withdraw(address token, uint256 _amount) public {... */\n      pop\n      pop\n      jump\t// out\n        /* \"Periphery/StakingPoolRouter.sol\":1026:1161  function getBalance(address token) public view returns (uint256 balance) {... */\n    tag_77:\n        /* \"Periphery/StakingPoolRouter.sol\":1082:1097  uint256 balance */\n      0x00\n        /* \"Periphery/StakingPoolRouter.sol\":1126:1131  token */\n      dup2\n        /* \"Periphery/StakingPoolRouter.sol\":1119:1142  IERC20(token).balanceOf */\n      0xffffffffffffffffffffffffffffffffffffffff\n      and\n      0x70a08231\n        /* \"Periphery/StakingPoolRouter.sol\":1143:1153  msg.sender */\n      caller\n        /* \"Periphery/StakingPoolRouter.sol\":1119:1154  IERC20(token).balanceOf(msg.sender) */\n      mload(0x40)\n      dup3\n      0xffffffff\n      and\n      0xe0\n      shl\n      dup2\n      mstore\n      0x04\n      add\n      tag_177\n      swap2\n      swap1\n      tag_25\n      jump\t// in\n    tag_177:\n      0x20\n      mload(0x40)\n      dup1\n      dup4\n      sub\n      dup2\n      dup7\n      gas\n      staticcall\n      iszero\n      dup1\n      iszero\n      tag_179\n      jumpi\n      returndatasize\n      0x00\n      dup1\n      returndatacopy\n      revert(0x00, returndatasize)\n    tag_179:\n      pop\n      pop\n      pop\n      pop\n      mload(0x40)\n      returndatasize\n      not(0x1f)\n      0x1f\n      dup3\n      add\n      and\n      dup3\n      add\n      dup1\n      0x40\n      mstore\n      pop\n      dup2\n      add\n      swap1\n      tag_180\n      swap2\n      swap1\n      tag_145\n      jump\t// in\n    tag_180:\n        /* \"Periphery/StakingPoolRouter.sol\":1109:1154  balance = IERC20(token).balanceOf(msg.sender) */\n      swap1\n      pop\n        /* \"Periphery/StakingPoolRouter.sol\":1026:1161  function getBalance(address token) public view returns (uint256 balance) {... */\n      swap2\n      swap1\n      pop\n      jump\t// out\n        /* \"Periphery/StakingPoolRouter.sol\":613:643  address public immutable WEXDC */\n    tag_81:\n      immutable(\"0xc93028bd73fae187d68ad55c5ac660bc6900065b273be8803cf809579312fc16\")\n      dup2\n      jump\t// out\n        /* \"Periphery/libraries/TransferHelper.sol\":660:1120  function safeTransfer(... */\n    tag_110:\n        /* \"Periphery/libraries/TransferHelper.sol\":840:852  bool success */\n      0x00\n        /* \"Periphery/libraries/TransferHelper.sol\":854:871  bytes memory data */\n      dup1\n        /* \"Periphery/libraries/TransferHelper.sol\":875:880  token */\n      dup5\n        /* \"Periphery/libraries/TransferHelper.sol\":875:885  token.call */\n      0xffffffffffffffffffffffffffffffffffffffff\n      and\n        /* \"Periphery/libraries/TransferHelper.sol\":922:932  0xa9059cbb */\n      0xa9059cbb\n        /* \"Periphery/libraries/TransferHelper.sol\":934:936  to */\n      dup6\n        /* \"Periphery/libraries/TransferHelper.sol\":938:943  value */\n      dup6\n        /* \"Periphery/libraries/TransferHelper.sol\":899:944  abi.encodeWithSelector(0xa9059cbb, to, value) */\n      add(0x24, mload(0x40))\n      tag_182\n      swap3\n      swap2\n      swap1\n      tag_183\n      jump\t// in\n    tag_182:\n      mload(0x40)\n      0x20\n      dup2\n      dup4\n      sub\n      sub\n      dup2\n      mstore\n      swap1\n      0x40\n      mstore\n      swap1\n      0xe0\n      shl\n      0x20\n      dup3\n      add\n      dup1\n      mload\n      0xffffffffffffffffffffffffffffffffffffffffffffffffffffffff\n      dup4\n      dup2\n      dup4\n      and\n      or\n      dup4\n      mstore\n      pop\n      pop\n      pop\n      pop\n        /* \"Periphery/libraries/TransferHelper.sol\":875:954  token.call(... */\n      mload(0x40)\n      tag_184\n      swap2\n      swap1\n      tag_185\n      jump\t// in\n    tag_184:\n      0x00\n      mload(0x40)\n      dup1\n      dup4\n      sub\n      dup2\n      0x00\n      dup7\n      gas\n      call\n      swap2\n      pop\n      pop\n      returndatasize\n      dup1\n      0x00\n      dup2\n      eq\n      tag_188\n      jumpi\n      mload(0x40)\n      swap2\n      pop\n      and(add(returndatasize, 0x3f), not(0x1f))\n      dup3\n      add\n      0x40\n      mstore\n      returndatasize\n      dup3\n      mstore\n      returndatasize\n      0x00\n      0x20\n      dup5\n      add\n      returndatacopy\n      jump(tag_187)\n    tag_188:\n      0x60\n      swap2\n      pop\n    tag_187:\n      pop\n        /* \"Periphery/libraries/TransferHelper.sol\":839:954  (bool success, bytes memory data) = token.call(... */\n      swap2\n      pop\n      swap2\n      pop\n        /* \"Periphery/libraries/TransferHelper.sol\":985:992  success */\n      dup2\n        /* \"Periphery/libraries/TransferHelper.sol\":985:1042  success && (data.length == 0 || abi.decode(data, (bool))) */\n      dup1\n      iszero\n      tag_189\n      jumpi\n      pop\n        /* \"Periphery/libraries/TransferHelper.sol\":1012:1013  0 */\n      0x00\n        /* \"Periphery/libraries/TransferHelper.sol\":997:1001  data */\n      dup2\n        /* \"Periphery/libraries/TransferHelper.sol\":997:1008  data.length */\n      mload\n        /* \"Periphery/libraries/TransferHelper.sol\":997:1013  data.length == 0 */\n      eq\n        /* \"Periphery/libraries/TransferHelper.sol\":997:1041  data.length == 0 || abi.decode(data, (bool)) */\n      dup1\n      tag_190\n      jumpi\n      pop\n        /* \"Periphery/libraries/TransferHelper.sol\":1028:1032  data */\n      dup1\n        /* \"Periphery/libraries/TransferHelper.sol\":1017:1041  abi.decode(data, (bool)) */\n      dup1\n      0x20\n      add\n      swap1\n      mload\n      dup2\n      add\n      swap1\n      tag_191\n      swap2\n      swap1\n      tag_192\n      jump\t// in\n    tag_191:\n        /* \"Periphery/libraries/TransferHelper.sol\":997:1041  data.length == 0 || abi.decode(data, (bool)) */\n    tag_190:\n        /* \"Periphery/libraries/TransferHelper.sol\":985:1042  success && (data.length == 0 || abi.decode(data, (bool))) */\n    tag_189:\n        /* \"Periphery/libraries/TransferHelper.sol\":964:1113  require(... */\n      tag_193\n      jumpi\n      mload(0x40)\n      0x08c379a000000000000000000000000000000000000000000000000000000000\n      dup2\n      mstore\n      0x04\n      add\n      tag_194\n      swap1\n      tag_195\n      jump\t// in\n    tag_194:\n      mload(0x40)\n      dup1\n      swap2\n      sub\n      swap1\n      revert\n    tag_193:\n        /* \"Periphery/libraries/TransferHelper.sol\":763:1120  {... */\n      pop\n      pop\n        /* \"Periphery/libraries/TransferHelper.sol\":660:1120  function safeTransfer(... */\n      pop\n      pop\n      pop\n      jump\t// out\n        /* \"Periphery/libraries/TransferHelper.sol\":1126:1634  function safeTransferFrom(... */\n    tag_151:\n        /* \"Periphery/libraries/TransferHelper.sol\":1344:1356  bool success */\n      0x00\n        /* \"Periphery/libraries/TransferHelper.sol\":1358:1375  bytes memory data */\n      dup1\n        /* \"Periphery/libraries/TransferHelper.sol\":1379:1384  token */\n      dup6\n        /* \"Periphery/libraries/TransferHelper.sol\":1379:1389  token.call */\n      0xffffffffffffffffffffffffffffffffffffffff\n      and\n        /* \"Periphery/libraries/TransferHelper.sol\":1426:1436  0x23b872dd */\n      0x23b872dd\n        /* \"Periphery/libraries/TransferHelper.sol\":1438:1442  from */\n      dup7\n        /* \"Periphery/libraries/TransferHelper.sol\":1444:1446  to */\n      dup7\n        /* \"Periphery/libraries/TransferHelper.sol\":1448:1453  value */\n      dup7\n        /* \"Periphery/libraries/TransferHelper.sol\":1403:1454  abi.encodeWithSelector(0x23b872dd, from, to, value) */\n      add(0x24, mload(0x40))\n      tag_197\n      swap4\n      swap3\n      swap2\n      swap1\n      tag_198\n      jump\t// in\n    tag_197:\n      mload(0x40)\n      0x20\n      dup2\n      dup4\n      sub\n      sub\n      dup2\n      mstore\n      swap1\n      0x40\n      mstore\n      swap1\n      0xe0\n      shl\n      0x20\n      dup3\n      add\n      dup1\n      mload\n      0xffffffffffffffffffffffffffffffffffffffffffffffffffffffff\n      dup4\n      dup2\n      dup4\n      and\n      or\n      dup4\n      mstore\n      pop\n      pop\n      pop\n      pop\n        /* \"Periphery/libraries/TransferHelper.sol\":1379:1464  token.call(... */\n      mload(0x40)\n      tag_199\n      swap2\n      swap1\n      tag_185\n      jump\t// in\n    tag_199:\n      0x00\n      mload(0x40)\n      dup1\n      dup4\n      sub\n      dup2\n      0x00\n      dup7\n      gas\n      call\n      swap2\n      pop\n      pop\n      returndatasize\n      dup1\n      0x00\n      dup2\n      eq\n      tag_202\n      jumpi\n      mload(0x40)\n      swap2\n      pop\n      and(add(returndatasize, 0x3f), not(0x1f))\n      dup3\n      add\n      0x40\n      mstore\n      returndatasize\n      dup3\n      mstore\n      returndatasize\n      0x00\n      0x20\n      dup5\n      add\n      returndatacopy\n      jump(tag_201)\n    tag_202:\n      0x60\n      swap2\n      pop\n    tag_201:\n      pop\n        /* \"Periphery/libraries/TransferHelper.sol\":1343:1464  (bool success, bytes memory data) = token.call(... */\n      swap2\n      pop\n      swap2\n      pop\n        /* \"Periphery/libraries/TransferHelper.sol\":1495:1502  success */\n      dup2\n        /* \"Periphery/libraries/TransferHelper.sol\":1495:1552  success && (data.length == 0 || abi.decode(data, (bool))) */\n      dup1\n      iszero\n      tag_203\n      jumpi\n      pop\n        /* \"Periphery/libraries/TransferHelper.sol\":1522:1523  0 */\n      0x00\n        /* \"Periphery/libraries/TransferHelper.sol\":1507:1511  data */\n      dup2\n        /* \"Periphery/libraries/TransferHelper.sol\":1507:1518  data.length */\n      mload\n        /* \"Periphery/libraries/TransferHelper.sol\":1507:1523  data.length == 0 */\n      eq\n        /* \"Periphery/libraries/TransferHelper.sol\":1507:1551  data.length == 0 || abi.decode(data, (bool)) */\n      dup1\n      tag_204\n      jumpi\n      pop\n        /* \"Periphery/libraries/TransferHelper.sol\":1538:1542  data */\n      dup1\n        /* \"Periphery/libraries/TransferHelper.sol\":1527:1551  abi.decode(data, (bool)) */\n      dup1\n      0x20\n      add\n      swap1\n      mload\n      dup2\n      add\n      swap1\n      tag_205\n      swap2\n      swap1\n      tag_192\n      jump\t// in\n    tag_205:\n        /* \"Periphery/libraries/TransferHelper.sol\":1507:1551  data.length == 0 || abi.decode(data, (bool)) */\n    tag_204:\n        /* \"Periphery/libraries/TransferHelper.sol\":1495:1552  success && (data.length == 0 || abi.decode(data, (bool))) */\n    tag_203:\n        /* \"Periphery/libraries/TransferHelper.sol\":1474:1627  require(... */\n      tag_206\n      jumpi\n      mload(0x40)\n      0x08c379a000000000000000000000000000000000000000000000000000000000\n      dup2\n      mstore\n      0x04\n      add\n      tag_207\n      swap1\n      tag_208\n      jump\t// in\n    tag_207:\n      mload(0x40)\n      dup1\n      swap2\n      sub\n      swap1\n      revert\n    tag_206:\n        /* \"Periphery/libraries/TransferHelper.sol\":1255:1634  {... */\n      pop\n      pop\n        /* \"Periphery/libraries/TransferHelper.sol\":1126:1634  function safeTransferFrom(... */\n      pop\n      pop\n      pop\n      pop\n      jump\t// out\n        /* \"Periphery/libraries/TransferHelper.sol\":1640:1888  function safeTransferETH(address to, uint256 value) internal {... */\n    tag_157:\n        /* \"Periphery/libraries/TransferHelper.sol\":1712:1724  bool success */\n      0x00\n        /* \"Periphery/libraries/TransferHelper.sol\":1730:1732  to */\n      dup3\n        /* \"Periphery/libraries/TransferHelper.sol\":1730:1737  to.call */\n      0xffffffffffffffffffffffffffffffffffffffff\n      and\n        /* \"Periphery/libraries/TransferHelper.sol\":1745:1750  value */\n      dup3\n        /* \"Periphery/libraries/TransferHelper.sol\":1762:1763  0 */\n      0x00\n        /* \"Periphery/libraries/TransferHelper.sol\":1752:1764  new bytes(0) */\n      0xffffffffffffffff\n      dup2\n      gt\n      iszero\n      tag_210\n      jumpi\n      tag_211\n      tag_212\n      jump\t// in\n    tag_211:\n    tag_210:\n      mload(0x40)\n      swap1\n      dup1\n      dup3\n      mstore\n      dup1\n      0x1f\n      add\n      not(0x1f)\n      and\n      0x20\n      add\n      dup3\n      add\n      0x40\n      mstore\n      dup1\n      iszero\n      tag_213\n      jumpi\n      dup2\n      0x20\n      add\n      0x01\n      dup3\n      mul\n      dup1\n      calldatasize\n      dup4\n      calldatacopy\n      dup1\n      dup3\n      add\n      swap2\n      pop\n      pop\n      swap1\n      pop\n    tag_213:\n      pop\n        /* \"Periphery/libraries/TransferHelper.sol\":1730:1765  to.call{value: value}(new bytes(0)) */\n      mload(0x40)\n      tag_214\n      swap2\n      swap1\n      tag_185\n      jump\t// in\n    tag_214:\n      0x00\n      mload(0x40)\n      dup1\n      dup4\n      sub\n      dup2\n      dup6\n      dup8\n      gas\n      call\n      swap3\n      pop\n      pop\n      pop\n      returndatasize\n      dup1\n      0x00\n      dup2\n      eq\n      tag_217\n      jumpi\n      mload(0x40)\n      swap2\n      pop\n      and(add(returndatasize, 0x3f), not(0x1f))\n      dup3\n      add\n      0x40\n      mstore\n      returndatasize\n      dup3\n      mstore\n      returndatasize\n      0x00\n      0x20\n      dup5\n      add\n      returndatacopy\n      jump(tag_216)\n    tag_217:\n      0x60\n      swap2\n      pop\n    tag_216:\n      pop\n        /* \"Periphery/libraries/TransferHelper.sol\":1711:1765  (bool success, ) = to.call{value: value}(new bytes(0)) */\n      pop\n      swap1\n      pop\n        /* \"Periphery/libraries/TransferHelper.sol\":1796:1803  success */\n      dup1\n        /* \"Periphery/libraries/TransferHelper.sol\":1775:1881  require(... */\n      tag_218\n      jumpi\n      mload(0x40)\n      0x08c379a000000000000000000000000000000000000000000000000000000000\n      dup2\n      mstore\n      0x04\n      add\n      tag_219\n      swap1\n      tag_220\n      jump\t// in\n    tag_219:\n      mload(0x40)\n      dup1\n      swap2\n      sub\n      swap1\n      revert\n    tag_218:\n        /* \"Periphery/libraries/TransferHelper.sol\":1701:1888  {... */\n      pop\n        /* \"Periphery/libraries/TransferHelper.sol\":1640:1888  function safeTransferETH(address to, uint256 value) internal {... */\n      pop\n      pop\n      jump\t// out\n        /* \"#utility.yul\":88:205   */\n    tag_222:\n        /* \"#utility.yul\":197:198   */\n      0x00\n        /* \"#utility.yul\":194:195   */\n      dup1\n        /* \"#utility.yul\":187:199   */\n      revert\n        /* \"#utility.yul\":334:460   */\n    tag_224:\n        /* \"#utility.yul\":371:378   */\n      0x00\n        /* \"#utility.yul\":411:453   */\n      0xffffffffffffffffffffffffffffffffffffffff\n        /* \"#utility.yul\":404:409   */\n      dup3\n        /* \"#utility.yul\":400:454   */\n      and\n        /* \"#utility.yul\":389:454   */\n      swap1\n      pop\n        /* \"#utility.yul\":334:460   */\n      swap2\n      swap1\n      pop\n      jump\t// out\n        /* \"#utility.yul\":466:562   */\n    tag_225:\n        /* \"#utility.yul\":503:510   */\n      0x00\n        /* \"#utility.yul\":532:556   */\n      tag_267\n        /* \"#utility.yul\":550:555   */\n      dup3\n        /* \"#utility.yul\":532:556   */\n      tag_224\n      jump\t// in\n    tag_267:\n        /* \"#utility.yul\":521:556   */\n      swap1\n      pop\n        /* \"#utility.yul\":466:562   */\n      swap2\n      swap1\n      pop\n      jump\t// out\n        /* \"#utility.yul\":568:690   */\n    tag_226:\n        /* \"#utility.yul\":641:665   */\n      tag_269\n        /* \"#utility.yul\":659:664   */\n      dup2\n        /* \"#utility.yul\":641:665   */\n      tag_225\n      jump\t// in\n    tag_269:\n        /* \"#utility.yul\":634:639   */\n      dup2\n        /* \"#utility.yul\":631:666   */\n      eq\n        /* \"#utility.yul\":621:684   */\n      tag_270\n      jumpi\n        /* \"#utility.yul\":680:681   */\n      0x00\n        /* \"#utility.yul\":677:678   */\n      dup1\n        /* \"#utility.yul\":670:682   */\n      revert\n        /* \"#utility.yul\":621:684   */\n    tag_270:\n        /* \"#utility.yul\":568:690   */\n      pop\n      jump\t// out\n        /* \"#utility.yul\":696:835   */\n    tag_227:\n        /* \"#utility.yul\":742:747   */\n      0x00\n        /* \"#utility.yul\":780:786   */\n      dup2\n        /* \"#utility.yul\":767:787   */\n      calldataload\n        /* \"#utility.yul\":758:787   */\n      swap1\n      pop\n        /* \"#utility.yul\":796:829   */\n      tag_272\n        /* \"#utility.yul\":823:828   */\n      dup2\n        /* \"#utility.yul\":796:829   */\n      tag_226\n      jump\t// in\n    tag_272:\n        /* \"#utility.yul\":696:835   */\n      swap3\n      swap2\n      pop\n      pop\n      jump\t// out\n        /* \"#utility.yul\":841:1170   */\n    tag_22:\n        /* \"#utility.yul\":900:906   */\n      0x00\n        /* \"#utility.yul\":949:951   */\n      0x20\n        /* \"#utility.yul\":937:946   */\n      dup3\n        /* \"#utility.yul\":928:935   */\n      dup5\n        /* \"#utility.yul\":924:947   */\n      sub\n        /* \"#utility.yul\":920:952   */\n      slt\n        /* \"#utility.yul\":917:1036   */\n      iszero\n      tag_274\n      jumpi\n        /* \"#utility.yul\":955:1034   */\n      tag_275\n      tag_222\n      jump\t// in\n    tag_275:\n        /* \"#utility.yul\":917:1036   */\n    tag_274:\n        /* \"#utility.yul\":1075:1076   */\n      0x00\n        /* \"#utility.yul\":1100:1153   */\n      tag_276\n        /* \"#utility.yul\":1145:1152   */\n      dup5\n        /* \"#utility.yul\":1136:1142   */\n      dup3\n        /* \"#utility.yul\":1125:1134   */\n      dup6\n        /* \"#utility.yul\":1121:1143   */\n      add\n        /* \"#utility.yul\":1100:1153   */\n      tag_227\n      jump\t// in\n    tag_276:\n        /* \"#utility.yul\":1090:1153   */\n      swap2\n      pop\n        /* \"#utility.yul\":1046:1163   */\n      pop\n        /* \"#utility.yul\":841:1170   */\n      swap3\n      swap2\n      pop\n      pop\n      jump\t// out\n        /* \"#utility.yul\":1176:1294   */\n    tag_228:\n        /* \"#utility.yul\":1263:1287   */\n      tag_278\n        /* \"#utility.yul\":1281:1286   */\n      dup2\n        /* \"#utility.yul\":1263:1287   */\n      tag_225\n      jump\t// in\n    tag_278:\n        /* \"#utility.yul\":1258:1261   */\n      dup3\n        /* \"#utility.yul\":1251:1288   */\n      mstore\n        /* \"#utility.yul\":1176:1294   */\n      pop\n      pop\n      jump\t// out\n        /* \"#utility.yul\":1300:1522   */\n    tag_25:\n        /* \"#utility.yul\":1393:1397   */\n      0x00\n        /* \"#utility.yul\":1431:1433   */\n      0x20\n        /* \"#utility.yul\":1420:1429   */\n      dup3\n        /* \"#utility.yul\":1416:1434   */\n      add\n        /* \"#utility.yul\":1408:1434   */\n      swap1\n      pop\n        /* \"#utility.yul\":1444:1515   */\n      tag_280\n        /* \"#utility.yul\":1512:1513   */\n      0x00\n        /* \"#utility.yul\":1501:1510   */\n      dup4\n        /* \"#utility.yul\":1497:1514   */\n      add\n        /* \"#utility.yul\":1488:1494   */\n      dup5\n        /* \"#utility.yul\":1444:1515   */\n      tag_228\n      jump\t// in\n    tag_280:\n        /* \"#utility.yul\":1300:1522   */\n      swap3\n      swap2\n      pop\n      pop\n      jump\t// out\n        /* \"#utility.yul\":1528:1605   */\n    tag_229:\n        /* \"#utility.yul\":1565:1572   */\n      0x00\n        /* \"#utility.yul\":1594:1599   */\n      dup2\n        /* \"#utility.yul\":1583:1599   */\n      swap1\n      pop\n        /* \"#utility.yul\":1528:1605   */\n      swap2\n      swap1\n      pop\n      jump\t// out\n        /* \"#utility.yul\":1611:1733   */\n    tag_230:\n        /* \"#utility.yul\":1684:1708   */\n      tag_283\n        /* \"#utility.yul\":1702:1707   */\n      dup2\n        /* \"#utility.yul\":1684:1708   */\n      tag_229\n      jump\t// in\n    tag_283:\n        /* \"#utility.yul\":1677:1682   */\n      dup2\n        /* \"#utility.yul\":1674:1709   */\n      eq\n        /* \"#utility.yul\":1664:1727   */\n      tag_284\n      jumpi\n        /* \"#utility.yul\":1723:1724   */\n      0x00\n        /* \"#utility.yul\":1720:1721   */\n      dup1\n        /* \"#utility.yul\":1713:1725   */\n      revert\n        /* \"#utility.yul\":1664:1727   */\n    tag_284:\n        /* \"#utility.yul\":1611:1733   */\n      pop\n      jump\t// out\n        /* \"#utility.yul\":1739:1878   */\n    tag_231:\n        /* \"#utility.yul\":1785:1790   */\n      0x00\n        /* \"#utility.yul\":1823:1829   */\n      dup2\n        /* \"#utility.yul\":1810:1830   */\n      calldataload\n        /* \"#utility.yul\":1801:1830   */\n      swap1\n      pop\n        /* \"#utility.yul\":1839:1872   */\n      tag_286\n        /* \"#utility.yul\":1866:1871   */\n      dup2\n        /* \"#utility.yul\":1839:1872   */\n      tag_230\n      jump\t// in\n    tag_286:\n        /* \"#utility.yul\":1739:1878   */\n      swap3\n      swap2\n      pop\n      pop\n      jump\t// out\n        /* \"#utility.yul\":1884:2213   */\n    tag_36:\n        /* \"#utility.yul\":1943:1949   */\n      0x00\n        /* \"#utility.yul\":1992:1994   */\n      0x20\n        /* \"#utility.yul\":1980:1989   */\n      dup3\n        /* \"#utility.yul\":1971:1978   */\n      dup5\n        /* \"#utility.yul\":1967:1990   */\n      sub\n        /* \"#utility.yul\":1963:1995   */\n      slt\n        /* \"#utility.yul\":1960:2079   */\n      iszero\n      tag_288\n      jumpi\n        /* \"#utility.yul\":1998:2077   */\n      tag_289\n      tag_222\n      jump\t// in\n    tag_289:\n        /* \"#utility.yul\":1960:2079   */\n    tag_288:\n        /* \"#utility.yul\":2118:2119   */\n      0x00\n        /* \"#utility.yul\":2143:2196   */\n      tag_290\n        /* \"#utility.yul\":2188:2195   */\n      dup5\n        /* \"#utility.yul\":2179:2185   */\n      dup3\n        /* \"#utility.yul\":2168:2177   */\n      dup6\n        /* \"#utility.yul\":2164:2186   */\n      add\n        /* \"#utility.yul\":2143:2196   */\n      tag_231\n      jump\t// in\n    tag_290:\n        /* \"#utility.yul\":2133:2196   */\n      swap2\n      pop\n        /* \"#utility.yul\":2089:2206   */\n      pop\n        /* \"#utility.yul\":1884:2213   */\n      swap3\n      swap2\n      pop\n      pop\n      jump\t// out\n        /* \"#utility.yul\":2219:2693   */\n    tag_45:\n        /* \"#utility.yul\":2287:2293   */\n      0x00\n        /* \"#utility.yul\":2295:2301   */\n      dup1\n        /* \"#utility.yul\":2344:2346   */\n      0x40\n        /* \"#utility.yul\":2332:2341   */\n      dup4\n        /* \"#utility.yul\":2323:2330   */\n      dup6\n        /* \"#utility.yul\":2319:2342   */\n      sub\n        /* \"#utility.yul\":2315:2347   */\n      slt\n        /* \"#utility.yul\":2312:2431   */\n      iszero\n      tag_292\n      jumpi\n        /* \"#utility.yul\":2350:2429   */\n      tag_293\n      tag_222\n      jump\t// in\n    tag_293:\n        /* \"#utility.yul\":2312:2431   */\n    tag_292:\n        /* \"#utility.yul\":2470:2471   */\n      0x00\n        /* \"#utility.yul\":2495:2548   */\n      tag_294\n        /* \"#utility.yul\":2540:2547   */\n      dup6\n        /* \"#utility.yul\":2531:2537   */\n      dup3\n        /* \"#utility.yul\":2520:2529   */\n      dup7\n        /* \"#utility.yul\":2516:2538   */\n      add\n        /* \"#utility.yul\":2495:2548   */\n      tag_227\n      jump\t// in\n    tag_294:\n        /* \"#utility.yul\":2485:2548   */\n      swap3\n      pop\n        /* \"#utility.yul\":2441:2558   */\n      pop\n        /* \"#utility.yul\":2597:2599   */\n      0x20\n        /* \"#utility.yul\":2623:2676   */\n      tag_295\n        /* \"#utility.yul\":2668:2675   */\n      dup6\n        /* \"#utility.yul\":2659:2665   */\n      dup3\n        /* \"#utility.yul\":2648:2657   */\n      dup7\n        /* \"#utility.yul\":2644:2666   */\n      add\n        /* \"#utility.yul\":2623:2676   */\n      tag_231\n      jump\t// in\n    tag_295:\n        /* \"#utility.yul\":2613:2676   */\n      swap2\n      pop\n        /* \"#utility.yul\":2568:2686   */\n      pop\n        /* \"#utility.yul\":2219:2693   */\n      swap3\n      pop\n      swap3\n      swap1\n      pop\n      jump\t// out\n        /* \"#utility.yul\":2699:3173   */\n    tag_54:\n        /* \"#utility.yul\":2767:2773   */\n      0x00\n        /* \"#utility.yul\":2775:2781   */\n      dup1\n        /* \"#utility.yul\":2824:2826   */\n      0x40\n        /* \"#utility.yul\":2812:2821   */\n      dup4\n        /* \"#utility.yul\":2803:2810   */\n      dup6\n        /* \"#utility.yul\":2799:2822   */\n      sub\n        /* \"#utility.yul\":2795:2827   */\n      slt\n        /* \"#utility.yul\":2792:2911   */\n      iszero\n      tag_297\n      jumpi\n        /* \"#utility.yul\":2830:2909   */\n      tag_298\n      tag_222\n      jump\t// in\n    tag_298:\n        /* \"#utility.yul\":2792:2911   */\n    tag_297:\n        /* \"#utility.yul\":2950:2951   */\n      0x00\n        /* \"#utility.yul\":2975:3028   */\n      tag_299\n        /* \"#utility.yul\":3020:3027   */\n      dup6\n        /* \"#utility.yul\":3011:3017   */\n      dup3\n        /* \"#utility.yul\":3000:3009   */\n      dup7\n        /* \"#utility.yul\":2996:3018   */\n      add\n        /* \"#utility.yul\":2975:3028   */\n      tag_227\n      jump\t// in\n    tag_299:\n        /* \"#utility.yul\":2965:3028   */\n      swap3\n      pop\n        /* \"#utility.yul\":2921:3038   */\n      pop\n        /* \"#utility.yul\":3077:3079   */\n      0x20\n        /* \"#utility.yul\":3103:3156   */\n      tag_300\n        /* \"#utility.yul\":3148:3155   */\n      dup6\n        /* \"#utility.yul\":3139:3145   */\n      dup3\n        /* \"#utility.yul\":3128:3137   */\n      dup7\n        /* \"#utility.yul\":3124:3146   */\n      add\n        /* \"#utility.yul\":3103:3156   */\n      tag_227\n      jump\t// in\n    tag_300:\n        /* \"#utility.yul\":3093:3156   */\n      swap2\n      pop\n        /* \"#utility.yul\":3048:3166   */\n      pop\n        /* \"#utility.yul\":2699:3173   */\n      swap3\n      pop\n      swap3\n      swap1\n      pop\n      jump\t// out\n        /* \"#utility.yul\":3179:3297   */\n    tag_232:\n        /* \"#utility.yul\":3266:3290   */\n      tag_302\n        /* \"#utility.yul\":3284:3289   */\n      dup2\n        /* \"#utility.yul\":3266:3290   */\n      tag_229\n      jump\t// in\n    tag_302:\n        /* \"#utility.yul\":3261:3264   */\n      dup3\n        /* \"#utility.yul\":3254:3291   */\n      mstore\n        /* \"#utility.yul\":3179:3297   */\n      pop\n      pop\n      jump\t// out\n        /* \"#utility.yul\":3303:3525   */\n    tag_57:\n        /* \"#utility.yul\":3396:3400   */\n      0x00\n        /* \"#utility.yul\":3434:3436   */\n      0x20\n        /* \"#utility.yul\":3423:3432   */\n      dup3\n        /* \"#utility.yul\":3419:3437   */\n      add\n        /* \"#utility.yul\":3411:3437   */\n      swap1\n      pop\n        /* \"#utility.yul\":3447:3518   */\n      tag_304\n        /* \"#utility.yul\":3515:3516   */\n      0x00\n        /* \"#utility.yul\":3504:3513   */\n      dup4\n        /* \"#utility.yul\":3500:3517   */\n      add\n        /* \"#utility.yul\":3491:3497   */\n      dup5\n        /* \"#utility.yul\":3447:3518   */\n      tag_232\n      jump\t// in\n    tag_304:\n        /* \"#utility.yul\":3303:3525   */\n      swap3\n      swap2\n      pop\n      pop\n      jump\t// out\n        /* \"#utility.yul\":3531:3674   */\n    tag_233:\n        /* \"#utility.yul\":3588:3593   */\n      0x00\n        /* \"#utility.yul\":3619:3625   */\n      dup2\n        /* \"#utility.yul\":3613:3626   */\n      mload\n        /* \"#utility.yul\":3604:3626   */\n      swap1\n      pop\n        /* \"#utility.yul\":3635:3668   */\n      tag_306\n        /* \"#utility.yul\":3662:3667   */\n      dup2\n        /* \"#utility.yul\":3635:3668   */\n      tag_226\n      jump\t// in\n    tag_306:\n        /* \"#utility.yul\":3531:3674   */\n      swap3\n      swap2\n      pop\n      pop\n      jump\t// out\n        /* \"#utility.yul\":3680:4031   */\n    tag_88:\n        /* \"#utility.yul\":3750:3756   */\n      0x00\n        /* \"#utility.yul\":3799:3801   */\n      0x20\n        /* \"#utility.yul\":3787:3796   */\n      dup3\n        /* \"#utility.yul\":3778:3785   */\n      dup5\n        /* \"#utility.yul\":3774:3797   */\n      sub\n        /* \"#utility.yul\":3770:3802   */\n      slt\n        /* \"#utility.yul\":3767:3886   */\n      iszero\n      tag_308\n      jumpi\n        /* \"#utility.yul\":3805:3884   */\n      tag_309\n      tag_222\n      jump\t// in\n    tag_309:\n        /* \"#utility.yul\":3767:3886   */\n    tag_308:\n        /* \"#utility.yul\":3925:3926   */\n      0x00\n        /* \"#utility.yul\":3950:4014   */\n      tag_310\n        /* \"#utility.yul\":4006:4013   */\n      dup5\n        /* \"#utility.yul\":3997:4003   */\n      dup3\n        /* \"#utility.yul\":3986:3995   */\n      dup6\n        /* \"#utility.yul\":3982:4004   */\n      add\n        /* \"#utility.yul\":3950:4014   */\n      tag_233\n      jump\t// in\n    tag_310:\n        /* \"#utility.yul\":3940:4014   */\n      swap2\n      pop\n        /* \"#utility.yul\":3896:4024   */\n      pop\n        /* \"#utility.yul\":3680:4031   */\n      swap3\n      swap2\n      pop\n      pop\n      jump\t// out\n        /* \"#utility.yul\":4037:4206   */\n    tag_234:\n        /* \"#utility.yul\":4121:4132   */\n      0x00\n        /* \"#utility.yul\":4155:4161   */\n      dup3\n        /* \"#utility.yul\":4150:4153   */\n      dup3\n        /* \"#utility.yul\":4143:4162   */\n      mstore\n        /* \"#utility.yul\":4195:4199   */\n      0x20\n        /* \"#utility.yul\":4190:4193   */\n      dup3\n        /* \"#utility.yul\":4186:4200   */\n      add\n        /* \"#utility.yul\":4171:4200   */\n      swap1\n      pop\n        /* \"#utility.yul\":4037:4206   */\n      swap3\n      swap2\n      pop\n      pop\n      jump\t// out\n        /* \"#utility.yul\":4212:4380   */\n    tag_235:\n        /* \"#utility.yul\":4352:4372   */\n      0x506f6f6c20446f204e6f74204578697374730000000000000000000000000000\n        /* \"#utility.yul\":4348:4349   */\n      0x00\n        /* \"#utility.yul\":4340:4346   */\n      dup3\n        /* \"#utility.yul\":4336:4350   */\n      add\n        /* \"#utility.yul\":4329:4373   */\n      mstore\n        /* \"#utility.yul\":4212:4380   */\n      pop\n      jump\t// out\n        /* \"#utility.yul\":4386:4752   */\n    tag_236:\n        /* \"#utility.yul\":4528:4531   */\n      0x00\n        /* \"#utility.yul\":4549:4616   */\n      tag_314\n        /* \"#utility.yul\":4613:4615   */\n      0x12\n        /* \"#utility.yul\":4608:4611   */\n      dup4\n        /* \"#utility.yul\":4549:4616   */\n      tag_234\n      jump\t// in\n    tag_314:\n        /* \"#utility.yul\":4542:4616   */\n      swap2\n      pop\n        /* \"#utility.yul\":4625:4718   */\n      tag_315\n        /* \"#utility.yul\":4714:4717   */\n      dup3\n        /* \"#utility.yul\":4625:4718   */\n      tag_235\n      jump\t// in\n    tag_315:\n        /* \"#utility.yul\":4743:4745   */\n      0x20\n        /* \"#utility.yul\":4738:4741   */\n      dup3\n        /* \"#utility.yul\":4734:4746   */\n      add\n        /* \"#utility.yul\":4727:4746   */\n      swap1\n      pop\n        /* \"#utility.yul\":4386:4752   */\n      swap2\n      swap1\n      pop\n      jump\t// out\n        /* \"#utility.yul\":4758:5177   */\n    tag_93:\n        /* \"#utility.yul\":4924:4928   */\n      0x00\n        /* \"#utility.yul\":4962:4964   */\n      0x20\n        /* \"#utility.yul\":4951:4960   */\n      dup3\n        /* \"#utility.yul\":4947:4965   */\n      add\n        /* \"#utility.yul\":4939:4965   */\n      swap1\n      pop\n        /* \"#utility.yul\":5011:5020   */\n      dup2\n        /* \"#utility.yul\":5005:5009   */\n      dup2\n        /* \"#utility.yul\":5001:5021   */\n      sub\n        /* \"#utility.yul\":4997:4998   */\n      0x00\n        /* \"#utility.yul\":4986:4995   */\n      dup4\n        /* \"#utility.yul\":4982:4999   */\n      add\n        /* \"#utility.yul\":4975:5022   */\n      mstore\n        /* \"#utility.yul\":5039:5170   */\n      tag_317\n        /* \"#utility.yul\":5165:5169   */\n      dup2\n        /* \"#utility.yul\":5039:5170   */\n      tag_236\n      jump\t// in\n    tag_317:\n        /* \"#utility.yul\":5031:5170   */\n      swap1\n      pop\n        /* \"#utility.yul\":4758:5177   */\n      swap2\n      swap1\n      pop\n      jump\t// out\n        /* \"#utility.yul\":5183:5349   */\n    tag_237:\n        /* \"#utility.yul\":5323:5341   */\n      0x4e6f207265776172647320466f756e6400000000000000000000000000000000\n        /* \"#utility.yul\":5319:5320   */\n      0x00\n        /* \"#utility.yul\":5311:5317   */\n      dup3\n        /* \"#utility.yul\":5307:5321   */\n      add\n        /* \"#utility.yul\":5300:5342   */\n      mstore\n        /* \"#utility.yul\":5183:5349   */\n      pop\n      jump\t// out\n        /* \"#utility.yul\":5355:5721   */\n    tag_238:\n        /* \"#utility.yul\":5497:5500   */\n      0x00\n        /* \"#utility.yul\":5518:5585   */\n      tag_320\n        /* \"#utility.yul\":5582:5584   */\n      0x10\n        /* \"#utility.yul\":5577:5580   */\n      dup4\n        /* \"#utility.yul\":5518:5585   */\n      tag_234\n      jump\t// in\n    tag_320:\n        /* \"#utility.yul\":5511:5585   */\n      swap2\n      pop\n        /* \"#utility.yul\":5594:5687   */\n      tag_321\n        /* \"#utility.yul\":5683:5686   */\n      dup3\n        /* \"#utility.yul\":5594:5687   */\n      tag_237\n      jump\t// in\n    tag_321:\n        /* \"#utility.yul\":5712:5714   */\n      0x20\n        /* \"#utility.yul\":5707:5710   */\n      dup3\n        /* \"#utility.yul\":5703:5715   */\n      add\n        /* \"#utility.yul\":5696:5715   */\n      swap1\n      pop\n        /* \"#utility.yul\":5355:5721   */\n      swap2\n      swap1\n      pop\n      jump\t// out\n        /* \"#utility.yul\":5727:6146   */\n    tag_97:\n        /* \"#utility.yul\":5893:5897   */\n      0x00\n        /* \"#utility.yul\":5931:5933   */\n      0x20\n        /* \"#utility.yul\":5920:5929   */\n      dup3\n        /* \"#utility.yul\":5916:5934   */\n      add\n        /* \"#utility.yul\":5908:5934   */\n      swap1\n      pop\n        /* \"#utility.yul\":5980:5989   */\n      dup2\n        /* \"#utility.yul\":5974:5978   */\n      dup2\n        /* \"#utility.yul\":5970:5990   */\n      sub\n        /* \"#utility.yul\":5966:5967   */\n      0x00\n        /* \"#utility.yul\":5955:5964   */\n      dup4\n        /* \"#utility.yul\":5951:5968   */\n      add\n        /* \"#utility.yul\":5944:5991   */\n      mstore\n        /* \"#utility.yul\":6008:6139   */\n      tag_323\n        /* \"#utility.yul\":6134:6138   */\n      dup2\n        /* \"#utility.yul\":6008:6139   */\n      tag_238\n      jump\t// in\n    tag_323:\n        /* \"#utility.yul\":6000:6139   */\n      swap1\n      pop\n        /* \"#utility.yul\":5727:6146   */\n      swap2\n      swap1\n      pop\n      jump\t// out\n        /* \"#utility.yul\":6152:6323   */\n    tag_239:\n        /* \"#utility.yul\":6292:6315   */\n      0x496e636f727265637420416d6f756e742073656e740000000000000000000000\n        /* \"#utility.yul\":6288:6289   */\n      0x00\n        /* \"#utility.yul\":6280:6286   */\n      dup3\n        /* \"#utility.yul\":6276:6290   */\n      add\n        /* \"#utility.yul\":6269:6316   */\n      mstore\n        /* \"#utility.yul\":6152:6323   */\n      pop\n      jump\t// out\n        /* \"#utility.yul\":6329:6695   */\n    tag_240:\n        /* \"#utility.yul\":6471:6474   */\n      0x00\n        /* \"#utility.yul\":6492:6559   */\n      tag_326\n        /* \"#utility.yul\":6556:6558   */\n      0x15\n        /* \"#utility.yul\":6551:6554   */\n      dup4\n        /* \"#utility.yul\":6492:6559   */\n      tag_234\n      jump\t// in\n    tag_326:\n        /* \"#utility.yul\":6485:6559   */\n      swap2\n      pop\n        /* \"#utility.yul\":6568:6661   */\n      tag_327\n        /* \"#utility.yul\":6657:6660   */\n      dup3\n        /* \"#utility.yul\":6568:6661   */\n      tag_239\n      jump\t// in\n    tag_327:\n        /* \"#utility.yul\":6686:6688   */\n      0x20\n        /* \"#utility.yul\":6681:6684   */\n      dup3\n        /* \"#utility.yul\":6677:6689   */\n      add\n        /* \"#utility.yul\":6670:6689   */\n      swap1\n      pop\n        /* \"#utility.yul\":6329:6695   */\n      swap2\n      swap1\n      pop\n      jump\t// out\n        /* \"#utility.yul\":6701:7120   */\n    tag_105:\n        /* \"#utility.yul\":6867:6871   */\n      0x00\n        /* \"#utility.yul\":6905:6907   */\n      0x20\n        /* \"#utility.yul\":6894:6903   */\n      dup3\n        /* \"#utility.yul\":6890:6908   */\n      add\n        /* \"#utility.yul\":6882:6908   */\n      swap1\n      pop\n        /* \"#utility.yul\":6954:6963   */\n      dup2\n        /* \"#utility.yul\":6948:6952   */\n      dup2\n        /* \"#utility.yul\":6944:6964   */\n      sub\n        /* \"#utility.yul\":6940:6941   */\n      0x00\n        /* \"#utility.yul\":6929:6938   */\n      dup4\n        /* \"#utility.yul\":6925:6942   */\n      add\n        /* \"#utility.yul\":6918:6965   */\n      mstore\n        /* \"#utility.yul\":6982:7113   */\n      tag_329\n        /* \"#utility.yul\":7108:7112   */\n      dup2\n        /* \"#utility.yul\":6982:7113   */\n      tag_240\n      jump\t// in\n    tag_329:\n        /* \"#utility.yul\":6974:7113   */\n      swap1\n      pop\n        /* \"#utility.yul\":6701:7120   */\n      swap2\n      swap1\n      pop\n      jump\t// out\n        /* \"#utility.yul\":7126:7287   */\n    tag_241:\n        /* \"#utility.yul\":7266:7279   */\n      0x506f6f6c20457869737473000000000000000000000000000000000000000000\n        /* \"#utility.yul\":7262:7263   */\n      0x00\n        /* \"#utility.yul\":7254:7260   */\n      dup3\n        /* \"#utility.yul\":7250:7264   */\n      add\n        /* \"#utility.yul\":7243:7280   */\n      mstore\n        /* \"#utility.yul\":7126:7287   */\n      pop\n      jump\t// out\n        /* \"#utility.yul\":7293:7659   */\n    tag_242:\n        /* \"#utility.yul\":7435:7438   */\n      0x00\n        /* \"#utility.yul\":7456:7523   */\n      tag_332\n        /* \"#utility.yul\":7520:7522   */\n      0x0b\n        /* \"#utility.yul\":7515:7518   */\n      dup4\n        /* \"#utility.yul\":7456:7523   */\n      tag_234\n      jump\t// in\n    tag_332:\n        /* \"#utility.yul\":7449:7523   */\n      swap2\n      pop\n        /* \"#utility.yul\":7532:7625   */\n      tag_333\n        /* \"#utility.yul\":7621:7624   */\n      dup3\n        /* \"#utility.yul\":7532:7625   */\n      tag_241\n      jump\t// in\n    tag_333:\n        /* \"#utility.yul\":7650:7652   */\n      0x20\n        /* \"#utility.yul\":7645:7648   */\n      dup3\n        /* \"#utility.yul\":7641:7653   */\n      add\n        /* \"#utility.yul\":7634:7653   */\n      swap1\n      pop\n        /* \"#utility.yul\":7293:7659   */\n      swap2\n      swap1\n      pop\n      jump\t// out\n        /* \"#utility.yul\":7665:8084   */\n    tag_116:\n        /* \"#utility.yul\":7831:7835   */\n      0x00\n        /* \"#utility.yul\":7869:7871   */\n      0x20\n        /* \"#utility.yul\":7858:7867   */\n      dup3\n        /* \"#utility.yul\":7854:7872   */\n      add\n        /* \"#utility.yul\":7846:7872   */\n      swap1\n      pop\n        /* \"#utility.yul\":7918:7927   */\n      dup2\n        /* \"#utility.yul\":7912:7916   */\n      dup2\n        /* \"#utility.yul\":7908:7928   */\n      sub\n        /* \"#utility.yul\":7904:7905   */\n      0x00\n        /* \"#utility.yul\":7893:7902   */\n      dup4\n        /* \"#utility.yul\":7889:7906   */\n      add\n        /* \"#utility.yul\":7882:7929   */\n      mstore\n        /* \"#utility.yul\":7946:8077   */\n      tag_335\n        /* \"#utility.yul\":8072:8076   */\n      dup2\n        /* \"#utility.yul\":7946:8077   */\n      tag_242\n      jump\t// in\n    tag_335:\n        /* \"#utility.yul\":7938:8077   */\n      swap1\n      pop\n        /* \"#utility.yul\":7665:8084   */\n      swap2\n      swap1\n      pop\n      jump\t// out\n        /* \"#utility.yul\":8090:8422   */\n    tag_118:\n        /* \"#utility.yul\":8211:8215   */\n      0x00\n        /* \"#utility.yul\":8249:8251   */\n      0x40\n        /* \"#utility.yul\":8238:8247   */\n      dup3\n        /* \"#utility.yul\":8234:8252   */\n      add\n        /* \"#utility.yul\":8226:8252   */\n      swap1\n      pop\n        /* \"#utility.yul\":8262:8333   */\n      tag_337\n        /* \"#utility.yul\":8330:8331   */\n      0x00\n        /* \"#utility.yul\":8319:8328   */\n      dup4\n        /* \"#utility.yul\":8315:8332   */\n      add\n        /* \"#utility.yul\":8306:8312   */\n      dup6\n        /* \"#utility.yul\":8262:8333   */\n      tag_228\n      jump\t// in\n    tag_337:\n        /* \"#utility.yul\":8343:8415   */\n      tag_338\n        /* \"#utility.yul\":8411:8413   */\n      0x20\n        /* \"#utility.yul\":8400:8409   */\n      dup4\n        /* \"#utility.yul\":8396:8414   */\n      add\n        /* \"#utility.yul\":8387:8393   */\n      dup5\n        /* \"#utility.yul\":8343:8415   */\n      tag_228\n      jump\t// in\n    tag_338:\n        /* \"#utility.yul\":8090:8422   */\n      swap4\n      swap3\n      pop\n      pop\n      pop\n      jump\t// out\n        /* \"#utility.yul\":8428:8760   */\n    tag_126:\n        /* \"#utility.yul\":8549:8553   */\n      0x00\n        /* \"#utility.yul\":8587:8589   */\n      0x40\n        /* \"#utility.yul\":8576:8585   */\n      dup3\n        /* \"#utility.yul\":8572:8590   */\n      add\n        /* \"#utility.yul\":8564:8590   */\n      swap1\n      pop\n        /* \"#utility.yul\":8600:8671   */\n      tag_340\n        /* \"#utility.yul\":8668:8669   */\n      0x00\n        /* \"#utility.yul\":8657:8666   */\n      dup4\n        /* \"#utility.yul\":8653:8670   */\n      add\n        /* \"#utility.yul\":8644:8650   */\n      dup6\n        /* \"#utility.yul\":8600:8671   */\n      tag_232\n      jump\t// in\n    tag_340:\n        /* \"#utility.yul\":8681:8753   */\n      tag_341\n        /* \"#utility.yul\":8749:8751   */\n      0x20\n        /* \"#utility.yul\":8738:8747   */\n      dup4\n        /* \"#utility.yul\":8734:8752   */\n      add\n        /* \"#utility.yul\":8725:8731   */\n      dup5\n        /* \"#utility.yul\":8681:8753   */\n      tag_228\n      jump\t// in\n    tag_341:\n        /* \"#utility.yul\":8428:8760   */\n      swap4\n      swap3\n      pop\n      pop\n      pop\n      jump\t// out\n        /* \"#utility.yul\":8766:8933   */\n    tag_243:\n        /* \"#utility.yul\":8906:8925   */\n      0x506f6f6c20646f6e277420457869737473000000000000000000000000000000\n        /* \"#utility.yul\":8902:8903   */\n      0x00\n        /* \"#utility.yul\":8894:8900   */\n      dup3\n        /* \"#utility.yul\":8890:8904   */\n      add\n        /* \"#utility.yul\":8883:8926   */\n      mstore\n        /* \"#utility.yul\":8766:8933   */\n      pop\n      jump\t// out\n        /* \"#utility.yul\":8939:9305   */\n    tag_244:\n        /* \"#utility.yul\":9081:9084   */\n      0x00\n        /* \"#utility.yul\":9102:9169   */\n      tag_344\n        /* \"#utility.yul\":9166:9168   */\n      0x11\n        /* \"#utility.yul\":9161:9164   */\n      dup4\n        /* \"#utility.yul\":9102:9169   */\n      tag_234\n      jump\t// in\n    tag_344:\n        /* \"#utility.yul\":9095:9169   */\n      swap2\n      pop\n        /* \"#utility.yul\":9178:9271   */\n      tag_345\n        /* \"#utility.yul\":9267:9270   */\n      dup3\n        /* \"#utility.yul\":9178:9271   */\n      tag_243\n      jump\t// in\n    tag_345:\n        /* \"#utility.yul\":9296:9298   */\n      0x20\n        /* \"#utility.yul\":9291:9294   */\n      dup3\n        /* \"#utility.yul\":9287:9299   */\n      add\n        /* \"#utility.yul\":9280:9299   */\n      swap1\n      pop\n        /* \"#utility.yul\":8939:9305   */\n      swap2\n      swap1\n      pop\n      jump\t// out\n        /* \"#utility.yul\":9311:9730   */\n    tag_140:\n        /* \"#utility.yul\":9477:9481   */\n      0x00\n        /* \"#utility.yul\":9515:9517   */\n      0x20\n        /* \"#utility.yul\":9504:9513   */\n      dup3\n        /* \"#utility.yul\":9500:9518   */\n      add\n        /* \"#utility.yul\":9492:9518   */\n      swap1\n      pop\n        /* \"#utility.yul\":9564:9573   */\n      dup2\n        /* \"#utility.yul\":9558:9562   */\n      dup2\n        /* \"#utility.yul\":9554:9574   */\n      sub\n        /* \"#utility.yul\":9550:9551   */\n      0x00\n        /* \"#utility.yul\":9539:9548   */\n      dup4\n        /* \"#utility.yul\":9535:9552   */\n      add\n        /* \"#utility.yul\":9528:9575   */\n      mstore\n        /* \"#utility.yul\":9592:9723   */\n      tag_347\n        /* \"#utility.yul\":9718:9722   */\n      dup2\n        /* \"#utility.yul\":9592:9723   */\n      tag_244\n      jump\t// in\n    tag_347:\n        /* \"#utility.yul\":9584:9723   */\n      swap1\n      pop\n        /* \"#utility.yul\":9311:9730   */\n      swap2\n      swap1\n      pop\n      jump\t// out\n        /* \"#utility.yul\":9736:9879   */\n    tag_245:\n        /* \"#utility.yul\":9793:9798   */\n      0x00\n        /* \"#utility.yul\":9824:9830   */\n      dup2\n        /* \"#utility.yul\":9818:9831   */\n      mload\n        /* \"#utility.yul\":9809:9831   */\n      swap1\n      pop\n        /* \"#utility.yul\":9840:9873   */\n      tag_349\n        /* \"#utility.yul\":9867:9872   */\n      dup2\n        /* \"#utility.yul\":9840:9873   */\n      tag_230\n      jump\t// in\n    tag_349:\n        /* \"#utility.yul\":9736:9879   */\n      swap3\n      swap2\n      pop\n      pop\n      jump\t// out\n        /* \"#utility.yul\":9885:10236   */\n    tag_145:\n        /* \"#utility.yul\":9955:9961   */\n      0x00\n        /* \"#utility.yul\":10004:10006   */\n      0x20\n        /* \"#utility.yul\":9992:10001   */\n      dup3\n        /* \"#utility.yul\":9983:9990   */\n      dup5\n        /* \"#utility.yul\":9979:10002   */\n      sub\n        /* \"#utility.yul\":9975:10007   */\n      slt\n        /* \"#utility.yul\":9972:10091   */\n      iszero\n      tag_351\n      jumpi\n        /* \"#utility.yul\":10010:10089   */\n      tag_352\n      tag_222\n      jump\t// in\n    tag_352:\n        /* \"#utility.yul\":9972:10091   */\n    tag_351:\n        /* \"#utility.yul\":10130:10131   */\n      0x00\n        /* \"#utility.yul\":10155:10219   */\n      tag_353\n        /* \"#utility.yul\":10211:10218   */\n      dup5\n        /* \"#utility.yul\":10202:10208   */\n      dup3\n        /* \"#utility.yul\":10191:10200   */\n      dup6\n        /* \"#utility.yul\":10187:10209   */\n      add\n        /* \"#utility.yul\":10155:10219   */\n      tag_245\n      jump\t// in\n    tag_353:\n        /* \"#utility.yul\":10145:10219   */\n      swap2\n      pop\n        /* \"#utility.yul\":10101:10229   */\n      pop\n        /* \"#utility.yul\":9885:10236   */\n      swap3\n      swap2\n      pop\n      pop\n      jump\t// out\n        /* \"#utility.yul\":10242:10417   */\n    tag_246:\n        /* \"#utility.yul\":10382:10409   */\n      0x496e636f72726563742042616c616e636520656e746572656400000000000000\n        /* \"#utility.yul\":10378:10379   */\n      0x00\n        /* \"#utility.yul\":10370:10376   */\n      dup3\n        /* \"#utility.yul\":10366:10380   */\n      add\n        /* \"#utility.yul\":10359:10410   */\n      mstore\n        /* \"#utility.yul\":10242:10417   */\n      pop\n      jump\t// out\n        /* \"#utility.yul\":10423:10789   */\n    tag_247:\n        /* \"#utility.yul\":10565:10568   */\n      0x00\n        /* \"#utility.yul\":10586:10653   */\n      tag_356\n        /* \"#utility.yul\":10650:10652   */\n      0x19\n        /* \"#utility.yul\":10645:10648   */\n      dup4\n        /* \"#utility.yul\":10586:10653   */\n      tag_234\n      jump\t// in\n    tag_356:\n        /* \"#utility.yul\":10579:10653   */\n      swap2\n      pop\n        /* \"#utility.yul\":10662:10755   */\n      tag_357\n        /* \"#utility.yul\":10751:10754   */\n      dup3\n        /* \"#utility.yul\":10662:10755   */\n      tag_246\n      jump\t// in\n    tag_357:\n        /* \"#utility.yul\":10780:10782   */\n      0x20\n        /* \"#utility.yul\":10775:10778   */\n      dup3\n        /* \"#utility.yul\":10771:10783   */\n      add\n        /* \"#utility.yul\":10764:10783   */\n      swap1\n      pop\n        /* \"#utility.yul\":10423:10789   */\n      swap2\n      swap1\n      pop\n      jump\t// out\n        /* \"#utility.yul\":10795:11214   */\n    tag_171:\n        /* \"#utility.yul\":10961:10965   */\n      0x00\n        /* \"#utility.yul\":10999:11001   */\n      0x20\n        /* \"#utility.yul\":10988:10997   */\n      dup3\n        /* \"#utility.yul\":10984:11002   */\n      add\n        /* \"#utility.yul\":10976:11002   */\n      swap1\n      pop\n        /* \"#utility.yul\":11048:11057   */\n      dup2\n        /* \"#utility.yul\":11042:11046   */\n      dup2\n        /* \"#utility.yul\":11038:11058   */\n      sub\n        /* \"#utility.yul\":11034:11035   */\n      0x00\n        /* \"#utility.yul\":11023:11032   */\n      dup4\n        /* \"#utility.yul\":11019:11036   */\n      add\n        /* \"#utility.yul\":11012:11059   */\n      mstore\n        /* \"#utility.yul\":11076:11207   */\n      tag_359\n        /* \"#utility.yul\":11202:11206   */\n      dup2\n        /* \"#utility.yul\":11076:11207   */\n      tag_247\n      jump\t// in\n    tag_359:\n        /* \"#utility.yul\":11068:11207   */\n      swap1\n      pop\n        /* \"#utility.yul\":10795:11214   */\n      swap2\n      swap1\n      pop\n      jump\t// out\n        /* \"#utility.yul\":11220:11552   */\n    tag_183:\n        /* \"#utility.yul\":11341:11345   */\n      0x00\n        /* \"#utility.yul\":11379:11381   */\n      0x40\n        /* \"#utility.yul\":11368:11377   */\n      dup3\n        /* \"#utility.yul\":11364:11382   */\n      add\n        /* \"#utility.yul\":11356:11382   */\n      swap1\n      pop\n        /* \"#utility.yul\":11392:11463   */\n      tag_361\n        /* \"#utility.yul\":11460:11461   */\n      0x00\n        /* \"#utility.yul\":11449:11458   */\n      dup4\n        /* \"#utility.yul\":11445:11462   */\n      add\n        /* \"#utility.yul\":11436:11442   */\n      dup6\n        /* \"#utility.yul\":11392:11463   */\n      tag_228\n      jump\t// in\n    tag_361:\n        /* \"#utility.yul\":11473:11545   */\n      tag_362\n        /* \"#utility.yul\":11541:11543   */\n      0x20\n        /* \"#utility.yul\":11530:11539   */\n      dup4\n        /* \"#utility.yul\":11526:11544   */\n      add\n        /* \"#utility.yul\":11517:11523   */\n      dup5\n        /* \"#utility.yul\":11473:11545   */\n      tag_232\n      jump\t// in\n    tag_362:\n        /* \"#utility.yul\":11220:11552   */\n      swap4\n      swap3\n      pop\n      pop\n      pop\n      jump\t// out\n        /* \"#utility.yul\":11558:11656   */\n    tag_248:\n        /* \"#utility.yul\":11609:11615   */\n      0x00\n        /* \"#utility.yul\":11643:11648   */\n      dup2\n        /* \"#utility.yul\":11637:11649   */\n      mload\n        /* \"#utility.yul\":11627:11649   */\n      swap1\n      pop\n        /* \"#utility.yul\":11558:11656   */\n      swap2\n      swap1\n      pop\n      jump\t// out\n        /* \"#utility.yul\":11662:11809   */\n    tag_249:\n        /* \"#utility.yul\":11763:11774   */\n      0x00\n        /* \"#utility.yul\":11800:11803   */\n      dup2\n        /* \"#utility.yul\":11785:11803   */\n      swap1\n      pop\n        /* \"#utility.yul\":11662:11809   */\n      swap3\n      swap2\n      pop\n      pop\n      jump\t// out\n        /* \"#utility.yul\":11815:12061   */\n    tag_250:\n        /* \"#utility.yul\":11896:11897   */\n      0x00\n        /* \"#utility.yul\":11906:12019   */\n    tag_366:\n        /* \"#utility.yul\":11920:11926   */\n      dup4\n        /* \"#utility.yul\":11917:11918   */\n      dup2\n        /* \"#utility.yul\":11914:11927   */\n      lt\n        /* \"#utility.yul\":11906:12019   */\n      iszero\n      tag_368\n      jumpi\n        /* \"#utility.yul\":12005:12006   */\n      dup1\n        /* \"#utility.yul\":12000:12003   */\n      dup3\n        /* \"#utility.yul\":11996:12007   */\n      add\n        /* \"#utility.yul\":11990:12008   */\n      mload\n        /* \"#utility.yul\":11986:11987   */\n      dup2\n        /* \"#utility.yul\":11981:11984   */\n      dup5\n        /* \"#utility.yul\":11977:11988   */\n      add\n        /* \"#utility.yul\":11970:12009   */\n      mstore\n        /* \"#utility.yul\":11942:11944   */\n      0x20\n        /* \"#utility.yul\":11939:11940   */\n      dup2\n        /* \"#utility.yul\":11935:11945   */\n      add\n        /* \"#utility.yul\":11930:11945   */\n      swap1\n      pop\n        /* \"#utility.yul\":11906:12019   */\n      jump(tag_366)\n    tag_368:\n        /* \"#utility.yul\":12053:12054   */\n      0x00\n        /* \"#utility.yul\":12044:12050   */\n      dup5\n        /* \"#utility.yul\":12039:12042   */\n      dup5\n        /* \"#utility.yul\":12035:12051   */\n      add\n        /* \"#utility.yul\":12028:12055   */\n      mstore\n        /* \"#utility.yul\":11877:12061   */\n      pop\n        /* \"#utility.yul\":11815:12061   */\n      pop\n      pop\n      pop\n      jump\t// out\n        /* \"#utility.yul\":12067:12453   */\n    tag_251:\n        /* \"#utility.yul\":12171:12174   */\n      0x00\n        /* \"#utility.yul\":12199:12237   */\n      tag_370\n        /* \"#utility.yul\":12231:12236   */\n      dup3\n        /* \"#utility.yul\":12199:12237   */\n      tag_248\n      jump\t// in\n    tag_370:\n        /* \"#utility.yul\":12253:12341   */\n      tag_371\n        /* \"#utility.yul\":12334:12340   */\n      dup2\n        /* \"#utility.yul\":12329:12332   */\n      dup6\n        /* \"#utility.yul\":12253:12341   */\n      tag_249\n      jump\t// in\n    tag_371:\n        /* \"#utility.yul\":12246:12341   */\n      swap4\n      pop\n        /* \"#utility.yul\":12350:12415   */\n      tag_372\n        /* \"#utility.yul\":12408:12414   */\n      dup2\n        /* \"#utility.yul\":12403:12406   */\n      dup6\n        /* \"#utility.yul\":12396:12400   */\n      0x20\n        /* \"#utility.yul\":12389:12394   */\n      dup7\n        /* \"#utility.yul\":12385:12401   */\n      add\n        /* \"#utility.yul\":12350:12415   */\n      tag_250\n      jump\t// in\n    tag_372:\n        /* \"#utility.yul\":12440:12446   */\n      dup1\n        /* \"#utility.yul\":12435:12438   */\n      dup5\n        /* \"#utility.yul\":12431:12447   */\n      add\n        /* \"#utility.yul\":12424:12447   */\n      swap2\n      pop\n        /* \"#utility.yul\":12175:12453   */\n      pop\n        /* \"#utility.yul\":12067:12453   */\n      swap3\n      swap2\n      pop\n      pop\n      jump\t// out\n        /* \"#utility.yul\":12459:12730   */\n    tag_185:\n        /* \"#utility.yul\":12589:12592   */\n      0x00\n        /* \"#utility.yul\":12611:12704   */\n      tag_374\n        /* \"#utility.yul\":12700:12703   */\n      dup3\n        /* \"#utility.yul\":12691:12697   */\n      dup5\n        /* \"#utility.yul\":12611:12704   */\n      tag_251\n      jump\t// in\n    tag_374:\n        /* \"#utility.yul\":12604:12704   */\n      swap2\n      pop\n        /* \"#utility.yul\":12721:12724   */\n      dup2\n        /* \"#utility.yul\":12714:12724   */\n      swap1\n      pop\n        /* \"#utility.yul\":12459:12730   */\n      swap3\n      swap2\n      pop\n      pop\n      jump\t// out\n        /* \"#utility.yul\":12736:12826   */\n    tag_252:\n        /* \"#utility.yul\":12770:12777   */\n      0x00\n        /* \"#utility.yul\":12813:12818   */\n      dup2\n        /* \"#utility.yul\":12806:12819   */\n      iszero\n        /* \"#utility.yul\":12799:12820   */\n      iszero\n        /* \"#utility.yul\":12788:12820   */\n      swap1\n      pop\n        /* \"#utility.yul\":12736:12826   */\n      swap2\n      swap1\n      pop\n      jump\t// out\n        /* \"#utility.yul\":12832:12948   */\n    tag_253:\n        /* \"#utility.yul\":12902:12923   */\n      tag_377\n        /* \"#utility.yul\":12917:12922   */\n      dup2\n        /* \"#utility.yul\":12902:12923   */\n      tag_252\n      jump\t// in\n    tag_377:\n        /* \"#utility.yul\":12895:12900   */\n      dup2\n        /* \"#utility.yul\":12892:12924   */\n      eq\n        /* \"#utility.yul\":12882:12942   */\n      tag_378\n      jumpi\n        /* \"#utility.yul\":12938:12939   */\n      0x00\n        /* \"#utility.yul\":12935:12936   */\n      dup1\n        /* \"#utility.yul\":12928:12940   */\n      revert\n        /* \"#utility.yul\":12882:12942   */\n    tag_378:\n        /* \"#utility.yul\":12832:12948   */\n      pop\n      jump\t// out\n        /* \"#utility.yul\":12954:13091   */\n    tag_254:\n        /* \"#utility.yul\":13008:13013   */\n      0x00\n        /* \"#utility.yul\":13039:13045   */\n      dup2\n        /* \"#utility.yul\":13033:13046   */\n      mload\n        /* \"#utility.yul\":13024:13046   */\n      swap1\n      pop\n        /* \"#utility.yul\":13055:13085   */\n      tag_380\n        /* \"#utility.yul\":13079:13084   */\n      dup2\n        /* \"#utility.yul\":13055:13085   */\n      tag_253\n      jump\t// in\n    tag_380:\n        /* \"#utility.yul\":12954:13091   */\n      swap3\n      swap2\n      pop\n      pop\n      jump\t// out\n        /* \"#utility.yul\":13097:13442   */\n    tag_192:\n        /* \"#utility.yul\":13164:13170   */\n      0x00\n        /* \"#utility.yul\":13213:13215   */\n      0x20\n        /* \"#utility.yul\":13201:13210   */\n      dup3\n        /* \"#utility.yul\":13192:13199   */\n      dup5\n        /* \"#utility.yul\":13188:13211   */\n      sub\n        /* \"#utility.yul\":13184:13216   */\n      slt\n        /* \"#utility.yul\":13181:13300   */\n      iszero\n      tag_382\n      jumpi\n        /* \"#utility.yul\":13219:13298   */\n      tag_383\n      tag_222\n      jump\t// in\n    tag_383:\n        /* \"#utility.yul\":13181:13300   */\n    tag_382:\n        /* \"#utility.yul\":13339:13340   */\n      0x00\n        /* \"#utility.yul\":13364:13425   */\n      tag_384\n        /* \"#utility.yul\":13417:13424   */\n      dup5\n        /* \"#utility.yul\":13408:13414   */\n      dup3\n        /* \"#utility.yul\":13397:13406   */\n      dup6\n        /* \"#utility.yul\":13393:13415   */\n      add\n        /* \"#utility.yul\":13364:13425   */\n      tag_254\n      jump\t// in\n    tag_384:\n        /* \"#utility.yul\":13354:13425   */\n      swap2\n      pop\n        /* \"#utility.yul\":13310:13435   */\n      pop\n        /* \"#utility.yul\":13097:13442   */\n      swap3\n      swap2\n      pop\n      pop\n      jump\t// out\n        /* \"#utility.yul\":13448:13680   */\n    tag_255:\n        /* \"#utility.yul\":13588:13622   */\n      0x5472616e7366657248656c7065723a3a736166655472616e736665723a207472\n        /* \"#utility.yul\":13584:13585   */\n      0x00\n        /* \"#utility.yul\":13576:13582   */\n      dup3\n        /* \"#utility.yul\":13572:13586   */\n      add\n        /* \"#utility.yul\":13565:13623   */\n      mstore\n        /* \"#utility.yul\":13657:13672   */\n      0x616e73666572206661696c656400000000000000000000000000000000000000\n        /* \"#utility.yul\":13652:13654   */\n      0x20\n        /* \"#utility.yul\":13644:13650   */\n      dup3\n        /* \"#utility.yul\":13640:13655   */\n      add\n        /* \"#utility.yul\":13633:13673   */\n      mstore\n        /* \"#utility.yul\":13448:13680   */\n      pop\n      jump\t// out\n        /* \"#utility.yul\":13686:14052   */\n    tag_256:\n        /* \"#utility.yul\":13828:13831   */\n      0x00\n        /* \"#utility.yul\":13849:13916   */\n      tag_387\n        /* \"#utility.yul\":13913:13915   */\n      0x2d\n        /* \"#utility.yul\":13908:13911   */\n      dup4\n        /* \"#utility.yul\":13849:13916   */\n      tag_234\n      jump\t// in\n    tag_387:\n        /* \"#utility.yul\":13842:13916   */\n      swap2\n      pop\n        /* \"#utility.yul\":13925:14018   */\n      tag_388\n        /* \"#utility.yul\":14014:14017   */\n      dup3\n        /* \"#utility.yul\":13925:14018   */\n      tag_255\n      jump\t// in\n    tag_388:\n        /* \"#utility.yul\":14043:14045   */\n      0x40\n        /* \"#utility.yul\":14038:14041   */\n      dup3\n        /* \"#utility.yul\":14034:14046   */\n      add\n        /* \"#utility.yul\":14027:14046   */\n      swap1\n      pop\n        /* \"#utility.yul\":13686:14052   */\n      swap2\n      swap1\n      pop\n      jump\t// out\n        /* \"#utility.yul\":14058:14477   */\n    tag_195:\n        /* \"#utility.yul\":14224:14228   */\n      0x00\n        /* \"#utility.yul\":14262:14264   */\n      0x20\n        /* \"#utility.yul\":14251:14260   */\n      dup3\n        /* \"#utility.yul\":14247:14265   */\n      add\n        /* \"#utility.yul\":14239:14265   */\n      swap1\n      pop\n        /* \"#utility.yul\":14311:14320   */\n      dup2\n        /* \"#utility.yul\":14305:14309   */\n      dup2\n        /* \"#utility.yul\":14301:14321   */\n      sub\n        /* \"#utility.yul\":14297:14298   */\n      0x00\n        /* \"#utility.yul\":14286:14295   */\n      dup4\n        /* \"#utility.yul\":14282:14299   */\n      add\n        /* \"#utility.yul\":14275:14322   */\n      mstore\n        /* \"#utility.yul\":14339:14470   */\n      tag_390\n        /* \"#utility.yul\":14465:14469   */\n      dup2\n        /* \"#utility.yul\":14339:14470   */\n      tag_256\n      jump\t// in\n    tag_390:\n        /* \"#utility.yul\":14331:14470   */\n      swap1\n      pop\n        /* \"#utility.yul\":14058:14477   */\n      swap2\n      swap1\n      pop\n      jump\t// out\n        /* \"#utility.yul\":14483:14925   */\n    tag_198:\n        /* \"#utility.yul\":14632:14636   */\n      0x00\n        /* \"#utility.yul\":14670:14672   */\n      0x60\n        /* \"#utility.yul\":14659:14668   */\n      dup3\n        /* \"#utility.yul\":14655:14673   */\n      add\n        /* \"#utility.yul\":14647:14673   */\n      swap1\n      pop\n        /* \"#utility.yul\":14683:14754   */\n      tag_392\n        /* \"#utility.yul\":14751:14752   */\n      0x00\n        /* \"#utility.yul\":14740:14749   */\n      dup4\n        /* \"#utility.yul\":14736:14753   */\n      add\n        /* \"#utility.yul\":14727:14733   */\n      dup7\n        /* \"#utility.yul\":14683:14754   */\n      tag_228\n      jump\t// in\n    tag_392:\n        /* \"#utility.yul\":14764:14836   */\n      tag_393\n        /* \"#utility.yul\":14832:14834   */\n      0x20\n        /* \"#utility.yul\":14821:14830   */\n      dup4\n        /* \"#utility.yul\":14817:14835   */\n      add\n        /* \"#utility.yul\":14808:14814   */\n      dup6\n        /* \"#utility.yul\":14764:14836   */\n      tag_228\n      jump\t// in\n    tag_393:\n        /* \"#utility.yul\":14846:14918   */\n      tag_394\n        /* \"#utility.yul\":14914:14916   */\n      0x40\n        /* \"#utility.yul\":14903:14912   */\n      dup4\n        /* \"#utility.yul\":14899:14917   */\n      add\n        /* \"#utility.yul\":14890:14896   */\n      dup5\n        /* \"#utility.yul\":14846:14918   */\n      tag_232\n      jump\t// in\n    tag_394:\n        /* \"#utility.yul\":14483:14925   */\n      swap5\n      swap4\n      pop\n      pop\n      pop\n      pop\n      jump\t// out\n        /* \"#utility.yul\":14931:15167   */\n    tag_257:\n        /* \"#utility.yul\":15071:15105   */\n      0x5472616e7366657248656c7065723a3a7472616e7366657246726f6d3a207472\n        /* \"#utility.yul\":15067:15068   */\n      0x00\n        /* \"#utility.yul\":15059:15065   */\n      dup3\n        /* \"#utility.yul\":15055:15069   */\n      add\n        /* \"#utility.yul\":15048:15106   */\n      mstore\n        /* \"#utility.yul\":15140:15159   */\n      0x616e7366657246726f6d206661696c6564000000000000000000000000000000\n        /* \"#utility.yul\":15135:15137   */\n      0x20\n        /* \"#utility.yul\":15127:15133   */\n      dup3\n        /* \"#utility.yul\":15123:15138   */\n      add\n        /* \"#utility.yul\":15116:15160   */\n      mstore\n        /* \"#utility.yul\":14931:15167   */\n      pop\n      jump\t// out\n        /* \"#utility.yul\":15173:15539   */\n    tag_258:\n        /* \"#utility.yul\":15315:15318   */\n      0x00\n        /* \"#utility.yul\":15336:15403   */\n      tag_397\n        /* \"#utility.yul\":15400:15402   */\n      0x31\n        /* \"#utility.yul\":15395:15398   */\n      dup4\n        /* \"#utility.yul\":15336:15403   */\n      tag_234\n      jump\t// in\n    tag_397:\n        /* \"#utility.yul\":15329:15403   */\n      swap2\n      pop\n        /* \"#utility.yul\":15412:15505   */\n      tag_398\n        /* \"#utility.yul\":15501:15504   */\n      dup3\n        /* \"#utility.yul\":15412:15505   */\n      tag_257\n      jump\t// in\n    tag_398:\n        /* \"#utility.yul\":15530:15532   */\n      0x40\n        /* \"#utility.yul\":15525:15528   */\n      dup3\n        /* \"#utility.yul\":15521:15533   */\n      add\n        /* \"#utility.yul\":15514:15533   */\n      swap1\n      pop\n        /* \"#utility.yul\":15173:15539   */\n      swap2\n      swap1\n      pop\n      jump\t// out\n        /* \"#utility.yul\":15545:15964   */\n    tag_208:\n        /* \"#utility.yul\":15711:15715   */\n      0x00\n        /* \"#utility.yul\":15749:15751   */\n      0x20\n        /* \"#utility.yul\":15738:15747   */\n      dup3\n        /* \"#utility.yul\":15734:15752   */\n      add\n        /* \"#utility.yul\":15726:15752   */\n      swap1\n      pop\n        /* \"#utility.yul\":15798:15807   */\n      dup2\n        /* \"#utility.yul\":15792:15796   */\n      dup2\n        /* \"#utility.yul\":15788:15808   */\n      sub\n        /* \"#utility.yul\":15784:15785   */\n      0x00\n        /* \"#utility.yul\":15773:15782   */\n      dup4\n        /* \"#utility.yul\":15769:15786   */\n      add\n        /* \"#utility.yul\":15762:15809   */\n      mstore\n        /* \"#utility.yul\":15826:15957   */\n      tag_400\n        /* \"#utility.yul\":15952:15956   */\n      dup2\n        /* \"#utility.yul\":15826:15957   */\n      tag_258\n      jump\t// in\n    tag_400:\n        /* \"#utility.yul\":15818:15957   */\n      swap1\n      pop\n        /* \"#utility.yul\":15545:15964   */\n      swap2\n      swap1\n      pop\n      jump\t// out\n        /* \"#utility.yul\":15970:16150   */\n    tag_212:\n        /* \"#utility.yul\":16018:16095   */\n      0x4e487b7100000000000000000000000000000000000000000000000000000000\n        /* \"#utility.yul\":16015:16016   */\n      0x00\n        /* \"#utility.yul\":16008:16096   */\n      mstore\n        /* \"#utility.yul\":16115:16119   */\n      0x41\n        /* \"#utility.yul\":16112:16113   */\n      0x04\n        /* \"#utility.yul\":16105:16120   */\n      mstore\n        /* \"#utility.yul\":16139:16143   */\n      0x24\n        /* \"#utility.yul\":16136:16137   */\n      0x00\n        /* \"#utility.yul\":16129:16144   */\n      revert\n        /* \"#utility.yul\":16156:16395   */\n    tag_259:\n        /* \"#utility.yul\":16296:16330   */\n      0x5472616e7366657248656c7065723a3a736166655472616e736665724554483a\n        /* \"#utility.yul\":16292:16293   */\n      0x00\n        /* \"#utility.yul\":16284:16290   */\n      dup3\n        /* \"#utility.yul\":16280:16294   */\n      add\n        /* \"#utility.yul\":16273:16331   */\n      mstore\n        /* \"#utility.yul\":16365:16387   */\n      0x20455448207472616e73666572206661696c6564000000000000000000000000\n        /* \"#utility.yul\":16360:16362   */\n      0x20\n        /* \"#utility.yul\":16352:16358   */\n      dup3\n        /* \"#utility.yul\":16348:16363   */\n      add\n        /* \"#utility.yul\":16341:16388   */\n      mstore\n        /* \"#utility.yul\":16156:16395   */\n      pop\n      jump\t// out\n        /* \"#utility.yul\":16401:16767   */\n    tag_260:\n        /* \"#utility.yul\":16543:16546   */\n      0x00\n        /* \"#utility.yul\":16564:16631   */\n      tag_404\n        /* \"#utility.yul\":16628:16630   */\n      0x34\n        /* \"#utility.yul\":16623:16626   */\n      dup4\n        /* \"#utility.yul\":16564:16631   */\n      tag_234\n      jump\t// in\n    tag_404:\n        /* \"#utility.yul\":16557:16631   */\n      swap2\n      pop\n        /* \"#utility.yul\":16640:16733   */\n      tag_405\n        /* \"#utility.yul\":16729:16732   */\n      dup3\n        /* \"#utility.yul\":16640:16733   */\n      tag_259\n      jump\t// in\n    tag_405:\n        /* \"#utility.yul\":16758:16760   */\n      0x40\n        /* \"#utility.yul\":16753:16756   */\n      dup3\n        /* \"#utility.yul\":16749:16761   */\n      add\n        /* \"#utility.yul\":16742:16761   */\n      swap1\n      pop\n        /* \"#utility.yul\":16401:16767   */\n      swap2\n      swap1\n      pop\n      jump\t// out\n        /* \"#utility.yul\":16773:17192   */\n    tag_220:\n        /* \"#utility.yul\":16939:16943   */\n      0x00\n        /* \"#utility.yul\":16977:16979   */\n      0x20\n        /* \"#utility.yul\":16966:16975   */\n      dup3\n        /* \"#utility.yul\":16962:16980   */\n      add\n        /* \"#utility.yul\":16954:16980   */\n      swap1\n      pop\n        /* \"#utility.yul\":17026:17035   */\n      dup2\n        /* \"#utility.yul\":17020:17024   */\n      dup2\n        /* \"#utility.yul\":17016:17036   */\n      sub\n        /* \"#utility.yul\":17012:17013   */\n      0x00\n        /* \"#utility.yul\":17001:17010   */\n      dup4\n        /* \"#utility.yul\":16997:17014   */\n      add\n        /* \"#utility.yul\":16990:17037   */\n      mstore\n        /* \"#utility.yul\":17054:17185   */\n      tag_407\n        /* \"#utility.yul\":17180:17184   */\n      dup2\n        /* \"#utility.yul\":17054:17185   */\n      tag_260\n      jump\t// in\n    tag_407:\n        /* \"#utility.yul\":17046:17185   */\n      swap1\n      pop\n        /* \"#utility.yul\":16773:17192   */\n      swap2\n      swap1\n      pop\n      jump\t// out\n\n    auxdata: 0xa2646970667358221220eb2e055619eca31974cde4c17b92746cb0c6745c674e3dadd80bcc4a657275ce64736f6c63430008120033\n}\n",
				"bytecode": {
					"linkReferences": {},
					"object": "60e06040523480156200001157600080fd5b5060405162001bbd38038062001bbd833981810160405281019062000037919062000146565b8273ffffffffffffffffffffffffffffffffffffffff1660808173ffffffffffffffffffffffffffffffffffffffff16815250508173ffffffffffffffffffffffffffffffffffffffff1660a08173ffffffffffffffffffffffffffffffffffffffff16815250508073ffffffffffffffffffffffffffffffffffffffff1660c08173ffffffffffffffffffffffffffffffffffffffff1681525050505050620001a2565b600080fd5b600073ffffffffffffffffffffffffffffffffffffffff82169050919050565b60006200010e82620000e1565b9050919050565b620001208162000101565b81146200012c57600080fd5b50565b600081519050620001408162000115565b92915050565b600080600060608486031215620001625762000161620000dc565b5b600062000172868287016200012f565b935050602062000185868287016200012f565b925050604062000198868287016200012f565b9150509250925092565b60805160a05160c0516119a56200021860003960008181610539015261073101526000818161059f015281816106230152818161064e01528181610a0d01528181610a3801528181610a6201528181610a8b0152610d7601526000818161035b015281816106f401526108e601526119a56000f3fe6080604052600436106100dd5760003560e01c8063df2a26e91161007f578063f379dfd011610059578063f379dfd014610289578063f3fef3a3146102c6578063f8b2cb4f146102ef578063fd08c30c1461032c576100dd565b8063df2a26e91461020c578063ef4361b714610249578063f14210a614610260576100dd565b80636ecc20da116100bb5780636ecc20da146101735780639049f9d21461018f578063adc9772e146101b8578063c45a0155146101e1576100dd565b80631228cbee146100e25780636447c5a21461011f5780636845478f14610148575b600080fd5b3480156100ee57600080fd5b506101096004803603810190610104919061116a565b610357565b60405161011691906111a6565b60405180910390f35b34801561012b57600080fd5b506101466004803603810190610141919061116a565b6103fa565b005b34801561015457600080fd5b5061015d610537565b60405161016a91906111a6565b60405180910390f35b61018d600480360381019061018891906111f7565b61055b565b005b34801561019b57600080fd5b506101b660048036038101906101b1919061116a565b610676565b005b3480156101c457600080fd5b506101df60048036038101906101da9190611224565b6107b5565b005b3480156101ed57600080fd5b506101f66108e4565b60405161020391906111a6565b60405180910390f35b34801561021857600080fd5b50610233600480360381019061022e9190611264565b610908565b60405161024091906112b3565b60405180910390f35b34801561025557600080fd5b5061025e610a08565b005b34801561026c57600080fd5b50610287600480360381019061028291906111f7565b610a33565b005b34801561029557600080fd5b506102b060048036038101906102ab9190611264565b610b21565b6040516102bd91906112b3565b60405180910390f35b3480156102d257600080fd5b506102ed60048036038101906102e89190611224565b610bb2565b005b3480156102fb57600080fd5b506103166004803603810190610311919061116a565b610cf1565b60405161032391906112b3565b60405180910390f35b34801561033857600080fd5b50610341610d74565b60405161034e91906111a6565b60405180910390f35b60007f000000000000000000000000000000000000000000000000000000000000000073ffffffffffffffffffffffffffffffffffffffff1663bbe4f6db836040518263ffffffff1660e01b81526004016103b291906111a6565b602060405180830381865afa1580156103cf573d6000803e3d6000fd5b505050506040513d601f19601f820116820180604052508101906103f391906112e3565b9050919050565b600061040582610357565b9050600073ffffffffffffffffffffffffffffffffffffffff168173ffffffffffffffffffffffffffffffffffffffff1603610476576040517f08c379a000000000000000000000000000000000000000000000000000000000815260040161046d9061136d565b60405180910390fd5b60006104828333610908565b9050600081116104c7576040517f08c379a00000000000000000000000000000000000000000000000000000000081526004016104be906113d9565b60405180910390fd5b8173ffffffffffffffffffffffffffffffffffffffff16636447c5a2336040518263ffffffff1660e01b815260040161050091906111a6565b600060405180830381600087803b15801561051a57600080fd5b505af115801561052e573d6000803e3d6000fd5b50505050505050565b7f000000000000000000000000000000000000000000000000000000000000000081565b80341461059d576040517f08c379a000000000000000000000000000000000000000000000000000000000815260040161059490611445565b60405180910390fd5b7f000000000000000000000000000000000000000000000000000000000000000073ffffffffffffffffffffffffffffffffffffffff1663d0e30db0346040518263ffffffff1660e01b81526004016000604051808303818588803b15801561060557600080fd5b505af1158015610619573d6000803e3d6000fd5b50505050506106497f00000000000000000000000000000000000000000000000000000000000000003383610d98565b6106737f0000000000000000000000000000000000000000000000000000000000000000826107b5565b50565b600061068182610357565b9050600073ffffffffffffffffffffffffffffffffffffffff168173ffffffffffffffffffffffffffffffffffffffff16146106f2576040517f08c379a00000000000000000000000000000000000000000000000000000000081526004016106e9906114b1565b60405180910390fd5b7f000000000000000000000000000000000000000000000000000000000000000073ffffffffffffffffffffffffffffffffffffffff1663e3433615837f00000000000000000000000000000000000000000000000000000000000000006040518363ffffffff1660e01b815260040161076d9291906114d1565b6020604051808303816000875af115801561078c573d6000803e3d6000fd5b505050506040513d601f19601f820116820180604052508101906107b091906112e3565b505050565b60006107c083610357565b9050600073ffffffffffffffffffffffffffffffffffffffff168173ffffffffffffffffffffffffffffffffffffffff1614610868578073ffffffffffffffffffffffffffffffffffffffff16637acb775783336040518363ffffffff1660e01b81526004016108319291906114fa565b600060405180830381600087803b15801561084b57600080fd5b505af115801561085f573d6000803e3d6000fd5b505050506108df565b61087183610676565b8073ffffffffffffffffffffffffffffffffffffffff16637acb775783336040518363ffffffff1660e01b81526004016108ac9291906114fa565b600060405180830381600087803b1580156108c657600080fd5b505af11580156108da573d6000803e3d6000fd5b505050505b505050565b7f000000000000000000000000000000000000000000000000000000000000000081565b60008061091484610357565b9050600073ffffffffffffffffffffffffffffffffffffffff168173ffffffffffffffffffffffffffffffffffffffff1603610985576040517f08c379a000000000000000000000000000000000000000000000000000000000815260040161097c9061156f565b60405180910390fd5b8073ffffffffffffffffffffffffffffffffffffffff16630700037d846040518263ffffffff1660e01b81526004016109be91906111a6565b602060405180830381865afa1580156109db573d6000803e3d6000fd5b505050506040513d601f19601f820116820180604052508101906109ff91906115a4565b91505092915050565b610a317f00000000000000000000000000000000000000000000000000000000000000006103fa565b565b610a5d7f000000000000000000000000000000000000000000000000000000000000000082610bb2565b610a897f0000000000000000000000000000000000000000000000000000000000000000333084610ece565b7f000000000000000000000000000000000000000000000000000000000000000073ffffffffffffffffffffffffffffffffffffffff16632e1a7d4d826040518263ffffffff1660e01b8152600401610ae291906112b3565b600060405180830381600087803b158015610afc57600080fd5b505af1158015610b10573d6000803e3d6000fd5b50505050610b1e3382611007565b50565b600080610b2d83610357565b90508073ffffffffffffffffffffffffffffffffffffffff166398807d84856040518263ffffffff1660e01b8152600401610b6891906111a6565b602060405180830381865afa158015610b85573d6000803e3d6000fd5b505050506040513d601f19601f82011682018060405250810190610ba991906115a4565b91505092915050565b6000610bbd83610357565b9050600073ffffffffffffffffffffffffffffffffffffffff168173ffffffffffffffffffffffffffffffffffffffff1603610c2e576040517f08c379a0000000000000000000000000000000000000000000000000000000008152600401610c259061136d565b60405180910390fd5b6000610c3a3385610b21565b905082811015610c7f576040517f08c379a0000000000000000000000000000000000000000000000000000000008152600401610c769061161d565b60405180910390fd5b8173ffffffffffffffffffffffffffffffffffffffff1662f714ce84336040518363ffffffff1660e01b8152600401610cb99291906114fa565b600060405180830381600087803b158015610cd357600080fd5b505af1158015610ce7573d6000803e3d6000fd5b5050505050505050565b60008173ffffffffffffffffffffffffffffffffffffffff166370a08231336040518263ffffffff1660e01b8152600401610d2c91906111a6565b602060405180830381865afa158015610d49573d6000803e3d6000fd5b505050506040513d601f19601f82011682018060405250810190610d6d91906115a4565b9050919050565b7f000000000000000000000000000000000000000000000000000000000000000081565b6000808473ffffffffffffffffffffffffffffffffffffffff1663a9059cbb8585604051602401610dca92919061163d565b6040516020818303038152906040529060e01b6020820180517bffffffffffffffffffffffffffffffffffffffffffffffffffffffff8381831617835250505050604051610e1891906116d7565b6000604051808303816000865af19150503d8060008114610e55576040519150601f19603f3d011682016040523d82523d6000602084013e610e5a565b606091505b5091509150818015610e885750600081511480610e87575080806020019051810190610e869190611726565b5b5b610ec7576040517f08c379a0000000000000000000000000000000000000000000000000000000008152600401610ebe906117c5565b60405180910390fd5b5050505050565b6000808573ffffffffffffffffffffffffffffffffffffffff166323b872dd868686604051602401610f02939291906117e5565b6040516020818303038152906040529060e01b6020820180517bffffffffffffffffffffffffffffffffffffffffffffffffffffffff8381831617835250505050604051610f5091906116d7565b6000604051808303816000865af19150503d8060008114610f8d576040519150601f19603f3d011682016040523d82523d6000602084013e610f92565b606091505b5091509150818015610fc05750600081511480610fbf575080806020019051810190610fbe9190611726565b5b5b610fff576040517f08c379a0000000000000000000000000000000000000000000000000000000008152600401610ff69061188e565b60405180910390fd5b505050505050565b60008273ffffffffffffffffffffffffffffffffffffffff1682600067ffffffffffffffff81111561103c5761103b6118ae565b5b6040519080825280601f01601f19166020018201604052801561106e5781602001600182028036833780820191505090505b5060405161107c91906116d7565b60006040518083038185875af1925050503d80600081146110b9576040519150601f19603f3d011682016040523d82523d6000602084013e6110be565b606091505b5050905080611102576040517f08c379a00000000000000000000000000000000000000000000000000000000081526004016110f99061194f565b60405180910390fd5b505050565b600080fd5b600073ffffffffffffffffffffffffffffffffffffffff82169050919050565b60006111378261110c565b9050919050565b6111478161112c565b811461115257600080fd5b50565b6000813590506111648161113e565b92915050565b6000602082840312156111805761117f611107565b5b600061118e84828501611155565b91505092915050565b6111a08161112c565b82525050565b60006020820190506111bb6000830184611197565b92915050565b6000819050919050565b6111d4816111c1565b81146111df57600080fd5b50565b6000813590506111f1816111cb565b92915050565b60006020828403121561120d5761120c611107565b5b600061121b848285016111e2565b91505092915050565b6000806040838503121561123b5761123a611107565b5b600061124985828601611155565b925050602061125a858286016111e2565b9150509250929050565b6000806040838503121561127b5761127a611107565b5b600061128985828601611155565b925050602061129a85828601611155565b9150509250929050565b6112ad816111c1565b82525050565b60006020820190506112c860008301846112a4565b92915050565b6000815190506112dd8161113e565b92915050565b6000602082840312156112f9576112f8611107565b5b6000611307848285016112ce565b91505092915050565b600082825260208201905092915050565b7f506f6f6c20446f204e6f74204578697374730000000000000000000000000000600082015250565b6000611357601283611310565b915061136282611321565b602082019050919050565b600060208201905081810360008301526113868161134a565b9050919050565b7f4e6f207265776172647320466f756e6400000000000000000000000000000000600082015250565b60006113c3601083611310565b91506113ce8261138d565b602082019050919050565b600060208201905081810360008301526113f2816113b6565b9050919050565b7f496e636f727265637420416d6f756e742073656e740000000000000000000000600082015250565b600061142f601583611310565b915061143a826113f9565b602082019050919050565b6000602082019050818103600083015261145e81611422565b9050919050565b7f506f6f6c20457869737473000000000000000000000000000000000000000000600082015250565b600061149b600b83611310565b91506114a682611465565b602082019050919050565b600060208201905081810360008301526114ca8161148e565b9050919050565b60006040820190506114e66000830185611197565b6114f36020830184611197565b9392505050565b600060408201905061150f60008301856112a4565b61151c6020830184611197565b9392505050565b7f506f6f6c20646f6e277420457869737473000000000000000000000000000000600082015250565b6000611559601183611310565b915061156482611523565b602082019050919050565b600060208201905081810360008301526115888161154c565b9050919050565b60008151905061159e816111cb565b92915050565b6000602082840312156115ba576115b9611107565b5b60006115c88482850161158f565b91505092915050565b7f496e636f72726563742042616c616e636520656e746572656400000000000000600082015250565b6000611607601983611310565b9150611612826115d1565b602082019050919050565b60006020820190508181036000830152611636816115fa565b9050919050565b60006040820190506116526000830185611197565b61165f60208301846112a4565b9392505050565b600081519050919050565b600081905092915050565b60005b8381101561169a57808201518184015260208101905061167f565b60008484015250505050565b60006116b182611666565b6116bb8185611671565b93506116cb81856020860161167c565b80840191505092915050565b60006116e382846116a6565b915081905092915050565b60008115159050919050565b611703816116ee565b811461170e57600080fd5b50565b600081519050611720816116fa565b92915050565b60006020828403121561173c5761173b611107565b5b600061174a84828501611711565b91505092915050565b7f5472616e7366657248656c7065723a3a736166655472616e736665723a20747260008201527f616e73666572206661696c656400000000000000000000000000000000000000602082015250565b60006117af602d83611310565b91506117ba82611753565b604082019050919050565b600060208201905081810360008301526117de816117a2565b9050919050565b60006060820190506117fa6000830186611197565b6118076020830185611197565b61181460408301846112a4565b949350505050565b7f5472616e7366657248656c7065723a3a7472616e7366657246726f6d3a20747260008201527f616e7366657246726f6d206661696c6564000000000000000000000000000000602082015250565b6000611878603183611310565b91506118838261181c565b604082019050919050565b600060208201905081810360008301526118a78161186b565b9050919050565b7f4e487b7100000000000000000000000000000000000000000000000000000000600052604160045260246000fd5b7f5472616e7366657248656c7065723a3a736166655472616e736665724554483a60008201527f20455448207472616e73666572206661696c6564000000000000000000000000602082015250565b6000611939603483611310565b9150611944826118dd565b604082019050919050565b600060208201905081810360008301526119688161192c565b905091905056fea2646970667358221220eb2e055619eca31974cde4c17b92746cb0c6745c674e3dadd80bcc4a657275ce64736f6c63430008120033",
					"opcodes": "PUSH1 0xE0 PUSH1 0x40 MSTORE CALLVALUE DUP1 ISZERO PUSH3 0x11 JUMPI PUSH1 0x0 DUP1 REVERT JUMPDEST POP PUSH1 0x40 MLOAD PUSH3 0x1BBD CODESIZE SUB DUP1 PUSH3 0x1BBD DUP4 CODECOPY DUP2 DUP2 ADD PUSH1 0x40 MSTORE DUP2 ADD SWAP1 PUSH3 0x37 SWAP2 SWAP1 PUSH3 0x146 JUMP JUMPDEST DUP3 PUSH20 0xFFFFFFFFFFFFFFFFFFFFFFFFFFFFFFFFFFFFFFFF AND PUSH1 0x80 DUP2 PUSH20 0xFFFFFFFFFFFFFFFFFFFFFFFFFFFFFFFFFFFFFFFF AND DUP2 MSTORE POP POP DUP2 PUSH20 0xFFFFFFFFFFFFFFFFFFFFFFFFFFFFFFFFFFFFFFFF AND PUSH1 0xA0 DUP2 PUSH20 0xFFFFFFFFFFFFFFFFFFFFFFFFFFFFFFFFFFFFFFFF AND DUP2 MSTORE POP POP DUP1 PUSH20 0xFFFFFFFFFFFFFFFFFFFFFFFFFFFFFFFFFFFFFFFF AND PUSH1 0xC0 DUP2 PUSH20 0xFFFFFFFFFFFFFFFFFFFFFFFFFFFFFFFFFFFFFFFF AND DUP2 MSTORE POP POP POP POP POP PUSH3 0x1A2 JUMP JUMPDEST PUSH1 0x0 DUP1 REVERT JUMPDEST PUSH1 0x0 PUSH20 0xFFFFFFFFFFFFFFFFFFFFFFFFFFFFFFFFFFFFFFFF DUP3 AND SWAP1 POP SWAP2 SWAP1 POP JUMP JUMPDEST PUSH1 0x0 PUSH3 0x10E DUP3 PUSH3 0xE1 JUMP JUMPDEST SWAP1 POP SWAP2 SWAP1 POP JUMP JUMPDEST PUSH3 0x120 DUP2 PUSH3 0x101 JUMP JUMPDEST DUP2 EQ PUSH3 0x12C JUMPI PUSH1 0x0 DUP1 REVERT JUMPDEST POP JUMP JUMPDEST PUSH1 0x0 DUP2 MLOAD SWAP1 POP PUSH3 0x140 DUP2 PUSH3 0x115 JUMP JUMPDEST SWAP3 SWAP2 POP POP JUMP JUMPDEST PUSH1 0x0 DUP1 PUSH1 0x0 PUSH1 0x60 DUP5 DUP7 SUB SLT ISZERO PUSH3 0x162 JUMPI PUSH3 0x161 PUSH3 0xDC JUMP JUMPDEST JUMPDEST PUSH1 0x0 PUSH3 0x172 DUP7 DUP3 DUP8 ADD PUSH3 0x12F JUMP JUMPDEST SWAP4 POP POP PUSH1 0x20 PUSH3 0x185 DUP7 DUP3 DUP8 ADD PUSH3 0x12F JUMP JUMPDEST SWAP3 POP POP PUSH1 0x40 PUSH3 0x198 DUP7 DUP3 DUP8 ADD PUSH3 0x12F JUMP JUMPDEST SWAP2 POP POP SWAP3 POP SWAP3 POP SWAP3 JUMP JUMPDEST PUSH1 0x80 MLOAD PUSH1 0xA0 MLOAD PUSH1 0xC0 MLOAD PUSH2 0x19A5 PUSH3 0x218 PUSH1 0x0 CODECOPY PUSH1 0x0 DUP2 DUP2 PUSH2 0x539 ADD MSTORE PUSH2 0x731 ADD MSTORE PUSH1 0x0 DUP2 DUP2 PUSH2 0x59F ADD MSTORE DUP2 DUP2 PUSH2 0x623 ADD MSTORE DUP2 DUP2 PUSH2 0x64E ADD MSTORE DUP2 DUP2 PUSH2 0xA0D ADD MSTORE DUP2 DUP2 PUSH2 0xA38 ADD MSTORE DUP2 DUP2 PUSH2 0xA62 ADD MSTORE DUP2 DUP2 PUSH2 0xA8B ADD MSTORE PUSH2 0xD76 ADD MSTORE PUSH1 0x0 DUP2 DUP2 PUSH2 0x35B ADD MSTORE DUP2 DUP2 PUSH2 0x6F4 ADD MSTORE PUSH2 0x8E6 ADD MSTORE PUSH2 0x19A5 PUSH1 0x0 RETURN INVALID PUSH1 0x80 PUSH1 0x40 MSTORE PUSH1 0x4 CALLDATASIZE LT PUSH2 0xDD JUMPI PUSH1 0x0 CALLDATALOAD PUSH1 0xE0 SHR DUP1 PUSH4 0xDF2A26E9 GT PUSH2 0x7F JUMPI DUP1 PUSH4 0xF379DFD0 GT PUSH2 0x59 JUMPI DUP1 PUSH4 0xF379DFD0 EQ PUSH2 0x289 JUMPI DUP1 PUSH4 0xF3FEF3A3 EQ PUSH2 0x2C6 JUMPI DUP1 PUSH4 0xF8B2CB4F EQ PUSH2 0x2EF JUMPI DUP1 PUSH4 0xFD08C30C EQ PUSH2 0x32C JUMPI PUSH2 0xDD JUMP JUMPDEST DUP1 PUSH4 0xDF2A26E9 EQ PUSH2 0x20C JUMPI DUP1 PUSH4 0xEF4361B7 EQ PUSH2 0x249 JUMPI DUP1 PUSH4 0xF14210A6 EQ PUSH2 0x260 JUMPI PUSH2 0xDD JUMP JUMPDEST DUP1 PUSH4 0x6ECC20DA GT PUSH2 0xBB JUMPI DUP1 PUSH4 0x6ECC20DA EQ PUSH2 0x173 JUMPI DUP1 PUSH4 0x9049F9D2 EQ PUSH2 0x18F JUMPI DUP1 PUSH4 0xADC9772E EQ PUSH2 0x1B8 JUMPI DUP1 PUSH4 0xC45A0155 EQ PUSH2 0x1E1 JUMPI PUSH2 0xDD JUMP JUMPDEST DUP1 PUSH4 0x1228CBEE EQ PUSH2 0xE2 JUMPI DUP1 PUSH4 0x6447C5A2 EQ PUSH2 0x11F JUMPI DUP1 PUSH4 0x6845478F EQ PUSH2 0x148 JUMPI JUMPDEST PUSH1 0x0 DUP1 REVERT JUMPDEST CALLVALUE DUP1 ISZERO PUSH2 0xEE JUMPI PUSH1 0x0 DUP1 REVERT JUMPDEST POP PUSH2 0x109 PUSH1 0x4 DUP1 CALLDATASIZE SUB DUP2 ADD SWAP1 PUSH2 0x104 SWAP2 SWAP1 PUSH2 0x116A JUMP JUMPDEST PUSH2 0x357 JUMP JUMPDEST PUSH1 0x40 MLOAD PUSH2 0x116 SWAP2 SWAP1 PUSH2 0x11A6 JUMP JUMPDEST PUSH1 0x40 MLOAD DUP1 SWAP2 SUB SWAP1 RETURN JUMPDEST CALLVALUE DUP1 ISZERO PUSH2 0x12B JUMPI PUSH1 0x0 DUP1 REVERT JUMPDEST POP PUSH2 0x146 PUSH1 0x4 DUP1 CALLDATASIZE SUB DUP2 ADD SWAP1 PUSH2 0x141 SWAP2 SWAP1 PUSH2 0x116A JUMP JUMPDEST PUSH2 0x3FA JUMP JUMPDEST STOP JUMPDEST CALLVALUE DUP1 ISZERO PUSH2 0x154 JUMPI PUSH1 0x0 DUP1 REVERT JUMPDEST POP PUSH2 0x15D PUSH2 0x537 JUMP JUMPDEST PUSH1 0x40 MLOAD PUSH2 0x16A SWAP2 SWAP1 PUSH2 0x11A6 JUMP JUMPDEST PUSH1 0x40 MLOAD DUP1 SWAP2 SUB SWAP1 RETURN JUMPDEST PUSH2 0x18D PUSH1 0x4 DUP1 CALLDATASIZE SUB DUP2 ADD SWAP1 PUSH2 0x188 SWAP2 SWAP1 PUSH2 0x11F7 JUMP JUMPDEST PUSH2 0x55B JUMP JUMPDEST STOP JUMPDEST CALLVALUE DUP1 ISZERO PUSH2 0x19B JUMPI PUSH1 0x0 DUP1 REVERT JUMPDEST POP PUSH2 0x1B6 PUSH1 0x4 DUP1 CALLDATASIZE SUB DUP2 ADD SWAP1 PUSH2 0x1B1 SWAP2 SWAP1 PUSH2 0x116A JUMP JUMPDEST PUSH2 0x676 JUMP JUMPDEST STOP JUMPDEST CALLVALUE DUP1 ISZERO PUSH2 0x1C4 JUMPI PUSH1 0x0 DUP1 REVERT JUMPDEST POP PUSH2 0x1DF PUSH1 0x4 DUP1 CALLDATASIZE SUB DUP2 ADD SWAP1 PUSH2 0x1DA SWAP2 SWAP1 PUSH2 0x1224 JUMP JUMPDEST PUSH2 0x7B5 JUMP JUMPDEST STOP JUMPDEST CALLVALUE DUP1 ISZERO PUSH2 0x1ED JUMPI PUSH1 0x0 DUP1 REVERT JUMPDEST POP PUSH2 0x1F6 PUSH2 0x8E4 JUMP JUMPDEST PUSH1 0x40 MLOAD PUSH2 0x203 SWAP2 SWAP1 PUSH2 0x11A6 JUMP JUMPDEST PUSH1 0x40 MLOAD DUP1 SWAP2 SUB SWAP1 RETURN JUMPDEST CALLVALUE DUP1 ISZERO PUSH2 0x218 JUMPI PUSH1 0x0 DUP1 REVERT JUMPDEST POP PUSH2 0x233 PUSH1 0x4 DUP1 CALLDATASIZE SUB DUP2 ADD SWAP1 PUSH2 0x22E SWAP2 SWAP1 PUSH2 0x1264 JUMP JUMPDEST PUSH2 0x908 JUMP JUMPDEST PUSH1 0x40 MLOAD PUSH2 0x240 SWAP2 SWAP1 PUSH2 0x12B3 JUMP JUMPDEST PUSH1 0x40 MLOAD DUP1 SWAP2 SUB SWAP1 RETURN JUMPDEST CALLVALUE DUP1 ISZERO PUSH2 0x255 JUMPI PUSH1 0x0 DUP1 REVERT JUMPDEST POP PUSH2 0x25E PUSH2 0xA08 JUMP JUMPDEST STOP JUMPDEST CALLVALUE DUP1 ISZERO PUSH2 0x26C JUMPI PUSH1 0x0 DUP1 REVERT JUMPDEST POP PUSH2 0x287 PUSH1 0x4 DUP1 CALLDATASIZE SUB DUP2 ADD SWAP1 PUSH2 0x282 SWAP2 SWAP1 PUSH2 0x11F7 JUMP JUMPDEST PUSH2 0xA33 JUMP JUMPDEST STOP JUMPDEST CALLVALUE DUP1 ISZERO PUSH2 0x295 JUMPI PUSH1 0x0 DUP1 REVERT JUMPDEST POP PUSH2 0x2B0 PUSH1 0x4 DUP1 CALLDATASIZE SUB DUP2 ADD SWAP1 PUSH2 0x2AB SWAP2 SWAP1 PUSH2 0x1264 JUMP JUMPDEST PUSH2 0xB21 JUMP JUMPDEST PUSH1 0x40 MLOAD PUSH2 0x2BD SWAP2 SWAP1 PUSH2 0x12B3 JUMP JUMPDEST PUSH1 0x40 MLOAD DUP1 SWAP2 SUB SWAP1 RETURN JUMPDEST CALLVALUE DUP1 ISZERO PUSH2 0x2D2 JUMPI PUSH1 0x0 DUP1 REVERT JUMPDEST POP PUSH2 0x2ED PUSH1 0x4 DUP1 CALLDATASIZE SUB DUP2 ADD SWAP1 PUSH2 0x2E8 SWAP2 SWAP1 PUSH2 0x1224 JUMP JUMPDEST PUSH2 0xBB2 JUMP JUMPDEST STOP JUMPDEST CALLVALUE DUP1 ISZERO PUSH2 0x2FB JUMPI PUSH1 0x0 DUP1 REVERT JUMPDEST POP PUSH2 0x316 PUSH1 0x4 DUP1 CALLDATASIZE SUB DUP2 ADD SWAP1 PUSH2 0x311 SWAP2 SWAP1 PUSH2 0x116A JUMP JUMPDEST PUSH2 0xCF1 JUMP JUMPDEST PUSH1 0x40 MLOAD PUSH2 0x323 SWAP2 SWAP1 PUSH2 0x12B3 JUMP JUMPDEST PUSH1 0x40 MLOAD DUP1 SWAP2 SUB SWAP1 RETURN JUMPDEST CALLVALUE DUP1 ISZERO PUSH2 0x338 JUMPI PUSH1 0x0 DUP1 REVERT JUMPDEST POP PUSH2 0x341 PUSH2 0xD74 JUMP JUMPDEST PUSH1 0x40 MLOAD PUSH2 0x34E SWAP2 SWAP1 PUSH2 0x11A6 JUMP JUMPDEST PUSH1 0x40 MLOAD DUP1 SWAP2 SUB SWAP1 RETURN JUMPDEST PUSH1 0x0 PUSH32 0x0 PUSH20 0xFFFFFFFFFFFFFFFFFFFFFFFFFFFFFFFFFFFFFFFF AND PUSH4 0xBBE4F6DB DUP4 PUSH1 0x40 MLOAD DUP3 PUSH4 0xFFFFFFFF AND PUSH1 0xE0 SHL DUP2 MSTORE PUSH1 0x4 ADD PUSH2 0x3B2 SWAP2 SWAP1 PUSH2 0x11A6 JUMP JUMPDEST PUSH1 0x20 PUSH1 0x40 MLOAD DUP1 DUP4 SUB DUP2 DUP7 GAS STATICCALL ISZERO DUP1 ISZERO PUSH2 0x3CF JUMPI RETURNDATASIZE PUSH1 0x0 DUP1 RETURNDATACOPY RETURNDATASIZE PUSH1 0x0 REVERT JUMPDEST POP POP POP POP PUSH1 0x40 MLOAD RETURNDATASIZE PUSH1 0x1F NOT PUSH1 0x1F DUP3 ADD AND DUP3 ADD DUP1 PUSH1 0x40 MSTORE POP DUP2 ADD SWAP1 PUSH2 0x3F3 SWAP2 SWAP1 PUSH2 0x12E3 JUMP JUMPDEST SWAP1 POP SWAP2 SWAP1 POP JUMP JUMPDEST PUSH1 0x0 PUSH2 0x405 DUP3 PUSH2 0x357 JUMP JUMPDEST SWAP1 POP PUSH1 0x0 PUSH20 0xFFFFFFFFFFFFFFFFFFFFFFFFFFFFFFFFFFFFFFFF AND DUP2 PUSH20 0xFFFFFFFFFFFFFFFFFFFFFFFFFFFFFFFFFFFFFFFF AND SUB PUSH2 0x476 JUMPI PUSH1 0x40 MLOAD PUSH32 0x8C379A000000000000000000000000000000000000000000000000000000000 DUP2 MSTORE PUSH1 0x4 ADD PUSH2 0x46D SWAP1 PUSH2 0x136D JUMP JUMPDEST PUSH1 0x40 MLOAD DUP1 SWAP2 SUB SWAP1 REVERT JUMPDEST PUSH1 0x0 PUSH2 0x482 DUP4 CALLER PUSH2 0x908 JUMP JUMPDEST SWAP1 POP PUSH1 0x0 DUP2 GT PUSH2 0x4C7 JUMPI PUSH1 0x40 MLOAD PUSH32 0x8C379A000000000000000000000000000000000000000000000000000000000 DUP2 MSTORE PUSH1 0x4 ADD PUSH2 0x4BE SWAP1 PUSH2 0x13D9 JUMP JUMPDEST PUSH1 0x40 MLOAD DUP1 SWAP2 SUB SWAP1 REVERT JUMPDEST DUP2 PUSH20 0xFFFFFFFFFFFFFFFFFFFFFFFFFFFFFFFFFFFFFFFF AND PUSH4 0x6447C5A2 CALLER PUSH1 0x40 MLOAD DUP3 PUSH4 0xFFFFFFFF AND PUSH1 0xE0 SHL DUP2 MSTORE PUSH1 0x4 ADD PUSH2 0x500 SWAP2 SWAP1 PUSH2 0x11A6 JUMP JUMPDEST PUSH1 0x0 PUSH1 0x40 MLOAD DUP1 DUP4 SUB DUP2 PUSH1 0x0 DUP8 DUP1 EXTCODESIZE ISZERO DUP1 ISZERO PUSH2 0x51A JUMPI PUSH1 0x0 DUP1 REVERT JUMPDEST POP GAS CALL ISZERO DUP1 ISZERO PUSH2 0x52E JUMPI RETURNDATASIZE PUSH1 0x0 DUP1 RETURNDATACOPY RETURNDATASIZE PUSH1 0x0 REVERT JUMPDEST POP POP POP POP POP POP POP JUMP JUMPDEST PUSH32 0x0 DUP2 JUMP JUMPDEST DUP1 CALLVALUE EQ PUSH2 0x59D JUMPI PUSH1 0x40 MLOAD PUSH32 0x8C379A000000000000000000000000000000000000000000000000000000000 DUP2 MSTORE PUSH1 0x4 ADD PUSH2 0x594 SWAP1 PUSH2 0x1445 JUMP JUMPDEST PUSH1 0x40 MLOAD DUP1 SWAP2 SUB SWAP1 REVERT JUMPDEST PUSH32 0x0 PUSH20 0xFFFFFFFFFFFFFFFFFFFFFFFFFFFFFFFFFFFFFFFF AND PUSH4 0xD0E30DB0 CALLVALUE PUSH1 0x40 MLOAD DUP3 PUSH4 0xFFFFFFFF AND PUSH1 0xE0 SHL DUP2 MSTORE PUSH1 0x4 ADD PUSH1 0x0 PUSH1 0x40 MLOAD DUP1 DUP4 SUB DUP2 DUP6 DUP9 DUP1 EXTCODESIZE ISZERO DUP1 ISZERO PUSH2 0x605 JUMPI PUSH1 0x0 DUP1 REVERT JUMPDEST POP GAS CALL ISZERO DUP1 ISZERO PUSH2 0x619 JUMPI RETURNDATASIZE PUSH1 0x0 DUP1 RETURNDATACOPY RETURNDATASIZE PUSH1 0x0 REVERT JUMPDEST POP POP POP POP POP PUSH2 0x649 PUSH32 0x0 CALLER DUP4 PUSH2 0xD98 JUMP JUMPDEST PUSH2 0x673 PUSH32 0x0 DUP3 PUSH2 0x7B5 JUMP JUMPDEST POP JUMP JUMPDEST PUSH1 0x0 PUSH2 0x681 DUP3 PUSH2 0x357 JUMP JUMPDEST SWAP1 POP PUSH1 0x0 PUSH20 0xFFFFFFFFFFFFFFFFFFFFFFFFFFFFFFFFFFFFFFFF AND DUP2 PUSH20 0xFFFFFFFFFFFFFFFFFFFFFFFFFFFFFFFFFFFFFFFF AND EQ PUSH2 0x6F2 JUMPI PUSH1 0x40 MLOAD PUSH32 0x8C379A000000000000000000000000000000000000000000000000000000000 DUP2 MSTORE PUSH1 0x4 ADD PUSH2 0x6E9 SWAP1 PUSH2 0x14B1 JUMP JUMPDEST PUSH1 0x40 MLOAD DUP1 SWAP2 SUB SWAP1 REVERT JUMPDEST PUSH32 0x0 PUSH20 0xFFFFFFFFFFFFFFFFFFFFFFFFFFFFFFFFFFFFFFFF AND PUSH4 0xE3433615 DUP4 PUSH32 0x0 PUSH1 0x40 MLOAD DUP4 PUSH4 0xFFFFFFFF AND PUSH1 0xE0 SHL DUP2 MSTORE PUSH1 0x4 ADD PUSH2 0x76D SWAP3 SWAP2 SWAP1 PUSH2 0x14D1 JUMP JUMPDEST PUSH1 0x20 PUSH1 0x40 MLOAD DUP1 DUP4 SUB DUP2 PUSH1 0x0 DUP8 GAS CALL ISZERO DUP1 ISZERO PUSH2 0x78C JUMPI RETURNDATASIZE PUSH1 0x0 DUP1 RETURNDATACOPY RETURNDATASIZE PUSH1 0x0 REVERT JUMPDEST POP POP POP POP PUSH1 0x40 MLOAD RETURNDATASIZE PUSH1 0x1F NOT PUSH1 0x1F DUP3 ADD AND DUP3 ADD DUP1 PUSH1 0x40 MSTORE POP DUP2 ADD SWAP1 PUSH2 0x7B0 SWAP2 SWAP1 PUSH2 0x12E3 JUMP JUMPDEST POP POP POP JUMP JUMPDEST PUSH1 0x0 PUSH2 0x7C0 DUP4 PUSH2 0x357 JUMP JUMPDEST SWAP1 POP PUSH1 0x0 PUSH20 0xFFFFFFFFFFFFFFFFFFFFFFFFFFFFFFFFFFFFFFFF AND DUP2 PUSH20 0xFFFFFFFFFFFFFFFFFFFFFFFFFFFFFFFFFFFFFFFF AND EQ PUSH2 0x868 JUMPI DUP1 PUSH20 0xFFFFFFFFFFFFFFFFFFFFFFFFFFFFFFFFFFFFFFFF AND PUSH4 0x7ACB7757 DUP4 CALLER PUSH1 0x40 MLOAD DUP4 PUSH4 0xFFFFFFFF AND PUSH1 0xE0 SHL DUP2 MSTORE PUSH1 0x4 ADD PUSH2 0x831 SWAP3 SWAP2 SWAP1 PUSH2 0x14FA JUMP JUMPDEST PUSH1 0x0 PUSH1 0x40 MLOAD DUP1 DUP4 SUB DUP2 PUSH1 0x0 DUP8 DUP1 EXTCODESIZE ISZERO DUP1 ISZERO PUSH2 0x84B JUMPI PUSH1 0x0 DUP1 REVERT JUMPDEST POP GAS CALL ISZERO DUP1 ISZERO PUSH2 0x85F JUMPI RETURNDATASIZE PUSH1 0x0 DUP1 RETURNDATACOPY RETURNDATASIZE PUSH1 0x0 REVERT JUMPDEST POP POP POP POP PUSH2 0x8DF JUMP JUMPDEST PUSH2 0x871 DUP4 PUSH2 0x676 JUMP JUMPDEST DUP1 PUSH20 0xFFFFFFFFFFFFFFFFFFFFFFFFFFFFFFFFFFFFFFFF AND PUSH4 0x7ACB7757 DUP4 CALLER PUSH1 0x40 MLOAD DUP4 PUSH4 0xFFFFFFFF AND PUSH1 0xE0 SHL DUP2 MSTORE PUSH1 0x4 ADD PUSH2 0x8AC SWAP3 SWAP2 SWAP1 PUSH2 0x14FA JUMP JUMPDEST PUSH1 0x0 PUSH1 0x40 MLOAD DUP1 DUP4 SUB DUP2 PUSH1 0x0 DUP8 DUP1 EXTCODESIZE ISZERO DUP1 ISZERO PUSH2 0x8C6 JUMPI PUSH1 0x0 DUP1 REVERT JUMPDEST POP GAS CALL ISZERO DUP1 ISZERO PUSH2 0x8DA JUMPI RETURNDATASIZE PUSH1 0x0 DUP1 RETURNDATACOPY RETURNDATASIZE PUSH1 0x0 REVERT JUMPDEST POP POP POP POP JUMPDEST POP POP POP JUMP JUMPDEST PUSH32 0x0 DUP2 JUMP JUMPDEST PUSH1 0x0 DUP1 PUSH2 0x914 DUP5 PUSH2 0x357 JUMP JUMPDEST SWAP1 POP PUSH1 0x0 PUSH20 0xFFFFFFFFFFFFFFFFFFFFFFFFFFFFFFFFFFFFFFFF AND DUP2 PUSH20 0xFFFFFFFFFFFFFFFFFFFFFFFFFFFFFFFFFFFFFFFF AND SUB PUSH2 0x985 JUMPI PUSH1 0x40 MLOAD PUSH32 0x8C379A000000000000000000000000000000000000000000000000000000000 DUP2 MSTORE PUSH1 0x4 ADD PUSH2 0x97C SWAP1 PUSH2 0x156F JUMP JUMPDEST PUSH1 0x40 MLOAD DUP1 SWAP2 SUB SWAP1 REVERT JUMPDEST DUP1 PUSH20 0xFFFFFFFFFFFFFFFFFFFFFFFFFFFFFFFFFFFFFFFF AND PUSH4 0x700037D DUP5 PUSH1 0x40 MLOAD DUP3 PUSH4 0xFFFFFFFF AND PUSH1 0xE0 SHL DUP2 MSTORE PUSH1 0x4 ADD PUSH2 0x9BE SWAP2 SWAP1 PUSH2 0x11A6 JUMP JUMPDEST PUSH1 0x20 PUSH1 0x40 MLOAD DUP1 DUP4 SUB DUP2 DUP7 GAS STATICCALL ISZERO DUP1 ISZERO PUSH2 0x9DB JUMPI RETURNDATASIZE PUSH1 0x0 DUP1 RETURNDATACOPY RETURNDATASIZE PUSH1 0x0 REVERT JUMPDEST POP POP POP POP PUSH1 0x40 MLOAD RETURNDATASIZE PUSH1 0x1F NOT PUSH1 0x1F DUP3 ADD AND DUP3 ADD DUP1 PUSH1 0x40 MSTORE POP DUP2 ADD SWAP1 PUSH2 0x9FF SWAP2 SWAP1 PUSH2 0x15A4 JUMP JUMPDEST SWAP2 POP POP SWAP3 SWAP2 POP POP JUMP JUMPDEST PUSH2 0xA31 PUSH32 0x0 PUSH2 0x3FA JUMP JUMPDEST JUMP JUMPDEST PUSH2 0xA5D PUSH32 0x0 DUP3 PUSH2 0xBB2 JUMP JUMPDEST PUSH2 0xA89 PUSH32 0x0 CALLER ADDRESS DUP5 PUSH2 0xECE JUMP JUMPDEST PUSH32 0x0 PUSH20 0xFFFFFFFFFFFFFFFFFFFFFFFFFFFFFFFFFFFFFFFF AND PUSH4 0x2E1A7D4D DUP3 PUSH1 0x40 MLOAD DUP3 PUSH4 0xFFFFFFFF AND PUSH1 0xE0 SHL DUP2 MSTORE PUSH1 0x4 ADD PUSH2 0xAE2 SWAP2 SWAP1 PUSH2 0x12B3 JUMP JUMPDEST PUSH1 0x0 PUSH1 0x40 MLOAD DUP1 DUP4 SUB DUP2 PUSH1 0x0 DUP8 DUP1 EXTCODESIZE ISZERO DUP1 ISZERO PUSH2 0xAFC JUMPI PUSH1 0x0 DUP1 REVERT JUMPDEST POP GAS CALL ISZERO DUP1 ISZERO PUSH2 0xB10 JUMPI RETURNDATASIZE PUSH1 0x0 DUP1 RETURNDATACOPY RETURNDATASIZE PUSH1 0x0 REVERT JUMPDEST POP POP POP POP PUSH2 0xB1E CALLER DUP3 PUSH2 0x1007 JUMP JUMPDEST POP JUMP JUMPDEST PUSH1 0x0 DUP1 PUSH2 0xB2D DUP4 PUSH2 0x357 JUMP JUMPDEST SWAP1 POP DUP1 PUSH20 0xFFFFFFFFFFFFFFFFFFFFFFFFFFFFFFFFFFFFFFFF AND PUSH4 0x98807D84 DUP6 PUSH1 0x40 MLOAD DUP3 PUSH4 0xFFFFFFFF AND PUSH1 0xE0 SHL DUP2 MSTORE PUSH1 0x4 ADD PUSH2 0xB68 SWAP2 SWAP1 PUSH2 0x11A6 JUMP JUMPDEST PUSH1 0x20 PUSH1 0x40 MLOAD DUP1 DUP4 SUB DUP2 DUP7 GAS STATICCALL ISZERO DUP1 ISZERO PUSH2 0xB85 JUMPI RETURNDATASIZE PUSH1 0x0 DUP1 RETURNDATACOPY RETURNDATASIZE PUSH1 0x0 REVERT JUMPDEST POP POP POP POP PUSH1 0x40 MLOAD RETURNDATASIZE PUSH1 0x1F NOT PUSH1 0x1F DUP3 ADD AND DUP3 ADD DUP1 PUSH1 0x40 MSTORE POP DUP2 ADD SWAP1 PUSH2 0xBA9 SWAP2 SWAP1 PUSH2 0x15A4 JUMP JUMPDEST SWAP2 POP POP SWAP3 SWAP2 POP POP JUMP JUMPDEST PUSH1 0x0 PUSH2 0xBBD DUP4 PUSH2 0x357 JUMP JUMPDEST SWAP1 POP PUSH1 0x0 PUSH20 0xFFFFFFFFFFFFFFFFFFFFFFFFFFFFFFFFFFFFFFFF AND DUP2 PUSH20 0xFFFFFFFFFFFFFFFFFFFFFFFFFFFFFFFFFFFFFFFF AND SUB PUSH2 0xC2E JUMPI PUSH1 0x40 MLOAD PUSH32 0x8C379A000000000000000000000000000000000000000000000000000000000 DUP2 MSTORE PUSH1 0x4 ADD PUSH2 0xC25 SWAP1 PUSH2 0x136D JUMP JUMPDEST PUSH1 0x40 MLOAD DUP1 SWAP2 SUB SWAP1 REVERT JUMPDEST PUSH1 0x0 PUSH2 0xC3A CALLER DUP6 PUSH2 0xB21 JUMP JUMPDEST SWAP1 POP DUP3 DUP2 LT ISZERO PUSH2 0xC7F JUMPI PUSH1 0x40 MLOAD PUSH32 0x8C379A000000000000000000000000000000000000000000000000000000000 DUP2 MSTORE PUSH1 0x4 ADD PUSH2 0xC76 SWAP1 PUSH2 0x161D JUMP JUMPDEST PUSH1 0x40 MLOAD DUP1 SWAP2 SUB SWAP1 REVERT JUMPDEST DUP2 PUSH20 0xFFFFFFFFFFFFFFFFFFFFFFFFFFFFFFFFFFFFFFFF AND PUSH3 0xF714CE DUP5 CALLER PUSH1 0x40 MLOAD DUP4 PUSH4 0xFFFFFFFF AND PUSH1 0xE0 SHL DUP2 MSTORE PUSH1 0x4 ADD PUSH2 0xCB9 SWAP3 SWAP2 SWAP1 PUSH2 0x14FA JUMP JUMPDEST PUSH1 0x0 PUSH1 0x40 MLOAD DUP1 DUP4 SUB DUP2 PUSH1 0x0 DUP8 DUP1 EXTCODESIZE ISZERO DUP1 ISZERO PUSH2 0xCD3 JUMPI PUSH1 0x0 DUP1 REVERT JUMPDEST POP GAS CALL ISZERO DUP1 ISZERO PUSH2 0xCE7 JUMPI RETURNDATASIZE PUSH1 0x0 DUP1 RETURNDATACOPY RETURNDATASIZE PUSH1 0x0 REVERT JUMPDEST POP POP POP POP POP POP POP POP JUMP JUMPDEST PUSH1 0x0 DUP2 PUSH20 0xFFFFFFFFFFFFFFFFFFFFFFFFFFFFFFFFFFFFFFFF AND PUSH4 0x70A08231 CALLER PUSH1 0x40 MLOAD DUP3 PUSH4 0xFFFFFFFF AND PUSH1 0xE0 SHL DUP2 MSTORE PUSH1 0x4 ADD PUSH2 0xD2C SWAP2 SWAP1 PUSH2 0x11A6 JUMP JUMPDEST PUSH1 0x20 PUSH1 0x40 MLOAD DUP1 DUP4 SUB DUP2 DUP7 GAS STATICCALL ISZERO DUP1 ISZERO PUSH2 0xD49 JUMPI RETURNDATASIZE PUSH1 0x0 DUP1 RETURNDATACOPY RETURNDATASIZE PUSH1 0x0 REVERT JUMPDEST POP POP POP POP PUSH1 0x40 MLOAD RETURNDATASIZE PUSH1 0x1F NOT PUSH1 0x1F DUP3 ADD AND DUP3 ADD DUP1 PUSH1 0x40 MSTORE POP DUP2 ADD SWAP1 PUSH2 0xD6D SWAP2 SWAP1 PUSH2 0x15A4 JUMP JUMPDEST SWAP1 POP SWAP2 SWAP1 POP JUMP JUMPDEST PUSH32 0x0 DUP2 JUMP JUMPDEST PUSH1 0x0 DUP1 DUP5 PUSH20 0xFFFFFFFFFFFFFFFFFFFFFFFFFFFFFFFFFFFFFFFF AND PUSH4 0xA9059CBB DUP6 DUP6 PUSH1 0x40 MLOAD PUSH1 0x24 ADD PUSH2 0xDCA SWAP3 SWAP2 SWAP1 PUSH2 0x163D JUMP JUMPDEST PUSH1 0x40 MLOAD PUSH1 0x20 DUP2 DUP4 SUB SUB DUP2 MSTORE SWAP1 PUSH1 0x40 MSTORE SWAP1 PUSH1 0xE0 SHL PUSH1 0x20 DUP3 ADD DUP1 MLOAD PUSH28 0xFFFFFFFFFFFFFFFFFFFFFFFFFFFFFFFFFFFFFFFFFFFFFFFFFFFFFFFF DUP4 DUP2 DUP4 AND OR DUP4 MSTORE POP POP POP POP PUSH1 0x40 MLOAD PUSH2 0xE18 SWAP2 SWAP1 PUSH2 0x16D7 JUMP JUMPDEST PUSH1 0x0 PUSH1 0x40 MLOAD DUP1 DUP4 SUB DUP2 PUSH1 0x0 DUP7 GAS CALL SWAP2 POP POP RETURNDATASIZE DUP1 PUSH1 0x0 DUP2 EQ PUSH2 0xE55 JUMPI PUSH1 0x40 MLOAD SWAP2 POP PUSH1 0x1F NOT PUSH1 0x3F RETURNDATASIZE ADD AND DUP3 ADD PUSH1 0x40 MSTORE RETURNDATASIZE DUP3 MSTORE RETURNDATASIZE PUSH1 0x0 PUSH1 0x20 DUP5 ADD RETURNDATACOPY PUSH2 0xE5A JUMP JUMPDEST PUSH1 0x60 SWAP2 POP JUMPDEST POP SWAP2 POP SWAP2 POP DUP2 DUP1 ISZERO PUSH2 0xE88 JUMPI POP PUSH1 0x0 DUP2 MLOAD EQ DUP1 PUSH2 0xE87 JUMPI POP DUP1 DUP1 PUSH1 0x20 ADD SWAP1 MLOAD DUP2 ADD SWAP1 PUSH2 0xE86 SWAP2 SWAP1 PUSH2 0x1726 JUMP JUMPDEST JUMPDEST JUMPDEST PUSH2 0xEC7 JUMPI PUSH1 0x40 MLOAD PUSH32 0x8C379A000000000000000000000000000000000000000000000000000000000 DUP2 MSTORE PUSH1 0x4 ADD PUSH2 0xEBE SWAP1 PUSH2 0x17C5 JUMP JUMPDEST PUSH1 0x40 MLOAD DUP1 SWAP2 SUB SWAP1 REVERT JUMPDEST POP POP POP POP POP JUMP JUMPDEST PUSH1 0x0 DUP1 DUP6 PUSH20 0xFFFFFFFFFFFFFFFFFFFFFFFFFFFFFFFFFFFFFFFF AND PUSH4 0x23B872DD DUP7 DUP7 DUP7 PUSH1 0x40 MLOAD PUSH1 0x24 ADD PUSH2 0xF02 SWAP4 SWAP3 SWAP2 SWAP1 PUSH2 0x17E5 JUMP JUMPDEST PUSH1 0x40 MLOAD PUSH1 0x20 DUP2 DUP4 SUB SUB DUP2 MSTORE SWAP1 PUSH1 0x40 MSTORE SWAP1 PUSH1 0xE0 SHL PUSH1 0x20 DUP3 ADD DUP1 MLOAD PUSH28 0xFFFFFFFFFFFFFFFFFFFFFFFFFFFFFFFFFFFFFFFFFFFFFFFFFFFFFFFF DUP4 DUP2 DUP4 AND OR DUP4 MSTORE POP POP POP POP PUSH1 0x40 MLOAD PUSH2 0xF50 SWAP2 SWAP1 PUSH2 0x16D7 JUMP JUMPDEST PUSH1 0x0 PUSH1 0x40 MLOAD DUP1 DUP4 SUB DUP2 PUSH1 0x0 DUP7 GAS CALL SWAP2 POP POP RETURNDATASIZE DUP1 PUSH1 0x0 DUP2 EQ PUSH2 0xF8D JUMPI PUSH1 0x40 MLOAD SWAP2 POP PUSH1 0x1F NOT PUSH1 0x3F RETURNDATASIZE ADD AND DUP3 ADD PUSH1 0x40 MSTORE RETURNDATASIZE DUP3 MSTORE RETURNDATASIZE PUSH1 0x0 PUSH1 0x20 DUP5 ADD RETURNDATACOPY PUSH2 0xF92 JUMP JUMPDEST PUSH1 0x60 SWAP2 POP JUMPDEST POP SWAP2 POP SWAP2 POP DUP2 DUP1 ISZERO PUSH2 0xFC0 JUMPI POP PUSH1 0x0 DUP2 MLOAD EQ DUP1 PUSH2 0xFBF JUMPI POP DUP1 DUP1 PUSH1 0x20 ADD SWAP1 MLOAD DUP2 ADD SWAP1 PUSH2 0xFBE SWAP2 SWAP1 PUSH2 0x1726 JUMP JUMPDEST JUMPDEST JUMPDEST PUSH2 0xFFF JUMPI PUSH1 0x40 MLOAD PUSH32 0x8C379A000000000000000000000000000000000000000000000000000000000 DUP2 MSTORE PUSH1 0x4 ADD PUSH2 0xFF6 SWAP1 PUSH2 0x188E JUMP JUMPDEST PUSH1 0x40 MLOAD DUP1 SWAP2 SUB SWAP1 REVERT JUMPDEST POP POP POP POP POP POP JUMP JUMPDEST PUSH1 0x0 DUP3 PUSH20 0xFFFFFFFFFFFFFFFFFFFFFFFFFFFFFFFFFFFFFFFF AND DUP3 PUSH1 0x0 PUSH8 0xFFFFFFFFFFFFFFFF DUP2 GT ISZERO PUSH2 0x103C JUMPI PUSH2 0x103B PUSH2 0x18AE JUMP JUMPDEST JUMPDEST PUSH1 0x40 MLOAD SWAP1 DUP1 DUP3 MSTORE DUP1 PUSH1 0x1F ADD PUSH1 0x1F NOT AND PUSH1 0x20 ADD DUP3 ADD PUSH1 0x40 MSTORE DUP1 ISZERO PUSH2 0x106E JUMPI DUP2 PUSH1 0x20 ADD PUSH1 0x1 DUP3 MUL DUP1 CALLDATASIZE DUP4 CALLDATACOPY DUP1 DUP3 ADD SWAP2 POP POP SWAP1 POP JUMPDEST POP PUSH1 0x40 MLOAD PUSH2 0x107C SWAP2 SWAP1 PUSH2 0x16D7 JUMP JUMPDEST PUSH1 0x0 PUSH1 0x40 MLOAD DUP1 DUP4 SUB DUP2 DUP6 DUP8 GAS CALL SWAP3 POP POP POP RETURNDATASIZE DUP1 PUSH1 0x0 DUP2 EQ PUSH2 0x10B9 JUMPI PUSH1 0x40 MLOAD SWAP2 POP PUSH1 0x1F NOT PUSH1 0x3F RETURNDATASIZE ADD AND DUP3 ADD PUSH1 0x40 MSTORE RETURNDATASIZE DUP3 MSTORE RETURNDATASIZE PUSH1 0x0 PUSH1 0x20 DUP5 ADD RETURNDATACOPY PUSH2 0x10BE JUMP JUMPDEST PUSH1 0x60 SWAP2 POP JUMPDEST POP POP SWAP1 POP DUP1 PUSH2 0x1102 JUMPI PUSH1 0x40 MLOAD PUSH32 0x8C379A000000000000000000000000000000000000000000000000000000000 DUP2 MSTORE PUSH1 0x4 ADD PUSH2 0x10F9 SWAP1 PUSH2 0x194F JUMP JUMPDEST PUSH1 0x40 MLOAD DUP1 SWAP2 SUB SWAP1 REVERT JUMPDEST POP POP POP JUMP JUMPDEST PUSH1 0x0 DUP1 REVERT JUMPDEST PUSH1 0x0 PUSH20 0xFFFFFFFFFFFFFFFFFFFFFFFFFFFFFFFFFFFFFFFF DUP3 AND SWAP1 POP SWAP2 SWAP1 POP JUMP JUMPDEST PUSH1 0x0 PUSH2 0x1137 DUP3 PUSH2 0x110C JUMP JUMPDEST SWAP1 POP SWAP2 SWAP1 POP JUMP JUMPDEST PUSH2 0x1147 DUP2 PUSH2 0x112C JUMP JUMPDEST DUP2 EQ PUSH2 0x1152 JUMPI PUSH1 0x0 DUP1 REVERT JUMPDEST POP JUMP JUMPDEST PUSH1 0x0 DUP2 CALLDATALOAD SWAP1 POP PUSH2 0x1164 DUP2 PUSH2 0x113E JUMP JUMPDEST SWAP3 SWAP2 POP POP JUMP JUMPDEST PUSH1 0x0 PUSH1 0x20 DUP3 DUP5 SUB SLT ISZERO PUSH2 0x1180 JUMPI PUSH2 0x117F PUSH2 0x1107 JUMP JUMPDEST JUMPDEST PUSH1 0x0 PUSH2 0x118E DUP5 DUP3 DUP6 ADD PUSH2 0x1155 JUMP JUMPDEST SWAP2 POP POP SWAP3 SWAP2 POP POP JUMP JUMPDEST PUSH2 0x11A0 DUP2 PUSH2 0x112C JUMP JUMPDEST DUP3 MSTORE POP POP JUMP JUMPDEST PUSH1 0x0 PUSH1 0x20 DUP3 ADD SWAP1 POP PUSH2 0x11BB PUSH1 0x0 DUP4 ADD DUP5 PUSH2 0x1197 JUMP JUMPDEST SWAP3 SWAP2 POP POP JUMP JUMPDEST PUSH1 0x0 DUP2 SWAP1 POP SWAP2 SWAP1 POP JUMP JUMPDEST PUSH2 0x11D4 DUP2 PUSH2 0x11C1 JUMP JUMPDEST DUP2 EQ PUSH2 0x11DF JUMPI PUSH1 0x0 DUP1 REVERT JUMPDEST POP JUMP JUMPDEST PUSH1 0x0 DUP2 CALLDATALOAD SWAP1 POP PUSH2 0x11F1 DUP2 PUSH2 0x11CB JUMP JUMPDEST SWAP3 SWAP2 POP POP JUMP JUMPDEST PUSH1 0x0 PUSH1 0x20 DUP3 DUP5 SUB SLT ISZERO PUSH2 0x120D JUMPI PUSH2 0x120C PUSH2 0x1107 JUMP JUMPDEST JUMPDEST PUSH1 0x0 PUSH2 0x121B DUP5 DUP3 DUP6 ADD PUSH2 0x11E2 JUMP JUMPDEST SWAP2 POP POP SWAP3 SWAP2 POP POP JUMP JUMPDEST PUSH1 0x0 DUP1 PUSH1 0x40 DUP4 DUP6 SUB SLT ISZERO PUSH2 0x123B JUMPI PUSH2 0x123A PUSH2 0x1107 JUMP JUMPDEST JUMPDEST PUSH1 0x0 PUSH2 0x1249 DUP6 DUP3 DUP7 ADD PUSH2 0x1155 JUMP JUMPDEST SWAP3 POP POP PUSH1 0x20 PUSH2 0x125A DUP6 DUP3 DUP7 ADD PUSH2 0x11E2 JUMP JUMPDEST SWAP2 POP POP SWAP3 POP SWAP3 SWAP1 POP JUMP JUMPDEST PUSH1 0x0 DUP1 PUSH1 0x40 DUP4 DUP6 SUB SLT ISZERO PUSH2 0x127B JUMPI PUSH2 0x127A PUSH2 0x1107 JUMP JUMPDEST JUMPDEST PUSH1 0x0 PUSH2 0x1289 DUP6 DUP3 DUP7 ADD PUSH2 0x1155 JUMP JUMPDEST SWAP3 POP POP PUSH1 0x20 PUSH2 0x129A DUP6 DUP3 DUP7 ADD PUSH2 0x1155 JUMP JUMPDEST SWAP2 POP POP SWAP3 POP SWAP3 SWAP1 POP JUMP JUMPDEST PUSH2 0x12AD DUP2 PUSH2 0x11C1 JUMP JUMPDEST DUP3 MSTORE POP POP JUMP JUMPDEST PUSH1 0x0 PUSH1 0x20 DUP3 ADD SWAP1 POP PUSH2 0x12C8 PUSH1 0x0 DUP4 ADD DUP5 PUSH2 0x12A4 JUMP JUMPDEST SWAP3 SWAP2 POP POP JUMP JUMPDEST PUSH1 0x0 DUP2 MLOAD SWAP1 POP PUSH2 0x12DD DUP2 PUSH2 0x113E JUMP JUMPDEST SWAP3 SWAP2 POP POP JUMP JUMPDEST PUSH1 0x0 PUSH1 0x20 DUP3 DUP5 SUB SLT ISZERO PUSH2 0x12F9 JUMPI PUSH2 0x12F8 PUSH2 0x1107 JUMP JUMPDEST JUMPDEST PUSH1 0x0 PUSH2 0x1307 DUP5 DUP3 DUP6 ADD PUSH2 0x12CE JUMP JUMPDEST SWAP2 POP POP SWAP3 SWAP2 POP POP JUMP JUMPDEST PUSH1 0x0 DUP3 DUP3 MSTORE PUSH1 0x20 DUP3 ADD SWAP1 POP SWAP3 SWAP2 POP POP JUMP JUMPDEST PUSH32 0x506F6F6C20446F204E6F74204578697374730000000000000000000000000000 PUSH1 0x0 DUP3 ADD MSTORE POP JUMP JUMPDEST PUSH1 0x0 PUSH2 0x1357 PUSH1 0x12 DUP4 PUSH2 0x1310 JUMP JUMPDEST SWAP2 POP PUSH2 0x1362 DUP3 PUSH2 0x1321 JUMP JUMPDEST PUSH1 0x20 DUP3 ADD SWAP1 POP SWAP2 SWAP1 POP JUMP JUMPDEST PUSH1 0x0 PUSH1 0x20 DUP3 ADD SWAP1 POP DUP2 DUP2 SUB PUSH1 0x0 DUP4 ADD MSTORE PUSH2 0x1386 DUP2 PUSH2 0x134A JUMP JUMPDEST SWAP1 POP SWAP2 SWAP1 POP JUMP JUMPDEST PUSH32 0x4E6F207265776172647320466F756E6400000000000000000000000000000000 PUSH1 0x0 DUP3 ADD MSTORE POP JUMP JUMPDEST PUSH1 0x0 PUSH2 0x13C3 PUSH1 0x10 DUP4 PUSH2 0x1310 JUMP JUMPDEST SWAP2 POP PUSH2 0x13CE DUP3 PUSH2 0x138D JUMP JUMPDEST PUSH1 0x20 DUP3 ADD SWAP1 POP SWAP2 SWAP1 POP JUMP JUMPDEST PUSH1 0x0 PUSH1 0x20 DUP3 ADD SWAP1 POP DUP2 DUP2 SUB PUSH1 0x0 DUP4 ADD MSTORE PUSH2 0x13F2 DUP2 PUSH2 0x13B6 JUMP JUMPDEST SWAP1 POP SWAP2 SWAP1 POP JUMP JUMPDEST PUSH32 0x496E636F727265637420416D6F756E742073656E740000000000000000000000 PUSH1 0x0 DUP3 ADD MSTORE POP JUMP JUMPDEST PUSH1 0x0 PUSH2 0x142F PUSH1 0x15 DUP4 PUSH2 0x1310 JUMP JUMPDEST SWAP2 POP PUSH2 0x143A DUP3 PUSH2 0x13F9 JUMP JUMPDEST PUSH1 0x20 DUP3 ADD SWAP1 POP SWAP2 SWAP1 POP JUMP JUMPDEST PUSH1 0x0 PUSH1 0x20 DUP3 ADD SWAP1 POP DUP2 DUP2 SUB PUSH1 0x0 DUP4 ADD MSTORE PUSH2 0x145E DUP2 PUSH2 0x1422 JUMP JUMPDEST SWAP1 POP SWAP2 SWAP1 POP JUMP JUMPDEST PUSH32 0x506F6F6C20457869737473000000000000000000000000000000000000000000 PUSH1 0x0 DUP3 ADD MSTORE POP JUMP JUMPDEST PUSH1 0x0 PUSH2 0x149B PUSH1 0xB DUP4 PUSH2 0x1310 JUMP JUMPDEST SWAP2 POP PUSH2 0x14A6 DUP3 PUSH2 0x1465 JUMP JUMPDEST PUSH1 0x20 DUP3 ADD SWAP1 POP SWAP2 SWAP1 POP JUMP JUMPDEST PUSH1 0x0 PUSH1 0x20 DUP3 ADD SWAP1 POP DUP2 DUP2 SUB PUSH1 0x0 DUP4 ADD MSTORE PUSH2 0x14CA DUP2 PUSH2 0x148E JUMP JUMPDEST SWAP1 POP SWAP2 SWAP1 POP JUMP JUMPDEST PUSH1 0x0 PUSH1 0x40 DUP3 ADD SWAP1 POP PUSH2 0x14E6 PUSH1 0x0 DUP4 ADD DUP6 PUSH2 0x1197 JUMP JUMPDEST PUSH2 0x14F3 PUSH1 0x20 DUP4 ADD DUP5 PUSH2 0x1197 JUMP JUMPDEST SWAP4 SWAP3 POP POP POP JUMP JUMPDEST PUSH1 0x0 PUSH1 0x40 DUP3 ADD SWAP1 POP PUSH2 0x150F PUSH1 0x0 DUP4 ADD DUP6 PUSH2 0x12A4 JUMP JUMPDEST PUSH2 0x151C PUSH1 0x20 DUP4 ADD DUP5 PUSH2 0x1197 JUMP JUMPDEST SWAP4 SWAP3 POP POP POP JUMP JUMPDEST PUSH32 0x506F6F6C20646F6E277420457869737473000000000000000000000000000000 PUSH1 0x0 DUP3 ADD MSTORE POP JUMP JUMPDEST PUSH1 0x0 PUSH2 0x1559 PUSH1 0x11 DUP4 PUSH2 0x1310 JUMP JUMPDEST SWAP2 POP PUSH2 0x1564 DUP3 PUSH2 0x1523 JUMP JUMPDEST PUSH1 0x20 DUP3 ADD SWAP1 POP SWAP2 SWAP1 POP JUMP JUMPDEST PUSH1 0x0 PUSH1 0x20 DUP3 ADD SWAP1 POP DUP2 DUP2 SUB PUSH1 0x0 DUP4 ADD MSTORE PUSH2 0x1588 DUP2 PUSH2 0x154C JUMP JUMPDEST SWAP1 POP SWAP2 SWAP1 POP JUMP JUMPDEST PUSH1 0x0 DUP2 MLOAD SWAP1 POP PUSH2 0x159E DUP2 PUSH2 0x11CB JUMP JUMPDEST SWAP3 SWAP2 POP POP JUMP JUMPDEST PUSH1 0x0 PUSH1 0x20 DUP3 DUP5 SUB SLT ISZERO PUSH2 0x15BA JUMPI PUSH2 0x15B9 PUSH2 0x1107 JUMP JUMPDEST JUMPDEST PUSH1 0x0 PUSH2 0x15C8 DUP5 DUP3 DUP6 ADD PUSH2 0x158F JUMP JUMPDEST SWAP2 POP POP SWAP3 SWAP2 POP POP JUMP JUMPDEST PUSH32 0x496E636F72726563742042616C616E636520656E746572656400000000000000 PUSH1 0x0 DUP3 ADD MSTORE POP JUMP JUMPDEST PUSH1 0x0 PUSH2 0x1607 PUSH1 0x19 DUP4 PUSH2 0x1310 JUMP JUMPDEST SWAP2 POP PUSH2 0x1612 DUP3 PUSH2 0x15D1 JUMP JUMPDEST PUSH1 0x20 DUP3 ADD SWAP1 POP SWAP2 SWAP1 POP JUMP JUMPDEST PUSH1 0x0 PUSH1 0x20 DUP3 ADD SWAP1 POP DUP2 DUP2 SUB PUSH1 0x0 DUP4 ADD MSTORE PUSH2 0x1636 DUP2 PUSH2 0x15FA JUMP JUMPDEST SWAP1 POP SWAP2 SWAP1 POP JUMP JUMPDEST PUSH1 0x0 PUSH1 0x40 DUP3 ADD SWAP1 POP PUSH2 0x1652 PUSH1 0x0 DUP4 ADD DUP6 PUSH2 0x1197 JUMP JUMPDEST PUSH2 0x165F PUSH1 0x20 DUP4 ADD DUP5 PUSH2 0x12A4 JUMP JUMPDEST SWAP4 SWAP3 POP POP POP JUMP JUMPDEST PUSH1 0x0 DUP2 MLOAD SWAP1 POP SWAP2 SWAP1 POP JUMP JUMPDEST PUSH1 0x0 DUP2 SWAP1 POP SWAP3 SWAP2 POP POP JUMP JUMPDEST PUSH1 0x0 JUMPDEST DUP4 DUP2 LT ISZERO PUSH2 0x169A JUMPI DUP1 DUP3 ADD MLOAD DUP2 DUP5 ADD MSTORE PUSH1 0x20 DUP2 ADD SWAP1 POP PUSH2 0x167F JUMP JUMPDEST PUSH1 0x0 DUP5 DUP5 ADD MSTORE POP POP POP POP JUMP JUMPDEST PUSH1 0x0 PUSH2 0x16B1 DUP3 PUSH2 0x1666 JUMP JUMPDEST PUSH2 0x16BB DUP2 DUP6 PUSH2 0x1671 JUMP JUMPDEST SWAP4 POP PUSH2 0x16CB DUP2 DUP6 PUSH1 0x20 DUP7 ADD PUSH2 0x167C JUMP JUMPDEST DUP1 DUP5 ADD SWAP2 POP POP SWAP3 SWAP2 POP POP JUMP JUMPDEST PUSH1 0x0 PUSH2 0x16E3 DUP3 DUP5 PUSH2 0x16A6 JUMP JUMPDEST SWAP2 POP DUP2 SWAP1 POP SWAP3 SWAP2 POP POP JUMP JUMPDEST PUSH1 0x0 DUP2 ISZERO ISZERO SWAP1 POP SWAP2 SWAP1 POP JUMP JUMPDEST PUSH2 0x1703 DUP2 PUSH2 0x16EE JUMP JUMPDEST DUP2 EQ PUSH2 0x170E JUMPI PUSH1 0x0 DUP1 REVERT JUMPDEST POP JUMP JUMPDEST PUSH1 0x0 DUP2 MLOAD SWAP1 POP PUSH2 0x1720 DUP2 PUSH2 0x16FA JUMP JUMPDEST SWAP3 SWAP2 POP POP JUMP JUMPDEST PUSH1 0x0 PUSH1 0x20 DUP3 DUP5 SUB SLT ISZERO PUSH2 0x173C JUMPI PUSH2 0x173B PUSH2 0x1107 JUMP JUMPDEST JUMPDEST PUSH1 0x0 PUSH2 0x174A DUP5 DUP3 DUP6 ADD PUSH2 0x1711 JUMP JUMPDEST SWAP2 POP POP SWAP3 SWAP2 POP POP JUMP JUMPDEST PUSH32 0x5472616E7366657248656C7065723A3A736166655472616E736665723A207472 PUSH1 0x0 DUP3 ADD MSTORE PUSH32 0x616E73666572206661696C656400000000000000000000000000000000000000 PUSH1 0x20 DUP3 ADD MSTORE POP JUMP JUMPDEST PUSH1 0x0 PUSH2 0x17AF PUSH1 0x2D DUP4 PUSH2 0x1310 JUMP JUMPDEST SWAP2 POP PUSH2 0x17BA DUP3 PUSH2 0x1753 JUMP JUMPDEST PUSH1 0x40 DUP3 ADD SWAP1 POP SWAP2 SWAP1 POP JUMP JUMPDEST PUSH1 0x0 PUSH1 0x20 DUP3 ADD SWAP1 POP DUP2 DUP2 SUB PUSH1 0x0 DUP4 ADD MSTORE PUSH2 0x17DE DUP2 PUSH2 0x17A2 JUMP JUMPDEST SWAP1 POP SWAP2 SWAP1 POP JUMP JUMPDEST PUSH1 0x0 PUSH1 0x60 DUP3 ADD SWAP1 POP PUSH2 0x17FA PUSH1 0x0 DUP4 ADD DUP7 PUSH2 0x1197 JUMP JUMPDEST PUSH2 0x1807 PUSH1 0x20 DUP4 ADD DUP6 PUSH2 0x1197 JUMP JUMPDEST PUSH2 0x1814 PUSH1 0x40 DUP4 ADD DUP5 PUSH2 0x12A4 JUMP JUMPDEST SWAP5 SWAP4 POP POP POP POP JUMP JUMPDEST PUSH32 0x5472616E7366657248656C7065723A3A7472616E7366657246726F6D3A207472 PUSH1 0x0 DUP3 ADD MSTORE PUSH32 0x616E7366657246726F6D206661696C6564000000000000000000000000000000 PUSH1 0x20 DUP3 ADD MSTORE POP JUMP JUMPDEST PUSH1 0x0 PUSH2 0x1878 PUSH1 0x31 DUP4 PUSH2 0x1310 JUMP JUMPDEST SWAP2 POP PUSH2 0x1883 DUP3 PUSH2 0x181C JUMP JUMPDEST PUSH1 0x40 DUP3 ADD SWAP1 POP SWAP2 SWAP1 POP JUMP JUMPDEST PUSH1 0x0 PUSH1 0x20 DUP3 ADD SWAP1 POP DUP2 DUP2 SUB PUSH1 0x0 DUP4 ADD MSTORE PUSH2 0x18A7 DUP2 PUSH2 0x186B JUMP JUMPDEST SWAP1 POP SWAP2 SWAP1 POP JUMP JUMPDEST PUSH32 0x4E487B7100000000000000000000000000000000000000000000000000000000 PUSH1 0x0 MSTORE PUSH1 0x41 PUSH1 0x4 MSTORE PUSH1 0x24 PUSH1 0x0 REVERT JUMPDEST PUSH32 0x5472616E7366657248656C7065723A3A736166655472616E736665724554483A PUSH1 0x0 DUP3 ADD MSTORE PUSH32 0x20455448207472616E73666572206661696C6564000000000000000000000000 PUSH1 0x20 DUP3 ADD MSTORE POP JUMP JUMPDEST PUSH1 0x0 PUSH2 0x1939 PUSH1 0x34 DUP4 PUSH2 0x1310 JUMP JUMPDEST SWAP2 POP PUSH2 0x1944 DUP3 PUSH2 0x18DD JUMP JUMPDEST PUSH1 0x40 DUP3 ADD SWAP1 POP SWAP2 SWAP1 POP JUMP JUMPDEST PUSH1 0x0 PUSH1 0x20 DUP3 ADD SWAP1 POP DUP2 DUP2 SUB PUSH1 0x0 DUP4 ADD MSTORE PUSH2 0x1968 DUP2 PUSH2 0x192C JUMP JUMPDEST SWAP1 POP SWAP2 SWAP1 POP JUMP INVALID LOG2 PUSH5 0x6970667358 0x22 SLT KECCAK256 0xEB 0x2E SDIV JUMP NOT 0xEC LOG3 NOT PUSH21 0xCDE4C17B92746CB0C6745C674E3DADD80BCC4A6572 PUSH22 0xCE64736F6C6343000812003300000000000000000000 "
				},
				"gasEstimates": {
					"creation": {
						"codeDepositCost": "1313000",
						"executionCost": "infinite",
						"totalCost": "infinite"
					},
					"external": {
						"WEXDC()": "infinite",
						"createPool(address)": "infinite",
						"factory()": "infinite",
						"getBalance(address)": "infinite",
						"getPoolAddress(address)": "infinite",
						"getRewardEarned(address,address)": "infinite",
						"getStaked(address,address)": "infinite",
						"reedemReward(address)": "infinite",
						"reedemRewardETH()": "infinite",
						"rtoken()": "infinite",
						"stake(address,uint256)": "infinite",
						"stakeETH(uint256)": "infinite",
						"withdraw(address,uint256)": "infinite",
						"withdrawETH(uint256)": "infinite"
					}
				},
				"methodIdentifiers": {
					"WEXDC()": "fd08c30c",
					"createPool(address)": "9049f9d2",
					"factory()": "c45a0155",
					"getBalance(address)": "f8b2cb4f",
					"getPoolAddress(address)": "1228cbee",
					"getRewardEarned(address,address)": "df2a26e9",
					"getStaked(address,address)": "f379dfd0",
					"reedemReward(address)": "6447c5a2",
					"reedemRewardETH()": "ef4361b7",
					"rtoken()": "6845478f",
					"stake(address,uint256)": "adc9772e",
					"stakeETH(uint256)": "6ecc20da",
					"withdraw(address,uint256)": "f3fef3a3",
					"withdrawETH(uint256)": "f14210a6"
				}
			},
			"storageLayout": {
				"storage": [],
				"types": null
			},
			"userdoc": {
				"kind": "user",
				"methods": {
					"stakeETH(uint256)": {
						"notice": "wrap"
					},
					"withdrawETH(uint256)": {
						"notice": "unWrap"
					}
				},
				"notice": "Staking is done so in case of Emergency , 50% of the amount locked can be used for covering The Reward Token can be used to pay gas fees for the Exchange and other DEFI activities in the future",
				"version": 1
			}
		}
	}
}