{
	"data": {
		"bytecode": {
			"linkReferences": {},
			"object": "60c06040523480156200001157600080fd5b50604051620050d5380380620050d5833981810160405281019062000037919062000111565b8173ffffffffffffffffffffffffffffffffffffffff1660808173ffffffffffffffffffffffffffffffffffffffff16815250508073ffffffffffffffffffffffffffffffffffffffff1660a08173ffffffffffffffffffffffffffffffffffffffff1681525050505062000158565b600080fd5b600073ffffffffffffffffffffffffffffffffffffffff82169050919050565b6000620000d982620000ac565b9050919050565b620000eb81620000cc565b8114620000f757600080fd5b50565b6000815190506200010b81620000e0565b92915050565b600080604083850312156200012b576200012a620000a7565b5b60006200013b85828601620000fa565b92505060206200014e85828601620000fa565b9150509250929050565b60805160a051614e386200029d6000396000818161011f015281816106100152818161064e0152818161074b015281816109fc01528181610da3015281816110480152818161117c0152818161130a015281816113a60152818161178401528181611d5e01528181611db701528181611deb01528181611e6c015281816120070152818161218901526122250152600081816108120152818161091701528181610aef01528181610b6801528181610c6d01528181610e6a01528181610f6301528181611235015281816113e50152818161159b015281816116940152818161180a01528181611a2201528181611a4c01528181611a8801528181611b1c01528181611bef01528181611d95015281816120c00152818161226401528181612ba901528181612bfd015281816132b40152818161336b01526134110152614e386000f3fe6080604052600436106101185760003560e01c8063ad5c4648116100a0578063d06ca61f11610064578063d06ca61f146104a8578063e8e33700146104e5578063f09a5a9d14610524578063f305d71914610561578063fb3bdb41146105935761017b565b8063ad5c464814610399578063ad615dec146103c4578063baa2abde14610401578063c45a01551461043f578063cbc3ab531461046a5761017b565b806338ed1739116100e757806338ed1739146102755780634a25d94a146102b25780637ff36ab5146102ef57806385f8c2591461031f5780638803dbee1461035c5761017b565b806302751cec14610180578063054d50d4146101be57806318cbafe5146101fb5780631f00ca74146102385761017b565b3661017b577f000000000000000000000000000000000000000000000000000000000000000073ffffffffffffffffffffffffffffffffffffffff163373ffffffffffffffffffffffffffffffffffffffff161461017957610178613664565b5b005b600080fd5b34801561018c57600080fd5b506101a760048036038101906101a2919061373b565b6105c3565b6040516101b59291906137d7565b60405180910390f35b3480156101ca57600080fd5b506101e560048036038101906101e09190613800565b6106ed565b6040516101f29190613853565b60405180910390f35b34801561020757600080fd5b50610222600480360381019061021d91906138d3565b610703565b60405161022f9190613a2b565b60405180910390f35b34801561024457600080fd5b5061025f600480360381019061025a9190613b9c565b610ae8565b60405161026c9190613a2b565b60405180910390f35b34801561028157600080fd5b5061029c600480360381019061029791906138d3565b610b1d565b6040516102a99190613a2b565b60405180910390f35b3480156102be57600080fd5b506102d960048036038101906102d491906138d3565b610d5b565b6040516102e69190613a2b565b60405180910390f35b61030960048036038101906103049190613bf8565b611134565b6040516103169190613a2b565b60405180910390f35b34801561032b57600080fd5b5061034660048036038101906103419190613800565b61153a565b6040516103539190613853565b60405180910390f35b34801561036857600080fd5b50610383600480360381019061037e91906138d3565b611550565b6040516103909190613a2b565b60405180910390f35b3480156103a557600080fd5b506103ae611782565b6040516103bb9190613c8f565b60405180910390f35b3480156103d057600080fd5b506103eb60048036038101906103e69190613800565b6117a6565b6040516103f89190613853565b60405180910390f35b34801561040d57600080fd5b5061042860048036038101906104239190613caa565b6117bc565b6040516104369291906137d7565b60405180910390f35b34801561044b57600080fd5b50610454611a20565b6040516104619190613c8f565b60405180910390f35b34801561047657600080fd5b50610491600480360381019061048c9190613d4c565b611a44565b60405161049f9291906137d7565b60405180910390f35b3480156104b457600080fd5b506104cf60048036038101906104ca9190613b9c565b611a81565b6040516104dc9190613a2b565b60405180910390f35b3480156104f157600080fd5b5061050c60048036038101906105079190613d8c565b611ab6565b60405161051b93929190613e42565b60405180910390f35b34801561053057600080fd5b5061054b60048036038101906105469190613e79565b611bea565b6040516105589190613853565b60405180910390f35b61057b6004803603810190610576919061373b565b611d0f565b60405161058a93929190613e42565b60405180910390f35b6105ad60048036038101906105a89190613bf8565b611fbf565b6040516105ba9190613a2b565b60405180910390f35b600080824281101561060a576040517f08c379a000000000000000000000000000000000000000000000000000000000815260040161060190613f29565b60405180910390fd5b610639897f00000000000000000000000000000000000000000000000000000000000000008a8a8a308a6117bc565b809350819450505061064c89868561240d565b7f000000000000000000000000000000000000000000000000000000000000000073ffffffffffffffffffffffffffffffffffffffff16632e1a7d4d836040518263ffffffff1660e01b81526004016106a59190613853565b600060405180830381600087803b1580156106bf57600080fd5b505af11580156106d3573d6000803e3d6000fd5b505050506106e18583612543565b50965096945050505050565b60006106fa848484612643565b90509392505050565b60608142811015610749576040517f08c379a000000000000000000000000000000000000000000000000000000000815260040161074090613f29565b60405180910390fd5b7f000000000000000000000000000000000000000000000000000000000000000073ffffffffffffffffffffffffffffffffffffffff1686866001898990506107929190613f78565b8181106107a2576107a1613fac565b5b90506020020160208101906107b79190613fdb565b73ffffffffffffffffffffffffffffffffffffffff161461080d576040517f08c379a000000000000000000000000000000000000000000000000000000000815260040161080490614054565b60405180910390fd5b6108797f000000000000000000000000000000000000000000000000000000000000000089888880806020026020016040519081016040528093929190818152602001838360200280828437600081840152601f19601f82011690508083019250505050505050612749565b915086826001845161088b9190613f78565b8151811061089c5761089b613fac565b5b602002602001015110156108e5576040517f08c379a00000000000000000000000000000000000000000000000000000000081526004016108dc906140e6565b60405180910390fd5b6109ae868660008181106108fc576108fb613fac565b5b90506020020160208101906109119190613fdb565b3361098d7f00000000000000000000000000000000000000000000000000000000000000008a8a600081811061094a57610949613fac565b5b905060200201602081019061095f9190613fdb565b8b8b600181811061097357610972613fac565b5b90506020020160208101906109889190613fdb565b6128d4565b856000815181106109a1576109a0613fac565b5b602002602001015161296e565b6109fa82878780806020026020016040519081016040528093929190818152602001838360200280828437600081840152601f19601f8201169050808301925050505050505030612aa7565b7f000000000000000000000000000000000000000000000000000000000000000073ffffffffffffffffffffffffffffffffffffffff16632e1a7d4d8360018551610a459190613f78565b81518110610a5657610a55613fac565b5b60200260200101516040518263ffffffff1660e01b8152600401610a7a9190613853565b600060405180830381600087803b158015610a9457600080fd5b505af1158015610aa8573d6000803e3d6000fd5b50505050610add848360018551610abf9190613f78565b81518110610ad057610acf613fac565b5b6020026020010151612543565b509695505050505050565b6060610b157f00000000000000000000000000000000000000000000000000000000000000008484612d00565b905092915050565b60608142811015610b63576040517f08c379a0000000000000000000000000000000000000000000000000000000008152600401610b5a90613f29565b60405180910390fd5b610bcf7f000000000000000000000000000000000000000000000000000000000000000089888880806020026020016040519081016040528093929190818152602001838360200280828437600081840152601f19601f82011690508083019250505050505050612749565b9150868260018451610be19190613f78565b81518110610bf257610bf1613fac565b5b60200260200101511015610c3b576040517f08c379a0000000000000000000000000000000000000000000000000000000008152600401610c32906140e6565b60405180910390fd5b610d0486866000818110610c5257610c51613fac565b5b9050602002016020810190610c679190613fdb565b33610ce37f00000000000000000000000000000000000000000000000000000000000000008a8a6000818110610ca057610c9f613fac565b5b9050602002016020810190610cb59190613fdb565b8b8b6001818110610cc957610cc8613fac565b5b9050602002016020810190610cde9190613fdb565b6128d4565b85600081518110610cf757610cf6613fac565b5b602002602001015161296e565b610d5082878780806020026020016040519081016040528093929190818152602001838360200280828437600081840152601f19601f8201169050808301925050505050505086612aa7565b509695505050505050565b60608142811015610da1576040517f08c379a0000000000000000000000000000000000000000000000000000000008152600401610d9890613f29565b60405180910390fd5b7f000000000000000000000000000000000000000000000000000000000000000073ffffffffffffffffffffffffffffffffffffffff168686600189899050610dea9190613f78565b818110610dfa57610df9613fac565b5b9050602002016020810190610e0f9190613fdb565b73ffffffffffffffffffffffffffffffffffffffff1614610e65576040517f08c379a0000000000000000000000000000000000000000000000000000000008152600401610e5c90614054565b60405180910390fd5b610ed17f000000000000000000000000000000000000000000000000000000000000000089888880806020026020016040519081016040528093929190818152602001838360200280828437600081840152601f19601f82011690508083019250505050505050612d00565b91508682600081518110610ee857610ee7613fac565b5b60200260200101511115610f31576040517f08c379a0000000000000000000000000000000000000000000000000000000008152600401610f2890614152565b60405180910390fd5b610ffa86866000818110610f4857610f47613fac565b5b9050602002016020810190610f5d9190613fdb565b33610fd97f00000000000000000000000000000000000000000000000000000000000000008a8a6000818110610f9657610f95613fac565b5b9050602002016020810190610fab9190613fdb565b8b8b6001818110610fbf57610fbe613fac565b5b9050602002016020810190610fd49190613fdb565b6128d4565b85600081518110610fed57610fec613fac565b5b602002602001015161296e565b61104682878780806020026020016040519081016040528093929190818152602001838360200280828437600081840152601f19601f8201169050808301925050505050505030612aa7565b7f000000000000000000000000000000000000000000000000000000000000000073ffffffffffffffffffffffffffffffffffffffff16632e1a7d4d83600185516110919190613f78565b815181106110a2576110a1613fac565b5b60200260200101516040518263ffffffff1660e01b81526004016110c69190613853565b600060405180830381600087803b1580156110e057600080fd5b505af11580156110f4573d6000803e3d6000fd5b5050505061112984836001855161110b9190613f78565b8151811061111c5761111b613fac565b5b6020026020010151612543565b509695505050505050565b6060814281101561117a576040517f08c379a000000000000000000000000000000000000000000000000000000000815260040161117190613f29565b60405180910390fd5b7f000000000000000000000000000000000000000000000000000000000000000073ffffffffffffffffffffffffffffffffffffffff16868660008181106111c5576111c4613fac565b5b90506020020160208101906111da9190613fdb565b73ffffffffffffffffffffffffffffffffffffffff1614611230576040517f08c379a000000000000000000000000000000000000000000000000000000000815260040161122790614054565b60405180910390fd5b61129c7f000000000000000000000000000000000000000000000000000000000000000034888880806020026020016040519081016040528093929190818152602001838360200280828437600081840152601f19601f82011690508083019250505050505050612749565b91508682600184516112ae9190613f78565b815181106112bf576112be613fac565b5b60200260200101511015611308576040517f08c379a00000000000000000000000000000000000000000000000000000000081526004016112ff906140e6565b60405180910390fd5b7f000000000000000000000000000000000000000000000000000000000000000073ffffffffffffffffffffffffffffffffffffffff1663d0e30db08360008151811061135857611357613fac565b5b60200260200101516040518263ffffffff1660e01b81526004016000604051808303818588803b15801561138b57600080fd5b505af115801561139f573d6000803e3d6000fd5b50505050507f000000000000000000000000000000000000000000000000000000000000000073ffffffffffffffffffffffffffffffffffffffff1663a9059cbb61145b7f00000000000000000000000000000000000000000000000000000000000000008989600081811061141857611417613fac565b5b905060200201602081019061142d9190613fdb565b8a8a600181811061144157611440613fac565b5b90506020020160208101906114569190613fdb565b6128d4565b8460008151811061146f5761146e613fac565b5b60200260200101516040518363ffffffff1660e01b8152600401611494929190614172565b6020604051808303816000875af11580156114b3573d6000803e3d6000fd5b505050506040513d601f19601f820116820180604052508101906114d791906141d3565b6114e4576114e3613664565b5b61153082878780806020026020016040519081016040528093929190818152602001838360200280828437600081840152601f19601f8201169050808301925050505050505086612aa7565b5095945050505050565b6000611547848484612e9b565b90509392505050565b60608142811015611596576040517f08c379a000000000000000000000000000000000000000000000000000000000815260040161158d90613f29565b60405180910390fd5b6116027f000000000000000000000000000000000000000000000000000000000000000089888880806020026020016040519081016040528093929190818152602001838360200280828437600081840152601f19601f82011690508083019250505050505050612d00565b9150868260008151811061161957611618613fac565b5b60200260200101511115611662576040517f08c379a000000000000000000000000000000000000000000000000000000000815260040161165990614152565b60405180910390fd5b61172b8686600081811061167957611678613fac565b5b905060200201602081019061168e9190613fdb565b3361170a7f00000000000000000000000000000000000000000000000000000000000000008a8a60008181106116c7576116c6613fac565b5b90506020020160208101906116dc9190613fdb565b8b8b60018181106116f0576116ef613fac565b5b90506020020160208101906117059190613fdb565b6128d4565b8560008151811061171e5761171d613fac565b5b602002602001015161296e565b61177782878780806020026020016040519081016040528093929190818152602001838360200280828437600081840152601f19601f8201169050808301925050505050505086612aa7565b509695505050505050565b7f000000000000000000000000000000000000000000000000000000000000000081565b60006117b3848484612fae565b90509392505050565b6000808242811015611803576040517f08c379a00000000000000000000000000000000000000000000000000000000081526004016117fa90613f29565b60405180910390fd5b60006118307f00000000000000000000000000000000000000000000000000000000000000008c8c6128d4565b90508073ffffffffffffffffffffffffffffffffffffffff166323b872dd33838c6040518463ffffffff1660e01b815260040161186f93929190614200565b6020604051808303816000875af115801561188e573d6000803e3d6000fd5b505050506040513d601f19601f820116820180604052508101906118b291906141d3565b506000808273ffffffffffffffffffffffffffffffffffffffff166389afcb44896040518263ffffffff1660e01b81526004016118ef9190613c8f565b60408051808303816000875af115801561190d573d6000803e3d6000fd5b505050506040513d601f19601f82011682018060405250810190611931919061424c565b9150915060006119418e8e613068565b5090508073ffffffffffffffffffffffffffffffffffffffff168e73ffffffffffffffffffffffffffffffffffffffff161461197e578183611981565b82825b80975081985050508a8710156119cc576040517f08c379a00000000000000000000000000000000000000000000000000000000081526004016119c3906142d8565b60405180910390fd5b89861015611a0f576040517f08c379a0000000000000000000000000000000000000000000000000000000008152600401611a0690614344565b60405180910390fd5b505050505097509795505050505050565b7f000000000000000000000000000000000000000000000000000000000000000081565b600080611a727f00000000000000000000000000000000000000000000000000000000000000008585613194565b80925081935050509250929050565b6060611aae7f00000000000000000000000000000000000000000000000000000000000000008484612749565b905092915050565b60008060008342811015611aff576040517f08c379a0000000000000000000000000000000000000000000000000000000008152600401611af690613f29565b60405180910390fd5b611b0d8c8c8c8c8c8c613297565b80945081955050506000611b427f00000000000000000000000000000000000000000000000000000000000000008e8e6128d4565b9050611b508d33838861296e565b611b5c8c33838761296e565b8073ffffffffffffffffffffffffffffffffffffffff16636a627842886040518263ffffffff1660e01b8152600401611b959190613c8f565b6020604051808303816000875af1158015611bb4573d6000803e3d6000fd5b505050506040513d601f19601f82011682018060405250810190611bd89190614364565b92505050985098509895505050505050565b6000807f000000000000000000000000000000000000000000000000000000000000000073ffffffffffffffffffffffffffffffffffffffff1663e6a4390585856040518363ffffffff1660e01b8152600401611c48929190614391565b602060405180830381865afa158015611c65573d6000803e3d6000fd5b505050506040513d601f19601f82011682018060405250810190611c8991906143cf565b90508073ffffffffffffffffffffffffffffffffffffffff166370a08231866040518263ffffffff1660e01b8152600401611cc49190613c8f565b602060405180830381865afa158015611ce1573d6000803e3d6000fd5b505050506040513d601f19601f82011682018060405250810190611d059190614364565b9150509392505050565b60008060008342811015611d58576040517f08c379a0000000000000000000000000000000000000000000000000000000008152600401611d4f90613f29565b60405180910390fd5b611d868a7f00000000000000000000000000000000000000000000000000000000000000008b348c8c613297565b80945081955050506000611ddb7f00000000000000000000000000000000000000000000000000000000000000008c7f00000000000000000000000000000000000000000000000000000000000000006128d4565b9050611de98b33838861296e565b7f000000000000000000000000000000000000000000000000000000000000000073ffffffffffffffffffffffffffffffffffffffff1663d0e30db0856040518263ffffffff1660e01b81526004016000604051808303818588803b158015611e5157600080fd5b505af1158015611e65573d6000803e3d6000fd5b50505050507f000000000000000000000000000000000000000000000000000000000000000073ffffffffffffffffffffffffffffffffffffffff1663a9059cbb82866040518363ffffffff1660e01b8152600401611ec5929190614172565b6020604051808303816000875af1158015611ee4573d6000803e3d6000fd5b505050506040513d601f19601f82011682018060405250810190611f0891906141d3565b611f1557611f14613664565b5b8073ffffffffffffffffffffffffffffffffffffffff16636a627842886040518263ffffffff1660e01b8152600401611f4e9190613c8f565b6020604051808303816000875af1158015611f6d573d6000803e3d6000fd5b505050506040513d601f19601f82011682018060405250810190611f919190614364565b925083341115611fb157611fb0338534611fab9190613f78565b612543565b5b505096509650969350505050565b60608142811015612005576040517f08c379a0000000000000000000000000000000000000000000000000000000008152600401611ffc90613f29565b60405180910390fd5b7f000000000000000000000000000000000000000000000000000000000000000073ffffffffffffffffffffffffffffffffffffffff16868660008181106120505761204f613fac565b5b90506020020160208101906120659190613fdb565b73ffffffffffffffffffffffffffffffffffffffff16146120bb576040517f08c379a00000000000000000000000000000000000000000000000000000000081526004016120b290614054565b60405180910390fd5b6121277f000000000000000000000000000000000000000000000000000000000000000088888880806020026020016040519081016040528093929190818152602001838360200280828437600081840152601f19601f82011690508083019250505050505050612d00565b9150348260008151811061213e5761213d613fac565b5b60200260200101511115612187576040517f08c379a000000000000000000000000000000000000000000000000000000000815260040161217e90614152565b60405180910390fd5b7f000000000000000000000000000000000000000000000000000000000000000073ffffffffffffffffffffffffffffffffffffffff1663d0e30db0836000815181106121d7576121d6613fac565b5b60200260200101516040518263ffffffff1660e01b81526004016000604051808303818588803b15801561220a57600080fd5b505af115801561221e573d6000803e3d6000fd5b50505050507f000000000000000000000000000000000000000000000000000000000000000073ffffffffffffffffffffffffffffffffffffffff1663a9059cbb6122da7f00000000000000000000000000000000000000000000000000000000000000008989600081811061229757612296613fac565b5b90506020020160208101906122ac9190613fdb565b8a8a60018181106122c0576122bf613fac565b5b90506020020160208101906122d59190613fdb565b6128d4565b846000815181106122ee576122ed613fac565b5b60200260200101516040518363ffffffff1660e01b8152600401612313929190614172565b6020604051808303816000875af1158015612332573d6000803e3d6000fd5b505050506040513d601f19601f8201168201806040525081019061235691906141d3565b61236357612362613664565b5b6123af82878780806020026020016040519081016040528093929190818152602001838360200280828437600081840152601f19601f8201169050808301925050505050505086612aa7565b816000815181106123c3576123c2613fac565b5b60200260200101513411156124035761240233836000815181106123ea576123e9613fac565b5b6020026020010151346123fd9190613f78565b612543565b5b5095945050505050565b6000808473ffffffffffffffffffffffffffffffffffffffff1663a9059cbb858560405160240161243f929190614172565b6040516020818303038152906040529060e01b6020820180517bffffffffffffffffffffffffffffffffffffffffffffffffffffffff838183161783525050505060405161248d919061446d565b6000604051808303816000865af19150503d80600081146124ca576040519150601f19603f3d011682016040523d82523d6000602084013e6124cf565b606091505b50915091508180156124fd57506000815114806124fc5750808060200190518101906124fb91906141d3565b5b5b61253c576040517f08c379a0000000000000000000000000000000000000000000000000000000008152600401612533906144f6565b60405180910390fd5b5050505050565b60008273ffffffffffffffffffffffffffffffffffffffff1682600067ffffffffffffffff81111561257857612577613a5e565b5b6040519080825280601f01601f1916602001820160405280156125aa5781602001600182028036833780820191505090505b506040516125b8919061446d565b60006040518083038185875af1925050503d80600081146125f5576040519150601f19603f3d011682016040523d82523d6000602084013e6125fa565b606091505b505090508061263e576040517f08c379a000000000000000000000000000000000000000000000000000000000815260040161263590614588565b60405180910390fd5b505050565b6000808411612687576040517f08c379a000000000000000000000000000000000000000000000000000000000815260040161267e9061461a565b60405180910390fd5b6000831180156126975750600082115b6126d6576040517f08c379a00000000000000000000000000000000000000000000000000000000081526004016126cd90614686565b60405180910390fd5b60006126ed6103e58661354590919063ffffffff16565b90506000612704848361354590919063ffffffff16565b9050600061272f836127216103e88961354590919063ffffffff16565b6135b290919063ffffffff16565b9050808261273d91906146d5565b93505050509392505050565b6060600282511015612790576040517f08c379a000000000000000000000000000000000000000000000000000000000815260040161278790614752565b60405180910390fd5b815167ffffffffffffffff8111156127ab576127aa613a5e565b5b6040519080825280602002602001820160405280156127d95781602001602082028036833780820191505090505b50905082816000815181106127f1576127f0613fac565b5b60200260200101818152505060005b6001835161280e9190613f78565b8110156128cc576000806128638786858151811061282f5761282e613fac565b5b6020026020010151876001876128459190614772565b8151811061285657612855613fac565b5b6020026020010151613194565b9150915061288c84848151811061287d5761287c613fac565b5b60200260200101518383612643565b8460018561289a9190614772565b815181106128ab576128aa613fac565b5b602002602001018181525050505080806128c4906147a6565b915050612800565b509392505050565b60008060006128e38585613068565b915091508573ffffffffffffffffffffffffffffffffffffffff1663e6a4390583836040518363ffffffff1660e01b8152600401612922929190614391565b602060405180830381865afa15801561293f573d6000803e3d6000fd5b505050506040513d601f19601f8201168201806040525081019061296391906143cf565b925050509392505050565b6000808573ffffffffffffffffffffffffffffffffffffffff166323b872dd8686866040516024016129a293929190614200565b6040516020818303038152906040529060e01b6020820180517bffffffffffffffffffffffffffffffffffffffffffffffffffffffff83818316178352505050506040516129f0919061446d565b6000604051808303816000865af19150503d8060008114612a2d576040519150601f19603f3d011682016040523d82523d6000602084013e612a32565b606091505b5091509150818015612a605750600081511480612a5f575080806020019051810190612a5e91906141d3565b5b5b612a9f576040517f08c379a0000000000000000000000000000000000000000000000000000000008152600401612a9690614860565b60405180910390fd5b505050505050565b60005b60018351612ab89190613f78565b811015612cfa57600080848381518110612ad557612ad4613fac565b5b602002602001015185600185612aeb9190614772565b81518110612afc57612afb613fac565b5b6020026020010151915091506000612b148383613068565b509050600087600186612b279190614772565b81518110612b3857612b37613fac565b5b602002602001015190506000808373ffffffffffffffffffffffffffffffffffffffff168673ffffffffffffffffffffffffffffffffffffffff1614612b8057826000612b84565b6000835b91509150600060028a51612b989190613f78565b8810612ba45788612bf6565b612bf57f0000000000000000000000000000000000000000000000000000000000000000878c60028c612bd79190614772565b81518110612be857612be7613fac565b5b60200260200101516128d4565b5b9050612c237f000000000000000000000000000000000000000000000000000000000000000088886128d4565b73ffffffffffffffffffffffffffffffffffffffff1663022c0d9f848484600067ffffffffffffffff811115612c5c57612c5b613a5e565b5b6040519080825280601f01601f191660200182016040528015612c8e5781602001600182028036833780820191505090505b506040518563ffffffff1660e01b8152600401612cae94939291906148ca565b600060405180830381600087803b158015612cc857600080fd5b505af1158015612cdc573d6000803e3d6000fd5b50505050505050505050508080612cf2906147a6565b915050612aaa565b50505050565b6060600282511015612d47576040517f08c379a0000000000000000000000000000000000000000000000000000000008152600401612d3e90614752565b60405180910390fd5b815167ffffffffffffffff811115612d6257612d61613a5e565b5b604051908082528060200260200182016040528015612d905781602001602082028036833780820191505090505b509050828160018351612da39190613f78565b81518110612db457612db3613fac565b5b602002602001018181525050600060018351612dd09190613f78565b90505b6000811115612e9357600080612e2a8786600186612df19190613f78565b81518110612e0257612e01613fac565b5b6020026020010151878681518110612e1d57612e1c613fac565b5b6020026020010151613194565b91509150612e53848481518110612e4457612e43613fac565b5b60200260200101518383612e9b565b84600185612e619190613f78565b81518110612e7257612e71613fac565b5b60200260200101818152505050508080612e8b90614916565b915050612dd3565b509392505050565b6000808411612edf576040517f08c379a0000000000000000000000000000000000000000000000000000000008152600401612ed6906149b1565b60405180910390fd5b600083118015612eef5750600082115b612f2e576040517f08c379a0000000000000000000000000000000000000000000000000000000008152600401612f2590614686565b60405180910390fd5b6000612f576103e8612f49878761354590919063ffffffff16565b61354590919063ffffffff16565b90506000612f826103e5612f74888761360b90919063ffffffff16565b61354590919063ffffffff16565b9050612fa360018284612f9591906146d5565b6135b290919063ffffffff16565b925050509392505050565b6000808411612ff2576040517f08c379a0000000000000000000000000000000000000000000000000000000008152600401612fe990614a1d565b60405180910390fd5b6000831180156130025750600082115b613041576040517f08c379a000000000000000000000000000000000000000000000000000000000815260040161303890614686565b60405180910390fd5b82613055838661354590919063ffffffff16565b61305f91906146d5565b90509392505050565b6000808273ffffffffffffffffffffffffffffffffffffffff168473ffffffffffffffffffffffffffffffffffffffff16036130d9576040517f08c379a00000000000000000000000000000000000000000000000000000000081526004016130d090614a89565b60405180910390fd5b8273ffffffffffffffffffffffffffffffffffffffff168473ffffffffffffffffffffffffffffffffffffffff1610613113578284613116565b83835b8092508193505050600073ffffffffffffffffffffffffffffffffffffffff168273ffffffffffffffffffffffffffffffffffffffff160361318d576040517f08c379a000000000000000000000000000000000000000000000000000000000815260040161318490614af5565b60405180910390fd5b9250929050565b60008060006131a38585613068565b5090506000806131b48888886128d4565b73ffffffffffffffffffffffffffffffffffffffff16630902f1ac6040518163ffffffff1660e01b8152600401606060405180830381865afa1580156131fe573d6000803e3d6000fd5b505050506040513d601f19601f820116820180604052508101906132229190614b97565b506dffffffffffffffffffffffffffff1691506dffffffffffffffffffffffffffff1691508273ffffffffffffffffffffffffffffffffffffffff168773ffffffffffffffffffffffffffffffffffffffff1614613281578082613284565b81815b8095508196505050505050935093915050565b600080600073ffffffffffffffffffffffffffffffffffffffff167f000000000000000000000000000000000000000000000000000000000000000073ffffffffffffffffffffffffffffffffffffffff1663e6a439058a8a6040518363ffffffff1660e01b815260040161330d929190614391565b602060405180830381865afa15801561332a573d6000803e3d6000fd5b505050506040513d601f19601f8201168201806040525081019061334e91906143cf565b73ffffffffffffffffffffffffffffffffffffffff1603613409577f000000000000000000000000000000000000000000000000000000000000000073ffffffffffffffffffffffffffffffffffffffff1663c9c6539689896040518363ffffffff1660e01b81526004016133c4929190614391565b6020604051808303816000875af11580156133e3573d6000803e3d6000fd5b505050506040513d601f19601f8201168201806040525081019061340791906143cf565b505b6000806134377f00000000000000000000000000000000000000000000000000000000000000008b8b613194565b9150915060008214801561344b5750600081145b1561345f5787878094508195505050613538565b600061346c898484612fae565b90508781116134c757858110156134b8576040517f08c379a00000000000000000000000000000000000000000000000000000000081526004016134af90614c5c565b60405180910390fd5b88818095508196505050613536565b60006134d4898486612fae565b9050898111156134e7576134e6613664565b5b8781101561352a576040517f08c379a0000000000000000000000000000000000000000000000000000000008152600401613521906142d8565b60405180910390fd5b80898096508197505050505b505b5050965096945050505050565b60008082148061356d57508282838561355e9190614c7c565b92508261356b91906146d5565b145b6135ac576040517f08c379a00000000000000000000000000000000000000000000000000000000081526004016135a390614d0a565b60405180910390fd5b92915050565b60008282846135c19190614772565b9150811015613605576040517f08c379a00000000000000000000000000000000000000000000000000000000081526004016135fc90614d76565b60405180910390fd5b92915050565b600082828461361a9190613f78565b915081111561365e576040517f08c379a000000000000000000000000000000000000000000000000000000000815260040161365590614de2565b60405180910390fd5b92915050565b7f4e487b7100000000000000000000000000000000000000000000000000000000600052600160045260246000fd5b6000604051905090565b600080fd5b600080fd5b600073ffffffffffffffffffffffffffffffffffffffff82169050919050565b60006136d2826136a7565b9050919050565b6136e2816136c7565b81146136ed57600080fd5b50565b6000813590506136ff816136d9565b92915050565b6000819050919050565b61371881613705565b811461372357600080fd5b50565b6000813590506137358161370f565b92915050565b60008060008060008060c087890312156137585761375761369d565b5b600061376689828a016136f0565b965050602061377789828a01613726565b955050604061378889828a01613726565b945050606061379989828a01613726565b93505060806137aa89828a016136f0565b92505060a06137bb89828a01613726565b9150509295509295509295565b6137d181613705565b82525050565b60006040820190506137ec60008301856137c8565b6137f960208301846137c8565b9392505050565b6000806000606084860312156138195761381861369d565b5b600061382786828701613726565b935050602061383886828701613726565b925050604061384986828701613726565b9150509250925092565b600060208201905061386860008301846137c8565b92915050565b600080fd5b600080fd5b600080fd5b60008083601f8401126138935761389261386e565b5b8235905067ffffffffffffffff8111156138b0576138af613873565b5b6020830191508360208202830111156138cc576138cb613878565b5b9250929050565b60008060008060008060a087890312156138f0576138ef61369d565b5b60006138fe89828a01613726565b965050602061390f89828a01613726565b955050604087013567ffffffffffffffff8111156139305761392f6136a2565b5b61393c89828a0161387d565b9450945050606061394f89828a016136f0565b925050608061396089828a01613726565b9150509295509295509295565b600081519050919050565b600082825260208201905092915050565b6000819050602082019050919050565b6139a281613705565b82525050565b60006139b48383613999565b60208301905092915050565b6000602082019050919050565b60006139d88261396d565b6139e28185613978565b93506139ed83613989565b8060005b83811015613a1e578151613a0588826139a8565b9750613a10836139c0565b9250506001810190506139f1565b5085935050505092915050565b60006020820190508181036000830152613a4581846139cd565b905092915050565b6000601f19601f8301169050919050565b7f4e487b7100000000000000000000000000000000000000000000000000000000600052604160045260246000fd5b613a9682613a4d565b810181811067ffffffffffffffff82111715613ab557613ab4613a5e565b5b80604052505050565b6000613ac8613693565b9050613ad48282613a8d565b919050565b600067ffffffffffffffff821115613af457613af3613a5e565b5b602082029050602081019050919050565b6000613b18613b1384613ad9565b613abe565b90508083825260208201905060208402830185811115613b3b57613b3a613878565b5b835b81811015613b645780613b5088826136f0565b845260208401935050602081019050613b3d565b5050509392505050565b600082601f830112613b8357613b8261386e565b5b8135613b93848260208601613b05565b91505092915050565b60008060408385031215613bb357613bb261369d565b5b6000613bc185828601613726565b925050602083013567ffffffffffffffff811115613be257613be16136a2565b5b613bee85828601613b6e565b9150509250929050565b600080600080600060808688031215613c1457613c1361369d565b5b6000613c2288828901613726565b955050602086013567ffffffffffffffff811115613c4357613c426136a2565b5b613c4f8882890161387d565b94509450506040613c62888289016136f0565b9250506060613c7388828901613726565b9150509295509295909350565b613c89816136c7565b82525050565b6000602082019050613ca46000830184613c80565b92915050565b600080600080600080600060e0888a031215613cc957613cc861369d565b5b6000613cd78a828b016136f0565b9750506020613ce88a828b016136f0565b9650506040613cf98a828b01613726565b9550506060613d0a8a828b01613726565b9450506080613d1b8a828b01613726565b93505060a0613d2c8a828b016136f0565b92505060c0613d3d8a828b01613726565b91505092959891949750929550565b60008060408385031215613d6357613d6261369d565b5b6000613d71858286016136f0565b9250506020613d82858286016136f0565b9150509250929050565b600080600080600080600080610100898b031215613dad57613dac61369d565b5b6000613dbb8b828c016136f0565b9850506020613dcc8b828c016136f0565b9750506040613ddd8b828c01613726565b9650506060613dee8b828c01613726565b9550506080613dff8b828c01613726565b94505060a0613e108b828c01613726565b93505060c0613e218b828c016136f0565b92505060e0613e328b828c01613726565b9150509295985092959890939650565b6000606082019050613e5760008301866137c8565b613e6460208301856137c8565b613e7160408301846137c8565b949350505050565b600080600060608486031215613e9257613e9161369d565b5b6000613ea0868287016136f0565b9350506020613eb1868287016136f0565b9250506040613ec2868287016136f0565b9150509250925092565b600082825260208201905092915050565b7f526f757465723a20455850495245440000000000000000000000000000000000600082015250565b6000613f13600f83613ecc565b9150613f1e82613edd565b602082019050919050565b60006020820190508181036000830152613f4281613f06565b9050919050565b7f4e487b7100000000000000000000000000000000000000000000000000000000600052601160045260246000fd5b6000613f8382613705565b9150613f8e83613705565b9250828203905081811115613fa657613fa5613f49565b5b92915050565b7f4e487b7100000000000000000000000000000000000000000000000000000000600052603260045260246000fd5b600060208284031215613ff157613ff061369d565b5b6000613fff848285016136f0565b91505092915050565b7f526f757465723a20494e56414c49445f50415448000000000000000000000000600082015250565b600061403e601483613ecc565b915061404982614008565b602082019050919050565b6000602082019050818103600083015261406d81614031565b9050919050565b7f526f757465723a20494e53554646494349454e545f4f55545055545f414d4f5560008201527f4e54000000000000000000000000000000000000000000000000000000000000602082015250565b60006140d0602283613ecc565b91506140db82614074565b604082019050919050565b600060208201905081810360008301526140ff816140c3565b9050919050565b7f526f757465723a204558434553534956455f494e5055545f414d4f554e540000600082015250565b600061413c601e83613ecc565b915061414782614106565b602082019050919050565b6000602082019050818103600083015261416b8161412f565b9050919050565b60006040820190506141876000830185613c80565b61419460208301846137c8565b9392505050565b60008115159050919050565b6141b08161419b565b81146141bb57600080fd5b50565b6000815190506141cd816141a7565b92915050565b6000602082840312156141e9576141e861369d565b5b60006141f7848285016141be565b91505092915050565b60006060820190506142156000830186613c80565b6142226020830185613c80565b61422f60408301846137c8565b949350505050565b6000815190506142468161370f565b92915050565b600080604083850312156142635761426261369d565b5b600061427185828601614237565b925050602061428285828601614237565b9150509250929050565b7f526f757465723a20494e53554646494349454e545f415f414d4f554e54000000600082015250565b60006142c2601d83613ecc565b91506142cd8261428c565b602082019050919050565b600060208201905081810360008301526142f1816142b5565b9050919050565b7f526f757465723a20494e53554646494349454e545f425f414d4f554e54000000600082015250565b600061432e601d83613ecc565b9150614339826142f8565b602082019050919050565b6000602082019050818103600083015261435d81614321565b9050919050565b60006020828403121561437a5761437961369d565b5b600061438884828501614237565b91505092915050565b60006040820190506143a66000830185613c80565b6143b36020830184613c80565b9392505050565b6000815190506143c9816136d9565b92915050565b6000602082840312156143e5576143e461369d565b5b60006143f3848285016143ba565b91505092915050565b600081519050919050565b600081905092915050565b60005b83811015614430578082015181840152602081019050614415565b60008484015250505050565b6000614447826143fc565b6144518185614407565b9350614461818560208601614412565b80840191505092915050565b6000614479828461443c565b915081905092915050565b7f5472616e7366657248656c7065723a3a736166655472616e736665723a20747260008201527f616e73666572206661696c656400000000000000000000000000000000000000602082015250565b60006144e0602d83613ecc565b91506144eb82614484565b604082019050919050565b6000602082019050818103600083015261450f816144d3565b9050919050565b7f5472616e7366657248656c7065723a3a736166655472616e736665724554483a60008201527f20455448207472616e73666572206661696c6564000000000000000000000000602082015250565b6000614572603483613ecc565b915061457d82614516565b604082019050919050565b600060208201905081810360008301526145a181614565565b9050919050565b7f4c6962726172793a20494e53554646494349454e545f494e5055545f414d4f5560008201527f4e54000000000000000000000000000000000000000000000000000000000000602082015250565b6000614604602283613ecc565b915061460f826145a8565b604082019050919050565b60006020820190508181036000830152614633816145f7565b9050919050565b7f4c6962726172793a20494e53554646494349454e545f4c495155494449545900600082015250565b6000614670601f83613ecc565b915061467b8261463a565b602082019050919050565b6000602082019050818103600083015261469f81614663565b9050919050565b7f4e487b7100000000000000000000000000000000000000000000000000000000600052601260045260246000fd5b60006146e082613705565b91506146eb83613705565b9250826146fb576146fa6146a6565b5b828204905092915050565b7f4c6962726172793a20494e56414c49445f504154480000000000000000000000600082015250565b600061473c601583613ecc565b915061474782614706565b602082019050919050565b6000602082019050818103600083015261476b8161472f565b9050919050565b600061477d82613705565b915061478883613705565b92508282019050808211156147a05761479f613f49565b5b92915050565b60006147b182613705565b91507fffffffffffffffffffffffffffffffffffffffffffffffffffffffffffffffff82036147e3576147e2613f49565b5b600182019050919050565b7f5472616e7366657248656c7065723a3a7472616e7366657246726f6d3a20747260008201527f616e7366657246726f6d206661696c6564000000000000000000000000000000602082015250565b600061484a603183613ecc565b9150614855826147ee565b604082019050919050565b600060208201905081810360008301526148798161483d565b9050919050565b600082825260208201905092915050565b600061489c826143fc565b6148a68185614880565b93506148b6818560208601614412565b6148bf81613a4d565b840191505092915050565b60006080820190506148df60008301876137c8565b6148ec60208301866137c8565b6148f96040830185613c80565b818103606083015261490b8184614891565b905095945050505050565b600061492182613705565b91506000820361493457614933613f49565b5b600182039050919050565b7f4c6962726172793a20494e53554646494349454e545f4f55545055545f414d4f60008201527f554e540000000000000000000000000000000000000000000000000000000000602082015250565b600061499b602383613ecc565b91506149a68261493f565b604082019050919050565b600060208201905081810360008301526149ca8161498e565b9050919050565b7f4c6962726172793a20494e53554646494349454e545f414d4f554e5400000000600082015250565b6000614a07601c83613ecc565b9150614a12826149d1565b602082019050919050565b60006020820190508181036000830152614a36816149fa565b9050919050565b7f4944454e544943414c5f41444452455353455300000000000000000000000000600082015250565b6000614a73601383613ecc565b9150614a7e82614a3d565b602082019050919050565b60006020820190508181036000830152614aa281614a66565b9050919050565b7f5a45524f5f414444524553530000000000000000000000000000000000000000600082015250565b6000614adf600c83613ecc565b9150614aea82614aa9565b602082019050919050565b60006020820190508181036000830152614b0e81614ad2565b9050919050565b60006dffffffffffffffffffffffffffff82169050919050565b614b3881614b15565b8114614b4357600080fd5b50565b600081519050614b5581614b2f565b92915050565b600063ffffffff82169050919050565b614b7481614b5b565b8114614b7f57600080fd5b50565b600081519050614b9181614b6b565b92915050565b600080600060608486031215614bb057614baf61369d565b5b6000614bbe86828701614b46565b9350506020614bcf86828701614b46565b9250506040614be086828701614b82565b9150509250925092565b7f556e69737761705632526f757465723a20494e53554646494349454e545f425f60008201527f414d4f554e540000000000000000000000000000000000000000000000000000602082015250565b6000614c46602683613ecc565b9150614c5182614bea565b604082019050919050565b60006020820190508181036000830152614c7581614c39565b9050919050565b6000614c8782613705565b9150614c9283613705565b9250828202614ca081613705565b91508282048414831517614cb757614cb6613f49565b5b5092915050565b7f64732d6d6174682d6d756c2d6f766572666c6f77000000000000000000000000600082015250565b6000614cf4601483613ecc565b9150614cff82614cbe565b602082019050919050565b60006020820190508181036000830152614d2381614ce7565b9050919050565b7f64732d6d6174682d6164642d6f766572666c6f77000000000000000000000000600082015250565b6000614d60601483613ecc565b9150614d6b82614d2a565b602082019050919050565b60006020820190508181036000830152614d8f81614d53565b9050919050565b7f64732d6d6174682d7375622d756e646572666c6f770000000000000000000000600082015250565b6000614dcc601583613ecc565b9150614dd782614d96565b602082019050919050565b60006020820190508181036000830152614dfb81614dbf565b905091905056fea2646970667358221220ea9e5a086c98d54e8cfb5ef53fa8425dbfad3e15e95d896a7a33b61dca8da93664736f6c63430008120033",
			"opcodes": "PUSH1 0xC0 PUSH1 0x40 MSTORE CALLVALUE DUP1 ISZERO PUSH3 0x11 JUMPI PUSH1 0x0 DUP1 REVERT JUMPDEST POP PUSH1 0x40 MLOAD PUSH3 0x50D5 CODESIZE SUB DUP1 PUSH3 0x50D5 DUP4 CODECOPY DUP2 DUP2 ADD PUSH1 0x40 MSTORE DUP2 ADD SWAP1 PUSH3 0x37 SWAP2 SWAP1 PUSH3 0x111 JUMP JUMPDEST DUP2 PUSH20 0xFFFFFFFFFFFFFFFFFFFFFFFFFFFFFFFFFFFFFFFF AND PUSH1 0x80 DUP2 PUSH20 0xFFFFFFFFFFFFFFFFFFFFFFFFFFFFFFFFFFFFFFFF AND DUP2 MSTORE POP POP DUP1 PUSH20 0xFFFFFFFFFFFFFFFFFFFFFFFFFFFFFFFFFFFFFFFF AND PUSH1 0xA0 DUP2 PUSH20 0xFFFFFFFFFFFFFFFFFFFFFFFFFFFFFFFFFFFFFFFF AND DUP2 MSTORE POP POP POP POP PUSH3 0x158 JUMP JUMPDEST PUSH1 0x0 DUP1 REVERT JUMPDEST PUSH1 0x0 PUSH20 0xFFFFFFFFFFFFFFFFFFFFFFFFFFFFFFFFFFFFFFFF DUP3 AND SWAP1 POP SWAP2 SWAP1 POP JUMP JUMPDEST PUSH1 0x0 PUSH3 0xD9 DUP3 PUSH3 0xAC JUMP JUMPDEST SWAP1 POP SWAP2 SWAP1 POP JUMP JUMPDEST PUSH3 0xEB DUP2 PUSH3 0xCC JUMP JUMPDEST DUP2 EQ PUSH3 0xF7 JUMPI PUSH1 0x0 DUP1 REVERT JUMPDEST POP JUMP JUMPDEST PUSH1 0x0 DUP2 MLOAD SWAP1 POP PUSH3 0x10B DUP2 PUSH3 0xE0 JUMP JUMPDEST SWAP3 SWAP2 POP POP JUMP JUMPDEST PUSH1 0x0 DUP1 PUSH1 0x40 DUP4 DUP6 SUB SLT ISZERO PUSH3 0x12B JUMPI PUSH3 0x12A PUSH3 0xA7 JUMP JUMPDEST JUMPDEST PUSH1 0x0 PUSH3 0x13B DUP6 DUP3 DUP7 ADD PUSH3 0xFA JUMP JUMPDEST SWAP3 POP POP PUSH1 0x20 PUSH3 0x14E DUP6 DUP3 DUP7 ADD PUSH3 0xFA JUMP JUMPDEST SWAP2 POP POP SWAP3 POP SWAP3 SWAP1 POP JUMP JUMPDEST PUSH1 0x80 MLOAD PUSH1 0xA0 MLOAD PUSH2 0x4E38 PUSH3 0x29D PUSH1 0x0 CODECOPY PUSH1 0x0 DUP2 DUP2 PUSH2 0x11F ADD MSTORE DUP2 DUP2 PUSH2 0x610 ADD MSTORE DUP2 DUP2 PUSH2 0x64E ADD MSTORE DUP2 DUP2 PUSH2 0x74B ADD MSTORE DUP2 DUP2 PUSH2 0x9FC ADD MSTORE DUP2 DUP2 PUSH2 0xDA3 ADD MSTORE DUP2 DUP2 PUSH2 0x1048 ADD MSTORE DUP2 DUP2 PUSH2 0x117C ADD MSTORE DUP2 DUP2 PUSH2 0x130A ADD MSTORE DUP2 DUP2 PUSH2 0x13A6 ADD MSTORE DUP2 DUP2 PUSH2 0x1784 ADD MSTORE DUP2 DUP2 PUSH2 0x1D5E ADD MSTORE DUP2 DUP2 PUSH2 0x1DB7 ADD MSTORE DUP2 DUP2 PUSH2 0x1DEB ADD MSTORE DUP2 DUP2 PUSH2 0x1E6C ADD MSTORE DUP2 DUP2 PUSH2 0x2007 ADD MSTORE DUP2 DUP2 PUSH2 0x2189 ADD MSTORE PUSH2 0x2225 ADD MSTORE PUSH1 0x0 DUP2 DUP2 PUSH2 0x812 ADD MSTORE DUP2 DUP2 PUSH2 0x917 ADD MSTORE DUP2 DUP2 PUSH2 0xAEF ADD MSTORE DUP2 DUP2 PUSH2 0xB68 ADD MSTORE DUP2 DUP2 PUSH2 0xC6D ADD MSTORE DUP2 DUP2 PUSH2 0xE6A ADD MSTORE DUP2 DUP2 PUSH2 0xF63 ADD MSTORE DUP2 DUP2 PUSH2 0x1235 ADD MSTORE DUP2 DUP2 PUSH2 0x13E5 ADD MSTORE DUP2 DUP2 PUSH2 0x159B ADD MSTORE DUP2 DUP2 PUSH2 0x1694 ADD MSTORE DUP2 DUP2 PUSH2 0x180A ADD MSTORE DUP2 DUP2 PUSH2 0x1A22 ADD MSTORE DUP2 DUP2 PUSH2 0x1A4C ADD MSTORE DUP2 DUP2 PUSH2 0x1A88 ADD MSTORE DUP2 DUP2 PUSH2 0x1B1C ADD MSTORE DUP2 DUP2 PUSH2 0x1BEF ADD MSTORE DUP2 DUP2 PUSH2 0x1D95 ADD MSTORE DUP2 DUP2 PUSH2 0x20C0 ADD MSTORE DUP2 DUP2 PUSH2 0x2264 ADD MSTORE DUP2 DUP2 PUSH2 0x2BA9 ADD MSTORE DUP2 DUP2 PUSH2 0x2BFD ADD MSTORE DUP2 DUP2 PUSH2 0x32B4 ADD MSTORE DUP2 DUP2 PUSH2 0x336B ADD MSTORE PUSH2 0x3411 ADD MSTORE PUSH2 0x4E38 PUSH1 0x0 RETURN INVALID PUSH1 0x80 PUSH1 0x40 MSTORE PUSH1 0x4 CALLDATASIZE LT PUSH2 0x118 JUMPI PUSH1 0x0 CALLDATALOAD PUSH1 0xE0 SHR DUP1 PUSH4 0xAD5C4648 GT PUSH2 0xA0 JUMPI DUP1 PUSH4 0xD06CA61F GT PUSH2 0x64 JUMPI DUP1 PUSH4 0xD06CA61F EQ PUSH2 0x4A8 JUMPI DUP1 PUSH4 0xE8E33700 EQ PUSH2 0x4E5 JUMPI DUP1 PUSH4 0xF09A5A9D EQ PUSH2 0x524 JUMPI DUP1 PUSH4 0xF305D719 EQ PUSH2 0x561 JUMPI DUP1 PUSH4 0xFB3BDB41 EQ PUSH2 0x593 JUMPI PUSH2 0x17B JUMP JUMPDEST DUP1 PUSH4 0xAD5C4648 EQ PUSH2 0x399 JUMPI DUP1 PUSH4 0xAD615DEC EQ PUSH2 0x3C4 JUMPI DUP1 PUSH4 0xBAA2ABDE EQ PUSH2 0x401 JUMPI DUP1 PUSH4 0xC45A0155 EQ PUSH2 0x43F JUMPI DUP1 PUSH4 0xCBC3AB53 EQ PUSH2 0x46A JUMPI PUSH2 0x17B JUMP JUMPDEST DUP1 PUSH4 0x38ED1739 GT PUSH2 0xE7 JUMPI DUP1 PUSH4 0x38ED1739 EQ PUSH2 0x275 JUMPI DUP1 PUSH4 0x4A25D94A EQ PUSH2 0x2B2 JUMPI DUP1 PUSH4 0x7FF36AB5 EQ PUSH2 0x2EF JUMPI DUP1 PUSH4 0x85F8C259 EQ PUSH2 0x31F JUMPI DUP1 PUSH4 0x8803DBEE EQ PUSH2 0x35C JUMPI PUSH2 0x17B JUMP JUMPDEST DUP1 PUSH4 0x2751CEC EQ PUSH2 0x180 JUMPI DUP1 PUSH4 0x54D50D4 EQ PUSH2 0x1BE JUMPI DUP1 PUSH4 0x18CBAFE5 EQ PUSH2 0x1FB JUMPI DUP1 PUSH4 0x1F00CA74 EQ PUSH2 0x238 JUMPI PUSH2 0x17B JUMP JUMPDEST CALLDATASIZE PUSH2 0x17B JUMPI PUSH32 0x0 PUSH20 0xFFFFFFFFFFFFFFFFFFFFFFFFFFFFFFFFFFFFFFFF AND CALLER PUSH20 0xFFFFFFFFFFFFFFFFFFFFFFFFFFFFFFFFFFFFFFFF AND EQ PUSH2 0x179 JUMPI PUSH2 0x178 PUSH2 0x3664 JUMP JUMPDEST JUMPDEST STOP JUMPDEST PUSH1 0x0 DUP1 REVERT JUMPDEST CALLVALUE DUP1 ISZERO PUSH2 0x18C JUMPI PUSH1 0x0 DUP1 REVERT JUMPDEST POP PUSH2 0x1A7 PUSH1 0x4 DUP1 CALLDATASIZE SUB DUP2 ADD SWAP1 PUSH2 0x1A2 SWAP2 SWAP1 PUSH2 0x373B JUMP JUMPDEST PUSH2 0x5C3 JUMP JUMPDEST PUSH1 0x40 MLOAD PUSH2 0x1B5 SWAP3 SWAP2 SWAP1 PUSH2 0x37D7 JUMP JUMPDEST PUSH1 0x40 MLOAD DUP1 SWAP2 SUB SWAP1 RETURN JUMPDEST CALLVALUE DUP1 ISZERO PUSH2 0x1CA JUMPI PUSH1 0x0 DUP1 REVERT JUMPDEST POP PUSH2 0x1E5 PUSH1 0x4 DUP1 CALLDATASIZE SUB DUP2 ADD SWAP1 PUSH2 0x1E0 SWAP2 SWAP1 PUSH2 0x3800 JUMP JUMPDEST PUSH2 0x6ED JUMP JUMPDEST PUSH1 0x40 MLOAD PUSH2 0x1F2 SWAP2 SWAP1 PUSH2 0x3853 JUMP JUMPDEST PUSH1 0x40 MLOAD DUP1 SWAP2 SUB SWAP1 RETURN JUMPDEST CALLVALUE DUP1 ISZERO PUSH2 0x207 JUMPI PUSH1 0x0 DUP1 REVERT JUMPDEST POP PUSH2 0x222 PUSH1 0x4 DUP1 CALLDATASIZE SUB DUP2 ADD SWAP1 PUSH2 0x21D SWAP2 SWAP1 PUSH2 0x38D3 JUMP JUMPDEST PUSH2 0x703 JUMP JUMPDEST PUSH1 0x40 MLOAD PUSH2 0x22F SWAP2 SWAP1 PUSH2 0x3A2B JUMP JUMPDEST PUSH1 0x40 MLOAD DUP1 SWAP2 SUB SWAP1 RETURN JUMPDEST CALLVALUE DUP1 ISZERO PUSH2 0x244 JUMPI PUSH1 0x0 DUP1 REVERT JUMPDEST POP PUSH2 0x25F PUSH1 0x4 DUP1 CALLDATASIZE SUB DUP2 ADD SWAP1 PUSH2 0x25A SWAP2 SWAP1 PUSH2 0x3B9C JUMP JUMPDEST PUSH2 0xAE8 JUMP JUMPDEST PUSH1 0x40 MLOAD PUSH2 0x26C SWAP2 SWAP1 PUSH2 0x3A2B JUMP JUMPDEST PUSH1 0x40 MLOAD DUP1 SWAP2 SUB SWAP1 RETURN JUMPDEST CALLVALUE DUP1 ISZERO PUSH2 0x281 JUMPI PUSH1 0x0 DUP1 REVERT JUMPDEST POP PUSH2 0x29C PUSH1 0x4 DUP1 CALLDATASIZE SUB DUP2 ADD SWAP1 PUSH2 0x297 SWAP2 SWAP1 PUSH2 0x38D3 JUMP JUMPDEST PUSH2 0xB1D JUMP JUMPDEST PUSH1 0x40 MLOAD PUSH2 0x2A9 SWAP2 SWAP1 PUSH2 0x3A2B JUMP JUMPDEST PUSH1 0x40 MLOAD DUP1 SWAP2 SUB SWAP1 RETURN JUMPDEST CALLVALUE DUP1 ISZERO PUSH2 0x2BE JUMPI PUSH1 0x0 DUP1 REVERT JUMPDEST POP PUSH2 0x2D9 PUSH1 0x4 DUP1 CALLDATASIZE SUB DUP2 ADD SWAP1 PUSH2 0x2D4 SWAP2 SWAP1 PUSH2 0x38D3 JUMP JUMPDEST PUSH2 0xD5B JUMP JUMPDEST PUSH1 0x40 MLOAD PUSH2 0x2E6 SWAP2 SWAP1 PUSH2 0x3A2B JUMP JUMPDEST PUSH1 0x40 MLOAD DUP1 SWAP2 SUB SWAP1 RETURN JUMPDEST PUSH2 0x309 PUSH1 0x4 DUP1 CALLDATASIZE SUB DUP2 ADD SWAP1 PUSH2 0x304 SWAP2 SWAP1 PUSH2 0x3BF8 JUMP JUMPDEST PUSH2 0x1134 JUMP JUMPDEST PUSH1 0x40 MLOAD PUSH2 0x316 SWAP2 SWAP1 PUSH2 0x3A2B JUMP JUMPDEST PUSH1 0x40 MLOAD DUP1 SWAP2 SUB SWAP1 RETURN JUMPDEST CALLVALUE DUP1 ISZERO PUSH2 0x32B JUMPI PUSH1 0x0 DUP1 REVERT JUMPDEST POP PUSH2 0x346 PUSH1 0x4 DUP1 CALLDATASIZE SUB DUP2 ADD SWAP1 PUSH2 0x341 SWAP2 SWAP1 PUSH2 0x3800 JUMP JUMPDEST PUSH2 0x153A JUMP JUMPDEST PUSH1 0x40 MLOAD PUSH2 0x353 SWAP2 SWAP1 PUSH2 0x3853 JUMP JUMPDEST PUSH1 0x40 MLOAD DUP1 SWAP2 SUB SWAP1 RETURN JUMPDEST CALLVALUE DUP1 ISZERO PUSH2 0x368 JUMPI PUSH1 0x0 DUP1 REVERT JUMPDEST POP PUSH2 0x383 PUSH1 0x4 DUP1 CALLDATASIZE SUB DUP2 ADD SWAP1 PUSH2 0x37E SWAP2 SWAP1 PUSH2 0x38D3 JUMP JUMPDEST PUSH2 0x1550 JUMP JUMPDEST PUSH1 0x40 MLOAD PUSH2 0x390 SWAP2 SWAP1 PUSH2 0x3A2B JUMP JUMPDEST PUSH1 0x40 MLOAD DUP1 SWAP2 SUB SWAP1 RETURN JUMPDEST CALLVALUE DUP1 ISZERO PUSH2 0x3A5 JUMPI PUSH1 0x0 DUP1 REVERT JUMPDEST POP PUSH2 0x3AE PUSH2 0x1782 JUMP JUMPDEST PUSH1 0x40 MLOAD PUSH2 0x3BB SWAP2 SWAP1 PUSH2 0x3C8F JUMP JUMPDEST PUSH1 0x40 MLOAD DUP1 SWAP2 SUB SWAP1 RETURN JUMPDEST CALLVALUE DUP1 ISZERO PUSH2 0x3D0 JUMPI PUSH1 0x0 DUP1 REVERT JUMPDEST POP PUSH2 0x3EB PUSH1 0x4 DUP1 CALLDATASIZE SUB DUP2 ADD SWAP1 PUSH2 0x3E6 SWAP2 SWAP1 PUSH2 0x3800 JUMP JUMPDEST PUSH2 0x17A6 JUMP JUMPDEST PUSH1 0x40 MLOAD PUSH2 0x3F8 SWAP2 SWAP1 PUSH2 0x3853 JUMP JUMPDEST PUSH1 0x40 MLOAD DUP1 SWAP2 SUB SWAP1 RETURN JUMPDEST CALLVALUE DUP1 ISZERO PUSH2 0x40D JUMPI PUSH1 0x0 DUP1 REVERT JUMPDEST POP PUSH2 0x428 PUSH1 0x4 DUP1 CALLDATASIZE SUB DUP2 ADD SWAP1 PUSH2 0x423 SWAP2 SWAP1 PUSH2 0x3CAA JUMP JUMPDEST PUSH2 0x17BC JUMP JUMPDEST PUSH1 0x40 MLOAD PUSH2 0x436 SWAP3 SWAP2 SWAP1 PUSH2 0x37D7 JUMP JUMPDEST PUSH1 0x40 MLOAD DUP1 SWAP2 SUB SWAP1 RETURN JUMPDEST CALLVALUE DUP1 ISZERO PUSH2 0x44B JUMPI PUSH1 0x0 DUP1 REVERT JUMPDEST POP PUSH2 0x454 PUSH2 0x1A20 JUMP JUMPDEST PUSH1 0x40 MLOAD PUSH2 0x461 SWAP2 SWAP1 PUSH2 0x3C8F JUMP JUMPDEST PUSH1 0x40 MLOAD DUP1 SWAP2 SUB SWAP1 RETURN JUMPDEST CALLVALUE DUP1 ISZERO PUSH2 0x476 JUMPI PUSH1 0x0 DUP1 REVERT JUMPDEST POP PUSH2 0x491 PUSH1 0x4 DUP1 CALLDATASIZE SUB DUP2 ADD SWAP1 PUSH2 0x48C SWAP2 SWAP1 PUSH2 0x3D4C JUMP JUMPDEST PUSH2 0x1A44 JUMP JUMPDEST PUSH1 0x40 MLOAD PUSH2 0x49F SWAP3 SWAP2 SWAP1 PUSH2 0x37D7 JUMP JUMPDEST PUSH1 0x40 MLOAD DUP1 SWAP2 SUB SWAP1 RETURN JUMPDEST CALLVALUE DUP1 ISZERO PUSH2 0x4B4 JUMPI PUSH1 0x0 DUP1 REVERT JUMPDEST POP PUSH2 0x4CF PUSH1 0x4 DUP1 CALLDATASIZE SUB DUP2 ADD SWAP1 PUSH2 0x4CA SWAP2 SWAP1 PUSH2 0x3B9C JUMP JUMPDEST PUSH2 0x1A81 JUMP JUMPDEST PUSH1 0x40 MLOAD PUSH2 0x4DC SWAP2 SWAP1 PUSH2 0x3A2B JUMP JUMPDEST PUSH1 0x40 MLOAD DUP1 SWAP2 SUB SWAP1 RETURN JUMPDEST CALLVALUE DUP1 ISZERO PUSH2 0x4F1 JUMPI PUSH1 0x0 DUP1 REVERT JUMPDEST POP PUSH2 0x50C PUSH1 0x4 DUP1 CALLDATASIZE SUB DUP2 ADD SWAP1 PUSH2 0x507 SWAP2 SWAP1 PUSH2 0x3D8C JUMP JUMPDEST PUSH2 0x1AB6 JUMP JUMPDEST PUSH1 0x40 MLOAD PUSH2 0x51B SWAP4 SWAP3 SWAP2 SWAP1 PUSH2 0x3E42 JUMP JUMPDEST PUSH1 0x40 MLOAD DUP1 SWAP2 SUB SWAP1 RETURN JUMPDEST CALLVALUE DUP1 ISZERO PUSH2 0x530 JUMPI PUSH1 0x0 DUP1 REVERT JUMPDEST POP PUSH2 0x54B PUSH1 0x4 DUP1 CALLDATASIZE SUB DUP2 ADD SWAP1 PUSH2 0x546 SWAP2 SWAP1 PUSH2 0x3E79 JUMP JUMPDEST PUSH2 0x1BEA JUMP JUMPDEST PUSH1 0x40 MLOAD PUSH2 0x558 SWAP2 SWAP1 PUSH2 0x3853 JUMP JUMPDEST PUSH1 0x40 MLOAD DUP1 SWAP2 SUB SWAP1 RETURN JUMPDEST PUSH2 0x57B PUSH1 0x4 DUP1 CALLDATASIZE SUB DUP2 ADD SWAP1 PUSH2 0x576 SWAP2 SWAP1 PUSH2 0x373B JUMP JUMPDEST PUSH2 0x1D0F JUMP JUMPDEST PUSH1 0x40 MLOAD PUSH2 0x58A SWAP4 SWAP3 SWAP2 SWAP1 PUSH2 0x3E42 JUMP JUMPDEST PUSH1 0x40 MLOAD DUP1 SWAP2 SUB SWAP1 RETURN JUMPDEST PUSH2 0x5AD PUSH1 0x4 DUP1 CALLDATASIZE SUB DUP2 ADD SWAP1 PUSH2 0x5A8 SWAP2 SWAP1 PUSH2 0x3BF8 JUMP JUMPDEST PUSH2 0x1FBF JUMP JUMPDEST PUSH1 0x40 MLOAD PUSH2 0x5BA SWAP2 SWAP1 PUSH2 0x3A2B JUMP JUMPDEST PUSH1 0x40 MLOAD DUP1 SWAP2 SUB SWAP1 RETURN JUMPDEST PUSH1 0x0 DUP1 DUP3 TIMESTAMP DUP2 LT ISZERO PUSH2 0x60A JUMPI PUSH1 0x40 MLOAD PUSH32 0x8C379A000000000000000000000000000000000000000000000000000000000 DUP2 MSTORE PUSH1 0x4 ADD PUSH2 0x601 SWAP1 PUSH2 0x3F29 JUMP JUMPDEST PUSH1 0x40 MLOAD DUP1 SWAP2 SUB SWAP1 REVERT JUMPDEST PUSH2 0x639 DUP10 PUSH32 0x0 DUP11 DUP11 DUP11 ADDRESS DUP11 PUSH2 0x17BC JUMP JUMPDEST DUP1 SWAP4 POP DUP2 SWAP5 POP POP POP PUSH2 0x64C DUP10 DUP7 DUP6 PUSH2 0x240D JUMP JUMPDEST PUSH32 0x0 PUSH20 0xFFFFFFFFFFFFFFFFFFFFFFFFFFFFFFFFFFFFFFFF AND PUSH4 0x2E1A7D4D DUP4 PUSH1 0x40 MLOAD DUP3 PUSH4 0xFFFFFFFF AND PUSH1 0xE0 SHL DUP2 MSTORE PUSH1 0x4 ADD PUSH2 0x6A5 SWAP2 SWAP1 PUSH2 0x3853 JUMP JUMPDEST PUSH1 0x0 PUSH1 0x40 MLOAD DUP1 DUP4 SUB DUP2 PUSH1 0x0 DUP8 DUP1 EXTCODESIZE ISZERO DUP1 ISZERO PUSH2 0x6BF JUMPI PUSH1 0x0 DUP1 REVERT JUMPDEST POP GAS CALL ISZERO DUP1 ISZERO PUSH2 0x6D3 JUMPI RETURNDATASIZE PUSH1 0x0 DUP1 RETURNDATACOPY RETURNDATASIZE PUSH1 0x0 REVERT JUMPDEST POP POP POP POP PUSH2 0x6E1 DUP6 DUP4 PUSH2 0x2543 JUMP JUMPDEST POP SWAP7 POP SWAP7 SWAP5 POP POP POP POP POP JUMP JUMPDEST PUSH1 0x0 PUSH2 0x6FA DUP5 DUP5 DUP5 PUSH2 0x2643 JUMP JUMPDEST SWAP1 POP SWAP4 SWAP3 POP POP POP JUMP JUMPDEST PUSH1 0x60 DUP2 TIMESTAMP DUP2 LT ISZERO PUSH2 0x749 JUMPI PUSH1 0x40 MLOAD PUSH32 0x8C379A000000000000000000000000000000000000000000000000000000000 DUP2 MSTORE PUSH1 0x4 ADD PUSH2 0x740 SWAP1 PUSH2 0x3F29 JUMP JUMPDEST PUSH1 0x40 MLOAD DUP1 SWAP2 SUB SWAP1 REVERT JUMPDEST PUSH32 0x0 PUSH20 0xFFFFFFFFFFFFFFFFFFFFFFFFFFFFFFFFFFFFFFFF AND DUP7 DUP7 PUSH1 0x1 DUP10 DUP10 SWAP1 POP PUSH2 0x792 SWAP2 SWAP1 PUSH2 0x3F78 JUMP JUMPDEST DUP2 DUP2 LT PUSH2 0x7A2 JUMPI PUSH2 0x7A1 PUSH2 0x3FAC JUMP JUMPDEST JUMPDEST SWAP1 POP PUSH1 0x20 MUL ADD PUSH1 0x20 DUP2 ADD SWAP1 PUSH2 0x7B7 SWAP2 SWAP1 PUSH2 0x3FDB JUMP JUMPDEST PUSH20 0xFFFFFFFFFFFFFFFFFFFFFFFFFFFFFFFFFFFFFFFF AND EQ PUSH2 0x80D JUMPI PUSH1 0x40 MLOAD PUSH32 0x8C379A000000000000000000000000000000000000000000000000000000000 DUP2 MSTORE PUSH1 0x4 ADD PUSH2 0x804 SWAP1 PUSH2 0x4054 JUMP JUMPDEST PUSH1 0x40 MLOAD DUP1 SWAP2 SUB SWAP1 REVERT JUMPDEST PUSH2 0x879 PUSH32 0x0 DUP10 DUP9 DUP9 DUP1 DUP1 PUSH1 0x20 MUL PUSH1 0x20 ADD PUSH1 0x40 MLOAD SWAP1 DUP2 ADD PUSH1 0x40 MSTORE DUP1 SWAP4 SWAP3 SWAP2 SWAP1 DUP2 DUP2 MSTORE PUSH1 0x20 ADD DUP4 DUP4 PUSH1 0x20 MUL DUP1 DUP3 DUP5 CALLDATACOPY PUSH1 0x0 DUP2 DUP5 ADD MSTORE PUSH1 0x1F NOT PUSH1 0x1F DUP3 ADD AND SWAP1 POP DUP1 DUP4 ADD SWAP3 POP POP POP POP POP POP POP PUSH2 0x2749 JUMP JUMPDEST SWAP2 POP DUP7 DUP3 PUSH1 0x1 DUP5 MLOAD PUSH2 0x88B SWAP2 SWAP1 PUSH2 0x3F78 JUMP JUMPDEST DUP2 MLOAD DUP2 LT PUSH2 0x89C JUMPI PUSH2 0x89B PUSH2 0x3FAC JUMP JUMPDEST JUMPDEST PUSH1 0x20 MUL PUSH1 0x20 ADD ADD MLOAD LT ISZERO PUSH2 0x8E5 JUMPI PUSH1 0x40 MLOAD PUSH32 0x8C379A000000000000000000000000000000000000000000000000000000000 DUP2 MSTORE PUSH1 0x4 ADD PUSH2 0x8DC SWAP1 PUSH2 0x40E6 JUMP JUMPDEST PUSH1 0x40 MLOAD DUP1 SWAP2 SUB SWAP1 REVERT JUMPDEST PUSH2 0x9AE DUP7 DUP7 PUSH1 0x0 DUP2 DUP2 LT PUSH2 0x8FC JUMPI PUSH2 0x8FB PUSH2 0x3FAC JUMP JUMPDEST JUMPDEST SWAP1 POP PUSH1 0x20 MUL ADD PUSH1 0x20 DUP2 ADD SWAP1 PUSH2 0x911 SWAP2 SWAP1 PUSH2 0x3FDB JUMP JUMPDEST CALLER PUSH2 0x98D PUSH32 0x0 DUP11 DUP11 PUSH1 0x0 DUP2 DUP2 LT PUSH2 0x94A JUMPI PUSH2 0x949 PUSH2 0x3FAC JUMP JUMPDEST JUMPDEST SWAP1 POP PUSH1 0x20 MUL ADD PUSH1 0x20 DUP2 ADD SWAP1 PUSH2 0x95F SWAP2 SWAP1 PUSH2 0x3FDB JUMP JUMPDEST DUP12 DUP12 PUSH1 0x1 DUP2 DUP2 LT PUSH2 0x973 JUMPI PUSH2 0x972 PUSH2 0x3FAC JUMP JUMPDEST JUMPDEST SWAP1 POP PUSH1 0x20 MUL ADD PUSH1 0x20 DUP2 ADD SWAP1 PUSH2 0x988 SWAP2 SWAP1 PUSH2 0x3FDB JUMP JUMPDEST PUSH2 0x28D4 JUMP JUMPDEST DUP6 PUSH1 0x0 DUP2 MLOAD DUP2 LT PUSH2 0x9A1 JUMPI PUSH2 0x9A0 PUSH2 0x3FAC JUMP JUMPDEST JUMPDEST PUSH1 0x20 MUL PUSH1 0x20 ADD ADD MLOAD PUSH2 0x296E JUMP JUMPDEST PUSH2 0x9FA DUP3 DUP8 DUP8 DUP1 DUP1 PUSH1 0x20 MUL PUSH1 0x20 ADD PUSH1 0x40 MLOAD SWAP1 DUP2 ADD PUSH1 0x40 MSTORE DUP1 SWAP4 SWAP3 SWAP2 SWAP1 DUP2 DUP2 MSTORE PUSH1 0x20 ADD DUP4 DUP4 PUSH1 0x20 MUL DUP1 DUP3 DUP5 CALLDATACOPY PUSH1 0x0 DUP2 DUP5 ADD MSTORE PUSH1 0x1F NOT PUSH1 0x1F DUP3 ADD AND SWAP1 POP DUP1 DUP4 ADD SWAP3 POP POP POP POP POP POP POP ADDRESS PUSH2 0x2AA7 JUMP JUMPDEST PUSH32 0x0 PUSH20 0xFFFFFFFFFFFFFFFFFFFFFFFFFFFFFFFFFFFFFFFF AND PUSH4 0x2E1A7D4D DUP4 PUSH1 0x1 DUP6 MLOAD PUSH2 0xA45 SWAP2 SWAP1 PUSH2 0x3F78 JUMP JUMPDEST DUP2 MLOAD DUP2 LT PUSH2 0xA56 JUMPI PUSH2 0xA55 PUSH2 0x3FAC JUMP JUMPDEST JUMPDEST PUSH1 0x20 MUL PUSH1 0x20 ADD ADD MLOAD PUSH1 0x40 MLOAD DUP3 PUSH4 0xFFFFFFFF AND PUSH1 0xE0 SHL DUP2 MSTORE PUSH1 0x4 ADD PUSH2 0xA7A SWAP2 SWAP1 PUSH2 0x3853 JUMP JUMPDEST PUSH1 0x0 PUSH1 0x40 MLOAD DUP1 DUP4 SUB DUP2 PUSH1 0x0 DUP8 DUP1 EXTCODESIZE ISZERO DUP1 ISZERO PUSH2 0xA94 JUMPI PUSH1 0x0 DUP1 REVERT JUMPDEST POP GAS CALL ISZERO DUP1 ISZERO PUSH2 0xAA8 JUMPI RETURNDATASIZE PUSH1 0x0 DUP1 RETURNDATACOPY RETURNDATASIZE PUSH1 0x0 REVERT JUMPDEST POP POP POP POP PUSH2 0xADD DUP5 DUP4 PUSH1 0x1 DUP6 MLOAD PUSH2 0xABF SWAP2 SWAP1 PUSH2 0x3F78 JUMP JUMPDEST DUP2 MLOAD DUP2 LT PUSH2 0xAD0 JUMPI PUSH2 0xACF PUSH2 0x3FAC JUMP JUMPDEST JUMPDEST PUSH1 0x20 MUL PUSH1 0x20 ADD ADD MLOAD PUSH2 0x2543 JUMP JUMPDEST POP SWAP7 SWAP6 POP POP POP POP POP POP JUMP JUMPDEST PUSH1 0x60 PUSH2 0xB15 PUSH32 0x0 DUP5 DUP5 PUSH2 0x2D00 JUMP JUMPDEST SWAP1 POP SWAP3 SWAP2 POP POP JUMP JUMPDEST PUSH1 0x60 DUP2 TIMESTAMP DUP2 LT ISZERO PUSH2 0xB63 JUMPI PUSH1 0x40 MLOAD PUSH32 0x8C379A000000000000000000000000000000000000000000000000000000000 DUP2 MSTORE PUSH1 0x4 ADD PUSH2 0xB5A SWAP1 PUSH2 0x3F29 JUMP JUMPDEST PUSH1 0x40 MLOAD DUP1 SWAP2 SUB SWAP1 REVERT JUMPDEST PUSH2 0xBCF PUSH32 0x0 DUP10 DUP9 DUP9 DUP1 DUP1 PUSH1 0x20 MUL PUSH1 0x20 ADD PUSH1 0x40 MLOAD SWAP1 DUP2 ADD PUSH1 0x40 MSTORE DUP1 SWAP4 SWAP3 SWAP2 SWAP1 DUP2 DUP2 MSTORE PUSH1 0x20 ADD DUP4 DUP4 PUSH1 0x20 MUL DUP1 DUP3 DUP5 CALLDATACOPY PUSH1 0x0 DUP2 DUP5 ADD MSTORE PUSH1 0x1F NOT PUSH1 0x1F DUP3 ADD AND SWAP1 POP DUP1 DUP4 ADD SWAP3 POP POP POP POP POP POP POP PUSH2 0x2749 JUMP JUMPDEST SWAP2 POP DUP7 DUP3 PUSH1 0x1 DUP5 MLOAD PUSH2 0xBE1 SWAP2 SWAP1 PUSH2 0x3F78 JUMP JUMPDEST DUP2 MLOAD DUP2 LT PUSH2 0xBF2 JUMPI PUSH2 0xBF1 PUSH2 0x3FAC JUMP JUMPDEST JUMPDEST PUSH1 0x20 MUL PUSH1 0x20 ADD ADD MLOAD LT ISZERO PUSH2 0xC3B JUMPI PUSH1 0x40 MLOAD PUSH32 0x8C379A000000000000000000000000000000000000000000000000000000000 DUP2 MSTORE PUSH1 0x4 ADD PUSH2 0xC32 SWAP1 PUSH2 0x40E6 JUMP JUMPDEST PUSH1 0x40 MLOAD DUP1 SWAP2 SUB SWAP1 REVERT JUMPDEST PUSH2 0xD04 DUP7 DUP7 PUSH1 0x0 DUP2 DUP2 LT PUSH2 0xC52 JUMPI PUSH2 0xC51 PUSH2 0x3FAC JUMP JUMPDEST JUMPDEST SWAP1 POP PUSH1 0x20 MUL ADD PUSH1 0x20 DUP2 ADD SWAP1 PUSH2 0xC67 SWAP2 SWAP1 PUSH2 0x3FDB JUMP JUMPDEST CALLER PUSH2 0xCE3 PUSH32 0x0 DUP11 DUP11 PUSH1 0x0 DUP2 DUP2 LT PUSH2 0xCA0 JUMPI PUSH2 0xC9F PUSH2 0x3FAC JUMP JUMPDEST JUMPDEST SWAP1 POP PUSH1 0x20 MUL ADD PUSH1 0x20 DUP2 ADD SWAP1 PUSH2 0xCB5 SWAP2 SWAP1 PUSH2 0x3FDB JUMP JUMPDEST DUP12 DUP12 PUSH1 0x1 DUP2 DUP2 LT PUSH2 0xCC9 JUMPI PUSH2 0xCC8 PUSH2 0x3FAC JUMP JUMPDEST JUMPDEST SWAP1 POP PUSH1 0x20 MUL ADD PUSH1 0x20 DUP2 ADD SWAP1 PUSH2 0xCDE SWAP2 SWAP1 PUSH2 0x3FDB JUMP JUMPDEST PUSH2 0x28D4 JUMP JUMPDEST DUP6 PUSH1 0x0 DUP2 MLOAD DUP2 LT PUSH2 0xCF7 JUMPI PUSH2 0xCF6 PUSH2 0x3FAC JUMP JUMPDEST JUMPDEST PUSH1 0x20 MUL PUSH1 0x20 ADD ADD MLOAD PUSH2 0x296E JUMP JUMPDEST PUSH2 0xD50 DUP3 DUP8 DUP8 DUP1 DUP1 PUSH1 0x20 MUL PUSH1 0x20 ADD PUSH1 0x40 MLOAD SWAP1 DUP2 ADD PUSH1 0x40 MSTORE DUP1 SWAP4 SWAP3 SWAP2 SWAP1 DUP2 DUP2 MSTORE PUSH1 0x20 ADD DUP4 DUP4 PUSH1 0x20 MUL DUP1 DUP3 DUP5 CALLDATACOPY PUSH1 0x0 DUP2 DUP5 ADD MSTORE PUSH1 0x1F NOT PUSH1 0x1F DUP3 ADD AND SWAP1 POP DUP1 DUP4 ADD SWAP3 POP POP POP POP POP POP POP DUP7 PUSH2 0x2AA7 JUMP JUMPDEST POP SWAP7 SWAP6 POP POP POP POP POP POP JUMP JUMPDEST PUSH1 0x60 DUP2 TIMESTAMP DUP2 LT ISZERO PUSH2 0xDA1 JUMPI PUSH1 0x40 MLOAD PUSH32 0x8C379A000000000000000000000000000000000000000000000000000000000 DUP2 MSTORE PUSH1 0x4 ADD PUSH2 0xD98 SWAP1 PUSH2 0x3F29 JUMP JUMPDEST PUSH1 0x40 MLOAD DUP1 SWAP2 SUB SWAP1 REVERT JUMPDEST PUSH32 0x0 PUSH20 0xFFFFFFFFFFFFFFFFFFFFFFFFFFFFFFFFFFFFFFFF AND DUP7 DUP7 PUSH1 0x1 DUP10 DUP10 SWAP1 POP PUSH2 0xDEA SWAP2 SWAP1 PUSH2 0x3F78 JUMP JUMPDEST DUP2 DUP2 LT PUSH2 0xDFA JUMPI PUSH2 0xDF9 PUSH2 0x3FAC JUMP JUMPDEST JUMPDEST SWAP1 POP PUSH1 0x20 MUL ADD PUSH1 0x20 DUP2 ADD SWAP1 PUSH2 0xE0F SWAP2 SWAP1 PUSH2 0x3FDB JUMP JUMPDEST PUSH20 0xFFFFFFFFFFFFFFFFFFFFFFFFFFFFFFFFFFFFFFFF AND EQ PUSH2 0xE65 JUMPI PUSH1 0x40 MLOAD PUSH32 0x8C379A000000000000000000000000000000000000000000000000000000000 DUP2 MSTORE PUSH1 0x4 ADD PUSH2 0xE5C SWAP1 PUSH2 0x4054 JUMP JUMPDEST PUSH1 0x40 MLOAD DUP1 SWAP2 SUB SWAP1 REVERT JUMPDEST PUSH2 0xED1 PUSH32 0x0 DUP10 DUP9 DUP9 DUP1 DUP1 PUSH1 0x20 MUL PUSH1 0x20 ADD PUSH1 0x40 MLOAD SWAP1 DUP2 ADD PUSH1 0x40 MSTORE DUP1 SWAP4 SWAP3 SWAP2 SWAP1 DUP2 DUP2 MSTORE PUSH1 0x20 ADD DUP4 DUP4 PUSH1 0x20 MUL DUP1 DUP3 DUP5 CALLDATACOPY PUSH1 0x0 DUP2 DUP5 ADD MSTORE PUSH1 0x1F NOT PUSH1 0x1F DUP3 ADD AND SWAP1 POP DUP1 DUP4 ADD SWAP3 POP POP POP POP POP POP POP PUSH2 0x2D00 JUMP JUMPDEST SWAP2 POP DUP7 DUP3 PUSH1 0x0 DUP2 MLOAD DUP2 LT PUSH2 0xEE8 JUMPI PUSH2 0xEE7 PUSH2 0x3FAC JUMP JUMPDEST JUMPDEST PUSH1 0x20 MUL PUSH1 0x20 ADD ADD MLOAD GT ISZERO PUSH2 0xF31 JUMPI PUSH1 0x40 MLOAD PUSH32 0x8C379A000000000000000000000000000000000000000000000000000000000 DUP2 MSTORE PUSH1 0x4 ADD PUSH2 0xF28 SWAP1 PUSH2 0x4152 JUMP JUMPDEST PUSH1 0x40 MLOAD DUP1 SWAP2 SUB SWAP1 REVERT JUMPDEST PUSH2 0xFFA DUP7 DUP7 PUSH1 0x0 DUP2 DUP2 LT PUSH2 0xF48 JUMPI PUSH2 0xF47 PUSH2 0x3FAC JUMP JUMPDEST JUMPDEST SWAP1 POP PUSH1 0x20 MUL ADD PUSH1 0x20 DUP2 ADD SWAP1 PUSH2 0xF5D SWAP2 SWAP1 PUSH2 0x3FDB JUMP JUMPDEST CALLER PUSH2 0xFD9 PUSH32 0x0 DUP11 DUP11 PUSH1 0x0 DUP2 DUP2 LT PUSH2 0xF96 JUMPI PUSH2 0xF95 PUSH2 0x3FAC JUMP JUMPDEST JUMPDEST SWAP1 POP PUSH1 0x20 MUL ADD PUSH1 0x20 DUP2 ADD SWAP1 PUSH2 0xFAB SWAP2 SWAP1 PUSH2 0x3FDB JUMP JUMPDEST DUP12 DUP12 PUSH1 0x1 DUP2 DUP2 LT PUSH2 0xFBF JUMPI PUSH2 0xFBE PUSH2 0x3FAC JUMP JUMPDEST JUMPDEST SWAP1 POP PUSH1 0x20 MUL ADD PUSH1 0x20 DUP2 ADD SWAP1 PUSH2 0xFD4 SWAP2 SWAP1 PUSH2 0x3FDB JUMP JUMPDEST PUSH2 0x28D4 JUMP JUMPDEST DUP6 PUSH1 0x0 DUP2 MLOAD DUP2 LT PUSH2 0xFED JUMPI PUSH2 0xFEC PUSH2 0x3FAC JUMP JUMPDEST JUMPDEST PUSH1 0x20 MUL PUSH1 0x20 ADD ADD MLOAD PUSH2 0x296E JUMP JUMPDEST PUSH2 0x1046 DUP3 DUP8 DUP8 DUP1 DUP1 PUSH1 0x20 MUL PUSH1 0x20 ADD PUSH1 0x40 MLOAD SWAP1 DUP2 ADD PUSH1 0x40 MSTORE DUP1 SWAP4 SWAP3 SWAP2 SWAP1 DUP2 DUP2 MSTORE PUSH1 0x20 ADD DUP4 DUP4 PUSH1 0x20 MUL DUP1 DUP3 DUP5 CALLDATACOPY PUSH1 0x0 DUP2 DUP5 ADD MSTORE PUSH1 0x1F NOT PUSH1 0x1F DUP3 ADD AND SWAP1 POP DUP1 DUP4 ADD SWAP3 POP POP POP POP POP POP POP ADDRESS PUSH2 0x2AA7 JUMP JUMPDEST PUSH32 0x0 PUSH20 0xFFFFFFFFFFFFFFFFFFFFFFFFFFFFFFFFFFFFFFFF AND PUSH4 0x2E1A7D4D DUP4 PUSH1 0x1 DUP6 MLOAD PUSH2 0x1091 SWAP2 SWAP1 PUSH2 0x3F78 JUMP JUMPDEST DUP2 MLOAD DUP2 LT PUSH2 0x10A2 JUMPI PUSH2 0x10A1 PUSH2 0x3FAC JUMP JUMPDEST JUMPDEST PUSH1 0x20 MUL PUSH1 0x20 ADD ADD MLOAD PUSH1 0x40 MLOAD DUP3 PUSH4 0xFFFFFFFF AND PUSH1 0xE0 SHL DUP2 MSTORE PUSH1 0x4 ADD PUSH2 0x10C6 SWAP2 SWAP1 PUSH2 0x3853 JUMP JUMPDEST PUSH1 0x0 PUSH1 0x40 MLOAD DUP1 DUP4 SUB DUP2 PUSH1 0x0 DUP8 DUP1 EXTCODESIZE ISZERO DUP1 ISZERO PUSH2 0x10E0 JUMPI PUSH1 0x0 DUP1 REVERT JUMPDEST POP GAS CALL ISZERO DUP1 ISZERO PUSH2 0x10F4 JUMPI RETURNDATASIZE PUSH1 0x0 DUP1 RETURNDATACOPY RETURNDATASIZE PUSH1 0x0 REVERT JUMPDEST POP POP POP POP PUSH2 0x1129 DUP5 DUP4 PUSH1 0x1 DUP6 MLOAD PUSH2 0x110B SWAP2 SWAP1 PUSH2 0x3F78 JUMP JUMPDEST DUP2 MLOAD DUP2 LT PUSH2 0x111C JUMPI PUSH2 0x111B PUSH2 0x3FAC JUMP JUMPDEST JUMPDEST PUSH1 0x20 MUL PUSH1 0x20 ADD ADD MLOAD PUSH2 0x2543 JUMP JUMPDEST POP SWAP7 SWAP6 POP POP POP POP POP POP JUMP JUMPDEST PUSH1 0x60 DUP2 TIMESTAMP DUP2 LT ISZERO PUSH2 0x117A JUMPI PUSH1 0x40 MLOAD PUSH32 0x8C379A000000000000000000000000000000000000000000000000000000000 DUP2 MSTORE PUSH1 0x4 ADD PUSH2 0x1171 SWAP1 PUSH2 0x3F29 JUMP JUMPDEST PUSH1 0x40 MLOAD DUP1 SWAP2 SUB SWAP1 REVERT JUMPDEST PUSH32 0x0 PUSH20 0xFFFFFFFFFFFFFFFFFFFFFFFFFFFFFFFFFFFFFFFF AND DUP7 DUP7 PUSH1 0x0 DUP2 DUP2 LT PUSH2 0x11C5 JUMPI PUSH2 0x11C4 PUSH2 0x3FAC JUMP JUMPDEST JUMPDEST SWAP1 POP PUSH1 0x20 MUL ADD PUSH1 0x20 DUP2 ADD SWAP1 PUSH2 0x11DA SWAP2 SWAP1 PUSH2 0x3FDB JUMP JUMPDEST PUSH20 0xFFFFFFFFFFFFFFFFFFFFFFFFFFFFFFFFFFFFFFFF AND EQ PUSH2 0x1230 JUMPI PUSH1 0x40 MLOAD PUSH32 0x8C379A000000000000000000000000000000000000000000000000000000000 DUP2 MSTORE PUSH1 0x4 ADD PUSH2 0x1227 SWAP1 PUSH2 0x4054 JUMP JUMPDEST PUSH1 0x40 MLOAD DUP1 SWAP2 SUB SWAP1 REVERT JUMPDEST PUSH2 0x129C PUSH32 0x0 CALLVALUE DUP9 DUP9 DUP1 DUP1 PUSH1 0x20 MUL PUSH1 0x20 ADD PUSH1 0x40 MLOAD SWAP1 DUP2 ADD PUSH1 0x40 MSTORE DUP1 SWAP4 SWAP3 SWAP2 SWAP1 DUP2 DUP2 MSTORE PUSH1 0x20 ADD DUP4 DUP4 PUSH1 0x20 MUL DUP1 DUP3 DUP5 CALLDATACOPY PUSH1 0x0 DUP2 DUP5 ADD MSTORE PUSH1 0x1F NOT PUSH1 0x1F DUP3 ADD AND SWAP1 POP DUP1 DUP4 ADD SWAP3 POP POP POP POP POP POP POP PUSH2 0x2749 JUMP JUMPDEST SWAP2 POP DUP7 DUP3 PUSH1 0x1 DUP5 MLOAD PUSH2 0x12AE SWAP2 SWAP1 PUSH2 0x3F78 JUMP JUMPDEST DUP2 MLOAD DUP2 LT PUSH2 0x12BF JUMPI PUSH2 0x12BE PUSH2 0x3FAC JUMP JUMPDEST JUMPDEST PUSH1 0x20 MUL PUSH1 0x20 ADD ADD MLOAD LT ISZERO PUSH2 0x1308 JUMPI PUSH1 0x40 MLOAD PUSH32 0x8C379A000000000000000000000000000000000000000000000000000000000 DUP2 MSTORE PUSH1 0x4 ADD PUSH2 0x12FF SWAP1 PUSH2 0x40E6 JUMP JUMPDEST PUSH1 0x40 MLOAD DUP1 SWAP2 SUB SWAP1 REVERT JUMPDEST PUSH32 0x0 PUSH20 0xFFFFFFFFFFFFFFFFFFFFFFFFFFFFFFFFFFFFFFFF AND PUSH4 0xD0E30DB0 DUP4 PUSH1 0x0 DUP2 MLOAD DUP2 LT PUSH2 0x1358 JUMPI PUSH2 0x1357 PUSH2 0x3FAC JUMP JUMPDEST JUMPDEST PUSH1 0x20 MUL PUSH1 0x20 ADD ADD MLOAD PUSH1 0x40 MLOAD DUP3 PUSH4 0xFFFFFFFF AND PUSH1 0xE0 SHL DUP2 MSTORE PUSH1 0x4 ADD PUSH1 0x0 PUSH1 0x40 MLOAD DUP1 DUP4 SUB DUP2 DUP6 DUP9 DUP1 EXTCODESIZE ISZERO DUP1 ISZERO PUSH2 0x138B JUMPI PUSH1 0x0 DUP1 REVERT JUMPDEST POP GAS CALL ISZERO DUP1 ISZERO PUSH2 0x139F JUMPI RETURNDATASIZE PUSH1 0x0 DUP1 RETURNDATACOPY RETURNDATASIZE PUSH1 0x0 REVERT JUMPDEST POP POP POP POP POP PUSH32 0x0 PUSH20 0xFFFFFFFFFFFFFFFFFFFFFFFFFFFFFFFFFFFFFFFF AND PUSH4 0xA9059CBB PUSH2 0x145B PUSH32 0x0 DUP10 DUP10 PUSH1 0x0 DUP2 DUP2 LT PUSH2 0x1418 JUMPI PUSH2 0x1417 PUSH2 0x3FAC JUMP JUMPDEST JUMPDEST SWAP1 POP PUSH1 0x20 MUL ADD PUSH1 0x20 DUP2 ADD SWAP1 PUSH2 0x142D SWAP2 SWAP1 PUSH2 0x3FDB JUMP JUMPDEST DUP11 DUP11 PUSH1 0x1 DUP2 DUP2 LT PUSH2 0x1441 JUMPI PUSH2 0x1440 PUSH2 0x3FAC JUMP JUMPDEST JUMPDEST SWAP1 POP PUSH1 0x20 MUL ADD PUSH1 0x20 DUP2 ADD SWAP1 PUSH2 0x1456 SWAP2 SWAP1 PUSH2 0x3FDB JUMP JUMPDEST PUSH2 0x28D4 JUMP JUMPDEST DUP5 PUSH1 0x0 DUP2 MLOAD DUP2 LT PUSH2 0x146F JUMPI PUSH2 0x146E PUSH2 0x3FAC JUMP JUMPDEST JUMPDEST PUSH1 0x20 MUL PUSH1 0x20 ADD ADD MLOAD PUSH1 0x40 MLOAD DUP4 PUSH4 0xFFFFFFFF AND PUSH1 0xE0 SHL DUP2 MSTORE PUSH1 0x4 ADD PUSH2 0x1494 SWAP3 SWAP2 SWAP1 PUSH2 0x4172 JUMP JUMPDEST PUSH1 0x20 PUSH1 0x40 MLOAD DUP1 DUP4 SUB DUP2 PUSH1 0x0 DUP8 GAS CALL ISZERO DUP1 ISZERO PUSH2 0x14B3 JUMPI RETURNDATASIZE PUSH1 0x0 DUP1 RETURNDATACOPY RETURNDATASIZE PUSH1 0x0 REVERT JUMPDEST POP POP POP POP PUSH1 0x40 MLOAD RETURNDATASIZE PUSH1 0x1F NOT PUSH1 0x1F DUP3 ADD AND DUP3 ADD DUP1 PUSH1 0x40 MSTORE POP DUP2 ADD SWAP1 PUSH2 0x14D7 SWAP2 SWAP1 PUSH2 0x41D3 JUMP JUMPDEST PUSH2 0x14E4 JUMPI PUSH2 0x14E3 PUSH2 0x3664 JUMP JUMPDEST JUMPDEST PUSH2 0x1530 DUP3 DUP8 DUP8 DUP1 DUP1 PUSH1 0x20 MUL PUSH1 0x20 ADD PUSH1 0x40 MLOAD SWAP1 DUP2 ADD PUSH1 0x40 MSTORE DUP1 SWAP4 SWAP3 SWAP2 SWAP1 DUP2 DUP2 MSTORE PUSH1 0x20 ADD DUP4 DUP4 PUSH1 0x20 MUL DUP1 DUP3 DUP5 CALLDATACOPY PUSH1 0x0 DUP2 DUP5 ADD MSTORE PUSH1 0x1F NOT PUSH1 0x1F DUP3 ADD AND SWAP1 POP DUP1 DUP4 ADD SWAP3 POP POP POP POP POP POP POP DUP7 PUSH2 0x2AA7 JUMP JUMPDEST POP SWAP6 SWAP5 POP POP POP POP POP JUMP JUMPDEST PUSH1 0x0 PUSH2 0x1547 DUP5 DUP5 DUP5 PUSH2 0x2E9B JUMP JUMPDEST SWAP1 POP SWAP4 SWAP3 POP POP POP JUMP JUMPDEST PUSH1 0x60 DUP2 TIMESTAMP DUP2 LT ISZERO PUSH2 0x1596 JUMPI PUSH1 0x40 MLOAD PUSH32 0x8C379A000000000000000000000000000000000000000000000000000000000 DUP2 MSTORE PUSH1 0x4 ADD PUSH2 0x158D SWAP1 PUSH2 0x3F29 JUMP JUMPDEST PUSH1 0x40 MLOAD DUP1 SWAP2 SUB SWAP1 REVERT JUMPDEST PUSH2 0x1602 PUSH32 0x0 DUP10 DUP9 DUP9 DUP1 DUP1 PUSH1 0x20 MUL PUSH1 0x20 ADD PUSH1 0x40 MLOAD SWAP1 DUP2 ADD PUSH1 0x40 MSTORE DUP1 SWAP4 SWAP3 SWAP2 SWAP1 DUP2 DUP2 MSTORE PUSH1 0x20 ADD DUP4 DUP4 PUSH1 0x20 MUL DUP1 DUP3 DUP5 CALLDATACOPY PUSH1 0x0 DUP2 DUP5 ADD MSTORE PUSH1 0x1F NOT PUSH1 0x1F DUP3 ADD AND SWAP1 POP DUP1 DUP4 ADD SWAP3 POP POP POP POP POP POP POP PUSH2 0x2D00 JUMP JUMPDEST SWAP2 POP DUP7 DUP3 PUSH1 0x0 DUP2 MLOAD DUP2 LT PUSH2 0x1619 JUMPI PUSH2 0x1618 PUSH2 0x3FAC JUMP JUMPDEST JUMPDEST PUSH1 0x20 MUL PUSH1 0x20 ADD ADD MLOAD GT ISZERO PUSH2 0x1662 JUMPI PUSH1 0x40 MLOAD PUSH32 0x8C379A000000000000000000000000000000000000000000000000000000000 DUP2 MSTORE PUSH1 0x4 ADD PUSH2 0x1659 SWAP1 PUSH2 0x4152 JUMP JUMPDEST PUSH1 0x40 MLOAD DUP1 SWAP2 SUB SWAP1 REVERT JUMPDEST PUSH2 0x172B DUP7 DUP7 PUSH1 0x0 DUP2 DUP2 LT PUSH2 0x1679 JUMPI PUSH2 0x1678 PUSH2 0x3FAC JUMP JUMPDEST JUMPDEST SWAP1 POP PUSH1 0x20 MUL ADD PUSH1 0x20 DUP2 ADD SWAP1 PUSH2 0x168E SWAP2 SWAP1 PUSH2 0x3FDB JUMP JUMPDEST CALLER PUSH2 0x170A PUSH32 0x0 DUP11 DUP11 PUSH1 0x0 DUP2 DUP2 LT PUSH2 0x16C7 JUMPI PUSH2 0x16C6 PUSH2 0x3FAC JUMP JUMPDEST JUMPDEST SWAP1 POP PUSH1 0x20 MUL ADD PUSH1 0x20 DUP2 ADD SWAP1 PUSH2 0x16DC SWAP2 SWAP1 PUSH2 0x3FDB JUMP JUMPDEST DUP12 DUP12 PUSH1 0x1 DUP2 DUP2 LT PUSH2 0x16F0 JUMPI PUSH2 0x16EF PUSH2 0x3FAC JUMP JUMPDEST JUMPDEST SWAP1 POP PUSH1 0x20 MUL ADD PUSH1 0x20 DUP2 ADD SWAP1 PUSH2 0x1705 SWAP2 SWAP1 PUSH2 0x3FDB JUMP JUMPDEST PUSH2 0x28D4 JUMP JUMPDEST DUP6 PUSH1 0x0 DUP2 MLOAD DUP2 LT PUSH2 0x171E JUMPI PUSH2 0x171D PUSH2 0x3FAC JUMP JUMPDEST JUMPDEST PUSH1 0x20 MUL PUSH1 0x20 ADD ADD MLOAD PUSH2 0x296E JUMP JUMPDEST PUSH2 0x1777 DUP3 DUP8 DUP8 DUP1 DUP1 PUSH1 0x20 MUL PUSH1 0x20 ADD PUSH1 0x40 MLOAD SWAP1 DUP2 ADD PUSH1 0x40 MSTORE DUP1 SWAP4 SWAP3 SWAP2 SWAP1 DUP2 DUP2 MSTORE PUSH1 0x20 ADD DUP4 DUP4 PUSH1 0x20 MUL DUP1 DUP3 DUP5 CALLDATACOPY PUSH1 0x0 DUP2 DUP5 ADD MSTORE PUSH1 0x1F NOT PUSH1 0x1F DUP3 ADD AND SWAP1 POP DUP1 DUP4 ADD SWAP3 POP POP POP POP POP POP POP DUP7 PUSH2 0x2AA7 JUMP JUMPDEST POP SWAP7 SWAP6 POP POP POP POP POP POP JUMP JUMPDEST PUSH32 0x0 DUP2 JUMP JUMPDEST PUSH1 0x0 PUSH2 0x17B3 DUP5 DUP5 DUP5 PUSH2 0x2FAE JUMP JUMPDEST SWAP1 POP SWAP4 SWAP3 POP POP POP JUMP JUMPDEST PUSH1 0x0 DUP1 DUP3 TIMESTAMP DUP2 LT ISZERO PUSH2 0x1803 JUMPI PUSH1 0x40 MLOAD PUSH32 0x8C379A000000000000000000000000000000000000000000000000000000000 DUP2 MSTORE PUSH1 0x4 ADD PUSH2 0x17FA SWAP1 PUSH2 0x3F29 JUMP JUMPDEST PUSH1 0x40 MLOAD DUP1 SWAP2 SUB SWAP1 REVERT JUMPDEST PUSH1 0x0 PUSH2 0x1830 PUSH32 0x0 DUP13 DUP13 PUSH2 0x28D4 JUMP JUMPDEST SWAP1 POP DUP1 PUSH20 0xFFFFFFFFFFFFFFFFFFFFFFFFFFFFFFFFFFFFFFFF AND PUSH4 0x23B872DD CALLER DUP4 DUP13 PUSH1 0x40 MLOAD DUP5 PUSH4 0xFFFFFFFF AND PUSH1 0xE0 SHL DUP2 MSTORE PUSH1 0x4 ADD PUSH2 0x186F SWAP4 SWAP3 SWAP2 SWAP1 PUSH2 0x4200 JUMP JUMPDEST PUSH1 0x20 PUSH1 0x40 MLOAD DUP1 DUP4 SUB DUP2 PUSH1 0x0 DUP8 GAS CALL ISZERO DUP1 ISZERO PUSH2 0x188E JUMPI RETURNDATASIZE PUSH1 0x0 DUP1 RETURNDATACOPY RETURNDATASIZE PUSH1 0x0 REVERT JUMPDEST POP POP POP POP PUSH1 0x40 MLOAD RETURNDATASIZE PUSH1 0x1F NOT PUSH1 0x1F DUP3 ADD AND DUP3 ADD DUP1 PUSH1 0x40 MSTORE POP DUP2 ADD SWAP1 PUSH2 0x18B2 SWAP2 SWAP1 PUSH2 0x41D3 JUMP JUMPDEST POP PUSH1 0x0 DUP1 DUP3 PUSH20 0xFFFFFFFFFFFFFFFFFFFFFFFFFFFFFFFFFFFFFFFF AND PUSH4 0x89AFCB44 DUP10 PUSH1 0x40 MLOAD DUP3 PUSH4 0xFFFFFFFF AND PUSH1 0xE0 SHL DUP2 MSTORE PUSH1 0x4 ADD PUSH2 0x18EF SWAP2 SWAP1 PUSH2 0x3C8F JUMP JUMPDEST PUSH1 0x40 DUP1 MLOAD DUP1 DUP4 SUB DUP2 PUSH1 0x0 DUP8 GAS CALL ISZERO DUP1 ISZERO PUSH2 0x190D JUMPI RETURNDATASIZE PUSH1 0x0 DUP1 RETURNDATACOPY RETURNDATASIZE PUSH1 0x0 REVERT JUMPDEST POP POP POP POP PUSH1 0x40 MLOAD RETURNDATASIZE PUSH1 0x1F NOT PUSH1 0x1F DUP3 ADD AND DUP3 ADD DUP1 PUSH1 0x40 MSTORE POP DUP2 ADD SWAP1 PUSH2 0x1931 SWAP2 SWAP1 PUSH2 0x424C JUMP JUMPDEST SWAP2 POP SWAP2 POP PUSH1 0x0 PUSH2 0x1941 DUP15 DUP15 PUSH2 0x3068 JUMP JUMPDEST POP SWAP1 POP DUP1 PUSH20 0xFFFFFFFFFFFFFFFFFFFFFFFFFFFFFFFFFFFFFFFF AND DUP15 PUSH20 0xFFFFFFFFFFFFFFFFFFFFFFFFFFFFFFFFFFFFFFFF AND EQ PUSH2 0x197E JUMPI DUP2 DUP4 PUSH2 0x1981 JUMP JUMPDEST DUP3 DUP3 JUMPDEST DUP1 SWAP8 POP DUP2 SWAP9 POP POP POP DUP11 DUP8 LT ISZERO PUSH2 0x19CC JUMPI PUSH1 0x40 MLOAD PUSH32 0x8C379A000000000000000000000000000000000000000000000000000000000 DUP2 MSTORE PUSH1 0x4 ADD PUSH2 0x19C3 SWAP1 PUSH2 0x42D8 JUMP JUMPDEST PUSH1 0x40 MLOAD DUP1 SWAP2 SUB SWAP1 REVERT JUMPDEST DUP10 DUP7 LT ISZERO PUSH2 0x1A0F JUMPI PUSH1 0x40 MLOAD PUSH32 0x8C379A000000000000000000000000000000000000000000000000000000000 DUP2 MSTORE PUSH1 0x4 ADD PUSH2 0x1A06 SWAP1 PUSH2 0x4344 JUMP JUMPDEST PUSH1 0x40 MLOAD DUP1 SWAP2 SUB SWAP1 REVERT JUMPDEST POP POP POP POP POP SWAP8 POP SWAP8 SWAP6 POP POP POP POP POP POP JUMP JUMPDEST PUSH32 0x0 DUP2 JUMP JUMPDEST PUSH1 0x0 DUP1 PUSH2 0x1A72 PUSH32 0x0 DUP6 DUP6 PUSH2 0x3194 JUMP JUMPDEST DUP1 SWAP3 POP DUP2 SWAP4 POP POP POP SWAP3 POP SWAP3 SWAP1 POP JUMP JUMPDEST PUSH1 0x60 PUSH2 0x1AAE PUSH32 0x0 DUP5 DUP5 PUSH2 0x2749 JUMP JUMPDEST SWAP1 POP SWAP3 SWAP2 POP POP JUMP JUMPDEST PUSH1 0x0 DUP1 PUSH1 0x0 DUP4 TIMESTAMP DUP2 LT ISZERO PUSH2 0x1AFF JUMPI PUSH1 0x40 MLOAD PUSH32 0x8C379A000000000000000000000000000000000000000000000000000000000 DUP2 MSTORE PUSH1 0x4 ADD PUSH2 0x1AF6 SWAP1 PUSH2 0x3F29 JUMP JUMPDEST PUSH1 0x40 MLOAD DUP1 SWAP2 SUB SWAP1 REVERT JUMPDEST PUSH2 0x1B0D DUP13 DUP13 DUP13 DUP13 DUP13 DUP13 PUSH2 0x3297 JUMP JUMPDEST DUP1 SWAP5 POP DUP2 SWAP6 POP POP POP PUSH1 0x0 PUSH2 0x1B42 PUSH32 0x0 DUP15 DUP15 PUSH2 0x28D4 JUMP JUMPDEST SWAP1 POP PUSH2 0x1B50 DUP14 CALLER DUP4 DUP9 PUSH2 0x296E JUMP JUMPDEST PUSH2 0x1B5C DUP13 CALLER DUP4 DUP8 PUSH2 0x296E JUMP JUMPDEST DUP1 PUSH20 0xFFFFFFFFFFFFFFFFFFFFFFFFFFFFFFFFFFFFFFFF AND PUSH4 0x6A627842 DUP9 PUSH1 0x40 MLOAD DUP3 PUSH4 0xFFFFFFFF AND PUSH1 0xE0 SHL DUP2 MSTORE PUSH1 0x4 ADD PUSH2 0x1B95 SWAP2 SWAP1 PUSH2 0x3C8F JUMP JUMPDEST PUSH1 0x20 PUSH1 0x40 MLOAD DUP1 DUP4 SUB DUP2 PUSH1 0x0 DUP8 GAS CALL ISZERO DUP1 ISZERO PUSH2 0x1BB4 JUMPI RETURNDATASIZE PUSH1 0x0 DUP1 RETURNDATACOPY RETURNDATASIZE PUSH1 0x0 REVERT JUMPDEST POP POP POP POP PUSH1 0x40 MLOAD RETURNDATASIZE PUSH1 0x1F NOT PUSH1 0x1F DUP3 ADD AND DUP3 ADD DUP1 PUSH1 0x40 MSTORE POP DUP2 ADD SWAP1 PUSH2 0x1BD8 SWAP2 SWAP1 PUSH2 0x4364 JUMP JUMPDEST SWAP3 POP POP POP SWAP9 POP SWAP9 POP SWAP9 SWAP6 POP POP POP POP POP POP JUMP JUMPDEST PUSH1 0x0 DUP1 PUSH32 0x0 PUSH20 0xFFFFFFFFFFFFFFFFFFFFFFFFFFFFFFFFFFFFFFFF AND PUSH4 0xE6A43905 DUP6 DUP6 PUSH1 0x40 MLOAD DUP4 PUSH4 0xFFFFFFFF AND PUSH1 0xE0 SHL DUP2 MSTORE PUSH1 0x4 ADD PUSH2 0x1C48 SWAP3 SWAP2 SWAP1 PUSH2 0x4391 JUMP JUMPDEST PUSH1 0x20 PUSH1 0x40 MLOAD DUP1 DUP4 SUB DUP2 DUP7 GAS STATICCALL ISZERO DUP1 ISZERO PUSH2 0x1C65 JUMPI RETURNDATASIZE PUSH1 0x0 DUP1 RETURNDATACOPY RETURNDATASIZE PUSH1 0x0 REVERT JUMPDEST POP POP POP POP PUSH1 0x40 MLOAD RETURNDATASIZE PUSH1 0x1F NOT PUSH1 0x1F DUP3 ADD AND DUP3 ADD DUP1 PUSH1 0x40 MSTORE POP DUP2 ADD SWAP1 PUSH2 0x1C89 SWAP2 SWAP1 PUSH2 0x43CF JUMP JUMPDEST SWAP1 POP DUP1 PUSH20 0xFFFFFFFFFFFFFFFFFFFFFFFFFFFFFFFFFFFFFFFF AND PUSH4 0x70A08231 DUP7 PUSH1 0x40 MLOAD DUP3 PUSH4 0xFFFFFFFF AND PUSH1 0xE0 SHL DUP2 MSTORE PUSH1 0x4 ADD PUSH2 0x1CC4 SWAP2 SWAP1 PUSH2 0x3C8F JUMP JUMPDEST PUSH1 0x20 PUSH1 0x40 MLOAD DUP1 DUP4 SUB DUP2 DUP7 GAS STATICCALL ISZERO DUP1 ISZERO PUSH2 0x1CE1 JUMPI RETURNDATASIZE PUSH1 0x0 DUP1 RETURNDATACOPY RETURNDATASIZE PUSH1 0x0 REVERT JUMPDEST POP POP POP POP PUSH1 0x40 MLOAD RETURNDATASIZE PUSH1 0x1F NOT PUSH1 0x1F DUP3 ADD AND DUP3 ADD DUP1 PUSH1 0x40 MSTORE POP DUP2 ADD SWAP1 PUSH2 0x1D05 SWAP2 SWAP1 PUSH2 0x4364 JUMP JUMPDEST SWAP2 POP POP SWAP4 SWAP3 POP POP POP JUMP JUMPDEST PUSH1 0x0 DUP1 PUSH1 0x0 DUP4 TIMESTAMP DUP2 LT ISZERO PUSH2 0x1D58 JUMPI PUSH1 0x40 MLOAD PUSH32 0x8C379A000000000000000000000000000000000000000000000000000000000 DUP2 MSTORE PUSH1 0x4 ADD PUSH2 0x1D4F SWAP1 PUSH2 0x3F29 JUMP JUMPDEST PUSH1 0x40 MLOAD DUP1 SWAP2 SUB SWAP1 REVERT JUMPDEST PUSH2 0x1D86 DUP11 PUSH32 0x0 DUP12 CALLVALUE DUP13 DUP13 PUSH2 0x3297 JUMP JUMPDEST DUP1 SWAP5 POP DUP2 SWAP6 POP POP POP PUSH1 0x0 PUSH2 0x1DDB PUSH32 0x0 DUP13 PUSH32 0x0 PUSH2 0x28D4 JUMP JUMPDEST SWAP1 POP PUSH2 0x1DE9 DUP12 CALLER DUP4 DUP9 PUSH2 0x296E JUMP JUMPDEST PUSH32 0x0 PUSH20 0xFFFFFFFFFFFFFFFFFFFFFFFFFFFFFFFFFFFFFFFF AND PUSH4 0xD0E30DB0 DUP6 PUSH1 0x40 MLOAD DUP3 PUSH4 0xFFFFFFFF AND PUSH1 0xE0 SHL DUP2 MSTORE PUSH1 0x4 ADD PUSH1 0x0 PUSH1 0x40 MLOAD DUP1 DUP4 SUB DUP2 DUP6 DUP9 DUP1 EXTCODESIZE ISZERO DUP1 ISZERO PUSH2 0x1E51 JUMPI PUSH1 0x0 DUP1 REVERT JUMPDEST POP GAS CALL ISZERO DUP1 ISZERO PUSH2 0x1E65 JUMPI RETURNDATASIZE PUSH1 0x0 DUP1 RETURNDATACOPY RETURNDATASIZE PUSH1 0x0 REVERT JUMPDEST POP POP POP POP POP PUSH32 0x0 PUSH20 0xFFFFFFFFFFFFFFFFFFFFFFFFFFFFFFFFFFFFFFFF AND PUSH4 0xA9059CBB DUP3 DUP7 PUSH1 0x40 MLOAD DUP4 PUSH4 0xFFFFFFFF AND PUSH1 0xE0 SHL DUP2 MSTORE PUSH1 0x4 ADD PUSH2 0x1EC5 SWAP3 SWAP2 SWAP1 PUSH2 0x4172 JUMP JUMPDEST PUSH1 0x20 PUSH1 0x40 MLOAD DUP1 DUP4 SUB DUP2 PUSH1 0x0 DUP8 GAS CALL ISZERO DUP1 ISZERO PUSH2 0x1EE4 JUMPI RETURNDATASIZE PUSH1 0x0 DUP1 RETURNDATACOPY RETURNDATASIZE PUSH1 0x0 REVERT JUMPDEST POP POP POP POP PUSH1 0x40 MLOAD RETURNDATASIZE PUSH1 0x1F NOT PUSH1 0x1F DUP3 ADD AND DUP3 ADD DUP1 PUSH1 0x40 MSTORE POP DUP2 ADD SWAP1 PUSH2 0x1F08 SWAP2 SWAP1 PUSH2 0x41D3 JUMP JUMPDEST PUSH2 0x1F15 JUMPI PUSH2 0x1F14 PUSH2 0x3664 JUMP JUMPDEST JUMPDEST DUP1 PUSH20 0xFFFFFFFFFFFFFFFFFFFFFFFFFFFFFFFFFFFFFFFF AND PUSH4 0x6A627842 DUP9 PUSH1 0x40 MLOAD DUP3 PUSH4 0xFFFFFFFF AND PUSH1 0xE0 SHL DUP2 MSTORE PUSH1 0x4 ADD PUSH2 0x1F4E SWAP2 SWAP1 PUSH2 0x3C8F JUMP JUMPDEST PUSH1 0x20 PUSH1 0x40 MLOAD DUP1 DUP4 SUB DUP2 PUSH1 0x0 DUP8 GAS CALL ISZERO DUP1 ISZERO PUSH2 0x1F6D JUMPI RETURNDATASIZE PUSH1 0x0 DUP1 RETURNDATACOPY RETURNDATASIZE PUSH1 0x0 REVERT JUMPDEST POP POP POP POP PUSH1 0x40 MLOAD RETURNDATASIZE PUSH1 0x1F NOT PUSH1 0x1F DUP3 ADD AND DUP3 ADD DUP1 PUSH1 0x40 MSTORE POP DUP2 ADD SWAP1 PUSH2 0x1F91 SWAP2 SWAP1 PUSH2 0x4364 JUMP JUMPDEST SWAP3 POP DUP4 CALLVALUE GT ISZERO PUSH2 0x1FB1 JUMPI PUSH2 0x1FB0 CALLER DUP6 CALLVALUE PUSH2 0x1FAB SWAP2 SWAP1 PUSH2 0x3F78 JUMP JUMPDEST PUSH2 0x2543 JUMP JUMPDEST JUMPDEST POP POP SWAP7 POP SWAP7 POP SWAP7 SWAP4 POP POP POP POP JUMP JUMPDEST PUSH1 0x60 DUP2 TIMESTAMP DUP2 LT ISZERO PUSH2 0x2005 JUMPI PUSH1 0x40 MLOAD PUSH32 0x8C379A000000000000000000000000000000000000000000000000000000000 DUP2 MSTORE PUSH1 0x4 ADD PUSH2 0x1FFC SWAP1 PUSH2 0x3F29 JUMP JUMPDEST PUSH1 0x40 MLOAD DUP1 SWAP2 SUB SWAP1 REVERT JUMPDEST PUSH32 0x0 PUSH20 0xFFFFFFFFFFFFFFFFFFFFFFFFFFFFFFFFFFFFFFFF AND DUP7 DUP7 PUSH1 0x0 DUP2 DUP2 LT PUSH2 0x2050 JUMPI PUSH2 0x204F PUSH2 0x3FAC JUMP JUMPDEST JUMPDEST SWAP1 POP PUSH1 0x20 MUL ADD PUSH1 0x20 DUP2 ADD SWAP1 PUSH2 0x2065 SWAP2 SWAP1 PUSH2 0x3FDB JUMP JUMPDEST PUSH20 0xFFFFFFFFFFFFFFFFFFFFFFFFFFFFFFFFFFFFFFFF AND EQ PUSH2 0x20BB JUMPI PUSH1 0x40 MLOAD PUSH32 0x8C379A000000000000000000000000000000000000000000000000000000000 DUP2 MSTORE PUSH1 0x4 ADD PUSH2 0x20B2 SWAP1 PUSH2 0x4054 JUMP JUMPDEST PUSH1 0x40 MLOAD DUP1 SWAP2 SUB SWAP1 REVERT JUMPDEST PUSH2 0x2127 PUSH32 0x0 DUP9 DUP9 DUP9 DUP1 DUP1 PUSH1 0x20 MUL PUSH1 0x20 ADD PUSH1 0x40 MLOAD SWAP1 DUP2 ADD PUSH1 0x40 MSTORE DUP1 SWAP4 SWAP3 SWAP2 SWAP1 DUP2 DUP2 MSTORE PUSH1 0x20 ADD DUP4 DUP4 PUSH1 0x20 MUL DUP1 DUP3 DUP5 CALLDATACOPY PUSH1 0x0 DUP2 DUP5 ADD MSTORE PUSH1 0x1F NOT PUSH1 0x1F DUP3 ADD AND SWAP1 POP DUP1 DUP4 ADD SWAP3 POP POP POP POP POP POP POP PUSH2 0x2D00 JUMP JUMPDEST SWAP2 POP CALLVALUE DUP3 PUSH1 0x0 DUP2 MLOAD DUP2 LT PUSH2 0x213E JUMPI PUSH2 0x213D PUSH2 0x3FAC JUMP JUMPDEST JUMPDEST PUSH1 0x20 MUL PUSH1 0x20 ADD ADD MLOAD GT ISZERO PUSH2 0x2187 JUMPI PUSH1 0x40 MLOAD PUSH32 0x8C379A000000000000000000000000000000000000000000000000000000000 DUP2 MSTORE PUSH1 0x4 ADD PUSH2 0x217E SWAP1 PUSH2 0x4152 JUMP JUMPDEST PUSH1 0x40 MLOAD DUP1 SWAP2 SUB SWAP1 REVERT JUMPDEST PUSH32 0x0 PUSH20 0xFFFFFFFFFFFFFFFFFFFFFFFFFFFFFFFFFFFFFFFF AND PUSH4 0xD0E30DB0 DUP4 PUSH1 0x0 DUP2 MLOAD DUP2 LT PUSH2 0x21D7 JUMPI PUSH2 0x21D6 PUSH2 0x3FAC JUMP JUMPDEST JUMPDEST PUSH1 0x20 MUL PUSH1 0x20 ADD ADD MLOAD PUSH1 0x40 MLOAD DUP3 PUSH4 0xFFFFFFFF AND PUSH1 0xE0 SHL DUP2 MSTORE PUSH1 0x4 ADD PUSH1 0x0 PUSH1 0x40 MLOAD DUP1 DUP4 SUB DUP2 DUP6 DUP9 DUP1 EXTCODESIZE ISZERO DUP1 ISZERO PUSH2 0x220A JUMPI PUSH1 0x0 DUP1 REVERT JUMPDEST POP GAS CALL ISZERO DUP1 ISZERO PUSH2 0x221E JUMPI RETURNDATASIZE PUSH1 0x0 DUP1 RETURNDATACOPY RETURNDATASIZE PUSH1 0x0 REVERT JUMPDEST POP POP POP POP POP PUSH32 0x0 PUSH20 0xFFFFFFFFFFFFFFFFFFFFFFFFFFFFFFFFFFFFFFFF AND PUSH4 0xA9059CBB PUSH2 0x22DA PUSH32 0x0 DUP10 DUP10 PUSH1 0x0 DUP2 DUP2 LT PUSH2 0x2297 JUMPI PUSH2 0x2296 PUSH2 0x3FAC JUMP JUMPDEST JUMPDEST SWAP1 POP PUSH1 0x20 MUL ADD PUSH1 0x20 DUP2 ADD SWAP1 PUSH2 0x22AC SWAP2 SWAP1 PUSH2 0x3FDB JUMP JUMPDEST DUP11 DUP11 PUSH1 0x1 DUP2 DUP2 LT PUSH2 0x22C0 JUMPI PUSH2 0x22BF PUSH2 0x3FAC JUMP JUMPDEST JUMPDEST SWAP1 POP PUSH1 0x20 MUL ADD PUSH1 0x20 DUP2 ADD SWAP1 PUSH2 0x22D5 SWAP2 SWAP1 PUSH2 0x3FDB JUMP JUMPDEST PUSH2 0x28D4 JUMP JUMPDEST DUP5 PUSH1 0x0 DUP2 MLOAD DUP2 LT PUSH2 0x22EE JUMPI PUSH2 0x22ED PUSH2 0x3FAC JUMP JUMPDEST JUMPDEST PUSH1 0x20 MUL PUSH1 0x20 ADD ADD MLOAD PUSH1 0x40 MLOAD DUP4 PUSH4 0xFFFFFFFF AND PUSH1 0xE0 SHL DUP2 MSTORE PUSH1 0x4 ADD PUSH2 0x2313 SWAP3 SWAP2 SWAP1 PUSH2 0x4172 JUMP JUMPDEST PUSH1 0x20 PUSH1 0x40 MLOAD DUP1 DUP4 SUB DUP2 PUSH1 0x0 DUP8 GAS CALL ISZERO DUP1 ISZERO PUSH2 0x2332 JUMPI RETURNDATASIZE PUSH1 0x0 DUP1 RETURNDATACOPY RETURNDATASIZE PUSH1 0x0 REVERT JUMPDEST POP POP POP POP PUSH1 0x40 MLOAD RETURNDATASIZE PUSH1 0x1F NOT PUSH1 0x1F DUP3 ADD AND DUP3 ADD DUP1 PUSH1 0x40 MSTORE POP DUP2 ADD SWAP1 PUSH2 0x2356 SWAP2 SWAP1 PUSH2 0x41D3 JUMP JUMPDEST PUSH2 0x2363 JUMPI PUSH2 0x2362 PUSH2 0x3664 JUMP JUMPDEST JUMPDEST PUSH2 0x23AF DUP3 DUP8 DUP8 DUP1 DUP1 PUSH1 0x20 MUL PUSH1 0x20 ADD PUSH1 0x40 MLOAD SWAP1 DUP2 ADD PUSH1 0x40 MSTORE DUP1 SWAP4 SWAP3 SWAP2 SWAP1 DUP2 DUP2 MSTORE PUSH1 0x20 ADD DUP4 DUP4 PUSH1 0x20 MUL DUP1 DUP3 DUP5 CALLDATACOPY PUSH1 0x0 DUP2 DUP5 ADD MSTORE PUSH1 0x1F NOT PUSH1 0x1F DUP3 ADD AND SWAP1 POP DUP1 DUP4 ADD SWAP3 POP POP POP POP POP POP POP DUP7 PUSH2 0x2AA7 JUMP JUMPDEST DUP2 PUSH1 0x0 DUP2 MLOAD DUP2 LT PUSH2 0x23C3 JUMPI PUSH2 0x23C2 PUSH2 0x3FAC JUMP JUMPDEST JUMPDEST PUSH1 0x20 MUL PUSH1 0x20 ADD ADD MLOAD CALLVALUE GT ISZERO PUSH2 0x2403 JUMPI PUSH2 0x2402 CALLER DUP4 PUSH1 0x0 DUP2 MLOAD DUP2 LT PUSH2 0x23EA JUMPI PUSH2 0x23E9 PUSH2 0x3FAC JUMP JUMPDEST JUMPDEST PUSH1 0x20 MUL PUSH1 0x20 ADD ADD MLOAD CALLVALUE PUSH2 0x23FD SWAP2 SWAP1 PUSH2 0x3F78 JUMP JUMPDEST PUSH2 0x2543 JUMP JUMPDEST JUMPDEST POP SWAP6 SWAP5 POP POP POP POP POP JUMP JUMPDEST PUSH1 0x0 DUP1 DUP5 PUSH20 0xFFFFFFFFFFFFFFFFFFFFFFFFFFFFFFFFFFFFFFFF AND PUSH4 0xA9059CBB DUP6 DUP6 PUSH1 0x40 MLOAD PUSH1 0x24 ADD PUSH2 0x243F SWAP3 SWAP2 SWAP1 PUSH2 0x4172 JUMP JUMPDEST PUSH1 0x40 MLOAD PUSH1 0x20 DUP2 DUP4 SUB SUB DUP2 MSTORE SWAP1 PUSH1 0x40 MSTORE SWAP1 PUSH1 0xE0 SHL PUSH1 0x20 DUP3 ADD DUP1 MLOAD PUSH28 0xFFFFFFFFFFFFFFFFFFFFFFFFFFFFFFFFFFFFFFFFFFFFFFFFFFFFFFFF DUP4 DUP2 DUP4 AND OR DUP4 MSTORE POP POP POP POP PUSH1 0x40 MLOAD PUSH2 0x248D SWAP2 SWAP1 PUSH2 0x446D JUMP JUMPDEST PUSH1 0x0 PUSH1 0x40 MLOAD DUP1 DUP4 SUB DUP2 PUSH1 0x0 DUP7 GAS CALL SWAP2 POP POP RETURNDATASIZE DUP1 PUSH1 0x0 DUP2 EQ PUSH2 0x24CA JUMPI PUSH1 0x40 MLOAD SWAP2 POP PUSH1 0x1F NOT PUSH1 0x3F RETURNDATASIZE ADD AND DUP3 ADD PUSH1 0x40 MSTORE RETURNDATASIZE DUP3 MSTORE RETURNDATASIZE PUSH1 0x0 PUSH1 0x20 DUP5 ADD RETURNDATACOPY PUSH2 0x24CF JUMP JUMPDEST PUSH1 0x60 SWAP2 POP JUMPDEST POP SWAP2 POP SWAP2 POP DUP2 DUP1 ISZERO PUSH2 0x24FD JUMPI POP PUSH1 0x0 DUP2 MLOAD EQ DUP1 PUSH2 0x24FC JUMPI POP DUP1 DUP1 PUSH1 0x20 ADD SWAP1 MLOAD DUP2 ADD SWAP1 PUSH2 0x24FB SWAP2 SWAP1 PUSH2 0x41D3 JUMP JUMPDEST JUMPDEST JUMPDEST PUSH2 0x253C JUMPI PUSH1 0x40 MLOAD PUSH32 0x8C379A000000000000000000000000000000000000000000000000000000000 DUP2 MSTORE PUSH1 0x4 ADD PUSH2 0x2533 SWAP1 PUSH2 0x44F6 JUMP JUMPDEST PUSH1 0x40 MLOAD DUP1 SWAP2 SUB SWAP1 REVERT JUMPDEST POP POP POP POP POP JUMP JUMPDEST PUSH1 0x0 DUP3 PUSH20 0xFFFFFFFFFFFFFFFFFFFFFFFFFFFFFFFFFFFFFFFF AND DUP3 PUSH1 0x0 PUSH8 0xFFFFFFFFFFFFFFFF DUP2 GT ISZERO PUSH2 0x2578 JUMPI PUSH2 0x2577 PUSH2 0x3A5E JUMP JUMPDEST JUMPDEST PUSH1 0x40 MLOAD SWAP1 DUP1 DUP3 MSTORE DUP1 PUSH1 0x1F ADD PUSH1 0x1F NOT AND PUSH1 0x20 ADD DUP3 ADD PUSH1 0x40 MSTORE DUP1 ISZERO PUSH2 0x25AA JUMPI DUP2 PUSH1 0x20 ADD PUSH1 0x1 DUP3 MUL DUP1 CALLDATASIZE DUP4 CALLDATACOPY DUP1 DUP3 ADD SWAP2 POP POP SWAP1 POP JUMPDEST POP PUSH1 0x40 MLOAD PUSH2 0x25B8 SWAP2 SWAP1 PUSH2 0x446D JUMP JUMPDEST PUSH1 0x0 PUSH1 0x40 MLOAD DUP1 DUP4 SUB DUP2 DUP6 DUP8 GAS CALL SWAP3 POP POP POP RETURNDATASIZE DUP1 PUSH1 0x0 DUP2 EQ PUSH2 0x25F5 JUMPI PUSH1 0x40 MLOAD SWAP2 POP PUSH1 0x1F NOT PUSH1 0x3F RETURNDATASIZE ADD AND DUP3 ADD PUSH1 0x40 MSTORE RETURNDATASIZE DUP3 MSTORE RETURNDATASIZE PUSH1 0x0 PUSH1 0x20 DUP5 ADD RETURNDATACOPY PUSH2 0x25FA JUMP JUMPDEST PUSH1 0x60 SWAP2 POP JUMPDEST POP POP SWAP1 POP DUP1 PUSH2 0x263E JUMPI PUSH1 0x40 MLOAD PUSH32 0x8C379A000000000000000000000000000000000000000000000000000000000 DUP2 MSTORE PUSH1 0x4 ADD PUSH2 0x2635 SWAP1 PUSH2 0x4588 JUMP JUMPDEST PUSH1 0x40 MLOAD DUP1 SWAP2 SUB SWAP1 REVERT JUMPDEST POP POP POP JUMP JUMPDEST PUSH1 0x0 DUP1 DUP5 GT PUSH2 0x2687 JUMPI PUSH1 0x40 MLOAD PUSH32 0x8C379A000000000000000000000000000000000000000000000000000000000 DUP2 MSTORE PUSH1 0x4 ADD PUSH2 0x267E SWAP1 PUSH2 0x461A JUMP JUMPDEST PUSH1 0x40 MLOAD DUP1 SWAP2 SUB SWAP1 REVERT JUMPDEST PUSH1 0x0 DUP4 GT DUP1 ISZERO PUSH2 0x2697 JUMPI POP PUSH1 0x0 DUP3 GT JUMPDEST PUSH2 0x26D6 JUMPI PUSH1 0x40 MLOAD PUSH32 0x8C379A000000000000000000000000000000000000000000000000000000000 DUP2 MSTORE PUSH1 0x4 ADD PUSH2 0x26CD SWAP1 PUSH2 0x4686 JUMP JUMPDEST PUSH1 0x40 MLOAD DUP1 SWAP2 SUB SWAP1 REVERT JUMPDEST PUSH1 0x0 PUSH2 0x26ED PUSH2 0x3E5 DUP7 PUSH2 0x3545 SWAP1 SWAP2 SWAP1 PUSH4 0xFFFFFFFF AND JUMP JUMPDEST SWAP1 POP PUSH1 0x0 PUSH2 0x2704 DUP5 DUP4 PUSH2 0x3545 SWAP1 SWAP2 SWAP1 PUSH4 0xFFFFFFFF AND JUMP JUMPDEST SWAP1 POP PUSH1 0x0 PUSH2 0x272F DUP4 PUSH2 0x2721 PUSH2 0x3E8 DUP10 PUSH2 0x3545 SWAP1 SWAP2 SWAP1 PUSH4 0xFFFFFFFF AND JUMP JUMPDEST PUSH2 0x35B2 SWAP1 SWAP2 SWAP1 PUSH4 0xFFFFFFFF AND JUMP JUMPDEST SWAP1 POP DUP1 DUP3 PUSH2 0x273D SWAP2 SWAP1 PUSH2 0x46D5 JUMP JUMPDEST SWAP4 POP POP POP POP SWAP4 SWAP3 POP POP POP JUMP JUMPDEST PUSH1 0x60 PUSH1 0x2 DUP3 MLOAD LT ISZERO PUSH2 0x2790 JUMPI PUSH1 0x40 MLOAD PUSH32 0x8C379A000000000000000000000000000000000000000000000000000000000 DUP2 MSTORE PUSH1 0x4 ADD PUSH2 0x2787 SWAP1 PUSH2 0x4752 JUMP JUMPDEST PUSH1 0x40 MLOAD DUP1 SWAP2 SUB SWAP1 REVERT JUMPDEST DUP2 MLOAD PUSH8 0xFFFFFFFFFFFFFFFF DUP2 GT ISZERO PUSH2 0x27AB JUMPI PUSH2 0x27AA PUSH2 0x3A5E JUMP JUMPDEST JUMPDEST PUSH1 0x40 MLOAD SWAP1 DUP1 DUP3 MSTORE DUP1 PUSH1 0x20 MUL PUSH1 0x20 ADD DUP3 ADD PUSH1 0x40 MSTORE DUP1 ISZERO PUSH2 0x27D9 JUMPI DUP2 PUSH1 0x20 ADD PUSH1 0x20 DUP3 MUL DUP1 CALLDATASIZE DUP4 CALLDATACOPY DUP1 DUP3 ADD SWAP2 POP POP SWAP1 POP JUMPDEST POP SWAP1 POP DUP3 DUP2 PUSH1 0x0 DUP2 MLOAD DUP2 LT PUSH2 0x27F1 JUMPI PUSH2 0x27F0 PUSH2 0x3FAC JUMP JUMPDEST JUMPDEST PUSH1 0x20 MUL PUSH1 0x20 ADD ADD DUP2 DUP2 MSTORE POP POP PUSH1 0x0 JUMPDEST PUSH1 0x1 DUP4 MLOAD PUSH2 0x280E SWAP2 SWAP1 PUSH2 0x3F78 JUMP JUMPDEST DUP2 LT ISZERO PUSH2 0x28CC JUMPI PUSH1 0x0 DUP1 PUSH2 0x2863 DUP8 DUP7 DUP6 DUP2 MLOAD DUP2 LT PUSH2 0x282F JUMPI PUSH2 0x282E PUSH2 0x3FAC JUMP JUMPDEST JUMPDEST PUSH1 0x20 MUL PUSH1 0x20 ADD ADD MLOAD DUP8 PUSH1 0x1 DUP8 PUSH2 0x2845 SWAP2 SWAP1 PUSH2 0x4772 JUMP JUMPDEST DUP2 MLOAD DUP2 LT PUSH2 0x2856 JUMPI PUSH2 0x2855 PUSH2 0x3FAC JUMP JUMPDEST JUMPDEST PUSH1 0x20 MUL PUSH1 0x20 ADD ADD MLOAD PUSH2 0x3194 JUMP JUMPDEST SWAP2 POP SWAP2 POP PUSH2 0x288C DUP5 DUP5 DUP2 MLOAD DUP2 LT PUSH2 0x287D JUMPI PUSH2 0x287C PUSH2 0x3FAC JUMP JUMPDEST JUMPDEST PUSH1 0x20 MUL PUSH1 0x20 ADD ADD MLOAD DUP4 DUP4 PUSH2 0x2643 JUMP JUMPDEST DUP5 PUSH1 0x1 DUP6 PUSH2 0x289A SWAP2 SWAP1 PUSH2 0x4772 JUMP JUMPDEST DUP2 MLOAD DUP2 LT PUSH2 0x28AB JUMPI PUSH2 0x28AA PUSH2 0x3FAC JUMP JUMPDEST JUMPDEST PUSH1 0x20 MUL PUSH1 0x20 ADD ADD DUP2 DUP2 MSTORE POP POP POP POP DUP1 DUP1 PUSH2 0x28C4 SWAP1 PUSH2 0x47A6 JUMP JUMPDEST SWAP2 POP POP PUSH2 0x2800 JUMP JUMPDEST POP SWAP4 SWAP3 POP POP POP JUMP JUMPDEST PUSH1 0x0 DUP1 PUSH1 0x0 PUSH2 0x28E3 DUP6 DUP6 PUSH2 0x3068 JUMP JUMPDEST SWAP2 POP SWAP2 POP DUP6 PUSH20 0xFFFFFFFFFFFFFFFFFFFFFFFFFFFFFFFFFFFFFFFF AND PUSH4 0xE6A43905 DUP4 DUP4 PUSH1 0x40 MLOAD DUP4 PUSH4 0xFFFFFFFF AND PUSH1 0xE0 SHL DUP2 MSTORE PUSH1 0x4 ADD PUSH2 0x2922 SWAP3 SWAP2 SWAP1 PUSH2 0x4391 JUMP JUMPDEST PUSH1 0x20 PUSH1 0x40 MLOAD DUP1 DUP4 SUB DUP2 DUP7 GAS STATICCALL ISZERO DUP1 ISZERO PUSH2 0x293F JUMPI RETURNDATASIZE PUSH1 0x0 DUP1 RETURNDATACOPY RETURNDATASIZE PUSH1 0x0 REVERT JUMPDEST POP POP POP POP PUSH1 0x40 MLOAD RETURNDATASIZE PUSH1 0x1F NOT PUSH1 0x1F DUP3 ADD AND DUP3 ADD DUP1 PUSH1 0x40 MSTORE POP DUP2 ADD SWAP1 PUSH2 0x2963 SWAP2 SWAP1 PUSH2 0x43CF JUMP JUMPDEST SWAP3 POP POP POP SWAP4 SWAP3 POP POP POP JUMP JUMPDEST PUSH1 0x0 DUP1 DUP6 PUSH20 0xFFFFFFFFFFFFFFFFFFFFFFFFFFFFFFFFFFFFFFFF AND PUSH4 0x23B872DD DUP7 DUP7 DUP7 PUSH1 0x40 MLOAD PUSH1 0x24 ADD PUSH2 0x29A2 SWAP4 SWAP3 SWAP2 SWAP1 PUSH2 0x4200 JUMP JUMPDEST PUSH1 0x40 MLOAD PUSH1 0x20 DUP2 DUP4 SUB SUB DUP2 MSTORE SWAP1 PUSH1 0x40 MSTORE SWAP1 PUSH1 0xE0 SHL PUSH1 0x20 DUP3 ADD DUP1 MLOAD PUSH28 0xFFFFFFFFFFFFFFFFFFFFFFFFFFFFFFFFFFFFFFFFFFFFFFFFFFFFFFFF DUP4 DUP2 DUP4 AND OR DUP4 MSTORE POP POP POP POP PUSH1 0x40 MLOAD PUSH2 0x29F0 SWAP2 SWAP1 PUSH2 0x446D JUMP JUMPDEST PUSH1 0x0 PUSH1 0x40 MLOAD DUP1 DUP4 SUB DUP2 PUSH1 0x0 DUP7 GAS CALL SWAP2 POP POP RETURNDATASIZE DUP1 PUSH1 0x0 DUP2 EQ PUSH2 0x2A2D JUMPI PUSH1 0x40 MLOAD SWAP2 POP PUSH1 0x1F NOT PUSH1 0x3F RETURNDATASIZE ADD AND DUP3 ADD PUSH1 0x40 MSTORE RETURNDATASIZE DUP3 MSTORE RETURNDATASIZE PUSH1 0x0 PUSH1 0x20 DUP5 ADD RETURNDATACOPY PUSH2 0x2A32 JUMP JUMPDEST PUSH1 0x60 SWAP2 POP JUMPDEST POP SWAP2 POP SWAP2 POP DUP2 DUP1 ISZERO PUSH2 0x2A60 JUMPI POP PUSH1 0x0 DUP2 MLOAD EQ DUP1 PUSH2 0x2A5F JUMPI POP DUP1 DUP1 PUSH1 0x20 ADD SWAP1 MLOAD DUP2 ADD SWAP1 PUSH2 0x2A5E SWAP2 SWAP1 PUSH2 0x41D3 JUMP JUMPDEST JUMPDEST JUMPDEST PUSH2 0x2A9F JUMPI PUSH1 0x40 MLOAD PUSH32 0x8C379A000000000000000000000000000000000000000000000000000000000 DUP2 MSTORE PUSH1 0x4 ADD PUSH2 0x2A96 SWAP1 PUSH2 0x4860 JUMP JUMPDEST PUSH1 0x40 MLOAD DUP1 SWAP2 SUB SWAP1 REVERT JUMPDEST POP POP POP POP POP POP JUMP JUMPDEST PUSH1 0x0 JUMPDEST PUSH1 0x1 DUP4 MLOAD PUSH2 0x2AB8 SWAP2 SWAP1 PUSH2 0x3F78 JUMP JUMPDEST DUP2 LT ISZERO PUSH2 0x2CFA JUMPI PUSH1 0x0 DUP1 DUP5 DUP4 DUP2 MLOAD DUP2 LT PUSH2 0x2AD5 JUMPI PUSH2 0x2AD4 PUSH2 0x3FAC JUMP JUMPDEST JUMPDEST PUSH1 0x20 MUL PUSH1 0x20 ADD ADD MLOAD DUP6 PUSH1 0x1 DUP6 PUSH2 0x2AEB SWAP2 SWAP1 PUSH2 0x4772 JUMP JUMPDEST DUP2 MLOAD DUP2 LT PUSH2 0x2AFC JUMPI PUSH2 0x2AFB PUSH2 0x3FAC JUMP JUMPDEST JUMPDEST PUSH1 0x20 MUL PUSH1 0x20 ADD ADD MLOAD SWAP2 POP SWAP2 POP PUSH1 0x0 PUSH2 0x2B14 DUP4 DUP4 PUSH2 0x3068 JUMP JUMPDEST POP SWAP1 POP PUSH1 0x0 DUP8 PUSH1 0x1 DUP7 PUSH2 0x2B27 SWAP2 SWAP1 PUSH2 0x4772 JUMP JUMPDEST DUP2 MLOAD DUP2 LT PUSH2 0x2B38 JUMPI PUSH2 0x2B37 PUSH2 0x3FAC JUMP JUMPDEST JUMPDEST PUSH1 0x20 MUL PUSH1 0x20 ADD ADD MLOAD SWAP1 POP PUSH1 0x0 DUP1 DUP4 PUSH20 0xFFFFFFFFFFFFFFFFFFFFFFFFFFFFFFFFFFFFFFFF AND DUP7 PUSH20 0xFFFFFFFFFFFFFFFFFFFFFFFFFFFFFFFFFFFFFFFF AND EQ PUSH2 0x2B80 JUMPI DUP3 PUSH1 0x0 PUSH2 0x2B84 JUMP JUMPDEST PUSH1 0x0 DUP4 JUMPDEST SWAP2 POP SWAP2 POP PUSH1 0x0 PUSH1 0x2 DUP11 MLOAD PUSH2 0x2B98 SWAP2 SWAP1 PUSH2 0x3F78 JUMP JUMPDEST DUP9 LT PUSH2 0x2BA4 JUMPI DUP9 PUSH2 0x2BF6 JUMP JUMPDEST PUSH2 0x2BF5 PUSH32 0x0 DUP8 DUP13 PUSH1 0x2 DUP13 PUSH2 0x2BD7 SWAP2 SWAP1 PUSH2 0x4772 JUMP JUMPDEST DUP2 MLOAD DUP2 LT PUSH2 0x2BE8 JUMPI PUSH2 0x2BE7 PUSH2 0x3FAC JUMP JUMPDEST JUMPDEST PUSH1 0x20 MUL PUSH1 0x20 ADD ADD MLOAD PUSH2 0x28D4 JUMP JUMPDEST JUMPDEST SWAP1 POP PUSH2 0x2C23 PUSH32 0x0 DUP9 DUP9 PUSH2 0x28D4 JUMP JUMPDEST PUSH20 0xFFFFFFFFFFFFFFFFFFFFFFFFFFFFFFFFFFFFFFFF AND PUSH4 0x22C0D9F DUP5 DUP5 DUP5 PUSH1 0x0 PUSH8 0xFFFFFFFFFFFFFFFF DUP2 GT ISZERO PUSH2 0x2C5C JUMPI PUSH2 0x2C5B PUSH2 0x3A5E JUMP JUMPDEST JUMPDEST PUSH1 0x40 MLOAD SWAP1 DUP1 DUP3 MSTORE DUP1 PUSH1 0x1F ADD PUSH1 0x1F NOT AND PUSH1 0x20 ADD DUP3 ADD PUSH1 0x40 MSTORE DUP1 ISZERO PUSH2 0x2C8E JUMPI DUP2 PUSH1 0x20 ADD PUSH1 0x1 DUP3 MUL DUP1 CALLDATASIZE DUP4 CALLDATACOPY DUP1 DUP3 ADD SWAP2 POP POP SWAP1 POP JUMPDEST POP PUSH1 0x40 MLOAD DUP6 PUSH4 0xFFFFFFFF AND PUSH1 0xE0 SHL DUP2 MSTORE PUSH1 0x4 ADD PUSH2 0x2CAE SWAP5 SWAP4 SWAP3 SWAP2 SWAP1 PUSH2 0x48CA JUMP JUMPDEST PUSH1 0x0 PUSH1 0x40 MLOAD DUP1 DUP4 SUB DUP2 PUSH1 0x0 DUP8 DUP1 EXTCODESIZE ISZERO DUP1 ISZERO PUSH2 0x2CC8 JUMPI PUSH1 0x0 DUP1 REVERT JUMPDEST POP GAS CALL ISZERO DUP1 ISZERO PUSH2 0x2CDC JUMPI RETURNDATASIZE PUSH1 0x0 DUP1 RETURNDATACOPY RETURNDATASIZE PUSH1 0x0 REVERT JUMPDEST POP POP POP POP POP POP POP POP POP POP POP DUP1 DUP1 PUSH2 0x2CF2 SWAP1 PUSH2 0x47A6 JUMP JUMPDEST SWAP2 POP POP PUSH2 0x2AAA JUMP JUMPDEST POP POP POP POP JUMP JUMPDEST PUSH1 0x60 PUSH1 0x2 DUP3 MLOAD LT ISZERO PUSH2 0x2D47 JUMPI PUSH1 0x40 MLOAD PUSH32 0x8C379A000000000000000000000000000000000000000000000000000000000 DUP2 MSTORE PUSH1 0x4 ADD PUSH2 0x2D3E SWAP1 PUSH2 0x4752 JUMP JUMPDEST PUSH1 0x40 MLOAD DUP1 SWAP2 SUB SWAP1 REVERT JUMPDEST DUP2 MLOAD PUSH8 0xFFFFFFFFFFFFFFFF DUP2 GT ISZERO PUSH2 0x2D62 JUMPI PUSH2 0x2D61 PUSH2 0x3A5E JUMP JUMPDEST JUMPDEST PUSH1 0x40 MLOAD SWAP1 DUP1 DUP3 MSTORE DUP1 PUSH1 0x20 MUL PUSH1 0x20 ADD DUP3 ADD PUSH1 0x40 MSTORE DUP1 ISZERO PUSH2 0x2D90 JUMPI DUP2 PUSH1 0x20 ADD PUSH1 0x20 DUP3 MUL DUP1 CALLDATASIZE DUP4 CALLDATACOPY DUP1 DUP3 ADD SWAP2 POP POP SWAP1 POP JUMPDEST POP SWAP1 POP DUP3 DUP2 PUSH1 0x1 DUP4 MLOAD PUSH2 0x2DA3 SWAP2 SWAP1 PUSH2 0x3F78 JUMP JUMPDEST DUP2 MLOAD DUP2 LT PUSH2 0x2DB4 JUMPI PUSH2 0x2DB3 PUSH2 0x3FAC JUMP JUMPDEST JUMPDEST PUSH1 0x20 MUL PUSH1 0x20 ADD ADD DUP2 DUP2 MSTORE POP POP PUSH1 0x0 PUSH1 0x1 DUP4 MLOAD PUSH2 0x2DD0 SWAP2 SWAP1 PUSH2 0x3F78 JUMP JUMPDEST SWAP1 POP JUMPDEST PUSH1 0x0 DUP2 GT ISZERO PUSH2 0x2E93 JUMPI PUSH1 0x0 DUP1 PUSH2 0x2E2A DUP8 DUP7 PUSH1 0x1 DUP7 PUSH2 0x2DF1 SWAP2 SWAP1 PUSH2 0x3F78 JUMP JUMPDEST DUP2 MLOAD DUP2 LT PUSH2 0x2E02 JUMPI PUSH2 0x2E01 PUSH2 0x3FAC JUMP JUMPDEST JUMPDEST PUSH1 0x20 MUL PUSH1 0x20 ADD ADD MLOAD DUP8 DUP7 DUP2 MLOAD DUP2 LT PUSH2 0x2E1D JUMPI PUSH2 0x2E1C PUSH2 0x3FAC JUMP JUMPDEST JUMPDEST PUSH1 0x20 MUL PUSH1 0x20 ADD ADD MLOAD PUSH2 0x3194 JUMP JUMPDEST SWAP2 POP SWAP2 POP PUSH2 0x2E53 DUP5 DUP5 DUP2 MLOAD DUP2 LT PUSH2 0x2E44 JUMPI PUSH2 0x2E43 PUSH2 0x3FAC JUMP JUMPDEST JUMPDEST PUSH1 0x20 MUL PUSH1 0x20 ADD ADD MLOAD DUP4 DUP4 PUSH2 0x2E9B JUMP JUMPDEST DUP5 PUSH1 0x1 DUP6 PUSH2 0x2E61 SWAP2 SWAP1 PUSH2 0x3F78 JUMP JUMPDEST DUP2 MLOAD DUP2 LT PUSH2 0x2E72 JUMPI PUSH2 0x2E71 PUSH2 0x3FAC JUMP JUMPDEST JUMPDEST PUSH1 0x20 MUL PUSH1 0x20 ADD ADD DUP2 DUP2 MSTORE POP POP POP POP DUP1 DUP1 PUSH2 0x2E8B SWAP1 PUSH2 0x4916 JUMP JUMPDEST SWAP2 POP POP PUSH2 0x2DD3 JUMP JUMPDEST POP SWAP4 SWAP3 POP POP POP JUMP JUMPDEST PUSH1 0x0 DUP1 DUP5 GT PUSH2 0x2EDF JUMPI PUSH1 0x40 MLOAD PUSH32 0x8C379A000000000000000000000000000000000000000000000000000000000 DUP2 MSTORE PUSH1 0x4 ADD PUSH2 0x2ED6 SWAP1 PUSH2 0x49B1 JUMP JUMPDEST PUSH1 0x40 MLOAD DUP1 SWAP2 SUB SWAP1 REVERT JUMPDEST PUSH1 0x0 DUP4 GT DUP1 ISZERO PUSH2 0x2EEF JUMPI POP PUSH1 0x0 DUP3 GT JUMPDEST PUSH2 0x2F2E JUMPI PUSH1 0x40 MLOAD PUSH32 0x8C379A000000000000000000000000000000000000000000000000000000000 DUP2 MSTORE PUSH1 0x4 ADD PUSH2 0x2F25 SWAP1 PUSH2 0x4686 JUMP JUMPDEST PUSH1 0x40 MLOAD DUP1 SWAP2 SUB SWAP1 REVERT JUMPDEST PUSH1 0x0 PUSH2 0x2F57 PUSH2 0x3E8 PUSH2 0x2F49 DUP8 DUP8 PUSH2 0x3545 SWAP1 SWAP2 SWAP1 PUSH4 0xFFFFFFFF AND JUMP JUMPDEST PUSH2 0x3545 SWAP1 SWAP2 SWAP1 PUSH4 0xFFFFFFFF AND JUMP JUMPDEST SWAP1 POP PUSH1 0x0 PUSH2 0x2F82 PUSH2 0x3E5 PUSH2 0x2F74 DUP9 DUP8 PUSH2 0x360B SWAP1 SWAP2 SWAP1 PUSH4 0xFFFFFFFF AND JUMP JUMPDEST PUSH2 0x3545 SWAP1 SWAP2 SWAP1 PUSH4 0xFFFFFFFF AND JUMP JUMPDEST SWAP1 POP PUSH2 0x2FA3 PUSH1 0x1 DUP3 DUP5 PUSH2 0x2F95 SWAP2 SWAP1 PUSH2 0x46D5 JUMP JUMPDEST PUSH2 0x35B2 SWAP1 SWAP2 SWAP1 PUSH4 0xFFFFFFFF AND JUMP JUMPDEST SWAP3 POP POP POP SWAP4 SWAP3 POP POP POP JUMP JUMPDEST PUSH1 0x0 DUP1 DUP5 GT PUSH2 0x2FF2 JUMPI PUSH1 0x40 MLOAD PUSH32 0x8C379A000000000000000000000000000000000000000000000000000000000 DUP2 MSTORE PUSH1 0x4 ADD PUSH2 0x2FE9 SWAP1 PUSH2 0x4A1D JUMP JUMPDEST PUSH1 0x40 MLOAD DUP1 SWAP2 SUB SWAP1 REVERT JUMPDEST PUSH1 0x0 DUP4 GT DUP1 ISZERO PUSH2 0x3002 JUMPI POP PUSH1 0x0 DUP3 GT JUMPDEST PUSH2 0x3041 JUMPI PUSH1 0x40 MLOAD PUSH32 0x8C379A000000000000000000000000000000000000000000000000000000000 DUP2 MSTORE PUSH1 0x4 ADD PUSH2 0x3038 SWAP1 PUSH2 0x4686 JUMP JUMPDEST PUSH1 0x40 MLOAD DUP1 SWAP2 SUB SWAP1 REVERT JUMPDEST DUP3 PUSH2 0x3055 DUP4 DUP7 PUSH2 0x3545 SWAP1 SWAP2 SWAP1 PUSH4 0xFFFFFFFF AND JUMP JUMPDEST PUSH2 0x305F SWAP2 SWAP1 PUSH2 0x46D5 JUMP JUMPDEST SWAP1 POP SWAP4 SWAP3 POP POP POP JUMP JUMPDEST PUSH1 0x0 DUP1 DUP3 PUSH20 0xFFFFFFFFFFFFFFFFFFFFFFFFFFFFFFFFFFFFFFFF AND DUP5 PUSH20 0xFFFFFFFFFFFFFFFFFFFFFFFFFFFFFFFFFFFFFFFF AND SUB PUSH2 0x30D9 JUMPI PUSH1 0x40 MLOAD PUSH32 0x8C379A000000000000000000000000000000000000000000000000000000000 DUP2 MSTORE PUSH1 0x4 ADD PUSH2 0x30D0 SWAP1 PUSH2 0x4A89 JUMP JUMPDEST PUSH1 0x40 MLOAD DUP1 SWAP2 SUB SWAP1 REVERT JUMPDEST DUP3 PUSH20 0xFFFFFFFFFFFFFFFFFFFFFFFFFFFFFFFFFFFFFFFF AND DUP5 PUSH20 0xFFFFFFFFFFFFFFFFFFFFFFFFFFFFFFFFFFFFFFFF AND LT PUSH2 0x3113 JUMPI DUP3 DUP5 PUSH2 0x3116 JUMP JUMPDEST DUP4 DUP4 JUMPDEST DUP1 SWAP3 POP DUP2 SWAP4 POP POP POP PUSH1 0x0 PUSH20 0xFFFFFFFFFFFFFFFFFFFFFFFFFFFFFFFFFFFFFFFF AND DUP3 PUSH20 0xFFFFFFFFFFFFFFFFFFFFFFFFFFFFFFFFFFFFFFFF AND SUB PUSH2 0x318D JUMPI PUSH1 0x40 MLOAD PUSH32 0x8C379A000000000000000000000000000000000000000000000000000000000 DUP2 MSTORE PUSH1 0x4 ADD PUSH2 0x3184 SWAP1 PUSH2 0x4AF5 JUMP JUMPDEST PUSH1 0x40 MLOAD DUP1 SWAP2 SUB SWAP1 REVERT JUMPDEST SWAP3 POP SWAP3 SWAP1 POP JUMP JUMPDEST PUSH1 0x0 DUP1 PUSH1 0x0 PUSH2 0x31A3 DUP6 DUP6 PUSH2 0x3068 JUMP JUMPDEST POP SWAP1 POP PUSH1 0x0 DUP1 PUSH2 0x31B4 DUP9 DUP9 DUP9 PUSH2 0x28D4 JUMP JUMPDEST PUSH20 0xFFFFFFFFFFFFFFFFFFFFFFFFFFFFFFFFFFFFFFFF AND PUSH4 0x902F1AC PUSH1 0x40 MLOAD DUP2 PUSH4 0xFFFFFFFF AND PUSH1 0xE0 SHL DUP2 MSTORE PUSH1 0x4 ADD PUSH1 0x60 PUSH1 0x40 MLOAD DUP1 DUP4 SUB DUP2 DUP7 GAS STATICCALL ISZERO DUP1 ISZERO PUSH2 0x31FE JUMPI RETURNDATASIZE PUSH1 0x0 DUP1 RETURNDATACOPY RETURNDATASIZE PUSH1 0x0 REVERT JUMPDEST POP POP POP POP PUSH1 0x40 MLOAD RETURNDATASIZE PUSH1 0x1F NOT PUSH1 0x1F DUP3 ADD AND DUP3 ADD DUP1 PUSH1 0x40 MSTORE POP DUP2 ADD SWAP1 PUSH2 0x3222 SWAP2 SWAP1 PUSH2 0x4B97 JUMP JUMPDEST POP PUSH14 0xFFFFFFFFFFFFFFFFFFFFFFFFFFFF AND SWAP2 POP PUSH14 0xFFFFFFFFFFFFFFFFFFFFFFFFFFFF AND SWAP2 POP DUP3 PUSH20 0xFFFFFFFFFFFFFFFFFFFFFFFFFFFFFFFFFFFFFFFF AND DUP8 PUSH20 0xFFFFFFFFFFFFFFFFFFFFFFFFFFFFFFFFFFFFFFFF AND EQ PUSH2 0x3281 JUMPI DUP1 DUP3 PUSH2 0x3284 JUMP JUMPDEST DUP2 DUP2 JUMPDEST DUP1 SWAP6 POP DUP2 SWAP7 POP POP POP POP POP POP SWAP4 POP SWAP4 SWAP2 POP POP JUMP JUMPDEST PUSH1 0x0 DUP1 PUSH1 0x0 PUSH20 0xFFFFFFFFFFFFFFFFFFFFFFFFFFFFFFFFFFFFFFFF AND PUSH32 0x0 PUSH20 0xFFFFFFFFFFFFFFFFFFFFFFFFFFFFFFFFFFFFFFFF AND PUSH4 0xE6A43905 DUP11 DUP11 PUSH1 0x40 MLOAD DUP4 PUSH4 0xFFFFFFFF AND PUSH1 0xE0 SHL DUP2 MSTORE PUSH1 0x4 ADD PUSH2 0x330D SWAP3 SWAP2 SWAP1 PUSH2 0x4391 JUMP JUMPDEST PUSH1 0x20 PUSH1 0x40 MLOAD DUP1 DUP4 SUB DUP2 DUP7 GAS STATICCALL ISZERO DUP1 ISZERO PUSH2 0x332A JUMPI RETURNDATASIZE PUSH1 0x0 DUP1 RETURNDATACOPY RETURNDATASIZE PUSH1 0x0 REVERT JUMPDEST POP POP POP POP PUSH1 0x40 MLOAD RETURNDATASIZE PUSH1 0x1F NOT PUSH1 0x1F DUP3 ADD AND DUP3 ADD DUP1 PUSH1 0x40 MSTORE POP DUP2 ADD SWAP1 PUSH2 0x334E SWAP2 SWAP1 PUSH2 0x43CF JUMP JUMPDEST PUSH20 0xFFFFFFFFFFFFFFFFFFFFFFFFFFFFFFFFFFFFFFFF AND SUB PUSH2 0x3409 JUMPI PUSH32 0x0 PUSH20 0xFFFFFFFFFFFFFFFFFFFFFFFFFFFFFFFFFFFFFFFF AND PUSH4 0xC9C65396 DUP10 DUP10 PUSH1 0x40 MLOAD DUP4 PUSH4 0xFFFFFFFF AND PUSH1 0xE0 SHL DUP2 MSTORE PUSH1 0x4 ADD PUSH2 0x33C4 SWAP3 SWAP2 SWAP1 PUSH2 0x4391 JUMP JUMPDEST PUSH1 0x20 PUSH1 0x40 MLOAD DUP1 DUP4 SUB DUP2 PUSH1 0x0 DUP8 GAS CALL ISZERO DUP1 ISZERO PUSH2 0x33E3 JUMPI RETURNDATASIZE PUSH1 0x0 DUP1 RETURNDATACOPY RETURNDATASIZE PUSH1 0x0 REVERT JUMPDEST POP POP POP POP PUSH1 0x40 MLOAD RETURNDATASIZE PUSH1 0x1F NOT PUSH1 0x1F DUP3 ADD AND DUP3 ADD DUP1 PUSH1 0x40 MSTORE POP DUP2 ADD SWAP1 PUSH2 0x3407 SWAP2 SWAP1 PUSH2 0x43CF JUMP JUMPDEST POP JUMPDEST PUSH1 0x0 DUP1 PUSH2 0x3437 PUSH32 0x0 DUP12 DUP12 PUSH2 0x3194 JUMP JUMPDEST SWAP2 POP SWAP2 POP PUSH1 0x0 DUP3 EQ DUP1 ISZERO PUSH2 0x344B JUMPI POP PUSH1 0x0 DUP2 EQ JUMPDEST ISZERO PUSH2 0x345F JUMPI DUP8 DUP8 DUP1 SWAP5 POP DUP2 SWAP6 POP POP POP PUSH2 0x3538 JUMP JUMPDEST PUSH1 0x0 PUSH2 0x346C DUP10 DUP5 DUP5 PUSH2 0x2FAE JUMP JUMPDEST SWAP1 POP DUP8 DUP2 GT PUSH2 0x34C7 JUMPI DUP6 DUP2 LT ISZERO PUSH2 0x34B8 JUMPI PUSH1 0x40 MLOAD PUSH32 0x8C379A000000000000000000000000000000000000000000000000000000000 DUP2 MSTORE PUSH1 0x4 ADD PUSH2 0x34AF SWAP1 PUSH2 0x4C5C JUMP JUMPDEST PUSH1 0x40 MLOAD DUP1 SWAP2 SUB SWAP1 REVERT JUMPDEST DUP9 DUP2 DUP1 SWAP6 POP DUP2 SWAP7 POP POP POP PUSH2 0x3536 JUMP JUMPDEST PUSH1 0x0 PUSH2 0x34D4 DUP10 DUP5 DUP7 PUSH2 0x2FAE JUMP JUMPDEST SWAP1 POP DUP10 DUP2 GT ISZERO PUSH2 0x34E7 JUMPI PUSH2 0x34E6 PUSH2 0x3664 JUMP JUMPDEST JUMPDEST DUP8 DUP2 LT ISZERO PUSH2 0x352A JUMPI PUSH1 0x40 MLOAD PUSH32 0x8C379A000000000000000000000000000000000000000000000000000000000 DUP2 MSTORE PUSH1 0x4 ADD PUSH2 0x3521 SWAP1 PUSH2 0x42D8 JUMP JUMPDEST PUSH1 0x40 MLOAD DUP1 SWAP2 SUB SWAP1 REVERT JUMPDEST DUP1 DUP10 DUP1 SWAP7 POP DUP2 SWAP8 POP POP POP POP JUMPDEST POP JUMPDEST POP POP SWAP7 POP SWAP7 SWAP5 POP POP POP POP POP JUMP JUMPDEST PUSH1 0x0 DUP1 DUP3 EQ DUP1 PUSH2 0x356D JUMPI POP DUP3 DUP3 DUP4 DUP6 PUSH2 0x355E SWAP2 SWAP1 PUSH2 0x4C7C JUMP JUMPDEST SWAP3 POP DUP3 PUSH2 0x356B SWAP2 SWAP1 PUSH2 0x46D5 JUMP JUMPDEST EQ JUMPDEST PUSH2 0x35AC JUMPI PUSH1 0x40 MLOAD PUSH32 0x8C379A000000000000000000000000000000000000000000000000000000000 DUP2 MSTORE PUSH1 0x4 ADD PUSH2 0x35A3 SWAP1 PUSH2 0x4D0A JUMP JUMPDEST PUSH1 0x40 MLOAD DUP1 SWAP2 SUB SWAP1 REVERT JUMPDEST SWAP3 SWAP2 POP POP JUMP JUMPDEST PUSH1 0x0 DUP3 DUP3 DUP5 PUSH2 0x35C1 SWAP2 SWAP1 PUSH2 0x4772 JUMP JUMPDEST SWAP2 POP DUP2 LT ISZERO PUSH2 0x3605 JUMPI PUSH1 0x40 MLOAD PUSH32 0x8C379A000000000000000000000000000000000000000000000000000000000 DUP2 MSTORE PUSH1 0x4 ADD PUSH2 0x35FC SWAP1 PUSH2 0x4D76 JUMP JUMPDEST PUSH1 0x40 MLOAD DUP1 SWAP2 SUB SWAP1 REVERT JUMPDEST SWAP3 SWAP2 POP POP JUMP JUMPDEST PUSH1 0x0 DUP3 DUP3 DUP5 PUSH2 0x361A SWAP2 SWAP1 PUSH2 0x3F78 JUMP JUMPDEST SWAP2 POP DUP2 GT ISZERO PUSH2 0x365E JUMPI PUSH1 0x40 MLOAD PUSH32 0x8C379A000000000000000000000000000000000000000000000000000000000 DUP2 MSTORE PUSH1 0x4 ADD PUSH2 0x3655 SWAP1 PUSH2 0x4DE2 JUMP JUMPDEST PUSH1 0x40 MLOAD DUP1 SWAP2 SUB SWAP1 REVERT JUMPDEST SWAP3 SWAP2 POP POP JUMP JUMPDEST PUSH32 0x4E487B7100000000000000000000000000000000000000000000000000000000 PUSH1 0x0 MSTORE PUSH1 0x1 PUSH1 0x4 MSTORE PUSH1 0x24 PUSH1 0x0 REVERT JUMPDEST PUSH1 0x0 PUSH1 0x40 MLOAD SWAP1 POP SWAP1 JUMP JUMPDEST PUSH1 0x0 DUP1 REVERT JUMPDEST PUSH1 0x0 DUP1 REVERT JUMPDEST PUSH1 0x0 PUSH20 0xFFFFFFFFFFFFFFFFFFFFFFFFFFFFFFFFFFFFFFFF DUP3 AND SWAP1 POP SWAP2 SWAP1 POP JUMP JUMPDEST PUSH1 0x0 PUSH2 0x36D2 DUP3 PUSH2 0x36A7 JUMP JUMPDEST SWAP1 POP SWAP2 SWAP1 POP JUMP JUMPDEST PUSH2 0x36E2 DUP2 PUSH2 0x36C7 JUMP JUMPDEST DUP2 EQ PUSH2 0x36ED JUMPI PUSH1 0x0 DUP1 REVERT JUMPDEST POP JUMP JUMPDEST PUSH1 0x0 DUP2 CALLDATALOAD SWAP1 POP PUSH2 0x36FF DUP2 PUSH2 0x36D9 JUMP JUMPDEST SWAP3 SWAP2 POP POP JUMP JUMPDEST PUSH1 0x0 DUP2 SWAP1 POP SWAP2 SWAP1 POP JUMP JUMPDEST PUSH2 0x3718 DUP2 PUSH2 0x3705 JUMP JUMPDEST DUP2 EQ PUSH2 0x3723 JUMPI PUSH1 0x0 DUP1 REVERT JUMPDEST POP JUMP JUMPDEST PUSH1 0x0 DUP2 CALLDATALOAD SWAP1 POP PUSH2 0x3735 DUP2 PUSH2 0x370F JUMP JUMPDEST SWAP3 SWAP2 POP POP JUMP JUMPDEST PUSH1 0x0 DUP1 PUSH1 0x0 DUP1 PUSH1 0x0 DUP1 PUSH1 0xC0 DUP8 DUP10 SUB SLT ISZERO PUSH2 0x3758 JUMPI PUSH2 0x3757 PUSH2 0x369D JUMP JUMPDEST JUMPDEST PUSH1 0x0 PUSH2 0x3766 DUP10 DUP3 DUP11 ADD PUSH2 0x36F0 JUMP JUMPDEST SWAP7 POP POP PUSH1 0x20 PUSH2 0x3777 DUP10 DUP3 DUP11 ADD PUSH2 0x3726 JUMP JUMPDEST SWAP6 POP POP PUSH1 0x40 PUSH2 0x3788 DUP10 DUP3 DUP11 ADD PUSH2 0x3726 JUMP JUMPDEST SWAP5 POP POP PUSH1 0x60 PUSH2 0x3799 DUP10 DUP3 DUP11 ADD PUSH2 0x3726 JUMP JUMPDEST SWAP4 POP POP PUSH1 0x80 PUSH2 0x37AA DUP10 DUP3 DUP11 ADD PUSH2 0x36F0 JUMP JUMPDEST SWAP3 POP POP PUSH1 0xA0 PUSH2 0x37BB DUP10 DUP3 DUP11 ADD PUSH2 0x3726 JUMP JUMPDEST SWAP2 POP POP SWAP3 SWAP6 POP SWAP3 SWAP6 POP SWAP3 SWAP6 JUMP JUMPDEST PUSH2 0x37D1 DUP2 PUSH2 0x3705 JUMP JUMPDEST DUP3 MSTORE POP POP JUMP JUMPDEST PUSH1 0x0 PUSH1 0x40 DUP3 ADD SWAP1 POP PUSH2 0x37EC PUSH1 0x0 DUP4 ADD DUP6 PUSH2 0x37C8 JUMP JUMPDEST PUSH2 0x37F9 PUSH1 0x20 DUP4 ADD DUP5 PUSH2 0x37C8 JUMP JUMPDEST SWAP4 SWAP3 POP POP POP JUMP JUMPDEST PUSH1 0x0 DUP1 PUSH1 0x0 PUSH1 0x60 DUP5 DUP7 SUB SLT ISZERO PUSH2 0x3819 JUMPI PUSH2 0x3818 PUSH2 0x369D JUMP JUMPDEST JUMPDEST PUSH1 0x0 PUSH2 0x3827 DUP7 DUP3 DUP8 ADD PUSH2 0x3726 JUMP JUMPDEST SWAP4 POP POP PUSH1 0x20 PUSH2 0x3838 DUP7 DUP3 DUP8 ADD PUSH2 0x3726 JUMP JUMPDEST SWAP3 POP POP PUSH1 0x40 PUSH2 0x3849 DUP7 DUP3 DUP8 ADD PUSH2 0x3726 JUMP JUMPDEST SWAP2 POP POP SWAP3 POP SWAP3 POP SWAP3 JUMP JUMPDEST PUSH1 0x0 PUSH1 0x20 DUP3 ADD SWAP1 POP PUSH2 0x3868 PUSH1 0x0 DUP4 ADD DUP5 PUSH2 0x37C8 JUMP JUMPDEST SWAP3 SWAP2 POP POP JUMP JUMPDEST PUSH1 0x0 DUP1 REVERT JUMPDEST PUSH1 0x0 DUP1 REVERT JUMPDEST PUSH1 0x0 DUP1 REVERT JUMPDEST PUSH1 0x0 DUP1 DUP4 PUSH1 0x1F DUP5 ADD SLT PUSH2 0x3893 JUMPI PUSH2 0x3892 PUSH2 0x386E JUMP JUMPDEST JUMPDEST DUP3 CALLDATALOAD SWAP1 POP PUSH8 0xFFFFFFFFFFFFFFFF DUP2 GT ISZERO PUSH2 0x38B0 JUMPI PUSH2 0x38AF PUSH2 0x3873 JUMP JUMPDEST JUMPDEST PUSH1 0x20 DUP4 ADD SWAP2 POP DUP4 PUSH1 0x20 DUP3 MUL DUP4 ADD GT ISZERO PUSH2 0x38CC JUMPI PUSH2 0x38CB PUSH2 0x3878 JUMP JUMPDEST JUMPDEST SWAP3 POP SWAP3 SWAP1 POP JUMP JUMPDEST PUSH1 0x0 DUP1 PUSH1 0x0 DUP1 PUSH1 0x0 DUP1 PUSH1 0xA0 DUP8 DUP10 SUB SLT ISZERO PUSH2 0x38F0 JUMPI PUSH2 0x38EF PUSH2 0x369D JUMP JUMPDEST JUMPDEST PUSH1 0x0 PUSH2 0x38FE DUP10 DUP3 DUP11 ADD PUSH2 0x3726 JUMP JUMPDEST SWAP7 POP POP PUSH1 0x20 PUSH2 0x390F DUP10 DUP3 DUP11 ADD PUSH2 0x3726 JUMP JUMPDEST SWAP6 POP POP PUSH1 0x40 DUP8 ADD CALLDATALOAD PUSH8 0xFFFFFFFFFFFFFFFF DUP2 GT ISZERO PUSH2 0x3930 JUMPI PUSH2 0x392F PUSH2 0x36A2 JUMP JUMPDEST JUMPDEST PUSH2 0x393C DUP10 DUP3 DUP11 ADD PUSH2 0x387D JUMP JUMPDEST SWAP5 POP SWAP5 POP POP PUSH1 0x60 PUSH2 0x394F DUP10 DUP3 DUP11 ADD PUSH2 0x36F0 JUMP JUMPDEST SWAP3 POP POP PUSH1 0x80 PUSH2 0x3960 DUP10 DUP3 DUP11 ADD PUSH2 0x3726 JUMP JUMPDEST SWAP2 POP POP SWAP3 SWAP6 POP SWAP3 SWAP6 POP SWAP3 SWAP6 JUMP JUMPDEST PUSH1 0x0 DUP2 MLOAD SWAP1 POP SWAP2 SWAP1 POP JUMP JUMPDEST PUSH1 0x0 DUP3 DUP3 MSTORE PUSH1 0x20 DUP3 ADD SWAP1 POP SWAP3 SWAP2 POP POP JUMP JUMPDEST PUSH1 0x0 DUP2 SWAP1 POP PUSH1 0x20 DUP3 ADD SWAP1 POP SWAP2 SWAP1 POP JUMP JUMPDEST PUSH2 0x39A2 DUP2 PUSH2 0x3705 JUMP JUMPDEST DUP3 MSTORE POP POP JUMP JUMPDEST PUSH1 0x0 PUSH2 0x39B4 DUP4 DUP4 PUSH2 0x3999 JUMP JUMPDEST PUSH1 0x20 DUP4 ADD SWAP1 POP SWAP3 SWAP2 POP POP JUMP JUMPDEST PUSH1 0x0 PUSH1 0x20 DUP3 ADD SWAP1 POP SWAP2 SWAP1 POP JUMP JUMPDEST PUSH1 0x0 PUSH2 0x39D8 DUP3 PUSH2 0x396D JUMP JUMPDEST PUSH2 0x39E2 DUP2 DUP6 PUSH2 0x3978 JUMP JUMPDEST SWAP4 POP PUSH2 0x39ED DUP4 PUSH2 0x3989 JUMP JUMPDEST DUP1 PUSH1 0x0 JUMPDEST DUP4 DUP2 LT ISZERO PUSH2 0x3A1E JUMPI DUP2 MLOAD PUSH2 0x3A05 DUP9 DUP3 PUSH2 0x39A8 JUMP JUMPDEST SWAP8 POP PUSH2 0x3A10 DUP4 PUSH2 0x39C0 JUMP JUMPDEST SWAP3 POP POP PUSH1 0x1 DUP2 ADD SWAP1 POP PUSH2 0x39F1 JUMP JUMPDEST POP DUP6 SWAP4 POP POP POP POP SWAP3 SWAP2 POP POP JUMP JUMPDEST PUSH1 0x0 PUSH1 0x20 DUP3 ADD SWAP1 POP DUP2 DUP2 SUB PUSH1 0x0 DUP4 ADD MSTORE PUSH2 0x3A45 DUP2 DUP5 PUSH2 0x39CD JUMP JUMPDEST SWAP1 POP SWAP3 SWAP2 POP POP JUMP JUMPDEST PUSH1 0x0 PUSH1 0x1F NOT PUSH1 0x1F DUP4 ADD AND SWAP1 POP SWAP2 SWAP1 POP JUMP JUMPDEST PUSH32 0x4E487B7100000000000000000000000000000000000000000000000000000000 PUSH1 0x0 MSTORE PUSH1 0x41 PUSH1 0x4 MSTORE PUSH1 0x24 PUSH1 0x0 REVERT JUMPDEST PUSH2 0x3A96 DUP3 PUSH2 0x3A4D JUMP JUMPDEST DUP2 ADD DUP2 DUP2 LT PUSH8 0xFFFFFFFFFFFFFFFF DUP3 GT OR ISZERO PUSH2 0x3AB5 JUMPI PUSH2 0x3AB4 PUSH2 0x3A5E JUMP JUMPDEST JUMPDEST DUP1 PUSH1 0x40 MSTORE POP POP POP JUMP JUMPDEST PUSH1 0x0 PUSH2 0x3AC8 PUSH2 0x3693 JUMP JUMPDEST SWAP1 POP PUSH2 0x3AD4 DUP3 DUP3 PUSH2 0x3A8D JUMP JUMPDEST SWAP2 SWAP1 POP JUMP JUMPDEST PUSH1 0x0 PUSH8 0xFFFFFFFFFFFFFFFF DUP3 GT ISZERO PUSH2 0x3AF4 JUMPI PUSH2 0x3AF3 PUSH2 0x3A5E JUMP JUMPDEST JUMPDEST PUSH1 0x20 DUP3 MUL SWAP1 POP PUSH1 0x20 DUP2 ADD SWAP1 POP SWAP2 SWAP1 POP JUMP JUMPDEST PUSH1 0x0 PUSH2 0x3B18 PUSH2 0x3B13 DUP5 PUSH2 0x3AD9 JUMP JUMPDEST PUSH2 0x3ABE JUMP JUMPDEST SWAP1 POP DUP1 DUP4 DUP3 MSTORE PUSH1 0x20 DUP3 ADD SWAP1 POP PUSH1 0x20 DUP5 MUL DUP4 ADD DUP6 DUP2 GT ISZERO PUSH2 0x3B3B JUMPI PUSH2 0x3B3A PUSH2 0x3878 JUMP JUMPDEST JUMPDEST DUP4 JUMPDEST DUP2 DUP2 LT ISZERO PUSH2 0x3B64 JUMPI DUP1 PUSH2 0x3B50 DUP9 DUP3 PUSH2 0x36F0 JUMP JUMPDEST DUP5 MSTORE PUSH1 0x20 DUP5 ADD SWAP4 POP POP PUSH1 0x20 DUP2 ADD SWAP1 POP PUSH2 0x3B3D JUMP JUMPDEST POP POP POP SWAP4 SWAP3 POP POP POP JUMP JUMPDEST PUSH1 0x0 DUP3 PUSH1 0x1F DUP4 ADD SLT PUSH2 0x3B83 JUMPI PUSH2 0x3B82 PUSH2 0x386E JUMP JUMPDEST JUMPDEST DUP2 CALLDATALOAD PUSH2 0x3B93 DUP5 DUP3 PUSH1 0x20 DUP7 ADD PUSH2 0x3B05 JUMP JUMPDEST SWAP2 POP POP SWAP3 SWAP2 POP POP JUMP JUMPDEST PUSH1 0x0 DUP1 PUSH1 0x40 DUP4 DUP6 SUB SLT ISZERO PUSH2 0x3BB3 JUMPI PUSH2 0x3BB2 PUSH2 0x369D JUMP JUMPDEST JUMPDEST PUSH1 0x0 PUSH2 0x3BC1 DUP6 DUP3 DUP7 ADD PUSH2 0x3726 JUMP JUMPDEST SWAP3 POP POP PUSH1 0x20 DUP4 ADD CALLDATALOAD PUSH8 0xFFFFFFFFFFFFFFFF DUP2 GT ISZERO PUSH2 0x3BE2 JUMPI PUSH2 0x3BE1 PUSH2 0x36A2 JUMP JUMPDEST JUMPDEST PUSH2 0x3BEE DUP6 DUP3 DUP7 ADD PUSH2 0x3B6E JUMP JUMPDEST SWAP2 POP POP SWAP3 POP SWAP3 SWAP1 POP JUMP JUMPDEST PUSH1 0x0 DUP1 PUSH1 0x0 DUP1 PUSH1 0x0 PUSH1 0x80 DUP7 DUP9 SUB SLT ISZERO PUSH2 0x3C14 JUMPI PUSH2 0x3C13 PUSH2 0x369D JUMP JUMPDEST JUMPDEST PUSH1 0x0 PUSH2 0x3C22 DUP9 DUP3 DUP10 ADD PUSH2 0x3726 JUMP JUMPDEST SWAP6 POP POP PUSH1 0x20 DUP7 ADD CALLDATALOAD PUSH8 0xFFFFFFFFFFFFFFFF DUP2 GT ISZERO PUSH2 0x3C43 JUMPI PUSH2 0x3C42 PUSH2 0x36A2 JUMP JUMPDEST JUMPDEST PUSH2 0x3C4F DUP9 DUP3 DUP10 ADD PUSH2 0x387D JUMP JUMPDEST SWAP5 POP SWAP5 POP POP PUSH1 0x40 PUSH2 0x3C62 DUP9 DUP3 DUP10 ADD PUSH2 0x36F0 JUMP JUMPDEST SWAP3 POP POP PUSH1 0x60 PUSH2 0x3C73 DUP9 DUP3 DUP10 ADD PUSH2 0x3726 JUMP JUMPDEST SWAP2 POP POP SWAP3 SWAP6 POP SWAP3 SWAP6 SWAP1 SWAP4 POP JUMP JUMPDEST PUSH2 0x3C89 DUP2 PUSH2 0x36C7 JUMP JUMPDEST DUP3 MSTORE POP POP JUMP JUMPDEST PUSH1 0x0 PUSH1 0x20 DUP3 ADD SWAP1 POP PUSH2 0x3CA4 PUSH1 0x0 DUP4 ADD DUP5 PUSH2 0x3C80 JUMP JUMPDEST SWAP3 SWAP2 POP POP JUMP JUMPDEST PUSH1 0x0 DUP1 PUSH1 0x0 DUP1 PUSH1 0x0 DUP1 PUSH1 0x0 PUSH1 0xE0 DUP9 DUP11 SUB SLT ISZERO PUSH2 0x3CC9 JUMPI PUSH2 0x3CC8 PUSH2 0x369D JUMP JUMPDEST JUMPDEST PUSH1 0x0 PUSH2 0x3CD7 DUP11 DUP3 DUP12 ADD PUSH2 0x36F0 JUMP JUMPDEST SWAP8 POP POP PUSH1 0x20 PUSH2 0x3CE8 DUP11 DUP3 DUP12 ADD PUSH2 0x36F0 JUMP JUMPDEST SWAP7 POP POP PUSH1 0x40 PUSH2 0x3CF9 DUP11 DUP3 DUP12 ADD PUSH2 0x3726 JUMP JUMPDEST SWAP6 POP POP PUSH1 0x60 PUSH2 0x3D0A DUP11 DUP3 DUP12 ADD PUSH2 0x3726 JUMP JUMPDEST SWAP5 POP POP PUSH1 0x80 PUSH2 0x3D1B DUP11 DUP3 DUP12 ADD PUSH2 0x3726 JUMP JUMPDEST SWAP4 POP POP PUSH1 0xA0 PUSH2 0x3D2C DUP11 DUP3 DUP12 ADD PUSH2 0x36F0 JUMP JUMPDEST SWAP3 POP POP PUSH1 0xC0 PUSH2 0x3D3D DUP11 DUP3 DUP12 ADD PUSH2 0x3726 JUMP JUMPDEST SWAP2 POP POP SWAP3 SWAP6 SWAP9 SWAP2 SWAP5 SWAP8 POP SWAP3 SWAP6 POP JUMP JUMPDEST PUSH1 0x0 DUP1 PUSH1 0x40 DUP4 DUP6 SUB SLT ISZERO PUSH2 0x3D63 JUMPI PUSH2 0x3D62 PUSH2 0x369D JUMP JUMPDEST JUMPDEST PUSH1 0x0 PUSH2 0x3D71 DUP6 DUP3 DUP7 ADD PUSH2 0x36F0 JUMP JUMPDEST SWAP3 POP POP PUSH1 0x20 PUSH2 0x3D82 DUP6 DUP3 DUP7 ADD PUSH2 0x36F0 JUMP JUMPDEST SWAP2 POP POP SWAP3 POP SWAP3 SWAP1 POP JUMP JUMPDEST PUSH1 0x0 DUP1 PUSH1 0x0 DUP1 PUSH1 0x0 DUP1 PUSH1 0x0 DUP1 PUSH2 0x100 DUP10 DUP12 SUB SLT ISZERO PUSH2 0x3DAD JUMPI PUSH2 0x3DAC PUSH2 0x369D JUMP JUMPDEST JUMPDEST PUSH1 0x0 PUSH2 0x3DBB DUP12 DUP3 DUP13 ADD PUSH2 0x36F0 JUMP JUMPDEST SWAP9 POP POP PUSH1 0x20 PUSH2 0x3DCC DUP12 DUP3 DUP13 ADD PUSH2 0x36F0 JUMP JUMPDEST SWAP8 POP POP PUSH1 0x40 PUSH2 0x3DDD DUP12 DUP3 DUP13 ADD PUSH2 0x3726 JUMP JUMPDEST SWAP7 POP POP PUSH1 0x60 PUSH2 0x3DEE DUP12 DUP3 DUP13 ADD PUSH2 0x3726 JUMP JUMPDEST SWAP6 POP POP PUSH1 0x80 PUSH2 0x3DFF DUP12 DUP3 DUP13 ADD PUSH2 0x3726 JUMP JUMPDEST SWAP5 POP POP PUSH1 0xA0 PUSH2 0x3E10 DUP12 DUP3 DUP13 ADD PUSH2 0x3726 JUMP JUMPDEST SWAP4 POP POP PUSH1 0xC0 PUSH2 0x3E21 DUP12 DUP3 DUP13 ADD PUSH2 0x36F0 JUMP JUMPDEST SWAP3 POP POP PUSH1 0xE0 PUSH2 0x3E32 DUP12 DUP3 DUP13 ADD PUSH2 0x3726 JUMP JUMPDEST SWAP2 POP POP SWAP3 SWAP6 SWAP9 POP SWAP3 SWAP6 SWAP9 SWAP1 SWAP4 SWAP7 POP JUMP JUMPDEST PUSH1 0x0 PUSH1 0x60 DUP3 ADD SWAP1 POP PUSH2 0x3E57 PUSH1 0x0 DUP4 ADD DUP7 PUSH2 0x37C8 JUMP JUMPDEST PUSH2 0x3E64 PUSH1 0x20 DUP4 ADD DUP6 PUSH2 0x37C8 JUMP JUMPDEST PUSH2 0x3E71 PUSH1 0x40 DUP4 ADD DUP5 PUSH2 0x37C8 JUMP JUMPDEST SWAP5 SWAP4 POP POP POP POP JUMP JUMPDEST PUSH1 0x0 DUP1 PUSH1 0x0 PUSH1 0x60 DUP5 DUP7 SUB SLT ISZERO PUSH2 0x3E92 JUMPI PUSH2 0x3E91 PUSH2 0x369D JUMP JUMPDEST JUMPDEST PUSH1 0x0 PUSH2 0x3EA0 DUP7 DUP3 DUP8 ADD PUSH2 0x36F0 JUMP JUMPDEST SWAP4 POP POP PUSH1 0x20 PUSH2 0x3EB1 DUP7 DUP3 DUP8 ADD PUSH2 0x36F0 JUMP JUMPDEST SWAP3 POP POP PUSH1 0x40 PUSH2 0x3EC2 DUP7 DUP3 DUP8 ADD PUSH2 0x36F0 JUMP JUMPDEST SWAP2 POP POP SWAP3 POP SWAP3 POP SWAP3 JUMP JUMPDEST PUSH1 0x0 DUP3 DUP3 MSTORE PUSH1 0x20 DUP3 ADD SWAP1 POP SWAP3 SWAP2 POP POP JUMP JUMPDEST PUSH32 0x526F757465723A20455850495245440000000000000000000000000000000000 PUSH1 0x0 DUP3 ADD MSTORE POP JUMP JUMPDEST PUSH1 0x0 PUSH2 0x3F13 PUSH1 0xF DUP4 PUSH2 0x3ECC JUMP JUMPDEST SWAP2 POP PUSH2 0x3F1E DUP3 PUSH2 0x3EDD JUMP JUMPDEST PUSH1 0x20 DUP3 ADD SWAP1 POP SWAP2 SWAP1 POP JUMP JUMPDEST PUSH1 0x0 PUSH1 0x20 DUP3 ADD SWAP1 POP DUP2 DUP2 SUB PUSH1 0x0 DUP4 ADD MSTORE PUSH2 0x3F42 DUP2 PUSH2 0x3F06 JUMP JUMPDEST SWAP1 POP SWAP2 SWAP1 POP JUMP JUMPDEST PUSH32 0x4E487B7100000000000000000000000000000000000000000000000000000000 PUSH1 0x0 MSTORE PUSH1 0x11 PUSH1 0x4 MSTORE PUSH1 0x24 PUSH1 0x0 REVERT JUMPDEST PUSH1 0x0 PUSH2 0x3F83 DUP3 PUSH2 0x3705 JUMP JUMPDEST SWAP2 POP PUSH2 0x3F8E DUP4 PUSH2 0x3705 JUMP JUMPDEST SWAP3 POP DUP3 DUP3 SUB SWAP1 POP DUP2 DUP2 GT ISZERO PUSH2 0x3FA6 JUMPI PUSH2 0x3FA5 PUSH2 0x3F49 JUMP JUMPDEST JUMPDEST SWAP3 SWAP2 POP POP JUMP JUMPDEST PUSH32 0x4E487B7100000000000000000000000000000000000000000000000000000000 PUSH1 0x0 MSTORE PUSH1 0x32 PUSH1 0x4 MSTORE PUSH1 0x24 PUSH1 0x0 REVERT JUMPDEST PUSH1 0x0 PUSH1 0x20 DUP3 DUP5 SUB SLT ISZERO PUSH2 0x3FF1 JUMPI PUSH2 0x3FF0 PUSH2 0x369D JUMP JUMPDEST JUMPDEST PUSH1 0x0 PUSH2 0x3FFF DUP5 DUP3 DUP6 ADD PUSH2 0x36F0 JUMP JUMPDEST SWAP2 POP POP SWAP3 SWAP2 POP POP JUMP JUMPDEST PUSH32 0x526F757465723A20494E56414C49445F50415448000000000000000000000000 PUSH1 0x0 DUP3 ADD MSTORE POP JUMP JUMPDEST PUSH1 0x0 PUSH2 0x403E PUSH1 0x14 DUP4 PUSH2 0x3ECC JUMP JUMPDEST SWAP2 POP PUSH2 0x4049 DUP3 PUSH2 0x4008 JUMP JUMPDEST PUSH1 0x20 DUP3 ADD SWAP1 POP SWAP2 SWAP1 POP JUMP JUMPDEST PUSH1 0x0 PUSH1 0x20 DUP3 ADD SWAP1 POP DUP2 DUP2 SUB PUSH1 0x0 DUP4 ADD MSTORE PUSH2 0x406D DUP2 PUSH2 0x4031 JUMP JUMPDEST SWAP1 POP SWAP2 SWAP1 POP JUMP JUMPDEST PUSH32 0x526F757465723A20494E53554646494349454E545F4F55545055545F414D4F55 PUSH1 0x0 DUP3 ADD MSTORE PUSH32 0x4E54000000000000000000000000000000000000000000000000000000000000 PUSH1 0x20 DUP3 ADD MSTORE POP JUMP JUMPDEST PUSH1 0x0 PUSH2 0x40D0 PUSH1 0x22 DUP4 PUSH2 0x3ECC JUMP JUMPDEST SWAP2 POP PUSH2 0x40DB DUP3 PUSH2 0x4074 JUMP JUMPDEST PUSH1 0x40 DUP3 ADD SWAP1 POP SWAP2 SWAP1 POP JUMP JUMPDEST PUSH1 0x0 PUSH1 0x20 DUP3 ADD SWAP1 POP DUP2 DUP2 SUB PUSH1 0x0 DUP4 ADD MSTORE PUSH2 0x40FF DUP2 PUSH2 0x40C3 JUMP JUMPDEST SWAP1 POP SWAP2 SWAP1 POP JUMP JUMPDEST PUSH32 0x526F757465723A204558434553534956455F494E5055545F414D4F554E540000 PUSH1 0x0 DUP3 ADD MSTORE POP JUMP JUMPDEST PUSH1 0x0 PUSH2 0x413C PUSH1 0x1E DUP4 PUSH2 0x3ECC JUMP JUMPDEST SWAP2 POP PUSH2 0x4147 DUP3 PUSH2 0x4106 JUMP JUMPDEST PUSH1 0x20 DUP3 ADD SWAP1 POP SWAP2 SWAP1 POP JUMP JUMPDEST PUSH1 0x0 PUSH1 0x20 DUP3 ADD SWAP1 POP DUP2 DUP2 SUB PUSH1 0x0 DUP4 ADD MSTORE PUSH2 0x416B DUP2 PUSH2 0x412F JUMP JUMPDEST SWAP1 POP SWAP2 SWAP1 POP JUMP JUMPDEST PUSH1 0x0 PUSH1 0x40 DUP3 ADD SWAP1 POP PUSH2 0x4187 PUSH1 0x0 DUP4 ADD DUP6 PUSH2 0x3C80 JUMP JUMPDEST PUSH2 0x4194 PUSH1 0x20 DUP4 ADD DUP5 PUSH2 0x37C8 JUMP JUMPDEST SWAP4 SWAP3 POP POP POP JUMP JUMPDEST PUSH1 0x0 DUP2 ISZERO ISZERO SWAP1 POP SWAP2 SWAP1 POP JUMP JUMPDEST PUSH2 0x41B0 DUP2 PUSH2 0x419B JUMP JUMPDEST DUP2 EQ PUSH2 0x41BB JUMPI PUSH1 0x0 DUP1 REVERT JUMPDEST POP JUMP JUMPDEST PUSH1 0x0 DUP2 MLOAD SWAP1 POP PUSH2 0x41CD DUP2 PUSH2 0x41A7 JUMP JUMPDEST SWAP3 SWAP2 POP POP JUMP JUMPDEST PUSH1 0x0 PUSH1 0x20 DUP3 DUP5 SUB SLT ISZERO PUSH2 0x41E9 JUMPI PUSH2 0x41E8 PUSH2 0x369D JUMP JUMPDEST JUMPDEST PUSH1 0x0 PUSH2 0x41F7 DUP5 DUP3 DUP6 ADD PUSH2 0x41BE JUMP JUMPDEST SWAP2 POP POP SWAP3 SWAP2 POP POP JUMP JUMPDEST PUSH1 0x0 PUSH1 0x60 DUP3 ADD SWAP1 POP PUSH2 0x4215 PUSH1 0x0 DUP4 ADD DUP7 PUSH2 0x3C80 JUMP JUMPDEST PUSH2 0x4222 PUSH1 0x20 DUP4 ADD DUP6 PUSH2 0x3C80 JUMP JUMPDEST PUSH2 0x422F PUSH1 0x40 DUP4 ADD DUP5 PUSH2 0x37C8 JUMP JUMPDEST SWAP5 SWAP4 POP POP POP POP JUMP JUMPDEST PUSH1 0x0 DUP2 MLOAD SWAP1 POP PUSH2 0x4246 DUP2 PUSH2 0x370F JUMP JUMPDEST SWAP3 SWAP2 POP POP JUMP JUMPDEST PUSH1 0x0 DUP1 PUSH1 0x40 DUP4 DUP6 SUB SLT ISZERO PUSH2 0x4263 JUMPI PUSH2 0x4262 PUSH2 0x369D JUMP JUMPDEST JUMPDEST PUSH1 0x0 PUSH2 0x4271 DUP6 DUP3 DUP7 ADD PUSH2 0x4237 JUMP JUMPDEST SWAP3 POP POP PUSH1 0x20 PUSH2 0x4282 DUP6 DUP3 DUP7 ADD PUSH2 0x4237 JUMP JUMPDEST SWAP2 POP POP SWAP3 POP SWAP3 SWAP1 POP JUMP JUMPDEST PUSH32 0x526F757465723A20494E53554646494349454E545F415F414D4F554E54000000 PUSH1 0x0 DUP3 ADD MSTORE POP JUMP JUMPDEST PUSH1 0x0 PUSH2 0x42C2 PUSH1 0x1D DUP4 PUSH2 0x3ECC JUMP JUMPDEST SWAP2 POP PUSH2 0x42CD DUP3 PUSH2 0x428C JUMP JUMPDEST PUSH1 0x20 DUP3 ADD SWAP1 POP SWAP2 SWAP1 POP JUMP JUMPDEST PUSH1 0x0 PUSH1 0x20 DUP3 ADD SWAP1 POP DUP2 DUP2 SUB PUSH1 0x0 DUP4 ADD MSTORE PUSH2 0x42F1 DUP2 PUSH2 0x42B5 JUMP JUMPDEST SWAP1 POP SWAP2 SWAP1 POP JUMP JUMPDEST PUSH32 0x526F757465723A20494E53554646494349454E545F425F414D4F554E54000000 PUSH1 0x0 DUP3 ADD MSTORE POP JUMP JUMPDEST PUSH1 0x0 PUSH2 0x432E PUSH1 0x1D DUP4 PUSH2 0x3ECC JUMP JUMPDEST SWAP2 POP PUSH2 0x4339 DUP3 PUSH2 0x42F8 JUMP JUMPDEST PUSH1 0x20 DUP3 ADD SWAP1 POP SWAP2 SWAP1 POP JUMP JUMPDEST PUSH1 0x0 PUSH1 0x20 DUP3 ADD SWAP1 POP DUP2 DUP2 SUB PUSH1 0x0 DUP4 ADD MSTORE PUSH2 0x435D DUP2 PUSH2 0x4321 JUMP JUMPDEST SWAP1 POP SWAP2 SWAP1 POP JUMP JUMPDEST PUSH1 0x0 PUSH1 0x20 DUP3 DUP5 SUB SLT ISZERO PUSH2 0x437A JUMPI PUSH2 0x4379 PUSH2 0x369D JUMP JUMPDEST JUMPDEST PUSH1 0x0 PUSH2 0x4388 DUP5 DUP3 DUP6 ADD PUSH2 0x4237 JUMP JUMPDEST SWAP2 POP POP SWAP3 SWAP2 POP POP JUMP JUMPDEST PUSH1 0x0 PUSH1 0x40 DUP3 ADD SWAP1 POP PUSH2 0x43A6 PUSH1 0x0 DUP4 ADD DUP6 PUSH2 0x3C80 JUMP JUMPDEST PUSH2 0x43B3 PUSH1 0x20 DUP4 ADD DUP5 PUSH2 0x3C80 JUMP JUMPDEST SWAP4 SWAP3 POP POP POP JUMP JUMPDEST PUSH1 0x0 DUP2 MLOAD SWAP1 POP PUSH2 0x43C9 DUP2 PUSH2 0x36D9 JUMP JUMPDEST SWAP3 SWAP2 POP POP JUMP JUMPDEST PUSH1 0x0 PUSH1 0x20 DUP3 DUP5 SUB SLT ISZERO PUSH2 0x43E5 JUMPI PUSH2 0x43E4 PUSH2 0x369D JUMP JUMPDEST JUMPDEST PUSH1 0x0 PUSH2 0x43F3 DUP5 DUP3 DUP6 ADD PUSH2 0x43BA JUMP JUMPDEST SWAP2 POP POP SWAP3 SWAP2 POP POP JUMP JUMPDEST PUSH1 0x0 DUP2 MLOAD SWAP1 POP SWAP2 SWAP1 POP JUMP JUMPDEST PUSH1 0x0 DUP2 SWAP1 POP SWAP3 SWAP2 POP POP JUMP JUMPDEST PUSH1 0x0 JUMPDEST DUP4 DUP2 LT ISZERO PUSH2 0x4430 JUMPI DUP1 DUP3 ADD MLOAD DUP2 DUP5 ADD MSTORE PUSH1 0x20 DUP2 ADD SWAP1 POP PUSH2 0x4415 JUMP JUMPDEST PUSH1 0x0 DUP5 DUP5 ADD MSTORE POP POP POP POP JUMP JUMPDEST PUSH1 0x0 PUSH2 0x4447 DUP3 PUSH2 0x43FC JUMP JUMPDEST PUSH2 0x4451 DUP2 DUP6 PUSH2 0x4407 JUMP JUMPDEST SWAP4 POP PUSH2 0x4461 DUP2 DUP6 PUSH1 0x20 DUP7 ADD PUSH2 0x4412 JUMP JUMPDEST DUP1 DUP5 ADD SWAP2 POP POP SWAP3 SWAP2 POP POP JUMP JUMPDEST PUSH1 0x0 PUSH2 0x4479 DUP3 DUP5 PUSH2 0x443C JUMP JUMPDEST SWAP2 POP DUP2 SWAP1 POP SWAP3 SWAP2 POP POP JUMP JUMPDEST PUSH32 0x5472616E7366657248656C7065723A3A736166655472616E736665723A207472 PUSH1 0x0 DUP3 ADD MSTORE PUSH32 0x616E73666572206661696C656400000000000000000000000000000000000000 PUSH1 0x20 DUP3 ADD MSTORE POP JUMP JUMPDEST PUSH1 0x0 PUSH2 0x44E0 PUSH1 0x2D DUP4 PUSH2 0x3ECC JUMP JUMPDEST SWAP2 POP PUSH2 0x44EB DUP3 PUSH2 0x4484 JUMP JUMPDEST PUSH1 0x40 DUP3 ADD SWAP1 POP SWAP2 SWAP1 POP JUMP JUMPDEST PUSH1 0x0 PUSH1 0x20 DUP3 ADD SWAP1 POP DUP2 DUP2 SUB PUSH1 0x0 DUP4 ADD MSTORE PUSH2 0x450F DUP2 PUSH2 0x44D3 JUMP JUMPDEST SWAP1 POP SWAP2 SWAP1 POP JUMP JUMPDEST PUSH32 0x5472616E7366657248656C7065723A3A736166655472616E736665724554483A PUSH1 0x0 DUP3 ADD MSTORE PUSH32 0x20455448207472616E73666572206661696C6564000000000000000000000000 PUSH1 0x20 DUP3 ADD MSTORE POP JUMP JUMPDEST PUSH1 0x0 PUSH2 0x4572 PUSH1 0x34 DUP4 PUSH2 0x3ECC JUMP JUMPDEST SWAP2 POP PUSH2 0x457D DUP3 PUSH2 0x4516 JUMP JUMPDEST PUSH1 0x40 DUP3 ADD SWAP1 POP SWAP2 SWAP1 POP JUMP JUMPDEST PUSH1 0x0 PUSH1 0x20 DUP3 ADD SWAP1 POP DUP2 DUP2 SUB PUSH1 0x0 DUP4 ADD MSTORE PUSH2 0x45A1 DUP2 PUSH2 0x4565 JUMP JUMPDEST SWAP1 POP SWAP2 SWAP1 POP JUMP JUMPDEST PUSH32 0x4C6962726172793A20494E53554646494349454E545F494E5055545F414D4F55 PUSH1 0x0 DUP3 ADD MSTORE PUSH32 0x4E54000000000000000000000000000000000000000000000000000000000000 PUSH1 0x20 DUP3 ADD MSTORE POP JUMP JUMPDEST PUSH1 0x0 PUSH2 0x4604 PUSH1 0x22 DUP4 PUSH2 0x3ECC JUMP JUMPDEST SWAP2 POP PUSH2 0x460F DUP3 PUSH2 0x45A8 JUMP JUMPDEST PUSH1 0x40 DUP3 ADD SWAP1 POP SWAP2 SWAP1 POP JUMP JUMPDEST PUSH1 0x0 PUSH1 0x20 DUP3 ADD SWAP1 POP DUP2 DUP2 SUB PUSH1 0x0 DUP4 ADD MSTORE PUSH2 0x4633 DUP2 PUSH2 0x45F7 JUMP JUMPDEST SWAP1 POP SWAP2 SWAP1 POP JUMP JUMPDEST PUSH32 0x4C6962726172793A20494E53554646494349454E545F4C495155494449545900 PUSH1 0x0 DUP3 ADD MSTORE POP JUMP JUMPDEST PUSH1 0x0 PUSH2 0x4670 PUSH1 0x1F DUP4 PUSH2 0x3ECC JUMP JUMPDEST SWAP2 POP PUSH2 0x467B DUP3 PUSH2 0x463A JUMP JUMPDEST PUSH1 0x20 DUP3 ADD SWAP1 POP SWAP2 SWAP1 POP JUMP JUMPDEST PUSH1 0x0 PUSH1 0x20 DUP3 ADD SWAP1 POP DUP2 DUP2 SUB PUSH1 0x0 DUP4 ADD MSTORE PUSH2 0x469F DUP2 PUSH2 0x4663 JUMP JUMPDEST SWAP1 POP SWAP2 SWAP1 POP JUMP JUMPDEST PUSH32 0x4E487B7100000000000000000000000000000000000000000000000000000000 PUSH1 0x0 MSTORE PUSH1 0x12 PUSH1 0x4 MSTORE PUSH1 0x24 PUSH1 0x0 REVERT JUMPDEST PUSH1 0x0 PUSH2 0x46E0 DUP3 PUSH2 0x3705 JUMP JUMPDEST SWAP2 POP PUSH2 0x46EB DUP4 PUSH2 0x3705 JUMP JUMPDEST SWAP3 POP DUP3 PUSH2 0x46FB JUMPI PUSH2 0x46FA PUSH2 0x46A6 JUMP JUMPDEST JUMPDEST DUP3 DUP3 DIV SWAP1 POP SWAP3 SWAP2 POP POP JUMP JUMPDEST PUSH32 0x4C6962726172793A20494E56414C49445F504154480000000000000000000000 PUSH1 0x0 DUP3 ADD MSTORE POP JUMP JUMPDEST PUSH1 0x0 PUSH2 0x473C PUSH1 0x15 DUP4 PUSH2 0x3ECC JUMP JUMPDEST SWAP2 POP PUSH2 0x4747 DUP3 PUSH2 0x4706 JUMP JUMPDEST PUSH1 0x20 DUP3 ADD SWAP1 POP SWAP2 SWAP1 POP JUMP JUMPDEST PUSH1 0x0 PUSH1 0x20 DUP3 ADD SWAP1 POP DUP2 DUP2 SUB PUSH1 0x0 DUP4 ADD MSTORE PUSH2 0x476B DUP2 PUSH2 0x472F JUMP JUMPDEST SWAP1 POP SWAP2 SWAP1 POP JUMP JUMPDEST PUSH1 0x0 PUSH2 0x477D DUP3 PUSH2 0x3705 JUMP JUMPDEST SWAP2 POP PUSH2 0x4788 DUP4 PUSH2 0x3705 JUMP JUMPDEST SWAP3 POP DUP3 DUP3 ADD SWAP1 POP DUP1 DUP3 GT ISZERO PUSH2 0x47A0 JUMPI PUSH2 0x479F PUSH2 0x3F49 JUMP JUMPDEST JUMPDEST SWAP3 SWAP2 POP POP JUMP JUMPDEST PUSH1 0x0 PUSH2 0x47B1 DUP3 PUSH2 0x3705 JUMP JUMPDEST SWAP2 POP PUSH32 0xFFFFFFFFFFFFFFFFFFFFFFFFFFFFFFFFFFFFFFFFFFFFFFFFFFFFFFFFFFFFFFFF DUP3 SUB PUSH2 0x47E3 JUMPI PUSH2 0x47E2 PUSH2 0x3F49 JUMP JUMPDEST JUMPDEST PUSH1 0x1 DUP3 ADD SWAP1 POP SWAP2 SWAP1 POP JUMP JUMPDEST PUSH32 0x5472616E7366657248656C7065723A3A7472616E7366657246726F6D3A207472 PUSH1 0x0 DUP3 ADD MSTORE PUSH32 0x616E7366657246726F6D206661696C6564000000000000000000000000000000 PUSH1 0x20 DUP3 ADD MSTORE POP JUMP JUMPDEST PUSH1 0x0 PUSH2 0x484A PUSH1 0x31 DUP4 PUSH2 0x3ECC JUMP JUMPDEST SWAP2 POP PUSH2 0x4855 DUP3 PUSH2 0x47EE JUMP JUMPDEST PUSH1 0x40 DUP3 ADD SWAP1 POP SWAP2 SWAP1 POP JUMP JUMPDEST PUSH1 0x0 PUSH1 0x20 DUP3 ADD SWAP1 POP DUP2 DUP2 SUB PUSH1 0x0 DUP4 ADD MSTORE PUSH2 0x4879 DUP2 PUSH2 0x483D JUMP JUMPDEST SWAP1 POP SWAP2 SWAP1 POP JUMP JUMPDEST PUSH1 0x0 DUP3 DUP3 MSTORE PUSH1 0x20 DUP3 ADD SWAP1 POP SWAP3 SWAP2 POP POP JUMP JUMPDEST PUSH1 0x0 PUSH2 0x489C DUP3 PUSH2 0x43FC JUMP JUMPDEST PUSH2 0x48A6 DUP2 DUP6 PUSH2 0x4880 JUMP JUMPDEST SWAP4 POP PUSH2 0x48B6 DUP2 DUP6 PUSH1 0x20 DUP7 ADD PUSH2 0x4412 JUMP JUMPDEST PUSH2 0x48BF DUP2 PUSH2 0x3A4D JUMP JUMPDEST DUP5 ADD SWAP2 POP POP SWAP3 SWAP2 POP POP JUMP JUMPDEST PUSH1 0x0 PUSH1 0x80 DUP3 ADD SWAP1 POP PUSH2 0x48DF PUSH1 0x0 DUP4 ADD DUP8 PUSH2 0x37C8 JUMP JUMPDEST PUSH2 0x48EC PUSH1 0x20 DUP4 ADD DUP7 PUSH2 0x37C8 JUMP JUMPDEST PUSH2 0x48F9 PUSH1 0x40 DUP4 ADD DUP6 PUSH2 0x3C80 JUMP JUMPDEST DUP2 DUP2 SUB PUSH1 0x60 DUP4 ADD MSTORE PUSH2 0x490B DUP2 DUP5 PUSH2 0x4891 JUMP JUMPDEST SWAP1 POP SWAP6 SWAP5 POP POP POP POP POP JUMP JUMPDEST PUSH1 0x0 PUSH2 0x4921 DUP3 PUSH2 0x3705 JUMP JUMPDEST SWAP2 POP PUSH1 0x0 DUP3 SUB PUSH2 0x4934 JUMPI PUSH2 0x4933 PUSH2 0x3F49 JUMP JUMPDEST JUMPDEST PUSH1 0x1 DUP3 SUB SWAP1 POP SWAP2 SWAP1 POP JUMP JUMPDEST PUSH32 0x4C6962726172793A20494E53554646494349454E545F4F55545055545F414D4F PUSH1 0x0 DUP3 ADD MSTORE PUSH32 0x554E540000000000000000000000000000000000000000000000000000000000 PUSH1 0x20 DUP3 ADD MSTORE POP JUMP JUMPDEST PUSH1 0x0 PUSH2 0x499B PUSH1 0x23 DUP4 PUSH2 0x3ECC JUMP JUMPDEST SWAP2 POP PUSH2 0x49A6 DUP3 PUSH2 0x493F JUMP JUMPDEST PUSH1 0x40 DUP3 ADD SWAP1 POP SWAP2 SWAP1 POP JUMP JUMPDEST PUSH1 0x0 PUSH1 0x20 DUP3 ADD SWAP1 POP DUP2 DUP2 SUB PUSH1 0x0 DUP4 ADD MSTORE PUSH2 0x49CA DUP2 PUSH2 0x498E JUMP JUMPDEST SWAP1 POP SWAP2 SWAP1 POP JUMP JUMPDEST PUSH32 0x4C6962726172793A20494E53554646494349454E545F414D4F554E5400000000 PUSH1 0x0 DUP3 ADD MSTORE POP JUMP JUMPDEST PUSH1 0x0 PUSH2 0x4A07 PUSH1 0x1C DUP4 PUSH2 0x3ECC JUMP JUMPDEST SWAP2 POP PUSH2 0x4A12 DUP3 PUSH2 0x49D1 JUMP JUMPDEST PUSH1 0x20 DUP3 ADD SWAP1 POP SWAP2 SWAP1 POP JUMP JUMPDEST PUSH1 0x0 PUSH1 0x20 DUP3 ADD SWAP1 POP DUP2 DUP2 SUB PUSH1 0x0 DUP4 ADD MSTORE PUSH2 0x4A36 DUP2 PUSH2 0x49FA JUMP JUMPDEST SWAP1 POP SWAP2 SWAP1 POP JUMP JUMPDEST PUSH32 0x4944454E544943414C5F41444452455353455300000000000000000000000000 PUSH1 0x0 DUP3 ADD MSTORE POP JUMP JUMPDEST PUSH1 0x0 PUSH2 0x4A73 PUSH1 0x13 DUP4 PUSH2 0x3ECC JUMP JUMPDEST SWAP2 POP PUSH2 0x4A7E DUP3 PUSH2 0x4A3D JUMP JUMPDEST PUSH1 0x20 DUP3 ADD SWAP1 POP SWAP2 SWAP1 POP JUMP JUMPDEST PUSH1 0x0 PUSH1 0x20 DUP3 ADD SWAP1 POP DUP2 DUP2 SUB PUSH1 0x0 DUP4 ADD MSTORE PUSH2 0x4AA2 DUP2 PUSH2 0x4A66 JUMP JUMPDEST SWAP1 POP SWAP2 SWAP1 POP JUMP JUMPDEST PUSH32 0x5A45524F5F414444524553530000000000000000000000000000000000000000 PUSH1 0x0 DUP3 ADD MSTORE POP JUMP JUMPDEST PUSH1 0x0 PUSH2 0x4ADF PUSH1 0xC DUP4 PUSH2 0x3ECC JUMP JUMPDEST SWAP2 POP PUSH2 0x4AEA DUP3 PUSH2 0x4AA9 JUMP JUMPDEST PUSH1 0x20 DUP3 ADD SWAP1 POP SWAP2 SWAP1 POP JUMP JUMPDEST PUSH1 0x0 PUSH1 0x20 DUP3 ADD SWAP1 POP DUP2 DUP2 SUB PUSH1 0x0 DUP4 ADD MSTORE PUSH2 0x4B0E DUP2 PUSH2 0x4AD2 JUMP JUMPDEST SWAP1 POP SWAP2 SWAP1 POP JUMP JUMPDEST PUSH1 0x0 PUSH14 0xFFFFFFFFFFFFFFFFFFFFFFFFFFFF DUP3 AND SWAP1 POP SWAP2 SWAP1 POP JUMP JUMPDEST PUSH2 0x4B38 DUP2 PUSH2 0x4B15 JUMP JUMPDEST DUP2 EQ PUSH2 0x4B43 JUMPI PUSH1 0x0 DUP1 REVERT JUMPDEST POP JUMP JUMPDEST PUSH1 0x0 DUP2 MLOAD SWAP1 POP PUSH2 0x4B55 DUP2 PUSH2 0x4B2F JUMP JUMPDEST SWAP3 SWAP2 POP POP JUMP JUMPDEST PUSH1 0x0 PUSH4 0xFFFFFFFF DUP3 AND SWAP1 POP SWAP2 SWAP1 POP JUMP JUMPDEST PUSH2 0x4B74 DUP2 PUSH2 0x4B5B JUMP JUMPDEST DUP2 EQ PUSH2 0x4B7F JUMPI PUSH1 0x0 DUP1 REVERT JUMPDEST POP JUMP JUMPDEST PUSH1 0x0 DUP2 MLOAD SWAP1 POP PUSH2 0x4B91 DUP2 PUSH2 0x4B6B JUMP JUMPDEST SWAP3 SWAP2 POP POP JUMP JUMPDEST PUSH1 0x0 DUP1 PUSH1 0x0 PUSH1 0x60 DUP5 DUP7 SUB SLT ISZERO PUSH2 0x4BB0 JUMPI PUSH2 0x4BAF PUSH2 0x369D JUMP JUMPDEST JUMPDEST PUSH1 0x0 PUSH2 0x4BBE DUP7 DUP3 DUP8 ADD PUSH2 0x4B46 JUMP JUMPDEST SWAP4 POP POP PUSH1 0x20 PUSH2 0x4BCF DUP7 DUP3 DUP8 ADD PUSH2 0x4B46 JUMP JUMPDEST SWAP3 POP POP PUSH1 0x40 PUSH2 0x4BE0 DUP7 DUP3 DUP8 ADD PUSH2 0x4B82 JUMP JUMPDEST SWAP2 POP POP SWAP3 POP SWAP3 POP SWAP3 JUMP JUMPDEST PUSH32 0x556E69737761705632526F757465723A20494E53554646494349454E545F425F PUSH1 0x0 DUP3 ADD MSTORE PUSH32 0x414D4F554E540000000000000000000000000000000000000000000000000000 PUSH1 0x20 DUP3 ADD MSTORE POP JUMP JUMPDEST PUSH1 0x0 PUSH2 0x4C46 PUSH1 0x26 DUP4 PUSH2 0x3ECC JUMP JUMPDEST SWAP2 POP PUSH2 0x4C51 DUP3 PUSH2 0x4BEA JUMP JUMPDEST PUSH1 0x40 DUP3 ADD SWAP1 POP SWAP2 SWAP1 POP JUMP JUMPDEST PUSH1 0x0 PUSH1 0x20 DUP3 ADD SWAP1 POP DUP2 DUP2 SUB PUSH1 0x0 DUP4 ADD MSTORE PUSH2 0x4C75 DUP2 PUSH2 0x4C39 JUMP JUMPDEST SWAP1 POP SWAP2 SWAP1 POP JUMP JUMPDEST PUSH1 0x0 PUSH2 0x4C87 DUP3 PUSH2 0x3705 JUMP JUMPDEST SWAP2 POP PUSH2 0x4C92 DUP4 PUSH2 0x3705 JUMP JUMPDEST SWAP3 POP DUP3 DUP3 MUL PUSH2 0x4CA0 DUP2 PUSH2 0x3705 JUMP JUMPDEST SWAP2 POP DUP3 DUP3 DIV DUP5 EQ DUP4 ISZERO OR PUSH2 0x4CB7 JUMPI PUSH2 0x4CB6 PUSH2 0x3F49 JUMP JUMPDEST JUMPDEST POP SWAP3 SWAP2 POP POP JUMP JUMPDEST PUSH32 0x64732D6D6174682D6D756C2D6F766572666C6F77000000000000000000000000 PUSH1 0x0 DUP3 ADD MSTORE POP JUMP JUMPDEST PUSH1 0x0 PUSH2 0x4CF4 PUSH1 0x14 DUP4 PUSH2 0x3ECC JUMP JUMPDEST SWAP2 POP PUSH2 0x4CFF DUP3 PUSH2 0x4CBE JUMP JUMPDEST PUSH1 0x20 DUP3 ADD SWAP1 POP SWAP2 SWAP1 POP JUMP JUMPDEST PUSH1 0x0 PUSH1 0x20 DUP3 ADD SWAP1 POP DUP2 DUP2 SUB PUSH1 0x0 DUP4 ADD MSTORE PUSH2 0x4D23 DUP2 PUSH2 0x4CE7 JUMP JUMPDEST SWAP1 POP SWAP2 SWAP1 POP JUMP JUMPDEST PUSH32 0x64732D6D6174682D6164642D6F766572666C6F77000000000000000000000000 PUSH1 0x0 DUP3 ADD MSTORE POP JUMP JUMPDEST PUSH1 0x0 PUSH2 0x4D60 PUSH1 0x14 DUP4 PUSH2 0x3ECC JUMP JUMPDEST SWAP2 POP PUSH2 0x4D6B DUP3 PUSH2 0x4D2A JUMP JUMPDEST PUSH1 0x20 DUP3 ADD SWAP1 POP SWAP2 SWAP1 POP JUMP JUMPDEST PUSH1 0x0 PUSH1 0x20 DUP3 ADD SWAP1 POP DUP2 DUP2 SUB PUSH1 0x0 DUP4 ADD MSTORE PUSH2 0x4D8F DUP2 PUSH2 0x4D53 JUMP JUMPDEST SWAP1 POP SWAP2 SWAP1 POP JUMP JUMPDEST PUSH32 0x64732D6D6174682D7375622D756E646572666C6F770000000000000000000000 PUSH1 0x0 DUP3 ADD MSTORE POP JUMP JUMPDEST PUSH1 0x0 PUSH2 0x4DCC PUSH1 0x15 DUP4 PUSH2 0x3ECC JUMP JUMPDEST SWAP2 POP PUSH2 0x4DD7 DUP3 PUSH2 0x4D96 JUMP JUMPDEST PUSH1 0x20 DUP3 ADD SWAP1 POP SWAP2 SWAP1 POP JUMP JUMPDEST PUSH1 0x0 PUSH1 0x20 DUP3 ADD SWAP1 POP DUP2 DUP2 SUB PUSH1 0x0 DUP4 ADD MSTORE PUSH2 0x4DFB DUP2 PUSH2 0x4DBF JUMP JUMPDEST SWAP1 POP SWAP2 SWAP1 POP JUMP INVALID LOG2 PUSH5 0x6970667358 0x22 SLT KECCAK256 0xEA SWAP15 GAS ADDMOD PUSH13 0x98D54E8CFB5EF53FA8425DBFAD RETURNDATACOPY ISZERO 0xE9 0x5D DUP10 PUSH11 0x7A33B61DCA8DA93664736F PUSH13 0x63430008120033000000000000 "
		},
		"gasEstimates": {
			"creation": {
				"codeDepositCost": "4004800",
				"executionCost": "infinite",
				"totalCost": "infinite"
			},
			"external": {
				"WETH()": "infinite",
				"addLiquidity(address,address,uint256,uint256,uint256,uint256,address,uint256)": "infinite",
				"addLiquidityETH(address,uint256,uint256,uint256,address,uint256)": "infinite",
				"factory()": "infinite",
				"getAmountIn(uint256,uint256,uint256)": "infinite",
				"getAmountOut(uint256,uint256,uint256)": "infinite",
				"getAmountsIn(uint256,address[])": "infinite",
				"getAmountsOut(uint256,address[])": "infinite",
				"getLiquidityAmount(address,address,address)": "infinite",
				"getReserve(address,address)": "infinite",
				"quote(uint256,uint256,uint256)": "infinite",
				"removeLiquidity(address,address,uint256,uint256,uint256,address,uint256)": "infinite",
				"removeLiquidityETH(address,uint256,uint256,uint256,address,uint256)": "infinite",
				"swapETHForExactTokens(uint256,address[],address,uint256)": "infinite",
				"swapExactETHForTokens(uint256,address[],address,uint256)": "infinite",
				"swapExactTokensForETH(uint256,uint256,address[],address,uint256)": "infinite",
				"swapExactTokensForTokens(uint256,uint256,address[],address,uint256)": "infinite",
				"swapTokensForExactETH(uint256,uint256,address[],address,uint256)": "infinite",
				"swapTokensForExactTokens(uint256,uint256,address[],address,uint256)": "infinite"
			},
			"internal": {
				"_addLiquidity(address,address,uint256,uint256,uint256,uint256)": "infinite",
				"_swap(uint256[] memory,address[] memory,address)": "infinite"
			}
		},
		"methodIdentifiers": {
			"WETH()": "ad5c4648",
			"addLiquidity(address,address,uint256,uint256,uint256,uint256,address,uint256)": "e8e33700",
			"addLiquidityETH(address,uint256,uint256,uint256,address,uint256)": "f305d719",
			"factory()": "c45a0155",
			"getAmountIn(uint256,uint256,uint256)": "85f8c259",
			"getAmountOut(uint256,uint256,uint256)": "054d50d4",
			"getAmountsIn(uint256,address[])": "1f00ca74",
			"getAmountsOut(uint256,address[])": "d06ca61f",
			"getLiquidityAmount(address,address,address)": "f09a5a9d",
			"getReserve(address,address)": "cbc3ab53",
			"quote(uint256,uint256,uint256)": "ad615dec",
			"removeLiquidity(address,address,uint256,uint256,uint256,address,uint256)": "baa2abde",
			"removeLiquidityETH(address,uint256,uint256,uint256,address,uint256)": "02751cec",
			"swapETHForExactTokens(uint256,address[],address,uint256)": "fb3bdb41",
			"swapExactETHForTokens(uint256,address[],address,uint256)": "7ff36ab5",
			"swapExactTokensForETH(uint256,uint256,address[],address,uint256)": "18cbafe5",
			"swapExactTokensForTokens(uint256,uint256,address[],address,uint256)": "38ed1739",
			"swapTokensForExactETH(uint256,uint256,address[],address,uint256)": "4a25d94a",
			"swapTokensForExactTokens(uint256,uint256,address[],address,uint256)": "8803dbee"
		}
	},
	"abi": [
		{
			"inputs": [
				{
					"internalType": "address",
					"name": "_factory",
					"type": "address"
				},
				{
					"internalType": "address",
					"name": "_WETH",
					"type": "address"
				}
			],
			"stateMutability": "nonpayable",
			"type": "constructor"
		},
		{
			"inputs": [],
			"name": "WETH",
			"outputs": [
				{
					"internalType": "address",
					"name": "",
					"type": "address"
				}
			],
			"stateMutability": "view",
			"type": "function"
		},
		{
			"inputs": [
				{
					"internalType": "address",
					"name": "tokenA",
					"type": "address"
				},
				{
					"internalType": "address",
					"name": "tokenB",
					"type": "address"
				},
				{
					"internalType": "uint256",
					"name": "amountADesired",
					"type": "uint256"
				},
				{
					"internalType": "uint256",
					"name": "amountBDesired",
					"type": "uint256"
				},
				{
					"internalType": "uint256",
					"name": "amountAMin",
					"type": "uint256"
				},
				{
					"internalType": "uint256",
					"name": "amountBMin",
					"type": "uint256"
				},
				{
					"internalType": "address",
					"name": "to",
					"type": "address"
				},
				{
					"internalType": "uint256",
					"name": "deadline",
					"type": "uint256"
				}
			],
			"name": "addLiquidity",
			"outputs": [
				{
					"internalType": "uint256",
					"name": "amountA",
					"type": "uint256"
				},
				{
					"internalType": "uint256",
					"name": "amountB",
					"type": "uint256"
				},
				{
					"internalType": "uint256",
					"name": "liquidity",
					"type": "uint256"
				}
			],
			"stateMutability": "nonpayable",
			"type": "function"
		},
		{
			"inputs": [
				{
					"internalType": "address",
					"name": "token",
					"type": "address"
				},
				{
					"internalType": "uint256",
					"name": "amountTokenDesired",
					"type": "uint256"
				},
				{
					"internalType": "uint256",
					"name": "amountTokenMin",
					"type": "uint256"
				},
				{
					"internalType": "uint256",
					"name": "amountETHMin",
					"type": "uint256"
				},
				{
					"internalType": "address",
					"name": "to",
					"type": "address"
				},
				{
					"internalType": "uint256",
					"name": "deadline",
					"type": "uint256"
				}
			],
			"name": "addLiquidityETH",
			"outputs": [
				{
					"internalType": "uint256",
					"name": "amountToken",
					"type": "uint256"
				},
				{
					"internalType": "uint256",
					"name": "amountETH",
					"type": "uint256"
				},
				{
					"internalType": "uint256",
					"name": "liquidity",
					"type": "uint256"
				}
			],
			"stateMutability": "payable",
			"type": "function"
		},
		{
			"inputs": [],
			"name": "factory",
			"outputs": [
				{
					"internalType": "address",
					"name": "",
					"type": "address"
				}
			],
			"stateMutability": "view",
			"type": "function"
		},
		{
			"inputs": [
				{
					"internalType": "uint256",
					"name": "amountOut",
					"type": "uint256"
				},
				{
					"internalType": "uint256",
					"name": "reserveIn",
					"type": "uint256"
				},
				{
					"internalType": "uint256",
					"name": "reserveOut",
					"type": "uint256"
				}
			],
			"name": "getAmountIn",
			"outputs": [
				{
					"internalType": "uint256",
					"name": "amountIn",
					"type": "uint256"
				}
			],
			"stateMutability": "pure",
			"type": "function"
		},
		{
			"inputs": [
				{
					"internalType": "uint256",
					"name": "amountIn",
					"type": "uint256"
				},
				{
					"internalType": "uint256",
					"name": "reserveIn",
					"type": "uint256"
				},
				{
					"internalType": "uint256",
					"name": "reserveOut",
					"type": "uint256"
				}
			],
			"name": "getAmountOut",
			"outputs": [
				{
					"internalType": "uint256",
					"name": "amountOut",
					"type": "uint256"
				}
			],
			"stateMutability": "pure",
			"type": "function"
		},
		{
			"inputs": [
				{
					"internalType": "uint256",
					"name": "amountOut",
					"type": "uint256"
				},
				{
					"internalType": "address[]",
					"name": "path",
					"type": "address[]"
				}
			],
			"name": "getAmountsIn",
			"outputs": [
				{
					"internalType": "uint256[]",
					"name": "amounts",
					"type": "uint256[]"
				}
			],
			"stateMutability": "view",
			"type": "function"
		},
		{
			"inputs": [
				{
					"internalType": "uint256",
					"name": "amountIn",
					"type": "uint256"
				},
				{
					"internalType": "address[]",
					"name": "path",
					"type": "address[]"
				}
			],
			"name": "getAmountsOut",
			"outputs": [
				{
					"internalType": "uint256[]",
					"name": "amounts",
					"type": "uint256[]"
				}
			],
			"stateMutability": "view",
			"type": "function"
		},
		{
			"inputs": [
				{
					"internalType": "address",
					"name": "user",
					"type": "address"
				},
				{
					"internalType": "address",
					"name": "tokenA",
					"type": "address"
				},
				{
					"internalType": "address",
					"name": "tokenB",
					"type": "address"
				}
			],
			"name": "getLiquidityAmount",
			"outputs": [
				{
					"internalType": "uint256",
					"name": "liqAmount",
					"type": "uint256"
				}
			],
			"stateMutability": "view",
			"type": "function"
		},
		{
			"inputs": [
				{
					"internalType": "address",
					"name": "tokenA",
					"type": "address"
				},
				{
					"internalType": "address",
					"name": "tokenB",
					"type": "address"
				}
			],
			"name": "getReserve",
			"outputs": [
				{
					"internalType": "uint256",
					"name": "reserveA",
					"type": "uint256"
				},
				{
					"internalType": "uint256",
					"name": "reserveB",
					"type": "uint256"
				}
			],
			"stateMutability": "view",
			"type": "function"
		},
		{
			"inputs": [
				{
					"internalType": "uint256",
					"name": "amountA",
					"type": "uint256"
				},
				{
					"internalType": "uint256",
					"name": "reserveA",
					"type": "uint256"
				},
				{
					"internalType": "uint256",
					"name": "reserveB",
					"type": "uint256"
				}
			],
			"name": "quote",
			"outputs": [
				{
					"internalType": "uint256",
					"name": "amountB",
					"type": "uint256"
				}
			],
			"stateMutability": "pure",
			"type": "function"
		},
		{
			"inputs": [
				{
					"internalType": "address",
					"name": "tokenA",
					"type": "address"
				},
				{
					"internalType": "address",
					"name": "tokenB",
					"type": "address"
				},
				{
					"internalType": "uint256",
					"name": "liquidity",
					"type": "uint256"
				},
				{
					"internalType": "uint256",
					"name": "amountAMin",
					"type": "uint256"
				},
				{
					"internalType": "uint256",
					"name": "amountBMin",
					"type": "uint256"
				},
				{
					"internalType": "address",
					"name": "to",
					"type": "address"
				},
				{
					"internalType": "uint256",
					"name": "deadline",
					"type": "uint256"
				}
			],
			"name": "removeLiquidity",
			"outputs": [
				{
					"internalType": "uint256",
					"name": "amountA",
					"type": "uint256"
				},
				{
					"internalType": "uint256",
					"name": "amountB",
					"type": "uint256"
				}
			],
			"stateMutability": "nonpayable",
			"type": "function"
		},
		{
			"inputs": [
				{
					"internalType": "address",
					"name": "token",
					"type": "address"
				},
				{
					"internalType": "uint256",
					"name": "liquidity",
					"type": "uint256"
				},
				{
					"internalType": "uint256",
					"name": "amountTokenMin",
					"type": "uint256"
				},
				{
					"internalType": "uint256",
					"name": "amountETHMin",
					"type": "uint256"
				},
				{
					"internalType": "address",
					"name": "to",
					"type": "address"
				},
				{
					"internalType": "uint256",
					"name": "deadline",
					"type": "uint256"
				}
			],
			"name": "removeLiquidityETH",
			"outputs": [
				{
					"internalType": "uint256",
					"name": "amountToken",
					"type": "uint256"
				},
				{
					"internalType": "uint256",
					"name": "amountETH",
					"type": "uint256"
				}
			],
			"stateMutability": "nonpayable",
			"type": "function"
		},
		{
			"inputs": [
				{
					"internalType": "uint256",
					"name": "amountOut",
					"type": "uint256"
				},
				{
					"internalType": "address[]",
					"name": "path",
					"type": "address[]"
				},
				{
					"internalType": "address",
					"name": "to",
					"type": "address"
				},
				{
					"internalType": "uint256",
					"name": "deadline",
					"type": "uint256"
				}
			],
			"name": "swapETHForExactTokens",
			"outputs": [
				{
					"internalType": "uint256[]",
					"name": "amounts",
					"type": "uint256[]"
				}
			],
			"stateMutability": "payable",
			"type": "function"
		},
		{
			"inputs": [
				{
					"internalType": "uint256",
					"name": "amountOutMin",
					"type": "uint256"
				},
				{
					"internalType": "address[]",
					"name": "path",
					"type": "address[]"
				},
				{
					"internalType": "address",
					"name": "to",
					"type": "address"
				},
				{
					"internalType": "uint256",
					"name": "deadline",
					"type": "uint256"
				}
			],
			"name": "swapExactETHForTokens",
			"outputs": [
				{
					"internalType": "uint256[]",
					"name": "amounts",
					"type": "uint256[]"
				}
			],
			"stateMutability": "payable",
			"type": "function"
		},
		{
			"inputs": [
				{
					"internalType": "uint256",
					"name": "amountIn",
					"type": "uint256"
				},
				{
					"internalType": "uint256",
					"name": "amountOutMin",
					"type": "uint256"
				},
				{
					"internalType": "address[]",
					"name": "path",
					"type": "address[]"
				},
				{
					"internalType": "address",
					"name": "to",
					"type": "address"
				},
				{
					"internalType": "uint256",
					"name": "deadline",
					"type": "uint256"
				}
			],
			"name": "swapExactTokensForETH",
			"outputs": [
				{
					"internalType": "uint256[]",
					"name": "amounts",
					"type": "uint256[]"
				}
			],
			"stateMutability": "nonpayable",
			"type": "function"
		},
		{
			"inputs": [
				{
					"internalType": "uint256",
					"name": "amountIn",
					"type": "uint256"
				},
				{
					"internalType": "uint256",
					"name": "amountOutMin",
					"type": "uint256"
				},
				{
					"internalType": "address[]",
					"name": "path",
					"type": "address[]"
				},
				{
					"internalType": "address",
					"name": "to",
					"type": "address"
				},
				{
					"internalType": "uint256",
					"name": "deadline",
					"type": "uint256"
				}
			],
			"name": "swapExactTokensForTokens",
			"outputs": [
				{
					"internalType": "uint256[]",
					"name": "amounts",
					"type": "uint256[]"
				}
			],
			"stateMutability": "nonpayable",
			"type": "function"
		},
		{
			"inputs": [
				{
					"internalType": "uint256",
					"name": "amountOut",
					"type": "uint256"
				},
				{
					"internalType": "uint256",
					"name": "amountInMax",
					"type": "uint256"
				},
				{
					"internalType": "address[]",
					"name": "path",
					"type": "address[]"
				},
				{
					"internalType": "address",
					"name": "to",
					"type": "address"
				},
				{
					"internalType": "uint256",
					"name": "deadline",
					"type": "uint256"
				}
			],
			"name": "swapTokensForExactETH",
			"outputs": [
				{
					"internalType": "uint256[]",
					"name": "amounts",
					"type": "uint256[]"
				}
			],
			"stateMutability": "nonpayable",
			"type": "function"
		},
		{
			"inputs": [
				{
					"internalType": "uint256",
					"name": "amountOut",
					"type": "uint256"
				},
				{
					"internalType": "uint256",
					"name": "amountInMax",
					"type": "uint256"
				},
				{
					"internalType": "address[]",
					"name": "path",
					"type": "address[]"
				},
				{
					"internalType": "address",
					"name": "to",
					"type": "address"
				},
				{
					"internalType": "uint256",
					"name": "deadline",
					"type": "uint256"
				}
			],
			"name": "swapTokensForExactTokens",
			"outputs": [
				{
					"internalType": "uint256[]",
					"name": "amounts",
					"type": "uint256[]"
				}
			],
			"stateMutability": "nonpayable",
			"type": "function"
		},
		{
			"stateMutability": "payable",
			"type": "receive"
		}
	]
}