{
	"Core/StakingPool.sol": {
		"StakingPool": {
			"abi": [
				{
					"inputs": [
						{
							"internalType": "address",
							"name": "_stakingToken",
							"type": "address"
						},
						{
							"internalType": "address",
							"name": "_rewardsToken",
							"type": "address"
						}
					],
					"stateMutability": "nonpayable",
					"type": "constructor"
				},
				{
					"inputs": [],
					"name": "_totalSupply",
					"outputs": [
						{
							"internalType": "uint256",
							"name": "",
							"type": "uint256"
						}
					],
					"stateMutability": "view",
					"type": "function"
				},
				{
					"inputs": [
						{
							"internalType": "address",
							"name": "account",
							"type": "address"
						}
					],
					"name": "earned",
					"outputs": [
						{
							"internalType": "uint256",
							"name": "",
							"type": "uint256"
						}
					],
					"stateMutability": "view",
					"type": "function"
				},
				{
					"inputs": [],
					"name": "lastUpdateTime",
					"outputs": [
						{
							"internalType": "uint256",
							"name": "",
							"type": "uint256"
						}
					],
					"stateMutability": "view",
					"type": "function"
				},
				{
					"inputs": [
						{
							"internalType": "address",
							"name": "user",
							"type": "address"
						}
					],
					"name": "reedemReward",
					"outputs": [],
					"stateMutability": "nonpayable",
					"type": "function"
				},
				{
					"inputs": [],
					"name": "rewardPerToken",
					"outputs": [
						{
							"internalType": "uint256",
							"name": "",
							"type": "uint256"
						}
					],
					"stateMutability": "view",
					"type": "function"
				},
				{
					"inputs": [],
					"name": "rewardPerTokenStored",
					"outputs": [
						{
							"internalType": "uint256",
							"name": "",
							"type": "uint256"
						}
					],
					"stateMutability": "view",
					"type": "function"
				},
				{
					"inputs": [],
					"name": "rewardRate",
					"outputs": [
						{
							"internalType": "uint256",
							"name": "",
							"type": "uint256"
						}
					],
					"stateMutability": "view",
					"type": "function"
				},
				{
					"inputs": [
						{
							"internalType": "address",
							"name": "",
							"type": "address"
						}
					],
					"name": "rewards",
					"outputs": [
						{
							"internalType": "uint256",
							"name": "",
							"type": "uint256"
						}
					],
					"stateMutability": "view",
					"type": "function"
				},
				{
					"inputs": [
						{
							"internalType": "address",
							"name": "",
							"type": "address"
						}
					],
					"name": "rewardsPerTokenPaid",
					"outputs": [
						{
							"internalType": "uint256",
							"name": "",
							"type": "uint256"
						}
					],
					"stateMutability": "view",
					"type": "function"
				},
				{
					"inputs": [],
					"name": "rewardsToken",
					"outputs": [
						{
							"internalType": "contract IERC20",
							"name": "",
							"type": "address"
						}
					],
					"stateMutability": "view",
					"type": "function"
				},
				{
					"inputs": [
						{
							"internalType": "uint256",
							"name": "_amount",
							"type": "uint256"
						},
						{
							"internalType": "address",
							"name": "user",
							"type": "address"
						}
					],
					"name": "stake",
					"outputs": [],
					"stateMutability": "nonpayable",
					"type": "function"
				},
				{
					"inputs": [
						{
							"internalType": "address",
							"name": "",
							"type": "address"
						}
					],
					"name": "staked",
					"outputs": [
						{
							"internalType": "uint256",
							"name": "",
							"type": "uint256"
						}
					],
					"stateMutability": "view",
					"type": "function"
				},
				{
					"inputs": [],
					"name": "stakingToken",
					"outputs": [
						{
							"internalType": "contract IERC20",
							"name": "",
							"type": "address"
						}
					],
					"stateMutability": "view",
					"type": "function"
				},
				{
					"inputs": [
						{
							"internalType": "uint256",
							"name": "_amount",
							"type": "uint256"
						},
						{
							"internalType": "address",
							"name": "user",
							"type": "address"
						}
					],
					"name": "withdraw",
					"outputs": [],
					"stateMutability": "nonpayable",
					"type": "function"
				}
			],
			"devdoc": {
				"kind": "dev",
				"methods": {
					"earned(address)": {
						"details": "- to calculate the earned rewards for the token staked",
						"params": {
							"account": "- for which it is to be calculated"
						},
						"returns": {
							"_0": "uint -  amount of earned rewards"
						}
					},
					"reedemReward(address)": {
						"details": "to withdraw the reward token"
					},
					"rewardPerToken()": {
						"details": "- to calculate the amount of rewards per token staked at current instance",
						"returns": {
							"_0": "uint - the amount of rewardspertoken"
						}
					},
					"stake(uint256,address)": {
						"details": "to stake some amount of token",
						"params": {
							"_amount": "-  amount to be staked"
						}
					},
					"withdraw(uint256,address)": {
						"details": "to withdraw the staked amount",
						"params": {
							"_amount": "- amount to be withdrawn"
						}
					}
				},
				"version": 1
			},
			"evm": {
				"assembly": "    /* \"Core/StakingPool.sol\":286:3449  contract StakingPool {... */\n  mstore(0x40, 0x80)\n    /* \"Core/StakingPool.sol\":483:486  100 */\n  0x64\n    /* \"Core/StakingPool.sol\":455:486  uint256 public rewardRate = 100 */\n  0x02\n  sstore\n    /* \"Core/StakingPool.sol\":958:1115  constructor(address _stakingToken, address _rewardsToken) {... */\n  callvalue\n  dup1\n  iszero\n  tag_1\n  jumpi\n  0x00\n  dup1\n  revert\ntag_1:\n  pop\n  mload(0x40)\n  sub(codesize, bytecodeSize)\n  dup1\n  bytecodeSize\n  dup4\n  codecopy\n  dup2\n  dup2\n  add\n  0x40\n  mstore\n  dup2\n  add\n  swap1\n  tag_2\n  swap2\n  swap1\n  tag_3\n  jump\t// in\ntag_2:\n    /* \"Core/StakingPool.sol\":1048:1061  _stakingToken */\n  dup2\n    /* \"Core/StakingPool.sol\":1026:1038  stakingToken */\n  0x01\n  0x00\n    /* \"Core/StakingPool.sol\":1026:1062  stakingToken = IERC20(_stakingToken) */\n  0x0100\n  exp\n  dup2\n  sload\n  dup2\n  0xffffffffffffffffffffffffffffffffffffffff\n  mul\n  not\n  and\n  swap1\n  dup4\n  0xffffffffffffffffffffffffffffffffffffffff\n  and\n  mul\n  or\n  swap1\n  sstore\n  pop\n    /* \"Core/StakingPool.sol\":1094:1107  _rewardsToken */\n  dup1\n    /* \"Core/StakingPool.sol\":1072:1084  rewardsToken */\n  0x00\n  dup1\n    /* \"Core/StakingPool.sol\":1072:1108  rewardsToken = IERC20(_rewardsToken) */\n  0x0100\n  exp\n  dup2\n  sload\n  dup2\n  0xffffffffffffffffffffffffffffffffffffffff\n  mul\n  not\n  and\n  swap1\n  dup4\n  0xffffffffffffffffffffffffffffffffffffffff\n  and\n  mul\n  or\n  swap1\n  sstore\n  pop\n    /* \"Core/StakingPool.sol\":958:1115  constructor(address _stakingToken, address _rewardsToken) {... */\n  pop\n  pop\n    /* \"Core/StakingPool.sol\":286:3449  contract StakingPool {... */\n  jump(tag_6)\n    /* \"#utility.yul\":88:205   */\ntag_8:\n    /* \"#utility.yul\":197:198   */\n  0x00\n    /* \"#utility.yul\":194:195   */\n  dup1\n    /* \"#utility.yul\":187:199   */\n  revert\n    /* \"#utility.yul\":334:460   */\ntag_10:\n    /* \"#utility.yul\":371:378   */\n  0x00\n    /* \"#utility.yul\":411:453   */\n  0xffffffffffffffffffffffffffffffffffffffff\n    /* \"#utility.yul\":404:409   */\n  dup3\n    /* \"#utility.yul\":400:454   */\n  and\n    /* \"#utility.yul\":389:454   */\n  swap1\n  pop\n    /* \"#utility.yul\":334:460   */\n  swap2\n  swap1\n  pop\n  jump\t// out\n    /* \"#utility.yul\":466:562   */\ntag_11:\n    /* \"#utility.yul\":503:510   */\n  0x00\n    /* \"#utility.yul\":532:556   */\n  tag_20\n    /* \"#utility.yul\":550:555   */\n  dup3\n    /* \"#utility.yul\":532:556   */\n  tag_10\n  jump\t// in\ntag_20:\n    /* \"#utility.yul\":521:556   */\n  swap1\n  pop\n    /* \"#utility.yul\":466:562   */\n  swap2\n  swap1\n  pop\n  jump\t// out\n    /* \"#utility.yul\":568:690   */\ntag_12:\n    /* \"#utility.yul\":641:665   */\n  tag_22\n    /* \"#utility.yul\":659:664   */\n  dup2\n    /* \"#utility.yul\":641:665   */\n  tag_11\n  jump\t// in\ntag_22:\n    /* \"#utility.yul\":634:639   */\n  dup2\n    /* \"#utility.yul\":631:666   */\n  eq\n    /* \"#utility.yul\":621:684   */\n  tag_23\n  jumpi\n    /* \"#utility.yul\":680:681   */\n  0x00\n    /* \"#utility.yul\":677:678   */\n  dup1\n    /* \"#utility.yul\":670:682   */\n  revert\n    /* \"#utility.yul\":621:684   */\ntag_23:\n    /* \"#utility.yul\":568:690   */\n  pop\n  jump\t// out\n    /* \"#utility.yul\":696:839   */\ntag_13:\n    /* \"#utility.yul\":753:758   */\n  0x00\n    /* \"#utility.yul\":784:790   */\n  dup2\n    /* \"#utility.yul\":778:791   */\n  mload\n    /* \"#utility.yul\":769:791   */\n  swap1\n  pop\n    /* \"#utility.yul\":800:833   */\n  tag_25\n    /* \"#utility.yul\":827:832   */\n  dup2\n    /* \"#utility.yul\":800:833   */\n  tag_12\n  jump\t// in\ntag_25:\n    /* \"#utility.yul\":696:839   */\n  swap3\n  swap2\n  pop\n  pop\n  jump\t// out\n    /* \"#utility.yul\":845:1352   */\ntag_3:\n    /* \"#utility.yul\":924:930   */\n  0x00\n    /* \"#utility.yul\":932:938   */\n  dup1\n    /* \"#utility.yul\":981:983   */\n  0x40\n    /* \"#utility.yul\":969:978   */\n  dup4\n    /* \"#utility.yul\":960:967   */\n  dup6\n    /* \"#utility.yul\":956:979   */\n  sub\n    /* \"#utility.yul\":952:984   */\n  slt\n    /* \"#utility.yul\":949:1068   */\n  iszero\n  tag_27\n  jumpi\n    /* \"#utility.yul\":987:1066   */\n  tag_28\n  tag_8\n  jump\t// in\ntag_28:\n    /* \"#utility.yul\":949:1068   */\ntag_27:\n    /* \"#utility.yul\":1107:1108   */\n  0x00\n    /* \"#utility.yul\":1132:1196   */\n  tag_29\n    /* \"#utility.yul\":1188:1195   */\n  dup6\n    /* \"#utility.yul\":1179:1185   */\n  dup3\n    /* \"#utility.yul\":1168:1177   */\n  dup7\n    /* \"#utility.yul\":1164:1186   */\n  add\n    /* \"#utility.yul\":1132:1196   */\n  tag_13\n  jump\t// in\ntag_29:\n    /* \"#utility.yul\":1122:1196   */\n  swap3\n  pop\n    /* \"#utility.yul\":1078:1206   */\n  pop\n    /* \"#utility.yul\":1245:1247   */\n  0x20\n    /* \"#utility.yul\":1271:1335   */\n  tag_30\n    /* \"#utility.yul\":1327:1334   */\n  dup6\n    /* \"#utility.yul\":1318:1324   */\n  dup3\n    /* \"#utility.yul\":1307:1316   */\n  dup7\n    /* \"#utility.yul\":1303:1325   */\n  add\n    /* \"#utility.yul\":1271:1335   */\n  tag_13\n  jump\t// in\ntag_30:\n    /* \"#utility.yul\":1261:1335   */\n  swap2\n  pop\n    /* \"#utility.yul\":1216:1345   */\n  pop\n    /* \"#utility.yul\":845:1352   */\n  swap3\n  pop\n  swap3\n  swap1\n  pop\n  jump\t// out\n    /* \"Core/StakingPool.sol\":286:3449  contract StakingPool {... */\ntag_6:\n  dataSize(sub_0)\n  dup1\n  dataOffset(sub_0)\n  0x00\n  codecopy\n  0x00\n  return\nstop\n\nsub_0: assembly {\n        /* \"Core/StakingPool.sol\":286:3449  contract StakingPool {... */\n      mstore(0x40, 0x80)\n      callvalue\n      dup1\n      iszero\n      tag_1\n      jumpi\n      0x00\n      dup1\n      revert\n    tag_1:\n      pop\n      jumpi(tag_2, lt(calldatasize, 0x04))\n      shr(0xe0, calldataload(0x00))\n      dup1\n      0x7b0a47ee\n      gt\n      tag_17\n      jumpi\n      dup1\n      0xc8f33c91\n      gt\n      tag_18\n      jumpi\n      dup1\n      0xc8f33c91\n      eq\n      tag_13\n      jumpi\n      dup1\n      0xcd3daf9d\n      eq\n      tag_14\n      jumpi\n      dup1\n      0xd1af0c7d\n      eq\n      tag_15\n      jumpi\n      dup1\n      0xdf136d65\n      eq\n      tag_16\n      jumpi\n      jump(tag_2)\n    tag_18:\n      dup1\n      0x7b0a47ee\n      eq\n      tag_10\n      jumpi\n      dup1\n      0x95d7885b\n      eq\n      tag_11\n      jumpi\n      dup1\n      0x98807d84\n      eq\n      tag_12\n      jumpi\n      jump(tag_2)\n    tag_17:\n      dup1\n      0x3eaaf86b\n      gt\n      tag_19\n      jumpi\n      dup1\n      0x3eaaf86b\n      eq\n      tag_6\n      jumpi\n      dup1\n      0x6447c5a2\n      eq\n      tag_7\n      jumpi\n      dup1\n      0x72f702f3\n      eq\n      tag_8\n      jumpi\n      dup1\n      0x7acb7757\n      eq\n      tag_9\n      jumpi\n      jump(tag_2)\n    tag_19:\n      dup1\n      0x8cc262\n      eq\n      tag_3\n      jumpi\n      dup1\n      0xf714ce\n      eq\n      tag_4\n      jumpi\n      dup1\n      0x0700037d\n      eq\n      tag_5\n      jumpi\n    tag_2:\n      0x00\n      dup1\n      revert\n        /* \"Core/StakingPool.sol\":1742:2073  function earned(address account) public view returns (uint256) {... */\n    tag_3:\n      tag_20\n      0x04\n      dup1\n      calldatasize\n      sub\n      dup2\n      add\n      swap1\n      tag_21\n      swap2\n      swap1\n      tag_22\n      jump\t// in\n    tag_21:\n      tag_23\n      jump\t// in\n    tag_20:\n      mload(0x40)\n      tag_24\n      swap2\n      swap1\n      tag_25\n      jump\t// in\n    tag_24:\n      mload(0x40)\n      dup1\n      swap2\n      sub\n      swap1\n      return\n        /* \"Core/StakingPool.sol\":2994:3210  function withdraw(uint256 _amount, address user)... */\n    tag_4:\n      tag_26\n      0x04\n      dup1\n      calldatasize\n      sub\n      dup2\n      add\n      swap1\n      tag_27\n      swap2\n      swap1\n      tag_28\n      jump\t// in\n    tag_27:\n      tag_29\n      jump\t// in\n    tag_26:\n      stop\n        /* \"Core/StakingPool.sol\":616:658  mapping(address => uint256) public rewards */\n    tag_5:\n      tag_30\n      0x04\n      dup1\n      calldatasize\n      sub\n      dup2\n      add\n      swap1\n      tag_31\n      swap2\n      swap1\n      tag_22\n      jump\t// in\n    tag_31:\n      tag_32\n      jump\t// in\n    tag_30:\n      mload(0x40)\n      tag_33\n      swap2\n      swap1\n      tag_25\n      jump\t// in\n    tag_33:\n      mload(0x40)\n      dup1\n      swap2\n      sub\n      swap1\n      return\n        /* \"Core/StakingPool.sol\":924:951  uint256 public _totalSupply */\n    tag_6:\n      tag_34\n      tag_35\n      jump\t// in\n    tag_34:\n      mload(0x40)\n      tag_36\n      swap2\n      swap1\n      tag_25\n      jump\t// in\n    tag_36:\n      mload(0x40)\n      dup1\n      swap2\n      sub\n      swap1\n      return\n        /* \"Core/StakingPool.sol\":3258:3447  function reedemReward(address user) external updateReward(msg.sender) {... */\n    tag_7:\n      tag_37\n      0x04\n      dup1\n      calldatasize\n      sub\n      dup2\n      add\n      swap1\n      tag_38\n      swap2\n      swap1\n      tag_22\n      jump\t// in\n    tag_38:\n      tag_39\n      jump\t// in\n    tag_37:\n      stop\n        /* \"Core/StakingPool.sol\":370:396  IERC20 public stakingToken */\n    tag_8:\n      tag_40\n      tag_41\n      jump\t// in\n    tag_40:\n      mload(0x40)\n      tag_42\n      swap2\n      swap1\n      tag_43\n      jump\t// in\n    tag_42:\n      mload(0x40)\n      dup1\n      swap2\n      sub\n      swap1\n      return\n        /* \"Core/StakingPool.sol\":2657:2897  function stake(uint256 _amount, address user) external updateReward(user) {... */\n    tag_9:\n      tag_44\n      0x04\n      dup1\n      calldatasize\n      sub\n      dup2\n      add\n      swap1\n      tag_45\n      swap2\n      swap1\n      tag_28\n      jump\t// in\n    tag_45:\n      tag_46\n      jump\t// in\n    tag_44:\n      stop\n        /* \"Core/StakingPool.sol\":455:486  uint256 public rewardRate = 100 */\n    tag_10:\n      tag_47\n      tag_48\n      jump\t// in\n    tag_47:\n      mload(0x40)\n      tag_49\n      swap2\n      swap1\n      tag_25\n      jump\t// in\n    tag_49:\n      mload(0x40)\n      dup1\n      swap2\n      sub\n      swap1\n      return\n        /* \"Core/StakingPool.sol\":711:765  mapping(address => uint256) public rewardsPerTokenPaid */\n    tag_11:\n      tag_50\n      0x04\n      dup1\n      calldatasize\n      sub\n      dup2\n      add\n      swap1\n      tag_51\n      swap2\n      swap1\n      tag_22\n      jump\t// in\n    tag_51:\n      tag_52\n      jump\t// in\n    tag_50:\n      mload(0x40)\n      tag_53\n      swap2\n      swap1\n      tag_25\n      jump\t// in\n    tag_53:\n      mload(0x40)\n      dup1\n      swap2\n      sub\n      swap1\n      return\n        /* \"Core/StakingPool.sol\":819:860  mapping(address => uint256) public staked */\n    tag_12:\n      tag_54\n      0x04\n      dup1\n      calldatasize\n      sub\n      dup2\n      add\n      swap1\n      tag_55\n      swap2\n      swap1\n      tag_22\n      jump\t// in\n    tag_55:\n      tag_56\n      jump\t// in\n    tag_54:\n      mload(0x40)\n      tag_57\n      swap2\n      swap1\n      tag_25\n      jump\t// in\n    tag_57:\n      mload(0x40)\n      dup1\n      swap2\n      sub\n      swap1\n      return\n        /* \"Core/StakingPool.sol\":493:522  uint256 public lastUpdateTime */\n    tag_13:\n      tag_58\n      tag_59\n      jump\t// in\n    tag_58:\n      mload(0x40)\n      tag_60\n      swap2\n      swap1\n      tag_25\n      jump\t// in\n    tag_60:\n      mload(0x40)\n      dup1\n      swap2\n      sub\n      swap1\n      return\n        /* \"Core/StakingPool.sol\":1261:1561  function rewardPerToken() public view returns (uint256) {... */\n    tag_14:\n      tag_61\n      tag_62\n      jump\t// in\n    tag_61:\n      mload(0x40)\n      tag_63\n      swap2\n      swap1\n      tag_25\n      jump\t// in\n    tag_63:\n      mload(0x40)\n      dup1\n      swap2\n      sub\n      swap1\n      return\n        /* \"Core/StakingPool.sol\":338:364  IERC20 public rewardsToken */\n    tag_15:\n      tag_64\n      tag_65\n      jump\t// in\n    tag_64:\n      mload(0x40)\n      tag_66\n      swap2\n      swap1\n      tag_43\n      jump\t// in\n    tag_66:\n      mload(0x40)\n      dup1\n      swap2\n      sub\n      swap1\n      return\n        /* \"Core/StakingPool.sol\":528:563  uint256 public rewardPerTokenStored */\n    tag_16:\n      tag_67\n      tag_68\n      jump\t// in\n    tag_67:\n      mload(0x40)\n      tag_69\n      swap2\n      swap1\n      tag_25\n      jump\t// in\n    tag_69:\n      mload(0x40)\n      dup1\n      swap2\n      sub\n      swap1\n      return\n        /* \"Core/StakingPool.sol\":1742:2073  function earned(address account) public view returns (uint256) {... */\n    tag_23:\n        /* \"Core/StakingPool.sol\":1796:1803  uint256 */\n      0x00\n        /* \"Core/StakingPool.sol\":2050:2057  rewards */\n      0x05\n        /* \"Core/StakingPool.sol\":2050:2066  rewards[account] */\n      0x00\n        /* \"Core/StakingPool.sol\":2058:2065  account */\n      dup4\n        /* \"Core/StakingPool.sol\":2050:2066  rewards[account] */\n      0xffffffffffffffffffffffffffffffffffffffff\n      and\n      0xffffffffffffffffffffffffffffffffffffffff\n      and\n      dup2\n      mstore\n      0x20\n      add\n      swap1\n      dup2\n      mstore\n      0x20\n      add\n      0x00\n      keccak256\n      sload\n        /* \"Core/StakingPool.sol\":2030:2034  1e18 */\n      0x0de0b6b3a7640000\n        /* \"Core/StakingPool.sol\":1997:2016  rewardsPerTokenPaid */\n      0x06\n        /* \"Core/StakingPool.sol\":1997:2025  rewardsPerTokenPaid[account] */\n      0x00\n        /* \"Core/StakingPool.sol\":2017:2024  account */\n      dup6\n        /* \"Core/StakingPool.sol\":1997:2025  rewardsPerTokenPaid[account] */\n      0xffffffffffffffffffffffffffffffffffffffff\n      and\n      0xffffffffffffffffffffffffffffffffffffffff\n      and\n      dup2\n      mstore\n      0x20\n      add\n      swap1\n      dup2\n      mstore\n      0x20\n      add\n      0x00\n      keccak256\n      sload\n        /* \"Core/StakingPool.sol\":1978:1994  rewardPerToken() */\n      tag_71\n        /* \"Core/StakingPool.sol\":1978:1992  rewardPerToken */\n      tag_62\n        /* \"Core/StakingPool.sol\":1978:1994  rewardPerToken() */\n      jump\t// in\n    tag_71:\n        /* \"Core/StakingPool.sol\":1978:2025  rewardPerToken() - rewardsPerTokenPaid[account] */\n      tag_72\n      swap2\n      swap1\n      tag_73\n      jump\t// in\n    tag_72:\n        /* \"Core/StakingPool.sol\":1943:1949  staked */\n      0x07\n        /* \"Core/StakingPool.sol\":1943:1958  staked[account] */\n      0x00\n        /* \"Core/StakingPool.sol\":1950:1957  account */\n      dup7\n        /* \"Core/StakingPool.sol\":1943:1958  staked[account] */\n      0xffffffffffffffffffffffffffffffffffffffff\n      and\n      0xffffffffffffffffffffffffffffffffffffffff\n      and\n      dup2\n      mstore\n      0x20\n      add\n      swap1\n      dup2\n      mstore\n      0x20\n      add\n      0x00\n      keccak256\n      sload\n        /* \"Core/StakingPool.sol\":1943:2026  staked[account] *... */\n      tag_74\n      swap2\n      swap1\n      tag_75\n      jump\t// in\n    tag_74:\n        /* \"Core/StakingPool.sol\":1942:2034  (staked[account] *... */\n      tag_76\n      swap2\n      swap1\n      tag_77\n      jump\t// in\n    tag_76:\n        /* \"Core/StakingPool.sol\":1941:2066  ((staked[account] *... */\n      tag_78\n      swap2\n      swap1\n      tag_79\n      jump\t// in\n    tag_78:\n        /* \"Core/StakingPool.sol\":1922:2066  return... */\n      swap1\n      pop\n        /* \"Core/StakingPool.sol\":1742:2073  function earned(address account) public view returns (uint256) {... */\n      swap2\n      swap1\n      pop\n      jump\t// out\n        /* \"Core/StakingPool.sol\":2994:3210  function withdraw(uint256 _amount, address user)... */\n    tag_29:\n        /* \"Core/StakingPool.sol\":3081:3085  user */\n      dup1\n        /* \"Core/StakingPool.sol\":2264:2280  rewardPerToken() */\n      tag_81\n        /* \"Core/StakingPool.sol\":2264:2278  rewardPerToken */\n      tag_62\n        /* \"Core/StakingPool.sol\":2264:2280  rewardPerToken() */\n      jump\t// in\n    tag_81:\n        /* \"Core/StakingPool.sol\":2241:2261  rewardPerTokenStored */\n      0x04\n        /* \"Core/StakingPool.sol\":2241:2280  rewardPerTokenStored = rewardPerToken() */\n      dup2\n      swap1\n      sstore\n      pop\n        /* \"Core/StakingPool.sol\":2307:2322  block.timestamp */\n      timestamp\n        /* \"Core/StakingPool.sol\":2290:2304  lastUpdateTime */\n      0x03\n        /* \"Core/StakingPool.sol\":2290:2322  lastUpdateTime = block.timestamp */\n      dup2\n      swap1\n      sstore\n      pop\n        /* \"Core/StakingPool.sol\":2409:2424  earned(account) */\n      tag_82\n        /* \"Core/StakingPool.sol\":2416:2423  account */\n      dup2\n        /* \"Core/StakingPool.sol\":2409:2415  earned */\n      tag_23\n        /* \"Core/StakingPool.sol\":2409:2424  earned(account) */\n      jump\t// in\n    tag_82:\n        /* \"Core/StakingPool.sol\":2390:2397  rewards */\n      0x05\n        /* \"Core/StakingPool.sol\":2390:2406  rewards[account] */\n      0x00\n        /* \"Core/StakingPool.sol\":2398:2405  account */\n      dup4\n        /* \"Core/StakingPool.sol\":2390:2406  rewards[account] */\n      0xffffffffffffffffffffffffffffffffffffffff\n      and\n      0xffffffffffffffffffffffffffffffffffffffff\n      and\n      dup2\n      mstore\n      0x20\n      add\n      swap1\n      dup2\n      mstore\n      0x20\n      add\n      0x00\n      keccak256\n        /* \"Core/StakingPool.sol\":2390:2424  rewards[account] = earned(account) */\n      dup2\n      swap1\n      sstore\n      pop\n        /* \"Core/StakingPool.sol\":2524:2544  rewardPerTokenStored */\n      sload(0x04)\n        /* \"Core/StakingPool.sol\":2493:2512  rewardsPerTokenPaid */\n      0x06\n        /* \"Core/StakingPool.sol\":2493:2521  rewardsPerTokenPaid[account] */\n      0x00\n        /* \"Core/StakingPool.sol\":2513:2520  account */\n      dup4\n        /* \"Core/StakingPool.sol\":2493:2521  rewardsPerTokenPaid[account] */\n      0xffffffffffffffffffffffffffffffffffffffff\n      and\n      0xffffffffffffffffffffffffffffffffffffffff\n      and\n      dup2\n      mstore\n      0x20\n      add\n      swap1\n      dup2\n      mstore\n      0x20\n      add\n      0x00\n      keccak256\n        /* \"Core/StakingPool.sol\":2493:2544  rewardsPerTokenPaid[account] = rewardPerTokenStored */\n      dup2\n      swap1\n      sstore\n      pop\n        /* \"Core/StakingPool.sol\":3117:3124  _amount */\n      dup3\n        /* \"Core/StakingPool.sol\":3101:3113  _totalSupply */\n      0x08\n      0x00\n        /* \"Core/StakingPool.sol\":3101:3124  _totalSupply -= _amount */\n      dup3\n      dup3\n      sload\n      tag_84\n      swap2\n      swap1\n      tag_73\n      jump\t// in\n    tag_84:\n      swap3\n      pop\n      pop\n      dup2\n      swap1\n      sstore\n      pop\n        /* \"Core/StakingPool.sol\":3150:3157  _amount */\n      dup3\n        /* \"Core/StakingPool.sol\":3134:3140  staked */\n      0x07\n        /* \"Core/StakingPool.sol\":3134:3146  staked[user] */\n      0x00\n        /* \"Core/StakingPool.sol\":3141:3145  user */\n      dup5\n        /* \"Core/StakingPool.sol\":3134:3146  staked[user] */\n      0xffffffffffffffffffffffffffffffffffffffff\n      and\n      0xffffffffffffffffffffffffffffffffffffffff\n      and\n      dup2\n      mstore\n      0x20\n      add\n      swap1\n      dup2\n      mstore\n      0x20\n      add\n      0x00\n      keccak256\n      0x00\n        /* \"Core/StakingPool.sol\":3134:3157  staked[user] -= _amount */\n      dup3\n      dup3\n      sload\n      tag_85\n      swap2\n      swap1\n      tag_73\n      jump\t// in\n    tag_85:\n      swap3\n      pop\n      pop\n      dup2\n      swap1\n      sstore\n      pop\n        /* \"Core/StakingPool.sol\":3167:3179  stakingToken */\n      0x01\n      0x00\n      swap1\n      sload\n      swap1\n      0x0100\n      exp\n      swap1\n      div\n      0xffffffffffffffffffffffffffffffffffffffff\n      and\n        /* \"Core/StakingPool.sol\":3167:3188  stakingToken.transfer */\n      0xffffffffffffffffffffffffffffffffffffffff\n      and\n      0xa9059cbb\n        /* \"Core/StakingPool.sol\":3189:3193  user */\n      dup4\n        /* \"Core/StakingPool.sol\":3195:3202  _amount */\n      dup6\n        /* \"Core/StakingPool.sol\":3167:3203  stakingToken.transfer(user, _amount) */\n      mload(0x40)\n      dup4\n      0xffffffff\n      and\n      0xe0\n      shl\n      dup2\n      mstore\n      0x04\n      add\n      tag_86\n      swap3\n      swap2\n      swap1\n      tag_87\n      jump\t// in\n    tag_86:\n      0x20\n      mload(0x40)\n      dup1\n      dup4\n      sub\n      dup2\n      0x00\n      dup8\n      gas\n      call\n      iszero\n      dup1\n      iszero\n      tag_89\n      jumpi\n      returndatasize\n      0x00\n      dup1\n      returndatacopy\n      revert(0x00, returndatasize)\n    tag_89:\n      pop\n      pop\n      pop\n      pop\n      mload(0x40)\n      returndatasize\n      not(0x1f)\n      0x1f\n      dup3\n      add\n      and\n      dup3\n      add\n      dup1\n      0x40\n      mstore\n      pop\n      dup2\n      add\n      swap1\n      tag_90\n      swap2\n      swap1\n      tag_91\n      jump\t// in\n    tag_90:\n      pop\n        /* \"Core/StakingPool.sol\":2994:3210  function withdraw(uint256 _amount, address user)... */\n      pop\n      pop\n      pop\n      jump\t// out\n        /* \"Core/StakingPool.sol\":616:658  mapping(address => uint256) public rewards */\n    tag_32:\n      mstore(0x20, 0x05)\n      dup1\n      0x00\n      mstore\n      keccak256(0x00, 0x40)\n      0x00\n      swap2\n      pop\n      swap1\n      pop\n      sload\n      dup2\n      jump\t// out\n        /* \"Core/StakingPool.sol\":924:951  uint256 public _totalSupply */\n    tag_35:\n      sload(0x08)\n      dup2\n      jump\t// out\n        /* \"Core/StakingPool.sol\":3258:3447  function reedemReward(address user) external updateReward(msg.sender) {... */\n    tag_39:\n        /* \"Core/StakingPool.sol\":3316:3326  msg.sender */\n      caller\n        /* \"Core/StakingPool.sol\":2264:2280  rewardPerToken() */\n      tag_93\n        /* \"Core/StakingPool.sol\":2264:2278  rewardPerToken */\n      tag_62\n        /* \"Core/StakingPool.sol\":2264:2280  rewardPerToken() */\n      jump\t// in\n    tag_93:\n        /* \"Core/StakingPool.sol\":2241:2261  rewardPerTokenStored */\n      0x04\n        /* \"Core/StakingPool.sol\":2241:2280  rewardPerTokenStored = rewardPerToken() */\n      dup2\n      swap1\n      sstore\n      pop\n        /* \"Core/StakingPool.sol\":2307:2322  block.timestamp */\n      timestamp\n        /* \"Core/StakingPool.sol\":2290:2304  lastUpdateTime */\n      0x03\n        /* \"Core/StakingPool.sol\":2290:2322  lastUpdateTime = block.timestamp */\n      dup2\n      swap1\n      sstore\n      pop\n        /* \"Core/StakingPool.sol\":2409:2424  earned(account) */\n      tag_94\n        /* \"Core/StakingPool.sol\":2416:2423  account */\n      dup2\n        /* \"Core/StakingPool.sol\":2409:2415  earned */\n      tag_23\n        /* \"Core/StakingPool.sol\":2409:2424  earned(account) */\n      jump\t// in\n    tag_94:\n        /* \"Core/StakingPool.sol\":2390:2397  rewards */\n      0x05\n        /* \"Core/StakingPool.sol\":2390:2406  rewards[account] */\n      0x00\n        /* \"Core/StakingPool.sol\":2398:2405  account */\n      dup4\n        /* \"Core/StakingPool.sol\":2390:2406  rewards[account] */\n      0xffffffffffffffffffffffffffffffffffffffff\n      and\n      0xffffffffffffffffffffffffffffffffffffffff\n      and\n      dup2\n      mstore\n      0x20\n      add\n      swap1\n      dup2\n      mstore\n      0x20\n      add\n      0x00\n      keccak256\n        /* \"Core/StakingPool.sol\":2390:2424  rewards[account] = earned(account) */\n      dup2\n      swap1\n      sstore\n      pop\n        /* \"Core/StakingPool.sol\":2524:2544  rewardPerTokenStored */\n      sload(0x04)\n        /* \"Core/StakingPool.sol\":2493:2512  rewardsPerTokenPaid */\n      0x06\n        /* \"Core/StakingPool.sol\":2493:2521  rewardsPerTokenPaid[account] */\n      0x00\n        /* \"Core/StakingPool.sol\":2513:2520  account */\n      dup4\n        /* \"Core/StakingPool.sol\":2493:2521  rewardsPerTokenPaid[account] */\n      0xffffffffffffffffffffffffffffffffffffffff\n      and\n      0xffffffffffffffffffffffffffffffffffffffff\n      and\n      dup2\n      mstore\n      0x20\n      add\n      swap1\n      dup2\n      mstore\n      0x20\n      add\n      0x00\n      keccak256\n        /* \"Core/StakingPool.sol\":2493:2544  rewardsPerTokenPaid[account] = rewardPerTokenStored */\n      dup2\n      swap1\n      sstore\n      pop\n        /* \"Core/StakingPool.sol\":3338:3352  uint256 reward */\n      0x00\n        /* \"Core/StakingPool.sol\":3355:3362  rewards */\n      0x05\n        /* \"Core/StakingPool.sol\":3355:3368  rewards[user] */\n      0x00\n        /* \"Core/StakingPool.sol\":3363:3367  user */\n      dup5\n        /* \"Core/StakingPool.sol\":3355:3368  rewards[user] */\n      0xffffffffffffffffffffffffffffffffffffffff\n      and\n      0xffffffffffffffffffffffffffffffffffffffff\n      and\n      dup2\n      mstore\n      0x20\n      add\n      swap1\n      dup2\n      mstore\n      0x20\n      add\n      0x00\n      keccak256\n      sload\n        /* \"Core/StakingPool.sol\":3338:3368  uint256 reward = rewards[user] */\n      swap1\n      pop\n        /* \"Core/StakingPool.sol\":3394:3395  0 */\n      0x00\n        /* \"Core/StakingPool.sol\":3378:3385  rewards */\n      0x05\n        /* \"Core/StakingPool.sol\":3378:3391  rewards[user] */\n      0x00\n        /* \"Core/StakingPool.sol\":3386:3390  user */\n      dup6\n        /* \"Core/StakingPool.sol\":3378:3391  rewards[user] */\n      0xffffffffffffffffffffffffffffffffffffffff\n      and\n      0xffffffffffffffffffffffffffffffffffffffff\n      and\n      dup2\n      mstore\n      0x20\n      add\n      swap1\n      dup2\n      mstore\n      0x20\n      add\n      0x00\n      keccak256\n        /* \"Core/StakingPool.sol\":3378:3395  rewards[user] = 0 */\n      dup2\n      swap1\n      sstore\n      pop\n        /* \"Core/StakingPool.sol\":3405:3417  rewardsToken */\n      0x00\n      dup1\n      sload\n      swap1\n      0x0100\n      exp\n      swap1\n      div\n      0xffffffffffffffffffffffffffffffffffffffff\n      and\n        /* \"Core/StakingPool.sol\":3405:3426  rewardsToken.transfer */\n      0xffffffffffffffffffffffffffffffffffffffff\n      and\n      0xa9059cbb\n        /* \"Core/StakingPool.sol\":3427:3431  user */\n      dup5\n        /* \"Core/StakingPool.sol\":3433:3439  reward */\n      dup4\n        /* \"Core/StakingPool.sol\":3405:3440  rewardsToken.transfer(user, reward) */\n      mload(0x40)\n      dup4\n      0xffffffff\n      and\n      0xe0\n      shl\n      dup2\n      mstore\n      0x04\n      add\n      tag_96\n      swap3\n      swap2\n      swap1\n      tag_87\n      jump\t// in\n    tag_96:\n      0x20\n      mload(0x40)\n      dup1\n      dup4\n      sub\n      dup2\n      0x00\n      dup8\n      gas\n      call\n      iszero\n      dup1\n      iszero\n      tag_98\n      jumpi\n      returndatasize\n      0x00\n      dup1\n      returndatacopy\n      revert(0x00, returndatasize)\n    tag_98:\n      pop\n      pop\n      pop\n      pop\n      mload(0x40)\n      returndatasize\n      not(0x1f)\n      0x1f\n      dup3\n      add\n      and\n      dup3\n      add\n      dup1\n      0x40\n      mstore\n      pop\n      dup2\n      add\n      swap1\n      tag_99\n      swap2\n      swap1\n      tag_91\n      jump\t// in\n    tag_99:\n      pop\n        /* \"Core/StakingPool.sol\":3328:3447  {... */\n      pop\n        /* \"Core/StakingPool.sol\":3258:3447  function reedemReward(address user) external updateReward(msg.sender) {... */\n      pop\n      pop\n      jump\t// out\n        /* \"Core/StakingPool.sol\":370:396  IERC20 public stakingToken */\n    tag_41:\n      0x01\n      0x00\n      swap1\n      sload\n      swap1\n      0x0100\n      exp\n      swap1\n      div\n      0xffffffffffffffffffffffffffffffffffffffff\n      and\n      dup2\n      jump\t// out\n        /* \"Core/StakingPool.sol\":2657:2897  function stake(uint256 _amount, address user) external updateReward(user) {... */\n    tag_46:\n        /* \"Core/StakingPool.sol\":2725:2729  user */\n      dup1\n        /* \"Core/StakingPool.sol\":2264:2280  rewardPerToken() */\n      tag_101\n        /* \"Core/StakingPool.sol\":2264:2278  rewardPerToken */\n      tag_62\n        /* \"Core/StakingPool.sol\":2264:2280  rewardPerToken() */\n      jump\t// in\n    tag_101:\n        /* \"Core/StakingPool.sol\":2241:2261  rewardPerTokenStored */\n      0x04\n        /* \"Core/StakingPool.sol\":2241:2280  rewardPerTokenStored = rewardPerToken() */\n      dup2\n      swap1\n      sstore\n      pop\n        /* \"Core/StakingPool.sol\":2307:2322  block.timestamp */\n      timestamp\n        /* \"Core/StakingPool.sol\":2290:2304  lastUpdateTime */\n      0x03\n        /* \"Core/StakingPool.sol\":2290:2322  lastUpdateTime = block.timestamp */\n      dup2\n      swap1\n      sstore\n      pop\n        /* \"Core/StakingPool.sol\":2409:2424  earned(account) */\n      tag_102\n        /* \"Core/StakingPool.sol\":2416:2423  account */\n      dup2\n        /* \"Core/StakingPool.sol\":2409:2415  earned */\n      tag_23\n        /* \"Core/StakingPool.sol\":2409:2424  earned(account) */\n      jump\t// in\n    tag_102:\n        /* \"Core/StakingPool.sol\":2390:2397  rewards */\n      0x05\n        /* \"Core/StakingPool.sol\":2390:2406  rewards[account] */\n      0x00\n        /* \"Core/StakingPool.sol\":2398:2405  account */\n      dup4\n        /* \"Core/StakingPool.sol\":2390:2406  rewards[account] */\n      0xffffffffffffffffffffffffffffffffffffffff\n      and\n      0xffffffffffffffffffffffffffffffffffffffff\n      and\n      dup2\n      mstore\n      0x20\n      add\n      swap1\n      dup2\n      mstore\n      0x20\n      add\n      0x00\n      keccak256\n        /* \"Core/StakingPool.sol\":2390:2424  rewards[account] = earned(account) */\n      dup2\n      swap1\n      sstore\n      pop\n        /* \"Core/StakingPool.sol\":2524:2544  rewardPerTokenStored */\n      sload(0x04)\n        /* \"Core/StakingPool.sol\":2493:2512  rewardsPerTokenPaid */\n      0x06\n        /* \"Core/StakingPool.sol\":2493:2521  rewardsPerTokenPaid[account] */\n      0x00\n        /* \"Core/StakingPool.sol\":2513:2520  account */\n      dup4\n        /* \"Core/StakingPool.sol\":2493:2521  rewardsPerTokenPaid[account] */\n      0xffffffffffffffffffffffffffffffffffffffff\n      and\n      0xffffffffffffffffffffffffffffffffffffffff\n      and\n      dup2\n      mstore\n      0x20\n      add\n      swap1\n      dup2\n      mstore\n      0x20\n      add\n      0x00\n      keccak256\n        /* \"Core/StakingPool.sol\":2493:2544  rewardsPerTokenPaid[account] = rewardPerTokenStored */\n      dup2\n      swap1\n      sstore\n      pop\n        /* \"Core/StakingPool.sol\":2757:2764  _amount */\n      dup3\n        /* \"Core/StakingPool.sol\":2741:2753  _totalSupply */\n      0x08\n      0x00\n        /* \"Core/StakingPool.sol\":2741:2764  _totalSupply += _amount */\n      dup3\n      dup3\n      sload\n      tag_104\n      swap2\n      swap1\n      tag_79\n      jump\t// in\n    tag_104:\n      swap3\n      pop\n      pop\n      dup2\n      swap1\n      sstore\n      pop\n        /* \"Core/StakingPool.sol\":2790:2797  _amount */\n      dup3\n        /* \"Core/StakingPool.sol\":2774:2780  staked */\n      0x07\n        /* \"Core/StakingPool.sol\":2774:2786  staked[user] */\n      0x00\n        /* \"Core/StakingPool.sol\":2781:2785  user */\n      dup5\n        /* \"Core/StakingPool.sol\":2774:2786  staked[user] */\n      0xffffffffffffffffffffffffffffffffffffffff\n      and\n      0xffffffffffffffffffffffffffffffffffffffff\n      and\n      dup2\n      mstore\n      0x20\n      add\n      swap1\n      dup2\n      mstore\n      0x20\n      add\n      0x00\n      keccak256\n      0x00\n        /* \"Core/StakingPool.sol\":2774:2797  staked[user] += _amount */\n      dup3\n      dup3\n      sload\n      tag_105\n      swap2\n      swap1\n      tag_79\n      jump\t// in\n    tag_105:\n      swap3\n      pop\n      pop\n      dup2\n      swap1\n      sstore\n      pop\n        /* \"Core/StakingPool.sol\":2835:2847  stakingToken */\n      0x01\n      0x00\n      swap1\n      sload\n      swap1\n      0x0100\n      exp\n      swap1\n      div\n      0xffffffffffffffffffffffffffffffffffffffff\n      and\n        /* \"Core/StakingPool.sol\":2835:2860  stakingToken.transferFrom */\n      0xffffffffffffffffffffffffffffffffffffffff\n      and\n      0x23b872dd\n        /* \"Core/StakingPool.sol\":2861:2865  user */\n      dup4\n        /* \"Core/StakingPool.sol\":2875:2879  this */\n      address\n        /* \"Core/StakingPool.sol\":2882:2889  _amount */\n      dup7\n        /* \"Core/StakingPool.sol\":2835:2890  stakingToken.transferFrom(user, address(this), _amount) */\n      mload(0x40)\n      dup5\n      0xffffffff\n      and\n      0xe0\n      shl\n      dup2\n      mstore\n      0x04\n      add\n      tag_106\n      swap4\n      swap3\n      swap2\n      swap1\n      tag_107\n      jump\t// in\n    tag_106:\n      0x20\n      mload(0x40)\n      dup1\n      dup4\n      sub\n      dup2\n      0x00\n      dup8\n      gas\n      call\n      iszero\n      dup1\n      iszero\n      tag_109\n      jumpi\n      returndatasize\n      0x00\n      dup1\n      returndatacopy\n      revert(0x00, returndatasize)\n    tag_109:\n      pop\n      pop\n      pop\n      pop\n      mload(0x40)\n      returndatasize\n      not(0x1f)\n      0x1f\n      dup3\n      add\n      and\n      dup3\n      add\n      dup1\n      0x40\n      mstore\n      pop\n      dup2\n      add\n      swap1\n      tag_110\n      swap2\n      swap1\n      tag_91\n      jump\t// in\n    tag_110:\n      pop\n        /* \"Core/StakingPool.sol\":2657:2897  function stake(uint256 _amount, address user) external updateReward(user) {... */\n      pop\n      pop\n      pop\n      jump\t// out\n        /* \"Core/StakingPool.sol\":455:486  uint256 public rewardRate = 100 */\n    tag_48:\n      sload(0x02)\n      dup2\n      jump\t// out\n        /* \"Core/StakingPool.sol\":711:765  mapping(address => uint256) public rewardsPerTokenPaid */\n    tag_52:\n      mstore(0x20, 0x06)\n      dup1\n      0x00\n      mstore\n      keccak256(0x00, 0x40)\n      0x00\n      swap2\n      pop\n      swap1\n      pop\n      sload\n      dup2\n      jump\t// out\n        /* \"Core/StakingPool.sol\":819:860  mapping(address => uint256) public staked */\n    tag_56:\n      mstore(0x20, 0x07)\n      dup1\n      0x00\n      mstore\n      keccak256(0x00, 0x40)\n      0x00\n      swap2\n      pop\n      swap1\n      pop\n      sload\n      dup2\n      jump\t// out\n        /* \"Core/StakingPool.sol\":493:522  uint256 public lastUpdateTime */\n    tag_59:\n      sload(0x03)\n      dup2\n      jump\t// out\n        /* \"Core/StakingPool.sol\":1261:1561  function rewardPerToken() public view returns (uint256) {... */\n    tag_62:\n        /* \"Core/StakingPool.sol\":1308:1315  uint256 */\n      0x00\n        /* \"Core/StakingPool.sol\":1347:1348  0 */\n      dup1\n        /* \"Core/StakingPool.sol\":1331:1343  _totalSupply */\n      sload(0x08)\n        /* \"Core/StakingPool.sol\":1331:1348  _totalSupply == 0 */\n      sub\n        /* \"Core/StakingPool.sol\":1327:1402  if (_totalSupply == 0) {... */\n      tag_112\n      jumpi\n        /* \"Core/StakingPool.sol\":1371:1391  rewardPerTokenStored */\n      sload(0x04)\n        /* \"Core/StakingPool.sol\":1364:1391  return rewardPerTokenStored */\n      swap1\n      pop\n      jump(tag_111)\n        /* \"Core/StakingPool.sol\":1327:1402  if (_totalSupply == 0) {... */\n    tag_112:\n        /* \"Core/StakingPool.sol\":1541:1553  _totalSupply */\n      sload(0x08)\n        /* \"Core/StakingPool.sol\":1517:1521  1e18 */\n      0x0de0b6b3a7640000\n        /* \"Core/StakingPool.sol\":1504:1514  rewardRate */\n      sload(0x02)\n        /* \"Core/StakingPool.sol\":1486:1500  lastUpdateTime */\n      sload(0x03)\n        /* \"Core/StakingPool.sol\":1468:1483  block.timestamp */\n      timestamp\n        /* \"Core/StakingPool.sol\":1468:1500  block.timestamp - lastUpdateTime */\n      tag_113\n      swap2\n      swap1\n      tag_73\n      jump\t// in\n    tag_113:\n        /* \"Core/StakingPool.sol\":1467:1514  (block.timestamp - lastUpdateTime) * rewardRate */\n      tag_114\n      swap2\n      swap1\n      tag_75\n      jump\t// in\n    tag_114:\n        /* \"Core/StakingPool.sol\":1467:1521  (block.timestamp - lastUpdateTime) * rewardRate * 1e18 */\n      tag_115\n      swap2\n      swap1\n      tag_75\n      jump\t// in\n    tag_115:\n        /* \"Core/StakingPool.sol\":1466:1553  ((block.timestamp - lastUpdateTime) * rewardRate * 1e18) /... */\n      tag_116\n      swap2\n      swap1\n      tag_77\n      jump\t// in\n    tag_116:\n        /* \"Core/StakingPool.sol\":1430:1450  rewardPerTokenStored */\n      sload(0x04)\n        /* \"Core/StakingPool.sol\":1430:1554  rewardPerTokenStored +... */\n      tag_117\n      swap2\n      swap1\n      tag_79\n      jump\t// in\n    tag_117:\n        /* \"Core/StakingPool.sol\":1411:1554  return... */\n      swap1\n      pop\n        /* \"Core/StakingPool.sol\":1261:1561  function rewardPerToken() public view returns (uint256) {... */\n    tag_111:\n      swap1\n      jump\t// out\n        /* \"Core/StakingPool.sol\":338:364  IERC20 public rewardsToken */\n    tag_65:\n      0x00\n      dup1\n      sload\n      swap1\n      0x0100\n      exp\n      swap1\n      div\n      0xffffffffffffffffffffffffffffffffffffffff\n      and\n      dup2\n      jump\t// out\n        /* \"Core/StakingPool.sol\":528:563  uint256 public rewardPerTokenStored */\n    tag_68:\n      sload(0x04)\n      dup2\n      jump\t// out\n        /* \"#utility.yul\":88:205   */\n    tag_119:\n        /* \"#utility.yul\":197:198   */\n      0x00\n        /* \"#utility.yul\":194:195   */\n      dup1\n        /* \"#utility.yul\":187:199   */\n      revert\n        /* \"#utility.yul\":334:460   */\n    tag_121:\n        /* \"#utility.yul\":371:378   */\n      0x00\n        /* \"#utility.yul\":411:453   */\n      0xffffffffffffffffffffffffffffffffffffffff\n        /* \"#utility.yul\":404:409   */\n      dup3\n        /* \"#utility.yul\":400:454   */\n      and\n        /* \"#utility.yul\":389:454   */\n      swap1\n      pop\n        /* \"#utility.yul\":334:460   */\n      swap2\n      swap1\n      pop\n      jump\t// out\n        /* \"#utility.yul\":466:562   */\n    tag_122:\n        /* \"#utility.yul\":503:510   */\n      0x00\n        /* \"#utility.yul\":532:556   */\n      tag_146\n        /* \"#utility.yul\":550:555   */\n      dup3\n        /* \"#utility.yul\":532:556   */\n      tag_121\n      jump\t// in\n    tag_146:\n        /* \"#utility.yul\":521:556   */\n      swap1\n      pop\n        /* \"#utility.yul\":466:562   */\n      swap2\n      swap1\n      pop\n      jump\t// out\n        /* \"#utility.yul\":568:690   */\n    tag_123:\n        /* \"#utility.yul\":641:665   */\n      tag_148\n        /* \"#utility.yul\":659:664   */\n      dup2\n        /* \"#utility.yul\":641:665   */\n      tag_122\n      jump\t// in\n    tag_148:\n        /* \"#utility.yul\":634:639   */\n      dup2\n        /* \"#utility.yul\":631:666   */\n      eq\n        /* \"#utility.yul\":621:684   */\n      tag_149\n      jumpi\n        /* \"#utility.yul\":680:681   */\n      0x00\n        /* \"#utility.yul\":677:678   */\n      dup1\n        /* \"#utility.yul\":670:682   */\n      revert\n        /* \"#utility.yul\":621:684   */\n    tag_149:\n        /* \"#utility.yul\":568:690   */\n      pop\n      jump\t// out\n        /* \"#utility.yul\":696:835   */\n    tag_124:\n        /* \"#utility.yul\":742:747   */\n      0x00\n        /* \"#utility.yul\":780:786   */\n      dup2\n        /* \"#utility.yul\":767:787   */\n      calldataload\n        /* \"#utility.yul\":758:787   */\n      swap1\n      pop\n        /* \"#utility.yul\":796:829   */\n      tag_151\n        /* \"#utility.yul\":823:828   */\n      dup2\n        /* \"#utility.yul\":796:829   */\n      tag_123\n      jump\t// in\n    tag_151:\n        /* \"#utility.yul\":696:835   */\n      swap3\n      swap2\n      pop\n      pop\n      jump\t// out\n        /* \"#utility.yul\":841:1170   */\n    tag_22:\n        /* \"#utility.yul\":900:906   */\n      0x00\n        /* \"#utility.yul\":949:951   */\n      0x20\n        /* \"#utility.yul\":937:946   */\n      dup3\n        /* \"#utility.yul\":928:935   */\n      dup5\n        /* \"#utility.yul\":924:947   */\n      sub\n        /* \"#utility.yul\":920:952   */\n      slt\n        /* \"#utility.yul\":917:1036   */\n      iszero\n      tag_153\n      jumpi\n        /* \"#utility.yul\":955:1034   */\n      tag_154\n      tag_119\n      jump\t// in\n    tag_154:\n        /* \"#utility.yul\":917:1036   */\n    tag_153:\n        /* \"#utility.yul\":1075:1076   */\n      0x00\n        /* \"#utility.yul\":1100:1153   */\n      tag_155\n        /* \"#utility.yul\":1145:1152   */\n      dup5\n        /* \"#utility.yul\":1136:1142   */\n      dup3\n        /* \"#utility.yul\":1125:1134   */\n      dup6\n        /* \"#utility.yul\":1121:1143   */\n      add\n        /* \"#utility.yul\":1100:1153   */\n      tag_124\n      jump\t// in\n    tag_155:\n        /* \"#utility.yul\":1090:1153   */\n      swap2\n      pop\n        /* \"#utility.yul\":1046:1163   */\n      pop\n        /* \"#utility.yul\":841:1170   */\n      swap3\n      swap2\n      pop\n      pop\n      jump\t// out\n        /* \"#utility.yul\":1176:1253   */\n    tag_125:\n        /* \"#utility.yul\":1213:1220   */\n      0x00\n        /* \"#utility.yul\":1242:1247   */\n      dup2\n        /* \"#utility.yul\":1231:1247   */\n      swap1\n      pop\n        /* \"#utility.yul\":1176:1253   */\n      swap2\n      swap1\n      pop\n      jump\t// out\n        /* \"#utility.yul\":1259:1377   */\n    tag_126:\n        /* \"#utility.yul\":1346:1370   */\n      tag_158\n        /* \"#utility.yul\":1364:1369   */\n      dup2\n        /* \"#utility.yul\":1346:1370   */\n      tag_125\n      jump\t// in\n    tag_158:\n        /* \"#utility.yul\":1341:1344   */\n      dup3\n        /* \"#utility.yul\":1334:1371   */\n      mstore\n        /* \"#utility.yul\":1259:1377   */\n      pop\n      pop\n      jump\t// out\n        /* \"#utility.yul\":1383:1605   */\n    tag_25:\n        /* \"#utility.yul\":1476:1480   */\n      0x00\n        /* \"#utility.yul\":1514:1516   */\n      0x20\n        /* \"#utility.yul\":1503:1512   */\n      dup3\n        /* \"#utility.yul\":1499:1517   */\n      add\n        /* \"#utility.yul\":1491:1517   */\n      swap1\n      pop\n        /* \"#utility.yul\":1527:1598   */\n      tag_160\n        /* \"#utility.yul\":1595:1596   */\n      0x00\n        /* \"#utility.yul\":1584:1593   */\n      dup4\n        /* \"#utility.yul\":1580:1597   */\n      add\n        /* \"#utility.yul\":1571:1577   */\n      dup5\n        /* \"#utility.yul\":1527:1598   */\n      tag_126\n      jump\t// in\n    tag_160:\n        /* \"#utility.yul\":1383:1605   */\n      swap3\n      swap2\n      pop\n      pop\n      jump\t// out\n        /* \"#utility.yul\":1611:1733   */\n    tag_127:\n        /* \"#utility.yul\":1684:1708   */\n      tag_162\n        /* \"#utility.yul\":1702:1707   */\n      dup2\n        /* \"#utility.yul\":1684:1708   */\n      tag_125\n      jump\t// in\n    tag_162:\n        /* \"#utility.yul\":1677:1682   */\n      dup2\n        /* \"#utility.yul\":1674:1709   */\n      eq\n        /* \"#utility.yul\":1664:1727   */\n      tag_163\n      jumpi\n        /* \"#utility.yul\":1723:1724   */\n      0x00\n        /* \"#utility.yul\":1720:1721   */\n      dup1\n        /* \"#utility.yul\":1713:1725   */\n      revert\n        /* \"#utility.yul\":1664:1727   */\n    tag_163:\n        /* \"#utility.yul\":1611:1733   */\n      pop\n      jump\t// out\n        /* \"#utility.yul\":1739:1878   */\n    tag_128:\n        /* \"#utility.yul\":1785:1790   */\n      0x00\n        /* \"#utility.yul\":1823:1829   */\n      dup2\n        /* \"#utility.yul\":1810:1830   */\n      calldataload\n        /* \"#utility.yul\":1801:1830   */\n      swap1\n      pop\n        /* \"#utility.yul\":1839:1872   */\n      tag_165\n        /* \"#utility.yul\":1866:1871   */\n      dup2\n        /* \"#utility.yul\":1839:1872   */\n      tag_127\n      jump\t// in\n    tag_165:\n        /* \"#utility.yul\":1739:1878   */\n      swap3\n      swap2\n      pop\n      pop\n      jump\t// out\n        /* \"#utility.yul\":1884:2358   */\n    tag_28:\n        /* \"#utility.yul\":1952:1958   */\n      0x00\n        /* \"#utility.yul\":1960:1966   */\n      dup1\n        /* \"#utility.yul\":2009:2011   */\n      0x40\n        /* \"#utility.yul\":1997:2006   */\n      dup4\n        /* \"#utility.yul\":1988:1995   */\n      dup6\n        /* \"#utility.yul\":1984:2007   */\n      sub\n        /* \"#utility.yul\":1980:2012   */\n      slt\n        /* \"#utility.yul\":1977:2096   */\n      iszero\n      tag_167\n      jumpi\n        /* \"#utility.yul\":2015:2094   */\n      tag_168\n      tag_119\n      jump\t// in\n    tag_168:\n        /* \"#utility.yul\":1977:2096   */\n    tag_167:\n        /* \"#utility.yul\":2135:2136   */\n      0x00\n        /* \"#utility.yul\":2160:2213   */\n      tag_169\n        /* \"#utility.yul\":2205:2212   */\n      dup6\n        /* \"#utility.yul\":2196:2202   */\n      dup3\n        /* \"#utility.yul\":2185:2194   */\n      dup7\n        /* \"#utility.yul\":2181:2203   */\n      add\n        /* \"#utility.yul\":2160:2213   */\n      tag_128\n      jump\t// in\n    tag_169:\n        /* \"#utility.yul\":2150:2213   */\n      swap3\n      pop\n        /* \"#utility.yul\":2106:2223   */\n      pop\n        /* \"#utility.yul\":2262:2264   */\n      0x20\n        /* \"#utility.yul\":2288:2341   */\n      tag_170\n        /* \"#utility.yul\":2333:2340   */\n      dup6\n        /* \"#utility.yul\":2324:2330   */\n      dup3\n        /* \"#utility.yul\":2313:2322   */\n      dup7\n        /* \"#utility.yul\":2309:2331   */\n      add\n        /* \"#utility.yul\":2288:2341   */\n      tag_124\n      jump\t// in\n    tag_170:\n        /* \"#utility.yul\":2278:2341   */\n      swap2\n      pop\n        /* \"#utility.yul\":2233:2351   */\n      pop\n        /* \"#utility.yul\":1884:2358   */\n      swap3\n      pop\n      swap3\n      swap1\n      pop\n      jump\t// out\n        /* \"#utility.yul\":2364:2424   */\n    tag_129:\n        /* \"#utility.yul\":2392:2395   */\n      0x00\n        /* \"#utility.yul\":2413:2418   */\n      dup2\n        /* \"#utility.yul\":2406:2418   */\n      swap1\n      pop\n        /* \"#utility.yul\":2364:2424   */\n      swap2\n      swap1\n      pop\n      jump\t// out\n        /* \"#utility.yul\":2430:2572   */\n    tag_130:\n        /* \"#utility.yul\":2480:2489   */\n      0x00\n        /* \"#utility.yul\":2513:2566   */\n      tag_173\n        /* \"#utility.yul\":2531:2565   */\n      tag_174\n        /* \"#utility.yul\":2540:2564   */\n      tag_175\n        /* \"#utility.yul\":2558:2563   */\n      dup5\n        /* \"#utility.yul\":2540:2564   */\n      tag_121\n      jump\t// in\n    tag_175:\n        /* \"#utility.yul\":2531:2565   */\n      tag_129\n      jump\t// in\n    tag_174:\n        /* \"#utility.yul\":2513:2566   */\n      tag_121\n      jump\t// in\n    tag_173:\n        /* \"#utility.yul\":2500:2566   */\n      swap1\n      pop\n        /* \"#utility.yul\":2430:2572   */\n      swap2\n      swap1\n      pop\n      jump\t// out\n        /* \"#utility.yul\":2578:2704   */\n    tag_131:\n        /* \"#utility.yul\":2628:2637   */\n      0x00\n        /* \"#utility.yul\":2661:2698   */\n      tag_177\n        /* \"#utility.yul\":2692:2697   */\n      dup3\n        /* \"#utility.yul\":2661:2698   */\n      tag_130\n      jump\t// in\n    tag_177:\n        /* \"#utility.yul\":2648:2698   */\n      swap1\n      pop\n        /* \"#utility.yul\":2578:2704   */\n      swap2\n      swap1\n      pop\n      jump\t// out\n        /* \"#utility.yul\":2710:2850   */\n    tag_132:\n        /* \"#utility.yul\":2774:2783   */\n      0x00\n        /* \"#utility.yul\":2807:2844   */\n      tag_179\n        /* \"#utility.yul\":2838:2843   */\n      dup3\n        /* \"#utility.yul\":2807:2844   */\n      tag_131\n      jump\t// in\n    tag_179:\n        /* \"#utility.yul\":2794:2844   */\n      swap1\n      pop\n        /* \"#utility.yul\":2710:2850   */\n      swap2\n      swap1\n      pop\n      jump\t// out\n        /* \"#utility.yul\":2856:3015   */\n    tag_133:\n        /* \"#utility.yul\":2957:3008   */\n      tag_181\n        /* \"#utility.yul\":3002:3007   */\n      dup2\n        /* \"#utility.yul\":2957:3008   */\n      tag_132\n      jump\t// in\n    tag_181:\n        /* \"#utility.yul\":2952:2955   */\n      dup3\n        /* \"#utility.yul\":2945:3009   */\n      mstore\n        /* \"#utility.yul\":2856:3015   */\n      pop\n      pop\n      jump\t// out\n        /* \"#utility.yul\":3021:3271   */\n    tag_43:\n        /* \"#utility.yul\":3128:3132   */\n      0x00\n        /* \"#utility.yul\":3166:3168   */\n      0x20\n        /* \"#utility.yul\":3155:3164   */\n      dup3\n        /* \"#utility.yul\":3151:3169   */\n      add\n        /* \"#utility.yul\":3143:3169   */\n      swap1\n      pop\n        /* \"#utility.yul\":3179:3264   */\n      tag_183\n        /* \"#utility.yul\":3261:3262   */\n      0x00\n        /* \"#utility.yul\":3250:3259   */\n      dup4\n        /* \"#utility.yul\":3246:3263   */\n      add\n        /* \"#utility.yul\":3237:3243   */\n      dup5\n        /* \"#utility.yul\":3179:3264   */\n      tag_133\n      jump\t// in\n    tag_183:\n        /* \"#utility.yul\":3021:3271   */\n      swap3\n      swap2\n      pop\n      pop\n      jump\t// out\n        /* \"#utility.yul\":3277:3457   */\n    tag_134:\n        /* \"#utility.yul\":3325:3402   */\n      0x4e487b7100000000000000000000000000000000000000000000000000000000\n        /* \"#utility.yul\":3322:3323   */\n      0x00\n        /* \"#utility.yul\":3315:3403   */\n      mstore\n        /* \"#utility.yul\":3422:3426   */\n      0x11\n        /* \"#utility.yul\":3419:3420   */\n      0x04\n        /* \"#utility.yul\":3412:3427   */\n      mstore\n        /* \"#utility.yul\":3446:3450   */\n      0x24\n        /* \"#utility.yul\":3443:3444   */\n      0x00\n        /* \"#utility.yul\":3436:3451   */\n      revert\n        /* \"#utility.yul\":3463:3657   */\n    tag_73:\n        /* \"#utility.yul\":3503:3507   */\n      0x00\n        /* \"#utility.yul\":3523:3543   */\n      tag_186\n        /* \"#utility.yul\":3541:3542   */\n      dup3\n        /* \"#utility.yul\":3523:3543   */\n      tag_125\n      jump\t// in\n    tag_186:\n        /* \"#utility.yul\":3518:3543   */\n      swap2\n      pop\n        /* \"#utility.yul\":3557:3577   */\n      tag_187\n        /* \"#utility.yul\":3575:3576   */\n      dup4\n        /* \"#utility.yul\":3557:3577   */\n      tag_125\n      jump\t// in\n    tag_187:\n        /* \"#utility.yul\":3552:3577   */\n      swap3\n      pop\n        /* \"#utility.yul\":3601:3602   */\n      dup3\n        /* \"#utility.yul\":3598:3599   */\n      dup3\n        /* \"#utility.yul\":3594:3603   */\n      sub\n        /* \"#utility.yul\":3586:3603   */\n      swap1\n      pop\n        /* \"#utility.yul\":3625:3626   */\n      dup2\n        /* \"#utility.yul\":3619:3623   */\n      dup2\n        /* \"#utility.yul\":3616:3627   */\n      gt\n        /* \"#utility.yul\":3613:3650   */\n      iszero\n      tag_188\n      jumpi\n        /* \"#utility.yul\":3630:3648   */\n      tag_189\n      tag_134\n      jump\t// in\n    tag_189:\n        /* \"#utility.yul\":3613:3650   */\n    tag_188:\n        /* \"#utility.yul\":3463:3657   */\n      swap3\n      swap2\n      pop\n      pop\n      jump\t// out\n        /* \"#utility.yul\":3663:4073   */\n    tag_75:\n        /* \"#utility.yul\":3703:3710   */\n      0x00\n        /* \"#utility.yul\":3726:3746   */\n      tag_191\n        /* \"#utility.yul\":3744:3745   */\n      dup3\n        /* \"#utility.yul\":3726:3746   */\n      tag_125\n      jump\t// in\n    tag_191:\n        /* \"#utility.yul\":3721:3746   */\n      swap2\n      pop\n        /* \"#utility.yul\":3760:3780   */\n      tag_192\n        /* \"#utility.yul\":3778:3779   */\n      dup4\n        /* \"#utility.yul\":3760:3780   */\n      tag_125\n      jump\t// in\n    tag_192:\n        /* \"#utility.yul\":3755:3780   */\n      swap3\n      pop\n        /* \"#utility.yul\":3815:3816   */\n      dup3\n        /* \"#utility.yul\":3812:3813   */\n      dup3\n        /* \"#utility.yul\":3808:3817   */\n      mul\n        /* \"#utility.yul\":3837:3867   */\n      tag_193\n        /* \"#utility.yul\":3855:3866   */\n      dup2\n        /* \"#utility.yul\":3837:3867   */\n      tag_125\n      jump\t// in\n    tag_193:\n        /* \"#utility.yul\":3826:3867   */\n      swap2\n      pop\n        /* \"#utility.yul\":4016:4017   */\n      dup3\n        /* \"#utility.yul\":4007:4014   */\n      dup3\n        /* \"#utility.yul\":4003:4018   */\n      div\n        /* \"#utility.yul\":4000:4001   */\n      dup5\n        /* \"#utility.yul\":3997:4019   */\n      eq\n        /* \"#utility.yul\":3977:3978   */\n      dup4\n        /* \"#utility.yul\":3970:3979   */\n      iszero\n        /* \"#utility.yul\":3950:4033   */\n      or\n        /* \"#utility.yul\":3927:4066   */\n      tag_194\n      jumpi\n        /* \"#utility.yul\":4046:4064   */\n      tag_195\n      tag_134\n      jump\t// in\n    tag_195:\n        /* \"#utility.yul\":3927:4066   */\n    tag_194:\n        /* \"#utility.yul\":3711:4073   */\n      pop\n        /* \"#utility.yul\":3663:4073   */\n      swap3\n      swap2\n      pop\n      pop\n      jump\t// out\n        /* \"#utility.yul\":4079:4259   */\n    tag_135:\n        /* \"#utility.yul\":4127:4204   */\n      0x4e487b7100000000000000000000000000000000000000000000000000000000\n        /* \"#utility.yul\":4124:4125   */\n      0x00\n        /* \"#utility.yul\":4117:4205   */\n      mstore\n        /* \"#utility.yul\":4224:4228   */\n      0x12\n        /* \"#utility.yul\":4221:4222   */\n      0x04\n        /* \"#utility.yul\":4214:4229   */\n      mstore\n        /* \"#utility.yul\":4248:4252   */\n      0x24\n        /* \"#utility.yul\":4245:4246   */\n      0x00\n        /* \"#utility.yul\":4238:4253   */\n      revert\n        /* \"#utility.yul\":4265:4450   */\n    tag_77:\n        /* \"#utility.yul\":4305:4306   */\n      0x00\n        /* \"#utility.yul\":4322:4342   */\n      tag_198\n        /* \"#utility.yul\":4340:4341   */\n      dup3\n        /* \"#utility.yul\":4322:4342   */\n      tag_125\n      jump\t// in\n    tag_198:\n        /* \"#utility.yul\":4317:4342   */\n      swap2\n      pop\n        /* \"#utility.yul\":4356:4376   */\n      tag_199\n        /* \"#utility.yul\":4374:4375   */\n      dup4\n        /* \"#utility.yul\":4356:4376   */\n      tag_125\n      jump\t// in\n    tag_199:\n        /* \"#utility.yul\":4351:4376   */\n      swap3\n      pop\n        /* \"#utility.yul\":4395:4396   */\n      dup3\n        /* \"#utility.yul\":4385:4420   */\n      tag_200\n      jumpi\n        /* \"#utility.yul\":4400:4418   */\n      tag_201\n      tag_135\n      jump\t// in\n    tag_201:\n        /* \"#utility.yul\":4385:4420   */\n    tag_200:\n        /* \"#utility.yul\":4442:4443   */\n      dup3\n        /* \"#utility.yul\":4439:4440   */\n      dup3\n        /* \"#utility.yul\":4435:4444   */\n      div\n        /* \"#utility.yul\":4430:4444   */\n      swap1\n      pop\n        /* \"#utility.yul\":4265:4450   */\n      swap3\n      swap2\n      pop\n      pop\n      jump\t// out\n        /* \"#utility.yul\":4456:4647   */\n    tag_79:\n        /* \"#utility.yul\":4496:4499   */\n      0x00\n        /* \"#utility.yul\":4515:4535   */\n      tag_203\n        /* \"#utility.yul\":4533:4534   */\n      dup3\n        /* \"#utility.yul\":4515:4535   */\n      tag_125\n      jump\t// in\n    tag_203:\n        /* \"#utility.yul\":4510:4535   */\n      swap2\n      pop\n        /* \"#utility.yul\":4549:4569   */\n      tag_204\n        /* \"#utility.yul\":4567:4568   */\n      dup4\n        /* \"#utility.yul\":4549:4569   */\n      tag_125\n      jump\t// in\n    tag_204:\n        /* \"#utility.yul\":4544:4569   */\n      swap3\n      pop\n        /* \"#utility.yul\":4592:4593   */\n      dup3\n        /* \"#utility.yul\":4589:4590   */\n      dup3\n        /* \"#utility.yul\":4585:4594   */\n      add\n        /* \"#utility.yul\":4578:4594   */\n      swap1\n      pop\n        /* \"#utility.yul\":4613:4616   */\n      dup1\n        /* \"#utility.yul\":4610:4611   */\n      dup3\n        /* \"#utility.yul\":4607:4617   */\n      gt\n        /* \"#utility.yul\":4604:4640   */\n      iszero\n      tag_205\n      jumpi\n        /* \"#utility.yul\":4620:4638   */\n      tag_206\n      tag_134\n      jump\t// in\n    tag_206:\n        /* \"#utility.yul\":4604:4640   */\n    tag_205:\n        /* \"#utility.yul\":4456:4647   */\n      swap3\n      swap2\n      pop\n      pop\n      jump\t// out\n        /* \"#utility.yul\":4653:4771   */\n    tag_136:\n        /* \"#utility.yul\":4740:4764   */\n      tag_208\n        /* \"#utility.yul\":4758:4763   */\n      dup2\n        /* \"#utility.yul\":4740:4764   */\n      tag_122\n      jump\t// in\n    tag_208:\n        /* \"#utility.yul\":4735:4738   */\n      dup3\n        /* \"#utility.yul\":4728:4765   */\n      mstore\n        /* \"#utility.yul\":4653:4771   */\n      pop\n      pop\n      jump\t// out\n        /* \"#utility.yul\":4777:5109   */\n    tag_87:\n        /* \"#utility.yul\":4898:4902   */\n      0x00\n        /* \"#utility.yul\":4936:4938   */\n      0x40\n        /* \"#utility.yul\":4925:4934   */\n      dup3\n        /* \"#utility.yul\":4921:4939   */\n      add\n        /* \"#utility.yul\":4913:4939   */\n      swap1\n      pop\n        /* \"#utility.yul\":4949:5020   */\n      tag_210\n        /* \"#utility.yul\":5017:5018   */\n      0x00\n        /* \"#utility.yul\":5006:5015   */\n      dup4\n        /* \"#utility.yul\":5002:5019   */\n      add\n        /* \"#utility.yul\":4993:4999   */\n      dup6\n        /* \"#utility.yul\":4949:5020   */\n      tag_136\n      jump\t// in\n    tag_210:\n        /* \"#utility.yul\":5030:5102   */\n      tag_211\n        /* \"#utility.yul\":5098:5100   */\n      0x20\n        /* \"#utility.yul\":5087:5096   */\n      dup4\n        /* \"#utility.yul\":5083:5101   */\n      add\n        /* \"#utility.yul\":5074:5080   */\n      dup5\n        /* \"#utility.yul\":5030:5102   */\n      tag_126\n      jump\t// in\n    tag_211:\n        /* \"#utility.yul\":4777:5109   */\n      swap4\n      swap3\n      pop\n      pop\n      pop\n      jump\t// out\n        /* \"#utility.yul\":5115:5205   */\n    tag_137:\n        /* \"#utility.yul\":5149:5156   */\n      0x00\n        /* \"#utility.yul\":5192:5197   */\n      dup2\n        /* \"#utility.yul\":5185:5198   */\n      iszero\n        /* \"#utility.yul\":5178:5199   */\n      iszero\n        /* \"#utility.yul\":5167:5199   */\n      swap1\n      pop\n        /* \"#utility.yul\":5115:5205   */\n      swap2\n      swap1\n      pop\n      jump\t// out\n        /* \"#utility.yul\":5211:5327   */\n    tag_138:\n        /* \"#utility.yul\":5281:5302   */\n      tag_214\n        /* \"#utility.yul\":5296:5301   */\n      dup2\n        /* \"#utility.yul\":5281:5302   */\n      tag_137\n      jump\t// in\n    tag_214:\n        /* \"#utility.yul\":5274:5279   */\n      dup2\n        /* \"#utility.yul\":5271:5303   */\n      eq\n        /* \"#utility.yul\":5261:5321   */\n      tag_215\n      jumpi\n        /* \"#utility.yul\":5317:5318   */\n      0x00\n        /* \"#utility.yul\":5314:5315   */\n      dup1\n        /* \"#utility.yul\":5307:5319   */\n      revert\n        /* \"#utility.yul\":5261:5321   */\n    tag_215:\n        /* \"#utility.yul\":5211:5327   */\n      pop\n      jump\t// out\n        /* \"#utility.yul\":5333:5470   */\n    tag_139:\n        /* \"#utility.yul\":5387:5392   */\n      0x00\n        /* \"#utility.yul\":5418:5424   */\n      dup2\n        /* \"#utility.yul\":5412:5425   */\n      mload\n        /* \"#utility.yul\":5403:5425   */\n      swap1\n      pop\n        /* \"#utility.yul\":5434:5464   */\n      tag_217\n        /* \"#utility.yul\":5458:5463   */\n      dup2\n        /* \"#utility.yul\":5434:5464   */\n      tag_138\n      jump\t// in\n    tag_217:\n        /* \"#utility.yul\":5333:5470   */\n      swap3\n      swap2\n      pop\n      pop\n      jump\t// out\n        /* \"#utility.yul\":5476:5821   */\n    tag_91:\n        /* \"#utility.yul\":5543:5549   */\n      0x00\n        /* \"#utility.yul\":5592:5594   */\n      0x20\n        /* \"#utility.yul\":5580:5589   */\n      dup3\n        /* \"#utility.yul\":5571:5578   */\n      dup5\n        /* \"#utility.yul\":5567:5590   */\n      sub\n        /* \"#utility.yul\":5563:5595   */\n      slt\n        /* \"#utility.yul\":5560:5679   */\n      iszero\n      tag_219\n      jumpi\n        /* \"#utility.yul\":5598:5677   */\n      tag_220\n      tag_119\n      jump\t// in\n    tag_220:\n        /* \"#utility.yul\":5560:5679   */\n    tag_219:\n        /* \"#utility.yul\":5718:5719   */\n      0x00\n        /* \"#utility.yul\":5743:5804   */\n      tag_221\n        /* \"#utility.yul\":5796:5803   */\n      dup5\n        /* \"#utility.yul\":5787:5793   */\n      dup3\n        /* \"#utility.yul\":5776:5785   */\n      dup6\n        /* \"#utility.yul\":5772:5794   */\n      add\n        /* \"#utility.yul\":5743:5804   */\n      tag_139\n      jump\t// in\n    tag_221:\n        /* \"#utility.yul\":5733:5804   */\n      swap2\n      pop\n        /* \"#utility.yul\":5689:5814   */\n      pop\n        /* \"#utility.yul\":5476:5821   */\n      swap3\n      swap2\n      pop\n      pop\n      jump\t// out\n        /* \"#utility.yul\":5827:6269   */\n    tag_107:\n        /* \"#utility.yul\":5976:5980   */\n      0x00\n        /* \"#utility.yul\":6014:6016   */\n      0x60\n        /* \"#utility.yul\":6003:6012   */\n      dup3\n        /* \"#utility.yul\":5999:6017   */\n      add\n        /* \"#utility.yul\":5991:6017   */\n      swap1\n      pop\n        /* \"#utility.yul\":6027:6098   */\n      tag_223\n        /* \"#utility.yul\":6095:6096   */\n      0x00\n        /* \"#utility.yul\":6084:6093   */\n      dup4\n        /* \"#utility.yul\":6080:6097   */\n      add\n        /* \"#utility.yul\":6071:6077   */\n      dup7\n        /* \"#utility.yul\":6027:6098   */\n      tag_136\n      jump\t// in\n    tag_223:\n        /* \"#utility.yul\":6108:6180   */\n      tag_224\n        /* \"#utility.yul\":6176:6178   */\n      0x20\n        /* \"#utility.yul\":6165:6174   */\n      dup4\n        /* \"#utility.yul\":6161:6179   */\n      add\n        /* \"#utility.yul\":6152:6158   */\n      dup6\n        /* \"#utility.yul\":6108:6180   */\n      tag_136\n      jump\t// in\n    tag_224:\n        /* \"#utility.yul\":6190:6262   */\n      tag_225\n        /* \"#utility.yul\":6258:6260   */\n      0x40\n        /* \"#utility.yul\":6247:6256   */\n      dup4\n        /* \"#utility.yul\":6243:6261   */\n      add\n        /* \"#utility.yul\":6234:6240   */\n      dup5\n        /* \"#utility.yul\":6190:6262   */\n      tag_126\n      jump\t// in\n    tag_225:\n        /* \"#utility.yul\":5827:6269   */\n      swap5\n      swap4\n      pop\n      pop\n      pop\n      pop\n      jump\t// out\n\n    auxdata: 0xa2646970667358221220b51d5920485c7314ac49752a3fe60e9fc794f45d09c685c9cdf1c9dd8b492bf864736f6c63430008120033\n}\n",
				"bytecode": {
					"linkReferences": {},
					"object": "608060405260646002553480156200001657600080fd5b5060405162000fa638038062000fa683398181016040528101906200003c91906200012f565b81600160006101000a81548173ffffffffffffffffffffffffffffffffffffffff021916908373ffffffffffffffffffffffffffffffffffffffff160217905550806000806101000a81548173ffffffffffffffffffffffffffffffffffffffff021916908373ffffffffffffffffffffffffffffffffffffffff160217905550505062000176565b600080fd5b600073ffffffffffffffffffffffffffffffffffffffff82169050919050565b6000620000f782620000ca565b9050919050565b6200010981620000ea565b81146200011557600080fd5b50565b6000815190506200012981620000fe565b92915050565b60008060408385031215620001495762000148620000c5565b5b6000620001598582860162000118565b92505060206200016c8582860162000118565b9150509250929050565b610e2080620001866000396000f3fe608060405234801561001057600080fd5b50600436106100e85760003560e01c80637b0a47ee1161008c578063c8f33c9111610066578063c8f33c911461025b578063cd3daf9d14610279578063d1af0c7d14610297578063df136d65146102b5576100e8565b80637b0a47ee146101dd57806395d7885b146101fb57806398807d841461022b576100e8565b80633eaaf86b116100c85780633eaaf86b146101695780636447c5a21461018757806372f702f3146101a35780637acb7757146101c1576100e8565b80628cc262146100ed578062f714ce1461011d5780630700037d14610139575b600080fd5b61010760048036038101906101029190610a96565b6102d3565b6040516101149190610adc565b60405180910390f35b61013760048036038101906101329190610b23565b6103d5565b005b610153600480360381019061014e9190610a96565b610592565b6040516101609190610adc565b60405180910390f35b6101716105aa565b60405161017e9190610adc565b60405180910390f35b6101a1600480360381019061019c9190610a96565b6105b0565b005b6101ab610785565b6040516101b89190610bc2565b60405180910390f35b6101db60048036038101906101d69190610b23565b6107ab565b005b6101e561096a565b6040516101f29190610adc565b60405180910390f35b61021560048036038101906102109190610a96565b610970565b6040516102229190610adc565b60405180910390f35b61024560048036038101906102409190610a96565b610988565b6040516102529190610adc565b60405180910390f35b6102636109a0565b6040516102709190610adc565b60405180910390f35b6102816109a6565b60405161028e9190610adc565b60405180910390f35b61029f610a09565b6040516102ac9190610bc2565b60405180910390f35b6102bd610a2d565b6040516102ca9190610adc565b60405180910390f35b6000600560008373ffffffffffffffffffffffffffffffffffffffff1673ffffffffffffffffffffffffffffffffffffffff16815260200190815260200160002054670de0b6b3a7640000600660008573ffffffffffffffffffffffffffffffffffffffff1673ffffffffffffffffffffffffffffffffffffffff168152602001908152602001600020546103666109a6565b6103709190610c0c565b600760008673ffffffffffffffffffffffffffffffffffffffff1673ffffffffffffffffffffffffffffffffffffffff168152602001908152602001600020546103ba9190610c40565b6103c49190610cb1565b6103ce9190610ce2565b9050919050565b806103de6109a6565b600481905550426003819055506103f4816102d3565b600560008373ffffffffffffffffffffffffffffffffffffffff1673ffffffffffffffffffffffffffffffffffffffff16815260200190815260200160002081905550600454600660008373ffffffffffffffffffffffffffffffffffffffff1673ffffffffffffffffffffffffffffffffffffffff16815260200190815260200160002081905550826008600082825461048f9190610c0c565b9250508190555082600760008473ffffffffffffffffffffffffffffffffffffffff1673ffffffffffffffffffffffffffffffffffffffff16815260200190815260200160002060008282546104e59190610c0c565b92505081905550600160009054906101000a900473ffffffffffffffffffffffffffffffffffffffff1673ffffffffffffffffffffffffffffffffffffffff1663a9059cbb83856040518363ffffffff1660e01b8152600401610549929190610d25565b6020604051808303816000875af1158015610568573d6000803e3d6000fd5b505050506040513d601f19601f8201168201806040525081019061058c9190610d86565b50505050565b60056020528060005260406000206000915090505481565b60085481565b336105b96109a6565b600481905550426003819055506105cf816102d3565b600560008373ffffffffffffffffffffffffffffffffffffffff1673ffffffffffffffffffffffffffffffffffffffff16815260200190815260200160002081905550600454600660008373ffffffffffffffffffffffffffffffffffffffff1673ffffffffffffffffffffffffffffffffffffffff168152602001908152602001600020819055506000600560008473ffffffffffffffffffffffffffffffffffffffff1673ffffffffffffffffffffffffffffffffffffffff1681526020019081526020016000205490506000600560008573ffffffffffffffffffffffffffffffffffffffff1673ffffffffffffffffffffffffffffffffffffffff1681526020019081526020016000208190555060008054906101000a900473ffffffffffffffffffffffffffffffffffffffff1673ffffffffffffffffffffffffffffffffffffffff1663a9059cbb84836040518363ffffffff1660e01b815260040161073c929190610d25565b6020604051808303816000875af115801561075b573d6000803e3d6000fd5b505050506040513d601f19601f8201168201806040525081019061077f9190610d86565b50505050565b600160009054906101000a900473ffffffffffffffffffffffffffffffffffffffff1681565b806107b46109a6565b600481905550426003819055506107ca816102d3565b600560008373ffffffffffffffffffffffffffffffffffffffff1673ffffffffffffffffffffffffffffffffffffffff16815260200190815260200160002081905550600454600660008373ffffffffffffffffffffffffffffffffffffffff1673ffffffffffffffffffffffffffffffffffffffff1681526020019081526020016000208190555082600860008282546108659190610ce2565b9250508190555082600760008473ffffffffffffffffffffffffffffffffffffffff1673ffffffffffffffffffffffffffffffffffffffff16815260200190815260200160002060008282546108bb9190610ce2565b92505081905550600160009054906101000a900473ffffffffffffffffffffffffffffffffffffffff1673ffffffffffffffffffffffffffffffffffffffff166323b872dd8330866040518463ffffffff1660e01b815260040161092193929190610db3565b6020604051808303816000875af1158015610940573d6000803e3d6000fd5b505050506040513d601f19601f820116820180604052508101906109649190610d86565b50505050565b60025481565b60066020528060005260406000206000915090505481565b60076020528060005260406000206000915090505481565b60035481565b600080600854036109bb576004549050610a06565b600854670de0b6b3a7640000600254600354426109d89190610c0c565b6109e29190610c40565b6109ec9190610c40565b6109f69190610cb1565b600454610a039190610ce2565b90505b90565b60008054906101000a900473ffffffffffffffffffffffffffffffffffffffff1681565b60045481565b600080fd5b600073ffffffffffffffffffffffffffffffffffffffff82169050919050565b6000610a6382610a38565b9050919050565b610a7381610a58565b8114610a7e57600080fd5b50565b600081359050610a9081610a6a565b92915050565b600060208284031215610aac57610aab610a33565b5b6000610aba84828501610a81565b91505092915050565b6000819050919050565b610ad681610ac3565b82525050565b6000602082019050610af16000830184610acd565b92915050565b610b0081610ac3565b8114610b0b57600080fd5b50565b600081359050610b1d81610af7565b92915050565b60008060408385031215610b3a57610b39610a33565b5b6000610b4885828601610b0e565b9250506020610b5985828601610a81565b9150509250929050565b6000819050919050565b6000610b88610b83610b7e84610a38565b610b63565b610a38565b9050919050565b6000610b9a82610b6d565b9050919050565b6000610bac82610b8f565b9050919050565b610bbc81610ba1565b82525050565b6000602082019050610bd76000830184610bb3565b92915050565b7f4e487b7100000000000000000000000000000000000000000000000000000000600052601160045260246000fd5b6000610c1782610ac3565b9150610c2283610ac3565b9250828203905081811115610c3a57610c39610bdd565b5b92915050565b6000610c4b82610ac3565b9150610c5683610ac3565b9250828202610c6481610ac3565b91508282048414831517610c7b57610c7a610bdd565b5b5092915050565b7f4e487b7100000000000000000000000000000000000000000000000000000000600052601260045260246000fd5b6000610cbc82610ac3565b9150610cc783610ac3565b925082610cd757610cd6610c82565b5b828204905092915050565b6000610ced82610ac3565b9150610cf883610ac3565b9250828201905080821115610d1057610d0f610bdd565b5b92915050565b610d1f81610a58565b82525050565b6000604082019050610d3a6000830185610d16565b610d476020830184610acd565b9392505050565b60008115159050919050565b610d6381610d4e565b8114610d6e57600080fd5b50565b600081519050610d8081610d5a565b92915050565b600060208284031215610d9c57610d9b610a33565b5b6000610daa84828501610d71565b91505092915050565b6000606082019050610dc86000830186610d16565b610dd56020830185610d16565b610de26040830184610acd565b94935050505056fea2646970667358221220b51d5920485c7314ac49752a3fe60e9fc794f45d09c685c9cdf1c9dd8b492bf864736f6c63430008120033",
					"opcodes": "PUSH1 0x80 PUSH1 0x40 MSTORE PUSH1 0x64 PUSH1 0x2 SSTORE CALLVALUE DUP1 ISZERO PUSH3 0x16 JUMPI PUSH1 0x0 DUP1 REVERT JUMPDEST POP PUSH1 0x40 MLOAD PUSH3 0xFA6 CODESIZE SUB DUP1 PUSH3 0xFA6 DUP4 CODECOPY DUP2 DUP2 ADD PUSH1 0x40 MSTORE DUP2 ADD SWAP1 PUSH3 0x3C SWAP2 SWAP1 PUSH3 0x12F JUMP JUMPDEST DUP2 PUSH1 0x1 PUSH1 0x0 PUSH2 0x100 EXP DUP2 SLOAD DUP2 PUSH20 0xFFFFFFFFFFFFFFFFFFFFFFFFFFFFFFFFFFFFFFFF MUL NOT AND SWAP1 DUP4 PUSH20 0xFFFFFFFFFFFFFFFFFFFFFFFFFFFFFFFFFFFFFFFF AND MUL OR SWAP1 SSTORE POP DUP1 PUSH1 0x0 DUP1 PUSH2 0x100 EXP DUP2 SLOAD DUP2 PUSH20 0xFFFFFFFFFFFFFFFFFFFFFFFFFFFFFFFFFFFFFFFF MUL NOT AND SWAP1 DUP4 PUSH20 0xFFFFFFFFFFFFFFFFFFFFFFFFFFFFFFFFFFFFFFFF AND MUL OR SWAP1 SSTORE POP POP POP PUSH3 0x176 JUMP JUMPDEST PUSH1 0x0 DUP1 REVERT JUMPDEST PUSH1 0x0 PUSH20 0xFFFFFFFFFFFFFFFFFFFFFFFFFFFFFFFFFFFFFFFF DUP3 AND SWAP1 POP SWAP2 SWAP1 POP JUMP JUMPDEST PUSH1 0x0 PUSH3 0xF7 DUP3 PUSH3 0xCA JUMP JUMPDEST SWAP1 POP SWAP2 SWAP1 POP JUMP JUMPDEST PUSH3 0x109 DUP2 PUSH3 0xEA JUMP JUMPDEST DUP2 EQ PUSH3 0x115 JUMPI PUSH1 0x0 DUP1 REVERT JUMPDEST POP JUMP JUMPDEST PUSH1 0x0 DUP2 MLOAD SWAP1 POP PUSH3 0x129 DUP2 PUSH3 0xFE JUMP JUMPDEST SWAP3 SWAP2 POP POP JUMP JUMPDEST PUSH1 0x0 DUP1 PUSH1 0x40 DUP4 DUP6 SUB SLT ISZERO PUSH3 0x149 JUMPI PUSH3 0x148 PUSH3 0xC5 JUMP JUMPDEST JUMPDEST PUSH1 0x0 PUSH3 0x159 DUP6 DUP3 DUP7 ADD PUSH3 0x118 JUMP JUMPDEST SWAP3 POP POP PUSH1 0x20 PUSH3 0x16C DUP6 DUP3 DUP7 ADD PUSH3 0x118 JUMP JUMPDEST SWAP2 POP POP SWAP3 POP SWAP3 SWAP1 POP JUMP JUMPDEST PUSH2 0xE20 DUP1 PUSH3 0x186 PUSH1 0x0 CODECOPY PUSH1 0x0 RETURN INVALID PUSH1 0x80 PUSH1 0x40 MSTORE CALLVALUE DUP1 ISZERO PUSH2 0x10 JUMPI PUSH1 0x0 DUP1 REVERT JUMPDEST POP PUSH1 0x4 CALLDATASIZE LT PUSH2 0xE8 JUMPI PUSH1 0x0 CALLDATALOAD PUSH1 0xE0 SHR DUP1 PUSH4 0x7B0A47EE GT PUSH2 0x8C JUMPI DUP1 PUSH4 0xC8F33C91 GT PUSH2 0x66 JUMPI DUP1 PUSH4 0xC8F33C91 EQ PUSH2 0x25B JUMPI DUP1 PUSH4 0xCD3DAF9D EQ PUSH2 0x279 JUMPI DUP1 PUSH4 0xD1AF0C7D EQ PUSH2 0x297 JUMPI DUP1 PUSH4 0xDF136D65 EQ PUSH2 0x2B5 JUMPI PUSH2 0xE8 JUMP JUMPDEST DUP1 PUSH4 0x7B0A47EE EQ PUSH2 0x1DD JUMPI DUP1 PUSH4 0x95D7885B EQ PUSH2 0x1FB JUMPI DUP1 PUSH4 0x98807D84 EQ PUSH2 0x22B JUMPI PUSH2 0xE8 JUMP JUMPDEST DUP1 PUSH4 0x3EAAF86B GT PUSH2 0xC8 JUMPI DUP1 PUSH4 0x3EAAF86B EQ PUSH2 0x169 JUMPI DUP1 PUSH4 0x6447C5A2 EQ PUSH2 0x187 JUMPI DUP1 PUSH4 0x72F702F3 EQ PUSH2 0x1A3 JUMPI DUP1 PUSH4 0x7ACB7757 EQ PUSH2 0x1C1 JUMPI PUSH2 0xE8 JUMP JUMPDEST DUP1 PUSH3 0x8CC262 EQ PUSH2 0xED JUMPI DUP1 PUSH3 0xF714CE EQ PUSH2 0x11D JUMPI DUP1 PUSH4 0x700037D EQ PUSH2 0x139 JUMPI JUMPDEST PUSH1 0x0 DUP1 REVERT JUMPDEST PUSH2 0x107 PUSH1 0x4 DUP1 CALLDATASIZE SUB DUP2 ADD SWAP1 PUSH2 0x102 SWAP2 SWAP1 PUSH2 0xA96 JUMP JUMPDEST PUSH2 0x2D3 JUMP JUMPDEST PUSH1 0x40 MLOAD PUSH2 0x114 SWAP2 SWAP1 PUSH2 0xADC JUMP JUMPDEST PUSH1 0x40 MLOAD DUP1 SWAP2 SUB SWAP1 RETURN JUMPDEST PUSH2 0x137 PUSH1 0x4 DUP1 CALLDATASIZE SUB DUP2 ADD SWAP1 PUSH2 0x132 SWAP2 SWAP1 PUSH2 0xB23 JUMP JUMPDEST PUSH2 0x3D5 JUMP JUMPDEST STOP JUMPDEST PUSH2 0x153 PUSH1 0x4 DUP1 CALLDATASIZE SUB DUP2 ADD SWAP1 PUSH2 0x14E SWAP2 SWAP1 PUSH2 0xA96 JUMP JUMPDEST PUSH2 0x592 JUMP JUMPDEST PUSH1 0x40 MLOAD PUSH2 0x160 SWAP2 SWAP1 PUSH2 0xADC JUMP JUMPDEST PUSH1 0x40 MLOAD DUP1 SWAP2 SUB SWAP1 RETURN JUMPDEST PUSH2 0x171 PUSH2 0x5AA JUMP JUMPDEST PUSH1 0x40 MLOAD PUSH2 0x17E SWAP2 SWAP1 PUSH2 0xADC JUMP JUMPDEST PUSH1 0x40 MLOAD DUP1 SWAP2 SUB SWAP1 RETURN JUMPDEST PUSH2 0x1A1 PUSH1 0x4 DUP1 CALLDATASIZE SUB DUP2 ADD SWAP1 PUSH2 0x19C SWAP2 SWAP1 PUSH2 0xA96 JUMP JUMPDEST PUSH2 0x5B0 JUMP JUMPDEST STOP JUMPDEST PUSH2 0x1AB PUSH2 0x785 JUMP JUMPDEST PUSH1 0x40 MLOAD PUSH2 0x1B8 SWAP2 SWAP1 PUSH2 0xBC2 JUMP JUMPDEST PUSH1 0x40 MLOAD DUP1 SWAP2 SUB SWAP1 RETURN JUMPDEST PUSH2 0x1DB PUSH1 0x4 DUP1 CALLDATASIZE SUB DUP2 ADD SWAP1 PUSH2 0x1D6 SWAP2 SWAP1 PUSH2 0xB23 JUMP JUMPDEST PUSH2 0x7AB JUMP JUMPDEST STOP JUMPDEST PUSH2 0x1E5 PUSH2 0x96A JUMP JUMPDEST PUSH1 0x40 MLOAD PUSH2 0x1F2 SWAP2 SWAP1 PUSH2 0xADC JUMP JUMPDEST PUSH1 0x40 MLOAD DUP1 SWAP2 SUB SWAP1 RETURN JUMPDEST PUSH2 0x215 PUSH1 0x4 DUP1 CALLDATASIZE SUB DUP2 ADD SWAP1 PUSH2 0x210 SWAP2 SWAP1 PUSH2 0xA96 JUMP JUMPDEST PUSH2 0x970 JUMP JUMPDEST PUSH1 0x40 MLOAD PUSH2 0x222 SWAP2 SWAP1 PUSH2 0xADC JUMP JUMPDEST PUSH1 0x40 MLOAD DUP1 SWAP2 SUB SWAP1 RETURN JUMPDEST PUSH2 0x245 PUSH1 0x4 DUP1 CALLDATASIZE SUB DUP2 ADD SWAP1 PUSH2 0x240 SWAP2 SWAP1 PUSH2 0xA96 JUMP JUMPDEST PUSH2 0x988 JUMP JUMPDEST PUSH1 0x40 MLOAD PUSH2 0x252 SWAP2 SWAP1 PUSH2 0xADC JUMP JUMPDEST PUSH1 0x40 MLOAD DUP1 SWAP2 SUB SWAP1 RETURN JUMPDEST PUSH2 0x263 PUSH2 0x9A0 JUMP JUMPDEST PUSH1 0x40 MLOAD PUSH2 0x270 SWAP2 SWAP1 PUSH2 0xADC JUMP JUMPDEST PUSH1 0x40 MLOAD DUP1 SWAP2 SUB SWAP1 RETURN JUMPDEST PUSH2 0x281 PUSH2 0x9A6 JUMP JUMPDEST PUSH1 0x40 MLOAD PUSH2 0x28E SWAP2 SWAP1 PUSH2 0xADC JUMP JUMPDEST PUSH1 0x40 MLOAD DUP1 SWAP2 SUB SWAP1 RETURN JUMPDEST PUSH2 0x29F PUSH2 0xA09 JUMP JUMPDEST PUSH1 0x40 MLOAD PUSH2 0x2AC SWAP2 SWAP1 PUSH2 0xBC2 JUMP JUMPDEST PUSH1 0x40 MLOAD DUP1 SWAP2 SUB SWAP1 RETURN JUMPDEST PUSH2 0x2BD PUSH2 0xA2D JUMP JUMPDEST PUSH1 0x40 MLOAD PUSH2 0x2CA SWAP2 SWAP1 PUSH2 0xADC JUMP JUMPDEST PUSH1 0x40 MLOAD DUP1 SWAP2 SUB SWAP1 RETURN JUMPDEST PUSH1 0x0 PUSH1 0x5 PUSH1 0x0 DUP4 PUSH20 0xFFFFFFFFFFFFFFFFFFFFFFFFFFFFFFFFFFFFFFFF AND PUSH20 0xFFFFFFFFFFFFFFFFFFFFFFFFFFFFFFFFFFFFFFFF AND DUP2 MSTORE PUSH1 0x20 ADD SWAP1 DUP2 MSTORE PUSH1 0x20 ADD PUSH1 0x0 KECCAK256 SLOAD PUSH8 0xDE0B6B3A7640000 PUSH1 0x6 PUSH1 0x0 DUP6 PUSH20 0xFFFFFFFFFFFFFFFFFFFFFFFFFFFFFFFFFFFFFFFF AND PUSH20 0xFFFFFFFFFFFFFFFFFFFFFFFFFFFFFFFFFFFFFFFF AND DUP2 MSTORE PUSH1 0x20 ADD SWAP1 DUP2 MSTORE PUSH1 0x20 ADD PUSH1 0x0 KECCAK256 SLOAD PUSH2 0x366 PUSH2 0x9A6 JUMP JUMPDEST PUSH2 0x370 SWAP2 SWAP1 PUSH2 0xC0C JUMP JUMPDEST PUSH1 0x7 PUSH1 0x0 DUP7 PUSH20 0xFFFFFFFFFFFFFFFFFFFFFFFFFFFFFFFFFFFFFFFF AND PUSH20 0xFFFFFFFFFFFFFFFFFFFFFFFFFFFFFFFFFFFFFFFF AND DUP2 MSTORE PUSH1 0x20 ADD SWAP1 DUP2 MSTORE PUSH1 0x20 ADD PUSH1 0x0 KECCAK256 SLOAD PUSH2 0x3BA SWAP2 SWAP1 PUSH2 0xC40 JUMP JUMPDEST PUSH2 0x3C4 SWAP2 SWAP1 PUSH2 0xCB1 JUMP JUMPDEST PUSH2 0x3CE SWAP2 SWAP1 PUSH2 0xCE2 JUMP JUMPDEST SWAP1 POP SWAP2 SWAP1 POP JUMP JUMPDEST DUP1 PUSH2 0x3DE PUSH2 0x9A6 JUMP JUMPDEST PUSH1 0x4 DUP2 SWAP1 SSTORE POP TIMESTAMP PUSH1 0x3 DUP2 SWAP1 SSTORE POP PUSH2 0x3F4 DUP2 PUSH2 0x2D3 JUMP JUMPDEST PUSH1 0x5 PUSH1 0x0 DUP4 PUSH20 0xFFFFFFFFFFFFFFFFFFFFFFFFFFFFFFFFFFFFFFFF AND PUSH20 0xFFFFFFFFFFFFFFFFFFFFFFFFFFFFFFFFFFFFFFFF AND DUP2 MSTORE PUSH1 0x20 ADD SWAP1 DUP2 MSTORE PUSH1 0x20 ADD PUSH1 0x0 KECCAK256 DUP2 SWAP1 SSTORE POP PUSH1 0x4 SLOAD PUSH1 0x6 PUSH1 0x0 DUP4 PUSH20 0xFFFFFFFFFFFFFFFFFFFFFFFFFFFFFFFFFFFFFFFF AND PUSH20 0xFFFFFFFFFFFFFFFFFFFFFFFFFFFFFFFFFFFFFFFF AND DUP2 MSTORE PUSH1 0x20 ADD SWAP1 DUP2 MSTORE PUSH1 0x20 ADD PUSH1 0x0 KECCAK256 DUP2 SWAP1 SSTORE POP DUP3 PUSH1 0x8 PUSH1 0x0 DUP3 DUP3 SLOAD PUSH2 0x48F SWAP2 SWAP1 PUSH2 0xC0C JUMP JUMPDEST SWAP3 POP POP DUP2 SWAP1 SSTORE POP DUP3 PUSH1 0x7 PUSH1 0x0 DUP5 PUSH20 0xFFFFFFFFFFFFFFFFFFFFFFFFFFFFFFFFFFFFFFFF AND PUSH20 0xFFFFFFFFFFFFFFFFFFFFFFFFFFFFFFFFFFFFFFFF AND DUP2 MSTORE PUSH1 0x20 ADD SWAP1 DUP2 MSTORE PUSH1 0x20 ADD PUSH1 0x0 KECCAK256 PUSH1 0x0 DUP3 DUP3 SLOAD PUSH2 0x4E5 SWAP2 SWAP1 PUSH2 0xC0C JUMP JUMPDEST SWAP3 POP POP DUP2 SWAP1 SSTORE POP PUSH1 0x1 PUSH1 0x0 SWAP1 SLOAD SWAP1 PUSH2 0x100 EXP SWAP1 DIV PUSH20 0xFFFFFFFFFFFFFFFFFFFFFFFFFFFFFFFFFFFFFFFF AND PUSH20 0xFFFFFFFFFFFFFFFFFFFFFFFFFFFFFFFFFFFFFFFF AND PUSH4 0xA9059CBB DUP4 DUP6 PUSH1 0x40 MLOAD DUP4 PUSH4 0xFFFFFFFF AND PUSH1 0xE0 SHL DUP2 MSTORE PUSH1 0x4 ADD PUSH2 0x549 SWAP3 SWAP2 SWAP1 PUSH2 0xD25 JUMP JUMPDEST PUSH1 0x20 PUSH1 0x40 MLOAD DUP1 DUP4 SUB DUP2 PUSH1 0x0 DUP8 GAS CALL ISZERO DUP1 ISZERO PUSH2 0x568 JUMPI RETURNDATASIZE PUSH1 0x0 DUP1 RETURNDATACOPY RETURNDATASIZE PUSH1 0x0 REVERT JUMPDEST POP POP POP POP PUSH1 0x40 MLOAD RETURNDATASIZE PUSH1 0x1F NOT PUSH1 0x1F DUP3 ADD AND DUP3 ADD DUP1 PUSH1 0x40 MSTORE POP DUP2 ADD SWAP1 PUSH2 0x58C SWAP2 SWAP1 PUSH2 0xD86 JUMP JUMPDEST POP POP POP POP JUMP JUMPDEST PUSH1 0x5 PUSH1 0x20 MSTORE DUP1 PUSH1 0x0 MSTORE PUSH1 0x40 PUSH1 0x0 KECCAK256 PUSH1 0x0 SWAP2 POP SWAP1 POP SLOAD DUP2 JUMP JUMPDEST PUSH1 0x8 SLOAD DUP2 JUMP JUMPDEST CALLER PUSH2 0x5B9 PUSH2 0x9A6 JUMP JUMPDEST PUSH1 0x4 DUP2 SWAP1 SSTORE POP TIMESTAMP PUSH1 0x3 DUP2 SWAP1 SSTORE POP PUSH2 0x5CF DUP2 PUSH2 0x2D3 JUMP JUMPDEST PUSH1 0x5 PUSH1 0x0 DUP4 PUSH20 0xFFFFFFFFFFFFFFFFFFFFFFFFFFFFFFFFFFFFFFFF AND PUSH20 0xFFFFFFFFFFFFFFFFFFFFFFFFFFFFFFFFFFFFFFFF AND DUP2 MSTORE PUSH1 0x20 ADD SWAP1 DUP2 MSTORE PUSH1 0x20 ADD PUSH1 0x0 KECCAK256 DUP2 SWAP1 SSTORE POP PUSH1 0x4 SLOAD PUSH1 0x6 PUSH1 0x0 DUP4 PUSH20 0xFFFFFFFFFFFFFFFFFFFFFFFFFFFFFFFFFFFFFFFF AND PUSH20 0xFFFFFFFFFFFFFFFFFFFFFFFFFFFFFFFFFFFFFFFF AND DUP2 MSTORE PUSH1 0x20 ADD SWAP1 DUP2 MSTORE PUSH1 0x20 ADD PUSH1 0x0 KECCAK256 DUP2 SWAP1 SSTORE POP PUSH1 0x0 PUSH1 0x5 PUSH1 0x0 DUP5 PUSH20 0xFFFFFFFFFFFFFFFFFFFFFFFFFFFFFFFFFFFFFFFF AND PUSH20 0xFFFFFFFFFFFFFFFFFFFFFFFFFFFFFFFFFFFFFFFF AND DUP2 MSTORE PUSH1 0x20 ADD SWAP1 DUP2 MSTORE PUSH1 0x20 ADD PUSH1 0x0 KECCAK256 SLOAD SWAP1 POP PUSH1 0x0 PUSH1 0x5 PUSH1 0x0 DUP6 PUSH20 0xFFFFFFFFFFFFFFFFFFFFFFFFFFFFFFFFFFFFFFFF AND PUSH20 0xFFFFFFFFFFFFFFFFFFFFFFFFFFFFFFFFFFFFFFFF AND DUP2 MSTORE PUSH1 0x20 ADD SWAP1 DUP2 MSTORE PUSH1 0x20 ADD PUSH1 0x0 KECCAK256 DUP2 SWAP1 SSTORE POP PUSH1 0x0 DUP1 SLOAD SWAP1 PUSH2 0x100 EXP SWAP1 DIV PUSH20 0xFFFFFFFFFFFFFFFFFFFFFFFFFFFFFFFFFFFFFFFF AND PUSH20 0xFFFFFFFFFFFFFFFFFFFFFFFFFFFFFFFFFFFFFFFF AND PUSH4 0xA9059CBB DUP5 DUP4 PUSH1 0x40 MLOAD DUP4 PUSH4 0xFFFFFFFF AND PUSH1 0xE0 SHL DUP2 MSTORE PUSH1 0x4 ADD PUSH2 0x73C SWAP3 SWAP2 SWAP1 PUSH2 0xD25 JUMP JUMPDEST PUSH1 0x20 PUSH1 0x40 MLOAD DUP1 DUP4 SUB DUP2 PUSH1 0x0 DUP8 GAS CALL ISZERO DUP1 ISZERO PUSH2 0x75B JUMPI RETURNDATASIZE PUSH1 0x0 DUP1 RETURNDATACOPY RETURNDATASIZE PUSH1 0x0 REVERT JUMPDEST POP POP POP POP PUSH1 0x40 MLOAD RETURNDATASIZE PUSH1 0x1F NOT PUSH1 0x1F DUP3 ADD AND DUP3 ADD DUP1 PUSH1 0x40 MSTORE POP DUP2 ADD SWAP1 PUSH2 0x77F SWAP2 SWAP1 PUSH2 0xD86 JUMP JUMPDEST POP POP POP POP JUMP JUMPDEST PUSH1 0x1 PUSH1 0x0 SWAP1 SLOAD SWAP1 PUSH2 0x100 EXP SWAP1 DIV PUSH20 0xFFFFFFFFFFFFFFFFFFFFFFFFFFFFFFFFFFFFFFFF AND DUP2 JUMP JUMPDEST DUP1 PUSH2 0x7B4 PUSH2 0x9A6 JUMP JUMPDEST PUSH1 0x4 DUP2 SWAP1 SSTORE POP TIMESTAMP PUSH1 0x3 DUP2 SWAP1 SSTORE POP PUSH2 0x7CA DUP2 PUSH2 0x2D3 JUMP JUMPDEST PUSH1 0x5 PUSH1 0x0 DUP4 PUSH20 0xFFFFFFFFFFFFFFFFFFFFFFFFFFFFFFFFFFFFFFFF AND PUSH20 0xFFFFFFFFFFFFFFFFFFFFFFFFFFFFFFFFFFFFFFFF AND DUP2 MSTORE PUSH1 0x20 ADD SWAP1 DUP2 MSTORE PUSH1 0x20 ADD PUSH1 0x0 KECCAK256 DUP2 SWAP1 SSTORE POP PUSH1 0x4 SLOAD PUSH1 0x6 PUSH1 0x0 DUP4 PUSH20 0xFFFFFFFFFFFFFFFFFFFFFFFFFFFFFFFFFFFFFFFF AND PUSH20 0xFFFFFFFFFFFFFFFFFFFFFFFFFFFFFFFFFFFFFFFF AND DUP2 MSTORE PUSH1 0x20 ADD SWAP1 DUP2 MSTORE PUSH1 0x20 ADD PUSH1 0x0 KECCAK256 DUP2 SWAP1 SSTORE POP DUP3 PUSH1 0x8 PUSH1 0x0 DUP3 DUP3 SLOAD PUSH2 0x865 SWAP2 SWAP1 PUSH2 0xCE2 JUMP JUMPDEST SWAP3 POP POP DUP2 SWAP1 SSTORE POP DUP3 PUSH1 0x7 PUSH1 0x0 DUP5 PUSH20 0xFFFFFFFFFFFFFFFFFFFFFFFFFFFFFFFFFFFFFFFF AND PUSH20 0xFFFFFFFFFFFFFFFFFFFFFFFFFFFFFFFFFFFFFFFF AND DUP2 MSTORE PUSH1 0x20 ADD SWAP1 DUP2 MSTORE PUSH1 0x20 ADD PUSH1 0x0 KECCAK256 PUSH1 0x0 DUP3 DUP3 SLOAD PUSH2 0x8BB SWAP2 SWAP1 PUSH2 0xCE2 JUMP JUMPDEST SWAP3 POP POP DUP2 SWAP1 SSTORE POP PUSH1 0x1 PUSH1 0x0 SWAP1 SLOAD SWAP1 PUSH2 0x100 EXP SWAP1 DIV PUSH20 0xFFFFFFFFFFFFFFFFFFFFFFFFFFFFFFFFFFFFFFFF AND PUSH20 0xFFFFFFFFFFFFFFFFFFFFFFFFFFFFFFFFFFFFFFFF AND PUSH4 0x23B872DD DUP4 ADDRESS DUP7 PUSH1 0x40 MLOAD DUP5 PUSH4 0xFFFFFFFF AND PUSH1 0xE0 SHL DUP2 MSTORE PUSH1 0x4 ADD PUSH2 0x921 SWAP4 SWAP3 SWAP2 SWAP1 PUSH2 0xDB3 JUMP JUMPDEST PUSH1 0x20 PUSH1 0x40 MLOAD DUP1 DUP4 SUB DUP2 PUSH1 0x0 DUP8 GAS CALL ISZERO DUP1 ISZERO PUSH2 0x940 JUMPI RETURNDATASIZE PUSH1 0x0 DUP1 RETURNDATACOPY RETURNDATASIZE PUSH1 0x0 REVERT JUMPDEST POP POP POP POP PUSH1 0x40 MLOAD RETURNDATASIZE PUSH1 0x1F NOT PUSH1 0x1F DUP3 ADD AND DUP3 ADD DUP1 PUSH1 0x40 MSTORE POP DUP2 ADD SWAP1 PUSH2 0x964 SWAP2 SWAP1 PUSH2 0xD86 JUMP JUMPDEST POP POP POP POP JUMP JUMPDEST PUSH1 0x2 SLOAD DUP2 JUMP JUMPDEST PUSH1 0x6 PUSH1 0x20 MSTORE DUP1 PUSH1 0x0 MSTORE PUSH1 0x40 PUSH1 0x0 KECCAK256 PUSH1 0x0 SWAP2 POP SWAP1 POP SLOAD DUP2 JUMP JUMPDEST PUSH1 0x7 PUSH1 0x20 MSTORE DUP1 PUSH1 0x0 MSTORE PUSH1 0x40 PUSH1 0x0 KECCAK256 PUSH1 0x0 SWAP2 POP SWAP1 POP SLOAD DUP2 JUMP JUMPDEST PUSH1 0x3 SLOAD DUP2 JUMP JUMPDEST PUSH1 0x0 DUP1 PUSH1 0x8 SLOAD SUB PUSH2 0x9BB JUMPI PUSH1 0x4 SLOAD SWAP1 POP PUSH2 0xA06 JUMP JUMPDEST PUSH1 0x8 SLOAD PUSH8 0xDE0B6B3A7640000 PUSH1 0x2 SLOAD PUSH1 0x3 SLOAD TIMESTAMP PUSH2 0x9D8 SWAP2 SWAP1 PUSH2 0xC0C JUMP JUMPDEST PUSH2 0x9E2 SWAP2 SWAP1 PUSH2 0xC40 JUMP JUMPDEST PUSH2 0x9EC SWAP2 SWAP1 PUSH2 0xC40 JUMP JUMPDEST PUSH2 0x9F6 SWAP2 SWAP1 PUSH2 0xCB1 JUMP JUMPDEST PUSH1 0x4 SLOAD PUSH2 0xA03 SWAP2 SWAP1 PUSH2 0xCE2 JUMP JUMPDEST SWAP1 POP JUMPDEST SWAP1 JUMP JUMPDEST PUSH1 0x0 DUP1 SLOAD SWAP1 PUSH2 0x100 EXP SWAP1 DIV PUSH20 0xFFFFFFFFFFFFFFFFFFFFFFFFFFFFFFFFFFFFFFFF AND DUP2 JUMP JUMPDEST PUSH1 0x4 SLOAD DUP2 JUMP JUMPDEST PUSH1 0x0 DUP1 REVERT JUMPDEST PUSH1 0x0 PUSH20 0xFFFFFFFFFFFFFFFFFFFFFFFFFFFFFFFFFFFFFFFF DUP3 AND SWAP1 POP SWAP2 SWAP1 POP JUMP JUMPDEST PUSH1 0x0 PUSH2 0xA63 DUP3 PUSH2 0xA38 JUMP JUMPDEST SWAP1 POP SWAP2 SWAP1 POP JUMP JUMPDEST PUSH2 0xA73 DUP2 PUSH2 0xA58 JUMP JUMPDEST DUP2 EQ PUSH2 0xA7E JUMPI PUSH1 0x0 DUP1 REVERT JUMPDEST POP JUMP JUMPDEST PUSH1 0x0 DUP2 CALLDATALOAD SWAP1 POP PUSH2 0xA90 DUP2 PUSH2 0xA6A JUMP JUMPDEST SWAP3 SWAP2 POP POP JUMP JUMPDEST PUSH1 0x0 PUSH1 0x20 DUP3 DUP5 SUB SLT ISZERO PUSH2 0xAAC JUMPI PUSH2 0xAAB PUSH2 0xA33 JUMP JUMPDEST JUMPDEST PUSH1 0x0 PUSH2 0xABA DUP5 DUP3 DUP6 ADD PUSH2 0xA81 JUMP JUMPDEST SWAP2 POP POP SWAP3 SWAP2 POP POP JUMP JUMPDEST PUSH1 0x0 DUP2 SWAP1 POP SWAP2 SWAP1 POP JUMP JUMPDEST PUSH2 0xAD6 DUP2 PUSH2 0xAC3 JUMP JUMPDEST DUP3 MSTORE POP POP JUMP JUMPDEST PUSH1 0x0 PUSH1 0x20 DUP3 ADD SWAP1 POP PUSH2 0xAF1 PUSH1 0x0 DUP4 ADD DUP5 PUSH2 0xACD JUMP JUMPDEST SWAP3 SWAP2 POP POP JUMP JUMPDEST PUSH2 0xB00 DUP2 PUSH2 0xAC3 JUMP JUMPDEST DUP2 EQ PUSH2 0xB0B JUMPI PUSH1 0x0 DUP1 REVERT JUMPDEST POP JUMP JUMPDEST PUSH1 0x0 DUP2 CALLDATALOAD SWAP1 POP PUSH2 0xB1D DUP2 PUSH2 0xAF7 JUMP JUMPDEST SWAP3 SWAP2 POP POP JUMP JUMPDEST PUSH1 0x0 DUP1 PUSH1 0x40 DUP4 DUP6 SUB SLT ISZERO PUSH2 0xB3A JUMPI PUSH2 0xB39 PUSH2 0xA33 JUMP JUMPDEST JUMPDEST PUSH1 0x0 PUSH2 0xB48 DUP6 DUP3 DUP7 ADD PUSH2 0xB0E JUMP JUMPDEST SWAP3 POP POP PUSH1 0x20 PUSH2 0xB59 DUP6 DUP3 DUP7 ADD PUSH2 0xA81 JUMP JUMPDEST SWAP2 POP POP SWAP3 POP SWAP3 SWAP1 POP JUMP JUMPDEST PUSH1 0x0 DUP2 SWAP1 POP SWAP2 SWAP1 POP JUMP JUMPDEST PUSH1 0x0 PUSH2 0xB88 PUSH2 0xB83 PUSH2 0xB7E DUP5 PUSH2 0xA38 JUMP JUMPDEST PUSH2 0xB63 JUMP JUMPDEST PUSH2 0xA38 JUMP JUMPDEST SWAP1 POP SWAP2 SWAP1 POP JUMP JUMPDEST PUSH1 0x0 PUSH2 0xB9A DUP3 PUSH2 0xB6D JUMP JUMPDEST SWAP1 POP SWAP2 SWAP1 POP JUMP JUMPDEST PUSH1 0x0 PUSH2 0xBAC DUP3 PUSH2 0xB8F JUMP JUMPDEST SWAP1 POP SWAP2 SWAP1 POP JUMP JUMPDEST PUSH2 0xBBC DUP2 PUSH2 0xBA1 JUMP JUMPDEST DUP3 MSTORE POP POP JUMP JUMPDEST PUSH1 0x0 PUSH1 0x20 DUP3 ADD SWAP1 POP PUSH2 0xBD7 PUSH1 0x0 DUP4 ADD DUP5 PUSH2 0xBB3 JUMP JUMPDEST SWAP3 SWAP2 POP POP JUMP JUMPDEST PUSH32 0x4E487B7100000000000000000000000000000000000000000000000000000000 PUSH1 0x0 MSTORE PUSH1 0x11 PUSH1 0x4 MSTORE PUSH1 0x24 PUSH1 0x0 REVERT JUMPDEST PUSH1 0x0 PUSH2 0xC17 DUP3 PUSH2 0xAC3 JUMP JUMPDEST SWAP2 POP PUSH2 0xC22 DUP4 PUSH2 0xAC3 JUMP JUMPDEST SWAP3 POP DUP3 DUP3 SUB SWAP1 POP DUP2 DUP2 GT ISZERO PUSH2 0xC3A JUMPI PUSH2 0xC39 PUSH2 0xBDD JUMP JUMPDEST JUMPDEST SWAP3 SWAP2 POP POP JUMP JUMPDEST PUSH1 0x0 PUSH2 0xC4B DUP3 PUSH2 0xAC3 JUMP JUMPDEST SWAP2 POP PUSH2 0xC56 DUP4 PUSH2 0xAC3 JUMP JUMPDEST SWAP3 POP DUP3 DUP3 MUL PUSH2 0xC64 DUP2 PUSH2 0xAC3 JUMP JUMPDEST SWAP2 POP DUP3 DUP3 DIV DUP5 EQ DUP4 ISZERO OR PUSH2 0xC7B JUMPI PUSH2 0xC7A PUSH2 0xBDD JUMP JUMPDEST JUMPDEST POP SWAP3 SWAP2 POP POP JUMP JUMPDEST PUSH32 0x4E487B7100000000000000000000000000000000000000000000000000000000 PUSH1 0x0 MSTORE PUSH1 0x12 PUSH1 0x4 MSTORE PUSH1 0x24 PUSH1 0x0 REVERT JUMPDEST PUSH1 0x0 PUSH2 0xCBC DUP3 PUSH2 0xAC3 JUMP JUMPDEST SWAP2 POP PUSH2 0xCC7 DUP4 PUSH2 0xAC3 JUMP JUMPDEST SWAP3 POP DUP3 PUSH2 0xCD7 JUMPI PUSH2 0xCD6 PUSH2 0xC82 JUMP JUMPDEST JUMPDEST DUP3 DUP3 DIV SWAP1 POP SWAP3 SWAP2 POP POP JUMP JUMPDEST PUSH1 0x0 PUSH2 0xCED DUP3 PUSH2 0xAC3 JUMP JUMPDEST SWAP2 POP PUSH2 0xCF8 DUP4 PUSH2 0xAC3 JUMP JUMPDEST SWAP3 POP DUP3 DUP3 ADD SWAP1 POP DUP1 DUP3 GT ISZERO PUSH2 0xD10 JUMPI PUSH2 0xD0F PUSH2 0xBDD JUMP JUMPDEST JUMPDEST SWAP3 SWAP2 POP POP JUMP JUMPDEST PUSH2 0xD1F DUP2 PUSH2 0xA58 JUMP JUMPDEST DUP3 MSTORE POP POP JUMP JUMPDEST PUSH1 0x0 PUSH1 0x40 DUP3 ADD SWAP1 POP PUSH2 0xD3A PUSH1 0x0 DUP4 ADD DUP6 PUSH2 0xD16 JUMP JUMPDEST PUSH2 0xD47 PUSH1 0x20 DUP4 ADD DUP5 PUSH2 0xACD JUMP JUMPDEST SWAP4 SWAP3 POP POP POP JUMP JUMPDEST PUSH1 0x0 DUP2 ISZERO ISZERO SWAP1 POP SWAP2 SWAP1 POP JUMP JUMPDEST PUSH2 0xD63 DUP2 PUSH2 0xD4E JUMP JUMPDEST DUP2 EQ PUSH2 0xD6E JUMPI PUSH1 0x0 DUP1 REVERT JUMPDEST POP JUMP JUMPDEST PUSH1 0x0 DUP2 MLOAD SWAP1 POP PUSH2 0xD80 DUP2 PUSH2 0xD5A JUMP JUMPDEST SWAP3 SWAP2 POP POP JUMP JUMPDEST PUSH1 0x0 PUSH1 0x20 DUP3 DUP5 SUB SLT ISZERO PUSH2 0xD9C JUMPI PUSH2 0xD9B PUSH2 0xA33 JUMP JUMPDEST JUMPDEST PUSH1 0x0 PUSH2 0xDAA DUP5 DUP3 DUP6 ADD PUSH2 0xD71 JUMP JUMPDEST SWAP2 POP POP SWAP3 SWAP2 POP POP JUMP JUMPDEST PUSH1 0x0 PUSH1 0x60 DUP3 ADD SWAP1 POP PUSH2 0xDC8 PUSH1 0x0 DUP4 ADD DUP7 PUSH2 0xD16 JUMP JUMPDEST PUSH2 0xDD5 PUSH1 0x20 DUP4 ADD DUP6 PUSH2 0xD16 JUMP JUMPDEST PUSH2 0xDE2 PUSH1 0x40 DUP4 ADD DUP5 PUSH2 0xACD JUMP JUMPDEST SWAP5 SWAP4 POP POP POP POP JUMP INVALID LOG2 PUSH5 0x6970667358 0x22 SLT KECCAK256 0xB5 SAR MSIZE KECCAK256 BASEFEE 0x5C PUSH20 0x14AC49752A3FE60E9FC794F45D09C685C9CDF1C9 0xDD DUP12 0x49 0x2B 0xF8 PUSH5 0x736F6C6343 STOP ADDMOD SLT STOP CALLER "
				},
				"gasEstimates": {
					"creation": {
						"codeDepositCost": "723200",
						"executionCost": "infinite",
						"totalCost": "infinite"
					},
					"external": {
						"_totalSupply()": "2452",
						"earned(address)": "infinite",
						"lastUpdateTime()": "2451",
						"reedemReward(address)": "infinite",
						"rewardPerToken()": "infinite",
						"rewardPerTokenStored()": "2517",
						"rewardRate()": "2452",
						"rewards(address)": "2882",
						"rewardsPerTokenPaid(address)": "2859",
						"rewardsToken()": "infinite",
						"stake(uint256,address)": "infinite",
						"staked(address)": "2881",
						"stakingToken()": "infinite",
						"withdraw(uint256,address)": "infinite"
					}
				},
				"methodIdentifiers": {
					"_totalSupply()": "3eaaf86b",
					"earned(address)": "008cc262",
					"lastUpdateTime()": "c8f33c91",
					"reedemReward(address)": "6447c5a2",
					"rewardPerToken()": "cd3daf9d",
					"rewardPerTokenStored()": "df136d65",
					"rewardRate()": "7b0a47ee",
					"rewards(address)": "0700037d",
					"rewardsPerTokenPaid(address)": "95d7885b",
					"rewardsToken()": "d1af0c7d",
					"stake(uint256,address)": "7acb7757",
					"staked(address)": "98807d84",
					"stakingToken()": "72f702f3",
					"withdraw(uint256,address)": "00f714ce"
				}
			},
			"storageLayout": {
				"storage": [
					{
						"astId": 6,
						"contract": "Core/StakingPool.sol:StakingPool",
						"label": "rewardsToken",
						"offset": 0,
						"slot": "0",
						"type": "t_contract(IERC20)473"
					},
					{
						"astId": 9,
						"contract": "Core/StakingPool.sol:StakingPool",
						"label": "stakingToken",
						"offset": 0,
						"slot": "1",
						"type": "t_contract(IERC20)473"
					},
					{
						"astId": 12,
						"contract": "Core/StakingPool.sol:StakingPool",
						"label": "rewardRate",
						"offset": 0,
						"slot": "2",
						"type": "t_uint256"
					},
					{
						"astId": 14,
						"contract": "Core/StakingPool.sol:StakingPool",
						"label": "lastUpdateTime",
						"offset": 0,
						"slot": "3",
						"type": "t_uint256"
					},
					{
						"astId": 16,
						"contract": "Core/StakingPool.sol:StakingPool",
						"label": "rewardPerTokenStored",
						"offset": 0,
						"slot": "4",
						"type": "t_uint256"
					},
					{
						"astId": 20,
						"contract": "Core/StakingPool.sol:StakingPool",
						"label": "rewards",
						"offset": 0,
						"slot": "5",
						"type": "t_mapping(t_address,t_uint256)"
					},
					{
						"astId": 24,
						"contract": "Core/StakingPool.sol:StakingPool",
						"label": "rewardsPerTokenPaid",
						"offset": 0,
						"slot": "6",
						"type": "t_mapping(t_address,t_uint256)"
					},
					{
						"astId": 28,
						"contract": "Core/StakingPool.sol:StakingPool",
						"label": "staked",
						"offset": 0,
						"slot": "7",
						"type": "t_mapping(t_address,t_uint256)"
					},
					{
						"astId": 30,
						"contract": "Core/StakingPool.sol:StakingPool",
						"label": "_totalSupply",
						"offset": 0,
						"slot": "8",
						"type": "t_uint256"
					}
				],
				"types": {
					"t_address": {
						"encoding": "inplace",
						"label": "address",
						"numberOfBytes": "20"
					},
					"t_contract(IERC20)473": {
						"encoding": "inplace",
						"label": "contract IERC20",
						"numberOfBytes": "20"
					},
					"t_mapping(t_address,t_uint256)": {
						"encoding": "mapping",
						"key": "t_address",
						"label": "mapping(address => uint256)",
						"numberOfBytes": "32",
						"value": "t_uint256"
					},
					"t_uint256": {
						"encoding": "inplace",
						"label": "uint256",
						"numberOfBytes": "32"
					}
				}
			},
			"userdoc": {
				"kind": "user",
				"methods": {},
				"notice": "rewards are calculated with reward rate and time period staked for",
				"version": 1
			}
		}
	}
}